{
  "contractName": "__unstable__TokenVault",
  "abi": [
    {
      "constant": false,
      "inputs": [
        {
          "name": "recipient",
          "type": "address"
        }
      ],
      "name": "transferPrimary",
      "outputs": [],
      "payable": false,
      "stateMutability": "nonpayable",
      "type": "function"
    },
    {
      "constant": true,
      "inputs": [],
      "name": "primary",
      "outputs": [
        {
          "name": "",
          "type": "address"
        }
      ],
      "payable": false,
      "stateMutability": "view",
      "type": "function"
    },
    {
      "anonymous": false,
      "inputs": [
        {
          "indexed": false,
          "name": "recipient",
          "type": "address"
        }
      ],
      "name": "PrimaryTransferred",
      "type": "event"
    },
    {
      "constant": false,
      "inputs": [
        {
          "name": "token",
          "type": "address"
        },
        {
          "name": "to",
          "type": "address"
        },
        {
          "name": "amount",
          "type": "uint256"
        }
      ],
      "name": "transfer",
      "outputs": [],
      "payable": false,
      "stateMutability": "nonpayable",
      "type": "function"
    }
  ],
  "bytecode": "0x608060405261001564010000000061006f810204565b60008054600160a060020a031916600160a060020a0392831617908190556040805191909216815290517f4101e71e974f68df5e9730cc223280b41654676bbb052cdcc735c3337e64d2d9916020908290030190a1610073565b3390565b6103ee806100826000396000f3fe608060405234801561001057600080fd5b50d3801561001d57600080fd5b50d2801561002a57600080fd5b5060043610610077577c010000000000000000000000000000000000000000000000000000000060003504632348238c811461007c578063beabacc8146100a4578063c6dbdf61146100da575b600080fd5b6100a26004803603602081101561009257600080fd5b5035600160a060020a03166100fe565b005b6100a2600480360360608110156100ba57600080fd5b50600160a060020a03813581169160208101359091169060400135610239565b6100e2610359565b60408051600160a060020a039092168252519081900360200190f35b600054600160a060020a0316610112610368565b600160a060020a031614610171576040517f08c379a000000000000000000000000000000000000000000000000000000000815260040180806020018281038252602c815260200180610397602c913960400191505060405180910390fd5b600160a060020a03811615156101d2576040517f08c379a000000000000000000000000000000000000000000000000000000000815260040180806020018281038252602a81526020018061036d602a913960400191505060405180910390fd5b6000805473ffffffffffffffffffffffffffffffffffffffff1916600160a060020a03838116919091179182905560408051929091168252517f4101e71e974f68df5e9730cc223280b41654676bbb052cdcc735c3337e64d2d9916020908290030190a150565b600054600160a060020a031661024d610368565b600160a060020a0316146102ac576040517f08c379a000000000000000000000000000000000000000000000000000000000815260040180806020018281038252602c815260200180610397602c913960400191505060405180910390fd5b82600160a060020a031663a9059cbb83836040518363ffffffff167c01000000000000000000000000000000000000000000000000000000000281526004018083600160a060020a0316600160a060020a0316815260200182815260200192505050602060405180830381600087803b15801561032857600080fd5b505af115801561033c573d6000803e3d6000fd5b505050506040513d602081101561035257600080fd5b5050505050565b600054600160a060020a031690565b339056fe5365636f6e646172793a206e6577207072696d61727920697320746865207a65726f20616464726573735365636f6e646172793a2063616c6c6572206973206e6f7420746865207072696d617279206163636f756e74a165627a7a723058200144bc31b6d37a3bb0b7b93f0f5a4022052e48b1e87bdc1c83be42f93e7768bd0029",
  "source": "pragma solidity ^0.5.0;\n\nimport \"../validation/TimedCrowdsale.sol\";\nimport \"../../math/SafeMath.sol\";\nimport \"../../ownership/Secondary.sol\";\nimport \"../../token/ERC20/IERC20.sol\";\n\n/**\n * @title PostDeliveryCrowdsale\n * @dev Crowdsale that locks tokens from withdrawal until it ends.\n */\ncontract PostDeliveryCrowdsale is TimedCrowdsale {\n    using SafeMath for uint256;\n\n    mapping(address => uint256) private _balances;\n    __unstable__TokenVault private _vault;\n\n    constructor() public {\n        _vault = new __unstable__TokenVault();\n    }\n\n    /**\n     * @dev Withdraw tokens only after crowdsale ends.\n     * @param beneficiary Whose tokens will be withdrawn.\n     */\n    function withdrawTokens(address beneficiary) public {\n        require(hasClosed(), \"PostDeliveryCrowdsale: not closed\");\n        uint256 amount = _balances[beneficiary];\n        require(amount > 0, \"PostDeliveryCrowdsale: beneficiary is not due any tokens\");\n\n        _balances[beneficiary] = 0;\n        _vault.transfer(token(), beneficiary, amount);\n    }\n\n    /**\n     * @return the balance of an account.\n     */\n    function balanceOf(address account) public view returns (uint256) {\n        return _balances[account];\n    }\n\n    /**\n     * @dev Overrides parent by storing due balances, and delivering tokens to the vault instead of the end user. This\n     * ensures that the tokens will be available by the time they are withdrawn (which may not be the case if\n     * `_deliverTokens` was called later).\n     * @param beneficiary Token purchaser\n     * @param tokenAmount Amount of tokens purchased\n     */\n    function _processPurchase(address beneficiary, uint256 tokenAmount) internal {\n        _balances[beneficiary] = _balances[beneficiary].add(tokenAmount);\n        _deliverTokens(address(_vault), tokenAmount);\n    }\n}\n\n/**\n * @title __unstable__TokenVault\n * @dev Similar to an Escrow for tokens, this contract allows its primary account to spend its tokens as it sees fit.\n * This contract is an internal helper for PostDeliveryCrowdsale, and should not be used outside of this context.\n */\n// solhint-disable-next-line contract-name-camelcase\ncontract __unstable__TokenVault is Secondary {\n    function transfer(IERC20 token, address to, uint256 amount) public onlyPrimary {\n        token.transfer(to, amount);\n    }\n}\n",
  "sourcePath": "/Users/bibodeng/Programming/water_loan_core/contracts/libraries/openzeppelin-solidity/contracts/crowdsale/distribution/PostDeliveryCrowdsale.sol",
  "compiler": {
    "name": "solc",
    "version": "0.5.4+commit.d15a3125.mod.Emscripten.clang"
  },
  "schemaVersion": "2.0.1",
  "updatedAt": "2020-11-19T10:56:46.695Z"
}