{
  "contractName": "AToken",
  "abi": [
    {
      "constant": true,
      "inputs": [],
      "name": "name",
      "outputs": [
        {
          "name": "",
          "type": "string"
        }
      ],
      "payable": false,
      "stateMutability": "view",
      "type": "function"
    },
    {
      "constant": false,
      "inputs": [
        {
          "name": "spender",
          "type": "address"
        },
        {
          "name": "amount",
          "type": "uint256"
        }
      ],
      "name": "approve",
      "outputs": [
        {
          "name": "",
          "type": "bool"
        }
      ],
      "payable": false,
      "stateMutability": "nonpayable",
      "type": "function"
    },
    {
      "constant": false,
      "inputs": [
        {
          "name": "sender",
          "type": "address"
        },
        {
          "name": "recipient",
          "type": "address"
        },
        {
          "name": "amount",
          "type": "uint256"
        }
      ],
      "name": "transferFrom",
      "outputs": [
        {
          "name": "",
          "type": "bool"
        }
      ],
      "payable": false,
      "stateMutability": "nonpayable",
      "type": "function"
    },
    {
      "constant": true,
      "inputs": [],
      "name": "decimals",
      "outputs": [
        {
          "name": "",
          "type": "uint8"
        }
      ],
      "payable": false,
      "stateMutability": "view",
      "type": "function"
    },
    {
      "constant": false,
      "inputs": [
        {
          "name": "spender",
          "type": "address"
        },
        {
          "name": "addedValue",
          "type": "uint256"
        }
      ],
      "name": "increaseAllowance",
      "outputs": [
        {
          "name": "",
          "type": "bool"
        }
      ],
      "payable": false,
      "stateMutability": "nonpayable",
      "type": "function"
    },
    {
      "constant": true,
      "inputs": [],
      "name": "underlyingAssetAddress",
      "outputs": [
        {
          "name": "",
          "type": "address"
        }
      ],
      "payable": false,
      "stateMutability": "view",
      "type": "function"
    },
    {
      "constant": true,
      "inputs": [],
      "name": "symbol",
      "outputs": [
        {
          "name": "",
          "type": "string"
        }
      ],
      "payable": false,
      "stateMutability": "view",
      "type": "function"
    },
    {
      "constant": false,
      "inputs": [
        {
          "name": "spender",
          "type": "address"
        },
        {
          "name": "subtractedValue",
          "type": "uint256"
        }
      ],
      "name": "decreaseAllowance",
      "outputs": [
        {
          "name": "",
          "type": "bool"
        }
      ],
      "payable": false,
      "stateMutability": "nonpayable",
      "type": "function"
    },
    {
      "constant": false,
      "inputs": [
        {
          "name": "recipient",
          "type": "address"
        },
        {
          "name": "amount",
          "type": "uint256"
        }
      ],
      "name": "transfer",
      "outputs": [
        {
          "name": "",
          "type": "bool"
        }
      ],
      "payable": false,
      "stateMutability": "nonpayable",
      "type": "function"
    },
    {
      "constant": true,
      "inputs": [],
      "name": "UINT_MAX_VALUE",
      "outputs": [
        {
          "name": "",
          "type": "uint256"
        }
      ],
      "payable": false,
      "stateMutability": "view",
      "type": "function"
    },
    {
      "constant": true,
      "inputs": [
        {
          "name": "owner",
          "type": "address"
        },
        {
          "name": "spender",
          "type": "address"
        }
      ],
      "name": "allowance",
      "outputs": [
        {
          "name": "",
          "type": "uint256"
        }
      ],
      "payable": false,
      "stateMutability": "view",
      "type": "function"
    },
    {
      "inputs": [
        {
          "name": "_addressesProvider",
          "type": "address"
        },
        {
          "name": "_underlyingAsset",
          "type": "address"
        },
        {
          "name": "_underlyingAssetDecimals",
          "type": "uint8"
        },
        {
          "name": "_name",
          "type": "string"
        },
        {
          "name": "_symbol",
          "type": "string"
        }
      ],
      "payable": false,
      "stateMutability": "nonpayable",
      "type": "constructor"
    },
    {
      "anonymous": false,
      "inputs": [
        {
          "indexed": true,
          "name": "_from",
          "type": "address"
        },
        {
          "indexed": false,
          "name": "_value",
          "type": "uint256"
        },
        {
          "indexed": false,
          "name": "_fromBalanceIncrease",
          "type": "uint256"
        },
        {
          "indexed": false,
          "name": "_fromIndex",
          "type": "uint256"
        }
      ],
      "name": "Redeem",
      "type": "event"
    },
    {
      "anonymous": false,
      "inputs": [
        {
          "indexed": true,
          "name": "_from",
          "type": "address"
        },
        {
          "indexed": false,
          "name": "_value",
          "type": "uint256"
        },
        {
          "indexed": false,
          "name": "_fromBalanceIncrease",
          "type": "uint256"
        },
        {
          "indexed": false,
          "name": "_fromIndex",
          "type": "uint256"
        }
      ],
      "name": "MintOnDeposit",
      "type": "event"
    },
    {
      "anonymous": false,
      "inputs": [
        {
          "indexed": true,
          "name": "_from",
          "type": "address"
        },
        {
          "indexed": false,
          "name": "_value",
          "type": "uint256"
        },
        {
          "indexed": false,
          "name": "_fromBalanceIncrease",
          "type": "uint256"
        },
        {
          "indexed": false,
          "name": "_fromIndex",
          "type": "uint256"
        }
      ],
      "name": "BurnOnLiquidation",
      "type": "event"
    },
    {
      "anonymous": false,
      "inputs": [
        {
          "indexed": true,
          "name": "_from",
          "type": "address"
        },
        {
          "indexed": true,
          "name": "_to",
          "type": "address"
        },
        {
          "indexed": false,
          "name": "_value",
          "type": "uint256"
        },
        {
          "indexed": false,
          "name": "_fromBalanceIncrease",
          "type": "uint256"
        },
        {
          "indexed": false,
          "name": "_toBalanceIncrease",
          "type": "uint256"
        },
        {
          "indexed": false,
          "name": "_fromIndex",
          "type": "uint256"
        },
        {
          "indexed": false,
          "name": "_toIndex",
          "type": "uint256"
        }
      ],
      "name": "BalanceTransfer",
      "type": "event"
    },
    {
      "anonymous": false,
      "inputs": [
        {
          "indexed": true,
          "name": "_from",
          "type": "address"
        },
        {
          "indexed": true,
          "name": "_to",
          "type": "address"
        },
        {
          "indexed": false,
          "name": "_redirectedBalance",
          "type": "uint256"
        },
        {
          "indexed": false,
          "name": "_fromBalanceIncrease",
          "type": "uint256"
        },
        {
          "indexed": false,
          "name": "_fromIndex",
          "type": "uint256"
        }
      ],
      "name": "InterestStreamRedirected",
      "type": "event"
    },
    {
      "anonymous": false,
      "inputs": [
        {
          "indexed": true,
          "name": "_targetAddress",
          "type": "address"
        },
        {
          "indexed": false,
          "name": "_targetBalanceIncrease",
          "type": "uint256"
        },
        {
          "indexed": false,
          "name": "_targetIndex",
          "type": "uint256"
        },
        {
          "indexed": false,
          "name": "_redirectedBalanceAdded",
          "type": "uint256"
        },
        {
          "indexed": false,
          "name": "_redirectedBalanceRemoved",
          "type": "uint256"
        }
      ],
      "name": "RedirectedBalanceUpdated",
      "type": "event"
    },
    {
      "anonymous": false,
      "inputs": [
        {
          "indexed": true,
          "name": "_from",
          "type": "address"
        },
        {
          "indexed": true,
          "name": "_to",
          "type": "address"
        }
      ],
      "name": "InterestRedirectionAllowanceChanged",
      "type": "event"
    },
    {
      "anonymous": false,
      "inputs": [
        {
          "indexed": true,
          "name": "from",
          "type": "address"
        },
        {
          "indexed": true,
          "name": "to",
          "type": "address"
        },
        {
          "indexed": false,
          "name": "value",
          "type": "uint256"
        }
      ],
      "name": "Transfer",
      "type": "event"
    },
    {
      "anonymous": false,
      "inputs": [
        {
          "indexed": true,
          "name": "owner",
          "type": "address"
        },
        {
          "indexed": true,
          "name": "spender",
          "type": "address"
        },
        {
          "indexed": false,
          "name": "value",
          "type": "uint256"
        }
      ],
      "name": "Approval",
      "type": "event"
    },
    {
      "constant": false,
      "inputs": [
        {
          "name": "_to",
          "type": "address"
        }
      ],
      "name": "redirectInterestStream",
      "outputs": [],
      "payable": false,
      "stateMutability": "nonpayable",
      "type": "function"
    },
    {
      "constant": false,
      "inputs": [
        {
          "name": "_from",
          "type": "address"
        },
        {
          "name": "_to",
          "type": "address"
        }
      ],
      "name": "redirectInterestStreamOf",
      "outputs": [],
      "payable": false,
      "stateMutability": "nonpayable",
      "type": "function"
    },
    {
      "constant": false,
      "inputs": [
        {
          "name": "_to",
          "type": "address"
        }
      ],
      "name": "allowInterestRedirectionTo",
      "outputs": [],
      "payable": false,
      "stateMutability": "nonpayable",
      "type": "function"
    },
    {
      "constant": false,
      "inputs": [
        {
          "name": "_amount",
          "type": "uint256"
        }
      ],
      "name": "redeem",
      "outputs": [],
      "payable": false,
      "stateMutability": "nonpayable",
      "type": "function"
    },
    {
      "constant": false,
      "inputs": [
        {
          "name": "_account",
          "type": "address"
        },
        {
          "name": "_amount",
          "type": "uint256"
        }
      ],
      "name": "mintOnDeposit",
      "outputs": [],
      "payable": false,
      "stateMutability": "nonpayable",
      "type": "function"
    },
    {
      "constant": false,
      "inputs": [
        {
          "name": "_account",
          "type": "address"
        },
        {
          "name": "_value",
          "type": "uint256"
        }
      ],
      "name": "burnOnLiquidation",
      "outputs": [],
      "payable": false,
      "stateMutability": "nonpayable",
      "type": "function"
    },
    {
      "constant": false,
      "inputs": [
        {
          "name": "_from",
          "type": "address"
        },
        {
          "name": "_to",
          "type": "address"
        },
        {
          "name": "_value",
          "type": "uint256"
        }
      ],
      "name": "transferOnLiquidation",
      "outputs": [],
      "payable": false,
      "stateMutability": "nonpayable",
      "type": "function"
    },
    {
      "constant": true,
      "inputs": [
        {
          "name": "_user",
          "type": "address"
        }
      ],
      "name": "balanceOf",
      "outputs": [
        {
          "name": "",
          "type": "uint256"
        }
      ],
      "payable": false,
      "stateMutability": "view",
      "type": "function"
    },
    {
      "constant": true,
      "inputs": [
        {
          "name": "_user",
          "type": "address"
        }
      ],
      "name": "principalBalanceOf",
      "outputs": [
        {
          "name": "",
          "type": "uint256"
        }
      ],
      "payable": false,
      "stateMutability": "view",
      "type": "function"
    },
    {
      "constant": true,
      "inputs": [],
      "name": "totalSupply",
      "outputs": [
        {
          "name": "",
          "type": "uint256"
        }
      ],
      "payable": false,
      "stateMutability": "view",
      "type": "function"
    },
    {
      "constant": true,
      "inputs": [
        {
          "name": "_user",
          "type": "address"
        },
        {
          "name": "_amount",
          "type": "uint256"
        }
      ],
      "name": "isTransferAllowed",
      "outputs": [
        {
          "name": "",
          "type": "bool"
        }
      ],
      "payable": false,
      "stateMutability": "view",
      "type": "function"
    },
    {
      "constant": true,
      "inputs": [
        {
          "name": "_user",
          "type": "address"
        }
      ],
      "name": "getUserIndex",
      "outputs": [
        {
          "name": "",
          "type": "uint256"
        }
      ],
      "payable": false,
      "stateMutability": "view",
      "type": "function"
    },
    {
      "constant": true,
      "inputs": [
        {
          "name": "_user",
          "type": "address"
        }
      ],
      "name": "getInterestRedirectionAddress",
      "outputs": [
        {
          "name": "",
          "type": "address"
        }
      ],
      "payable": false,
      "stateMutability": "view",
      "type": "function"
    },
    {
      "constant": true,
      "inputs": [
        {
          "name": "_user",
          "type": "address"
        }
      ],
      "name": "getRedirectedBalance",
      "outputs": [
        {
          "name": "",
          "type": "uint256"
        }
      ],
      "payable": false,
      "stateMutability": "view",
      "type": "function"
    }
  ],
  "bytecode": "0x60806040523480156200001157600080fd5b50d380156200001f57600080fd5b50d280156200002d57600080fd5b506040516200413838038062004138833981018060405260a08110156200005357600080fd5b8101908080519060200190929190805190602001909291908051906020019092919080516401000000008111156200008a57600080fd5b82810190506020810184811115620000a157600080fd5b8151856001820283011164010000000082111715620000bf57600080fd5b50509291906020018051640100000000811115620000dc57600080fd5b82810190506020810184811115620000f357600080fd5b81518560018202830111640100000000821117156200011157600080fd5b5050929190505050818184826003908051906020019062000134929190620004ff565b5081600490805190602001906200014d929190620004ff565b5080600560006101000a81548160ff021916908360ff16021790555050505084600a60006101000a81548173ffffffffffffffffffffffffffffffffffffffff021916908373ffffffffffffffffffffffffffffffffffffffff160217905550600a60009054906101000a900473ffffffffffffffffffffffffffffffffffffffff1673ffffffffffffffffffffffffffffffffffffffff1663ed6ff7606040518163ffffffff167c010000000000000000000000000000000000000000000000000000000002815260040160206040518083038186803b1580156200023257600080fd5b505afa15801562000247573d6000803e3d6000fd5b505050506040513d60208110156200025e57600080fd5b8101908080519060200190929190505050600b60006101000a81548173ffffffffffffffffffffffffffffffffffffffff021916908373ffffffffffffffffffffffffffffffffffffffff160217905550600a60009054906101000a900473ffffffffffffffffffffffffffffffffffffffff1673ffffffffffffffffffffffffffffffffffffffff16630261bf8b6040518163ffffffff167c010000000000000000000000000000000000000000000000000000000002815260040160206040518083038186803b1580156200033457600080fd5b505afa15801562000349573d6000803e3d6000fd5b505050506040513d60208110156200036057600080fd5b8101908080519060200190929190505050600c60006101000a81548173ffffffffffffffffffffffffffffffffffffffff021916908373ffffffffffffffffffffffffffffffffffffffff160217905550600a60009054906101000a900473ffffffffffffffffffffffffffffffffffffffff1673ffffffffffffffffffffffffffffffffffffffff16632f58b80d6040518163ffffffff167c010000000000000000000000000000000000000000000000000000000002815260040160206040518083038186803b1580156200043657600080fd5b505afa1580156200044b573d6000803e3d6000fd5b505050506040513d60208110156200046257600080fd5b8101908080519060200190929190505050600d60006101000a81548173ffffffffffffffffffffffffffffffffffffffff021916908373ffffffffffffffffffffffffffffffffffffffff16021790555083600560016101000a81548173ffffffffffffffffffffffffffffffffffffffff021916908373ffffffffffffffffffffffffffffffffffffffff1602179055505050505050620005ae565b828054600181600116156101000203166002900490600052602060002090601f016020900481019282601f106200054257805160ff191683800117855562000573565b8280016001018555821562000573579182015b828111156200057257825182559160200191906001019062000555565b5b50905062000582919062000586565b5090565b620005ab91905b80821115620005a75760008160009055506001016200058d565b5090565b90565b613b7a80620005be6000396000f3fe608060405234801561001057600080fd5b50d3801561001d57600080fd5b50d2801561002a57600080fd5b50600436106101aa576000357c0100000000000000000000000000000000000000000000000000000000900480635eae177c11610115578063a9059cbb116100ce578063db006a75116100a8578063db006a75146108f7578063dd62ed3e14610925578063ee9907a41461099d578063f866c319146109f5576101aa565b8063a9059cbb1461081b578063c634dfaa14610881578063d0fc81d2146108d9576101aa565b80635eae177c146105dc57806370a082311461064257806389d1a0fc1461069a57806394362e8b146106e457806395d89b4114610732578063a457c2d7146107b5576101aa565b806323b872dd1161016757806323b872dd14610396578063313ce5671461041c578063325a9b131461044057806339509351146104a45780633edb7cb81461050a578063445e801014610558576101aa565b806306fdde03146101af578063095ea7b3146102325780630e49072d1461029857806312c87c2d146102dc57806318160ddd146103205780631d51e7cf1461033e575b600080fd5b6101b7610a63565b6040518080602001828103825283818151815260200191508051906020019080838360005b838110156101f75780820151818401526020810190506101dc565b50505050905090810190601f1680156102245780820380516001836020036101000a031916815260200191505b509250505060405180910390f35b61027e6004803603604081101561024857600080fd5b81019080803573ffffffffffffffffffffffffffffffffffffffff16906020019092919080359060200190929190505050610b05565b604051808215151515815260200191505060405180910390f35b6102da600480360360208110156102ae57600080fd5b81019080803573ffffffffffffffffffffffffffffffffffffffff169060200190929190505050610b23565b005b61031e600480360360208110156102f257600080fd5b81019080803573ffffffffffffffffffffffffffffffffffffffff169060200190929190505050610b30565b005b610328610c92565b6040518082815260200191505060405180910390f35b6103806004803603602081101561035457600080fd5b81019080803573ffffffffffffffffffffffffffffffffffffffff169060200190929190505050610df3565b6040518082815260200191505060405180910390f35b610402600480360360608110156103ac57600080fd5b81019080803573ffffffffffffffffffffffffffffffffffffffff169060200190929190803573ffffffffffffffffffffffffffffffffffffffff16906020019092919080359060200190929190505050610e3c565b604051808215151515815260200191505060405180910390f35b610424610f16565b604051808260ff1660ff16815260200191505060405180910390f35b6104a26004803603604081101561045657600080fd5b81019080803573ffffffffffffffffffffffffffffffffffffffff169060200190929190803573ffffffffffffffffffffffffffffffffffffffff169060200190929190505050610f2d565b005b6104f0600480360360408110156104ba57600080fd5b81019080803573ffffffffffffffffffffffffffffffffffffffff16906020019092919080359060200190929190505050611020565b604051808215151515815260200191505060405180910390f35b6105566004803603604081101561052057600080fd5b81019080803573ffffffffffffffffffffffffffffffffffffffff169060200190929190803590602001909291905050506110d3565b005b61059a6004803603602081101561056e57600080fd5b81019080803573ffffffffffffffffffffffffffffffffffffffff169060200190929190505050611244565b604051808273ffffffffffffffffffffffffffffffffffffffff1673ffffffffffffffffffffffffffffffffffffffff16815260200191505060405180910390f35b610628600480360360408110156105f257600080fd5b81019080803573ffffffffffffffffffffffffffffffffffffffff169060200190929190803590602001909291905050506112ad565b604051808215151515815260200191505060405180910390f35b6106846004803603602081101561065857600080fd5b81019080803573ffffffffffffffffffffffffffffffffffffffff16906020019092919050505061140b565b6040518082815260200191505060405180910390f35b6106a2611580565b604051808273ffffffffffffffffffffffffffffffffffffffff1673ffffffffffffffffffffffffffffffffffffffff16815260200191505060405180910390f35b610730600480360360408110156106fa57600080fd5b81019080803573ffffffffffffffffffffffffffffffffffffffff169060200190929190803590602001909291905050506115a6565b005b61073a6116ec565b6040518080602001828103825283818151815260200191508051906020019080838360005b8381101561077a57808201518184015260208101905061075f565b50505050905090810190601f1680156107a75780820380516001836020036101000a031916815260200191505b509250505060405180910390f35b610801600480360360408110156107cb57600080fd5b81019080803573ffffffffffffffffffffffffffffffffffffffff1690602001909291908035906020019092919050505061178e565b604051808215151515815260200191505060405180910390f35b6108676004803603604081101561083157600080fd5b81019080803573ffffffffffffffffffffffffffffffffffffffff1690602001909291908035906020019092919050505061185c565b604051808215151515815260200191505060405180910390f35b6108c36004803603602081101561089757600080fd5b81019080803573ffffffffffffffffffffffffffffffffffffffff16906020019092919050505061187a565b6040518082815260200191505060405180910390f35b6108e161188c565b6040518082815260200191505060405180910390f35b6109236004803603602081101561090d57600080fd5b81019080803590602001909291905050506118b0565b005b6109876004803603604081101561093b57600080fd5b81019080803573ffffffffffffffffffffffffffffffffffffffff169060200190929190803573ffffffffffffffffffffffffffffffffffffffff169060200190929190505050611c48565b6040518082815260200191505060405180910390f35b6109df600480360360208110156109b357600080fd5b81019080803573ffffffffffffffffffffffffffffffffffffffff169060200190929190505050611ccf565b6040518082815260200191505060405180910390f35b610a6160048036036060811015610a0b57600080fd5b81019080803573ffffffffffffffffffffffffffffffffffffffff169060200190929190803573ffffffffffffffffffffffffffffffffffffffff16906020019092919080359060200190929190505050611d18565b005b606060038054600181600116156101000203166002900480601f016020809104026020016040519081016040528092919081815260200182805460018160011615610100020316600290048015610afb5780601f10610ad057610100808354040283529160200191610afb565b820191906000526020600020905b815481529060010190602001808311610ade57829003601f168201915b5050505050905090565b6000610b19610b12611dd0565b8484611dd8565b6001905092915050565b610b2d3382611fd3565b50565b3373ffffffffffffffffffffffffffffffffffffffff168173ffffffffffffffffffffffffffffffffffffffff1614151515610bb7576040517f08c379a000000000000000000000000000000000000000000000000000000000815260040180806020018281038252602581526020018061394a6025913960400191505060405180910390fd5b80600960003373ffffffffffffffffffffffffffffffffffffffff1673ffffffffffffffffffffffffffffffffffffffff16815260200190815260200160002060006101000a81548173ffffffffffffffffffffffffffffffffffffffff021916908373ffffffffffffffffffffffffffffffffffffffff1602179055508073ffffffffffffffffffffffffffffffffffffffff163373ffffffffffffffffffffffffffffffffffffffff167fc2d6a42a9d5273283f73009a07aacfb043f2f91173a8d9d33b504afe898db08b60405160405180910390a350565b600080610c9d6123af565b90506000811415610cb2576000915050610df0565b610dec610de7600b60009054906101000a900473ffffffffffffffffffffffffffffffffffffffff1673ffffffffffffffffffffffffffffffffffffffff1663d15e0053600560019054906101000a900473ffffffffffffffffffffffffffffffffffffffff166040518263ffffffff167c0100000000000000000000000000000000000000000000000000000000028152600401808273ffffffffffffffffffffffffffffffffffffffff1673ffffffffffffffffffffffffffffffffffffffff16815260200191505060206040518083038186803b158015610d9557600080fd5b505afa158015610da9573d6000803e3d6000fd5b505050506040513d6020811015610dbf57600080fd5b8101908080519060200190929190505050610dd9846123b9565b6123d990919063ffffffff16565b61243e565b9150505b90565b6000600860008373ffffffffffffffffffffffffffffffffffffffff1673ffffffffffffffffffffffffffffffffffffffff168152602001908152602001600020549050919050565b6000610e49848484612485565b610f0b84610e55611dd0565b610f06856060604051908101604052806028815260200161399060289139600160008b73ffffffffffffffffffffffffffffffffffffffff1673ffffffffffffffffffffffffffffffffffffffff1681526020019081526020016000206000610ebc611dd0565b73ffffffffffffffffffffffffffffffffffffffff1673ffffffffffffffffffffffffffffffffffffffff168152602001908152602001600020546125179092919063ffffffff16565b611dd8565b600190509392505050565b6000600560009054906101000a900460ff16905090565b600960008373ffffffffffffffffffffffffffffffffffffffff1673ffffffffffffffffffffffffffffffffffffffff16815260200190815260200160002060009054906101000a900473ffffffffffffffffffffffffffffffffffffffff1673ffffffffffffffffffffffffffffffffffffffff163373ffffffffffffffffffffffffffffffffffffffff16141515611012576040517f08c379a000000000000000000000000000000000000000000000000000000000815260040180806020018281038252603a815260200180613b15603a913960400191505060405180910390fd5b61101c8282611fd3565b5050565b60006110c961102d611dd0565b846110c4856001600061103e611dd0565b73ffffffffffffffffffffffffffffffffffffffff1673ffffffffffffffffffffffffffffffffffffffff16815260200190815260200160002060008973ffffffffffffffffffffffffffffffffffffffff1673ffffffffffffffffffffffffffffffffffffffff168152602001908152602001600020546125d990919063ffffffff16565b611dd8565b6001905092915050565b600c60009054906101000a900473ffffffffffffffffffffffffffffffffffffffff1673ffffffffffffffffffffffffffffffffffffffff163373ffffffffffffffffffffffffffffffffffffffff1614151561117b576040517f08c379a0000000000000000000000000000000000000000000000000000000008152600401808060200182810382526032815260200180613abe6032913960400191505060405180910390fd5b600080600061118985612663565b9350935093505061119b858386612825565b6111a58585612b1d565b600080905060006111bf8686612cd890919063ffffffff16565b14156111d1576111ce86612d22565b90505b8573ffffffffffffffffffffffffffffffffffffffff167f90e5d3d68ec162d9c7de393037a3ede04dd44f68e051bf2ace4a73c299dbc4db8685846112165785611219565b60005b60405180848152602001838152602001828152602001935050505060405180910390a2505050505050565b6000600760008373ffffffffffffffffffffffffffffffffffffffff1673ffffffffffffffffffffffffffffffffffffffff16815260200190815260200160002060009054906101000a900473ffffffffffffffffffffffffffffffffffffffff169050919050565b6000600d60009054906101000a900473ffffffffffffffffffffffffffffffffffffffff1673ffffffffffffffffffffffffffffffffffffffff166376e9d615600560019054906101000a900473ffffffffffffffffffffffffffffffffffffffff1685856040518463ffffffff167c0100000000000000000000000000000000000000000000000000000000028152600401808473ffffffffffffffffffffffffffffffffffffffff1673ffffffffffffffffffffffffffffffffffffffff1681526020018373ffffffffffffffffffffffffffffffffffffffff1673ffffffffffffffffffffffffffffffffffffffff168152602001828152602001935050505060206040518083038186803b1580156113c857600080fd5b505afa1580156113dc573d6000803e3d6000fd5b505050506040513d60208110156113f257600080fd5b8101908080519060200190929190505050905092915050565b60008061141783612eba565b90506000600860008573ffffffffffffffffffffffffffffffffffffffff1673ffffffffffffffffffffffffffffffffffffffff16815260200190815260200160002054905060008214801561146d5750600081145b1561147d5760009250505061157b565b600073ffffffffffffffffffffffffffffffffffffffff16600760008673ffffffffffffffffffffffffffffffffffffffff1673ffffffffffffffffffffffffffffffffffffffff16815260200190815260200160002060009054906101000a900473ffffffffffffffffffffffffffffffffffffffff1673ffffffffffffffffffffffffffffffffffffffff1614156115485761153f816115318661152c85876125d990919063ffffffff16565b612f02565b612cd890919063ffffffff16565b9250505061157b565b611576611567826115598785612f02565b612cd890919063ffffffff16565b836125d990919063ffffffff16565b925050505b919050565b600560019054906101000a900473ffffffffffffffffffffffffffffffffffffffff1681565b600c60009054906101000a900473ffffffffffffffffffffffffffffffffffffffff1673ffffffffffffffffffffffffffffffffffffffff163373ffffffffffffffffffffffffffffffffffffffff1614151561164e576040517f08c379a0000000000000000000000000000000000000000000000000000000008152600401808060200182810382526032815260200180613abe6032913960400191505060405180910390fd5b60008061165a84612663565b93509350505061167e8461167785856125d990919063ffffffff16565b6000612825565b6116888484613097565b8373ffffffffffffffffffffffffffffffffffffffff167fbe7799898ca2d813ff902b487c1b434ab45b47edd8f38b77ad5e99aae8341b7a84848460405180848152602001838152602001828152602001935050505060405180910390a250505050565b606060048054600181600116156101000203166002900480601f0160208091040260200160405190810160405280929190818152602001828054600181600116156101000203166002900480156117845780601f1061175957610100808354040283529160200191611784565b820191906000526020600020905b81548152906001019060200180831161176757829003601f168201915b5050505050905090565b600061185261179b611dd0565b8461184d8560606040519081016040528060258152602001613af060259139600160006117c6611dd0565b73ffffffffffffffffffffffffffffffffffffffff1673ffffffffffffffffffffffffffffffffffffffff16815260200190815260200160002060008a73ffffffffffffffffffffffffffffffffffffffff1673ffffffffffffffffffffffffffffffffffffffff168152602001908152602001600020546125179092919063ffffffff16565b611dd8565b6001905092915050565b6000611870611869611dd0565b8484612485565b6001905092915050565b600061188582612eba565b9050919050565b7fffffffffffffffffffffffffffffffffffffffffffffffffffffffffffffffff81565b600081111515611928576040517f08c379a00000000000000000000000000000000000000000000000000000000081526004018080602001828103825260208152602001807f416d6f756e7420746f2072656465656d206e6565647320746f206265203e203081525060200191505060405180910390fd5b600080600061193633612663565b9350935093505060008490507fffffffffffffffffffffffffffffffffffffffffffffffffffffffffffffffff85141561196e578390505b8381111515156119c9576040517f08c379a00000000000000000000000000000000000000000000000000000000081526004018080602001828103825260328152602001806138d06032913960400191505060405180910390fd5b6119d333826112ad565b1515611a47576040517f08c379a000000000000000000000000000000000000000000000000000000000815260040180806020018281038252601b8152602001807f5472616e736665722063616e6e6f7420626520616c6c6f7765642e000000000081525060200191505060405180910390fd5b611a52338483612825565b611a5c3382612b1d565b60008090506000611a768387612cd890919063ffffffff16565b1415611a8857611a8533612d22565b90505b600c60009054906101000a900473ffffffffffffffffffffffffffffffffffffffff1673ffffffffffffffffffffffffffffffffffffffff16639895e3d8600560019054906101000a900473ffffffffffffffffffffffffffffffffffffffff163385611afe878b612cd890919063ffffffff16565b6040518563ffffffff167c0100000000000000000000000000000000000000000000000000000000028152600401808573ffffffffffffffffffffffffffffffffffffffff1673ffffffffffffffffffffffffffffffffffffffff1681526020018473ffffffffffffffffffffffffffffffffffffffff1673ffffffffffffffffffffffffffffffffffffffff168152602001838152602001828152602001945050505050600060405180830381600087803b158015611bbd57600080fd5b505af1158015611bd1573d6000803e3d6000fd5b505050503373ffffffffffffffffffffffffffffffffffffffff167fbd5034ffbd47e4e72a94baa2cdb74c6fad73cb3bcdc13036b72ec8306f5a7646838684611c1a5786611c1d565b60005b60405180848152602001838152602001828152602001935050505060405180910390a2505050505050565b6000600160008473ffffffffffffffffffffffffffffffffffffffff1673ffffffffffffffffffffffffffffffffffffffff16815260200190815260200160002060008373ffffffffffffffffffffffffffffffffffffffff1673ffffffffffffffffffffffffffffffffffffffff16815260200190815260200160002054905092915050565b6000600660008373ffffffffffffffffffffffffffffffffffffffff1673ffffffffffffffffffffffffffffffffffffffff168152602001908152602001600020549050919050565b600c60009054906101000a900473ffffffffffffffffffffffffffffffffffffffff1673ffffffffffffffffffffffffffffffffffffffff163373ffffffffffffffffffffffffffffffffffffffff16141515611dc0576040517f08c379a0000000000000000000000000000000000000000000000000000000008152600401808060200182810382526032815260200180613abe6032913960400191505060405180910390fd5b611dcb838383613254565b505050565b600033905090565b600073ffffffffffffffffffffffffffffffffffffffff168373ffffffffffffffffffffffffffffffffffffffff1614151515611e60576040517f08c379a0000000000000000000000000000000000000000000000000000000008152600401808060200182810382526024815260200180613a9a6024913960400191505060405180910390fd5b600073ffffffffffffffffffffffffffffffffffffffff168273ffffffffffffffffffffffffffffffffffffffff1614151515611ee8576040517f08c379a00000000000000000000000000000000000000000000000000000000081526004018080602001828103825260228152602001806139026022913960400191505060405180910390fd5b80600160008573ffffffffffffffffffffffffffffffffffffffff1673ffffffffffffffffffffffffffffffffffffffff16815260200190815260200160002060008473ffffffffffffffffffffffffffffffffffffffff1673ffffffffffffffffffffffffffffffffffffffff168152602001908152602001600020819055508173ffffffffffffffffffffffffffffffffffffffff168373ffffffffffffffffffffffffffffffffffffffff167f8c5be1e5ebec7d5bd14f71427d1e84f3dd0314c0f7b2291e5b200ac8c7c3b925836040518082815260200191505060405180910390a3505050565b6000600760008473ffffffffffffffffffffffffffffffffffffffff1673ffffffffffffffffffffffffffffffffffffffff16815260200190815260200160002060009054906101000a900473ffffffffffffffffffffffffffffffffffffffff1690508073ffffffffffffffffffffffffffffffffffffffff168273ffffffffffffffffffffffffffffffffffffffff16141515156120be576040517f08c379a000000000000000000000000000000000000000000000000000000000815260040180806020018281038252602a8152602001806139b8602a913960400191505060405180910390fd5b6000806000806120cd87612663565b9350935093509350600083111515612130576040517f08c379a00000000000000000000000000000000000000000000000000000000081526004018080602001828103825260428152602001806139e26042913960600191505060405180910390fd5b600073ffffffffffffffffffffffffffffffffffffffff168573ffffffffffffffffffffffffffffffffffffffff161415156121735761217287600086612825565b5b8673ffffffffffffffffffffffffffffffffffffffff168673ffffffffffffffffffffffffffffffffffffffff1614156122a6576000600760008973ffffffffffffffffffffffffffffffffffffffff1673ffffffffffffffffffffffffffffffffffffffff16815260200190815260200160002060006101000a81548173ffffffffffffffffffffffffffffffffffffffff021916908373ffffffffffffffffffffffffffffffffffffffff160217905550600073ffffffffffffffffffffffffffffffffffffffff168773ffffffffffffffffffffffffffffffffffffffff167f5e3cad45b1fe24159d1cb39788d82d0f69cc15770aa96fba1d3d1a734873559485858560405180848152602001838152602001828152602001935050505060405180910390a350505050506123ab565b85600760008973ffffffffffffffffffffffffffffffffffffffff1673ffffffffffffffffffffffffffffffffffffffff16815260200190815260200160002060006101000a81548173ffffffffffffffffffffffffffffffffffffffff021916908373ffffffffffffffffffffffffffffffffffffffff16021790555061233087846000612825565b8573ffffffffffffffffffffffffffffffffffffffff168773ffffffffffffffffffffffffffffffffffffffff167f5e3cad45b1fe24159d1cb39788d82d0f69cc15770aa96fba1d3d1a734873559485858560405180848152602001838152602001828152602001935050505060405180910390a350505050505b5050565b6000600254905090565b60006123d2633b9aca00836133d390919063ffffffff16565b9050919050565b60006124366b033b2e3c9fd0803ce800000061242861240185876133d390919063ffffffff16565b60026b033b2e3c9fd0803ce800000081151561241957fe5b046125d990919063ffffffff16565b61345d90919063ffffffff16565b905092915050565b6000806002633b9aca0081151561245157fe5b04905061247d633b9aca0061246f85846125d990919063ffffffff16565b61345d90919063ffffffff16565b915050919050565b828161249182826112ad565b1515612505576040517f08c379a000000000000000000000000000000000000000000000000000000000815260040180806020018281038252601b8152602001807f5472616e736665722063616e6e6f7420626520616c6c6f7765642e000000000081525060200191505060405180910390fd5b612510858585613254565b5050505050565b600083831115829015156125c6576040517f08c379a00000000000000000000000000000000000000000000000000000000081526004018080602001828103825283818151815260200191508051906020019080838360005b8381101561258b578082015181840152602081019050612570565b50505050905090810190601f1680156125b85780820380516001836020036101000a031916815260200191505b509250505060405180910390fd5b5060008385039050809150509392505050565b6000808284019050838110151515612659576040517f08c379a000000000000000000000000000000000000000000000000000000000815260040180806020018281038252601b8152602001807f536166654d6174683a206164646974696f6e206f766572666c6f77000000000081525060200191505060405180910390fd5b8091505092915050565b600080600080600061267486612eba565b90506000612693826126858961140b565b612cd890919063ffffffff16565b905061269f8782613097565b6000600b60009054906101000a900473ffffffffffffffffffffffffffffffffffffffff1673ffffffffffffffffffffffffffffffffffffffff1663d15e0053600560019054906101000a900473ffffffffffffffffffffffffffffffffffffffff166040518263ffffffff167c0100000000000000000000000000000000000000000000000000000000028152600401808273ffffffffffffffffffffffffffffffffffffffff1673ffffffffffffffffffffffffffffffffffffffff16815260200191505060206040518083038186803b15801561277e57600080fd5b505afa158015612792573d6000803e3d6000fd5b505050506040513d60208110156127a857600080fd5b8101908080519060200190929190505050600660008a73ffffffffffffffffffffffffffffffffffffffff1673ffffffffffffffffffffffffffffffffffffffff16815260200190815260200160002081905590508261281183856125d990919063ffffffff16565b838396509650965096505050509193509193565b6000600760008573ffffffffffffffffffffffffffffffffffffffff1673ffffffffffffffffffffffffffffffffffffffff16815260200190815260200160002060009054906101000a900473ffffffffffffffffffffffffffffffffffffffff169050600073ffffffffffffffffffffffffffffffffffffffff168173ffffffffffffffffffffffffffffffffffffffff1614156128c45750612b18565b6000806128d083612663565b93509350505061293a8461292c87600860008873ffffffffffffffffffffffffffffffffffffffff1673ffffffffffffffffffffffffffffffffffffffff168152602001908152602001600020546125d990919063ffffffff16565b612cd890919063ffffffff16565b600860008573ffffffffffffffffffffffffffffffffffffffff1673ffffffffffffffffffffffffffffffffffffffff168152602001908152602001600020819055506000600760008573ffffffffffffffffffffffffffffffffffffffff1673ffffffffffffffffffffffffffffffffffffffff16815260200190815260200160002060009054906101000a900473ffffffffffffffffffffffffffffffffffffffff169050600073ffffffffffffffffffffffffffffffffffffffff168173ffffffffffffffffffffffffffffffffffffffff16141515612aad57612a6983600860008473ffffffffffffffffffffffffffffffffffffffff1673ffffffffffffffffffffffffffffffffffffffff168152602001908152602001600020546125d990919063ffffffff16565b600860008373ffffffffffffffffffffffffffffffffffffffff1673ffffffffffffffffffffffffffffffffffffffff168152602001908152602001600020819055505b8373ffffffffffffffffffffffffffffffffffffffff167f70ff8cf632603e2bfd1afb7e4061acce53d95356b1be9726b99fa22ba733b01f848489896040518085815260200184815260200183815260200182815260200194505050505060405180910390a2505050505b505050565b600073ffffffffffffffffffffffffffffffffffffffff168273ffffffffffffffffffffffffffffffffffffffff1614151515612ba5576040517f08c379a0000000000000000000000000000000000000000000000000000000008152600401808060200182810382526021815260200180613a546021913960400191505060405180910390fd5b612c1181606060405190810160405280602281526020016138ae602291396000808673ffffffffffffffffffffffffffffffffffffffff1673ffffffffffffffffffffffffffffffffffffffff168152602001908152602001600020546125179092919063ffffffff16565b6000808473ffffffffffffffffffffffffffffffffffffffff1673ffffffffffffffffffffffffffffffffffffffff16815260200190815260200160002081905550612c6881600254612cd890919063ffffffff16565b600281905550600073ffffffffffffffffffffffffffffffffffffffff168273ffffffffffffffffffffffffffffffffffffffff167fddf252ad1be2c89b69c2b068fc378daa952ba7f163c4a11628f55a4df523b3ef836040518082815260200191505060405180910390a35050565b6000612d1a83836040805190810160405280601e81526020017f536166654d6174683a207375627472616374696f6e206f766572666c6f770000815250612517565b905092915050565b600080600760008473ffffffffffffffffffffffffffffffffffffffff1673ffffffffffffffffffffffffffffffffffffffff16815260200190815260200160002060006101000a81548173ffffffffffffffffffffffffffffffffffffffff021916908373ffffffffffffffffffffffffffffffffffffffff160217905550600073ffffffffffffffffffffffffffffffffffffffff168273ffffffffffffffffffffffffffffffffffffffff167f5e3cad45b1fe24159d1cb39788d82d0f69cc15770aa96fba1d3d1a7348735594600080600060405180848152602001838152602001828152602001935050505060405180910390a36000600860008473ffffffffffffffffffffffffffffffffffffffff1673ffffffffffffffffffffffffffffffffffffffff168152602001908152602001600020541415612eb0576000600660008473ffffffffffffffffffffffffffffffffffffffff1673ffffffffffffffffffffffffffffffffffffffff1681526020019081526020016000208190555060019050612eb5565b600090505b919050565b60008060008373ffffffffffffffffffffffffffffffffffffffff1673ffffffffffffffffffffffffffffffffffffffff168152602001908152602001600020549050919050565b600061308f61308a600660008673ffffffffffffffffffffffffffffffffffffffff1673ffffffffffffffffffffffffffffffffffffffff1681526020019081526020016000205461307c600b60009054906101000a900473ffffffffffffffffffffffffffffffffffffffff1673ffffffffffffffffffffffffffffffffffffffff1663d15e0053600560019054906101000a900473ffffffffffffffffffffffffffffffffffffffff166040518263ffffffff167c0100000000000000000000000000000000000000000000000000000000028152600401808273ffffffffffffffffffffffffffffffffffffffff1673ffffffffffffffffffffffffffffffffffffffff16815260200191505060206040518083038186803b15801561302a57600080fd5b505afa15801561303e573d6000803e3d6000fd5b505050506040513d602081101561305457600080fd5b810190808051906020019092919050505061306e876123b9565b6123d990919063ffffffff16565b6134a790919063ffffffff16565b61243e565b905092915050565b600073ffffffffffffffffffffffffffffffffffffffff168273ffffffffffffffffffffffffffffffffffffffff161415151561313c576040517f08c379a000000000000000000000000000000000000000000000000000000000815260040180806020018281038252601f8152602001807f45524332303a206d696e7420746f20746865207a65726f20616464726573730081525060200191505060405180910390fd5b613151816002546125d990919063ffffffff16565b6002819055506131a8816000808573ffffffffffffffffffffffffffffffffffffffff1673ffffffffffffffffffffffffffffffffffffffff168152602001908152602001600020546125d990919063ffffffff16565b6000808473ffffffffffffffffffffffffffffffffffffffff1673ffffffffffffffffffffffffffffffffffffffff168152602001908152602001600020819055508173ffffffffffffffffffffffffffffffffffffffff16600073ffffffffffffffffffffffffffffffffffffffff167fddf252ad1be2c89b69c2b068fc378daa952ba7f163c4a11628f55a4df523b3ef836040518082815260200191505060405180910390a35050565b6000811115156132af576040517f08c379a0000000000000000000000000000000000000000000000000000000008152600401808060200182810382526030815260200180613a246030913960400191505060405180910390fd5b60008060006132bd86612663565b935093509350506000806132d087612663565b9350935050506132e1888588612825565b6132ff876132f888856125d990919063ffffffff16565b6000612825565b61330a888888613505565b600080905060006133248888612cd890919063ffffffff16565b14156133365761333389612d22565b90505b8773ffffffffffffffffffffffffffffffffffffffff168973ffffffffffffffffffffffffffffffffffffffff167f89a178eaa27e0cd201bd795ca8ff716ac0df9618494510ca79771cfc66ffcde8898887866133935789613396565b60005b88604051808681526020018581526020018481526020018381526020018281526020019550505050505060405180910390a3505050505050505050565b6000808314156133e65760009050613457565b600082840290508284828115156133f957fe5b04141515613452576040517f08c379a000000000000000000000000000000000000000000000000000000000815260040180806020018281038252602181526020018061396f6021913960400191505060405180910390fd5b809150505b92915050565b600061349f83836040805190810160405280601a81526020017f536166654d6174683a206469766973696f6e206279207a65726f0000000000008152506137c0565b905092915050565b6000806002838115156134b657fe5b0490506134fc836134ee6134df6b033b2e3c9fd0803ce8000000886133d390919063ffffffff16565b846125d990919063ffffffff16565b61345d90919063ffffffff16565b91505092915050565b600073ffffffffffffffffffffffffffffffffffffffff168373ffffffffffffffffffffffffffffffffffffffff161415151561358d576040517f08c379a0000000000000000000000000000000000000000000000000000000008152600401808060200182810382526025815260200180613a756025913960400191505060405180910390fd5b600073ffffffffffffffffffffffffffffffffffffffff168273ffffffffffffffffffffffffffffffffffffffff1614151515613615576040517f08c379a000000000000000000000000000000000000000000000000000000000815260040180806020018281038252602381526020018061388b6023913960400191505060405180910390fd5b6136818160606040519081016040528060268152602001613924602691396000808773ffffffffffffffffffffffffffffffffffffffff1673ffffffffffffffffffffffffffffffffffffffff168152602001908152602001600020546125179092919063ffffffff16565b6000808573ffffffffffffffffffffffffffffffffffffffff1673ffffffffffffffffffffffffffffffffffffffff16815260200190815260200160002081905550613714816000808573ffffffffffffffffffffffffffffffffffffffff1673ffffffffffffffffffffffffffffffffffffffff168152602001908152602001600020546125d990919063ffffffff16565b6000808473ffffffffffffffffffffffffffffffffffffffff1673ffffffffffffffffffffffffffffffffffffffff168152602001908152602001600020819055508173ffffffffffffffffffffffffffffffffffffffff168373ffffffffffffffffffffffffffffffffffffffff167fddf252ad1be2c89b69c2b068fc378daa952ba7f163c4a11628f55a4df523b3ef836040518082815260200191505060405180910390a3505050565b60008083118290151561386e576040517f08c379a00000000000000000000000000000000000000000000000000000000081526004018080602001828103825283818151815260200191508051906020019080838360005b83811015613833578082015181840152602081019050613818565b50505050905090810190601f1680156138605780820380516001836020036101000a031916815260200191505b509250505060405180910390fd5b506000838581151561387c57fe5b04905080915050939250505056fe45524332303a207472616e7366657220746f20746865207a65726f206164647265737345524332303a206275726e20616d6f756e7420657863656564732062616c616e6365557365722063616e6e6f742072656465656d206d6f7265207468616e2074686520617661696c61626c652062616c616e636545524332303a20617070726f766520746f20746865207a65726f206164647265737345524332303a207472616e7366657220616d6f756e7420657863656564732062616c616e6365557365722063616e6e6f74206769766520616c6c6f77616e636520746f2068696d73656c66536166654d6174683a206d756c7469706c69636174696f6e206f766572666c6f7745524332303a207472616e7366657220616d6f756e74206578636565647320616c6c6f77616e6365496e74657265737420697320616c7265616479207265646972656374656420746f207468652075736572496e7465726573742073747265616d2063616e206f6e6c79206265207265646972656374656420696620746865726520697320612076616c69642062616c616e63655472616e7366657272656420616d6f756e74206e6565647320746f2062652067726561746572207468616e207a65726f45524332303a206275726e2066726f6d20746865207a65726f206164647265737345524332303a207472616e736665722066726f6d20746865207a65726f206164647265737345524332303a20617070726f76652066726f6d20746865207a65726f20616464726573735468652063616c6c6572206f6620746869732066756e6374696f6e206d7573742062652061206c656e64696e6720706f6f6c45524332303a2064656372656173656420616c6c6f77616e63652062656c6f77207a65726f43616c6c6572206973206e6f7420616c6c6f77656420746f2072656469726563742074686520696e746572657374206f66207468652075736572a165627a7a7230582093bdd9780876bcd2c3ec6947403bf8173378589dd83d29ddb293f7bd447097ba0029",
  "source": "pragma solidity ^0.5.0;\n\nimport \"../libraries/openzeppelin-solidity/contracts/token/ERC20/ERC20.sol\";\nimport \"../libraries/openzeppelin-solidity/contracts/token/ERC20/ERC20Detailed.sol\";\n\nimport \"../configuration/LendingPoolAddressesProvider.sol\";\nimport \"../lendingpool/LendingPool.sol\";\nimport \"../lendingpool/LendingPoolDataProvider.sol\";\nimport \"../lendingpool/LendingPoolCore.sol\";\nimport \"../libraries/WadRayMath.sol\";\n\n/**\n * @title Aave ERC20 AToken\n *\n * @dev Implementation of the interest bearing token for the DLP protocol.\n * @author Aave\n */\ncontract AToken is ERC20, ERC20Detailed {\n    using WadRayMath for uint256;\n\n    uint256 public constant UINT_MAX_VALUE = uint256(-1);\n\n    /**\n    * @dev emitted after the redeem action\n    * @param _from the address performing the redeem\n    * @param _value the amount to be redeemed\n    * @param _fromBalanceIncrease the cumulated balance since the last update of the user\n    * @param _fromIndex the last index of the user\n    **/\n    event Redeem(\n        address indexed _from,\n        uint256 _value,\n        uint256 _fromBalanceIncrease,\n        uint256 _fromIndex\n    );\n\n    /**\n    * @dev emitted after the mint action\n    * @param _from the address performing the mint\n    * @param _value the amount to be minted\n    * @param _fromBalanceIncrease the cumulated balance since the last update of the user\n    * @param _fromIndex the last index of the user\n    **/\n    event MintOnDeposit(\n        address indexed _from,\n        uint256 _value,\n        uint256 _fromBalanceIncrease,\n        uint256 _fromIndex\n    );\n\n    /**\n    * @dev emitted during the liquidation action, when the liquidator reclaims the underlying\n    * asset\n    * @param _from the address from which the tokens are being burned\n    * @param _value the amount to be burned\n    * @param _fromBalanceIncrease the cumulated balance since the last update of the user\n    * @param _fromIndex the last index of the user\n    **/\n    event BurnOnLiquidation(\n        address indexed _from,\n        uint256 _value,\n        uint256 _fromBalanceIncrease,\n        uint256 _fromIndex\n    );\n\n    /**\n    * @dev emitted during the transfer action\n    * @param _from the address from which the tokens are being transferred\n    * @param _to the adress of the destination\n    * @param _value the amount to be minted\n    * @param _fromBalanceIncrease the cumulated balance since the last update of the user\n    * @param _toBalanceIncrease the cumulated balance since the last update of the destination\n    * @param _fromIndex the last index of the user\n    * @param _toIndex the last index of the liquidator\n    **/\n    event BalanceTransfer(\n        address indexed _from,\n        address indexed _to,\n        uint256 _value,\n        uint256 _fromBalanceIncrease,\n        uint256 _toBalanceIncrease,\n        uint256 _fromIndex,\n        uint256 _toIndex\n    );\n\n    /**\n    * @dev emitted when the accumulation of the interest\n    * by an user is redirected to another user\n    * @param _from the address from which the interest is being redirected\n    * @param _to the adress of the destination\n    * @param _fromBalanceIncrease the cumulated balance since the last update of the user\n    * @param _fromIndex the last index of the user\n    **/\n    event InterestStreamRedirected(\n        address indexed _from,\n        address indexed _to,\n        uint256 _redirectedBalance,\n        uint256 _fromBalanceIncrease,\n        uint256 _fromIndex\n    );\n\n    /**\n    * @dev emitted when the redirected balance of an user is being updated\n    * @param _targetAddress the address of which the balance is being updated\n    * @param _targetBalanceIncrease the cumulated balance since the last update of the target\n    * @param _targetIndex the last index of the user\n    * @param _redirectedBalanceAdded the redirected balance being added\n    * @param _redirectedBalanceRemoved the redirected balance being removed\n    **/\n    event RedirectedBalanceUpdated(\n        address indexed _targetAddress,\n        uint256 _targetBalanceIncrease,\n        uint256 _targetIndex,\n        uint256 _redirectedBalanceAdded,\n        uint256 _redirectedBalanceRemoved\n    );\n\n    event InterestRedirectionAllowanceChanged(\n        address indexed _from,\n        address indexed _to\n    );\n\n    address public underlyingAssetAddress;\n\n    mapping (address => uint256) private userIndexes;\n    mapping (address => address) private interestRedirectionAddresses;\n    mapping (address => uint256) private redirectedBalances;\n    mapping (address => address) private interestRedirectionAllowances;\n\n    LendingPoolAddressesProvider private addressesProvider;\n    LendingPoolCore private core;\n    LendingPool private pool;\n    LendingPoolDataProvider private dataProvider;\n\n    modifier onlyLendingPool {\n        require(\n            msg.sender == address(pool),\n            \"The caller of this function must be a lending pool\"\n        );\n        _;\n    }\n\n    modifier whenTransferAllowed(address _from, uint256 _amount) {\n        require(isTransferAllowed(_from, _amount), \"Transfer cannot be allowed.\");\n        _;\n    }\n\n    constructor(\n        LendingPoolAddressesProvider _addressesProvider,\n        address _underlyingAsset,\n        uint8 _underlyingAssetDecimals,\n        string memory _name,\n        string memory _symbol\n    ) public ERC20Detailed(_name, _symbol, _underlyingAssetDecimals) {\n\n        addressesProvider = _addressesProvider;\n        core = LendingPoolCore(addressesProvider.getLendingPoolCore());\n        pool = LendingPool(addressesProvider.getLendingPool());\n        dataProvider = LendingPoolDataProvider(addressesProvider.getLendingPoolDataProvider());\n        underlyingAssetAddress = _underlyingAsset;\n    }\n\n    /**\n     * @notice ERC20 implementation internal function backing transfer() and transferFrom()\n     * @dev validates the transfer before allowing it. NOTE: This is not standard ERC20 behavior\n     **/\n    function _transfer(address _from, address _to, uint256 _amount) internal whenTransferAllowed(_from, _amount) {\n\n        executeTransferInternal(_from, _to, _amount);\n    }\n\n\n    /**\n    * @dev redirects the interest generated to a target address.\n    * when the interest is redirected, the user balance is added to\n    * the recepient redirected balance.\n    * @param _to the address to which the interest will be redirected\n    **/\n    function redirectInterestStream(address _to) external {\n        redirectInterestStreamInternal(msg.sender, _to);\n    }\n\n    /**\n    * @dev redirects the interest generated by _from to a target address.\n    * when the interest is redirected, the user balance is added to\n    * the recepient redirected balance. The caller needs to have allowance on\n    * the interest redirection to be able to execute the function.\n    * @param _from the address of the user whom interest is being redirected\n    * @param _to the address to which the interest will be redirected\n    **/\n    function redirectInterestStreamOf(address _from, address _to) external {\n        require(\n            msg.sender == interestRedirectionAllowances[_from],\n            \"Caller is not allowed to redirect the interest of the user\"\n        );\n        redirectInterestStreamInternal(_from,_to);\n    }\n\n    /**\n    * @dev gives allowance to an address to execute the interest redirection\n    * on behalf of the caller.\n    * @param _to the address to which the interest will be redirected. Pass address(0) to reset\n    * the allowance.\n    **/\n    function allowInterestRedirectionTo(address _to) external {\n        require(_to != msg.sender, \"User cannot give allowance to himself\");\n        interestRedirectionAllowances[msg.sender] = _to;\n        emit InterestRedirectionAllowanceChanged(\n            msg.sender,\n            _to\n        );\n    }\n\n    /**\n    * @dev redeems aToken for the underlying asset\n    * @param _amount the amount being redeemed\n    **/\n    function redeem(uint256 _amount) external {\n\n        require(_amount > 0, \"Amount to redeem needs to be > 0\");\n\n        //cumulates the balance of the user\n        (,\n        uint256 currentBalance,\n        uint256 balanceIncrease,\n        uint256 index) = cumulateBalanceInternal(msg.sender);\n\n        uint256 amountToRedeem = _amount;\n\n        //if amount is equal to uint(-1), the user wants to redeem everything\n        if(_amount == UINT_MAX_VALUE){\n            amountToRedeem = currentBalance;\n        }\n\n        require(amountToRedeem <= currentBalance, \"User cannot redeem more than the available balance\");\n\n        //check that the user is allowed to redeem the amount\n        require(isTransferAllowed(msg.sender, amountToRedeem), \"Transfer cannot be allowed.\");\n\n        //if the user is redirecting his interest towards someone else,\n        //we update the redirected balance of the redirection address by adding the accrued interest,\n        //and removing the amount to redeem\n        updateRedirectedBalanceOfRedirectionAddressInternal(msg.sender, balanceIncrease, amountToRedeem);\n\n        // burns tokens equivalent to the amount requested\n        _burn(msg.sender, amountToRedeem);\n\n        bool userIndexReset = false;\n        //reset the user data if the remaining balance is 0\n        if(currentBalance.sub(amountToRedeem) == 0){\n            userIndexReset = resetDataOnZeroBalanceInternal(msg.sender);\n        }\n\n        // executes redeem of the underlying asset\n        pool.redeemUnderlying(\n            underlyingAssetAddress,\n            msg.sender,\n            amountToRedeem,\n            currentBalance.sub(amountToRedeem)\n        );\n\n        emit Redeem(msg.sender, amountToRedeem, balanceIncrease, userIndexReset ? 0 : index);\n    }\n\n    /**\n     * @dev mints token in the event of users depositing the underlying asset into the lending pool\n     * only lending pools can call this function\n     * @param _account the address receiving the minted tokens\n     * @param _amount the amount of tokens to mint\n     */\n    function mintOnDeposit(address _account, uint256 _amount) external onlyLendingPool {\n\n        //cumulates the balance of the user\n        (,\n        ,\n        uint256 balanceIncrease,\n        uint256 index) = cumulateBalanceInternal(_account);\n\n         //if the user is redirecting his interest towards someone else,\n        //we update the redirected balance of the redirection address by adding the accrued interest\n        //and the amount deposited\n        updateRedirectedBalanceOfRedirectionAddressInternal(_account, balanceIncrease.add(_amount), 0);\n\n        //mint an equivalent amount of tokens to cover the new deposit\n        _mint(_account, _amount);\n\n        emit MintOnDeposit(_account, _amount, balanceIncrease, index);\n    }\n\n    /**\n     * @dev burns token in the event of a borrow being liquidated, in case the liquidators reclaims the underlying asset\n     * Transfer of the liquidated asset is executed by the lending pool contract.\n     * only lending pools can call this function\n     * @param _account the address from which burn the aTokens\n     * @param _value the amount to burn\n     **/\n    function burnOnLiquidation(address _account, uint256 _value) external onlyLendingPool {\n\n        //cumulates the balance of the user being liquidated\n        (,uint256 accountBalance,uint256 balanceIncrease,uint256 index) = cumulateBalanceInternal(_account);\n\n        //adds the accrued interest and substracts the burned amount to\n        //the redirected balance\n        updateRedirectedBalanceOfRedirectionAddressInternal(_account, balanceIncrease, _value);\n\n        //burns the requested amount of tokens\n        _burn(_account, _value);\n\n        bool userIndexReset = false;\n        //reset the user data if the remaining balance is 0\n        if(accountBalance.sub(_value) == 0){\n            userIndexReset = resetDataOnZeroBalanceInternal(_account);\n        }\n\n        emit BurnOnLiquidation(_account, _value, balanceIncrease, userIndexReset ? 0 : index);\n    }\n\n    /**\n     * @dev transfers tokens in the event of a borrow being liquidated, in case the liquidators reclaims the aToken\n     *      only lending pools can call this function\n     * @param _from the address from which transfer the aTokens\n     * @param _to the destination address\n     * @param _value the amount to transfer\n     **/\n    function transferOnLiquidation(address _from, address _to, uint256 _value) external onlyLendingPool {\n\n        //being a normal transfer, the Transfer() and BalanceTransfer() are emitted\n        //so no need to emit a specific event here\n        executeTransferInternal(_from, _to, _value);\n    }\n\n    /**\n    * @dev calculates the balance of the user, which is the\n    * principal balance + interest generated by the principal balance + interest generated by the redirected balance\n    * @param _user the user for which the balance is being calculated\n    * @return the total balance of the user\n    **/\n    function balanceOf(address _user) public view returns(uint256) {\n\n        //current principal balance of the user\n        uint256 currentPrincipalBalance = super.balanceOf(_user);\n        //balance redirected by other users to _user for interest rate accrual\n        uint256 redirectedBalance = redirectedBalances[_user];\n\n        if(currentPrincipalBalance == 0 && redirectedBalance == 0){\n            return 0;\n        }\n        //if the _user is not redirecting the interest to anybody, accrues\n        //the interest for himself\n\n        if(interestRedirectionAddresses[_user] == address(0)){\n\n            //accruing for himself means that both the principal balance and\n            //the redirected balance partecipate in the interest\n            return calculateCumulatedBalanceInternal(\n                _user,\n                currentPrincipalBalance.add(redirectedBalance)\n                )\n                .sub(redirectedBalance);\n        }\n        else {\n            //if the user redirected the interest, then only the redirected\n            //balance generates interest. In that case, the interest generated\n            //by the redirected balance is added to the current principal balance.\n            return currentPrincipalBalance.add(\n                calculateCumulatedBalanceInternal(\n                    _user,\n                    redirectedBalance\n                )\n                .sub(redirectedBalance)\n            );\n        }\n    }\n\n    /**\n    * @dev returns the principal balance of the user. The principal balance is the last\n    * updated stored balance, which does not consider the perpetually accruing interest.\n    * @param _user the address of the user\n    * @return the principal balance of the user\n    **/\n    function principalBalanceOf(address _user) external view returns(uint256) {\n        return super.balanceOf(_user);\n    }\n\n\n    /**\n    * @dev calculates the total supply of the specific aToken\n    * since the balance of every single user increases over time, the total supply\n    * does that too.\n    * @return the current total supply\n    **/\n    function totalSupply() public view returns(uint256) {\n\n        uint256 currentSupplyPrincipal = super.totalSupply();\n\n        if(currentSupplyPrincipal == 0){\n            return 0;\n        }\n\n        return currentSupplyPrincipal\n            .wadToRay()\n            .rayMul(core.getReserveNormalizedIncome(underlyingAssetAddress))\n            .rayToWad();\n    }\n\n\n    /**\n     * @dev Used to validate transfers before actually executing them.\n     * @param _user address of the user to check\n     * @param _amount the amount to check\n     * @return true if the _user can transfer _amount, false otherwise\n     **/\n    function isTransferAllowed(address _user, uint256 _amount) public view returns (bool) {\n        return dataProvider.balanceDecreaseAllowed(underlyingAssetAddress, _user, _amount);\n    }\n\n    /**\n    * @dev returns the last index of the user, used to calculate the balance of the user\n    * @param _user address of the user\n    * @return the last user index\n    **/\n    function getUserIndex(address _user) external view returns(uint256) {\n        return userIndexes[_user];\n    }\n\n\n    /**\n    * @dev returns the address to which the interest is redirected\n    * @param _user address of the user\n    * @return 0 if there is no redirection, an address otherwise\n    **/\n    function getInterestRedirectionAddress(address _user) external view returns(address) {\n        return interestRedirectionAddresses[_user];\n    }\n\n    /**\n    * @dev returns the redirected balance of the user. The redirected balance is the balance\n    * redirected by other accounts to the user, that is accrueing interest for him.\n    * @param _user address of the user\n    * @return the total redirected balance\n    **/\n    function getRedirectedBalance(address _user) external view returns(uint256) {\n        return redirectedBalances[_user];\n    }\n\n    /**\n    * @dev accumulates the accrued interest of the user to the principal balance\n    * @param _user the address of the user for which the interest is being accumulated\n    * @return the previous principal balance, the new principal balance, the balance increase\n    * and the new user index\n    **/\n    function cumulateBalanceInternal(address _user)\n        internal\n        returns(uint256, uint256, uint256, uint256) {\n\n        uint256 previousPrincipalBalance = super.balanceOf(_user);\n\n        //calculate the accrued interest since the last accumulation\n        uint256 balanceIncrease = balanceOf(_user).sub(previousPrincipalBalance);\n        //mints an amount of tokens equivalent to the amount accumulated\n        _mint(_user, balanceIncrease);\n        //updates the user index\n        uint256 index = userIndexes[_user] = core.getReserveNormalizedIncome(underlyingAssetAddress);\n        return (\n            previousPrincipalBalance,\n            previousPrincipalBalance.add(balanceIncrease),\n            balanceIncrease,\n            index\n        );\n    }\n\n    /**\n    * @dev updates the redirected balance of the user. If the user is not redirecting his\n    * interest, nothing is executed.\n    * @param _user the address of the user for which the interest is being accumulated\n    * @param _balanceToAdd the amount to add to the redirected balance\n    * @param _balanceToRemove the amount to remove from the redirected balance\n    **/\n    function updateRedirectedBalanceOfRedirectionAddressInternal(\n        address _user,\n        uint256 _balanceToAdd,\n        uint256 _balanceToRemove\n    ) internal {\n\n        address redirectionAddress = interestRedirectionAddresses[_user];\n        //if there isn't any redirection, nothing to be done\n        if(redirectionAddress == address(0)){\n            return;\n        }\n\n        //compound balances of the redirected address\n        (,,uint256 balanceIncrease, uint256 index) = cumulateBalanceInternal(redirectionAddress);\n\n        //updating the redirected balance\n        redirectedBalances[redirectionAddress] = redirectedBalances[redirectionAddress]\n            .add(_balanceToAdd)\n            .sub(_balanceToRemove);\n\n        //if the interest of redirectionAddress is also being redirected, we need to update\n        //the redirected balance of the redirection target by adding the balance increase\n        address targetOfRedirectionAddress = interestRedirectionAddresses[redirectionAddress];\n\n        if(targetOfRedirectionAddress != address(0)){\n            redirectedBalances[targetOfRedirectionAddress] = redirectedBalances[targetOfRedirectionAddress].add(balanceIncrease);\n        }\n\n        emit RedirectedBalanceUpdated(\n            redirectionAddress,\n            balanceIncrease,\n            index,\n            _balanceToAdd,\n            _balanceToRemove\n        );\n    }\n\n    /**\n    * @dev calculate the interest accrued by _user on a specific balance\n    * @param _user the address of the user for which the interest is being accumulated\n    * @param _balance the balance on which the interest is calculated\n    * @return the interest rate accrued\n    **/\n    function calculateCumulatedBalanceInternal(\n        address _user,\n        uint256 _balance\n    ) internal view returns (uint256) {\n        return _balance\n            .wadToRay()\n            .rayMul(core.getReserveNormalizedIncome(underlyingAssetAddress))\n            .rayDiv(userIndexes[_user])\n            .rayToWad();\n    }\n\n    /**\n    * @dev executes the transfer of aTokens, invoked by both _transfer() and\n    *      transferOnLiquidation()\n    * @param _from the address from which transfer the aTokens\n    * @param _to the destination address\n    * @param _value the amount to transfer\n    **/\n    function executeTransferInternal(\n        address _from,\n        address _to,\n        uint256 _value\n    ) internal {\n\n        require(_value > 0, \"Transferred amount needs to be greater than zero\");\n\n        //cumulate the balance of the sender\n        (,\n        uint256 fromBalance,\n        uint256 fromBalanceIncrease,\n        uint256 fromIndex\n        ) = cumulateBalanceInternal(_from);\n\n        //cumulate the balance of the receiver\n        (,\n        ,\n        uint256 toBalanceIncrease,\n        uint256 toIndex\n        ) = cumulateBalanceInternal(_to);\n\n        //if the sender is redirecting his interest towards someone else,\n        //adds to the redirected balance the accrued interest and removes the amount\n        //being transferred\n        updateRedirectedBalanceOfRedirectionAddressInternal(_from, fromBalanceIncrease, _value);\n\n        //if the receiver is redirecting his interest towards someone else,\n        //adds to the redirected balance the accrued interest and the amount\n        //being transferred\n        updateRedirectedBalanceOfRedirectionAddressInternal(_to, toBalanceIncrease.add(_value), 0);\n\n        //performs the transfer\n        super._transfer(_from, _to, _value);\n\n        bool fromIndexReset = false;\n        //reset the user data if the remaining balance is 0\n        if(fromBalance.sub(_value) == 0){\n            fromIndexReset = resetDataOnZeroBalanceInternal(_from);\n        }\n\n        emit BalanceTransfer(\n            _from,\n            _to,\n            _value,\n            fromBalanceIncrease,\n            toBalanceIncrease,\n            fromIndexReset ? 0 : fromIndex,\n            toIndex\n        );\n    }\n\n    /**\n    * @dev executes the redirection of the interest from one address to another.\n    * immediately after redirection, the destination address will start to accrue interest.\n    * @param _from the address from which transfer the aTokens\n    * @param _to the destination address\n    **/\n    function redirectInterestStreamInternal(\n        address _from,\n        address _to\n    ) internal {\n\n        address currentRedirectionAddress = interestRedirectionAddresses[_from];\n\n        require(_to != currentRedirectionAddress, \"Interest is already redirected to the user\");\n\n        //accumulates the accrued interest to the principal\n        (uint256 previousPrincipalBalance,\n        uint256 fromBalance,\n        uint256 balanceIncrease,\n        uint256 fromIndex) = cumulateBalanceInternal(_from);\n\n        require(fromBalance > 0, \"Interest stream can only be redirected if there is a valid balance\");\n\n        //if the user is already redirecting the interest to someone, before changing\n        //the redirection address we substract the redirected balance of the previous\n        //recipient\n        if(currentRedirectionAddress != address(0)){\n            updateRedirectedBalanceOfRedirectionAddressInternal(_from,0, previousPrincipalBalance);\n        }\n\n        //if the user is redirecting the interest back to himself,\n        //we simply set to 0 the interest redirection address\n        if(_to == _from) {\n            interestRedirectionAddresses[_from] = address(0);\n            emit InterestStreamRedirected(\n                _from,\n                address(0),\n                fromBalance,\n                balanceIncrease,\n                fromIndex\n            );\n            return;\n        }\n\n        //first set the redirection address to the new recipient\n        interestRedirectionAddresses[_from] = _to;\n\n        //adds the user balance to the redirected balance of the destination\n        updateRedirectedBalanceOfRedirectionAddressInternal(_from,fromBalance,0);\n\n        emit InterestStreamRedirected(\n            _from,\n            _to,\n            fromBalance,\n            balanceIncrease,\n            fromIndex\n        );\n    }\n\n    /**\n    * @dev function to reset the interest stream redirection and the user index, if the\n    * user has no balance left.\n    * @param _user the address of the user\n    * @return true if the user index has also been reset, false otherwise. useful to emit the proper user index value\n    **/\n    function resetDataOnZeroBalanceInternal(address _user) internal returns(bool) {\n\n        //if the user has 0 principal balance, the interest stream redirection gets reset\n        interestRedirectionAddresses[_user] = address(0);\n\n        //emits a InterestStreamRedirected event to notify that the redirection has been reset\n        emit InterestStreamRedirected(_user, address(0),0,0,0);\n\n        //if the redirected balance is also 0, we clear up the user index\n        if(redirectedBalances[_user] == 0){\n            userIndexes[_user] = 0;\n            return true;\n        }\n        else{\n            return false;\n        }\n    }\n}\n",
  "sourcePath": "/Users/bibodeng/Programming/water_loan_core/contracts/tokenization/AToken.sol",
  "compiler": {
    "name": "solc",
    "version": "0.5.4+commit.d15a3125.mod.Emscripten.clang"
  },
  "schemaVersion": "2.0.1",
  "updatedAt": "2020-12-06T14:51:53.296Z"
}