{
  "contractName": "CoreLibrary",
  "abi": [
    {
      "constant": false,
      "inputs": [
        {
          "name": "_self",
          "type": "CoreLibrary.ReserveData storage"
        },
        {
          "name": "_aTokenAddress",
          "type": "address"
        },
        {
          "name": "_decimals",
          "type": "uint256"
        },
        {
          "name": "_interestRateStrategyAddress",
          "type": "address"
        }
      ],
      "name": "init",
      "outputs": [],
      "payable": false,
      "stateMutability": "nonpayable",
      "type": "function"
    },
    {
      "constant": false,
      "inputs": [
        {
          "name": "_self",
          "type": "CoreLibrary.ReserveData storage"
        },
        {
          "name": "_stableBorrowRateEnabled",
          "type": "bool"
        }
      ],
      "name": "enableBorrowing",
      "outputs": [],
      "payable": false,
      "stateMutability": "nonpayable",
      "type": "function"
    },
    {
      "constant": false,
      "inputs": [
        {
          "name": "_self",
          "type": "CoreLibrary.ReserveData storage"
        }
      ],
      "name": "disableBorrowing",
      "outputs": [],
      "payable": false,
      "stateMutability": "nonpayable",
      "type": "function"
    },
    {
      "constant": false,
      "inputs": [
        {
          "name": "_self",
          "type": "CoreLibrary.ReserveData storage"
        },
        {
          "name": "_baseLTVasCollateral",
          "type": "uint256"
        },
        {
          "name": "_liquidationThreshold",
          "type": "uint256"
        },
        {
          "name": "_liquidationBonus",
          "type": "uint256"
        }
      ],
      "name": "enableAsCollateral",
      "outputs": [],
      "payable": false,
      "stateMutability": "nonpayable",
      "type": "function"
    },
    {
      "constant": false,
      "inputs": [
        {
          "name": "_self",
          "type": "CoreLibrary.ReserveData storage"
        }
      ],
      "name": "disableAsCollateral",
      "outputs": [],
      "payable": false,
      "stateMutability": "nonpayable",
      "type": "function"
    }
  ],
  "bytecode": "0x610636610030600b82828239805160001a6073146000811461002057610022565bfe5b5030600052607381538281f3fe730000000000000000000000000000000000000000301460806040526004361061007e576000357c01000000000000000000000000000000000000000000000000000000009004806313769cd41461008357806324ddc4e61461010857806383c165a014610161578063e5df56a61461019c578063f63babbe146101d7575b600080fd5b81801561008f57600080fd5b50610106600480360360808110156100a657600080fd5b8101908080359060200190929190803573ffffffffffffffffffffffffffffffffffffffff16906020019092919080359060200190929190803573ffffffffffffffffffffffffffffffffffffffff16906020019092919050505061021e565b005b81801561011457600080fd5b5061015f6004803603608081101561012b57600080fd5b81019080803590602001909291908035906020019092919080359060200190929190803590602001909291905050506103d4565b005b81801561016d57600080fd5b5061019a6004803603602081101561018457600080fd5b81019080803590602001909291905050506104a0565b005b8180156101a857600080fd5b506101d5600480360360208110156101bf57600080fd5b81019080803590602001909291905050506104c0565b005b8180156101e357600080fd5b5061021c600480360360408110156101fa57600080fd5b81019080803590602001909291908035151590602001909291905050506104e0565b005b600073ffffffffffffffffffffffffffffffffffffffff1684600c0160009054906101000a900473ffffffffffffffffffffffffffffffffffffffff1673ffffffffffffffffffffffffffffffffffffffff161415156102c9576040517f08c379a00000000000000000000000000000000000000000000000000000000081526004018080602001828103825260248152602001806105bf6024913960400191505060405180910390fd5b6000846000015414156102e7576102de6105aa565b84600001819055505b600084600701541415610305576102fc6105aa565b84600701819055505b8284600c0160006101000a81548173ffffffffffffffffffffffffffffffffffffffff021916908373ffffffffffffffffffffffffffffffffffffffff1602179055508184600b01819055508084600d0160006101000a81548173ffffffffffffffffffffffffffffffffffffffff021916908373ffffffffffffffffffffffffffffffffffffffff160217905550600184600d01601c6101000a81548160ff021916908315150217905550600084600d01601d6101000a81548160ff02191690831515021790555050505050565b6000151584600d01601a9054906101000a900460ff161515141515610444576040517f08c379a00000000000000000000000000000000000000000000000000000000081526004018080602001828103825260288152602001806105e36028913960400191505060405180910390fd5b600184600d01601a6101000a81548160ff0219169083151502179055508284600801819055508184600901819055508084600a018190555060008460000154141561049a576104916105aa565b84600001819055505b50505050565b600081600d01601a6101000a81548160ff02191690831515021790555050565b600081600d0160196101000a81548160ff02191690831515021790555050565b6000151582600d0160199054906101000a900460ff16151514151561056d576040517f08c379a000000000000000000000000000000000000000000000000000000000815260040180806020018281038252601a8152602001807f5265736572766520697320616c726561647920656e61626c656400000000000081525060200191505060405180910390fd5b600182600d0160196101000a81548160ff0219169083151502179055508082600d01601b6101000a81548160ff0219169083151502179055505050565b60006b033b2e3c9fd0803ce800000090509056fe526573657276652068617320616c7265616479206265656e20696e697469616c697a65645265736572766520697320616c726561647920656e61626c656420617320636f6c6c61746572616ca165627a7a7230582052420875d40fb79479cc6e349142d1326b8a5344d0dcb06ab08cb4f6e0b428180029",
  "source": "pragma solidity ^0.5.0;\n\nimport \"./openzeppelin-solidity/contracts/math/SafeMath.sol\";\nimport \"./WadRayMath.sol\";\n\n/**\n* @title CoreLibrary library\n* @author Aave\n* @notice Defines the data structures of the reserves and the user data\n**/\nlibrary CoreLibrary {\n    using SafeMath for uint256;\n    using WadRayMath for uint256;\n\n    enum InterestRateMode {NONE, STABLE, VARIABLE}\n\n    uint256 internal constant SECONDS_PER_YEAR = 365 days;\n\n    struct UserReserveData {\n        //principal amount borrowed by the user.\n        uint256 principalBorrowBalance;\n        //cumulated variable borrow index for the user. Expressed in ray\n        uint256 lastVariableBorrowCumulativeIndex;\n        //origination fee cumulated by the user\n        uint256 originationFee;\n        // stable borrow rate at which the user has borrowed. Expressed in ray\n        uint256 stableBorrowRate;\n        uint40 lastUpdateTimestamp;\n        //defines if a specific deposit should or not be used as a collateral in borrows\n        bool useAsCollateral;\n    }\n\n    struct ReserveData {\n        /**\n        * @dev refer to the whitepaper, section 1.1 basic concepts for a formal description of these properties.\n        **/\n        //the liquidity index. Expressed in ray\n        uint256 lastLiquidityCumulativeIndex;\n        //the current supply rate. Expressed in ray\n        uint256 currentLiquidityRate;\n        //the total borrows of the reserve at a stable rate. Expressed in the currency decimals\n        uint256 totalBorrowsStable;\n        //the total borrows of the reserve at a variable rate. Expressed in the currency decimals\n        uint256 totalBorrowsVariable;\n        //the current variable borrow rate. Expressed in ray\n        uint256 currentVariableBorrowRate;\n        //the current stable borrow rate. Expressed in ray\n        uint256 currentStableBorrowRate;\n        //the current average stable borrow rate (weighted average of all the different stable rate loans). Expressed in ray\n        uint256 currentAverageStableBorrowRate;\n        //variable borrow index. Expressed in ray\n        uint256 lastVariableBorrowCumulativeIndex;\n        //the ltv of the reserve. Expressed in percentage (0-100)\n        uint256 baseLTVasCollateral;\n        //the liquidation threshold of the reserve. Expressed in percentage (0-100)\n        uint256 liquidationThreshold;\n        //the liquidation bonus of the reserve. Expressed in percentage\n        uint256 liquidationBonus;\n        //the decimals of the reserve asset\n        uint256 decimals;\n        /**\n        * @dev address of the aToken representing the asset\n        **/\n        address aTokenAddress;\n        /**\n        * @dev address of the interest rate strategy contract\n        **/\n        address interestRateStrategyAddress;\n        uint40 lastUpdateTimestamp;\n        // borrowingEnabled = true means users can borrow from this reserve\n        bool borrowingEnabled;\n        // usageAsCollateralEnabled = true means users can use this reserve as collateral\n        bool usageAsCollateralEnabled;\n        // isStableBorrowRateEnabled = true means users can borrow at a stable rate\n        bool isStableBorrowRateEnabled;\n        // isActive = true means the reserve has been activated and properly configured\n        bool isActive;\n        // isFreezed = true means the reserve only allows repays and redeems, but not deposits, new borrowings or rate swap\n        bool isFreezed;\n    }\n\n    /**\n    * @dev returns the ongoing normalized income for the reserve.\n    * a value of 1e27 means there is no income. As time passes, the income is accrued.\n    * A value of 2*1e27 means that the income of the reserve is double the initial amount.\n    * @param _reserve the reserve object\n    * @return the normalized income. expressed in ray\n    **/\n    function getNormalizedIncome(CoreLibrary.ReserveData storage _reserve)\n        internal\n        view\n        returns (uint256)\n    {\n        uint256 cumulated = calculateLinearInterest(\n            _reserve\n                .currentLiquidityRate,\n            _reserve\n                .lastUpdateTimestamp\n        )\n            .rayMul(_reserve.lastLiquidityCumulativeIndex);\n\n        return cumulated;\n\n    }\n\n    /**\n    * @dev Updates the liquidity cumulative index Ci and variable borrow cumulative index Bvc. Refer to the whitepaper for\n    * a formal specification.\n    * @param _self the reserve object\n    **/\n    function updateCumulativeIndexes(ReserveData storage _self) internal {\n        uint256 totalBorrows = getTotalBorrows(_self);\n\n        if (totalBorrows > 0) {\n            //only cumulating if there is any income being produced\n            uint256 cumulatedLiquidityInterest = calculateLinearInterest(\n                _self.currentLiquidityRate,\n                _self.lastUpdateTimestamp\n            );\n\n            _self.lastLiquidityCumulativeIndex = cumulatedLiquidityInterest.rayMul(\n                _self.lastLiquidityCumulativeIndex\n            );\n\n            uint256 cumulatedVariableBorrowInterest = calculateCompoundedInterest(\n                _self.currentVariableBorrowRate,\n                _self.lastUpdateTimestamp\n            );\n            _self.lastVariableBorrowCumulativeIndex = cumulatedVariableBorrowInterest.rayMul(\n                _self.lastVariableBorrowCumulativeIndex\n            );\n        }\n    }\n\n    /**\n    * @dev accumulates a predefined amount of asset to the reserve as a fixed, one time income. Used for example to accumulate\n    * the flashloan fee to the reserve, and spread it through the depositors.\n    * @param _self the reserve object\n    * @param _totalLiquidity the total liquidity available in the reserve\n    * @param _amount the amount to accomulate\n    **/\n    function cumulateToLiquidityIndex(\n        ReserveData storage _self,\n        uint256 _totalLiquidity,\n        uint256 _amount\n    ) internal {\n        uint256 amountToLiquidityRatio = _amount.wadToRay().rayDiv(_totalLiquidity.wadToRay());\n\n        uint256 cumulatedLiquidity = amountToLiquidityRatio.add(WadRayMath.ray());\n\n        _self.lastLiquidityCumulativeIndex = cumulatedLiquidity.rayMul(\n            _self.lastLiquidityCumulativeIndex\n        );\n    }\n\n    /**\n    * @dev initializes a reserve\n    * @param _self the reserve object\n    * @param _aTokenAddress the address of the overlying atoken contract\n    * @param _decimals the number of decimals of the underlying asset\n    * @param _interestRateStrategyAddress the address of the interest rate strategy contract\n    **/\n    function init(\n        ReserveData storage _self,\n        address _aTokenAddress,\n        uint256 _decimals,\n        address _interestRateStrategyAddress\n    ) external {\n        require(_self.aTokenAddress == address(0), \"Reserve has already been initialized\");\n\n        if (_self.lastLiquidityCumulativeIndex == 0) {\n            //if the reserve has not been initialized yet\n            _self.lastLiquidityCumulativeIndex = WadRayMath.ray();\n        }\n\n        if (_self.lastVariableBorrowCumulativeIndex == 0) {\n            _self.lastVariableBorrowCumulativeIndex = WadRayMath.ray();\n        }\n\n        _self.aTokenAddress = _aTokenAddress;\n        _self.decimals = _decimals;\n\n        _self.interestRateStrategyAddress = _interestRateStrategyAddress;\n        _self.isActive = true;\n        _self.isFreezed = false;\n\n    }\n\n    /**\n    * @dev enables borrowing on a reserve\n    * @param _self the reserve object\n    * @param _stableBorrowRateEnabled true if the stable borrow rate must be enabled by default, false otherwise\n    **/\n    function enableBorrowing(ReserveData storage _self, bool _stableBorrowRateEnabled) external {\n        require(_self.borrowingEnabled == false, \"Reserve is already enabled\");\n\n        _self.borrowingEnabled = true;\n        _self.isStableBorrowRateEnabled = _stableBorrowRateEnabled;\n\n    }\n\n    /**\n    * @dev disables borrowing on a reserve\n    * @param _self the reserve object\n    **/\n    function disableBorrowing(ReserveData storage _self) external {\n        _self.borrowingEnabled = false;\n    }\n\n    /**\n    * @dev enables a reserve to be used as collateral\n    * @param _self the reserve object\n    * @param _baseLTVasCollateral the loan to value of the asset when used as collateral\n    * @param _liquidationThreshold the threshold at which loans using this asset as collateral will be considered undercollateralized\n    * @param _liquidationBonus the bonus liquidators receive to liquidate this asset\n    **/\n    function enableAsCollateral(\n        ReserveData storage _self,\n        uint256 _baseLTVasCollateral,\n        uint256 _liquidationThreshold,\n        uint256 _liquidationBonus\n    ) external {\n        require(\n            _self.usageAsCollateralEnabled == false,\n            \"Reserve is already enabled as collateral\"\n        );\n\n        _self.usageAsCollateralEnabled = true;\n        _self.baseLTVasCollateral = _baseLTVasCollateral;\n        _self.liquidationThreshold = _liquidationThreshold;\n        _self.liquidationBonus = _liquidationBonus;\n\n        if (_self.lastLiquidityCumulativeIndex == 0)\n            _self.lastLiquidityCumulativeIndex = WadRayMath.ray();\n\n    }\n\n    /**\n    * @dev disables a reserve as collateral\n    * @param _self the reserve object\n    **/\n    function disableAsCollateral(ReserveData storage _self) external {\n        _self.usageAsCollateralEnabled = false;\n    }\n\n\n\n    /**\n    * @dev calculates the compounded borrow balance of a user\n    * @param _self the userReserve object\n    * @param _reserve the reserve object\n    * @return the user compounded borrow balance\n    **/\n    function getCompoundedBorrowBalance(\n        CoreLibrary.UserReserveData storage _self,\n        CoreLibrary.ReserveData storage _reserve\n    ) internal view returns (uint256) {\n        if (_self.principalBorrowBalance == 0) return 0;\n\n        uint256 principalBorrowBalanceRay = _self.principalBorrowBalance.wadToRay();\n        uint256 compoundedBalance = 0;\n        uint256 cumulatedInterest = 0;\n\n        if (_self.stableBorrowRate > 0) {\n            cumulatedInterest = calculateCompoundedInterest(\n                _self.stableBorrowRate,\n                _self.lastUpdateTimestamp\n            );\n        } else {\n            //variable interest\n            cumulatedInterest = calculateCompoundedInterest(\n                _reserve\n                    .currentVariableBorrowRate,\n                _reserve\n                    .lastUpdateTimestamp\n            )\n                .rayMul(_reserve.lastVariableBorrowCumulativeIndex)\n                .rayDiv(_self.lastVariableBorrowCumulativeIndex);\n        }\n\n        compoundedBalance = principalBorrowBalanceRay.rayMul(cumulatedInterest).rayToWad();\n\n        if (compoundedBalance == _self.principalBorrowBalance) {\n            //solium-disable-next-line\n            if (_self.lastUpdateTimestamp != block.timestamp) {\n                //no interest cumulation because of the rounding - we add 1 wei\n                //as symbolic cumulated interest to avoid interest free loans.\n\n                return _self.principalBorrowBalance;\n            }\n        }\n\n        return compoundedBalance;\n    }\n\n    /**\n    * @dev increases the total borrows at a stable rate on a specific reserve and updates the\n    * average stable rate consequently\n    * @param _reserve the reserve object\n    * @param _amount the amount to add to the total borrows stable\n    * @param _rate the rate at which the amount has been borrowed\n    **/\n    function increaseTotalBorrowsStableAndUpdateAverageRate(\n        ReserveData storage _reserve,\n        uint256 _amount,\n        uint256 _rate\n    ) internal {\n        uint256 previousTotalBorrowStable = _reserve.totalBorrowsStable;\n        //updating reserve borrows stable\n        _reserve.totalBorrowsStable = _reserve.totalBorrowsStable.add(_amount);\n\n        //update the average stable rate\n        //weighted average of all the borrows\n        uint256 weightedLastBorrow = _amount.wadToRay().rayMul(_rate);\n        uint256 weightedPreviousTotalBorrows = previousTotalBorrowStable.wadToRay().rayMul(\n            _reserve.currentAverageStableBorrowRate\n        );\n\n        _reserve.currentAverageStableBorrowRate = weightedLastBorrow\n            .add(weightedPreviousTotalBorrows)\n            .rayDiv(_reserve.totalBorrowsStable.wadToRay());\n    }\n\n    /**\n    * @dev decreases the total borrows at a stable rate on a specific reserve and updates the\n    * average stable rate consequently\n    * @param _reserve the reserve object\n    * @param _amount the amount to substract to the total borrows stable\n    * @param _rate the rate at which the amount has been repaid\n    **/\n    function decreaseTotalBorrowsStableAndUpdateAverageRate(\n        ReserveData storage _reserve,\n        uint256 _amount,\n        uint256 _rate\n    ) internal {\n        require(_reserve.totalBorrowsStable >= _amount, \"Invalid amount to decrease\");\n\n        uint256 previousTotalBorrowStable = _reserve.totalBorrowsStable;\n\n        //updating reserve borrows stable\n        _reserve.totalBorrowsStable = _reserve.totalBorrowsStable.sub(_amount);\n\n        if (_reserve.totalBorrowsStable == 0) {\n            _reserve.currentAverageStableBorrowRate = 0; //no income if there are no stable rate borrows\n            return;\n        }\n\n        //update the average stable rate\n        //weighted average of all the borrows\n        uint256 weightedLastBorrow = _amount.wadToRay().rayMul(_rate);\n        uint256 weightedPreviousTotalBorrows = previousTotalBorrowStable.wadToRay().rayMul(\n            _reserve.currentAverageStableBorrowRate\n        );\n\n        require(\n            weightedPreviousTotalBorrows >= weightedLastBorrow,\n            \"The amounts to subtract don't match\"\n        );\n\n        _reserve.currentAverageStableBorrowRate = weightedPreviousTotalBorrows\n            .sub(weightedLastBorrow)\n            .rayDiv(_reserve.totalBorrowsStable.wadToRay());\n    }\n\n    /**\n    * @dev increases the total borrows at a variable rate\n    * @param _reserve the reserve object\n    * @param _amount the amount to add to the total borrows variable\n    **/\n    function increaseTotalBorrowsVariable(ReserveData storage _reserve, uint256 _amount) internal {\n        _reserve.totalBorrowsVariable = _reserve.totalBorrowsVariable.add(_amount);\n    }\n\n    /**\n    * @dev decreases the total borrows at a variable rate\n    * @param _reserve the reserve object\n    * @param _amount the amount to substract to the total borrows variable\n    **/\n    function decreaseTotalBorrowsVariable(ReserveData storage _reserve, uint256 _amount) internal {\n        require(\n            _reserve.totalBorrowsVariable >= _amount,\n            \"The amount that is being subtracted from the variable total borrows is incorrect\"\n        );\n        _reserve.totalBorrowsVariable = _reserve.totalBorrowsVariable.sub(_amount);\n    }\n\n    /**\n    * @dev function to calculate the interest using a linear interest rate formula\n    * @param _rate the interest rate, in ray\n    * @param _lastUpdateTimestamp the timestamp of the last update of the interest\n    * @return the interest rate linearly accumulated during the timeDelta, in ray\n    **/\n\n    function calculateLinearInterest(uint256 _rate, uint40 _lastUpdateTimestamp)\n        internal\n        view\n        returns (uint256)\n    {\n        //solium-disable-next-line\n        uint256 timeDifference = block.timestamp.sub(uint256(_lastUpdateTimestamp));\n\n        uint256 timeDelta = timeDifference.wadToRay().rayDiv(SECONDS_PER_YEAR.wadToRay());\n\n        return _rate.rayMul(timeDelta).add(WadRayMath.ray());\n    }\n\n    /**\n    * @dev function to calculate the interest using a compounded interest rate formula\n    * @param _rate the interest rate, in ray\n    * @param _lastUpdateTimestamp the timestamp of the last update of the interest\n    * @return the interest rate compounded during the timeDelta, in ray\n    **/\n    function calculateCompoundedInterest(uint256 _rate, uint40 _lastUpdateTimestamp)\n        internal\n        view\n        returns (uint256)\n    {\n        //solium-disable-next-line\n        uint256 timeDifference = block.timestamp.sub(uint256(_lastUpdateTimestamp));\n\n        uint256 ratePerSecond = _rate.div(SECONDS_PER_YEAR);\n\n        return ratePerSecond.add(WadRayMath.ray()).rayPow(timeDifference);\n    }\n\n    /**\n    * @dev returns the total borrows on the reserve\n    * @param _reserve the reserve object\n    * @return the total borrows (stable + variable)\n    **/\n    function getTotalBorrows(CoreLibrary.ReserveData storage _reserve)\n        internal\n        view\n        returns (uint256)\n    {\n        return _reserve.totalBorrowsStable.add(_reserve.totalBorrowsVariable);\n    }\n\n}\n",
  "sourcePath": "/Users/bibodeng/Programming/water_loan_core/contracts/libraries/CoreLibrary.sol",
  "compiler": {
    "name": "solc",
    "version": "0.5.4+commit.d15a3125.mod.Emscripten.clang"
  },
  "schemaVersion": "2.0.1",
  "updatedAt": "2020-12-06T14:57:20.985Z"
}