{
  "contractName": "DefaultStrategy",
  "abi": [
    {
      "constant": true,
      "inputs": [],
      "name": "stableRateSlope1",
      "outputs": [
        {
          "name": "",
          "type": "uint256"
        }
      ],
      "payable": false,
      "stateMutability": "view",
      "type": "function"
    },
    {
      "constant": true,
      "inputs": [],
      "name": "EXCESS_UTILIZATION_RATE",
      "outputs": [
        {
          "name": "",
          "type": "uint256"
        }
      ],
      "payable": false,
      "stateMutability": "view",
      "type": "function"
    },
    {
      "constant": true,
      "inputs": [],
      "name": "variableRateSlope2",
      "outputs": [
        {
          "name": "",
          "type": "uint256"
        }
      ],
      "payable": false,
      "stateMutability": "view",
      "type": "function"
    },
    {
      "constant": true,
      "inputs": [],
      "name": "variableRateSlope1",
      "outputs": [
        {
          "name": "",
          "type": "uint256"
        }
      ],
      "payable": false,
      "stateMutability": "view",
      "type": "function"
    },
    {
      "constant": true,
      "inputs": [],
      "name": "OPTIMAL_UTILIZATION_RATE",
      "outputs": [
        {
          "name": "",
          "type": "uint256"
        }
      ],
      "payable": false,
      "stateMutability": "view",
      "type": "function"
    },
    {
      "constant": true,
      "inputs": [],
      "name": "baseVariableBorrowRate",
      "outputs": [
        {
          "name": "",
          "type": "uint256"
        }
      ],
      "payable": false,
      "stateMutability": "view",
      "type": "function"
    },
    {
      "constant": true,
      "inputs": [],
      "name": "addressesProvider",
      "outputs": [
        {
          "name": "",
          "type": "address"
        }
      ],
      "payable": false,
      "stateMutability": "view",
      "type": "function"
    },
    {
      "constant": true,
      "inputs": [],
      "name": "stableRateSlope2",
      "outputs": [
        {
          "name": "",
          "type": "uint256"
        }
      ],
      "payable": false,
      "stateMutability": "view",
      "type": "function"
    },
    {
      "constant": true,
      "inputs": [],
      "name": "reserve",
      "outputs": [
        {
          "name": "",
          "type": "address"
        }
      ],
      "payable": false,
      "stateMutability": "view",
      "type": "function"
    },
    {
      "inputs": [
        {
          "name": "_reserve",
          "type": "address"
        },
        {
          "name": "_provider",
          "type": "address"
        },
        {
          "name": "_baseVariableBorrowRate",
          "type": "uint256"
        },
        {
          "name": "_variableRateSlope1",
          "type": "uint256"
        },
        {
          "name": "_variableRateSlope2",
          "type": "uint256"
        },
        {
          "name": "_stableRateSlope1",
          "type": "uint256"
        },
        {
          "name": "_stableRateSlope2",
          "type": "uint256"
        }
      ],
      "payable": false,
      "stateMutability": "nonpayable",
      "type": "constructor"
    },
    {
      "constant": true,
      "inputs": [],
      "name": "getBaseVariableBorrowRate",
      "outputs": [
        {
          "name": "",
          "type": "uint256"
        }
      ],
      "payable": false,
      "stateMutability": "view",
      "type": "function"
    },
    {
      "constant": true,
      "inputs": [],
      "name": "getVariableRateSlope1",
      "outputs": [
        {
          "name": "",
          "type": "uint256"
        }
      ],
      "payable": false,
      "stateMutability": "view",
      "type": "function"
    },
    {
      "constant": true,
      "inputs": [],
      "name": "getVariableRateSlope2",
      "outputs": [
        {
          "name": "",
          "type": "uint256"
        }
      ],
      "payable": false,
      "stateMutability": "view",
      "type": "function"
    },
    {
      "constant": true,
      "inputs": [],
      "name": "getStableRateSlope1",
      "outputs": [
        {
          "name": "",
          "type": "uint256"
        }
      ],
      "payable": false,
      "stateMutability": "view",
      "type": "function"
    },
    {
      "constant": true,
      "inputs": [],
      "name": "getStableRateSlope2",
      "outputs": [
        {
          "name": "",
          "type": "uint256"
        }
      ],
      "payable": false,
      "stateMutability": "view",
      "type": "function"
    },
    {
      "constant": true,
      "inputs": [
        {
          "name": "_reserve",
          "type": "address"
        },
        {
          "name": "_availableLiquidity",
          "type": "uint256"
        },
        {
          "name": "_totalBorrowsStable",
          "type": "uint256"
        },
        {
          "name": "_totalBorrowsVariable",
          "type": "uint256"
        },
        {
          "name": "_averageStableBorrowRate",
          "type": "uint256"
        }
      ],
      "name": "calculateInterestRates",
      "outputs": [
        {
          "name": "currentLiquidityRate",
          "type": "uint256"
        },
        {
          "name": "currentStableBorrowRate",
          "type": "uint256"
        },
        {
          "name": "currentVariableBorrowRate",
          "type": "uint256"
        }
      ],
      "payable": false,
      "stateMutability": "view",
      "type": "function"
    }
  ],
  "bytecode": "0x608060405234801561001057600080fd5b50d3801561001d57600080fd5b50d2801561002a57600080fd5b5060405160e080610e5a833981018060405260e081101561004a57600080fd5b8101908080519060200190929190805190602001909291908051906020019092919080519060200190929190805190602001909291908051906020019092919080519060200190929190505050856000806101000a81548173ffffffffffffffffffffffffffffffffffffffff021916908373ffffffffffffffffffffffffffffffffffffffff160217905550846001819055508360028190555082600381905550816004819055508060058190555086600660006101000a81548173ffffffffffffffffffffffffffffffffffffffff021916908373ffffffffffffffffffffffffffffffffffffffff16021790555050505050505050610d09806101516000396000f3fe608060405234801561001057600080fd5b50d3801561001d57600080fd5b50d2801561002a57600080fd5b506004361061012c576000357c0100000000000000000000000000000000000000000000000000000000900480637b832f58116100ce578063ccab01a31161009d578063ccab01a314610317578063cd3293de14610335578063d5cd73911461037f578063f42024091461039d5761012c565b80637b832f5814610273578063a15f30ac14610291578063b2589544146102af578063c72c4d10146102cd5761012c565b8063173198731161010a578063173198731461018b57806334762ca5146101a957806357e37af0146101c757806365614f81146102555761012c565b80630b3429a2146101315780630bdf953f1461014f57806314e32da41461016d575b600080fd5b6101396103bb565b6040518082815260200191505060405180910390f35b6101576103c5565b6040518082815260200191505060405180910390f35b6101756103cb565b6040518082815260200191505060405180910390f35b6101936103d5565b6040518082815260200191505060405180910390f35b6101b16103e4565b6040518082815260200191505060405180910390f35b610231600480360360a08110156101dd57600080fd5b81019080803573ffffffffffffffffffffffffffffffffffffffff169060200190929190803590602001909291908035906020019092919080359060200190929190803590602001909291905050506103ee565b60405180848152602001838152602001828152602001935050505060405180910390f35b61025d610774565b6040518082815260200191505060405180910390f35b61027b61077a565b6040518082815260200191505060405180910390f35b610299610780565b6040518082815260200191505060405180910390f35b6102b7610790565b6040518082815260200191505060405180910390f35b6102d5610796565b604051808273ffffffffffffffffffffffffffffffffffffffff1673ffffffffffffffffffffffffffffffffffffffff16815260200191505060405180910390f35b61031f6107bb565b6040518082815260200191505060405180910390f35b61033d6107c1565b604051808273ffffffffffffffffffffffffffffffffffffffff1673ffffffffffffffffffffffffffffffffffffffff16815260200191505060405180910390f35b6103876107e7565b6040518082815260200191505060405180910390f35b6103a56107f1565b6040518082815260200191505060405180910390f35b6000600254905090565b60045481565b6000600554905090565b6aa56fa5b99019a5c800000081565b6000600154905090565b60008060008061040786886107fb90919063ffffffff16565b90506000808214801561041a5750600089145b61044857610443610434838b6107fb90919063ffffffff16565b8361088590919063ffffffff16565b61044b565b60005b90506000809054906101000a900473ffffffffffffffffffffffffffffffffffffffff1673ffffffffffffffffffffffffffffffffffffffff16633618abba6040518163ffffffff167c010000000000000000000000000000000000000000000000000000000002815260040160206040518083038186803b1580156104d057600080fd5b505afa1580156104e4573d6000803e3d6000fd5b505050506040513d60208110156104fa57600080fd5b810190808051906020019092919050505073ffffffffffffffffffffffffffffffffffffffff1663bb85c0bb8b6040518263ffffffff167c0100000000000000000000000000000000000000000000000000000000028152600401808273ffffffffffffffffffffffffffffffffffffffff1673ffffffffffffffffffffffffffffffffffffffff16815260200191505060206040518083038186803b1580156105a357600080fd5b505afa1580156105b7573d6000803e3d6000fd5b505050506040513d60208110156105cd57600080fd5b810190808051906020019092919050505093506b0295be96e6406697200000008111156106b65760006106326aa56fa5b99019a5c80000006106246b0295be96e640669720000000856108e390919063ffffffff16565b61088590919063ffffffff16565b905061066f61064c8260055461092d90919063ffffffff16565b610661600454886107fb90919063ffffffff16565b6107fb90919063ffffffff16565b94506106ae6106898260035461092d90919063ffffffff16565b6106a06002546001546107fb90919063ffffffff16565b6107fb90919063ffffffff16565b935050610747565b6106fb6106ec6106db6b0295be96e6406697200000008461088590919063ffffffff16565b60045461092d90919063ffffffff16565b856107fb90919063ffffffff16565b93506107446107336002546107256b0295be96e6406697200000008561088590919063ffffffff16565b61092d90919063ffffffff16565b6001546107fb90919063ffffffff16565b92505b610765816107578a8a878b610992565b61092d90919063ffffffff16565b94505050955095509592505050565b60035481565b60025481565b6b0295be96e64066972000000081565b60015481565b6000809054906101000a900473ffffffffffffffffffffffffffffffffffffffff1681565b60055481565b600660009054906101000a900473ffffffffffffffffffffffffffffffffffffffff1681565b6000600454905090565b6000600354905090565b600080828401905083811015151561087b576040517f08c379a000000000000000000000000000000000000000000000000000000000815260040180806020018281038252601b8152602001807f536166654d6174683a206164646974696f6e206f766572666c6f77000000000081525060200191505060405180910390fd5b8091505092915050565b60008060028381151561089457fe5b0490506108da836108cc6108bd6b033b2e3c9fd0803ce800000088610a3c90919063ffffffff16565b846107fb90919063ffffffff16565b610ac690919063ffffffff16565b91505092915050565b600061092583836040805190810160405280601e81526020017f536166654d6174683a207375627472616374696f6e206f766572666c6f770000815250610b10565b905092915050565b600061098a6b033b2e3c9fd0803ce800000061097c6109558587610a3c90919063ffffffff16565b60026b033b2e3c9fd0803ce800000081151561096d57fe5b046107fb90919063ffffffff16565b610ac690919063ffffffff16565b905092915050565b6000806109a885876107fb90919063ffffffff16565b905060008114156109bd576000915050610a34565b60006109da856109cc88610bd2565b61092d90919063ffffffff16565b905060006109f9856109eb8a610bd2565b61092d90919063ffffffff16565b90506000610a2a610a0985610bd2565b610a1c84866107fb90919063ffffffff16565b61088590919063ffffffff16565b9050809450505050505b949350505050565b600080831415610a4f5760009050610ac0565b60008284029050828482811515610a6257fe5b04141515610abb576040517f08c379a0000000000000000000000000000000000000000000000000000000008152600401808060200182810382526021815260200180610cbd6021913960400191505060405180910390fd5b809150505b92915050565b6000610b0883836040805190810160405280601a81526020017f536166654d6174683a206469766973696f6e206279207a65726f000000000000815250610bf2565b905092915050565b60008383111582901515610bbf576040517f08c379a00000000000000000000000000000000000000000000000000000000081526004018080602001828103825283818151815260200191508051906020019080838360005b83811015610b84578082015181840152602081019050610b69565b50505050905090810190601f168015610bb15780820380516001836020036101000a031916815260200191505b509250505060405180910390fd5b5060008385039050809150509392505050565b6000610beb633b9aca0083610a3c90919063ffffffff16565b9050919050565b600080831182901515610ca0576040517f08c379a00000000000000000000000000000000000000000000000000000000081526004018080602001828103825283818151815260200191508051906020019080838360005b83811015610c65578082015181840152602081019050610c4a565b50505050905090810190601f168015610c925780820380516001836020036101000a031916815260200191505b509250505060405180910390fd5b5060008385811515610cae57fe5b04905080915050939250505056fe536166654d6174683a206d756c7469706c69636174696f6e206f766572666c6f77a165627a7a723058203b9f2bb07a2f8878e92098434f2825268294cac47272465f6a05fe9905cf00600029",
  "source": "pragma solidity ^0.5.0;\n\nimport \"../interfaces/IReserveInterestRateStrategy.sol\";\nimport \"../libraries/WadRayMath.sol\";\nimport \"../configuration/LendingPoolAddressesProvider.sol\";\nimport \"./LendingPoolCore.sol\";\nimport \"../interfaces/ILendingRateOracle.sol\";\n\nimport \"../libraries/openzeppelin-solidity/contracts/math/SafeMath.sol\";\n\n/**\n* @title DefaultReserveInterestRateStrategy contract\n* @notice implements the calculation of the interest rates depending on the reserve parameters.\n* @dev if there is need to update the calculation of the interest rates for a specific reserve,\n* a new version of this contract will be deployed.\n* @author Aave\n**/\ncontract DefaultStrategy is IReserveInterestRateStrategy {\n    using WadRayMath for uint256;\n    using SafeMath for uint256;\n\n\n\n   /**\n    * @dev this constant represents the utilization rate at which the pool aims to obtain most competitive borrow rates\n    * expressed in ray\n    **/\n    uint256 public constant OPTIMAL_UTILIZATION_RATE = 0.8 * 1e27;\n\n   /**\n    * @dev this constant represents the excess utilization rate above the optimal. It's always equal to\n    * 1-optimal utilization rate. Added as a constant here for gas optimizations\n    * expressed in ray\n    **/\n\n    uint256 public constant EXCESS_UTILIZATION_RATE = 0.2 * 1e27;\n\n    LendingPoolAddressesProvider public addressesProvider;\n\n\n    //base variable borrow rate when Utilization rate = 0. Expressed in ray\n    uint256 public baseVariableBorrowRate;\n\n    //slope of the variable interest curve when utilization rate > 0 and <= OPTIMAL_UTILIZATION_RATE. Expressed in ray\n    uint256 public variableRateSlope1;\n\n    //slope of the variable interest curve when utilization rate > OPTIMAL_UTILIZATION_RATE. Expressed in ray\n    uint256 public variableRateSlope2;\n\n    //slope of the stable interest curve when utilization rate > 0 and <= OPTIMAL_UTILIZATION_RATE. Expressed in ray\n    uint256 public stableRateSlope1;\n\n    //slope of the stable interest curve when utilization rate > OPTIMAL_UTILIZATION_RATE. Expressed in ray\n    uint256 public stableRateSlope2;\n    address public reserve;\n\n    constructor(\n        address _reserve,\n        LendingPoolAddressesProvider _provider,\n        uint256 _baseVariableBorrowRate,\n        uint256 _variableRateSlope1,\n        uint256 _variableRateSlope2,\n        uint256 _stableRateSlope1,\n        uint256 _stableRateSlope2\n    ) public {\n        addressesProvider = _provider;\n        baseVariableBorrowRate = _baseVariableBorrowRate;\n        variableRateSlope1 = _variableRateSlope1;\n        variableRateSlope2 = _variableRateSlope2;\n        stableRateSlope1 = _stableRateSlope1;\n        stableRateSlope2 = _stableRateSlope2;\n        reserve = _reserve;\n    }\n\n    /**\n    @dev accessors\n     */\n\n    function getBaseVariableBorrowRate() external view returns (uint256) {\n        return baseVariableBorrowRate;\n    }\n\n    function getVariableRateSlope1() external view returns (uint256) {\n        return variableRateSlope1;\n    }\n\n    function getVariableRateSlope2() external view returns (uint256) {\n        return variableRateSlope2;\n    }\n\n    function getStableRateSlope1() external view returns (uint256) {\n        return stableRateSlope1;\n    }\n\n    function getStableRateSlope2() external view returns (uint256) {\n        return stableRateSlope2;\n    }\n\n    /**\n    * @dev calculates the interest rates depending on the available liquidity and the total borrowed.\n    * @param _reserve the address of the reserve\n    * @param _availableLiquidity the liquidity available in the reserve\n    * @param _totalBorrowsStable the total borrowed from the reserve a stable rate\n    * @param _totalBorrowsVariable the total borrowed from the reserve at a variable rate\n    * @param _averageStableBorrowRate the weighted average of all the stable rate borrows\n    * @return the liquidity rate, stable borrow rate and variable borrow rate calculated from the input parameters\n    **/\n    function calculateInterestRates(\n        address _reserve,\n        uint256 _availableLiquidity,\n        uint256 _totalBorrowsStable,\n        uint256 _totalBorrowsVariable,\n        uint256 _averageStableBorrowRate\n    )\n        external\n        view\n        returns (\n            uint256 currentLiquidityRate,\n            uint256 currentStableBorrowRate,\n            uint256 currentVariableBorrowRate\n        )\n    {\n        uint256 totalBorrows = _totalBorrowsStable.add(_totalBorrowsVariable);\n\n        uint256 utilizationRate = (totalBorrows == 0 && _availableLiquidity == 0)\n            ? 0\n            : totalBorrows.rayDiv(_availableLiquidity.add(totalBorrows));\n\n        currentStableBorrowRate = ILendingRateOracle(addressesProvider.getLendingRateOracle())\n            .getMarketBorrowRate(_reserve);\n\n        if (utilizationRate > OPTIMAL_UTILIZATION_RATE) {\n            uint256 excessUtilizationRateRatio = utilizationRate\n                .sub(OPTIMAL_UTILIZATION_RATE)\n                .rayDiv(EXCESS_UTILIZATION_RATE);\n\n            currentStableBorrowRate = currentStableBorrowRate.add(stableRateSlope1).add(\n                stableRateSlope2.rayMul(excessUtilizationRateRatio)\n            );\n\n            currentVariableBorrowRate = baseVariableBorrowRate.add(variableRateSlope1).add(\n                variableRateSlope2.rayMul(excessUtilizationRateRatio)\n            );\n        } else {\n            currentStableBorrowRate = currentStableBorrowRate.add(\n                stableRateSlope1.rayMul(\n                    utilizationRate.rayDiv(\n                        OPTIMAL_UTILIZATION_RATE\n                    )\n                )\n            );\n            currentVariableBorrowRate = baseVariableBorrowRate.add(\n                utilizationRate.rayDiv(OPTIMAL_UTILIZATION_RATE).rayMul(variableRateSlope1)\n            );\n        }\n\n        currentLiquidityRate = getOverallBorrowRateInternal(\n            _totalBorrowsStable,\n            _totalBorrowsVariable,\n            currentVariableBorrowRate,\n            _averageStableBorrowRate\n        )\n            .rayMul(utilizationRate);\n\n    }\n\n    /**\n    * @dev calculates the overall borrow rate as the weighted average between the total variable borrows and total stable borrows.\n    * @param _totalBorrowsStable the total borrowed from the reserve a stable rate\n    * @param _totalBorrowsVariable the total borrowed from the reserve at a variable rate\n    * @param _currentVariableBorrowRate the current variable borrow rate\n    * @param _currentAverageStableBorrowRate the weighted average of all the stable rate borrows\n    * @return the weighted averaged borrow rate\n    **/\n    function getOverallBorrowRateInternal(\n        uint256 _totalBorrowsStable,\n        uint256 _totalBorrowsVariable,\n        uint256 _currentVariableBorrowRate,\n        uint256 _currentAverageStableBorrowRate\n    ) internal pure returns (uint256) {\n        uint256 totalBorrows = _totalBorrowsStable.add(_totalBorrowsVariable);\n\n        if (totalBorrows == 0) return 0;\n\n        uint256 weightedVariableRate = _totalBorrowsVariable.wadToRay().rayMul(\n            _currentVariableBorrowRate\n        );\n\n        uint256 weightedStableRate = _totalBorrowsStable.wadToRay().rayMul(\n            _currentAverageStableBorrowRate\n        );\n\n        uint256 overallBorrowRate = weightedVariableRate.add(weightedStableRate).rayDiv(\n            totalBorrows.wadToRay()\n        );\n\n        return overallBorrowRate;\n    }\n}\n",
  "sourcePath": "/Users/bibodeng/Programming/water_loan_core/contracts/lendingpool/DefaultStrategy.sol",
  "compiler": {
    "name": "solc",
    "version": "0.5.4+commit.d15a3125.mod.Emscripten.clang"
  },
  "schemaVersion": "2.0.1",
  "updatedAt": "2020-12-06T14:57:48.055Z"
}