{
  "contractName": "ERC20Migrator",
  "abi": [
    {
      "inputs": [
        {
          "name": "legacyToken",
          "type": "address"
        }
      ],
      "payable": false,
      "stateMutability": "nonpayable",
      "type": "constructor"
    },
    {
      "constant": true,
      "inputs": [],
      "name": "legacyToken",
      "outputs": [
        {
          "name": "",
          "type": "address"
        }
      ],
      "payable": false,
      "stateMutability": "view",
      "type": "function"
    },
    {
      "constant": true,
      "inputs": [],
      "name": "newToken",
      "outputs": [
        {
          "name": "",
          "type": "address"
        }
      ],
      "payable": false,
      "stateMutability": "view",
      "type": "function"
    },
    {
      "constant": false,
      "inputs": [
        {
          "name": "newToken_",
          "type": "address"
        }
      ],
      "name": "beginMigration",
      "outputs": [],
      "payable": false,
      "stateMutability": "nonpayable",
      "type": "function"
    },
    {
      "constant": false,
      "inputs": [
        {
          "name": "account",
          "type": "address"
        },
        {
          "name": "amount",
          "type": "uint256"
        }
      ],
      "name": "migrate",
      "outputs": [],
      "payable": false,
      "stateMutability": "nonpayable",
      "type": "function"
    },
    {
      "constant": false,
      "inputs": [
        {
          "name": "account",
          "type": "address"
        }
      ],
      "name": "migrateAll",
      "outputs": [],
      "payable": false,
      "stateMutability": "nonpayable",
      "type": "function"
    }
  ],
  "bytecode": "0x608060405234801561001057600080fd5b50d3801561001d57600080fd5b50d2801561002a57600080fd5b506040516020806109a78339810180604052602081101561004a57600080fd5b5051600160a060020a03811615156100ad576040517f08c379a000000000000000000000000000000000000000000000000000000000815260040180806020018281038252602f815260200180610978602f913960400191505060405180910390fd5b60008054600160a060020a03909216600160a060020a031990921691909117905561089b806100dd6000396000f3fe608060405234801561001057600080fd5b50d3801561001d57600080fd5b50d2801561002a57600080fd5b506004361061008d577c01000000000000000000000000000000000000000000000000000000006000350463104d2614811461009257806313155455146100ba5780635a8cadb1146100de578063ad68ebf714610104578063c42bd05a14610130575b600080fd5b6100b8600480360360208110156100a857600080fd5b5035600160a060020a0316610138565b005b6100c26102c7565b60408051600160a060020a039092168252519081900360200190f35b6100b8600480360360208110156100f457600080fd5b5035600160a060020a03166102d6565b6100b86004803603604081101561011a57600080fd5b50600160a060020a038135169060200135610425565b6100c2610528565b600154600160a060020a0316156101835760405160e560020a62461bcd0281526004018080602001828103825260288152602001806107a56028913960400191505060405180910390fd5b600160a060020a03811615156101cd5760405160e560020a62461bcd02815260040180806020018281038252602c81526020018061081a602c913960400191505060405180910390fd5b604080517faa271e1a0000000000000000000000000000000000000000000000000000000081523060048201529051600160a060020a0383169163aa271e1a916024808301926020929190829003018186803b15801561022c57600080fd5b505afa158015610240573d6000803e3d6000fd5b505050506040513d602081101561025657600080fd5b505115156102985760405160e560020a62461bcd0281526004018080602001828103825260298152602001806107cd6029913960400191505060405180910390fd5b6001805473ffffffffffffffffffffffffffffffffffffffff1916600160a060020a0392909216919091179055565b600054600160a060020a031690565b60008054604080517f70a08231000000000000000000000000000000000000000000000000000000008152600160a060020a038581166004830152915191909216916370a08231916024808301926020929190829003018186803b15801561033d57600080fd5b505afa158015610351573d6000803e3d6000fd5b505050506040513d602081101561036757600080fd5b505160008054604080517fdd62ed3e000000000000000000000000000000000000000000000000000000008152600160a060020a0387811660048301523060248301529151949550929391169163dd62ed3e916044808301926020929190829003018186803b1580156103d957600080fd5b505afa1580156103ed573d6000803e3d6000fd5b505050506040513d602081101561040357600080fd5b5051905060006104138383610537565b905061041f8482610425565b50505050565b600154600160a060020a031615156104715760405160e560020a62461bcd0281526004018080602001828103825260248152602001806107f66024913960400191505060405180910390fd5b60005461048f90600160a060020a031683308463ffffffff61054f16565b600154604080517f40c10f19000000000000000000000000000000000000000000000000000000008152600160a060020a03858116600483015260248201859052915191909216916340c10f199160448083019260209291908290030181600087803b1580156104fe57600080fd5b505af1158015610512573d6000803e3d6000fd5b505050506040513d602081101561041f57600080fd5b600154600160a060020a031690565b60008183106105465781610548565b825b9392505050565b60408051600160a060020a0385811660248301528416604482015260648082018490528251808303909101815260849091019091526020810180517bffffffffffffffffffffffffffffffffffffffffffffffffffffffff167f23b872dd0000000000000000000000000000000000000000000000000000000017905261041f9085906105e482600160a060020a031661079c565b151561063a576040805160e560020a62461bcd02815260206004820152601f60248201527f5361666545524332303a2063616c6c20746f206e6f6e2d636f6e747261637400604482015290519081900360640190fd5b6000606083600160a060020a0316836040518082805190602001908083835b602083106106785780518252601f199092019160209182019101610659565b6001836020036101000a0380198251168184511680821785525050505050509050019150506000604051808303816000865af19150503d80600081146106da576040519150601f19603f3d011682016040523d82523d6000602084013e6106df565b606091505b509150915081151561073b576040805160e560020a62461bcd02815260206004820181905260248201527f5361666545524332303a206c6f772d6c6576656c2063616c6c206661696c6564604482015290519081900360640190fd5b60008151111561041f5780806020019051602081101561075a57600080fd5b5051151561041f5760405160e560020a62461bcd02815260040180806020018281038252602a815260200180610846602a913960400191505060405180910390fd5b6000903b119056fe45524332304d69677261746f723a206d6967726174696f6e20616c7265616479207374617274656445524332304d69677261746f723a206e6f742061206d696e74657220666f72206e657720746f6b656e45524332304d69677261746f723a206d6967726174696f6e206e6f74207374617274656445524332304d69677261746f723a206e657720746f6b656e20697320746865207a65726f20616464726573735361666545524332303a204552433230206f7065726174696f6e20646964206e6f742073756363656564a165627a7a7230582087d0dae8ccde72fc85ad1a171de92c70d79c8a9d1930d58ab5b40e3857754edf002945524332304d69677261746f723a206c656761637920746f6b656e20697320746865207a65726f2061646472657373",
  "source": "pragma solidity ^0.5.0;\n\nimport \"../token/ERC20/IERC20.sol\";\nimport \"../token/ERC20/ERC20Mintable.sol\";\nimport \"../token/ERC20/SafeERC20.sol\";\nimport \"../math/Math.sol\";\n\n/**\n * @title ERC20Migrator\n * @dev This contract can be used to migrate an ERC20 token from one\n * contract to another, where each token holder has to opt-in to the migration.\n * To opt-in, users must approve for this contract the number of tokens they\n * want to migrate. Once the allowance is set up, anyone can trigger the\n * migration to the new token contract. In this way, token holders \"turn in\"\n * their old balance and will be minted an equal amount in the new token.\n * The new token contract must be mintable. For the precise interface refer to\n * OpenZeppelin's {ERC20Mintable}, but the only functions that are needed are\n * {MinterRole-isMinter} and {ERC20Mintable-mint}. The migrator will check\n * that it is a minter for the token.\n * The balance from the legacy token will be transferred to the migrator, as it\n * is migrated, and remain there forever.\n * Although this contract can be used in many different scenarios, the main\n * motivation was to provide a way to migrate ERC20 tokens into an upgradeable\n * version of it using ZeppelinOS. To read more about how this can be done\n * using this implementation, please follow the official documentation site of\n * ZeppelinOS: https://docs.zeppelinos.org/docs/erc20_onboarding.html\n *\n * Example of usage:\n * ```\n * const migrator = await ERC20Migrator.new(legacyToken.address);\n * await newToken.addMinter(migrator.address);\n * await migrator.beginMigration(newToken.address);\n * ```\n */\ncontract ERC20Migrator {\n    using SafeERC20 for IERC20;\n\n    /// Address of the old token contract\n    IERC20 private _legacyToken;\n\n    /// Address of the new token contract\n    ERC20Mintable private _newToken;\n\n    /**\n     * @param legacyToken address of the old token contract\n     */\n    constructor (IERC20 legacyToken) public {\n        require(address(legacyToken) != address(0), \"ERC20Migrator: legacy token is the zero address\");\n        _legacyToken = legacyToken;\n    }\n\n    /**\n     * @dev Returns the legacy token that is being migrated.\n     */\n    function legacyToken() public view returns (IERC20) {\n        return _legacyToken;\n    }\n\n    /**\n     * @dev Returns the new token to which we are migrating.\n     */\n    function newToken() public view returns (IERC20) {\n        return _newToken;\n    }\n\n    /**\n     * @dev Begins the migration by setting which is the new token that will be\n     * minted. This contract must be a minter for the new token.\n     * @param newToken_ the token that will be minted\n     */\n    function beginMigration(ERC20Mintable newToken_) public {\n        require(address(_newToken) == address(0), \"ERC20Migrator: migration already started\");\n        require(address(newToken_) != address(0), \"ERC20Migrator: new token is the zero address\");\n        //solhint-disable-next-line max-line-length\n        require(newToken_.isMinter(address(this)), \"ERC20Migrator: not a minter for new token\");\n\n        _newToken = newToken_;\n    }\n\n    /**\n     * @dev Transfers part of an account's balance in the old token to this\n     * contract, and mints the same amount of new tokens for that account.\n     * @param account whose tokens will be migrated\n     * @param amount amount of tokens to be migrated\n     */\n    function migrate(address account, uint256 amount) public {\n        require(address(_newToken) != address(0), \"ERC20Migrator: migration not started\");\n        _legacyToken.safeTransferFrom(account, address(this), amount);\n        _newToken.mint(account, amount);\n    }\n\n    /**\n     * @dev Transfers all of an account's allowed balance in the old token to\n     * this contract, and mints the same amount of new tokens for that account.\n     * @param account whose tokens will be migrated\n     */\n    function migrateAll(address account) public {\n        uint256 balance = _legacyToken.balanceOf(account);\n        uint256 allowance = _legacyToken.allowance(account, address(this));\n        uint256 amount = Math.min(balance, allowance);\n        migrate(account, amount);\n    }\n}\n",
  "sourcePath": "/Users/bibodeng/Programming/water_loan_core/contracts/libraries/openzeppelin-solidity/contracts/drafts/ERC20Migrator.sol",
  "compiler": {
    "name": "solc",
    "version": "0.5.4+commit.d15a3125.mod.Emscripten.clang"
  },
  "schemaVersion": "2.0.1",
  "updatedAt": "2020-11-19T10:56:46.755Z"
}