{
  "contractName": "ERC20Pausable",
  "abi": [
    {
      "constant": true,
      "inputs": [],
      "name": "totalSupply",
      "outputs": [
        {
          "name": "",
          "type": "uint256"
        }
      ],
      "payable": false,
      "stateMutability": "view",
      "type": "function"
    },
    {
      "constant": false,
      "inputs": [],
      "name": "unpause",
      "outputs": [],
      "payable": false,
      "stateMutability": "nonpayable",
      "type": "function"
    },
    {
      "constant": true,
      "inputs": [
        {
          "name": "account",
          "type": "address"
        }
      ],
      "name": "isPauser",
      "outputs": [
        {
          "name": "",
          "type": "bool"
        }
      ],
      "payable": false,
      "stateMutability": "view",
      "type": "function"
    },
    {
      "constant": true,
      "inputs": [],
      "name": "paused",
      "outputs": [
        {
          "name": "",
          "type": "bool"
        }
      ],
      "payable": false,
      "stateMutability": "view",
      "type": "function"
    },
    {
      "constant": false,
      "inputs": [],
      "name": "renouncePauser",
      "outputs": [],
      "payable": false,
      "stateMutability": "nonpayable",
      "type": "function"
    },
    {
      "constant": true,
      "inputs": [
        {
          "name": "account",
          "type": "address"
        }
      ],
      "name": "balanceOf",
      "outputs": [
        {
          "name": "",
          "type": "uint256"
        }
      ],
      "payable": false,
      "stateMutability": "view",
      "type": "function"
    },
    {
      "constant": false,
      "inputs": [
        {
          "name": "account",
          "type": "address"
        }
      ],
      "name": "addPauser",
      "outputs": [],
      "payable": false,
      "stateMutability": "nonpayable",
      "type": "function"
    },
    {
      "constant": false,
      "inputs": [],
      "name": "pause",
      "outputs": [],
      "payable": false,
      "stateMutability": "nonpayable",
      "type": "function"
    },
    {
      "constant": true,
      "inputs": [
        {
          "name": "owner",
          "type": "address"
        },
        {
          "name": "spender",
          "type": "address"
        }
      ],
      "name": "allowance",
      "outputs": [
        {
          "name": "",
          "type": "uint256"
        }
      ],
      "payable": false,
      "stateMutability": "view",
      "type": "function"
    },
    {
      "anonymous": false,
      "inputs": [
        {
          "indexed": false,
          "name": "account",
          "type": "address"
        }
      ],
      "name": "Paused",
      "type": "event"
    },
    {
      "anonymous": false,
      "inputs": [
        {
          "indexed": false,
          "name": "account",
          "type": "address"
        }
      ],
      "name": "Unpaused",
      "type": "event"
    },
    {
      "anonymous": false,
      "inputs": [
        {
          "indexed": true,
          "name": "account",
          "type": "address"
        }
      ],
      "name": "PauserAdded",
      "type": "event"
    },
    {
      "anonymous": false,
      "inputs": [
        {
          "indexed": true,
          "name": "account",
          "type": "address"
        }
      ],
      "name": "PauserRemoved",
      "type": "event"
    },
    {
      "anonymous": false,
      "inputs": [
        {
          "indexed": true,
          "name": "from",
          "type": "address"
        },
        {
          "indexed": true,
          "name": "to",
          "type": "address"
        },
        {
          "indexed": false,
          "name": "value",
          "type": "uint256"
        }
      ],
      "name": "Transfer",
      "type": "event"
    },
    {
      "anonymous": false,
      "inputs": [
        {
          "indexed": true,
          "name": "owner",
          "type": "address"
        },
        {
          "indexed": true,
          "name": "spender",
          "type": "address"
        },
        {
          "indexed": false,
          "name": "value",
          "type": "uint256"
        }
      ],
      "name": "Approval",
      "type": "event"
    },
    {
      "constant": false,
      "inputs": [
        {
          "name": "to",
          "type": "address"
        },
        {
          "name": "value",
          "type": "uint256"
        }
      ],
      "name": "transfer",
      "outputs": [
        {
          "name": "",
          "type": "bool"
        }
      ],
      "payable": false,
      "stateMutability": "nonpayable",
      "type": "function"
    },
    {
      "constant": false,
      "inputs": [
        {
          "name": "from",
          "type": "address"
        },
        {
          "name": "to",
          "type": "address"
        },
        {
          "name": "value",
          "type": "uint256"
        }
      ],
      "name": "transferFrom",
      "outputs": [
        {
          "name": "",
          "type": "bool"
        }
      ],
      "payable": false,
      "stateMutability": "nonpayable",
      "type": "function"
    },
    {
      "constant": false,
      "inputs": [
        {
          "name": "spender",
          "type": "address"
        },
        {
          "name": "value",
          "type": "uint256"
        }
      ],
      "name": "approve",
      "outputs": [
        {
          "name": "",
          "type": "bool"
        }
      ],
      "payable": false,
      "stateMutability": "nonpayable",
      "type": "function"
    },
    {
      "constant": false,
      "inputs": [
        {
          "name": "spender",
          "type": "address"
        },
        {
          "name": "addedValue",
          "type": "uint256"
        }
      ],
      "name": "increaseAllowance",
      "outputs": [
        {
          "name": "",
          "type": "bool"
        }
      ],
      "payable": false,
      "stateMutability": "nonpayable",
      "type": "function"
    },
    {
      "constant": false,
      "inputs": [
        {
          "name": "spender",
          "type": "address"
        },
        {
          "name": "subtractedValue",
          "type": "uint256"
        }
      ],
      "name": "decreaseAllowance",
      "outputs": [
        {
          "name": "",
          "type": "bool"
        }
      ],
      "payable": false,
      "stateMutability": "nonpayable",
      "type": "function"
    }
  ],
  "bytecode": "0x6080604052610026610018640100000000610035810204565b640100000000610039810204565b6004805460ff191690556101af565b3390565b610051600382640100000000610d9961008882021704565b604051600160a060020a038216907f6719d08c1888103bea251a4ed56406bd0c3e69723c8a1686e017e7bbe159b6f890600090a250565b61009b828264010000000061012c810204565b1561010757604080517f08c379a000000000000000000000000000000000000000000000000000000000815260206004820152601f60248201527f526f6c65733a206163636f756e7420616c72656164792068617320726f6c6500604482015290519081900360640190fd5b600160a060020a0316600090815260209190915260409020805460ff19166001179055565b6000600160a060020a038216151561018f576040517f08c379a000000000000000000000000000000000000000000000000000000000815260040180806020018281038252602281526020018061119b6022913960400191505060405180910390fd5b50600160a060020a03166000908152602091909152604090205460ff1690565b610fdd806101be6000396000f3fe608060405234801561001057600080fd5b50d3801561001d57600080fd5b50d2801561002a57600080fd5b5060043610610121576000357c0100000000000000000000000000000000000000000000000000000000900480636ef8d66d116100c35780638456cb591161009d5780638456cb591461026e578063a457c2d714610276578063a9059cbb146102a2578063dd62ed3e146102ce57610121565b80636ef8d66d1461021a57806370a082311461022257806382dc1ec41461024857610121565b806339509351116100ff57806339509351146101b65780633f4ba83a146101e257806346fbf68e146101ec5780635c975abb1461021257610121565b8063095ea7b31461012657806318160ddd1461016657806323b872dd14610180575b600080fd5b6101526004803603604081101561013c57600080fd5b50600160a060020a0381351690602001356102fc565b604080519115158252519081900360200190f35b61016e610359565b60408051918252519081900360200190f35b6101526004803603606081101561019657600080fd5b50600160a060020a0381358116916020810135909116906040013561035f565b610152600480360360408110156101cc57600080fd5b50600160a060020a0381351690602001356103be565b6101ea610414565b005b6101526004803603602081101561020257600080fd5b5035600160a060020a0316610510565b610152610529565b6101ea610532565b61016e6004803603602081101561023857600080fd5b5035600160a060020a0316610544565b6101ea6004803603602081101561025e57600080fd5b5035600160a060020a031661055f565b6101ea6105b6565b6101526004803603604081101561028c57600080fd5b50600160a060020a038135169060200135610680565b610152600480360360408110156102b857600080fd5b50600160a060020a0381351690602001356106d6565b61016e600480360360408110156102e457600080fd5b50600160a060020a038135811691602001351661072c565b60045460009060ff1615610348576040805160e560020a62461bcd0281526020600482015260106024820152600080516020610f49833981519152604482015290519081900360640190fd5b6103528383610757565b9392505050565b60025490565b60045460009060ff16156103ab576040805160e560020a62461bcd0281526020600482015260106024820152600080516020610f49833981519152604482015290519081900360640190fd5b6103b6848484610774565b949350505050565b60045460009060ff161561040a576040805160e560020a62461bcd0281526020600482015260106024820152600080516020610f49833981519152604482015290519081900360640190fd5b6103528383610802565b61042461041f610856565b610510565b15156104645760405160e560020a62461bcd028152600401808060200182810382526030815260200180610e416030913960400191505060405180910390fd5b60045460ff1615156104c0576040805160e560020a62461bcd02815260206004820152601460248201527f5061757361626c653a206e6f7420706175736564000000000000000000000000604482015290519081900360640190fd5b6004805460ff191690557f5db9ee0a495bf2e6ff9c91a7834c1ba4fdd244a5e8aa4e537bd38aeae4b073aa6104f3610856565b60408051600160a060020a039092168252519081900360200190a1565b600061052360038363ffffffff61085a16565b92915050565b60045460ff1690565b61054261053d610856565b6108c6565b565b600160a060020a031660009081526020819052604090205490565b61056a61041f610856565b15156105aa5760405160e560020a62461bcd028152600401808060200182810382526030815260200180610e416030913960400191505060405180910390fd5b6105b38161090e565b50565b6105c161041f610856565b15156106015760405160e560020a62461bcd028152600401808060200182810382526030815260200180610e416030913960400191505060405180910390fd5b60045460ff161561064a576040805160e560020a62461bcd0281526020600482015260106024820152600080516020610f49833981519152604482015290519081900360640190fd5b6004805460ff191660011790557f62e78cea01bee320cd4e420270b5ea74000d11b0c9f74754ebdbfc544b05a2586104f3610856565b60045460009060ff16156106cc576040805160e560020a62461bcd0281526020600482015260106024820152600080516020610f49833981519152604482015290519081900360640190fd5b6103528383610956565b60045460009060ff1615610722576040805160e560020a62461bcd0281526020600482015260106024820152600080516020610f49833981519152604482015290519081900360640190fd5b61035283836109c5565b600160a060020a03918216600090815260016020908152604080832093909416825291909152205490565b600061076b610764610856565b84846109d9565b50600192915050565b6000610781848484610acf565b6107f88461078d610856565b6107f38560606040519081016040528060288152602001610eda60289139600160a060020a038a166000908152600160205260408120906107cc610856565b600160a060020a03168152602081019190915260400160002054919063ffffffff610c3616565b6109d9565b5060019392505050565b600061076b61080f610856565b846107f38560016000610820610856565b600160a060020a03908116825260208083019390935260409182016000908120918c16815292529020549063ffffffff610cd016565b3390565b6000600160a060020a03821615156108a65760405160e560020a62461bcd028152600401808060200182810382526022815260200180610f026022913960400191505060405180910390fd5b50600160a060020a03166000908152602091909152604090205460ff1690565b6108d760038263ffffffff610d2d16565b604051600160a060020a038216907fcd265ebaf09df2871cc7bd4133404a235ba12eff2041bb89d9c714a2621c7c7e90600090a250565b61091f60038263ffffffff610d9916565b604051600160a060020a038216907f6719d08c1888103bea251a4ed56406bd0c3e69723c8a1686e017e7bbe159b6f890600090a250565b600061076b610963610856565b846107f38560606040519081016040528060258152602001610f8d602591396001600061098e610856565b600160a060020a03908116825260208083019390935260409182016000908120918d1681529252902054919063ffffffff610c3616565b600061076b6109d2610856565b8484610acf565b600160a060020a0383161515610a235760405160e560020a62461bcd028152600401808060200182810382526024815260200180610f696024913960400191505060405180910390fd5b600160a060020a0382161515610a6d5760405160e560020a62461bcd028152600401808060200182810382526022815260200180610e716022913960400191505060405180910390fd5b600160a060020a03808416600081815260016020908152604080832094871680845294825291829020859055815185815291517f8c5be1e5ebec7d5bd14f71427d1e84f3dd0314c0f7b2291e5b200ac8c7c3b9259281900390910190a3505050565b600160a060020a0383161515610b195760405160e560020a62461bcd028152600401808060200182810382526025815260200180610f246025913960400191505060405180910390fd5b600160a060020a0382161515610b635760405160e560020a62461bcd028152600401808060200182810382526023815260200180610e1e6023913960400191505060405180910390fd5b610ba78160606040519081016040528060268152602001610e9360269139600160a060020a038616600090815260208190526040902054919063ffffffff610c3616565b600160a060020a038085166000908152602081905260408082209390935590841681522054610bdc908263ffffffff610cd016565b600160a060020a038084166000818152602081815260409182902094909455805185815290519193928716927fddf252ad1be2c89b69c2b068fc378daa952ba7f163c4a11628f55a4df523b3ef92918290030190a3505050565b60008184841115610cc85760405160e560020a62461bcd0281526004018080602001828103825283818151815260200191508051906020019080838360005b83811015610c8d578181015183820152602001610c75565b50505050905090810190601f168015610cba5780820380516001836020036101000a031916815260200191505b509250505060405180910390fd5b505050900390565b600082820183811015610352576040805160e560020a62461bcd02815260206004820152601b60248201527f536166654d6174683a206164646974696f6e206f766572666c6f770000000000604482015290519081900360640190fd5b610d37828261085a565b1515610d775760405160e560020a62461bcd028152600401808060200182810382526021815260200180610eb96021913960400191505060405180910390fd5b600160a060020a0316600090815260209190915260409020805460ff19169055565b610da3828261085a565b15610df8576040805160e560020a62461bcd02815260206004820152601f60248201527f526f6c65733a206163636f756e7420616c72656164792068617320726f6c6500604482015290519081900360640190fd5b600160a060020a0316600090815260209190915260409020805460ff1916600117905556fe45524332303a207472616e7366657220746f20746865207a65726f2061646472657373506175736572526f6c653a2063616c6c657220646f6573206e6f742068617665207468652050617573657220726f6c6545524332303a20617070726f766520746f20746865207a65726f206164647265737345524332303a207472616e7366657220616d6f756e7420657863656564732062616c616e6365526f6c65733a206163636f756e7420646f6573206e6f74206861766520726f6c6545524332303a207472616e7366657220616d6f756e74206578636565647320616c6c6f77616e6365526f6c65733a206163636f756e7420697320746865207a65726f206164647265737345524332303a207472616e736665722066726f6d20746865207a65726f20616464726573735061757361626c653a207061757365640000000000000000000000000000000045524332303a20617070726f76652066726f6d20746865207a65726f206164647265737345524332303a2064656372656173656420616c6c6f77616e63652062656c6f77207a65726fa165627a7a723058208991451be53f5eb6cf0943f873b6131eb649e7e3246a0f5c9fdd89268ef22c8d0029526f6c65733a206163636f756e7420697320746865207a65726f2061646472657373",
  "source": "pragma solidity ^0.5.0;\n\nimport \"./ERC20.sol\";\nimport \"../../lifecycle/Pausable.sol\";\n\n/**\n * @title Pausable token\n * @dev ERC20 with pausable transfers and allowances.\n *\n * Useful if you want to stop trades until the end of a crowdsale, or have\n * an emergency switch for freezing all token transfers in the event of a large\n * bug.\n */\ncontract ERC20Pausable is ERC20, Pausable {\n    function transfer(address to, uint256 value) public whenNotPaused returns (bool) {\n        return super.transfer(to, value);\n    }\n\n    function transferFrom(address from, address to, uint256 value) public whenNotPaused returns (bool) {\n        return super.transferFrom(from, to, value);\n    }\n\n    function approve(address spender, uint256 value) public whenNotPaused returns (bool) {\n        return super.approve(spender, value);\n    }\n\n    function increaseAllowance(address spender, uint256 addedValue) public whenNotPaused returns (bool) {\n        return super.increaseAllowance(spender, addedValue);\n    }\n\n    function decreaseAllowance(address spender, uint256 subtractedValue) public whenNotPaused returns (bool) {\n        return super.decreaseAllowance(spender, subtractedValue);\n    }\n}\n",
  "sourcePath": "/Users/bibodeng/Programming/water_loan_core/contracts/libraries/openzeppelin-solidity/contracts/token/ERC20/ERC20Pausable.sol",
  "compiler": {
    "name": "solc",
    "version": "0.5.4+commit.d15a3125.mod.Emscripten.clang"
  },
  "schemaVersion": "2.0.1",
  "updatedAt": "2020-11-19T10:56:46.842Z"
}