{
  "contractName": "ERC20Capped",
  "abi": [
    {
      "constant": false,
      "inputs": [
        {
          "name": "spender",
          "type": "address"
        },
        {
          "name": "amount",
          "type": "uint256"
        }
      ],
      "name": "approve",
      "outputs": [
        {
          "name": "",
          "type": "bool"
        }
      ],
      "payable": false,
      "stateMutability": "nonpayable",
      "type": "function"
    },
    {
      "constant": true,
      "inputs": [],
      "name": "totalSupply",
      "outputs": [
        {
          "name": "",
          "type": "uint256"
        }
      ],
      "payable": false,
      "stateMutability": "view",
      "type": "function"
    },
    {
      "constant": false,
      "inputs": [
        {
          "name": "sender",
          "type": "address"
        },
        {
          "name": "recipient",
          "type": "address"
        },
        {
          "name": "amount",
          "type": "uint256"
        }
      ],
      "name": "transferFrom",
      "outputs": [
        {
          "name": "",
          "type": "bool"
        }
      ],
      "payable": false,
      "stateMutability": "nonpayable",
      "type": "function"
    },
    {
      "constant": false,
      "inputs": [
        {
          "name": "spender",
          "type": "address"
        },
        {
          "name": "addedValue",
          "type": "uint256"
        }
      ],
      "name": "increaseAllowance",
      "outputs": [
        {
          "name": "",
          "type": "bool"
        }
      ],
      "payable": false,
      "stateMutability": "nonpayable",
      "type": "function"
    },
    {
      "constant": false,
      "inputs": [
        {
          "name": "account",
          "type": "address"
        },
        {
          "name": "amount",
          "type": "uint256"
        }
      ],
      "name": "mint",
      "outputs": [
        {
          "name": "",
          "type": "bool"
        }
      ],
      "payable": false,
      "stateMutability": "nonpayable",
      "type": "function"
    },
    {
      "constant": true,
      "inputs": [
        {
          "name": "account",
          "type": "address"
        }
      ],
      "name": "balanceOf",
      "outputs": [
        {
          "name": "",
          "type": "uint256"
        }
      ],
      "payable": false,
      "stateMutability": "view",
      "type": "function"
    },
    {
      "constant": false,
      "inputs": [
        {
          "name": "account",
          "type": "address"
        }
      ],
      "name": "addMinter",
      "outputs": [],
      "payable": false,
      "stateMutability": "nonpayable",
      "type": "function"
    },
    {
      "constant": false,
      "inputs": [],
      "name": "renounceMinter",
      "outputs": [],
      "payable": false,
      "stateMutability": "nonpayable",
      "type": "function"
    },
    {
      "constant": false,
      "inputs": [
        {
          "name": "spender",
          "type": "address"
        },
        {
          "name": "subtractedValue",
          "type": "uint256"
        }
      ],
      "name": "decreaseAllowance",
      "outputs": [
        {
          "name": "",
          "type": "bool"
        }
      ],
      "payable": false,
      "stateMutability": "nonpayable",
      "type": "function"
    },
    {
      "constant": false,
      "inputs": [
        {
          "name": "recipient",
          "type": "address"
        },
        {
          "name": "amount",
          "type": "uint256"
        }
      ],
      "name": "transfer",
      "outputs": [
        {
          "name": "",
          "type": "bool"
        }
      ],
      "payable": false,
      "stateMutability": "nonpayable",
      "type": "function"
    },
    {
      "constant": true,
      "inputs": [
        {
          "name": "account",
          "type": "address"
        }
      ],
      "name": "isMinter",
      "outputs": [
        {
          "name": "",
          "type": "bool"
        }
      ],
      "payable": false,
      "stateMutability": "view",
      "type": "function"
    },
    {
      "constant": true,
      "inputs": [
        {
          "name": "owner",
          "type": "address"
        },
        {
          "name": "spender",
          "type": "address"
        }
      ],
      "name": "allowance",
      "outputs": [
        {
          "name": "",
          "type": "uint256"
        }
      ],
      "payable": false,
      "stateMutability": "view",
      "type": "function"
    },
    {
      "inputs": [
        {
          "name": "cap",
          "type": "uint256"
        }
      ],
      "payable": false,
      "stateMutability": "nonpayable",
      "type": "constructor"
    },
    {
      "anonymous": false,
      "inputs": [
        {
          "indexed": true,
          "name": "account",
          "type": "address"
        }
      ],
      "name": "MinterAdded",
      "type": "event"
    },
    {
      "anonymous": false,
      "inputs": [
        {
          "indexed": true,
          "name": "account",
          "type": "address"
        }
      ],
      "name": "MinterRemoved",
      "type": "event"
    },
    {
      "anonymous": false,
      "inputs": [
        {
          "indexed": true,
          "name": "from",
          "type": "address"
        },
        {
          "indexed": true,
          "name": "to",
          "type": "address"
        },
        {
          "indexed": false,
          "name": "value",
          "type": "uint256"
        }
      ],
      "name": "Transfer",
      "type": "event"
    },
    {
      "anonymous": false,
      "inputs": [
        {
          "indexed": true,
          "name": "owner",
          "type": "address"
        },
        {
          "indexed": true,
          "name": "spender",
          "type": "address"
        },
        {
          "indexed": false,
          "name": "value",
          "type": "uint256"
        }
      ],
      "name": "Approval",
      "type": "event"
    },
    {
      "constant": true,
      "inputs": [],
      "name": "cap",
      "outputs": [
        {
          "name": "",
          "type": "uint256"
        }
      ],
      "payable": false,
      "stateMutability": "view",
      "type": "function"
    }
  ],
  "bytecode": "0x608060405234801561001057600080fd5b50d3801561001d57600080fd5b50d2801561002a57600080fd5b5060405160208061109e8339810180604052602081101561004a57600080fd5b505161006e6100606401000000006100e5810204565b6401000000006100e9810204565b600081116100dd57604080517f08c379a000000000000000000000000000000000000000000000000000000000815260206004820152601560248201527f45524332304361707065643a2063617020697320300000000000000000000000604482015290519081900360640190fd5b60045561025f565b3390565b610101600382640100000000610b7e61013882021704565b604051600160a060020a038216907f6ae172837ea30b801fbfcdd4108aa1d5bf8ff775444fd70256b44e6bf3dfc3f690600090a250565b61014b82826401000000006101dc810204565b156101b757604080517f08c379a000000000000000000000000000000000000000000000000000000000815260206004820152601f60248201527f526f6c65733a206163636f756e7420616c72656164792068617320726f6c6500604482015290519081900360640190fd5b600160a060020a0316600090815260209190915260409020805460ff19166001179055565b6000600160a060020a038216151561023f576040517f08c379a000000000000000000000000000000000000000000000000000000000815260040180806020018281038252602281526020018061107c6022913960400191505060405180910390fd5b50600160a060020a03166000908152602091909152604090205460ff1690565b610e0e8061026e6000396000f3fe608060405234801561001057600080fd5b50d3801561001d57600080fd5b50d2801561002a57600080fd5b5060043610610106576000357c01000000000000000000000000000000000000000000000000000000009004806370a08231116100c3578063a457c2d71161009d578063a457c2d714610251578063a9059cbb1461027d578063aa271e1a146102a9578063dd62ed3e146102cf57610106565b806370a08231146101fb578063983b2d5614610221578063986502751461024957610106565b8063095ea7b31461010b57806318160ddd1461014b57806323b872dd14610165578063355274ea1461019b57806339509351146101a357806340c10f19146101cf575b600080fd5b6101376004803603604081101561012157600080fd5b50600160a060020a0381351690602001356102fd565b604080519115158252519081900360200190f35b61015361031a565b60408051918252519081900360200190f35b6101376004803603606081101561017b57600080fd5b50600160a060020a03813581169160208101359091169060400135610320565b6101536103ae565b610137600480360360408110156101b957600080fd5b50600160a060020a0381351690602001356103b4565b610137600480360360408110156101e557600080fd5b50600160a060020a038135169060200135610408565b6101536004803603602081101561021157600080fd5b5035600160a060020a0316610464565b6102476004803603602081101561023757600080fd5b5035600160a060020a031661047f565b005b6102476104d6565b6101376004803603604081101561026757600080fd5b50600160a060020a0381351690602001356104e8565b6101376004803603604081101561029357600080fd5b50600160a060020a038135169060200135610557565b610137600480360360208110156102bf57600080fd5b5035600160a060020a031661056b565b610153600480360360408110156102e557600080fd5b50600160a060020a0381358116916020013516610584565b600061031161030a6105af565b84846105b3565b50600192915050565b60025490565b600061032d8484846106a9565b6103a4846103396105af565b61039f8560606040519081016040528060288152602001610d2b60289139600160a060020a038a166000908152600160205260408120906103786105af565b600160a060020a03168152602081019190915260400160002054919063ffffffff61081016565b6105b3565b5060019392505050565b60045490565b60006103116103c16105af565b8461039f85600160006103d26105af565b600160a060020a03908116825260208083019390935260409182016000908120918c16815292529020549063ffffffff6108aa16565b600061041a6104156105af565b61056b565b151561045a5760405160e560020a62461bcd028152600401808060200182810382526030815260200180610cda6030913960400191505060405180910390fd5b610311838361090e565b600160a060020a031660009081526020819052604090205490565b61048a6104156105af565b15156104ca5760405160e560020a62461bcd028152600401808060200182810382526030815260200180610cda6030913960400191505060405180910390fd5b6104d38161098d565b50565b6104e66104e16105af565b6109d5565b565b60006103116104f56105af565b8461039f8560606040519081016040528060258152602001610dbe60259139600160006105206105af565b600160a060020a03908116825260208083019390935260409182016000908120918d1681529252902054919063ffffffff61081016565b60006103116105646105af565b84846106a9565b600061057e60038363ffffffff610a1d16565b92915050565b600160a060020a03918216600090815260016020908152604080832093909416825291909152205490565b3390565b600160a060020a03831615156105fd5760405160e560020a62461bcd028152600401808060200182810382526024815260200180610d9a6024913960400191505060405180910390fd5b600160a060020a03821615156106475760405160e560020a62461bcd028152600401808060200182810382526022815260200180610c926022913960400191505060405180910390fd5b600160a060020a03808416600081815260016020908152604080832094871680845294825291829020859055815185815291517f8c5be1e5ebec7d5bd14f71427d1e84f3dd0314c0f7b2291e5b200ac8c7c3b9259281900390910190a3505050565b600160a060020a03831615156106f35760405160e560020a62461bcd028152600401808060200182810382526025815260200180610d756025913960400191505060405180910390fd5b600160a060020a038216151561073d5760405160e560020a62461bcd028152600401808060200182810382526023815260200180610c6f6023913960400191505060405180910390fd5b6107818160606040519081016040528060268152602001610cb460269139600160a060020a038616600090815260208190526040902054919063ffffffff61081016565b600160a060020a0380851660009081526020819052604080822093909355908416815220546107b6908263ffffffff6108aa16565b600160a060020a038084166000818152602081815260409182902094909455805185815290519193928716927fddf252ad1be2c89b69c2b068fc378daa952ba7f163c4a11628f55a4df523b3ef92918290030190a3505050565b600081848411156108a25760405160e560020a62461bcd0281526004018080602001828103825283818151815260200191508051906020019080838360005b8381101561086757818101518382015260200161084f565b50505050905090810190601f1680156108945780820380516001836020036101000a031916815260200191505b509250505060405180910390fd5b505050900390565b600082820183811015610907576040805160e560020a62461bcd02815260206004820152601b60248201527f536166654d6174683a206164646974696f6e206f766572666c6f770000000000604482015290519081900360640190fd5b9392505050565b6004546109298261091d61031a565b9063ffffffff6108aa16565b111561097f576040805160e560020a62461bcd02815260206004820152601960248201527f45524332304361707065643a2063617020657863656564656400000000000000604482015290519081900360640190fd5b6109898282610a89565b5050565b61099e60038263ffffffff610b7e16565b604051600160a060020a038216907f6ae172837ea30b801fbfcdd4108aa1d5bf8ff775444fd70256b44e6bf3dfc3f690600090a250565b6109e660038263ffffffff610c0216565b604051600160a060020a038216907fe94479a9f7e1952cc78f2d6baab678adc1b772d936c6583def489e524cb6669290600090a250565b6000600160a060020a0382161515610a695760405160e560020a62461bcd028152600401808060200182810382526022815260200180610d536022913960400191505060405180910390fd5b50600160a060020a03166000908152602091909152604090205460ff1690565b600160a060020a0382161515610ae9576040805160e560020a62461bcd02815260206004820152601f60248201527f45524332303a206d696e7420746f20746865207a65726f206164647265737300604482015290519081900360640190fd5b600254610afc908263ffffffff6108aa16565b600255600160a060020a038216600090815260208190526040902054610b28908263ffffffff6108aa16565b600160a060020a0383166000818152602081815260408083209490945583518581529351929391927fddf252ad1be2c89b69c2b068fc378daa952ba7f163c4a11628f55a4df523b3ef9281900390910190a35050565b610b888282610a1d565b15610bdd576040805160e560020a62461bcd02815260206004820152601f60248201527f526f6c65733a206163636f756e7420616c72656164792068617320726f6c6500604482015290519081900360640190fd5b600160a060020a0316600090815260209190915260409020805460ff19166001179055565b610c0c8282610a1d565b1515610c4c5760405160e560020a62461bcd028152600401808060200182810382526021815260200180610d0a6021913960400191505060405180910390fd5b600160a060020a0316600090815260209190915260409020805460ff1916905556fe45524332303a207472616e7366657220746f20746865207a65726f206164647265737345524332303a20617070726f766520746f20746865207a65726f206164647265737345524332303a207472616e7366657220616d6f756e7420657863656564732062616c616e63654d696e746572526f6c653a2063616c6c657220646f6573206e6f74206861766520746865204d696e74657220726f6c65526f6c65733a206163636f756e7420646f6573206e6f74206861766520726f6c6545524332303a207472616e7366657220616d6f756e74206578636565647320616c6c6f77616e6365526f6c65733a206163636f756e7420697320746865207a65726f206164647265737345524332303a207472616e736665722066726f6d20746865207a65726f206164647265737345524332303a20617070726f76652066726f6d20746865207a65726f206164647265737345524332303a2064656372656173656420616c6c6f77616e63652062656c6f77207a65726fa165627a7a723058202a5fa35aa0630cefabf6d3d2135fd54e5367df03a06e5ace01ae6949f55e6a1c0029526f6c65733a206163636f756e7420697320746865207a65726f2061646472657373",
  "source": "pragma solidity ^0.5.0;\n\nimport \"./ERC20Mintable.sol\";\n\n/**\n * @dev Extension of {ERC20Mintable} that adds a cap to the supply of tokens.\n */\ncontract ERC20Capped is ERC20Mintable {\n    uint256 private _cap;\n\n    /**\n     * @dev Sets the value of the `cap`. This value is immutable, it can only be\n     * set once during construction.\n     */\n    constructor (uint256 cap) public {\n        require(cap > 0, \"ERC20Capped: cap is 0\");\n        _cap = cap;\n    }\n\n    /**\n     * @dev Returns the cap on the token's total supply.\n     */\n    function cap() public view returns (uint256) {\n        return _cap;\n    }\n\n    /**\n     * @dev See {ERC20Mintable-mint}.\n     *\n     * Requirements:\n     *\n     * - `value` must not cause the total supply to go over the cap.\n     */\n    function _mint(address account, uint256 value) internal {\n        require(totalSupply().add(value) <= _cap, \"ERC20Capped: cap exceeded\");\n        super._mint(account, value);\n    }\n}\n",
  "sourcePath": "/Users/bibodeng/Programming/water_loan_core/contracts/libraries/openzeppelin-solidity/contracts/token/ERC20/ERC20Capped.sol",
  "compiler": {
    "name": "solc",
    "version": "0.5.4+commit.d15a3125.mod.Emscripten.clang"
  },
  "schemaVersion": "2.0.1",
  "updatedAt": "2020-11-19T10:56:46.805Z"
}