{
  "contractName": "ERC20Snapshot",
  "abi": [
    {
      "constant": false,
      "inputs": [
        {
          "name": "spender",
          "type": "address"
        },
        {
          "name": "amount",
          "type": "uint256"
        }
      ],
      "name": "approve",
      "outputs": [
        {
          "name": "",
          "type": "bool"
        }
      ],
      "payable": false,
      "stateMutability": "nonpayable",
      "type": "function"
    },
    {
      "constant": true,
      "inputs": [],
      "name": "totalSupply",
      "outputs": [
        {
          "name": "",
          "type": "uint256"
        }
      ],
      "payable": false,
      "stateMutability": "view",
      "type": "function"
    },
    {
      "constant": false,
      "inputs": [
        {
          "name": "sender",
          "type": "address"
        },
        {
          "name": "recipient",
          "type": "address"
        },
        {
          "name": "amount",
          "type": "uint256"
        }
      ],
      "name": "transferFrom",
      "outputs": [
        {
          "name": "",
          "type": "bool"
        }
      ],
      "payable": false,
      "stateMutability": "nonpayable",
      "type": "function"
    },
    {
      "constant": false,
      "inputs": [
        {
          "name": "spender",
          "type": "address"
        },
        {
          "name": "addedValue",
          "type": "uint256"
        }
      ],
      "name": "increaseAllowance",
      "outputs": [
        {
          "name": "",
          "type": "bool"
        }
      ],
      "payable": false,
      "stateMutability": "nonpayable",
      "type": "function"
    },
    {
      "constant": true,
      "inputs": [
        {
          "name": "account",
          "type": "address"
        }
      ],
      "name": "balanceOf",
      "outputs": [
        {
          "name": "",
          "type": "uint256"
        }
      ],
      "payable": false,
      "stateMutability": "view",
      "type": "function"
    },
    {
      "constant": false,
      "inputs": [
        {
          "name": "spender",
          "type": "address"
        },
        {
          "name": "subtractedValue",
          "type": "uint256"
        }
      ],
      "name": "decreaseAllowance",
      "outputs": [
        {
          "name": "",
          "type": "bool"
        }
      ],
      "payable": false,
      "stateMutability": "nonpayable",
      "type": "function"
    },
    {
      "constant": false,
      "inputs": [
        {
          "name": "recipient",
          "type": "address"
        },
        {
          "name": "amount",
          "type": "uint256"
        }
      ],
      "name": "transfer",
      "outputs": [
        {
          "name": "",
          "type": "bool"
        }
      ],
      "payable": false,
      "stateMutability": "nonpayable",
      "type": "function"
    },
    {
      "constant": true,
      "inputs": [
        {
          "name": "owner",
          "type": "address"
        },
        {
          "name": "spender",
          "type": "address"
        }
      ],
      "name": "allowance",
      "outputs": [
        {
          "name": "",
          "type": "uint256"
        }
      ],
      "payable": false,
      "stateMutability": "view",
      "type": "function"
    },
    {
      "anonymous": false,
      "inputs": [
        {
          "indexed": false,
          "name": "id",
          "type": "uint256"
        }
      ],
      "name": "Snapshot",
      "type": "event"
    },
    {
      "anonymous": false,
      "inputs": [
        {
          "indexed": true,
          "name": "from",
          "type": "address"
        },
        {
          "indexed": true,
          "name": "to",
          "type": "address"
        },
        {
          "indexed": false,
          "name": "value",
          "type": "uint256"
        }
      ],
      "name": "Transfer",
      "type": "event"
    },
    {
      "anonymous": false,
      "inputs": [
        {
          "indexed": true,
          "name": "owner",
          "type": "address"
        },
        {
          "indexed": true,
          "name": "spender",
          "type": "address"
        },
        {
          "indexed": false,
          "name": "value",
          "type": "uint256"
        }
      ],
      "name": "Approval",
      "type": "event"
    },
    {
      "constant": false,
      "inputs": [],
      "name": "snapshot",
      "outputs": [
        {
          "name": "",
          "type": "uint256"
        }
      ],
      "payable": false,
      "stateMutability": "nonpayable",
      "type": "function"
    },
    {
      "constant": true,
      "inputs": [
        {
          "name": "account",
          "type": "address"
        },
        {
          "name": "snapshotId",
          "type": "uint256"
        }
      ],
      "name": "balanceOfAt",
      "outputs": [
        {
          "name": "",
          "type": "uint256"
        }
      ],
      "payable": false,
      "stateMutability": "view",
      "type": "function"
    },
    {
      "constant": true,
      "inputs": [
        {
          "name": "snapshotId",
          "type": "uint256"
        }
      ],
      "name": "totalSupplyAt",
      "outputs": [
        {
          "name": "",
          "type": "uint256"
        }
      ],
      "payable": false,
      "stateMutability": "view",
      "type": "function"
    }
  ],
  "bytecode": "0x6080604052610c7e806100136000396000f3fe608060405234801561001057600080fd5b50d3801561001d57600080fd5b50d2801561002a57600080fd5b50600436106100e0576000357c01000000000000000000000000000000000000000000000000000000009004806370a08231116100a857806370a08231146101cd5780639711715a146101f3578063981b24d0146101fb578063a457c2d714610218578063a9059cbb14610244578063dd62ed3e14610270576100e0565b8063095ea7b3146100e557806318160ddd1461012557806323b872dd1461013f57806339509351146101755780634ee2cd7e146101a1575b600080fd5b610111600480360360408110156100fb57600080fd5b50600160a060020a03813516906020013561029e565b604080519115158252519081900360200190f35b61012d6102bc565b60408051918252519081900360200190f35b6101116004803603606081101561015557600080fd5b50600160a060020a038135811691602081013590911690604001356102c2565b6101116004803603604081101561018b57600080fd5b50600160a060020a038135169060200135610350565b61012d600480360360408110156101b757600080fd5b50600160a060020a0381351690602001356103a4565b61012d600480360360208110156101e357600080fd5b5035600160a060020a03166103ed565b61012d61040c565b61012d6004803603602081101561021157600080fd5b5035610460565b6101116004803603604081101561022e57600080fd5b50600160a060020a038135169060200135610490565b6101116004803603604081101561025a57600080fd5b50600160a060020a0381351690602001356104ff565b61012d6004803603604081101561028657600080fd5b50600160a060020a0381358116916020013516610513565b60006102b26102ab61053e565b8484610542565b5060015b92915050565b60025490565b60006102cf848484610638565b610346846102db61053e565b6103418560606040519081016040528060288152602001610bbd60289139600160a060020a038a1660009081526001602052604081209061031a61053e565b600160a060020a03168152602081019190915260400160002054919063ffffffff61065a16565b610542565b5060019392505050565b60006102b261035d61053e565b84610341856001600061036e61053e565b600160a060020a03908116825260208083019390935260409182016000908120918c16815292529020549063ffffffff6106f416565b600160a060020a0382166000908152600360205260408120819081906103cb908590610758565b91509150816103e2576103dd856103ed565b6103e4565b805b95945050505050565b600160a060020a0381166000908152602081905260409020545b919050565b60006104186006610867565b60006104246006610870565b6040805182815290519192507f8030e83b04d87bef53480e26263266d6ca66863aa8506aca6f2559d18aa1cb67919081900360200190a1905090565b6000806000610470846004610758565b9150915081610486576104816102bc565b610488565b805b949350505050565b60006102b261049d61053e565b846103418560606040519081016040528060258152602001610c2e60259139600160006104c861053e565b600160a060020a03908116825260208083019390935260409182016000908120918d1681529252902054919063ffffffff61065a16565b60006102b261050c61053e565b8484610638565b600160a060020a03918216600090815260016020908152604080832093909416825291909152205490565b3390565b600160a060020a038316151561058c5760405160e560020a62461bcd028152600401808060200182810382526024815260200180610c0a6024913960400191505060405180910390fd5b600160a060020a03821615156105d65760405160e560020a62461bcd028152600401808060200182810382526022815260200180610b756022913960400191505060405180910390fd5b600160a060020a03808416600081815260016020908152604080832094871680845294825291829020859055815185815291517f8c5be1e5ebec7d5bd14f71427d1e84f3dd0314c0f7b2291e5b200ac8c7c3b9259281900390910190a3505050565b61064183610874565b61064a82610874565b6106558383836108a1565b505050565b600081848411156106ec5760405160e560020a62461bcd0281526004018080602001828103825283818151815260200191508051906020019080838360005b838110156106b1578181015183820152602001610699565b50505050905090810190601f1680156106de5780820380516001836020036101000a031916815260200191505b509250505060405180910390fd5b505050900390565b600082820183811015610751576040805160e560020a62461bcd02815260206004820152601b60248201527f536166654d6174683a206164646974696f6e206f766572666c6f770000000000604482015290519081900360640190fd5b9392505050565b6000808084116107b2576040805160e560020a62461bcd02815260206004820152601660248201527f4552433230536e617073686f743a206964206973203000000000000000000000604482015290519081900360640190fd5b6107bc6006610870565b841115610813576040805160e560020a62461bcd02815260206004820152601d60248201527f4552433230536e617073686f743a206e6f6e6578697374656e74206964000000604482015290519081900360640190fd5b6000610825848663ffffffff610a0816565b845490915081141561083e575060009150819050610860565b600184810180548390811061084f57fe5b906000526020600020015492509250505b9250929050565b80546001019055565b5490565b600160a060020a038116600090815260036020526040902061089e90610899836103ed565b610aaf565b50565b600160a060020a03831615156108eb5760405160e560020a62461bcd028152600401808060200182810382526025815260200180610be56025913960400191505060405180910390fd5b600160a060020a03821615156109355760405160e560020a62461bcd028152600401808060200182810382526023815260200180610b526023913960400191505060405180910390fd5b6109798160606040519081016040528060268152602001610b9760269139600160a060020a038616600090815260208190526040902054919063ffffffff61065a16565b600160a060020a0380851660009081526020819052604080822093909355908416815220546109ae908263ffffffff6106f416565b600160a060020a038084166000818152602081815260409182902094909455805185815290519193928716927fddf252ad1be2c89b69c2b068fc378daa952ba7f163c4a11628f55a4df523b3ef92918290030190a3505050565b81546000901515610a1b575060006102b6565b82546000905b80821015610a6c576000610a358383610afb565b9050848682815481101515610a4657fe5b90600052602060002001541115610a5f57809150610a66565b8060010192505b50610a21565b600082118015610a965750838560018403815481101515610a8957fe5b9060005260206000200154145b15610aa757506000190190506102b6565b5090506102b6565b6000610abb6006610870565b905080610ac784610b1a565b1015610655578254600180820185556000858152602080822090930193909355938401805494850181558252902090910155565b6000600260018481169084160104600283046002850401019392505050565b80546000901515610b2d57506000610407565b815482906000198101908110610b3f57fe5b9060005260206000200154905061040756fe45524332303a207472616e7366657220746f20746865207a65726f206164647265737345524332303a20617070726f766520746f20746865207a65726f206164647265737345524332303a207472616e7366657220616d6f756e7420657863656564732062616c616e636545524332303a207472616e7366657220616d6f756e74206578636565647320616c6c6f77616e636545524332303a207472616e736665722066726f6d20746865207a65726f206164647265737345524332303a20617070726f76652066726f6d20746865207a65726f206164647265737345524332303a2064656372656173656420616c6c6f77616e63652062656c6f77207a65726fa165627a7a72305820094de0cf80545e2f9f0dc319d4282aebfbab58b22637867e8aa24c2e0bb5feef0029",
  "source": "pragma solidity ^0.5.0;\n\nimport \"../math/SafeMath.sol\";\nimport \"../utils/Arrays.sol\";\nimport \"../drafts/Counters.sol\";\nimport \"../token/ERC20/ERC20.sol\";\n\n/**\n * @title ERC20 token with snapshots.\n * @dev Inspired by Jordi Baylina's\n * https://github.com/Giveth/minimd/blob/ea04d950eea153a04c51fa510b068b9dded390cb/contracts/MiniMeToken.sol[MiniMeToken]\n * to record historical balances.\n *\n * When a snapshot is made, the balances and total supply at the time of the snapshot are recorded for later\n * access.\n *\n * To make a snapshot, call the {snapshot} function, which will emit the {Snapshot} event and return a snapshot id.\n * To get the total supply from a snapshot, call the function {totalSupplyAt} with the snapshot id.\n * To get the balance of an account from a snapshot, call the {balanceOfAt} function with the snapshot id and the\n * account address.\n * @author Validity Labs AG <info@validitylabs.org>\n */\ncontract ERC20Snapshot is ERC20 {\n    using SafeMath for uint256;\n    using Arrays for uint256[];\n    using Counters for Counters.Counter;\n\n    // Snapshotted values have arrays of ids and the value corresponding to that id. These could be an array of a\n    // Snapshot struct, but that would impede usage of functions that work on an array.\n    struct Snapshots {\n        uint256[] ids;\n        uint256[] values;\n    }\n\n    mapping (address => Snapshots) private _accountBalanceSnapshots;\n    Snapshots private _totalSupplySnapshots;\n\n    // Snapshot ids increase monotonically, with the first value being 1. An id of 0 is invalid.\n    Counters.Counter private _currentSnapshotId;\n\n    event Snapshot(uint256 id);\n\n    // Creates a new snapshot id. Balances are only stored in snapshots on demand: unless a snapshot was taken, a\n    // balance change will not be recorded. This means the extra added cost of storing snapshotted balances is only paid\n    // when required, but is also flexible enough that it allows for e.g. daily snapshots.\n    function snapshot() public returns (uint256) {\n        _currentSnapshotId.increment();\n\n        uint256 currentId = _currentSnapshotId.current();\n        emit Snapshot(currentId);\n        return currentId;\n    }\n\n    function balanceOfAt(address account, uint256 snapshotId) public view returns (uint256) {\n        (bool snapshotted, uint256 value) = _valueAt(snapshotId, _accountBalanceSnapshots[account]);\n\n        return snapshotted ? value : balanceOf(account);\n    }\n\n    function totalSupplyAt(uint256 snapshotId) public view returns(uint256) {\n        (bool snapshotted, uint256 value) = _valueAt(snapshotId, _totalSupplySnapshots);\n\n        return snapshotted ? value : totalSupply();\n    }\n\n    // _transfer, _mint and _burn are the only functions where the balances are modified, so it is there that the\n    // snapshots are updated. Note that the update happens _before_ the balance change, with the pre-modified value.\n    // The same is true for the total supply and _mint and _burn.\n    function _transfer(address from, address to, uint256 value) internal {\n        _updateAccountSnapshot(from);\n        _updateAccountSnapshot(to);\n\n        super._transfer(from, to, value);\n    }\n\n    function _mint(address account, uint256 value) internal {\n        _updateAccountSnapshot(account);\n        _updateTotalSupplySnapshot();\n\n        super._mint(account, value);\n    }\n\n    function _burn(address account, uint256 value) internal {\n        _updateAccountSnapshot(account);\n        _updateTotalSupplySnapshot();\n\n        super._burn(account, value);\n    }\n\n    // When a valid snapshot is queried, there are three possibilities:\n    //  a) The queried value was not modified after the snapshot was taken. Therefore, a snapshot entry was never\n    //  created for this id, and all stored snapshot ids are smaller than the requested one. The value that corresponds\n    //  to this id is the current one.\n    //  b) The queried value was modified after the snapshot was taken. Therefore, there will be an entry with the\n    //  requested id, and its value is the one to return.\n    //  c) More snapshots were created after the requested one, and the queried value was later modified. There will be\n    //  no entry for the requested id: the value that corresponds to it is that of the smallest snapshot id that is\n    //  larger than the requested one.\n    //\n    // In summary, we need to find an element in an array, returning the index of the smallest value that is larger if\n    // it is not found, unless said value doesn't exist (e.g. when all values are smaller). Arrays.findUpperBound does\n    // exactly this.\n    function _valueAt(uint256 snapshotId, Snapshots storage snapshots)\n        private view returns (bool, uint256)\n    {\n        require(snapshotId > 0, \"ERC20Snapshot: id is 0\");\n        // solhint-disable-next-line max-line-length\n        require(snapshotId <= _currentSnapshotId.current(), \"ERC20Snapshot: nonexistent id\");\n\n        uint256 index = snapshots.ids.findUpperBound(snapshotId);\n\n        if (index == snapshots.ids.length) {\n            return (false, 0);\n        } else {\n            return (true, snapshots.values[index]);\n        }\n    }\n\n    function _updateAccountSnapshot(address account) private {\n        _updateSnapshot(_accountBalanceSnapshots[account], balanceOf(account));\n    }\n\n    function _updateTotalSupplySnapshot() private {\n        _updateSnapshot(_totalSupplySnapshots, totalSupply());\n    }\n\n    function _updateSnapshot(Snapshots storage snapshots, uint256 currentValue) private {\n        uint256 currentId = _currentSnapshotId.current();\n        if (_lastSnapshotId(snapshots.ids) < currentId) {\n            snapshots.ids.push(currentId);\n            snapshots.values.push(currentValue);\n        }\n    }\n\n    function _lastSnapshotId(uint256[] storage ids) private view returns (uint256) {\n        if (ids.length == 0) {\n            return 0;\n        } else {\n            return ids[ids.length - 1];\n        }\n    }\n}\n",
  "sourcePath": "/Users/bibodeng/Programming/water_loan_core/contracts/libraries/openzeppelin-solidity/contracts/drafts/ERC20Snapshot.sol",
  "compiler": {
    "name": "solc",
    "version": "0.5.4+commit.d15a3125.mod.Emscripten.clang"
  },
  "schemaVersion": "2.0.1",
  "updatedAt": "2020-11-19T10:56:46.752Z"
}