{
  "contractName": "ERC721Mintable",
  "abi": [
    {
      "constant": true,
      "inputs": [
        {
          "name": "interfaceId",
          "type": "bytes4"
        }
      ],
      "name": "supportsInterface",
      "outputs": [
        {
          "name": "",
          "type": "bool"
        }
      ],
      "payable": false,
      "stateMutability": "view",
      "type": "function"
    },
    {
      "constant": true,
      "inputs": [
        {
          "name": "tokenId",
          "type": "uint256"
        }
      ],
      "name": "getApproved",
      "outputs": [
        {
          "name": "",
          "type": "address"
        }
      ],
      "payable": false,
      "stateMutability": "view",
      "type": "function"
    },
    {
      "constant": false,
      "inputs": [
        {
          "name": "to",
          "type": "address"
        },
        {
          "name": "tokenId",
          "type": "uint256"
        }
      ],
      "name": "approve",
      "outputs": [],
      "payable": false,
      "stateMutability": "nonpayable",
      "type": "function"
    },
    {
      "constant": false,
      "inputs": [
        {
          "name": "from",
          "type": "address"
        },
        {
          "name": "to",
          "type": "address"
        },
        {
          "name": "tokenId",
          "type": "uint256"
        }
      ],
      "name": "transferFrom",
      "outputs": [],
      "payable": false,
      "stateMutability": "nonpayable",
      "type": "function"
    },
    {
      "constant": false,
      "inputs": [
        {
          "name": "from",
          "type": "address"
        },
        {
          "name": "to",
          "type": "address"
        },
        {
          "name": "tokenId",
          "type": "uint256"
        }
      ],
      "name": "safeTransferFrom",
      "outputs": [],
      "payable": false,
      "stateMutability": "nonpayable",
      "type": "function"
    },
    {
      "constant": true,
      "inputs": [
        {
          "name": "tokenId",
          "type": "uint256"
        }
      ],
      "name": "ownerOf",
      "outputs": [
        {
          "name": "",
          "type": "address"
        }
      ],
      "payable": false,
      "stateMutability": "view",
      "type": "function"
    },
    {
      "constant": true,
      "inputs": [
        {
          "name": "owner",
          "type": "address"
        }
      ],
      "name": "balanceOf",
      "outputs": [
        {
          "name": "",
          "type": "uint256"
        }
      ],
      "payable": false,
      "stateMutability": "view",
      "type": "function"
    },
    {
      "constant": false,
      "inputs": [
        {
          "name": "account",
          "type": "address"
        }
      ],
      "name": "addMinter",
      "outputs": [],
      "payable": false,
      "stateMutability": "nonpayable",
      "type": "function"
    },
    {
      "constant": false,
      "inputs": [],
      "name": "renounceMinter",
      "outputs": [],
      "payable": false,
      "stateMutability": "nonpayable",
      "type": "function"
    },
    {
      "constant": false,
      "inputs": [
        {
          "name": "to",
          "type": "address"
        },
        {
          "name": "approved",
          "type": "bool"
        }
      ],
      "name": "setApprovalForAll",
      "outputs": [],
      "payable": false,
      "stateMutability": "nonpayable",
      "type": "function"
    },
    {
      "constant": true,
      "inputs": [
        {
          "name": "account",
          "type": "address"
        }
      ],
      "name": "isMinter",
      "outputs": [
        {
          "name": "",
          "type": "bool"
        }
      ],
      "payable": false,
      "stateMutability": "view",
      "type": "function"
    },
    {
      "constant": false,
      "inputs": [
        {
          "name": "from",
          "type": "address"
        },
        {
          "name": "to",
          "type": "address"
        },
        {
          "name": "tokenId",
          "type": "uint256"
        },
        {
          "name": "_data",
          "type": "bytes"
        }
      ],
      "name": "safeTransferFrom",
      "outputs": [],
      "payable": false,
      "stateMutability": "nonpayable",
      "type": "function"
    },
    {
      "constant": true,
      "inputs": [
        {
          "name": "owner",
          "type": "address"
        },
        {
          "name": "operator",
          "type": "address"
        }
      ],
      "name": "isApprovedForAll",
      "outputs": [
        {
          "name": "",
          "type": "bool"
        }
      ],
      "payable": false,
      "stateMutability": "view",
      "type": "function"
    },
    {
      "anonymous": false,
      "inputs": [
        {
          "indexed": true,
          "name": "account",
          "type": "address"
        }
      ],
      "name": "MinterAdded",
      "type": "event"
    },
    {
      "anonymous": false,
      "inputs": [
        {
          "indexed": true,
          "name": "account",
          "type": "address"
        }
      ],
      "name": "MinterRemoved",
      "type": "event"
    },
    {
      "anonymous": false,
      "inputs": [
        {
          "indexed": true,
          "name": "from",
          "type": "address"
        },
        {
          "indexed": true,
          "name": "to",
          "type": "address"
        },
        {
          "indexed": true,
          "name": "tokenId",
          "type": "uint256"
        }
      ],
      "name": "Transfer",
      "type": "event"
    },
    {
      "anonymous": false,
      "inputs": [
        {
          "indexed": true,
          "name": "owner",
          "type": "address"
        },
        {
          "indexed": true,
          "name": "approved",
          "type": "address"
        },
        {
          "indexed": true,
          "name": "tokenId",
          "type": "uint256"
        }
      ],
      "name": "Approval",
      "type": "event"
    },
    {
      "anonymous": false,
      "inputs": [
        {
          "indexed": true,
          "name": "owner",
          "type": "address"
        },
        {
          "indexed": true,
          "name": "operator",
          "type": "address"
        },
        {
          "indexed": false,
          "name": "approved",
          "type": "bool"
        }
      ],
      "name": "ApprovalForAll",
      "type": "event"
    },
    {
      "constant": false,
      "inputs": [
        {
          "name": "to",
          "type": "address"
        },
        {
          "name": "tokenId",
          "type": "uint256"
        }
      ],
      "name": "mint",
      "outputs": [
        {
          "name": "",
          "type": "bool"
        }
      ],
      "payable": false,
      "stateMutability": "nonpayable",
      "type": "function"
    },
    {
      "constant": false,
      "inputs": [
        {
          "name": "to",
          "type": "address"
        },
        {
          "name": "tokenId",
          "type": "uint256"
        },
        {
          "name": "_data",
          "type": "bytes"
        }
      ],
      "name": "safeMint",
      "outputs": [
        {
          "name": "",
          "type": "bool"
        }
      ],
      "payable": false,
      "stateMutability": "nonpayable",
      "type": "function"
    },
    {
      "constant": false,
      "inputs": [
        {
          "name": "to",
          "type": "address"
        },
        {
          "name": "tokenId",
          "type": "uint256"
        }
      ],
      "name": "safeMint",
      "outputs": [
        {
          "name": "",
          "type": "bool"
        }
      ],
      "payable": false,
      "stateMutability": "nonpayable",
      "type": "function"
    }
  ],
  "bytecode": "0x6080604052620000387f01ffc9a70000000000000000000000000000000000000000000000000000000064010000000062000098810204565b6200006c7f80ac58cd0000000000000000000000000000000000000000000000000000000064010000000062000098810204565b620000926200008364010000000062000167810204565b6401000000006200016b810204565b620002e9565b7fffffffff0000000000000000000000000000000000000000000000000000000080821614156200012a57604080517f08c379a000000000000000000000000000000000000000000000000000000000815260206004820152601c60248201527f4552433136353a20696e76616c696420696e7465726661636520696400000000604482015290519081900360640190fd5b7fffffffff00000000000000000000000000000000000000000000000000000000166000908152602081905260409020805460ff19166001179055565b3390565b62000186600582640100000000620012c6620001bd82021704565b604051600160a060020a038216907f6ae172837ea30b801fbfcdd4108aa1d5bf8ff775444fd70256b44e6bf3dfc3f690600090a250565b620001d2828264010000000062000264810204565b156200023f57604080517f08c379a000000000000000000000000000000000000000000000000000000000815260206004820152601f60248201527f526f6c65733a206163636f756e7420616c72656164792068617320726f6c6500604482015290519081900360640190fd5b600160a060020a0316600090815260209190915260409020805460ff19166001179055565b6000600160a060020a0382161515620002c9576040517f08c379a0000000000000000000000000000000000000000000000000000000008152600401808060200182810382526022815260200180620019ed6022913960400191505060405180910390fd5b50600160a060020a03166000908152602091909152604090205460ff1690565b6116f480620002f96000396000f3fe608060405234801561001057600080fd5b50d3801561001d57600080fd5b50d2801561002a57600080fd5b5060043610610137576000357c0100000000000000000000000000000000000000000000000000000000900480638832e6e3116100ce578063a22cb4651161009d578063a22cb465146103f5578063aa271e1a14610423578063b88d4fde14610449578063e985e9c51461050f57610137565b80638832e6e3146102e0578063983b2d561461039b57806398650275146103c1578063a1448194146103c957610137565b806340c10f191161010a57806340c10f191461022957806342842e0e146102555780636352211e1461028b57806370a08231146102a857610137565b806301ffc9a71461013c578063081812fc1461018c578063095ea7b3146101c557806323b872dd146101f3575b600080fd5b6101786004803603602081101561015257600080fd5b50357bffffffffffffffffffffffffffffffffffffffffffffffffffffffff191661053d565b604080519115158252519081900360200190f35b6101a9600480360360208110156101a257600080fd5b5035610571565b60408051600160a060020a039092168252519081900360200190f35b6101f1600480360360408110156101db57600080fd5b50600160a060020a0381351690602001356105d8565b005b6101f16004803603606081101561020957600080fd5b50600160a060020a0381358116916020810135909116906040013561070f565b6101786004803603604081101561023f57600080fd5b50600160a060020a038135169060200135610770565b6101f16004803603606081101561026b57600080fd5b50600160a060020a038135811691602081013590911690604001356107d5565b6101a9600480360360208110156102a157600080fd5b50356107f1565b6102ce600480360360208110156102be57600080fd5b5035600160a060020a0316610850565b60408051918252519081900360200190f35b610178600480360360608110156102f657600080fd5b600160a060020a038235169160208101359181019060608101604082013564010000000081111561032657600080fd5b82018360208201111561033857600080fd5b8035906020019184600183028401116401000000008311171561035a57600080fd5b91908080601f0160208091040260200160405190810160405280939291908181526020018383808284376000920191909152509295506108bd945050505050565b6101f1600480360360208110156103b157600080fd5b5035600160a060020a031661091f565b6101f1610976565b610178600480360360408110156103df57600080fd5b50600160a060020a038135169060200135610988565b6101f16004803603604081101561040b57600080fd5b50600160a060020a03813516906020013515156109df565b6101786004803603602081101561043957600080fd5b5035600160a060020a0316610ae1565b6101f16004803603608081101561045f57600080fd5b600160a060020a0382358116926020810135909116916040820135919081019060808101606082013564010000000081111561049a57600080fd5b8201836020820111156104ac57600080fd5b803590602001918460018302840111640100000000831117156104ce57600080fd5b91908080601f016020809104026020016040519081016040528093929190818152602001838380828437600092019190915250929550610af4945050505050565b6101786004803603604081101561052557600080fd5b50600160a060020a0381358116916020013516610b57565b7bffffffffffffffffffffffffffffffffffffffffffffffffffffffff191660009081526020819052604090205460ff1690565b600061057c82610b85565b15156105bc5760405160e560020a62461bcd02815260040180806020018281038252602c815260200180611600602c913960400191505060405180910390fd5b50600090815260026020526040902054600160a060020a031690565b60006105e3826107f1565b9050600160a060020a0383811690821614156106335760405160e560020a62461bcd0281526004018080602001828103825260218152602001806116776021913960400191505060405180910390fd5b80600160a060020a0316610645610ba2565b600160a060020a03161480610666575061066681610661610ba2565b610b57565b15156106a65760405160e560020a62461bcd0281526004018080602001828103825260388152602001806115246038913960400191505060405180910390fd5b600082815260026020526040808220805473ffffffffffffffffffffffffffffffffffffffff1916600160a060020a0387811691821790925591518593918516917f8c5be1e5ebec7d5bd14f71427d1e84f3dd0314c0f7b2291e5b200ac8c7c3b92591a4505050565b61072061071a610ba2565b82610ba6565b15156107605760405160e560020a62461bcd0281526004018080602001828103825260318152602001806116986031913960400191505060405180910390fd5b61076b838383610c4f565b505050565b600061078261077d610ba2565b610ae1565b15156107c25760405160e560020a62461bcd0281526004018080602001828103825260308152602001806115af6030913960400191505060405180910390fd5b6107cc8383610da8565b50600192915050565b61076b8383836020604051908101604052806000815250610af4565b600081815260016020526040812054600160a060020a031680151561084a5760405160e560020a62461bcd0281526004018080602001828103825260298152602001806115866029913960400191505060405180910390fd5b92915050565b6000600160a060020a038216151561089c5760405160e560020a62461bcd02815260040180806020018281038252602a81526020018061155c602a913960400191505060405180910390fd5b600160a060020a038216600090815260036020526040902061084a90610eee565b60006108ca61077d610ba2565b151561090a5760405160e560020a62461bcd0281526004018080602001828103825260308152602001806115af6030913960400191505060405180910390fd5b610915848484610ef2565b5060019392505050565b61092a61077d610ba2565b151561096a5760405160e560020a62461bcd0281526004018080602001828103825260308152602001806115af6030913960400191505060405180910390fd5b61097381610f49565b50565b610986610981610ba2565b610f91565b565b600061099561077d610ba2565b15156109d55760405160e560020a62461bcd0281526004018080602001828103825260308152602001806115af6030913960400191505060405180910390fd5b6107cc8383610fd9565b6109e7610ba2565b600160a060020a0383811691161415610a4a576040805160e560020a62461bcd02815260206004820152601960248201527f4552433732313a20617070726f766520746f2063616c6c657200000000000000604482015290519081900360640190fd5b8060046000610a57610ba2565b600160a060020a03908116825260208083019390935260409182016000908120918716808252919093529120805460ff191692151592909217909155610a9b610ba2565b6040805184151581529051600160a060020a0392909216917f17307eab39ab6107e8899845ad3d59bd9653f200f220920489ca2b5937696c319181900360200190a35050565b600061084a60058363ffffffff610ff816565b610b05610aff610ba2565b83610ba6565b1515610b455760405160e560020a62461bcd0281526004018080602001828103825260318152602001806116986031913960400191505060405180910390fd5b610b5184848484611064565b50505050565b600160a060020a03918216600090815260046020908152604080832093909416825291909152205460ff1690565b600090815260016020526040902054600160a060020a0316151590565b3390565b6000610bb182610b85565b1515610bf15760405160e560020a62461bcd02815260040180806020018281038252602c8152602001806114f8602c913960400191505060405180910390fd5b6000610bfc836107f1565b905080600160a060020a031684600160a060020a03161480610c37575083600160a060020a0316610c2c84610571565b600160a060020a0316145b80610c475750610c478185610b57565b949350505050565b82600160a060020a0316610c62826107f1565b600160a060020a031614610caa5760405160e560020a62461bcd02815260040180806020018281038252602981526020018061164e6029913960400191505060405180910390fd5b600160a060020a0382161515610cf45760405160e560020a62461bcd0281526004018080602001828103825260248152602001806114d46024913960400191505060405180910390fd5b610cfd816110bb565b600160a060020a0383166000908152600360205260409020610d1e90611103565b600160a060020a0382166000908152600360205260409020610d3f9061111a565b600081815260016020526040808220805473ffffffffffffffffffffffffffffffffffffffff1916600160a060020a0386811691821790925591518493918716917fddf252ad1be2c89b69c2b068fc378daa952ba7f163c4a11628f55a4df523b3ef91a4505050565b600160a060020a0382161515610e08576040805160e560020a62461bcd02815260206004820181905260248201527f4552433732313a206d696e7420746f20746865207a65726f2061646472657373604482015290519081900360640190fd5b610e1181610b85565b15610e66576040805160e560020a62461bcd02815260206004820152601c60248201527f4552433732313a20746f6b656e20616c7265616479206d696e74656400000000604482015290519081900360640190fd5b6000818152600160209081526040808320805473ffffffffffffffffffffffffffffffffffffffff1916600160a060020a038716908117909155835260039091529020610eb29061111a565b6040518190600160a060020a038416906000907fddf252ad1be2c89b69c2b068fc378daa952ba7f163c4a11628f55a4df523b3ef908290a45050565b5490565b610efc8383610da8565b610f096000848484611123565b151561076b5760405160e560020a62461bcd0281526004018080602001828103825260328152602001806114a26032913960400191505060405180910390fd5b610f5a60058263ffffffff6112c616565b604051600160a060020a038216907f6ae172837ea30b801fbfcdd4108aa1d5bf8ff775444fd70256b44e6bf3dfc3f690600090a250565b610fa260058263ffffffff61134a16565b604051600160a060020a038216907fe94479a9f7e1952cc78f2d6baab678adc1b772d936c6583def489e524cb6669290600090a250565b610ff482826020604051908101604052806000815250610ef2565b5050565b6000600160a060020a03821615156110445760405160e560020a62461bcd02815260040180806020018281038252602281526020018061162c6022913960400191505060405180910390fd5b50600160a060020a03166000908152602091909152604090205460ff1690565b61106f848484610c4f565b61107b84848484611123565b1515610b515760405160e560020a62461bcd0281526004018080602001828103825260328152602001806114a26032913960400191505060405180910390fd5b600081815260026020526040902054600160a060020a031615610973576000908152600260205260409020805473ffffffffffffffffffffffffffffffffffffffff19169055565b805461111690600163ffffffff6113b616565b9055565b80546001019055565b600061113784600160a060020a03166113ff565b151561114557506001610c47565b600084600160a060020a031663150b7a0261115e610ba2565b8887876040518563ffffffff167c01000000000000000000000000000000000000000000000000000000000281526004018085600160a060020a0316600160a060020a0316815260200184600160a060020a0316600160a060020a0316815260200183815260200180602001828103825283818151815260200191508051906020019080838360005b838110156111ff5781810151838201526020016111e7565b50505050905090810190601f16801561122c5780820380516001836020036101000a031916815260200191505b5095505050505050602060405180830381600087803b15801561124e57600080fd5b505af1158015611262573d6000803e3d6000fd5b505050506040513d602081101561127857600080fd5b50517bffffffffffffffffffffffffffffffffffffffffffffffffffffffff19167f150b7a020000000000000000000000000000000000000000000000000000000014915050949350505050565b6112d08282610ff8565b15611325576040805160e560020a62461bcd02815260206004820152601f60248201527f526f6c65733a206163636f756e7420616c72656164792068617320726f6c6500604482015290519081900360640190fd5b600160a060020a0316600090815260209190915260409020805460ff19166001179055565b6113548282610ff8565b15156113945760405160e560020a62461bcd0281526004018080602001828103825260218152602001806115df6021913960400191505060405180910390fd5b600160a060020a0316600090815260209190915260409020805460ff19169055565b60006113f883836040805190810160405280601e81526020017f536166654d6174683a207375627472616374696f6e206f766572666c6f770000815250611407565b9392505050565b6000903b1190565b600081848411156114995760405160e560020a62461bcd0281526004018080602001828103825283818151815260200191508051906020019080838360005b8381101561145e578181015183820152602001611446565b50505050905090810190601f16801561148b5780820380516001836020036101000a031916815260200191505b509250505060405180910390fd5b50505090039056fe4552433732313a207472616e7366657220746f206e6f6e20455243373231526563656976657220696d706c656d656e7465724552433732313a207472616e7366657220746f20746865207a65726f20616464726573734552433732313a206f70657261746f7220717565727920666f72206e6f6e6578697374656e7420746f6b656e4552433732313a20617070726f76652063616c6c6572206973206e6f74206f776e6572206e6f7220617070726f76656420666f7220616c6c4552433732313a2062616c616e636520717565727920666f7220746865207a65726f20616464726573734552433732313a206f776e657220717565727920666f72206e6f6e6578697374656e7420746f6b656e4d696e746572526f6c653a2063616c6c657220646f6573206e6f74206861766520746865204d696e74657220726f6c65526f6c65733a206163636f756e7420646f6573206e6f74206861766520726f6c654552433732313a20617070726f76656420717565727920666f72206e6f6e6578697374656e7420746f6b656e526f6c65733a206163636f756e7420697320746865207a65726f20616464726573734552433732313a207472616e73666572206f6620746f6b656e2074686174206973206e6f74206f776e4552433732313a20617070726f76616c20746f2063757272656e74206f776e65724552433732313a207472616e736665722063616c6c6572206973206e6f74206f776e6572206e6f7220617070726f766564a165627a7a72305820ebc3efff53ff54da8adf8b752bc0be8acbac04e37ec89136b304f448d02728510029526f6c65733a206163636f756e7420697320746865207a65726f2061646472657373",
  "source": "pragma solidity ^0.5.0;\n\nimport \"./ERC721.sol\";\nimport \"../../access/roles/MinterRole.sol\";\n\n/**\n * @title ERC721Mintable\n * @dev ERC721 minting logic.\n */\ncontract ERC721Mintable is ERC721, MinterRole {\n    /**\n     * @dev Function to mint tokens.\n     * @param to The address that will receive the minted token.\n     * @param tokenId The token id to mint.\n     * @return A boolean that indicates if the operation was successful.\n     */\n    function mint(address to, uint256 tokenId) public onlyMinter returns (bool) {\n        _mint(to, tokenId);\n        return true;\n    }\n\n    /**\n     * @dev Function to safely mint tokens.\n     * @param to The address that will receive the minted token.\n     * @param tokenId The token id to mint.\n     * @return A boolean that indicates if the operation was successful.\n     */\n    function safeMint(address to, uint256 tokenId) public onlyMinter returns (bool) {\n        _safeMint(to, tokenId);\n        return true;\n    }\n\n    /**\n     * @dev Function to safely mint tokens.\n     * @param to The address that will receive the minted token.\n     * @param tokenId The token id to mint.\n     * @param _data bytes data to send along with a safe transfer check.\n     * @return A boolean that indicates if the operation was successful.\n     */\n    function safeMint(address to, uint256 tokenId, bytes memory _data) public onlyMinter returns (bool) {\n        _safeMint(to, tokenId, _data);\n        return true;\n    }\n}\n",
  "sourcePath": "/Users/bibodeng/Programming/water_loan_core/contracts/libraries/openzeppelin-solidity/contracts/token/ERC721/ERC721Mintable.sol",
  "compiler": {
    "name": "solc",
    "version": "0.5.4+commit.d15a3125.mod.Emscripten.clang"
  },
  "schemaVersion": "2.0.1",
  "updatedAt": "2020-11-19T10:56:46.859Z"
}