{
  "contractName": "ERC721Pausable",
  "abi": [
    {
      "constant": true,
      "inputs": [
        {
          "name": "interfaceId",
          "type": "bytes4"
        }
      ],
      "name": "supportsInterface",
      "outputs": [
        {
          "name": "",
          "type": "bool"
        }
      ],
      "payable": false,
      "stateMutability": "view",
      "type": "function"
    },
    {
      "constant": true,
      "inputs": [
        {
          "name": "tokenId",
          "type": "uint256"
        }
      ],
      "name": "getApproved",
      "outputs": [
        {
          "name": "",
          "type": "address"
        }
      ],
      "payable": false,
      "stateMutability": "view",
      "type": "function"
    },
    {
      "constant": false,
      "inputs": [
        {
          "name": "from",
          "type": "address"
        },
        {
          "name": "to",
          "type": "address"
        },
        {
          "name": "tokenId",
          "type": "uint256"
        }
      ],
      "name": "transferFrom",
      "outputs": [],
      "payable": false,
      "stateMutability": "nonpayable",
      "type": "function"
    },
    {
      "constant": false,
      "inputs": [],
      "name": "unpause",
      "outputs": [],
      "payable": false,
      "stateMutability": "nonpayable",
      "type": "function"
    },
    {
      "constant": false,
      "inputs": [
        {
          "name": "from",
          "type": "address"
        },
        {
          "name": "to",
          "type": "address"
        },
        {
          "name": "tokenId",
          "type": "uint256"
        }
      ],
      "name": "safeTransferFrom",
      "outputs": [],
      "payable": false,
      "stateMutability": "nonpayable",
      "type": "function"
    },
    {
      "constant": true,
      "inputs": [
        {
          "name": "account",
          "type": "address"
        }
      ],
      "name": "isPauser",
      "outputs": [
        {
          "name": "",
          "type": "bool"
        }
      ],
      "payable": false,
      "stateMutability": "view",
      "type": "function"
    },
    {
      "constant": true,
      "inputs": [],
      "name": "paused",
      "outputs": [
        {
          "name": "",
          "type": "bool"
        }
      ],
      "payable": false,
      "stateMutability": "view",
      "type": "function"
    },
    {
      "constant": true,
      "inputs": [
        {
          "name": "tokenId",
          "type": "uint256"
        }
      ],
      "name": "ownerOf",
      "outputs": [
        {
          "name": "",
          "type": "address"
        }
      ],
      "payable": false,
      "stateMutability": "view",
      "type": "function"
    },
    {
      "constant": false,
      "inputs": [],
      "name": "renouncePauser",
      "outputs": [],
      "payable": false,
      "stateMutability": "nonpayable",
      "type": "function"
    },
    {
      "constant": true,
      "inputs": [
        {
          "name": "owner",
          "type": "address"
        }
      ],
      "name": "balanceOf",
      "outputs": [
        {
          "name": "",
          "type": "uint256"
        }
      ],
      "payable": false,
      "stateMutability": "view",
      "type": "function"
    },
    {
      "constant": false,
      "inputs": [
        {
          "name": "account",
          "type": "address"
        }
      ],
      "name": "addPauser",
      "outputs": [],
      "payable": false,
      "stateMutability": "nonpayable",
      "type": "function"
    },
    {
      "constant": false,
      "inputs": [],
      "name": "pause",
      "outputs": [],
      "payable": false,
      "stateMutability": "nonpayable",
      "type": "function"
    },
    {
      "constant": false,
      "inputs": [
        {
          "name": "from",
          "type": "address"
        },
        {
          "name": "to",
          "type": "address"
        },
        {
          "name": "tokenId",
          "type": "uint256"
        },
        {
          "name": "_data",
          "type": "bytes"
        }
      ],
      "name": "safeTransferFrom",
      "outputs": [],
      "payable": false,
      "stateMutability": "nonpayable",
      "type": "function"
    },
    {
      "constant": true,
      "inputs": [
        {
          "name": "owner",
          "type": "address"
        },
        {
          "name": "operator",
          "type": "address"
        }
      ],
      "name": "isApprovedForAll",
      "outputs": [
        {
          "name": "",
          "type": "bool"
        }
      ],
      "payable": false,
      "stateMutability": "view",
      "type": "function"
    },
    {
      "anonymous": false,
      "inputs": [
        {
          "indexed": false,
          "name": "account",
          "type": "address"
        }
      ],
      "name": "Paused",
      "type": "event"
    },
    {
      "anonymous": false,
      "inputs": [
        {
          "indexed": false,
          "name": "account",
          "type": "address"
        }
      ],
      "name": "Unpaused",
      "type": "event"
    },
    {
      "anonymous": false,
      "inputs": [
        {
          "indexed": true,
          "name": "account",
          "type": "address"
        }
      ],
      "name": "PauserAdded",
      "type": "event"
    },
    {
      "anonymous": false,
      "inputs": [
        {
          "indexed": true,
          "name": "account",
          "type": "address"
        }
      ],
      "name": "PauserRemoved",
      "type": "event"
    },
    {
      "anonymous": false,
      "inputs": [
        {
          "indexed": true,
          "name": "from",
          "type": "address"
        },
        {
          "indexed": true,
          "name": "to",
          "type": "address"
        },
        {
          "indexed": true,
          "name": "tokenId",
          "type": "uint256"
        }
      ],
      "name": "Transfer",
      "type": "event"
    },
    {
      "anonymous": false,
      "inputs": [
        {
          "indexed": true,
          "name": "owner",
          "type": "address"
        },
        {
          "indexed": true,
          "name": "approved",
          "type": "address"
        },
        {
          "indexed": true,
          "name": "tokenId",
          "type": "uint256"
        }
      ],
      "name": "Approval",
      "type": "event"
    },
    {
      "anonymous": false,
      "inputs": [
        {
          "indexed": true,
          "name": "owner",
          "type": "address"
        },
        {
          "indexed": true,
          "name": "operator",
          "type": "address"
        },
        {
          "indexed": false,
          "name": "approved",
          "type": "bool"
        }
      ],
      "name": "ApprovalForAll",
      "type": "event"
    },
    {
      "constant": false,
      "inputs": [
        {
          "name": "to",
          "type": "address"
        },
        {
          "name": "tokenId",
          "type": "uint256"
        }
      ],
      "name": "approve",
      "outputs": [],
      "payable": false,
      "stateMutability": "nonpayable",
      "type": "function"
    },
    {
      "constant": false,
      "inputs": [
        {
          "name": "to",
          "type": "address"
        },
        {
          "name": "approved",
          "type": "bool"
        }
      ],
      "name": "setApprovalForAll",
      "outputs": [],
      "payable": false,
      "stateMutability": "nonpayable",
      "type": "function"
    }
  ],
  "bytecode": "0x6080604052620000387f01ffc9a700000000000000000000000000000000000000000000000000000000640100000000620000a2810204565b6200006c7f80ac58cd00000000000000000000000000000000000000000000000000000000640100000000620000a2810204565b620000926200008364010000000062000171810204565b64010000000062000175810204565b6006805460ff19169055620002f3565b7fffffffff0000000000000000000000000000000000000000000000000000000080821614156200013457604080517f08c379a000000000000000000000000000000000000000000000000000000000815260206004820152601c60248201527f4552433136353a20696e76616c696420696e7465726661636520696400000000604482015290519081900360640190fd5b7fffffffff00000000000000000000000000000000000000000000000000000000166000908152602081905260409020805460ff19166001179055565b3390565b620001906005826401000000006200101f620001c782021704565b604051600160a060020a038216907f6719d08c1888103bea251a4ed56406bd0c3e69723c8a1686e017e7bbe159b6f890600090a250565b620001dc82826401000000006200026e810204565b156200024957604080517f08c379a000000000000000000000000000000000000000000000000000000000815260206004820152601f60248201527f526f6c65733a206163636f756e7420616c72656164792068617320726f6c6500604482015290519081900360640190fd5b600160a060020a0316600090815260209190915260409020805460ff19166001179055565b6000600160a060020a0382161515620002d3576040517f08c379a00000000000000000000000000000000000000000000000000000000081526004018080602001828103825260228152602001806200190f6022913960400191505060405180910390fd5b50600160a060020a03166000908152602091909152604090205460ff1690565b61160c80620003036000396000f3fe608060405234801561001057600080fd5b50d3801561001d57600080fd5b50d2801561002a57600080fd5b5060043610610137576000357c0100000000000000000000000000000000000000000000000000000000900480636352211e116100ce5780638456cb591161009d5780638456cb5914610318578063a22cb46514610320578063b88d4fde1461034e578063e985e9c51461041457610137565b80636352211e146102955780636ef8d66d146102b257806370a08231146102ba57806382dc1ec4146102f257610137565b80633f4ba83a1161010a5780633f4ba83a1461022957806342842e0e1461023157806346fbf68e146102675780635c975abb1461028d57610137565b806301ffc9a71461013c578063081812fc1461018c578063095ea7b3146101c557806323b872dd146101f3575b600080fd5b6101786004803603602081101561015257600080fd5b50357bffffffffffffffffffffffffffffffffffffffffffffffffffffffff1916610442565b604080519115158252519081900360200190f35b6101a9600480360360208110156101a257600080fd5b5035610476565b60408051600160a060020a039092168252519081900360200190f35b6101f1600480360360408110156101db57600080fd5b50600160a060020a0381351690602001356104dd565b005b6101f16004803603606081101561020957600080fd5b50600160a060020a03813581169160208101359091169060400135610534565b6101f1610595565b6101f16004803603606081101561024757600080fd5b50600160a060020a03813581169160208101359091169060400135610691565b6101786004803603602081101561027d57600080fd5b5035600160a060020a03166106ad565b6101786106c6565b6101a9600480360360208110156102ab57600080fd5b50356106cf565b6101f1610728565b6102e0600480360360208110156102d057600080fd5b5035600160a060020a031661073a565b60408051918252519081900360200190f35b6101f16004803603602081101561030857600080fd5b5035600160a060020a03166107a7565b6101f16107fe565b6101f16004803603604081101561033657600080fd5b50600160a060020a03813516906020013515156108c8565b6101f16004803603608081101561036457600080fd5b600160a060020a0382358116926020810135909116916040820135919081019060808101606082013564010000000081111561039f57600080fd5b8201836020820111156103b157600080fd5b803590602001918460018302840111640100000000831117156103d357600080fd5b91908080601f01602080910402602001604051908101604052809392919081815260200183838082843760009201919091525092955061091b945050505050565b6101786004803603604081101561042a57600080fd5b50600160a060020a038135811691602001351661097e565b7bffffffffffffffffffffffffffffffffffffffffffffffffffffffff191660009081526020819052604090205460ff1690565b6000610481826109ac565b15156104c15760405160e560020a62461bcd02815260040180806020018281038252602c8152602001806114f8602c913960400191505060405180910390fd5b50600090815260026020526040902054600160a060020a031690565b60065460ff1615610526576040805160e560020a62461bcd0281526020600482015260106024820152600080516020611590833981519152604482015290519081900360640190fd5b61053082826109c9565b5050565b61054561053f610b00565b82610b04565b15156105855760405160e560020a62461bcd0281526004018080602001828103825260318152602001806115b06031913960400191505060405180910390fd5b610590838383610bad565b505050565b6105a56105a0610b00565b6106ad565b15156105e55760405160e560020a62461bcd0281526004018080602001828103825260308152602001806113cc6030913960400191505060405180910390fd5b60065460ff161515610641576040805160e560020a62461bcd02815260206004820152601460248201527f5061757361626c653a206e6f7420706175736564000000000000000000000000604482015290519081900360640190fd5b6006805460ff191690557f5db9ee0a495bf2e6ff9c91a7834c1ba4fdd244a5e8aa4e537bd38aeae4b073aa610674610b00565b60408051600160a060020a039092168252519081900360200190a1565b610590838383602060405190810160405280600081525061091b565b60006106c060058363ffffffff610c0116565b92915050565b60065460ff1690565b600081815260016020526040812054600160a060020a03168015156106c05760405160e560020a62461bcd0281526004018080602001828103825260298152602001806114ae6029913960400191505060405180910390fd5b610738610733610b00565b610c6d565b565b6000600160a060020a03821615156107865760405160e560020a62461bcd02815260040180806020018281038252602a815260200180611484602a913960400191505060405180910390fd5b600160a060020a03821660009081526003602052604090206106c090610cb5565b6107b26105a0610b00565b15156107f25760405160e560020a62461bcd0281526004018080602001828103825260308152602001806113cc6030913960400191505060405180910390fd5b6107fb81610cb9565b50565b6108096105a0610b00565b15156108495760405160e560020a62461bcd0281526004018080602001828103825260308152602001806113cc6030913960400191505060405180910390fd5b60065460ff1615610892576040805160e560020a62461bcd0281526020600482015260106024820152600080516020611590833981519152604482015290519081900360640190fd5b6006805460ff191660011790557f62e78cea01bee320cd4e420270b5ea74000d11b0c9f74754ebdbfc544b05a258610674610b00565b60065460ff1615610911576040805160e560020a62461bcd0281526020600482015260106024820152600080516020611590833981519152604482015290519081900360640190fd5b6105308282610d01565b61092c610926610b00565b83610b04565b151561096c5760405160e560020a62461bcd0281526004018080602001828103825260318152602001806115b06031913960400191505060405180910390fd5b61097884848484610e03565b50505050565b600160a060020a03918216600090815260046020908152604080832093909416825291909152205460ff1690565b600090815260016020526040902054600160a060020a0316151590565b60006109d4826106cf565b9050600160a060020a038381169082161415610a245760405160e560020a62461bcd02815260040180806020018281038252602181526020018061156f6021913960400191505060405180910390fd5b80600160a060020a0316610a36610b00565b600160a060020a03161480610a575750610a5781610a52610b00565b61097e565b1515610a975760405160e560020a62461bcd02815260040180806020018281038252603881526020018061144c6038913960400191505060405180910390fd5b600082815260026020526040808220805473ffffffffffffffffffffffffffffffffffffffff1916600160a060020a0387811691821790925591518593918516917f8c5be1e5ebec7d5bd14f71427d1e84f3dd0314c0f7b2291e5b200ac8c7c3b92591a4505050565b3390565b6000610b0f826109ac565b1515610b4f5760405160e560020a62461bcd02815260040180806020018281038252602c815260200180611420602c913960400191505060405180910390fd5b6000610b5a836106cf565b905080600160a060020a031684600160a060020a03161480610b95575083600160a060020a0316610b8a84610476565b600160a060020a0316145b80610ba55750610ba5818561097e565b949350505050565b60065460ff1615610bf6576040805160e560020a62461bcd0281526020600482015260106024820152600080516020611590833981519152604482015290519081900360640190fd5b610590838383610e5a565b6000600160a060020a0382161515610c4d5760405160e560020a62461bcd0281526004018080602001828103825260228152602001806115246022913960400191505060405180910390fd5b50600160a060020a03166000908152602091909152604090205460ff1690565b610c7e60058263ffffffff610fb316565b604051600160a060020a038216907fcd265ebaf09df2871cc7bd4133404a235ba12eff2041bb89d9c714a2621c7c7e90600090a250565b5490565b610cca60058263ffffffff61101f16565b604051600160a060020a038216907f6719d08c1888103bea251a4ed56406bd0c3e69723c8a1686e017e7bbe159b6f890600090a250565b610d09610b00565b600160a060020a0383811691161415610d6c576040805160e560020a62461bcd02815260206004820152601960248201527f4552433732313a20617070726f766520746f2063616c6c657200000000000000604482015290519081900360640190fd5b8060046000610d79610b00565b600160a060020a03908116825260208083019390935260409182016000908120918716808252919093529120805460ff191692151592909217909155610dbd610b00565b6040805184151581529051600160a060020a0392909216917f17307eab39ab6107e8899845ad3d59bd9653f200f220920489ca2b5937696c319181900360200190a35050565b610e0e848484610bad565b610e1a848484846110a3565b15156109785760405160e560020a62461bcd02815260040180806020018281038252603281526020018061139a6032913960400191505060405180910390fd5b82600160a060020a0316610e6d826106cf565b600160a060020a031614610eb55760405160e560020a62461bcd0281526004018080602001828103825260298152602001806115466029913960400191505060405180910390fd5b600160a060020a0382161515610eff5760405160e560020a62461bcd0281526004018080602001828103825260248152602001806113fc6024913960400191505060405180910390fd5b610f0881611246565b600160a060020a0383166000908152600360205260409020610f299061128e565b600160a060020a0382166000908152600360205260409020610f4a906112a5565b600081815260016020526040808220805473ffffffffffffffffffffffffffffffffffffffff1916600160a060020a0386811691821790925591518493918716917fddf252ad1be2c89b69c2b068fc378daa952ba7f163c4a11628f55a4df523b3ef91a4505050565b610fbd8282610c01565b1515610ffd5760405160e560020a62461bcd0281526004018080602001828103825260218152602001806114d76021913960400191505060405180910390fd5b600160a060020a0316600090815260209190915260409020805460ff19169055565b6110298282610c01565b1561107e576040805160e560020a62461bcd02815260206004820152601f60248201527f526f6c65733a206163636f756e7420616c72656164792068617320726f6c6500604482015290519081900360640190fd5b600160a060020a0316600090815260209190915260409020805460ff19166001179055565b60006110b784600160a060020a03166112ae565b15156110c557506001610ba5565b600084600160a060020a031663150b7a026110de610b00565b8887876040518563ffffffff167c01000000000000000000000000000000000000000000000000000000000281526004018085600160a060020a0316600160a060020a0316815260200184600160a060020a0316600160a060020a0316815260200183815260200180602001828103825283818151815260200191508051906020019080838360005b8381101561117f578181015183820152602001611167565b50505050905090810190601f1680156111ac5780820380516001836020036101000a031916815260200191505b5095505050505050602060405180830381600087803b1580156111ce57600080fd5b505af11580156111e2573d6000803e3d6000fd5b505050506040513d60208110156111f857600080fd5b50517bffffffffffffffffffffffffffffffffffffffffffffffffffffffff19167f150b7a020000000000000000000000000000000000000000000000000000000014915050949350505050565b600081815260026020526040902054600160a060020a0316156107fb576000908152600260205260409020805473ffffffffffffffffffffffffffffffffffffffff19169055565b80546112a190600163ffffffff6112b616565b9055565b80546001019055565b6000903b1190565b60006112f883836040805190810160405280601e81526020017f536166654d6174683a207375627472616374696f6e206f766572666c6f7700008152506112ff565b9392505050565b600081848411156113915760405160e560020a62461bcd0281526004018080602001828103825283818151815260200191508051906020019080838360005b8381101561135657818101518382015260200161133e565b50505050905090810190601f1680156113835780820380516001836020036101000a031916815260200191505b509250505060405180910390fd5b50505090039056fe4552433732313a207472616e7366657220746f206e6f6e20455243373231526563656976657220696d706c656d656e746572506175736572526f6c653a2063616c6c657220646f6573206e6f742068617665207468652050617573657220726f6c654552433732313a207472616e7366657220746f20746865207a65726f20616464726573734552433732313a206f70657261746f7220717565727920666f72206e6f6e6578697374656e7420746f6b656e4552433732313a20617070726f76652063616c6c6572206973206e6f74206f776e6572206e6f7220617070726f76656420666f7220616c6c4552433732313a2062616c616e636520717565727920666f7220746865207a65726f20616464726573734552433732313a206f776e657220717565727920666f72206e6f6e6578697374656e7420746f6b656e526f6c65733a206163636f756e7420646f6573206e6f74206861766520726f6c654552433732313a20617070726f76656420717565727920666f72206e6f6e6578697374656e7420746f6b656e526f6c65733a206163636f756e7420697320746865207a65726f20616464726573734552433732313a207472616e73666572206f6620746f6b656e2074686174206973206e6f74206f776e4552433732313a20617070726f76616c20746f2063757272656e74206f776e65725061757361626c653a20706175736564000000000000000000000000000000004552433732313a207472616e736665722063616c6c6572206973206e6f74206f776e6572206e6f7220617070726f766564a165627a7a723058206167a51696d6ef928b39b718cafe2509255c376e82f23d9e2ab0e5bc089b3d420029526f6c65733a206163636f756e7420697320746865207a65726f2061646472657373",
  "source": "pragma solidity ^0.5.0;\n\nimport \"./ERC721.sol\";\nimport \"../../lifecycle/Pausable.sol\";\n\n/**\n * @title ERC721 Non-Fungible Pausable token\n * @dev ERC721 modified with pausable transfers.\n */\ncontract ERC721Pausable is ERC721, Pausable {\n    function approve(address to, uint256 tokenId) public whenNotPaused {\n        super.approve(to, tokenId);\n    }\n\n    function setApprovalForAll(address to, bool approved) public whenNotPaused {\n        super.setApprovalForAll(to, approved);\n    }\n\n    function _transferFrom(address from, address to, uint256 tokenId) internal whenNotPaused {\n        super._transferFrom(from, to, tokenId);\n    }\n}\n",
  "sourcePath": "/Users/bibodeng/Programming/water_loan_core/contracts/libraries/openzeppelin-solidity/contracts/token/ERC721/ERC721Pausable.sol",
  "compiler": {
    "name": "solc",
    "version": "0.5.4+commit.d15a3125.mod.Emscripten.clang"
  },
  "schemaVersion": "2.0.1",
  "updatedAt": "2020-11-19T10:56:46.878Z"
}