{
  "contractName": "Escrow",
  "abi": [
    {
      "constant": false,
      "inputs": [
        {
          "name": "recipient",
          "type": "address"
        }
      ],
      "name": "transferPrimary",
      "outputs": [],
      "payable": false,
      "stateMutability": "nonpayable",
      "type": "function"
    },
    {
      "constant": true,
      "inputs": [],
      "name": "primary",
      "outputs": [
        {
          "name": "",
          "type": "address"
        }
      ],
      "payable": false,
      "stateMutability": "view",
      "type": "function"
    },
    {
      "anonymous": false,
      "inputs": [
        {
          "indexed": true,
          "name": "payee",
          "type": "address"
        },
        {
          "indexed": false,
          "name": "weiAmount",
          "type": "uint256"
        }
      ],
      "name": "Deposited",
      "type": "event"
    },
    {
      "anonymous": false,
      "inputs": [
        {
          "indexed": true,
          "name": "payee",
          "type": "address"
        },
        {
          "indexed": false,
          "name": "weiAmount",
          "type": "uint256"
        }
      ],
      "name": "Withdrawn",
      "type": "event"
    },
    {
      "anonymous": false,
      "inputs": [
        {
          "indexed": false,
          "name": "recipient",
          "type": "address"
        }
      ],
      "name": "PrimaryTransferred",
      "type": "event"
    },
    {
      "constant": true,
      "inputs": [
        {
          "name": "payee",
          "type": "address"
        }
      ],
      "name": "depositsOf",
      "outputs": [
        {
          "name": "",
          "type": "uint256"
        }
      ],
      "payable": false,
      "stateMutability": "view",
      "type": "function"
    },
    {
      "constant": false,
      "inputs": [
        {
          "name": "payee",
          "type": "address"
        }
      ],
      "name": "deposit",
      "outputs": [],
      "payable": true,
      "stateMutability": "payable",
      "type": "function"
    },
    {
      "constant": false,
      "inputs": [
        {
          "name": "payee",
          "type": "address"
        }
      ],
      "name": "withdraw",
      "outputs": [],
      "payable": false,
      "stateMutability": "nonpayable",
      "type": "function"
    },
    {
      "constant": false,
      "inputs": [
        {
          "name": "payee",
          "type": "address"
        }
      ],
      "name": "withdrawWithGas",
      "outputs": [],
      "payable": false,
      "stateMutability": "nonpayable",
      "type": "function"
    }
  ],
  "bytecode": "0x608060405261001564010000000061006f810204565b60008054600160a060020a031916600160a060020a0392831617908190556040805191909216815290517f4101e71e974f68df5e9730cc223280b41654676bbb052cdcc735c3337e64d2d9916020908290030190a1610073565b3390565b610811806100826000396000f3fe608060405260043610610071577c010000000000000000000000000000000000000000000000000000000060003504632348238c811461007657806351cff8d9146100c55780636809691a14610112578063c6dbdf611461015f578063e3a9db1a146101aa578063f340fa0114610209575b600080fd5b34801561008257600080fd5b50d3801561008f57600080fd5b50d2801561009c57600080fd5b506100c3600480360360208110156100b357600080fd5b5035600160a060020a031661022f565b005b3480156100d157600080fd5b50d380156100de57600080fd5b50d280156100eb57600080fd5b506100c36004803603602081101561010257600080fd5b5035600160a060020a031661033c565b34801561011e57600080fd5b50d3801561012b57600080fd5b50d2801561013857600080fd5b506100c36004803603602081101561014f57600080fd5b5035600160a060020a0316610426565b34801561016b57600080fd5b50d3801561017857600080fd5b50d2801561018557600080fd5b5061018e6104f3565b60408051600160a060020a039092168252519081900360200190f35b3480156101b657600080fd5b50d380156101c357600080fd5b50d280156101d057600080fd5b506101f7600480360360208110156101e757600080fd5b5035600160a060020a0316610502565b60408051918252519081900360200190f35b6100c36004803603602081101561021f57600080fd5b5035600160a060020a031661051d565b600054600160a060020a03166102436105fa565b600160a060020a03161461028b5760405160e560020a62461bcd02815260040180806020018281038252602c8152602001806107ba602c913960400191505060405180910390fd5b600160a060020a03811615156102d55760405160e560020a62461bcd02815260040180806020018281038252602a815260200180610790602a913960400191505060405180910390fd5b6000805473ffffffffffffffffffffffffffffffffffffffff1916600160a060020a03838116919091179182905560408051929091168252517f4101e71e974f68df5e9730cc223280b41654676bbb052cdcc735c3337e64d2d9916020908290030190a150565b600054600160a060020a03166103506105fa565b600160a060020a0316146103985760405160e560020a62461bcd02815260040180806020018281038252602c8152602001806107ba602c913960400191505060405180910390fd5b600160a060020a038116600081815260016020526040808220805490839055905190929183156108fc02918491818181858888f193505050501580156103e2573d6000803e3d6000fd5b50604080518281529051600160a060020a038416917f7084f5476618d8e60b11ef0d7d3f06914655adb8793e28ff7f018d4c76d505d5919081900360200190a25050565b600054600160a060020a031661043a6105fa565b600160a060020a0316146104825760405160e560020a62461bcd02815260040180806020018281038252602c8152602001806107ba602c913960400191505060405180910390fd5b600160a060020a03811660008181526001602052604081208054919055906104b0908263ffffffff6105fe16565b604080518281529051600160a060020a038416917f7084f5476618d8e60b11ef0d7d3f06914655adb8793e28ff7f018d4c76d505d5919081900360200190a25050565b600054600160a060020a031690565b600160a060020a031660009081526001602052604090205490565b600054600160a060020a03166105316105fa565b600160a060020a0316146105795760405160e560020a62461bcd02815260040180806020018281038252602c8152602001806107ba602c913960400191505060405180910390fd5b600160a060020a03811660009081526001602052604090205434906105a4908263ffffffff6106f116565b600160a060020a038316600081815260016020908152604091829020939093558051848152905191927f2da466a7b24304f47e87fa2e1e5a81b9831ce54fec19055ce277ca2f39ba42c492918290030190a25050565b3390565b3031811115610657576040805160e560020a62461bcd02815260206004820152601d60248201527f416464726573733a20696e73756666696369656e742062616c616e6365000000604482015290519081900360640190fd5b604051600090600160a060020a0384169083908381818185875af1925050503d80600081146106a2576040519150601f19603f3d011682016040523d82523d6000602084013e6106a7565b606091505b505090508015156106ec5760405160e560020a62461bcd02815260040180806020018281038252603a815260200180610756603a913960400191505060405180910390fd5b505050565b60008282018381101561074e576040805160e560020a62461bcd02815260206004820152601b60248201527f536166654d6174683a206164646974696f6e206f766572666c6f770000000000604482015290519081900360640190fd5b939250505056fe416464726573733a20756e61626c6520746f2073656e642076616c75652c20726563697069656e74206d617920686176652072657665727465645365636f6e646172793a206e6577207072696d61727920697320746865207a65726f20616464726573735365636f6e646172793a2063616c6c6572206973206e6f7420746865207072696d617279206163636f756e74a165627a7a7230582007288e6ced558cb0128c0f63ae11f9f58b3015e7a3785623ca3bdfc4e77869bb0029",
  "source": "pragma solidity ^0.5.0;\n\nimport \"../../math/SafeMath.sol\";\nimport \"../../ownership/Secondary.sol\";\nimport \"../../utils/Address.sol\";\n\n /**\n  * @title Escrow\n  * @dev Base escrow contract, holds funds designated for a payee until they\n  * withdraw them.\n  *\n  * Intended usage: This contract (and derived escrow contracts) should be a\n  * standalone contract, that only interacts with the contract that instantiated\n  * it. That way, it is guaranteed that all Ether will be handled according to\n  * the `Escrow` rules, and there is no need to check for payable functions or\n  * transfers in the inheritance tree. The contract that uses the escrow as its\n  * payment method should be its primary, and provide public methods redirecting\n  * to the escrow's deposit and withdraw.\n  */\ncontract Escrow is Secondary {\n    using SafeMath for uint256;\n    using Address for address payable;\n\n    event Deposited(address indexed payee, uint256 weiAmount);\n    event Withdrawn(address indexed payee, uint256 weiAmount);\n\n    mapping(address => uint256) private _deposits;\n\n    function depositsOf(address payee) public view returns (uint256) {\n        return _deposits[payee];\n    }\n\n    /**\n     * @dev Stores the sent amount as credit to be withdrawn.\n     * @param payee The destination address of the funds.\n     */\n    function deposit(address payee) public onlyPrimary payable {\n        uint256 amount = msg.value;\n        _deposits[payee] = _deposits[payee].add(amount);\n\n        emit Deposited(payee, amount);\n    }\n\n    /**\n     * @dev Withdraw accumulated balance for a payee, forwarding 2300 gas (a\n     * Solidity `transfer`).\n     *\n     * NOTE: This function has been deprecated, use {withdrawWithGas} instead.\n     * Calling contracts with fixed-gas limits is an anti-pattern and may break\n     * contract interactions in network upgrades (hardforks).\n     * https://diligence.consensys.net/blog/2019/09/stop-using-soliditys-transfer-now/[Learn more.]\n     *\n     * @param payee The address whose funds will be withdrawn and transferred to.\n     */\n    function withdraw(address payable payee) public onlyPrimary {\n        uint256 payment = _deposits[payee];\n\n        _deposits[payee] = 0;\n\n        payee.transfer(payment);\n\n        emit Withdrawn(payee, payment);\n    }\n\n    /**\n     * @dev Same as {withdraw}, but forwarding all gas to the recipient.\n     *\n     * WARNING: Forwarding all gas opens the door to reentrancy vulnerabilities.\n     * Make sure you trust the recipient, or are either following the\n     * checks-effects-interactions pattern or using {ReentrancyGuard}.\n     *\n     * _Available since v2.4.0._\n     */\n    function withdrawWithGas(address payable payee) public onlyPrimary {\n        uint256 payment = _deposits[payee];\n\n        _deposits[payee] = 0;\n\n        payee.sendValue(payment);\n\n        emit Withdrawn(payee, payment);\n    }\n}\n",
  "sourcePath": "/Users/bibodeng/Programming/water_loan_core/contracts/libraries/openzeppelin-solidity/contracts/payment/escrow/Escrow.sol",
  "compiler": {
    "name": "solc",
    "version": "0.5.4+commit.d15a3125.mod.Emscripten.clang"
  },
  "schemaVersion": "2.0.1",
  "updatedAt": "2020-11-19T10:56:46.801Z"
}