{
  "contractName": "FeeProvider",
  "abi": [
    {
      "constant": true,
      "inputs": [],
      "name": "originationFeePercentage",
      "outputs": [
        {
          "name": "",
          "type": "uint256"
        }
      ],
      "payable": false,
      "stateMutability": "view",
      "type": "function"
    },
    {
      "constant": true,
      "inputs": [],
      "name": "FEE_PROVIDER_REVISION",
      "outputs": [
        {
          "name": "",
          "type": "uint256"
        }
      ],
      "payable": false,
      "stateMutability": "view",
      "type": "function"
    },
    {
      "constant": false,
      "inputs": [
        {
          "name": "_addressesProvider",
          "type": "address"
        }
      ],
      "name": "initialize",
      "outputs": [],
      "payable": false,
      "stateMutability": "nonpayable",
      "type": "function"
    },
    {
      "constant": true,
      "inputs": [
        {
          "name": "_user",
          "type": "address"
        },
        {
          "name": "_amount",
          "type": "uint256"
        }
      ],
      "name": "calculateLoanOriginationFee",
      "outputs": [
        {
          "name": "",
          "type": "uint256"
        }
      ],
      "payable": false,
      "stateMutability": "view",
      "type": "function"
    },
    {
      "constant": true,
      "inputs": [],
      "name": "getLoanOriginationFeePercentage",
      "outputs": [
        {
          "name": "",
          "type": "uint256"
        }
      ],
      "payable": false,
      "stateMutability": "view",
      "type": "function"
    }
  ],
  "bytecode": "0x60806040526000805534801561001457600080fd5b50d3801561002157600080fd5b50d2801561002e57600080fd5b5061046d8061003e6000396000f3fe608060405234801561001057600080fd5b50d3801561001d57600080fd5b50d2801561002a57600080fd5b506004361061008d577c010000000000000000000000000000000000000000000000000000000060003504639403ed3a8114610092578063b0d73d4e146100ac578063c211f9a4146100b4578063c4d66de8146100bc578063e563a7d0146100f1575b600080fd5b61009a61012a565b60408051918252519081900360200190f35b61009a610130565b61009a610135565b6100ef600480360360208110156100d257600080fd5b503573ffffffffffffffffffffffffffffffffffffffff1661013b565b005b61009a6004803603604081101561010757600080fd5b5073ffffffffffffffffffffffffffffffffffffffff81351690602001356101e8565b60345481565b600181565b60345490565b6000610145610208565b60015490915060ff168061015c575061015c61020d565b80610168575060005481115b15156101a85760405160e560020a62461bcd02815260040180806020018281038252602e815260200180610414602e913960400191505060405180910390fd5b60015460ff161580156101c7576001805460ff19168117905560008290555b6608e1bc9bf0400060345580156101e3576001805460ff191690555b505050565b60006101ff6034548361021390919063ffffffff16565b90505b92915050565b600190565b303b1590565b60006101ff670de0b6b3a7640000610243610234868663ffffffff61024f16565b6706f05b59d3b20000906102af565b9063ffffffff61030c16565b600082151561026057506000610202565b82820282848281151561026f57fe5b04146101ff5760405160e560020a62461bcd0281526004018080602001828103825260218152602001806103f36021913960400191505060405180910390fd5b6000828201838110156101ff576040805160e560020a62461bcd02815260206004820152601b60248201527f536166654d6174683a206164646974696f6e206f766572666c6f770000000000604482015290519081900360640190fd5b60006101ff83836040805190810160405280601a81526020017f536166654d6174683a206469766973696f6e206279207a65726f0000000000008152506000818184116103da5760405160e560020a62461bcd0281526004018080602001828103825283818151815260200191508051906020019080838360005b8381101561039f578181015183820152602001610387565b50505050905090810190601f1680156103cc5780820380516001836020036101000a031916815260200191505b509250505060405180910390fd5b50600083858115156103e857fe5b049594505050505056fe536166654d6174683a206d756c7469706c69636174696f6e206f766572666c6f77436f6e747261637420696e7374616e63652068617320616c7265616479206265656e20696e697469616c697a6564a165627a7a72305820d3e3655203f10d0a8899ee6d282b9bac67a46bb620f27cb5c76527350a26caee0029",
  "source": "pragma solidity ^0.5.0;\n\nimport \"../libraries/openzeppelin-upgradeability/VersionedInitializable.sol\";\nimport \"../interfaces/IFeeProvider.sol\";\nimport \"../libraries/WadRayMath.sol\";\n\n\n/**\n* @title FeeProvider contract\n* @notice Implements calculation for the fees applied by the protocol\n* @author Aave\n**/\ncontract FeeProvider is IFeeProvider, VersionedInitializable {\n    using WadRayMath for uint256;\n\n    // percentage of the fee to be calculated on the loan amount\n    uint256 public originationFeePercentage;\n\n\n    uint256 constant public FEE_PROVIDER_REVISION = 0x1;\n\n    function getRevision() internal pure returns(uint256) {\n        return FEE_PROVIDER_REVISION;\n    }\n    /**\n    * @dev initializes the FeeProvider after it's added to the proxy\n    * @param _addressesProvider the address of the LendingPoolAddressesProvider\n    */\n    function initialize(address _addressesProvider) public initializer {\n        /// @notice origination fee is set as default as 25 basis points of the loan amount (0.0025%)\n        originationFeePercentage = 0.0025 * 1e18;\n    }\n\n    /**\n    * @dev calculates the origination fee for every loan executed on the platform.\n    * @param _user can be used in the future to apply discount to the origination fee based on the\n    * _user account (eg. stake AAVE tokens in the lending pool, or deposit > 1M USD etc.)\n    * @param _amount the amount of the loan\n    **/\n    function calculateLoanOriginationFee(address _user, uint256 _amount) external view returns (uint256) {\n        return _amount.wadMul(originationFeePercentage);\n    }\n\n    /**\n    * @dev returns the origination fee percentage\n    **/\n    function getLoanOriginationFeePercentage() external view returns (uint256) {\n        return originationFeePercentage;\n    }\n\n}\n",
  "sourcePath": "/Users/bibodeng/Programming/water_loan_core/contracts/fees/FeeProvider.sol",
  "compiler": {
    "name": "solc",
    "version": "0.5.4+commit.d15a3125.mod.Emscripten.clang"
  },
  "schemaVersion": "2.0.1",
  "updatedAt": "2020-12-06T14:57:27.649Z"
}