{
  "contractName": "GSNRecipientERC20Fee",
  "abi": [
    {
      "constant": true,
      "inputs": [],
      "name": "getHubAddr",
      "outputs": [
        {
          "name": "",
          "type": "address"
        }
      ],
      "payable": false,
      "stateMutability": "view",
      "type": "function"
    },
    {
      "constant": false,
      "inputs": [
        {
          "name": "context",
          "type": "bytes"
        }
      ],
      "name": "preRelayedCall",
      "outputs": [
        {
          "name": "",
          "type": "bytes32"
        }
      ],
      "payable": false,
      "stateMutability": "nonpayable",
      "type": "function"
    },
    {
      "constant": true,
      "inputs": [],
      "name": "relayHubVersion",
      "outputs": [
        {
          "name": "",
          "type": "string"
        }
      ],
      "payable": false,
      "stateMutability": "view",
      "type": "function"
    },
    {
      "constant": false,
      "inputs": [
        {
          "name": "context",
          "type": "bytes"
        },
        {
          "name": "success",
          "type": "bool"
        },
        {
          "name": "actualCharge",
          "type": "uint256"
        },
        {
          "name": "preRetVal",
          "type": "bytes32"
        }
      ],
      "name": "postRelayedCall",
      "outputs": [],
      "payable": false,
      "stateMutability": "nonpayable",
      "type": "function"
    },
    {
      "inputs": [
        {
          "name": "name",
          "type": "string"
        },
        {
          "name": "symbol",
          "type": "string"
        }
      ],
      "payable": false,
      "stateMutability": "nonpayable",
      "type": "constructor"
    },
    {
      "anonymous": false,
      "inputs": [
        {
          "indexed": true,
          "name": "oldRelayHub",
          "type": "address"
        },
        {
          "indexed": true,
          "name": "newRelayHub",
          "type": "address"
        }
      ],
      "name": "RelayHubChanged",
      "type": "event"
    },
    {
      "constant": true,
      "inputs": [],
      "name": "token",
      "outputs": [
        {
          "name": "",
          "type": "address"
        }
      ],
      "payable": false,
      "stateMutability": "view",
      "type": "function"
    },
    {
      "constant": true,
      "inputs": [
        {
          "name": "",
          "type": "address"
        },
        {
          "name": "from",
          "type": "address"
        },
        {
          "name": "",
          "type": "bytes"
        },
        {
          "name": "transactionFee",
          "type": "uint256"
        },
        {
          "name": "gasPrice",
          "type": "uint256"
        },
        {
          "name": "",
          "type": "uint256"
        },
        {
          "name": "",
          "type": "uint256"
        },
        {
          "name": "",
          "type": "bytes"
        },
        {
          "name": "maxPossibleCharge",
          "type": "uint256"
        }
      ],
      "name": "acceptRelayedCall",
      "outputs": [
        {
          "name": "",
          "type": "uint256"
        },
        {
          "name": "",
          "type": "bytes"
        }
      ],
      "payable": false,
      "stateMutability": "view",
      "type": "function"
    }
  ],
  "bytecode": "0x608060405260008054600160a060020a03191673d216153c06e857cd7f72665e0af1d7d82172f49417905534801561003657600080fd5b50d3801561004357600080fd5b50d2801561005057600080fd5b5060405162001f0f38038062001f0f8339810180604052604081101561007557600080fd5b81019080805164010000000081111561008d57600080fd5b820160208101848111156100a057600080fd5b81516401000000008111828201871017156100ba57600080fd5b505092919060200180516401000000008111156100d657600080fd5b820160208101848111156100e957600080fd5b815164010000000081118282018710171561010357600080fd5b50509291905050508181601260405161011b90610239565b60ff82166040820152606080825284519082015283518190602080830191608084019188019080838360005b8381101561015f578181015183820152602001610147565b50505050905090810190601f16801561018c5780820380516001836020036101000a031916815260200191505b50838103825285518152855160209182019187019080838360005b838110156101bf5781810151838201526020016101a7565b50505050905090810190601f1680156101ec5780820380516001836020036101000a031916815260200191505b5095505050505050604051809103906000f080158015610210573d6000803e3d6000fd5b5060018054600160a060020a031916600160a060020a0392909216919091179055506102479050565b6111138062000dfc83390190565b610ba580620002576000396000f3fe608060405234801561001057600080fd5b50d3801561001d57600080fd5b50d2801561002a57600080fd5b5060043610610098577c0100000000000000000000000000000000000000000000000000000000600035046374e861d6811461009d57806380274db7146100c157806383947ea014610143578063ad61ccd5146102b4578063e06e0e2214610331578063fc0c546a146103b1575b600080fd5b6100a56103b9565b60408051600160a060020a039092168252519081900360200190f35b610131600480360360208110156100d757600080fd5b8101906020810181356401000000008111156100f257600080fd5b82018360208201111561010457600080fd5b8035906020019184600183028401116401000000008311171561012657600080fd5b5090925090506103c8565b60408051918252519081900360200190f35b610235600480360361012081101561015a57600080fd5b600160a060020a03823581169260208101359091169181019060608101604082013564010000000081111561018e57600080fd5b8201836020820111156101a057600080fd5b803590602001918460018302840111640100000000831117156101c257600080fd5b9193909282359260208101359260408201359260608301359260a0810190608001356401000000008111156101f657600080fd5b82018360208201111561020857600080fd5b8035906020019184600183028401116401000000008311171561022a57600080fd5b919350915035610461565b6040518083815260200180602001828103825283818151815260200191508051906020019080838360005b83811015610278578181015183820152602001610260565b50505050905090810190601f1680156102a55780820380516001836020036101000a031916815260200191505b50935050505060405180910390f35b6102bc61056b565b6040805160208082528351818301528351919283929083019185019080838360005b838110156102f65781810151838201526020016102de565b50505050905090810190601f1680156103235780820380516001836020036101000a031916815260200191505b509250505060405180910390f35b6103af6004803603608081101561034757600080fd5b81019060208101813564010000000081111561036257600080fd5b82018360208201111561037457600080fd5b8035906020019184600183028401116401000000008311171561039657600080fd5b91935091508035151590602081013590604001356105a2565b005b6100a561063e565b600054600160a060020a031690565b60006103d26103b9565b600160a060020a0316331461041b5760405160e560020a62461bcd028152600401808060200182810382526024815260200180610b2c6024913960400191505060405180910390fd5b61045a83838080601f01602080910402602001604051908101604052809392919081815260200183838082843760009201919091525061064d92505050565b9392505050565b600154604080517f70a08231000000000000000000000000000000000000000000000000000000008152600160a060020a038d81166004830152915160009360609386939116916370a0823191602480820192602092909190829003018186803b1580156104ce57600080fd5b505afa1580156104e2573d6000803e3d6000fd5b505050506040513d60208110156104f857600080fd5b505110156105135761050a600061069a565b9150915061055b565b60408051600160a060020a038e166020820152808201859052606081018b905260808082018b90528251808303909101815260a0909101909152610556906106b2565b915091505b9b509b9950505050505050505050565b60408051808201909152600581527f312e302e30000000000000000000000000000000000000000000000000000000602082015290565b6105aa6103b9565b600160a060020a031633146105f35760405160e560020a62461bcd028152600401808060200182810382526024815260200180610b2c6024913960400191505060405180910390fd5b61063785858080601f0160208091040260200160405190810160405280939291908181526020018383808284376000920191909152508792508691508590506106b7565b5050505050565b600154600160a060020a031690565b600080600083806020019051604081101561066757600080fd5b508051602090910151600154919350915061069390600160a060020a031683308463ffffffff61075c16565b5050919050565b604080516020810190915260008152600b9190910191565b600091565b6000806000808780602001905160808110156106d257600080fd5b50805160208201516040830151606090930151919650945090925090506000610710610709620186a061271063ffffffff6107ea16565b838561082c565b9050610722878263ffffffff6107ea16565b965061075185610738868a63ffffffff6107ea16565b600154600160a060020a0316919063ffffffff61083a16565b505050505050505050565b60408051600160a060020a0385811660248301528416604482015260648082018490528251808303909101815260849091019091526020810180517bffffffffffffffffffffffffffffffffffffffffffffffffffffffff167f23b872dd000000000000000000000000000000000000000000000000000000001790526107e49085906108bf565b50505050565b600061045a83836040805190810160405280601e81526020017f536166654d6174683a207375627472616374696f6e206f766572666c6f770000815250610a89565b606490810191909202020490565b60408051600160a060020a038416602482015260448082018490528251808303909101815260649091019091526020810180517bffffffffffffffffffffffffffffffffffffffffffffffffffffffff167fa9059cbb000000000000000000000000000000000000000000000000000000001790526108ba9084906108bf565b505050565b6108d182600160a060020a0316610b23565b1515610927576040805160e560020a62461bcd02815260206004820152601f60248201527f5361666545524332303a2063616c6c20746f206e6f6e2d636f6e747261637400604482015290519081900360640190fd5b6000606083600160a060020a0316836040518082805190602001908083835b602083106109655780518252601f199092019160209182019101610946565b6001836020036101000a0380198251168184511680821785525050505050509050019150506000604051808303816000865af19150503d80600081146109c7576040519150601f19603f3d011682016040523d82523d6000602084013e6109cc565b606091505b5091509150811515610a28576040805160e560020a62461bcd02815260206004820181905260248201527f5361666545524332303a206c6f772d6c6576656c2063616c6c206661696c6564604482015290519081900360640190fd5b6000815111156107e457808060200190516020811015610a4757600080fd5b505115156107e45760405160e560020a62461bcd02815260040180806020018281038252602a815260200180610b50602a913960400191505060405180910390fd5b60008184841115610b1b5760405160e560020a62461bcd0281526004018080602001828103825283818151815260200191508051906020019080838360005b83811015610ae0578181015183820152602001610ac8565b50505050905090810190601f168015610b0d5780820380516001836020036101000a031916815260200191505b509250505060405180910390fd5b505050900390565b6000903b119056fe47534e526563697069656e743a2063616c6c6572206973206e6f742052656c61794875625361666545524332303a204552433230206f7065726174696f6e20646964206e6f742073756363656564a165627a7a7230582096691daee32a0512a063e3b265d7e4b39b2d17e9f92b40b00756cf5a83b3439e002960806040523480156200001157600080fd5b50d380156200001f57600080fd5b50d280156200002d57600080fd5b506040516200111338038062001113833981018060405260608110156200005357600080fd5b8101908080516401000000008111156200006c57600080fd5b820160208101848111156200008057600080fd5b81516401000000008111828201871017156200009b57600080fd5b50509291906020018051640100000000811115620000b857600080fd5b82016020810184811115620000cc57600080fd5b8151640100000000811182820187101715620000e757600080fd5b5050602091820151855191945092508491849184916200010d91600391860190620001bc565b50815162000123906004906020850190620001bc565b506005805460ff191660ff92909216919091179055506200014e9050640100000000620001b7810204565b6005805461010060a860020a031916610100600160a060020a039384168102919091179182905560408051919092049092168252517f4101e71e974f68df5e9730cc223280b41654676bbb052cdcc735c3337e64d2d9916020908290030190a15050506200025e565b335b90565b828054600181600116156101000203166002900490600052602060002090601f016020900481019282601f10620001ff57805160ff19168380011785556200022f565b828001600101855582156200022f579182015b828111156200022f57825182559160200191906001019062000212565b506200023d92915062000241565b5090565b620001b991905b808211156200023d576000815560010162000248565b610ea5806200026e6000396000f3fe608060405234801561001057600080fd5b50d3801561001d57600080fd5b50d2801561002a57600080fd5b5060043610610121576000357c01000000000000000000000000000000000000000000000000000000009004806340c10f19116100c3578063a457c2d71161009d578063a457c2d7146102ff578063a9059cbb1461032b578063c6dbdf6114610357578063dd62ed3e1461037b57610121565b806340c10f19146102a557806370a08231146102d157806395d89b41146102f757610121565b80632348238c116100ff5780632348238c146101fd57806323b872dd14610225578063313ce5671461025b578063395093511461027957610121565b806306fdde0314610126578063095ea7b3146101a357806318160ddd146101e3575b600080fd5b61012e6103a9565b6040805160208082528351818301528351919283929083019185019080838360005b83811015610168578181015183820152602001610150565b50505050905090810190601f1680156101955780820380516001836020036101000a031916815260200191505b509250505060405180910390f35b6101cf600480360360408110156101b957600080fd5b50600160a060020a03813516906020013561043f565b604080519115158252519081900360200190f35b6101eb61045d565b60408051918252519081900360200190f35b6102236004803603602081101561021357600080fd5b5035600160a060020a0316610463565b005b6101cf6004803603606081101561023b57600080fd5b50600160a060020a0381358116916020810135909116906040013561057f565b6102636105ca565b6040805160ff9092168252519081900360200190f35b6101cf6004803603604081101561028f57600080fd5b50600160a060020a0381351690602001356105d3565b610223600480360360408110156102bb57600080fd5b50600160a060020a03813516906020013561062c565b6101eb600480360360208110156102e757600080fd5b5035600160a060020a031661069b565b61012e6106b6565b6101cf6004803603604081101561031557600080fd5b50600160a060020a038135169060200135610717565b6101cf6004803603604081101561034157600080fd5b50600160a060020a038135169060200135610786565b61035f61079a565b60408051600160a060020a039092168252519081900360200190f35b6101eb6004803603604081101561039157600080fd5b50600160a060020a03813581169160200135166107ae565b60038054604080516020601f60026000196101006001881615020190951694909404938401819004810282018101909252828152606093909290918301828280156104355780601f1061040a57610100808354040283529160200191610435565b820191906000526020600020905b81548152906001019060200180831161041857829003601f168201915b5050505050905090565b600061045361044c6107eb565b84846107ef565b5060015b92915050565b60025490565b6005546101009004600160a060020a031661047c6107eb565b600160a060020a0316146104c45760405160e560020a62461bcd02815260040180806020018281038252602c815260200180610e05602c913960400191505060405180910390fd5b600160a060020a038116151561050e5760405160e560020a62461bcd02815260040180806020018281038252602a815260200180610db6602a913960400191505060405180910390fd5b60058054600160a060020a0380841661010090810274ffffffffffffffffffffffffffffffffffffffff00199093169290921792839055604080519290930416815290517f4101e71e974f68df5e9730cc223280b41654676bbb052cdcc735c3337e64d2d99181900360200190a150565b600061058961079a565b600160a060020a031683600160a060020a031614156105b5576105ad848484610825565b5060016105c3565b6105c084848461098c565b90505b9392505050565b60055460ff1690565b60006104536105e06107eb565b8461062785600160006105f16107eb565b600160a060020a03908116825260208083019390935260409182016000908120918c16815292529020549063ffffffff610a1516565b6107ef565b6005546101009004600160a060020a03166106456107eb565b600160a060020a03161461068d5760405160e560020a62461bcd02815260040180806020018281038252602c815260200180610e05602c913960400191505060405180910390fd5b6106978282610a72565b5050565b600160a060020a031660009081526020819052604090205490565b60048054604080516020601f60026000196101006001881615020190951694909404938401819004810282018101909252828152606093909290918301828280156104355780601f1061040a57610100808354040283529160200191610435565b60006104536107246107eb565b846106278560606040519081016040528060258152602001610e55602591396001600061074f6107eb565b600160a060020a03908116825260208083019390935260409182016000908120918d1681529252902054919063ffffffff610b6716565b60006104536107936107eb565b8484610825565b6005546101009004600160a060020a031690565b60006107b861079a565b600160a060020a031682600160a060020a031614156107da5750600019610457565b6107e48383610c01565b9050610457565b3390565b6107f761079a565b600160a060020a031682600160a060020a0316141561081557610820565b610820838383610c2c565b505050565b600160a060020a038316151561086f5760405160e560020a62461bcd028152600401808060200182810382526025815260200180610de06025913960400191505060405180910390fd5b600160a060020a03821615156108b95760405160e560020a62461bcd028152600401808060200182810382526023815260200180610d236023913960400191505060405180910390fd5b6108fd8160606040519081016040528060268152602001610d6860269139600160a060020a038616600090815260208190526040902054919063ffffffff610b6716565b600160a060020a038085166000908152602081905260408082209390935590841681522054610932908263ffffffff610a1516565b600160a060020a038084166000818152602081815260409182902094909455805185815290519193928716927fddf252ad1be2c89b69c2b068fc378daa952ba7f163c4a11628f55a4df523b3ef92918290030190a3505050565b6000610999848484610825565b610a0b846109a56107eb565b6106278560606040519081016040528060288152602001610d8e60289139600160a060020a038a166000908152600160205260408120906109e46107eb565b600160a060020a03168152602081019190915260400160002054919063ffffffff610b6716565b5060019392505050565b6000828201838110156105c3576040805160e560020a62461bcd02815260206004820152601b60248201527f536166654d6174683a206164646974696f6e206f766572666c6f770000000000604482015290519081900360640190fd5b600160a060020a0382161515610ad2576040805160e560020a62461bcd02815260206004820152601f60248201527f45524332303a206d696e7420746f20746865207a65726f206164647265737300604482015290519081900360640190fd5b600254610ae5908263ffffffff610a1516565b600255600160a060020a038216600090815260208190526040902054610b11908263ffffffff610a1516565b600160a060020a0383166000818152602081815260408083209490945583518581529351929391927fddf252ad1be2c89b69c2b068fc378daa952ba7f163c4a11628f55a4df523b3ef9281900390910190a35050565b60008184841115610bf95760405160e560020a62461bcd0281526004018080602001828103825283818151815260200191508051906020019080838360005b83811015610bbe578181015183820152602001610ba6565b50505050905090810190601f168015610beb5780820380516001836020036101000a031916815260200191505b509250505060405180910390fd5b505050900390565b600160a060020a03918216600090815260016020908152604080832093909416825291909152205490565b600160a060020a0383161515610c765760405160e560020a62461bcd028152600401808060200182810382526024815260200180610e316024913960400191505060405180910390fd5b600160a060020a0382161515610cc05760405160e560020a62461bcd028152600401808060200182810382526022815260200180610d466022913960400191505060405180910390fd5b600160a060020a03808416600081815260016020908152604080832094871680845294825291829020859055815185815291517f8c5be1e5ebec7d5bd14f71427d1e84f3dd0314c0f7b2291e5b200ac8c7c3b9259281900390910190a350505056fe45524332303a207472616e7366657220746f20746865207a65726f206164647265737345524332303a20617070726f766520746f20746865207a65726f206164647265737345524332303a207472616e7366657220616d6f756e7420657863656564732062616c616e636545524332303a207472616e7366657220616d6f756e74206578636565647320616c6c6f77616e63655365636f6e646172793a206e6577207072696d61727920697320746865207a65726f206164647265737345524332303a207472616e736665722066726f6d20746865207a65726f20616464726573735365636f6e646172793a2063616c6c6572206973206e6f7420746865207072696d617279206163636f756e7445524332303a20617070726f76652066726f6d20746865207a65726f206164647265737345524332303a2064656372656173656420616c6c6f77616e63652062656c6f77207a65726fa165627a7a7230582037451f28eb351fd284be54fb0dba498ea46265e1574928886c1443bd403b66e50029",
  "source": "pragma solidity ^0.5.0;\n\nimport \"./GSNRecipient.sol\";\nimport \"../math/SafeMath.sol\";\nimport \"../ownership/Secondary.sol\";\nimport \"../token/ERC20/SafeERC20.sol\";\nimport \"../token/ERC20/ERC20.sol\";\nimport \"../token/ERC20/ERC20Detailed.sol\";\n\n/**\n * @dev A xref:ROOT:gsn-strategies.adoc#gsn-strategies[GSN strategy] that charges transaction fees in a special purpose ERC20\n * token, which we refer to as the gas payment token. The amount charged is exactly the amount of Ether charged to the\n * recipient. This means that the token is essentially pegged to the value of Ether.\n *\n * The distribution strategy of the gas payment token to users is not defined by this contract. It's a mintable token\n * whose only minter is the recipient, so the strategy must be implemented in a derived contract, making use of the\n * internal {_mint} function.\n */\ncontract GSNRecipientERC20Fee is GSNRecipient {\n    using SafeERC20 for __unstable__ERC20PrimaryAdmin;\n    using SafeMath for uint256;\n\n    enum GSNRecipientERC20FeeErrorCodes {\n        INSUFFICIENT_BALANCE\n    }\n\n    __unstable__ERC20PrimaryAdmin private _token;\n\n    /**\n     * @dev The arguments to the constructor are the details that the gas payment token will have: `name` and `symbol`. `decimals` is hard-coded to 18.\n     */\n    constructor(string memory name, string memory symbol) public {\n        _token = new __unstable__ERC20PrimaryAdmin(name, symbol, 18);\n    }\n\n    /**\n     * @dev Returns the gas payment token.\n     */\n    function token() public view returns (IERC20) {\n        return IERC20(_token);\n    }\n\n    /**\n     * @dev Internal function that mints the gas payment token. Derived contracts should expose this function in their public API, with proper access control mechanisms.\n     */\n    function _mint(address account, uint256 amount) internal {\n        _token.mint(account, amount);\n    }\n\n    /**\n     * @dev Ensures that only users with enough gas payment token balance can have transactions relayed through the GSN.\n     */\n    function acceptRelayedCall(\n        address,\n        address from,\n        bytes calldata,\n        uint256 transactionFee,\n        uint256 gasPrice,\n        uint256,\n        uint256,\n        bytes calldata,\n        uint256 maxPossibleCharge\n    )\n        external\n        view\n        returns (uint256, bytes memory)\n    {\n        if (_token.balanceOf(from) < maxPossibleCharge) {\n            return _rejectRelayedCall(uint256(GSNRecipientERC20FeeErrorCodes.INSUFFICIENT_BALANCE));\n        }\n\n        return _approveRelayedCall(abi.encode(from, maxPossibleCharge, transactionFee, gasPrice));\n    }\n\n    /**\n     * @dev Implements the precharge to the user. The maximum possible charge (depending on gas limit, gas price, and\n     * fee) will be deducted from the user balance of gas payment token. Note that this is an overestimation of the\n     * actual charge, necessary because we cannot predict how much gas the execution will actually need. The remainder\n     * is returned to the user in {_postRelayedCall}.\n     */\n    function _preRelayedCall(bytes memory context) internal returns (bytes32) {\n        (address from, uint256 maxPossibleCharge) = abi.decode(context, (address, uint256));\n\n        // The maximum token charge is pre-charged from the user\n        _token.safeTransferFrom(from, address(this), maxPossibleCharge);\n    }\n\n    /**\n     * @dev Returns to the user the extra amount that was previously charged, once the actual execution cost is known.\n     */\n    function _postRelayedCall(bytes memory context, bool, uint256 actualCharge, bytes32) internal {\n        (address from, uint256 maxPossibleCharge, uint256 transactionFee, uint256 gasPrice) =\n            abi.decode(context, (address, uint256, uint256, uint256));\n\n        // actualCharge is an _estimated_ charge, which assumes postRelayedCall will use all available gas.\n        // This implementation's gas cost can be roughly estimated as 10k gas, for the two SSTORE operations in an\n        // ERC20 transfer.\n        uint256 overestimation = _computeCharge(POST_RELAYED_CALL_MAX_GAS.sub(10000), gasPrice, transactionFee);\n        actualCharge = actualCharge.sub(overestimation);\n\n        // After the relayed call has been executed and the actual charge estimated, the excess pre-charge is returned\n        _token.safeTransfer(from, maxPossibleCharge.sub(actualCharge));\n    }\n}\n\n/**\n * @title __unstable__ERC20PrimaryAdmin\n * @dev An ERC20 token owned by another contract, which has minting permissions and can use transferFrom to receive\n * anyone's tokens. This contract is an internal helper for GSNRecipientERC20Fee, and should not be used\n * outside of this context.\n */\n// solhint-disable-next-line contract-name-camelcase\ncontract __unstable__ERC20PrimaryAdmin is ERC20, ERC20Detailed, Secondary {\n    uint256 private constant UINT256_MAX = 2**256 - 1;\n\n    constructor(string memory name, string memory symbol, uint8 decimals) public ERC20Detailed(name, symbol, decimals) {\n        // solhint-disable-previous-line no-empty-blocks\n    }\n\n    // The primary account (GSNRecipientERC20Fee) can mint tokens\n    function mint(address account, uint256 amount) public onlyPrimary {\n        _mint(account, amount);\n    }\n\n    // The primary account has 'infinite' allowance for all token holders\n    function allowance(address owner, address spender) public view returns (uint256) {\n        if (spender == primary()) {\n            return UINT256_MAX;\n        } else {\n            return super.allowance(owner, spender);\n        }\n    }\n\n    // Allowance for the primary account cannot be changed (it is always 'infinite')\n    function _approve(address owner, address spender, uint256 value) internal {\n        if (spender == primary()) {\n            return;\n        } else {\n            super._approve(owner, spender, value);\n        }\n    }\n\n    function transferFrom(address sender, address recipient, uint256 amount) public returns (bool) {\n        if (recipient == primary()) {\n            _transfer(sender, recipient, amount);\n            return true;\n        } else {\n            return super.transferFrom(sender, recipient, amount);\n        }\n    }\n}\n",
  "sourcePath": "/Users/bibodeng/Programming/water_loan_core/contracts/libraries/openzeppelin-solidity/contracts/GSN/GSNRecipientERC20Fee.sol",
  "compiler": {
    "name": "solc",
    "version": "0.5.4+commit.d15a3125.mod.Emscripten.clang"
  },
  "schemaVersion": "2.0.1",
  "updatedAt": "2020-11-19T10:56:46.651Z"
}