{
  "contractName": "IERC20DetailedBytes",
  "abi": [
    {
      "constant": true,
      "inputs": [],
      "name": "name",
      "outputs": [
        {
          "name": "",
          "type": "bytes32"
        }
      ],
      "payable": false,
      "stateMutability": "view",
      "type": "function"
    },
    {
      "constant": true,
      "inputs": [],
      "name": "decimals",
      "outputs": [
        {
          "name": "",
          "type": "uint256"
        }
      ],
      "payable": false,
      "stateMutability": "view",
      "type": "function"
    },
    {
      "constant": true,
      "inputs": [],
      "name": "symbol",
      "outputs": [
        {
          "name": "",
          "type": "bytes32"
        }
      ],
      "payable": false,
      "stateMutability": "view",
      "type": "function"
    }
  ],
  "bytecode": "0x608060405234801561001057600080fd5b50d3801561001d57600080fd5b50d2801561002a57600080fd5b5060d7806100396000396000f3fe6080604052348015600f57600080fd5b50d38015601b57600080fd5b50d28015602757600080fd5b50600436106070577c0100000000000000000000000000000000000000000000000000000000600035046306fdde0381146075578063313ce56714608d57806395d89b41146093575b600080fd5b607b6099565b60408051918252519081900360200190f35b607b609f565b607b60a5565b60005481565b60025481565b6001548156fea165627a7a72305820fd965ab090c7458c5f043329bce042901f5c270a2243414061d8d2526052b5bc0029",
  "source": "pragma solidity ^0.5.0;\n\ncontract IERC20DetailedBytes {\n    bytes32  public  name;\n    bytes32  public  symbol;\n    uint256  public  decimals;\n}\n",
  "sourcePath": "/Users/bibodeng/Programming/water_loan_core/contracts/misc/IERC20DetailedBytes.sol",
  "compiler": {
    "name": "solc",
    "version": "0.5.4+commit.d15a3125.mod.Emscripten.clang"
  },
  "schemaVersion": "2.0.1",
  "updatedAt": "2020-11-19T10:56:46.903Z"
}