{
  "contractName": "IJustSwapInterface",
  "abi": [
    {
      "constant": false,
      "inputs": [],
      "name": "renounceOwnership",
      "outputs": [],
      "payable": false,
      "stateMutability": "nonpayable",
      "type": "function"
    },
    {
      "constant": true,
      "inputs": [],
      "name": "owner",
      "outputs": [
        {
          "name": "",
          "type": "address"
        }
      ],
      "payable": false,
      "stateMutability": "view",
      "type": "function"
    },
    {
      "constant": true,
      "inputs": [],
      "name": "isOwner",
      "outputs": [
        {
          "name": "",
          "type": "bool"
        }
      ],
      "payable": false,
      "stateMutability": "view",
      "type": "function"
    },
    {
      "constant": true,
      "inputs": [],
      "name": "factory",
      "outputs": [
        {
          "name": "",
          "type": "address"
        }
      ],
      "payable": false,
      "stateMutability": "view",
      "type": "function"
    },
    {
      "constant": false,
      "inputs": [
        {
          "name": "newOwner",
          "type": "address"
        }
      ],
      "name": "transferOwnership",
      "outputs": [],
      "payable": false,
      "stateMutability": "nonpayable",
      "type": "function"
    },
    {
      "anonymous": false,
      "inputs": [
        {
          "indexed": true,
          "name": "previousOwner",
          "type": "address"
        },
        {
          "indexed": true,
          "name": "newOwner",
          "type": "address"
        }
      ],
      "name": "OwnershipTransferred",
      "type": "event"
    },
    {
      "constant": false,
      "inputs": [
        {
          "name": "_factory",
          "type": "address"
        }
      ],
      "name": "setFactory",
      "outputs": [
        {
          "name": "",
          "type": "bool"
        }
      ],
      "payable": false,
      "stateMutability": "nonpayable",
      "type": "function"
    },
    {
      "constant": false,
      "inputs": [
        {
          "name": "_asset",
          "type": "address"
        },
        {
          "name": "_amount",
          "type": "uint256"
        },
        {
          "name": "_tokenToBurn",
          "type": "address"
        },
        {
          "name": "_destAddress",
          "type": "address"
        }
      ],
      "name": "tradeWithHint",
      "outputs": [
        {
          "name": "",
          "type": "uint256"
        }
      ],
      "payable": true,
      "stateMutability": "payable",
      "type": "function"
    }
  ],
  "bytecode": "0x6080604052610015640100000000610062810204565b60008054600160a060020a031916600160a060020a03928316178082556040519216917f8be0079c531659141344cd1fd0a4f28419497f9722a3daafe3b4186f6b6457e0908290a3610066565b3390565b6107de806100756000396000f3fe60806040526004361061008d576000357c0100000000000000000000000000000000000000000000000000000000900480638f32d59b1161006b5780638f32d59b1461016f578063c45a01551461019e578063f2fde38b146101cd578063f34f31af1461021a5761008d565b80635bb4780814610092578063715018a6146100f35780638da5cb5b14610124575b600080fd5b34801561009e57600080fd5b50d380156100ab57600080fd5b50d280156100b857600080fd5b506100df600480360360208110156100cf57600080fd5b5035600160a060020a0316610268565b604080519115158252519081900360200190f35b3480156100ff57600080fd5b50d3801561010c57600080fd5b50d2801561011957600080fd5b506101226102f9565b005b34801561013057600080fd5b50d3801561013d57600080fd5b50d2801561014a57600080fd5b506101536103ae565b60408051600160a060020a039092168252519081900360200190f35b34801561017b57600080fd5b50d3801561018857600080fd5b50d2801561019557600080fd5b506100df6103bd565b3480156101aa57600080fd5b50d380156101b757600080fd5b50d280156101c457600080fd5b506101536103e1565b3480156101d957600080fd5b50d380156101e657600080fd5b50d280156101f357600080fd5b506101226004803603602081101561020a57600080fd5b5035600160a060020a03166103f0565b6102566004803603608081101561023057600080fd5b50600160a060020a0381358116916020810135916040820135811691606001351661045a565b60408051918252519081900360200190f35b60006102726103bd565b15156102c8576040805160e560020a62461bcd02815260206004820181905260248201527f4f776e61626c653a2063616c6c6572206973206e6f7420746865206f776e6572604482015290519081900360640190fd5b6001805473ffffffffffffffffffffffffffffffffffffffff1916600160a060020a03939093169290921790915590565b6103016103bd565b1515610357576040805160e560020a62461bcd02815260206004820181905260248201527f4f776e61626c653a2063616c6c6572206973206e6f7420746865206f776e6572604482015290519081900360640190fd5b60008054604051600160a060020a03909116907f8be0079c531659141344cd1fd0a4f28419497f9722a3daafe3b4186f6b6457e0908390a36000805473ffffffffffffffffffffffffffffffffffffffff19169055565b600054600160a060020a031690565b60008054600160a060020a03166103d26106d6565b600160a060020a031614905090565b600154600160a060020a031681565b6103f86103bd565b151561044e576040805160e560020a62461bcd02815260206004820181905260248201527f4f776e61626c653a2063616c6c6572206973206e6f7420746865206f776e6572604482015290519081900360640190fd5b610457816106da565b50565b600154604080517f06f2bf62000000000000000000000000000000000000000000000000000000008152600160a060020a0387811660048301529151600093849316916306f2bf62916024808301926020929190829003018186803b1580156104c257600080fd5b505afa1580156104d6573d6000803e3d6000fd5b505050506040513d60208110156104ec57600080fd5b5051604080517f999bb7ac0000000000000000000000000000000000000000000000000000000081526004810188905260016024820152600a60448201529051919250600091600160a060020a0384169163999bb7ac91606480830192602092919082900301818787803b15801561056357600080fd5b505af1158015610577573d6000803e3d6000fd5b505050506040513d602081101561058d57600080fd5b5051600154604080517f06f2bf62000000000000000000000000000000000000000000000000000000008152600160a060020a038981166004830152915193945060009391909216916306f2bf62916024808301926020929190829003018186803b1580156105fb57600080fd5b505afa15801561060f573d6000803e3d6000fd5b505050506040513d602081101561062557600080fd5b5051604080517fce22f85800000000000000000000000000000000000000000000000000000000815260016004820152600a6024820152600160a060020a03888116604483015291519293509083169163ce22f858918591606480830192602092919082900301818588803b15801561069d57600080fd5b505af11580156106b1573d6000803e3d6000fd5b50505050506040513d60208110156106c857600080fd5b505198975050505050505050565b3390565b600160a060020a03811615156107245760405160e560020a62461bcd02815260040180806020018281038252602681526020018061078d6026913960400191505060405180910390fd5b60008054604051600160a060020a03808516939216917f8be0079c531659141344cd1fd0a4f28419497f9722a3daafe3b4186f6b6457e091a36000805473ffffffffffffffffffffffffffffffffffffffff1916600160a060020a039290921691909117905556fe4f776e61626c653a206e6577206f776e657220697320746865207a65726f2061646472657373a165627a7a72305820ed937cfbbcdfbcf56c3eaee9ed514d40d4aceec0c4561cc5d7e7f10b76e9d2940029",
  "source": "pragma solidity ^0.5.0;\n\nimport \"../libraries/openzeppelin-solidity/contracts/ownership/Ownable.sol\";\n\ninterface IJustSwapProxyInterface {\n    function tokenToTrxSwapInput(uint256 tokens_sold, uint256 min_trx, uint256 deadline) external returns (uint256);\n    function trxToTokenTransferInput(uint256 min_tokens, uint256 deadline, address recipient) external payable returns(uint256);\n}\n\ninterface IJustSwapFactoryInterface {\n    function getExchange(address token) external view returns (address payable);\n}\n\ncontract IJustSwapInterface is Ownable {\n    IJustSwapFactoryInterface public factory;\n\n    function setFactory(address _factory) external onlyOwner returns (bool) {\n        factory = IJustSwapFactoryInterface(_factory);\n    }\n\n    /***********\n    @dev returns the DBT\n     */\n    function tradeWithHint(address _asset, uint _amount, address _tokenToBurn, address _destAddress) external payable returns(uint256) {\n        IJustSwapProxyInterface assetFactory = IJustSwapProxyInterface(factory.getExchange(_asset));\n        uint256 trxcount = assetFactory.tokenToTrxSwapInput(_amount, 1, 10);\n        IJustSwapProxyInterface tokenToBurnFactory = IJustSwapProxyInterface(factory.getExchange(_tokenToBurn));\n        return tokenToBurnFactory.trxToTokenTransferInput.value(trxcount)(1, 10, _destAddress);\n    }\n}\n",
  "sourcePath": "/Users/bibodeng/Programming/water_loan_core/contracts/interfaces/IJustSwapInterface.sol",
  "compiler": {
    "name": "solc",
    "version": "0.5.4+commit.d15a3125.mod.Emscripten.clang"
  },
  "schemaVersion": "2.0.1",
  "updatedAt": "2020-11-19T10:56:46.551Z"
}