{
  "contractName": "InitializableAdminUpgradeabilityProxy",
  "abi": [
    {
      "constant": false,
      "inputs": [
        {
          "name": "newImplementation",
          "type": "address"
        }
      ],
      "name": "upgradeTo",
      "outputs": [],
      "payable": false,
      "stateMutability": "nonpayable",
      "type": "function"
    },
    {
      "constant": false,
      "inputs": [
        {
          "name": "newImplementation",
          "type": "address"
        },
        {
          "name": "data",
          "type": "bytes"
        }
      ],
      "name": "upgradeToAndCall",
      "outputs": [],
      "payable": true,
      "stateMutability": "payable",
      "type": "function"
    },
    {
      "constant": false,
      "inputs": [],
      "name": "implementation",
      "outputs": [
        {
          "name": "",
          "type": "address"
        }
      ],
      "payable": false,
      "stateMutability": "nonpayable",
      "type": "function"
    },
    {
      "constant": false,
      "inputs": [
        {
          "name": "newAdmin",
          "type": "address"
        }
      ],
      "name": "changeAdmin",
      "outputs": [],
      "payable": false,
      "stateMutability": "nonpayable",
      "type": "function"
    },
    {
      "constant": false,
      "inputs": [],
      "name": "admin",
      "outputs": [
        {
          "name": "",
          "type": "address"
        }
      ],
      "payable": false,
      "stateMutability": "nonpayable",
      "type": "function"
    },
    {
      "payable": true,
      "stateMutability": "payable",
      "type": "fallback"
    },
    {
      "anonymous": false,
      "inputs": [
        {
          "indexed": false,
          "name": "previousAdmin",
          "type": "address"
        },
        {
          "indexed": false,
          "name": "newAdmin",
          "type": "address"
        }
      ],
      "name": "AdminChanged",
      "type": "event"
    },
    {
      "anonymous": false,
      "inputs": [
        {
          "indexed": true,
          "name": "implementation",
          "type": "address"
        }
      ],
      "name": "Upgraded",
      "type": "event"
    },
    {
      "constant": false,
      "inputs": [
        {
          "name": "_logic",
          "type": "address"
        },
        {
          "name": "_admin",
          "type": "address"
        },
        {
          "name": "_data",
          "type": "bytes"
        }
      ],
      "name": "initialize",
      "outputs": [],
      "payable": true,
      "stateMutability": "payable",
      "type": "function"
    },
    {
      "constant": false,
      "inputs": [
        {
          "name": "_logic",
          "type": "address"
        },
        {
          "name": "_data",
          "type": "bytes"
        }
      ],
      "name": "initialize",
      "outputs": [],
      "payable": true,
      "stateMutability": "payable",
      "type": "function"
    }
  ],
  "bytecode": "0x608060405234801561001057600080fd5b50d3801561001d57600080fd5b50d2801561002a57600080fd5b50610d948061003a6000396000f3fe60806040526004361061008d576000357c0100000000000000000000000000000000000000000000000000000000900480638f2839701161006b5780638f2839701461020c578063cf7a1d7714610277578063d1f5789414610372578063f851a4401461044d5761008d565b80633659cfe6146100975780634f1ef286146101025780635c60da1b1461019b575b6100956104be565b005b3480156100a357600080fd5b50d380156100b057600080fd5b50d280156100bd57600080fd5b50610100600480360360208110156100d457600080fd5b81019080803573ffffffffffffffffffffffffffffffffffffffff1690602001909291905050506104d8565b005b6101996004803603604081101561011857600080fd5b81019080803573ffffffffffffffffffffffffffffffffffffffff1690602001909291908035906020019064010000000081111561015557600080fd5b82018360208201111561016757600080fd5b8035906020019184600183028401116401000000008311171561018957600080fd5b909192939192939050505061052d565b005b3480156101a757600080fd5b50d380156101b457600080fd5b50d280156101c157600080fd5b506101ca610605565b604051808273ffffffffffffffffffffffffffffffffffffffff1673ffffffffffffffffffffffffffffffffffffffff16815260200191505060405180910390f35b34801561021857600080fd5b50d3801561022557600080fd5b50d2801561023257600080fd5b506102756004803603602081101561024957600080fd5b81019080803573ffffffffffffffffffffffffffffffffffffffff16906020019092919050505061065d565b005b6103706004803603606081101561028d57600080fd5b81019080803573ffffffffffffffffffffffffffffffffffffffff169060200190929190803573ffffffffffffffffffffffffffffffffffffffff169060200190929190803590602001906401000000008111156102ea57600080fd5b8201836020820111156102fc57600080fd5b8035906020019184600183028401116401000000008311171561031e57600080fd5b91908080601f016020809104026020016040519081016040528093929190818152602001838380828437600081840152601f19601f8201169050808301925050505050505091929192905050506107d8565b005b61044b6004803603604081101561038857600080fd5b81019080803573ffffffffffffffffffffffffffffffffffffffff169060200190929190803590602001906401000000008111156103c557600080fd5b8201836020820111156103d757600080fd5b803590602001918460018302840111640100000000831117156103f957600080fd5b91908080601f016020809104026020016040519081016040528093929190818152602001838380828437600081840152601f19601f82011690508083019250505050505050919291929050505061089f565b005b34801561045957600080fd5b50d3801561046657600080fd5b50d2801561047357600080fd5b5061047c610a2b565b604051808273ffffffffffffffffffffffffffffffffffffffff1673ffffffffffffffffffffffffffffffffffffffff16815260200191505060405180910390f35b6104c6610a83565b6104d66104d1610b1b565b610b4c565b565b6104e0610b72565b73ffffffffffffffffffffffffffffffffffffffff163373ffffffffffffffffffffffffffffffffffffffff1614156105215761051c81610ba3565b61052a565b6105296104be565b5b50565b610535610b72565b73ffffffffffffffffffffffffffffffffffffffff163373ffffffffffffffffffffffffffffffffffffffff1614156105f75761057183610ba3565b60008373ffffffffffffffffffffffffffffffffffffffff168383604051808383808284378083019250505092505050600060405180830381855af49150503d80600081146105dc576040519150601f19603f3d011682016040523d82523d6000602084013e6105e1565b606091505b505090508015156105f157600080fd5b50610600565b6105ff6104be565b5b505050565b600061060f610b72565b73ffffffffffffffffffffffffffffffffffffffff163373ffffffffffffffffffffffffffffffffffffffff1614156106515761064a610b1b565b905061065a565b6106596104be565b5b90565b610665610b72565b73ffffffffffffffffffffffffffffffffffffffff163373ffffffffffffffffffffffffffffffffffffffff1614156107cc57600073ffffffffffffffffffffffffffffffffffffffff168173ffffffffffffffffffffffffffffffffffffffff1614151515610720576040517f08c379a0000000000000000000000000000000000000000000000000000000008152600401808060200182810382526036815260200180610cf86036913960400191505060405180910390fd5b7f7e644d79422f17c01e4894b5f4f588d331ebfa28653d42ae832dc59e38c9798f610749610b72565b82604051808373ffffffffffffffffffffffffffffffffffffffff1673ffffffffffffffffffffffffffffffffffffffff1681526020018273ffffffffffffffffffffffffffffffffffffffff1673ffffffffffffffffffffffffffffffffffffffff1681526020019250505060405180910390a16107c781610bf2565b6107d5565b6107d46104be565b5b50565b600073ffffffffffffffffffffffffffffffffffffffff166107f8610b1b565b73ffffffffffffffffffffffffffffffffffffffff1614151561081a57600080fd5b610824838261089f565b600160405180807f656970313936372e70726f78792e61646d696e000000000000000000000000008152506013019050604051809103902060019004036001027fb53127684a568b3173ae13b9f8a6016e243e63b6e8ee1178d6a717850b5d610360010214151561089157fe5b61089a82610bf2565b505050565b600073ffffffffffffffffffffffffffffffffffffffff166108bf610b1b565b73ffffffffffffffffffffffffffffffffffffffff161415156108e157600080fd5b600160405180807f656970313936372e70726f78792e696d706c656d656e746174696f6e00000000815250601c019050604051809103902060019004036001027f360894a13ba1a3210667c828492db98dca3e2076cc3735a920a3ca505d382bbc60010214151561094e57fe5b61095782610c21565b600081511115610a275760008273ffffffffffffffffffffffffffffffffffffffff16826040518082805190602001908083835b6020831015156109b0578051825260208201915060208101905060208303925061098b565b6001836020036101000a038019825116818451168082178552505050505050905001915050600060405180830381855af49150503d8060008114610a10576040519150601f19603f3d011682016040523d82523d6000602084013e610a15565b606091505b50509050801515610a2557600080fd5b505b5050565b6000610a35610b72565b73ffffffffffffffffffffffffffffffffffffffff163373ffffffffffffffffffffffffffffffffffffffff161415610a7757610a70610b72565b9050610a80565b610a7f6104be565b5b90565b610a8b610b72565b73ffffffffffffffffffffffffffffffffffffffff163373ffffffffffffffffffffffffffffffffffffffff1614151515610b11576040517f08c379a0000000000000000000000000000000000000000000000000000000008152600401808060200182810382526032815260200180610cc66032913960400191505060405180910390fd5b610b19610cb0565b565b6000807f360894a13ba1a3210667c828492db98dca3e2076cc3735a920a3ca505d382bbc6001029050805491505090565b3660008037600080366000845af43d6000803e8060008114610b6d573d6000f35b3d6000fd5b6000807fb53127684a568b3173ae13b9f8a6016e243e63b6e8ee1178d6a717850b5d61036001029050805491505090565b610bac81610c21565b8073ffffffffffffffffffffffffffffffffffffffff167fbc7cd75a20ee27fd9adebab32041f755214dbc6bffa90cc0225b39da2e5c2d3b60405160405180910390a250565b60007fb53127684a568b3173ae13b9f8a6016e243e63b6e8ee1178d6a717850b5d610360010290508181555050565b610c2a81610cb2565b1515610c81576040517f08c379a000000000000000000000000000000000000000000000000000000000815260040180806020018281038252603b815260200180610d2e603b913960400191505060405180910390fd5b60007f360894a13ba1a3210667c828492db98dca3e2076cc3735a920a3ca505d382bbc60010290508181555050565b565b600080823b90506000811191505091905056fe43616e6e6f742063616c6c2066616c6c6261636b2066756e6374696f6e2066726f6d207468652070726f78792061646d696e43616e6e6f74206368616e6765207468652061646d696e206f6620612070726f787920746f20746865207a65726f206164647265737343616e6e6f742073657420612070726f787920696d706c656d656e746174696f6e20746f2061206e6f6e2d636f6e74726163742061646472657373a165627a7a72305820aff5cfca2550dcac6e6b0b367d58bfde2785bacdd78d429e7951d05fcab04bf20029",
  "source": "pragma solidity ^0.5.0;\n\nimport \"./BaseAdminUpgradeabilityProxy.sol\";\nimport \"./InitializableUpgradeabilityProxy.sol\";\n\n/**\n * @title InitializableAdminUpgradeabilityProxy\n * @dev Extends from BaseAdminUpgradeabilityProxy with an initializer for \n * initializing the implementation, admin, and init data.\n */\ncontract InitializableAdminUpgradeabilityProxy is BaseAdminUpgradeabilityProxy, InitializableUpgradeabilityProxy {\n    /**\n   * Contract initializer.\n   * @param _logic address of the initial implementation.\n   * @param _admin Address of the proxy administrator.\n   * @param _data Data to send as msg.data to the implementation to initialize the proxied contract.\n   * It should include the signature and the parameters of the function to be called, as described in\n   * https://solidity.readthedocs.io/en/v0.4.24/abi-spec.html#function-selector-and-argument-encoding.\n   * This parameter is optional, if no data is given the initialization call to proxied contract will be skipped.\n   */\n    function initialize(address _logic, address _admin, bytes memory _data) public payable {\n        require(_implementation() == address(0));\n        InitializableUpgradeabilityProxy.initialize(_logic, _data);\n        assert(ADMIN_SLOT == bytes32(uint256(keccak256(\"eip1967.proxy.admin\")) - 1));\n        _setAdmin(_admin);\n    }\n}\n",
  "sourcePath": "/Users/bibodeng/Programming/water_loan_core/contracts/libraries/openzeppelin-upgradeability/InitializableAdminUpgradeabilityProxy.sol",
  "compiler": {
    "name": "solc",
    "version": "0.5.4+commit.d15a3125.mod.Emscripten.clang"
  },
  "schemaVersion": "2.0.1",
  "updatedAt": "2020-12-06T14:51:53.240Z"
}