{
  "contractName": "InitializableUpgradeabilityProxy",
  "abi": [
    {
      "payable": true,
      "stateMutability": "payable",
      "type": "fallback"
    },
    {
      "anonymous": false,
      "inputs": [
        {
          "indexed": true,
          "name": "implementation",
          "type": "address"
        }
      ],
      "name": "Upgraded",
      "type": "event"
    },
    {
      "constant": false,
      "inputs": [
        {
          "name": "_logic",
          "type": "address"
        },
        {
          "name": "_data",
          "type": "bytes"
        }
      ],
      "name": "initialize",
      "outputs": [],
      "payable": true,
      "stateMutability": "payable",
      "type": "function"
    }
  ],
  "bytecode": "0x608060405234801561001057600080fd5b50d3801561001d57600080fd5b50d2801561002a57600080fd5b506104288061003a6000396000f3fe60806040526004361061003b576000357c010000000000000000000000000000000000000000000000000000000090048063d1f5789414610045575b610043610120565b005b61011e6004803603604081101561005b57600080fd5b81019080803573ffffffffffffffffffffffffffffffffffffffff1690602001909291908035906020019064010000000081111561009857600080fd5b8201836020820111156100aa57600080fd5b803590602001918460018302840111640100000000831117156100cc57600080fd5b91908080601f016020809104026020016040519081016040528093929190818152602001838380828437600081840152601f19601f82011690508083019250505050505050919291929050505061013a565b005b6101286102c6565b6101386101336102c8565b6102f9565b565b600073ffffffffffffffffffffffffffffffffffffffff1661015a6102c8565b73ffffffffffffffffffffffffffffffffffffffff1614151561017c57600080fd5b600160405180807f656970313936372e70726f78792e696d706c656d656e746174696f6e00000000815250601c019050604051809103902060019004036001027f360894a13ba1a3210667c828492db98dca3e2076cc3735a920a3ca505d382bbc6001021415156101e957fe5b6101f28261031f565b6000815111156102c25760008273ffffffffffffffffffffffffffffffffffffffff16826040518082805190602001908083835b60208310151561024b5780518252602082019150602081019050602083039250610226565b6001836020036101000a038019825116818451168082178552505050505050905001915050600060405180830381855af49150503d80600081146102ab576040519150601f19603f3d011682016040523d82523d6000602084013e6102b0565b606091505b505090508015156102c057600080fd5b505b5050565b565b6000807f360894a13ba1a3210667c828492db98dca3e2076cc3735a920a3ca505d382bbc6001029050805491505090565b3660008037600080366000845af43d6000803e806000811461031a573d6000f35b3d6000fd5b610328816103ae565b151561037f576040517f08c379a000000000000000000000000000000000000000000000000000000000815260040180806020018281038252603b8152602001806103c2603b913960400191505060405180910390fd5b60007f360894a13ba1a3210667c828492db98dca3e2076cc3735a920a3ca505d382bbc60010290508181555050565b600080823b90506000811191505091905056fe43616e6e6f742073657420612070726f787920696d706c656d656e746174696f6e20746f2061206e6f6e2d636f6e74726163742061646472657373a165627a7a7230582023f27e6cad84cd7864457f998b59457c0dfaeab618016a27d4d3fa90c9fb50a70029",
  "source": "pragma solidity ^0.5.0;\n\nimport \"./BaseUpgradeabilityProxy.sol\";\n\n/**\n * @title InitializableUpgradeabilityProxy\n * @dev Extends BaseUpgradeabilityProxy with an initializer for initializing\n * implementation and init data.\n */\ncontract InitializableUpgradeabilityProxy is BaseUpgradeabilityProxy {\n    /**\n   * @dev Contract initializer.\n   * @param _logic Address of the initial implementation.\n   * @param _data Data to send as msg.data to the implementation to initialize the proxied contract.\n   * It should include the signature and the parameters of the function to be called, as described in\n   * https://solidity.readthedocs.io/en/v0.4.24/abi-spec.html#function-selector-and-argument-encoding.\n   * This parameter is optional, if no data is given the initialization call to proxied contract will be skipped.\n   */\n    function initialize(address _logic, bytes memory _data) public payable {\n        require(_implementation() == address(0));\n        assert(IMPLEMENTATION_SLOT == bytes32(uint256(keccak256(\"eip1967.proxy.implementation\")) - 1));\n        _setImplementation(_logic);\n        if (_data.length > 0) {\n            (bool success, ) = _logic.delegatecall(_data);\n            require(success);\n        }\n    }\n}\n",
  "sourcePath": "/Users/bibodeng/Programming/water_loan_core/contracts/libraries/openzeppelin-upgradeability/InitializableUpgradeabilityProxy.sol",
  "compiler": {
    "name": "solc",
    "version": "0.5.4+commit.d15a3125.mod.Emscripten.clang"
  },
  "schemaVersion": "2.0.1",
  "updatedAt": "2020-12-06T14:51:53.244Z"
}