{
  "contractName": "LendingPoolLiquidationManager",
  "abi": [
    {
      "constant": true,
      "inputs": [],
      "name": "addressesProvider",
      "outputs": [
        {
          "name": "",
          "type": "address"
        }
      ],
      "payable": false,
      "stateMutability": "view",
      "type": "function"
    },
    {
      "anonymous": false,
      "inputs": [
        {
          "indexed": true,
          "name": "_collateral",
          "type": "address"
        },
        {
          "indexed": true,
          "name": "_reserve",
          "type": "address"
        },
        {
          "indexed": true,
          "name": "_user",
          "type": "address"
        },
        {
          "indexed": false,
          "name": "_feeLiquidated",
          "type": "uint256"
        },
        {
          "indexed": false,
          "name": "_liquidatedCollateralForFee",
          "type": "uint256"
        },
        {
          "indexed": false,
          "name": "_timestamp",
          "type": "uint256"
        }
      ],
      "name": "OriginationFeeLiquidated",
      "type": "event"
    },
    {
      "anonymous": false,
      "inputs": [
        {
          "indexed": true,
          "name": "_collateral",
          "type": "address"
        },
        {
          "indexed": true,
          "name": "_reserve",
          "type": "address"
        },
        {
          "indexed": true,
          "name": "_user",
          "type": "address"
        },
        {
          "indexed": false,
          "name": "_purchaseAmount",
          "type": "uint256"
        },
        {
          "indexed": false,
          "name": "_liquidatedCollateralAmount",
          "type": "uint256"
        },
        {
          "indexed": false,
          "name": "_accruedBorrowInterest",
          "type": "uint256"
        },
        {
          "indexed": false,
          "name": "_liquidator",
          "type": "address"
        },
        {
          "indexed": false,
          "name": "_receiveAToken",
          "type": "bool"
        },
        {
          "indexed": false,
          "name": "_timestamp",
          "type": "uint256"
        }
      ],
      "name": "LiquidationCall",
      "type": "event"
    },
    {
      "constant": false,
      "inputs": [
        {
          "name": "_collateral",
          "type": "address"
        },
        {
          "name": "_reserve",
          "type": "address"
        },
        {
          "name": "_user",
          "type": "address"
        },
        {
          "name": "_purchaseAmount",
          "type": "uint256"
        },
        {
          "name": "_receiveAToken",
          "type": "bool"
        }
      ],
      "name": "liquidationCall",
      "outputs": [
        {
          "name": "",
          "type": "uint256"
        },
        {
          "name": "",
          "type": "string"
        }
      ],
      "payable": true,
      "stateMutability": "payable",
      "type": "function"
    }
  ],
  "bytecode": "0x608060405260006001556001600081905550612026806100206000396000f3fe608060405260043610610045576000357c010000000000000000000000000000000000000000000000000000000090048062a718a91461004a578063c72c4d1014610164575b600080fd5b6100e2600480360360a081101561006057600080fd5b81019080803573ffffffffffffffffffffffffffffffffffffffff169060200190929190803573ffffffffffffffffffffffffffffffffffffffff169060200190929190803573ffffffffffffffffffffffffffffffffffffffff169060200190929190803590602001909291908035151590602001909291905050506101d5565b6040518083815260200180602001828103825283818151815260200191508051906020019080838360005b8381101561012857808201518184015260208101905061010d565b50505050905090810190601f1680156101555780820380516001836020036101000a031916815260200191505b50935050505060405180910390f35b34801561017057600080fd5b50d3801561017d57600080fd5b50d2801561018a57600080fd5b50610193611727565b604051808273ffffffffffffffffffffffffffffffffffffffff1673ffffffffffffffffffffffffffffffffffffffff16815260200191505060405180910390f35b600060606101e1611e6d565b603760009054906101000a900473ffffffffffffffffffffffffffffffffffffffff1673ffffffffffffffffffffffffffffffffffffffff16632c6d0e9b876040518263ffffffff167c0100000000000000000000000000000000000000000000000000000000028152600401808273ffffffffffffffffffffffffffffffffffffffff1673ffffffffffffffffffffffffffffffffffffffff1681526020019150506101006040518083038186803b15801561029d57600080fd5b505afa1580156102b1573d6000803e3d6000fd5b505050506040513d6101008110156102c857600080fd5b8101908080519060200190929190805190602001909291908051906020019092919080519060200190929190805190602001909291908051906020019092919080519060200190929190805190602001909291905050509091929394959650909192939495509091929394509091929350909192509091509050816101e001811515151581525050806101e00151151561038d576004600581111561036957fe5b60606040519081016040528060288152602001611fa960289139925092505061171d565b603660009054906101000a900473ffffffffffffffffffffffffffffffffffffffff1673ffffffffffffffffffffffffffffffffffffffff166318a4dbca89886040518363ffffffff167c0100000000000000000000000000000000000000000000000000000000028152600401808373ffffffffffffffffffffffffffffffffffffffff1673ffffffffffffffffffffffffffffffffffffffff1681526020018273ffffffffffffffffffffffffffffffffffffffff1673ffffffffffffffffffffffffffffffffffffffff1681526020019250505060206040518083038186803b15801561047c57600080fd5b505afa158015610490573d6000803e3d6000fd5b505050506040513d60208110156104a657600080fd5b810190808051906020019092919050505081600001818152505060008160000151141561051a57600160058111156104da57fe5b6040805190810160405280601f81526020017f496e76616c696420636f6c6c61746572616c20746f206c697175696461746500815250925092505061171d565b603660009054906101000a900473ffffffffffffffffffffffffffffffffffffffff1673ffffffffffffffffffffffffffffffffffffffff166318f9bbae896040518263ffffffff167c0100000000000000000000000000000000000000000000000000000000028152600401808273ffffffffffffffffffffffffffffffffffffffff1673ffffffffffffffffffffffffffffffffffffffff16815260200191505060206040518083038186803b1580156105d557600080fd5b505afa1580156105e9573d6000803e3d6000fd5b505050506040513d60208110156105ff57600080fd5b810190808051906020019092919050505080156107425750603660009054906101000a900473ffffffffffffffffffffffffffffffffffffffff1673ffffffffffffffffffffffffffffffffffffffff16639e3c4f3b89886040518363ffffffff167c0100000000000000000000000000000000000000000000000000000000028152600401808373ffffffffffffffffffffffffffffffffffffffff1673ffffffffffffffffffffffffffffffffffffffff1681526020018273ffffffffffffffffffffffffffffffffffffffff1673ffffffffffffffffffffffffffffffffffffffff1681526020019250505060206040518083038186803b15801561070657600080fd5b505afa15801561071a573d6000803e3d6000fd5b505050506040513d602081101561073057600080fd5b81019080805190602001909291905050505b816101c0019015159081151581525050806101c00151151561078f576002600581111561076b57fe5b606060405190810160405280602a8152602001611f7f602a9139925092505061171d565b603660009054906101000a900473ffffffffffffffffffffffffffffffffffffffff1673ffffffffffffffffffffffffffffffffffffffff16639fb8afcd88886040518363ffffffff167c0100000000000000000000000000000000000000000000000000000000028152600401808373ffffffffffffffffffffffffffffffffffffffff1673ffffffffffffffffffffffffffffffffffffffff1681526020018273ffffffffffffffffffffffffffffffffffffffff1673ffffffffffffffffffffffffffffffffffffffff1681526020019250505060606040518083038186803b15801561087e57600080fd5b505afa158015610892573d6000803e3d6000fd5b505050506040513d60608110156108a857600080fd5b8101908080519060200190929190805190602001909291908051906020019092919050505090915082602001836040018281525082815250505060008160200151141561092057600360058111156108fc57fe5b606060405190810160405280602a8152602001611fd1602a9139925092505061171d565b61094b606461093d6032846020015161174d90919063ffffffff16565b6117d790919063ffffffff16565b81606001818152505080606001518511610965578461096b565b80606001515b81608001818152505060008061098b8a8a85608001518660000151611821565b91509150603660009054906101000a900473ffffffffffffffffffffffffffffffffffffffff1673ffffffffffffffffffffffffffffffffffffffff1663feab31ac8a8a6040518363ffffffff167c0100000000000000000000000000000000000000000000000000000000028152600401808373ffffffffffffffffffffffffffffffffffffffff1673ffffffffffffffffffffffffffffffffffffffff1681526020018273ffffffffffffffffffffffffffffffffffffffff1673ffffffffffffffffffffffffffffffffffffffff1681526020019250505060206040518083038186803b158015610a7e57600080fd5b505afa158015610a92573d6000803e3d6000fd5b505050506040513d6020811015610aa857600080fd5b81019080805190602001909291905050508361012001818152505060008361012001511115610b0d57610af88a8a856101200151610af3868860000151611c9790919063ffffffff16565b611821565b84610160018561014001828152508281525050505b8260800151811015610b2457808360800181815250505b851515610c62576000603660009054906101000a900473ffffffffffffffffffffffffffffffffffffffff1673ffffffffffffffffffffffffffffffffffffffff1663e24030198c6040518263ffffffff167c0100000000000000000000000000000000000000000000000000000000028152600401808273ffffffffffffffffffffffffffffffffffffffff1673ffffffffffffffffffffffffffffffffffffffff16815260200191505060206040518083038186803b158015610be857600080fd5b505afa158015610bfc573d6000803e3d6000fd5b505050506040513d6020811015610c1257600080fd5b8101908080519060200190929190505050905082811015610c6057600580811115610c3957fe5b60606040519081016040528060338152602001611f4c60339139955095505050505061171d565b505b603660009054906101000a900473ffffffffffffffffffffffffffffffffffffffff1673ffffffffffffffffffffffffffffffffffffffff166368beb4d68a8c8b8760800151878961014001518a61016001518b604001518f6040518a63ffffffff167c0100000000000000000000000000000000000000000000000000000000028152600401808a73ffffffffffffffffffffffffffffffffffffffff1673ffffffffffffffffffffffffffffffffffffffff1681526020018973ffffffffffffffffffffffffffffffffffffffff1673ffffffffffffffffffffffffffffffffffffffff1681526020018873ffffffffffffffffffffffffffffffffffffffff1673ffffffffffffffffffffffffffffffffffffffff168152602001878152602001868152602001858152602001848152602001838152602001821515151581526020019950505050505050505050600060405180830381600087803b158015610dcd57600080fd5b505af1158015610de1573d6000803e3d6000fd5b505050506000603660009054906101000a900473ffffffffffffffffffffffffffffffffffffffff1673ffffffffffffffffffffffffffffffffffffffff166334b3beee8c6040518263ffffffff167c0100000000000000000000000000000000000000000000000000000000028152600401808273ffffffffffffffffffffffffffffffffffffffff1673ffffffffffffffffffffffffffffffffffffffff16815260200191505060206040518083038186803b158015610ea257600080fd5b505afa158015610eb6573d6000803e3d6000fd5b505050506040513d6020811015610ecc57600080fd5b810190808051906020019092919050505090508615610fd9578073ffffffffffffffffffffffffffffffffffffffff1663f866c3198a33866040518463ffffffff167c0100000000000000000000000000000000000000000000000000000000028152600401808473ffffffffffffffffffffffffffffffffffffffff1673ffffffffffffffffffffffffffffffffffffffff1681526020018373ffffffffffffffffffffffffffffffffffffffff1673ffffffffffffffffffffffffffffffffffffffff1681526020018281526020019350505050600060405180830381600087803b158015610fbc57600080fd5b505af1158015610fd0573d6000803e3d6000fd5b505050506111a6565b8073ffffffffffffffffffffffffffffffffffffffff16633edb7cb88a856040518363ffffffff167c0100000000000000000000000000000000000000000000000000000000028152600401808373ffffffffffffffffffffffffffffffffffffffff1673ffffffffffffffffffffffffffffffffffffffff16815260200182815260200192505050600060405180830381600087803b15801561107c57600080fd5b505af1158015611090573d6000803e3d6000fd5b50505050603660009054906101000a900473ffffffffffffffffffffffffffffffffffffffff1673ffffffffffffffffffffffffffffffffffffffff1663fa93b2a58c33866040518463ffffffff167c0100000000000000000000000000000000000000000000000000000000028152600401808473ffffffffffffffffffffffffffffffffffffffff1673ffffffffffffffffffffffffffffffffffffffff1681526020018373ffffffffffffffffffffffffffffffffffffffff1673ffffffffffffffffffffffffffffffffffffffff1681526020018281526020019350505050600060405180830381600087803b15801561118d57600080fd5b505af11580156111a1573d6000803e3d6000fd5b505050505b603660009054906101000a900473ffffffffffffffffffffffffffffffffffffffff1673ffffffffffffffffffffffffffffffffffffffff166328fcf4d3348c3388608001516040518563ffffffff167c0100000000000000000000000000000000000000000000000000000000028152600401808473ffffffffffffffffffffffffffffffffffffffff1673ffffffffffffffffffffffffffffffffffffffff1681526020018373ffffffffffffffffffffffffffffffffffffffff1673ffffffffffffffffffffffffffffffffffffffff16815260200182815260200193505050506000604051808303818588803b1580156112a357600080fd5b505af11580156112b7573d6000803e3d6000fd5b5050505050600084610140015111156115f5578073ffffffffffffffffffffffffffffffffffffffff16633edb7cb88a8661016001516040518363ffffffff167c0100000000000000000000000000000000000000000000000000000000028152600401808373ffffffffffffffffffffffffffffffffffffffff1673ffffffffffffffffffffffffffffffffffffffff16815260200182815260200192505050600060405180830381600087803b15801561137257600080fd5b505af1158015611386573d6000803e3d6000fd5b50505050603660009054906101000a900473ffffffffffffffffffffffffffffffffffffffff1673ffffffffffffffffffffffffffffffffffffffff16638f385c228c866101600151603560009054906101000a900473ffffffffffffffffffffffffffffffffffffffff1673ffffffffffffffffffffffffffffffffffffffff1663ee8912966040518163ffffffff167c010000000000000000000000000000000000000000000000000000000002815260040160206040518083038186803b15801561145357600080fd5b505afa158015611467573d6000803e3d6000fd5b505050506040513d602081101561147d57600080fd5b81019080805190602001909291905050506040518463ffffffff167c0100000000000000000000000000000000000000000000000000000000028152600401808473ffffffffffffffffffffffffffffffffffffffff1673ffffffffffffffffffffffffffffffffffffffff1681526020018381526020018273ffffffffffffffffffffffffffffffffffffffff1673ffffffffffffffffffffffffffffffffffffffff1681526020019350505050600060405180830381600087803b15801561154657600080fd5b505af115801561155a573d6000803e3d6000fd5b505050508873ffffffffffffffffffffffffffffffffffffffff168a73ffffffffffffffffffffffffffffffffffffffff168c73ffffffffffffffffffffffffffffffffffffffff167f36ca8b16d61dc13b1062adff83e3778ab92d14f9e35bfe9fd1283e02b13fb0a18761014001518861016001514260405180848152602001838152602001828152602001935050505060405180910390a45b8873ffffffffffffffffffffffffffffffffffffffff168a73ffffffffffffffffffffffffffffffffffffffff168c73ffffffffffffffffffffffffffffffffffffffff167f56864757fd5b1fc9f38f5f3a981cd8ae512ce41b902cf73fc506ee369c6bc2378760800151878960400151338e42604051808781526020018681526020018581526020018473ffffffffffffffffffffffffffffffffffffffff1673ffffffffffffffffffffffffffffffffffffffff16815260200183151515158152602001828152602001965050505050505060405180910390a4600060058111156116de57fe5b6040805190810160405280600981526020017f4e6f206572726f7273000000000000000000000000000000000000000000000081525095509550505050505b9550959350505050565b603560009054906101000a900473ffffffffffffffffffffffffffffffffffffffff1681565b60008083141561176057600090506117d1565b6000828402905082848281151561177357fe5b041415156117cc576040517f08c379a0000000000000000000000000000000000000000000000000000000008152600401808060200182810382526021815260200180611f2b6021913960400191505060405180910390fd5b809150505b92915050565b600061181983836040805190810160405280601a81526020017f536166654d6174683a206469766973696f6e206279207a65726f000000000000815250611ce1565b905092915050565b60008060009150600090506000603560009054906101000a900473ffffffffffffffffffffffffffffffffffffffff1673ffffffffffffffffffffffffffffffffffffffff1663fca513a86040518163ffffffff167c010000000000000000000000000000000000000000000000000000000002815260040160206040518083038186803b1580156118b257600080fd5b505afa1580156118c6573d6000803e3d6000fd5b505050506040513d60208110156118dc57600080fd5b810190808051906020019092919050505090506118f7611efa565b8173ffffffffffffffffffffffffffffffffffffffff1663b3596f07896040518263ffffffff167c0100000000000000000000000000000000000000000000000000000000028152600401808273ffffffffffffffffffffffffffffffffffffffff1673ffffffffffffffffffffffffffffffffffffffff16815260200191505060206040518083038186803b15801561199057600080fd5b505afa1580156119a4573d6000803e3d6000fd5b505050506040513d60208110156119ba57600080fd5b81019080805190602001909291905050508160400181815250508173ffffffffffffffffffffffffffffffffffffffff1663b3596f07886040518263ffffffff167c0100000000000000000000000000000000000000000000000000000000028152600401808273ffffffffffffffffffffffffffffffffffffffff1673ffffffffffffffffffffffffffffffffffffffff16815260200191505060206040518083038186803b158015611a6d57600080fd5b505afa158015611a81573d6000803e3d6000fd5b505050506040513d6020811015611a9757600080fd5b8101908080519060200190929190505050816060018181525050603660009054906101000a900473ffffffffffffffffffffffffffffffffffffffff1673ffffffffffffffffffffffffffffffffffffffff1663c76a6c9c896040518263ffffffff167c0100000000000000000000000000000000000000000000000000000000028152600401808273ffffffffffffffffffffffffffffffffffffffff1673ffffffffffffffffffffffffffffffffffffffff16815260200191505060206040518083038186803b158015611b6c57600080fd5b505afa158015611b80573d6000803e3d6000fd5b505050506040513d6020811015611b9657600080fd5b8101908080519060200190929190505050816020018181525050611c066064611bf88360200151611bea8560400151611bdc8c886060015161174d90919063ffffffff16565b6117d790919063ffffffff16565b61174d90919063ffffffff16565b6117d790919063ffffffff16565b8160800181815250508481608001511115611c7b57849350611c748160200151611c666064611c588560600151611c4a8a886040015161174d90919063ffffffff16565b6117d790919063ffffffff16565b61174d90919063ffffffff16565b6117d790919063ffffffff16565b9250611c86565b806080015193508592505b838393509350505094509492505050565b6000611cd983836040805190810160405280601e81526020017f536166654d6174683a207375627472616374696f6e206f766572666c6f770000815250611dab565b905092915050565b600080831182901515611d8f576040517f08c379a00000000000000000000000000000000000000000000000000000000081526004018080602001828103825283818151815260200191508051906020019080838360005b83811015611d54578082015181840152602081019050611d39565b50505050905090810190601f168015611d815780820380516001836020036101000a031916815260200191505b509250505060405180910390fd5b5060008385811515611d9d57fe5b049050809150509392505050565b60008383111582901515611e5a576040517f08c379a00000000000000000000000000000000000000000000000000000000081526004018080602001828103825283818151815260200191508051906020019080838360005b83811015611e1f578082015181840152602081019050611e04565b50505050905090810190601f168015611e4c5780820380516001836020036101000a031916815260200191505b509250505060405180910390fd5b5060008385039050809150509392505050565b6102006040519081016040528060008152602001600081526020016000815260200160008152602001600081526020016000815260200160008152602001600081526020016000815260200160008152602001600081526020016000815260200160006002811115611edb57fe5b8152602001600081526020016000151581526020016000151581525090565b60a0604051908101604052806000815260200160008152602001600081526020016000815260200160008152509056fe536166654d6174683a206d756c7469706c69636174696f6e206f766572666c6f7754686572652069736e277420656e6f756768206c697175696469747920617661696c61626c6520746f206c697175696461746554686520636f6c6c61746572616c2063686f73656e2063616e6e6f74206265206c6971756964617465644865616c746820666163746f72206973206e6f742062656c6f7720746865207468726573686f6c645573657220646964206e6f7420626f72726f7720746865207370656369666965642063757272656e6379a165627a7a723058205f8543ad2603061de742badd02022ec58f847685b3e9b0773a7aa139235db7a60029",
  "source": "pragma solidity ^0.5.0;\n\nimport \"../libraries/openzeppelin-solidity/contracts/math/SafeMath.sol\";\nimport \"../libraries/openzeppelin-solidity/contracts/utils/Address.sol\";\nimport \"../libraries/openzeppelin-solidity/contracts/utils/ReentrancyGuard.sol\";\nimport \"../libraries/openzeppelin-upgradeability/VersionedInitializable.sol\";\n\nimport \"../configuration/LendingPoolAddressesProvider.sol\";\nimport \"../configuration/LendingPoolParametersProvider.sol\";\nimport \"../tokenization/AToken.sol\";\nimport \"../libraries/CoreLibrary.sol\";\nimport \"../libraries/WadRayMath.sol\";\nimport \"./LendingPoolCore.sol\";\nimport \"./LendingPoolDataProvider.sol\";\nimport \"../interfaces/IPriceOracleGetter.sol\";\n\n/**\n* @title LendingPoolLiquidationManager contract\n* @author Aave\n* @notice Implements the liquidation function.\n**/\ncontract LendingPoolLiquidationManager is ReentrancyGuard, VersionedInitializable {\n    using SafeMath for uint256;\n    using WadRayMath for uint256;\n    using Address for address;\n\n    LendingPoolAddressesProvider public addressesProvider;\n    LendingPoolCore core;\n    LendingPoolDataProvider dataProvider;\n    LendingPoolParametersProvider parametersProvider;\n    IFeeProvider feeProvider;\n    address ethereumAddress;\n\n    uint256 constant LIQUIDATION_CLOSE_FACTOR_PERCENT = 50;\n\n    /**\n    * @dev emitted when a borrow fee is liquidated\n    * @param _collateral the address of the collateral being liquidated\n    * @param _reserve the address of the reserve\n    * @param _user the address of the user being liquidated\n    * @param _feeLiquidated the total fee liquidated\n    * @param _liquidatedCollateralForFee the amount of collateral received by the protocol in exchange for the fee\n    * @param _timestamp the timestamp of the action\n    **/\n    event OriginationFeeLiquidated(\n        address indexed _collateral,\n        address indexed _reserve,\n        address indexed _user,\n        uint256 _feeLiquidated,\n        uint256 _liquidatedCollateralForFee,\n        uint256 _timestamp\n    );\n\n    /**\n    * @dev emitted when a borrower is liquidated\n    * @param _collateral the address of the collateral being liquidated\n    * @param _reserve the address of the reserve\n    * @param _user the address of the user being liquidated\n    * @param _purchaseAmount the total amount liquidated\n    * @param _liquidatedCollateralAmount the amount of collateral being liquidated\n    * @param _accruedBorrowInterest the amount of interest accrued by the borrower since the last action\n    * @param _liquidator the address of the liquidator\n    * @param _receiveAToken true if the liquidator wants to receive aTokens, false otherwise\n    * @param _timestamp the timestamp of the action\n    **/\n    event LiquidationCall(\n        address indexed _collateral,\n        address indexed _reserve,\n        address indexed _user,\n        uint256 _purchaseAmount,\n        uint256 _liquidatedCollateralAmount,\n        uint256 _accruedBorrowInterest,\n        address _liquidator,\n        bool _receiveAToken,\n        uint256 _timestamp\n    );\n\n    enum LiquidationErrors {\n        NO_ERROR,\n        NO_COLLATERAL_AVAILABLE,\n        COLLATERAL_CANNOT_BE_LIQUIDATED,\n        CURRRENCY_NOT_BORROWED,\n        HEALTH_FACTOR_ABOVE_THRESHOLD,\n        NOT_ENOUGH_LIQUIDITY\n    }\n\n    struct LiquidationCallLocalVars {\n        uint256 userCollateralBalance;\n        uint256 userCompoundedBorrowBalance;\n        uint256 borrowBalanceIncrease;\n        uint256 maxPrincipalAmountToLiquidate;\n        uint256 actualAmountToLiquidate;\n        uint256 liquidationRatio;\n        uint256 collateralPrice;\n        uint256 principalCurrencyPrice;\n        uint256 maxAmountCollateralToLiquidate;\n        uint256 originationFee;\n        uint256 feeLiquidated;\n        uint256 liquidatedCollateralForFee;\n        CoreLibrary.InterestRateMode borrowRateMode;\n        uint256 userStableRate;\n        bool isCollateralEnabled;\n        bool healthFactorBelowThreshold;\n    }\n\n    /**\n    * @dev as the contract extends the VersionedInitializable contract to match the state\n    * of the LendingPool contract, the getRevision() function is needed.\n    */\n    function getRevision() internal pure returns (uint256) {\n        return 0;\n    }\n\n    /**\n    * @dev users can invoke this function to liquidate an undercollateralized position.\n    * @param _reserve the address of the collateral to liquidated\n    * @param _reserve the address of the principal reserve\n    * @param _user the address of the borrower\n    * @param _purchaseAmount the amount of principal that the liquidator wants to repay\n    * @param _receiveAToken true if the liquidators wants to receive the aTokens, false if\n    * he wants to receive the underlying asset directly\n    **/\n    function liquidationCall(\n        address _collateral,\n        address _reserve,\n        address _user,\n        uint256 _purchaseAmount,\n        bool _receiveAToken\n    ) external payable returns (uint256, string memory) {\n        // Usage of a memory struct of vars to avoid \"Stack too deep\" errors due to local variables\n        LiquidationCallLocalVars memory vars;\n\n        (, , , , , , , vars.healthFactorBelowThreshold) = dataProvider.calculateUserGlobalData(\n            _user\n        );\n\n        if (!vars.healthFactorBelowThreshold) {\n            return (\n                uint256(LiquidationErrors.HEALTH_FACTOR_ABOVE_THRESHOLD),\n                \"Health factor is not below the threshold\"\n            );\n        }\n\n        vars.userCollateralBalance = core.getUserUnderlyingAssetBalance(_collateral, _user);\n\n        //if _user hasn't deposited this specific collateral, nothing can be liquidated\n        if (vars.userCollateralBalance == 0) {\n            return (\n                uint256(LiquidationErrors.NO_COLLATERAL_AVAILABLE),\n                \"Invalid collateral to liquidate\"\n            );\n        }\n\n        vars.isCollateralEnabled =\n            core.isReserveUsageAsCollateralEnabled(_collateral) &&\n            core.isUserUseReserveAsCollateralEnabled(_collateral, _user);\n\n        //if _collateral isn't enabled as collateral by _user, it cannot be liquidated\n        if (!vars.isCollateralEnabled) {\n            return (\n                uint256(LiquidationErrors.COLLATERAL_CANNOT_BE_LIQUIDATED),\n                \"The collateral chosen cannot be liquidated\"\n            );\n        }\n\n        //if the user hasn't borrowed the specific currency defined by _reserve, it cannot be liquidated\n        (, vars.userCompoundedBorrowBalance, vars.borrowBalanceIncrease) = core\n            .getUserBorrowBalances(_reserve, _user);\n\n        if (vars.userCompoundedBorrowBalance == 0) {\n            return (\n                uint256(LiquidationErrors.CURRRENCY_NOT_BORROWED),\n                \"User did not borrow the specified currency\"\n            );\n        }\n\n        //all clear - calculate the max principal amount that can be liquidated\n        vars.maxPrincipalAmountToLiquidate = vars\n            .userCompoundedBorrowBalance\n            .mul(LIQUIDATION_CLOSE_FACTOR_PERCENT)\n            .div(100);\n\n        vars.actualAmountToLiquidate = _purchaseAmount > vars.maxPrincipalAmountToLiquidate\n            ? vars.maxPrincipalAmountToLiquidate\n            : _purchaseAmount;\n\n        (uint256 maxCollateralToLiquidate, uint256 principalAmountNeeded) = calculateAvailableCollateralToLiquidate(\n            _collateral,\n            _reserve,\n            vars.actualAmountToLiquidate,\n            vars.userCollateralBalance\n        );\n\n        vars.originationFee = core.getUserOriginationFee(_reserve, _user);\n\n        //if there is a fee to liquidate, calculate the maximum amount of fee that can be liquidated\n        if (vars.originationFee > 0) {\n            (\n                vars.liquidatedCollateralForFee,\n                vars.feeLiquidated\n            ) = calculateAvailableCollateralToLiquidate(\n                _collateral,\n                _reserve,\n                vars.originationFee,\n                vars.userCollateralBalance.sub(maxCollateralToLiquidate)\n            );\n        }\n\n        //if principalAmountNeeded < vars.ActualAmountToLiquidate, there isn't enough\n        //of _collateral to cover the actual amount that is being liquidated, hence we liquidate\n        //a smaller amount\n\n        if (principalAmountNeeded < vars.actualAmountToLiquidate) {\n            vars.actualAmountToLiquidate = principalAmountNeeded;\n        }\n\n        //if liquidator reclaims the underlying asset, we make sure there is enough available collateral in the reserve\n        if (!_receiveAToken) {\n            uint256 currentAvailableCollateral = core.getReserveAvailableLiquidity(_collateral);\n            if (currentAvailableCollateral < maxCollateralToLiquidate) {\n                return (\n                    uint256(LiquidationErrors.NOT_ENOUGH_LIQUIDITY),\n                    \"There isn't enough liquidity available to liquidate\"\n                );\n            }\n        }\n\n        core.updateStateOnLiquidation(\n            _reserve,\n            _collateral,\n            _user,\n            vars.actualAmountToLiquidate,\n            maxCollateralToLiquidate,\n            vars.feeLiquidated,\n            vars.liquidatedCollateralForFee,\n            vars.borrowBalanceIncrease,\n            _receiveAToken\n        );\n\n        AToken collateralAtoken = AToken(core.getReserveATokenAddress(_collateral));\n\n        //if liquidator reclaims the aToken, he receives the equivalent atoken amount\n        if (_receiveAToken) {\n            collateralAtoken.transferOnLiquidation(_user, msg.sender, maxCollateralToLiquidate);\n        } else {\n            //otherwise receives the underlying asset\n            //burn the equivalent amount of atoken\n            collateralAtoken.burnOnLiquidation(_user, maxCollateralToLiquidate);\n            core.transferToUser(_collateral, msg.sender, maxCollateralToLiquidate);\n        }\n\n        //transfers the principal currency to the pool\n        core.transferToReserve.value(msg.value)(_reserve, msg.sender, vars.actualAmountToLiquidate);\n\n        if (vars.feeLiquidated > 0) {\n            //if there is enough collateral to liquidate the fee, first transfer burn an equivalent amount of\n            //aTokens of the user\n            collateralAtoken.burnOnLiquidation(_user, vars.liquidatedCollateralForFee);\n\n            //then liquidate the fee by transferring it to the fee collection address\n            core.liquidateFee(\n                _collateral,\n                vars.liquidatedCollateralForFee,\n                addressesProvider.getTokenDistributor()\n            );\n\n            emit OriginationFeeLiquidated(\n                _collateral,\n                _reserve,\n                _user,\n                vars.feeLiquidated,\n                vars.liquidatedCollateralForFee,\n                //solium-disable-next-line\n                block.timestamp\n            );\n\n        }\n        emit LiquidationCall(\n            _collateral,\n            _reserve,\n            _user,\n            vars.actualAmountToLiquidate,\n            maxCollateralToLiquidate,\n            vars.borrowBalanceIncrease,\n            msg.sender,\n            _receiveAToken,\n            //solium-disable-next-line\n            block.timestamp\n        );\n\n        return (uint256(LiquidationErrors.NO_ERROR), \"No errors\");\n    }\n\n    struct AvailableCollateralToLiquidateLocalVars {\n        uint256 userCompoundedBorrowBalance;\n        uint256 liquidationBonus;\n        uint256 collateralPrice;\n        uint256 principalCurrencyPrice;\n        uint256 maxAmountCollateralToLiquidate;\n    }\n\n    /**\n    * @dev calculates how much of a specific collateral can be liquidated, given\n    * a certain amount of principal currency. This function needs to be called after\n    * all the checks to validate the liquidation have been performed, otherwise it might fail.\n    * @param _collateral the collateral to be liquidated\n    * @param _principal the principal currency to be liquidated\n    * @param _purchaseAmount the amount of principal being liquidated\n    * @param _userCollateralBalance the collatera balance for the specific _collateral asset of the user being liquidated\n    * @return the maximum amount that is possible to liquidated given all the liquidation constraints (user balance, close factor) and\n    * the purchase amount\n    **/\n    function calculateAvailableCollateralToLiquidate(\n        address _collateral,\n        address _principal,\n        uint256 _purchaseAmount,\n        uint256 _userCollateralBalance\n    ) internal view returns (uint256 collateralAmount, uint256 principalAmountNeeded) {\n        collateralAmount = 0;\n        principalAmountNeeded = 0;\n        IPriceOracleGetter oracle = IPriceOracleGetter(addressesProvider.getPriceOracle());\n\n        // Usage of a memory struct of vars to avoid \"Stack too deep\" errors due to local variables\n        AvailableCollateralToLiquidateLocalVars memory vars;\n\n        vars.collateralPrice = oracle.getAssetPrice(_collateral);\n        vars.principalCurrencyPrice = oracle.getAssetPrice(_principal);\n        vars.liquidationBonus = core.getReserveLiquidationBonus(_collateral);\n\n        //this is the maximum possible amount of the selected collateral that can be liquidated, given the\n        //max amount of principal currency that is available for liquidation.\n        vars.maxAmountCollateralToLiquidate = vars\n            .principalCurrencyPrice\n            .mul(_purchaseAmount)\n            .div(vars.collateralPrice)\n            .mul(vars.liquidationBonus)\n            .div(100);\n\n        if (vars.maxAmountCollateralToLiquidate > _userCollateralBalance) {\n            collateralAmount = _userCollateralBalance;\n            principalAmountNeeded = vars\n                .collateralPrice\n                .mul(collateralAmount)\n                .div(vars.principalCurrencyPrice)\n                .mul(100)\n                .div(vars.liquidationBonus);\n        } else {\n            collateralAmount = vars.maxAmountCollateralToLiquidate;\n            principalAmountNeeded = _purchaseAmount;\n        }\n\n        return (collateralAmount, principalAmountNeeded);\n    }\n}\n",
  "sourcePath": "/Users/bibodeng/Programming/water_loan_core/contracts/lendingpool/LendingPoolLiquidationManager.sol",
  "compiler": {
    "name": "solc",
    "version": "0.5.4+commit.d15a3125.mod.Emscripten.clang"
  },
  "schemaVersion": "2.0.1",
  "updatedAt": "2020-12-06T14:57:27.672Z"
}