{
  "contractName": "LendingPool",
  "abi": [
    {
      "constant": true,
      "inputs": [],
      "name": "parametersProvider",
      "outputs": [
        {
          "name": "",
          "type": "address"
        }
      ],
      "payable": false,
      "stateMutability": "view",
      "type": "function"
    },
    {
      "constant": true,
      "inputs": [],
      "name": "LENDINGPOOL_REVISION",
      "outputs": [
        {
          "name": "",
          "type": "uint256"
        }
      ],
      "payable": false,
      "stateMutability": "view",
      "type": "function"
    },
    {
      "constant": true,
      "inputs": [],
      "name": "dataProvider",
      "outputs": [
        {
          "name": "",
          "type": "address"
        }
      ],
      "payable": false,
      "stateMutability": "view",
      "type": "function"
    },
    {
      "constant": true,
      "inputs": [],
      "name": "addressesProvider",
      "outputs": [
        {
          "name": "",
          "type": "address"
        }
      ],
      "payable": false,
      "stateMutability": "view",
      "type": "function"
    },
    {
      "constant": true,
      "inputs": [],
      "name": "UINT_MAX_VALUE",
      "outputs": [
        {
          "name": "",
          "type": "uint256"
        }
      ],
      "payable": false,
      "stateMutability": "view",
      "type": "function"
    },
    {
      "constant": true,
      "inputs": [],
      "name": "core",
      "outputs": [
        {
          "name": "",
          "type": "address"
        }
      ],
      "payable": false,
      "stateMutability": "view",
      "type": "function"
    },
    {
      "anonymous": false,
      "inputs": [
        {
          "indexed": true,
          "name": "_reserve",
          "type": "address"
        },
        {
          "indexed": true,
          "name": "_user",
          "type": "address"
        },
        {
          "indexed": false,
          "name": "_amount",
          "type": "uint256"
        },
        {
          "indexed": true,
          "name": "_referral",
          "type": "uint16"
        },
        {
          "indexed": false,
          "name": "_timestamp",
          "type": "uint256"
        }
      ],
      "name": "Deposit",
      "type": "event"
    },
    {
      "anonymous": false,
      "inputs": [
        {
          "indexed": true,
          "name": "_reserve",
          "type": "address"
        },
        {
          "indexed": true,
          "name": "_user",
          "type": "address"
        },
        {
          "indexed": false,
          "name": "_amount",
          "type": "uint256"
        },
        {
          "indexed": false,
          "name": "_timestamp",
          "type": "uint256"
        }
      ],
      "name": "RedeemUnderlying",
      "type": "event"
    },
    {
      "anonymous": false,
      "inputs": [
        {
          "indexed": true,
          "name": "_reserve",
          "type": "address"
        },
        {
          "indexed": true,
          "name": "_user",
          "type": "address"
        },
        {
          "indexed": false,
          "name": "_amount",
          "type": "uint256"
        },
        {
          "indexed": false,
          "name": "_borrowRateMode",
          "type": "uint256"
        },
        {
          "indexed": false,
          "name": "_borrowRate",
          "type": "uint256"
        },
        {
          "indexed": false,
          "name": "_originationFee",
          "type": "uint256"
        },
        {
          "indexed": false,
          "name": "_borrowBalanceIncrease",
          "type": "uint256"
        },
        {
          "indexed": true,
          "name": "_referral",
          "type": "uint16"
        },
        {
          "indexed": false,
          "name": "_timestamp",
          "type": "uint256"
        }
      ],
      "name": "Borrow",
      "type": "event"
    },
    {
      "anonymous": false,
      "inputs": [
        {
          "indexed": true,
          "name": "_reserve",
          "type": "address"
        },
        {
          "indexed": true,
          "name": "_user",
          "type": "address"
        },
        {
          "indexed": true,
          "name": "_repayer",
          "type": "address"
        },
        {
          "indexed": false,
          "name": "_amountMinusFees",
          "type": "uint256"
        },
        {
          "indexed": false,
          "name": "_fees",
          "type": "uint256"
        },
        {
          "indexed": false,
          "name": "_borrowBalanceIncrease",
          "type": "uint256"
        },
        {
          "indexed": false,
          "name": "_timestamp",
          "type": "uint256"
        }
      ],
      "name": "Repay",
      "type": "event"
    },
    {
      "anonymous": false,
      "inputs": [
        {
          "indexed": true,
          "name": "_reserve",
          "type": "address"
        },
        {
          "indexed": true,
          "name": "_user",
          "type": "address"
        },
        {
          "indexed": false,
          "name": "_newRateMode",
          "type": "uint256"
        },
        {
          "indexed": false,
          "name": "_newRate",
          "type": "uint256"
        },
        {
          "indexed": false,
          "name": "_borrowBalanceIncrease",
          "type": "uint256"
        },
        {
          "indexed": false,
          "name": "_timestamp",
          "type": "uint256"
        }
      ],
      "name": "Swap",
      "type": "event"
    },
    {
      "anonymous": false,
      "inputs": [
        {
          "indexed": true,
          "name": "_reserve",
          "type": "address"
        },
        {
          "indexed": true,
          "name": "_user",
          "type": "address"
        }
      ],
      "name": "ReserveUsedAsCollateralEnabled",
      "type": "event"
    },
    {
      "anonymous": false,
      "inputs": [
        {
          "indexed": true,
          "name": "_reserve",
          "type": "address"
        },
        {
          "indexed": true,
          "name": "_user",
          "type": "address"
        }
      ],
      "name": "ReserveUsedAsCollateralDisabled",
      "type": "event"
    },
    {
      "anonymous": false,
      "inputs": [
        {
          "indexed": true,
          "name": "_reserve",
          "type": "address"
        },
        {
          "indexed": true,
          "name": "_user",
          "type": "address"
        },
        {
          "indexed": false,
          "name": "_newStableRate",
          "type": "uint256"
        },
        {
          "indexed": false,
          "name": "_borrowBalanceIncrease",
          "type": "uint256"
        },
        {
          "indexed": false,
          "name": "_timestamp",
          "type": "uint256"
        }
      ],
      "name": "RebalanceStableBorrowRate",
      "type": "event"
    },
    {
      "anonymous": false,
      "inputs": [
        {
          "indexed": true,
          "name": "_collateral",
          "type": "address"
        },
        {
          "indexed": true,
          "name": "_reserve",
          "type": "address"
        },
        {
          "indexed": true,
          "name": "_user",
          "type": "address"
        },
        {
          "indexed": false,
          "name": "_feeLiquidated",
          "type": "uint256"
        },
        {
          "indexed": false,
          "name": "_liquidatedCollateralForFee",
          "type": "uint256"
        },
        {
          "indexed": false,
          "name": "_timestamp",
          "type": "uint256"
        }
      ],
      "name": "OriginationFeeLiquidated",
      "type": "event"
    },
    {
      "anonymous": false,
      "inputs": [
        {
          "indexed": true,
          "name": "_collateral",
          "type": "address"
        },
        {
          "indexed": true,
          "name": "_reserve",
          "type": "address"
        },
        {
          "indexed": true,
          "name": "_user",
          "type": "address"
        },
        {
          "indexed": false,
          "name": "_purchaseAmount",
          "type": "uint256"
        },
        {
          "indexed": false,
          "name": "_liquidatedCollateralAmount",
          "type": "uint256"
        },
        {
          "indexed": false,
          "name": "_accruedBorrowInterest",
          "type": "uint256"
        },
        {
          "indexed": false,
          "name": "_liquidator",
          "type": "address"
        },
        {
          "indexed": false,
          "name": "_receiveAToken",
          "type": "bool"
        },
        {
          "indexed": false,
          "name": "_timestamp",
          "type": "uint256"
        }
      ],
      "name": "LiquidationCall",
      "type": "event"
    },
    {
      "constant": false,
      "inputs": [
        {
          "name": "_addressesProvider",
          "type": "address"
        }
      ],
      "name": "initialize",
      "outputs": [],
      "payable": false,
      "stateMutability": "nonpayable",
      "type": "function"
    },
    {
      "constant": false,
      "inputs": [
        {
          "name": "_reserve",
          "type": "address"
        },
        {
          "name": "_amount",
          "type": "uint256"
        },
        {
          "name": "_referralCode",
          "type": "uint16"
        }
      ],
      "name": "deposit",
      "outputs": [],
      "payable": true,
      "stateMutability": "payable",
      "type": "function"
    },
    {
      "constant": false,
      "inputs": [
        {
          "name": "_reserve",
          "type": "address"
        },
        {
          "name": "_user",
          "type": "address"
        },
        {
          "name": "_amount",
          "type": "uint256"
        },
        {
          "name": "_aTokenBalanceAfterRedeem",
          "type": "uint256"
        }
      ],
      "name": "redeemUnderlying",
      "outputs": [],
      "payable": false,
      "stateMutability": "nonpayable",
      "type": "function"
    },
    {
      "constant": false,
      "inputs": [
        {
          "name": "_reserve",
          "type": "address"
        },
        {
          "name": "_amount",
          "type": "uint256"
        },
        {
          "name": "_interestRateMode",
          "type": "uint256"
        },
        {
          "name": "_referralCode",
          "type": "uint16"
        }
      ],
      "name": "borrow",
      "outputs": [],
      "payable": false,
      "stateMutability": "nonpayable",
      "type": "function"
    },
    {
      "constant": false,
      "inputs": [
        {
          "name": "_reserve",
          "type": "address"
        },
        {
          "name": "_amount",
          "type": "uint256"
        },
        {
          "name": "_onBehalfOf",
          "type": "address"
        }
      ],
      "name": "repay",
      "outputs": [],
      "payable": true,
      "stateMutability": "payable",
      "type": "function"
    },
    {
      "constant": false,
      "inputs": [
        {
          "name": "_reserve",
          "type": "address"
        }
      ],
      "name": "swapBorrowRateMode",
      "outputs": [],
      "payable": false,
      "stateMutability": "nonpayable",
      "type": "function"
    },
    {
      "constant": false,
      "inputs": [
        {
          "name": "_reserve",
          "type": "address"
        },
        {
          "name": "_user",
          "type": "address"
        }
      ],
      "name": "rebalanceStableBorrowRate",
      "outputs": [],
      "payable": false,
      "stateMutability": "nonpayable",
      "type": "function"
    },
    {
      "constant": false,
      "inputs": [
        {
          "name": "_reserve",
          "type": "address"
        },
        {
          "name": "_useAsCollateral",
          "type": "bool"
        }
      ],
      "name": "setUserUseReserveAsCollateral",
      "outputs": [],
      "payable": false,
      "stateMutability": "nonpayable",
      "type": "function"
    },
    {
      "constant": false,
      "inputs": [
        {
          "name": "_collateral",
          "type": "address"
        },
        {
          "name": "_reserve",
          "type": "address"
        },
        {
          "name": "_user",
          "type": "address"
        },
        {
          "name": "_purchaseAmount",
          "type": "uint256"
        },
        {
          "name": "_receiveAToken",
          "type": "bool"
        }
      ],
      "name": "liquidationCall",
      "outputs": [],
      "payable": true,
      "stateMutability": "payable",
      "type": "function"
    },
    {
      "constant": true,
      "inputs": [
        {
          "name": "_reserve",
          "type": "address"
        }
      ],
      "name": "getReserveConfigurationData",
      "outputs": [
        {
          "name": "ltv",
          "type": "uint256"
        },
        {
          "name": "liquidationThreshold",
          "type": "uint256"
        },
        {
          "name": "liquidationBonus",
          "type": "uint256"
        },
        {
          "name": "interestRateStrategyAddress",
          "type": "address"
        },
        {
          "name": "usageAsCollateralEnabled",
          "type": "bool"
        },
        {
          "name": "borrowingEnabled",
          "type": "bool"
        },
        {
          "name": "stableBorrowRateEnabled",
          "type": "bool"
        },
        {
          "name": "isActive",
          "type": "bool"
        }
      ],
      "payable": false,
      "stateMutability": "view",
      "type": "function"
    },
    {
      "constant": true,
      "inputs": [
        {
          "name": "_reserve",
          "type": "address"
        }
      ],
      "name": "getReserveData",
      "outputs": [
        {
          "name": "totalLiquidity",
          "type": "uint256"
        },
        {
          "name": "availableLiquidity",
          "type": "uint256"
        },
        {
          "name": "totalBorrowsStable",
          "type": "uint256"
        },
        {
          "name": "totalBorrowsVariable",
          "type": "uint256"
        },
        {
          "name": "liquidityRate",
          "type": "uint256"
        },
        {
          "name": "variableBorrowRate",
          "type": "uint256"
        },
        {
          "name": "stableBorrowRate",
          "type": "uint256"
        },
        {
          "name": "averageStableBorrowRate",
          "type": "uint256"
        },
        {
          "name": "utilizationRate",
          "type": "uint256"
        },
        {
          "name": "liquidityIndex",
          "type": "uint256"
        },
        {
          "name": "variableBorrowIndex",
          "type": "uint256"
        },
        {
          "name": "aTokenAddress",
          "type": "address"
        },
        {
          "name": "lastUpdateTimestamp",
          "type": "uint40"
        }
      ],
      "payable": false,
      "stateMutability": "view",
      "type": "function"
    },
    {
      "constant": true,
      "inputs": [
        {
          "name": "_user",
          "type": "address"
        }
      ],
      "name": "getUserAccountData",
      "outputs": [
        {
          "name": "totalLiquidityTRX",
          "type": "uint256"
        },
        {
          "name": "totalCollateralTRX",
          "type": "uint256"
        },
        {
          "name": "totalBorrowsTRX",
          "type": "uint256"
        },
        {
          "name": "totalFeesTRX",
          "type": "uint256"
        },
        {
          "name": "availableBorrowsTRX",
          "type": "uint256"
        },
        {
          "name": "currentLiquidationThreshold",
          "type": "uint256"
        },
        {
          "name": "ltv",
          "type": "uint256"
        },
        {
          "name": "healthFactor",
          "type": "uint256"
        }
      ],
      "payable": false,
      "stateMutability": "view",
      "type": "function"
    },
    {
      "constant": true,
      "inputs": [
        {
          "name": "_reserve",
          "type": "address"
        },
        {
          "name": "_user",
          "type": "address"
        }
      ],
      "name": "getUserReserveData",
      "outputs": [
        {
          "name": "currentATokenBalance",
          "type": "uint256"
        },
        {
          "name": "currentBorrowBalance",
          "type": "uint256"
        },
        {
          "name": "principalBorrowBalance",
          "type": "uint256"
        },
        {
          "name": "borrowRateMode",
          "type": "uint256"
        },
        {
          "name": "borrowRate",
          "type": "uint256"
        },
        {
          "name": "liquidityRate",
          "type": "uint256"
        },
        {
          "name": "originationFee",
          "type": "uint256"
        },
        {
          "name": "variableBorrowIndex",
          "type": "uint256"
        },
        {
          "name": "lastUpdateTimestamp",
          "type": "uint256"
        },
        {
          "name": "usageAsCollateralEnabled",
          "type": "bool"
        }
      ],
      "payable": false,
      "stateMutability": "view",
      "type": "function"
    },
    {
      "constant": true,
      "inputs": [],
      "name": "getReserves",
      "outputs": [
        {
          "name": "",
          "type": "address[]"
        }
      ],
      "payable": false,
      "stateMutability": "view",
      "type": "function"
    }
  ],
  "bytecode": "0x608060405260006001556001600081905550616c85806100206000396000f3fe60806040526004361061013b576000357c0100000000000000000000000000000000000000000000000000000000900480639895e3d8116100bd578063c858f5f911610081578063c858f5f9146109dd578063cd11238214610a6a578063d0fc81d214610af5578063d2d0e06614610b3a578063f2f4eb2614610b965761013b565b80639895e3d814610741578063b334ed86146107e0578063bf92857c14610851578063c4d66de814610901578063c72c4d101461096c5761013b565b806348ca13001161010457806348ca13001461053b57806358707e06146105a65780635a3b74b9146106175780635ceae9c41461068e5780638afaff02146106fc5761013b565b8062a718a9146101405780630902f1ac146101da57806328dd2d011461026057806335ea6a75146103425780633e1501411461044f575b600080fd5b6101d8600480360360a081101561015657600080fd5b81019080803573ffffffffffffffffffffffffffffffffffffffff169060200190929190803573ffffffffffffffffffffffffffffffffffffffff169060200190929190803573ffffffffffffffffffffffffffffffffffffffff16906020019092919080359060200190929190803515159060200190929190505050610c07565b005b3480156101e657600080fd5b50d380156101f357600080fd5b50d2801561020057600080fd5b5061020961119a565b6040518080602001828103825283818151815260200191508051906020019060200280838360005b8381101561024c578082015181840152602081019050610231565b505050509050019250505060405180910390f35b34801561026c57600080fd5b50d3801561027957600080fd5b50d2801561028657600080fd5b506102e96004803603604081101561029d57600080fd5b81019080803573ffffffffffffffffffffffffffffffffffffffff169060200190929190803573ffffffffffffffffffffffffffffffffffffffff1690602001909291905050506112b6565b604051808b81526020018a8152602001898152602001888152602001878152602001868152602001858152602001848152602001838152602001821515151581526020019a505050505050505050505060405180910390f35b34801561034e57600080fd5b50d3801561035b57600080fd5b50d2801561036857600080fd5b506103ab6004803603602081101561037f57600080fd5b81019080803573ffffffffffffffffffffffffffffffffffffffff16906020019092919050505061146e565b604051808e81526020018d81526020018c81526020018b81526020018a81526020018981526020018881526020018781526020018681526020018581526020018481526020018373ffffffffffffffffffffffffffffffffffffffff1673ffffffffffffffffffffffffffffffffffffffff1681526020018264ffffffffff1664ffffffffff1681526020019d505050505050505050505050505060405180910390f35b34801561045b57600080fd5b50d3801561046857600080fd5b50d2801561047557600080fd5b506104b86004803603602081101561048c57600080fd5b81019080803573ffffffffffffffffffffffffffffffffffffffff16906020019092919050505061161d565b604051808981526020018881526020018781526020018673ffffffffffffffffffffffffffffffffffffffff1673ffffffffffffffffffffffffffffffffffffffff168152602001851515151581526020018415151515815260200183151515158152602001821515151581526020019850505050505050505060405180910390f35b34801561054757600080fd5b50d3801561055457600080fd5b50d2801561056157600080fd5b506105a46004803603602081101561057857600080fd5b81019080803573ffffffffffffffffffffffffffffffffffffffff169060200190929190505050611782565b005b3480156105b257600080fd5b50d380156105bf57600080fd5b50d280156105cc57600080fd5b506105d5611e9d565b604051808273ffffffffffffffffffffffffffffffffffffffff1673ffffffffffffffffffffffffffffffffffffffff16815260200191505060405180910390f35b34801561062357600080fd5b50d3801561063057600080fd5b50d2801561063d57600080fd5b5061068c6004803603604081101561065457600080fd5b81019080803573ffffffffffffffffffffffffffffffffffffffff169060200190929190803515159060200190929190505050611ec3565b005b6106fa600480360360608110156106a457600080fd5b81019080803573ffffffffffffffffffffffffffffffffffffffff16906020019092919080359060200190929190803573ffffffffffffffffffffffffffffffffffffffff169060200190929190505050612454565b005b34801561070857600080fd5b50d3801561071557600080fd5b50d2801561072257600080fd5b5061072b613334565b6040518082815260200191505060405180910390f35b34801561074d57600080fd5b50d3801561075a57600080fd5b50d2801561076757600080fd5b506107de6004803603608081101561077e57600080fd5b81019080803573ffffffffffffffffffffffffffffffffffffffff169060200190929190803573ffffffffffffffffffffffffffffffffffffffff1690602001909291908035906020019092919080359060200190929190505050613339565b005b3480156107ec57600080fd5b50d380156107f957600080fd5b50d2801561080657600080fd5b5061080f613956565b604051808273ffffffffffffffffffffffffffffffffffffffff1673ffffffffffffffffffffffffffffffffffffffff16815260200191505060405180910390f35b34801561085d57600080fd5b50d3801561086a57600080fd5b50d2801561087757600080fd5b506108ba6004803603602081101561088e57600080fd5b81019080803573ffffffffffffffffffffffffffffffffffffffff16906020019092919050505061397c565b604051808981526020018881526020018781526020018681526020018581526020018481526020018381526020018281526020019850505050505050505060405180910390f35b34801561090d57600080fd5b50d3801561091a57600080fd5b50d2801561092757600080fd5b5061096a6004803603602081101561093e57600080fd5b81019080803573ffffffffffffffffffffffffffffffffffffffff169060200190929190505050613ae1565b005b34801561097857600080fd5b50d3801561098557600080fd5b50d2801561099257600080fd5b5061099b614011565b604051808273ffffffffffffffffffffffffffffffffffffffff1673ffffffffffffffffffffffffffffffffffffffff16815260200191505060405180910390f35b3480156109e957600080fd5b50d380156109f657600080fd5b50d28015610a0357600080fd5b50610a6860048036036080811015610a1a57600080fd5b81019080803573ffffffffffffffffffffffffffffffffffffffff1690602001909291908035906020019092919080359060200190929190803561ffff169060200190929190505050614037565b005b348015610a7657600080fd5b50d38015610a8357600080fd5b50d28015610a9057600080fd5b50610af360048036036040811015610aa757600080fd5b81019080803573ffffffffffffffffffffffffffffffffffffffff169060200190929190803573ffffffffffffffffffffffffffffffffffffffff169060200190929190505050614fd2565b005b348015610b0157600080fd5b50d38015610b0e57600080fd5b50d28015610b1b57600080fd5b50610b246159d8565b6040518082815260200191505060405180910390f35b610b9460048036036060811015610b5057600080fd5b81019080803573ffffffffffffffffffffffffffffffffffffffff16906020019092919080359060200190929190803561ffff1690602001909291905050506159fc565b005b348015610ba257600080fd5b50d38015610baf57600080fd5b50d28015610bbc57600080fd5b50610bc5615fe4565b604051808273ffffffffffffffffffffffffffffffffffffffff1673ffffffffffffffffffffffffffffffffffffffff16815260200191505060405180910390f35b6001600080828254019250508190555060008054905084610c278161600a565b86610c318161600a565b6000603560009054906101000a900473ffffffffffffffffffffffffffffffffffffffff1673ffffffffffffffffffffffffffffffffffffffff16635834eb9a6040518163ffffffff167c010000000000000000000000000000000000000000000000000000000002815260040160206040518083038186803b158015610cb757600080fd5b505afa158015610ccb573d6000803e3d6000fd5b505050506040513d6020811015610ce157600080fd5b81019080805190602001909291905050509050600060608273ffffffffffffffffffffffffffffffffffffffff168b8b8b8b8b604051602401808673ffffffffffffffffffffffffffffffffffffffff1673ffffffffffffffffffffffffffffffffffffffff1681526020018573ffffffffffffffffffffffffffffffffffffffff1673ffffffffffffffffffffffffffffffffffffffff1681526020018473ffffffffffffffffffffffffffffffffffffffff1673ffffffffffffffffffffffffffffffffffffffff16815260200183815260200182151515158152602001955050505050506040516020818303038152906040527ea718a9000000000000000000000000000000000000000000000000000000007bffffffffffffffffffffffffffffffffffffffffffffffffffffffff19166020820180517bffffffffffffffffffffffffffffffffffffffffffffffffffffffff83818316178352505050506040518082805190602001908083835b602083101515610e795780518252602082019150602081019050602083039250610e54565b6001836020036101000a038019825116818451168082178552505050505050905001915050600060405180830381855af49150503d8060008114610ed9576040519150601f19603f3d011682016040523d82523d6000602084013e610ede565b606091505b5091509150811515610f58576040517f08c379a00000000000000000000000000000000000000000000000000000000081526004018080602001828103825260178152602001807f4c69717569646174696f6e2063616c6c206661696c656400000000000000000081525060200191505060405180910390fd5b60006060828060200190516040811015610f7157600080fd5b81019080805190602001909291908051640100000000811115610f9357600080fd5b82810190506020810184811115610fa957600080fd5b8151856001820283011164010000000082111715610fc657600080fd5b505092919050505091509150600082141515611112578060405160200180807f4c69717569646174696f6e206661696c65643a2000000000000000000000000081525060140182805190602001908083835b60208310151561103d5780518252602082019150602081019050602083039250611018565b6001836020036101000a0380198251168184511680821785525050505050509050019150506040516020818303038152906040526040517f08c379a00000000000000000000000000000000000000000000000000000000081526004018080602001828103825283818151815260200191508051906020019080838360005b838110156110d75780820151818401526020810190506110bc565b50505050905090810190601f1680156111045780820380516001836020036101000a031916815260200191505b509250505060405180910390fd5b5050505050505060005481141515611192576040517f08c379a000000000000000000000000000000000000000000000000000000000815260040180806020018281038252601f8152602001807f5265656e7472616e637947756172643a207265656e7472616e742063616c6c0081525060200191505060405180910390fd5b505050505050565b6060603660009054906101000a900473ffffffffffffffffffffffffffffffffffffffff1673ffffffffffffffffffffffffffffffffffffffff16630902f1ac6040518163ffffffff167c010000000000000000000000000000000000000000000000000000000002815260040160006040518083038186803b15801561122057600080fd5b505afa158015611234573d6000803e3d6000fd5b505050506040513d6000823e3d601f19601f82011682018060405250602081101561125e57600080fd5b81019080805164010000000081111561127657600080fd5b8281019050602081018481111561128c57600080fd5b81518560208202830111640100000000821117156112a957600080fd5b5050929190505050905090565b600080600080600080600080600080603760009054906101000a900473ffffffffffffffffffffffffffffffffffffffff1673ffffffffffffffffffffffffffffffffffffffff166328dd2d018d8d6040518363ffffffff167c0100000000000000000000000000000000000000000000000000000000028152600401808373ffffffffffffffffffffffffffffffffffffffff1673ffffffffffffffffffffffffffffffffffffffff1681526020018273ffffffffffffffffffffffffffffffffffffffff1673ffffffffffffffffffffffffffffffffffffffff168152602001925050506101406040518083038186803b1580156113b557600080fd5b505afa1580156113c9573d6000803e3d6000fd5b505050506040513d6101408110156113e057600080fd5b810190808051906020019092919080519060200190929190805190602001909291908051906020019092919080519060200190929190805190602001909291908051906020019092919080519060200190929190805190602001909291908051906020019092919050505099509950995099509950995099509950995099509295989b9194979a5092959850565b6000806000806000806000806000806000806000603760009054906101000a900473ffffffffffffffffffffffffffffffffffffffff1673ffffffffffffffffffffffffffffffffffffffff166335ea6a758f6040518263ffffffff167c0100000000000000000000000000000000000000000000000000000000028152600401808273ffffffffffffffffffffffffffffffffffffffff1673ffffffffffffffffffffffffffffffffffffffff1681526020019150506101a06040518083038186803b15801561153e57600080fd5b505afa158015611552573d6000803e3d6000fd5b505050506040513d6101a081101561156957600080fd5b81019080805190602001909291908051906020019092919080519060200190929190805190602001909291908051906020019092919080519060200190929190805190602001909291908051906020019092919080519060200190929190805190602001909291908051906020019092919080519060200190929190805190602001909291905050509c509c509c509c509c509c509c509c509c509c509c509c509c5091939597999b9d90929496989a9c50565b600080600080600080600080603760009054906101000a900473ffffffffffffffffffffffffffffffffffffffff1673ffffffffffffffffffffffffffffffffffffffff16633e1501418a6040518263ffffffff167c0100000000000000000000000000000000000000000000000000000000028152600401808273ffffffffffffffffffffffffffffffffffffffff1673ffffffffffffffffffffffffffffffffffffffff1681526020019150506101006040518083038186803b1580156116e557600080fd5b505afa1580156116f9573d6000803e3d6000fd5b505050506040513d61010081101561171057600080fd5b81019080805190602001909291908051906020019092919080519060200190929190805190602001909291908051906020019092919080519060200190929190805190602001909291908051906020019092919050505097509750975097509750975097509750919395975091939597565b60016000808282540192505081905550600080549050816117a28161600a565b826117ac8161615a565b6000806000603660009054906101000a900473ffffffffffffffffffffffffffffffffffffffff1673ffffffffffffffffffffffffffffffffffffffff16639fb8afcd88336040518363ffffffff167c0100000000000000000000000000000000000000000000000000000000028152600401808373ffffffffffffffffffffffffffffffffffffffff1673ffffffffffffffffffffffffffffffffffffffff1681526020018273ffffffffffffffffffffffffffffffffffffffff1673ffffffffffffffffffffffffffffffffffffffff1681526020019250505060606040518083038186803b1580156118a057600080fd5b505afa1580156118b4573d6000803e3d6000fd5b505050506040513d60608110156118ca57600080fd5b81019080805190602001909291908051906020019092919080519060200190929190505050925092509250600082111515611950576040517f08c379a00000000000000000000000000000000000000000000000000000000081526004018080602001828103825260378152602001806169bf6037913960400191505060405180910390fd5b6000603660009054906101000a900473ffffffffffffffffffffffffffffffffffffffff1673ffffffffffffffffffffffffffffffffffffffff16631ca19f1989336040518363ffffffff167c0100000000000000000000000000000000000000000000000000000000028152600401808373ffffffffffffffffffffffffffffffffffffffff1673ffffffffffffffffffffffffffffffffffffffff1681526020018273ffffffffffffffffffffffffffffffffffffffff1673ffffffffffffffffffffffffffffffffffffffff1681526020019250505060206040518083038186803b158015611a4157600080fd5b505afa158015611a55573d6000803e3d6000fd5b505050506040513d6020811015611a6b57600080fd5b81019080805190602001909291905050509050600280811115611a8a57fe5b816002811115611a9657fe5b1415611c2657603660009054906101000a900473ffffffffffffffffffffffffffffffffffffffff1673ffffffffffffffffffffffffffffffffffffffff1663e2174d868933866040518463ffffffff167c0100000000000000000000000000000000000000000000000000000000028152600401808473ffffffffffffffffffffffffffffffffffffffff1673ffffffffffffffffffffffffffffffffffffffff1681526020018373ffffffffffffffffffffffffffffffffffffffff1673ffffffffffffffffffffffffffffffffffffffff168152602001828152602001935050505060206040518083038186803b158015611b9357600080fd5b505afa158015611ba7573d6000803e3d6000fd5b505050506040513d6020811015611bbd57600080fd5b81019080805190602001909291905050501515611c25576040517f08c379a0000000000000000000000000000000000000000000000000000000008152600401808060200182810382526030815260200180616bc26030913960400191505060405180910390fd5b5b600080603660009054906101000a900473ffffffffffffffffffffffffffffffffffffffff1673ffffffffffffffffffffffffffffffffffffffff1663f61483118b33898989896040518763ffffffff167c0100000000000000000000000000000000000000000000000000000000028152600401808773ffffffffffffffffffffffffffffffffffffffff1673ffffffffffffffffffffffffffffffffffffffff1681526020018673ffffffffffffffffffffffffffffffffffffffff1673ffffffffffffffffffffffffffffffffffffffff168152602001858152602001848152602001838152602001826002811115611d1e57fe5b60ff16815260200196505050505050506040805180830381600087803b158015611d4757600080fd5b505af1158015611d5b573d6000803e3d6000fd5b505050506040513d6040811015611d7157600080fd5b810190808051906020019092919080519060200190929190505050915091503373ffffffffffffffffffffffffffffffffffffffff168a73ffffffffffffffffffffffffffffffffffffffff167fb3e2773606abfd36b5bd91394b3a54d1398336c65005baf7bf7a05efeffaf75b846002811115611deb57fe5b8488426040518085815260200184815260200183815260200182815260200194505050505060405180910390a3505050505050505060005481141515611e99576040517f08c379a000000000000000000000000000000000000000000000000000000000815260040180806020018281038252601f8152602001807f5265656e7472616e637947756172643a207265656e7472616e742063616c6c0081525060200191505060405180910390fd5b5050565b603860009054906101000a900473ffffffffffffffffffffffffffffffffffffffff1681565b6001600080828254019250508190555060008054905082611ee38161600a565b83611eed8161615a565b6000603660009054906101000a900473ffffffffffffffffffffffffffffffffffffffff1673ffffffffffffffffffffffffffffffffffffffff166318a4dbca87336040518363ffffffff167c0100000000000000000000000000000000000000000000000000000000028152600401808373ffffffffffffffffffffffffffffffffffffffff1673ffffffffffffffffffffffffffffffffffffffff1681526020018273ffffffffffffffffffffffffffffffffffffffff1673ffffffffffffffffffffffffffffffffffffffff1681526020019250505060206040518083038186803b158015611fde57600080fd5b505afa158015611ff2573d6000803e3d6000fd5b505050506040513d602081101561200857600080fd5b81019080805190602001909291905050509050600081111515612076576040517f08c379a000000000000000000000000000000000000000000000000000000000815260040180806020018281038252602a815260200180616b33602a913960400191505060405180910390fd5b603760009054906101000a900473ffffffffffffffffffffffffffffffffffffffff1673ffffffffffffffffffffffffffffffffffffffff166376e9d6158733846040518463ffffffff167c0100000000000000000000000000000000000000000000000000000000028152600401808473ffffffffffffffffffffffffffffffffffffffff1673ffffffffffffffffffffffffffffffffffffffff1681526020018373ffffffffffffffffffffffffffffffffffffffff1673ffffffffffffffffffffffffffffffffffffffff168152602001828152602001935050505060206040518083038186803b15801561216d57600080fd5b505afa158015612181573d6000803e3d6000fd5b505050506040513d602081101561219757600080fd5b810190808051906020019092919050505015156121ff576040517f08c379a000000000000000000000000000000000000000000000000000000000815260040180806020018281038252603081526020018061688e6030913960400191505060405180910390fd5b603660009054906101000a900473ffffffffffffffffffffffffffffffffffffffff1673ffffffffffffffffffffffffffffffffffffffff1663fa51854c8733886040518463ffffffff167c0100000000000000000000000000000000000000000000000000000000028152600401808473ffffffffffffffffffffffffffffffffffffffff1673ffffffffffffffffffffffffffffffffffffffff1681526020018373ffffffffffffffffffffffffffffffffffffffff1673ffffffffffffffffffffffffffffffffffffffff168152602001821515151581526020019350505050600060405180830381600087803b1580156122fc57600080fd5b505af1158015612310573d6000803e3d6000fd5b505050508415612378573373ffffffffffffffffffffffffffffffffffffffff168673ffffffffffffffffffffffffffffffffffffffff167e058a56ea94653cdf4f152d227ace22d4c00ad99e2a43f58cb7d9e3feb295f260405160405180910390a36123d3565b3373ffffffffffffffffffffffffffffffffffffffff168673ffffffffffffffffffffffffffffffffffffffff167f44c58d81365b66dd4b1a7f36c25aa97b8c71c361ee4937adc1a00000227db5dd60405160405180910390a35b5050506000548114151561244f576040517f08c379a000000000000000000000000000000000000000000000000000000000815260040180806020018281038252601f8152602001807f5265656e7472616e637947756172643a207265656e7472616e742063616c6c0081525060200191505060405180910390fd5b505050565b60016000808282540192505081905550600080549050836124748161600a565b8361247e816162ab565b612486616709565b603660009054906101000a900473ffffffffffffffffffffffffffffffffffffffff1673ffffffffffffffffffffffffffffffffffffffff16639fb8afcd88876040518363ffffffff167c0100000000000000000000000000000000000000000000000000000000028152600401808373ffffffffffffffffffffffffffffffffffffffff1673ffffffffffffffffffffffffffffffffffffffff1681526020018273ffffffffffffffffffffffffffffffffffffffff1673ffffffffffffffffffffffffffffffffffffffff1681526020019250505060606040518083038186803b15801561257557600080fd5b505afa158015612589573d6000803e3d6000fd5b505050506040513d606081101561259f57600080fd5b81019080805190602001909291908051906020019092919080519060200190929190505050836000018460200185604001838152508381525083815250505050603660009054906101000a900473ffffffffffffffffffffffffffffffffffffffff1673ffffffffffffffffffffffffffffffffffffffff1663feab31ac88876040518363ffffffff167c0100000000000000000000000000000000000000000000000000000000028152600401808373ffffffffffffffffffffffffffffffffffffffff1673ffffffffffffffffffffffffffffffffffffffff1681526020018273ffffffffffffffffffffffffffffffffffffffff1673ffffffffffffffffffffffffffffffffffffffff1681526020019250505060206040518083038186803b1580156126ce57600080fd5b505afa1580156126e2573d6000803e3d6000fd5b505050506040513d60208110156126f857600080fd5b81019080805190602001909291905050508160e00181815250508673ffffffffffffffffffffffffffffffffffffffff16612731616326565b73ffffffffffffffffffffffffffffffffffffffff1614816060019015159081151581525050600081602001511115156127b6576040517f08c379a0000000000000000000000000000000000000000000000000000000008152600401808060200182810382526029815260200180616b996029913960400191505060405180910390fd5b7fffffffffffffffffffffffffffffffffffffffffffffffffffffffffffffffff8614158061281057508473ffffffffffffffffffffffffffffffffffffffff163373ffffffffffffffffffffffffffffffffffffffff16145b1515612867576040517f08c379a0000000000000000000000000000000000000000000000000000000008152600401808060200182810382526044815260200180616bf26044913960600191505060405180910390fd5b6128828160e00151826020015161634290919063ffffffff16565b8160800181815250507fffffffffffffffffffffffffffffffffffffffffffffffffffffffffffffffff86141580156128be5750806080015186105b156128ce57858160800181815250505b806060015115806128e3575080608001513410155b151561293a576040517f08c379a00000000000000000000000000000000000000000000000000000000081526004018080602001828103825260288152602001806169476028913960400191505060405180910390fd5b8060e001518160800151111515612d4257603660009054906101000a900473ffffffffffffffffffffffffffffffffffffffff1673ffffffffffffffffffffffffffffffffffffffff1663da12d96f888760008560800151866040015160006040518763ffffffff167c0100000000000000000000000000000000000000000000000000000000028152600401808773ffffffffffffffffffffffffffffffffffffffff1673ffffffffffffffffffffffffffffffffffffffff1681526020018673ffffffffffffffffffffffffffffffffffffffff1673ffffffffffffffffffffffffffffffffffffffff168152602001858152602001848152602001838152602001821515151581526020019650505050505050600060405180830381600087803b158015612a6a57600080fd5b505af1158015612a7e573d6000803e3d6000fd5b50505050603660009054906101000a900473ffffffffffffffffffffffffffffffffffffffff1673ffffffffffffffffffffffffffffffffffffffff1663c7d142378260600151612ad0576000612ad6565b82608001515b89888560800151603560009054906101000a900473ffffffffffffffffffffffffffffffffffffffff1673ffffffffffffffffffffffffffffffffffffffff1663ee8912966040518163ffffffff167c010000000000000000000000000000000000000000000000000000000002815260040160206040518083038186803b158015612b6157600080fd5b505afa158015612b75573d6000803e3d6000fd5b505050506040513d6020811015612b8b57600080fd5b81019080805190602001909291905050506040518663ffffffff167c0100000000000000000000000000000000000000000000000000000000028152600401808573ffffffffffffffffffffffffffffffffffffffff1673ffffffffffffffffffffffffffffffffffffffff1681526020018473ffffffffffffffffffffffffffffffffffffffff1673ffffffffffffffffffffffffffffffffffffffff1681526020018381526020018273ffffffffffffffffffffffffffffffffffffffff1673ffffffffffffffffffffffffffffffffffffffff1681526020019450505050506000604051808303818588803b158015612c8657600080fd5b505af1158015612c9a573d6000803e3d6000fd5b50505050503373ffffffffffffffffffffffffffffffffffffffff168573ffffffffffffffffffffffffffffffffffffffff168873ffffffffffffffffffffffffffffffffffffffff167fb718f0b14f03d8c3adf35b15e3da52421b042ac879e5a689011a8b1e0036773d600085608001518660400151426040518085815260200184815260200183815260200182815260200194505050505060405180910390a4506132b3565b612d5d8160e0015182608001516163cc90919063ffffffff16565b8160a0018181525050603660009054906101000a900473ffffffffffffffffffffffffffffffffffffffff1673ffffffffffffffffffffffffffffffffffffffff1663da12d96f88878460a001518560e0015186604001518760a001518860200151146040518763ffffffff167c0100000000000000000000000000000000000000000000000000000000028152600401808773ffffffffffffffffffffffffffffffffffffffff1673ffffffffffffffffffffffffffffffffffffffff1681526020018673ffffffffffffffffffffffffffffffffffffffff1673ffffffffffffffffffffffffffffffffffffffff168152602001858152602001848152602001838152602001821515151581526020019650505050505050600060405180830381600087803b158015612e9157600080fd5b505af1158015612ea5573d6000803e3d6000fd5b5050505060008160e0015111156130d457603660009054906101000a900473ffffffffffffffffffffffffffffffffffffffff1673ffffffffffffffffffffffffffffffffffffffff1663c7d142378260600151612f04576000612f0a565b8260e001515b89888560e00151603560009054906101000a900473ffffffffffffffffffffffffffffffffffffffff1673ffffffffffffffffffffffffffffffffffffffff1663ee8912966040518163ffffffff167c010000000000000000000000000000000000000000000000000000000002815260040160206040518083038186803b158015612f9557600080fd5b505afa158015612fa9573d6000803e3d6000fd5b505050506040513d6020811015612fbf57600080fd5b81019080805190602001909291905050506040518663ffffffff167c0100000000000000000000000000000000000000000000000000000000028152600401808573ffffffffffffffffffffffffffffffffffffffff1673ffffffffffffffffffffffffffffffffffffffff1681526020018473ffffffffffffffffffffffffffffffffffffffff1673ffffffffffffffffffffffffffffffffffffffff1681526020018381526020018273ffffffffffffffffffffffffffffffffffffffff1673ffffffffffffffffffffffffffffffffffffffff1681526020019450505050506000604051808303818588803b1580156130ba57600080fd5b505af11580156130ce573d6000803e3d6000fd5b50505050505b603660009054906101000a900473ffffffffffffffffffffffffffffffffffffffff1673ffffffffffffffffffffffffffffffffffffffff166328fcf4d3826060015161312257600061313a565b6131398360e00151346163cc90919063ffffffff16565b5b89338560a001516040518563ffffffff167c0100000000000000000000000000000000000000000000000000000000028152600401808473ffffffffffffffffffffffffffffffffffffffff1673ffffffffffffffffffffffffffffffffffffffff1681526020018373ffffffffffffffffffffffffffffffffffffffff1673ffffffffffffffffffffffffffffffffffffffff16815260200182815260200193505050506000604051808303818588803b1580156131f857600080fd5b505af115801561320c573d6000803e3d6000fd5b50505050503373ffffffffffffffffffffffffffffffffffffffff168573ffffffffffffffffffffffffffffffffffffffff168873ffffffffffffffffffffffffffffffffffffffff167fb718f0b14f03d8c3adf35b15e3da52421b042ac879e5a689011a8b1e0036773d8460a001518560e001518660400151426040518085815260200184815260200183815260200182815260200194505050505060405180910390a4505b50506000548114151561332e576040517f08c379a000000000000000000000000000000000000000000000000000000000815260040180806020018281038252601f8152602001807f5265656e7472616e637947756172643a207265656e7472616e742063616c6c0081525060200191505060405180910390fd5b50505050565b600281565b6001600080828254019250508190555060008054905084603660009054906101000a900473ffffffffffffffffffffffffffffffffffffffff1673ffffffffffffffffffffffffffffffffffffffff166334b3beee826040518263ffffffff167c0100000000000000000000000000000000000000000000000000000000028152600401808273ffffffffffffffffffffffffffffffffffffffff1673ffffffffffffffffffffffffffffffffffffffff16815260200191505060206040518083038186803b15801561340b57600080fd5b505afa15801561341f573d6000803e3d6000fd5b505050506040513d602081101561343557600080fd5b810190808051906020019092919050505073ffffffffffffffffffffffffffffffffffffffff163373ffffffffffffffffffffffffffffffffffffffff161415156134cb576040517f08c379a000000000000000000000000000000000000000000000000000000000815260040180806020018281038252604b815260200180616a2a604b913960600191505060405180910390fd5b856134d58161600a565b846134df816162ab565b6000603660009054906101000a900473ffffffffffffffffffffffffffffffffffffffff1673ffffffffffffffffffffffffffffffffffffffff1663e24030198a6040518263ffffffff167c0100000000000000000000000000000000000000000000000000000000028152600401808273ffffffffffffffffffffffffffffffffffffffff1673ffffffffffffffffffffffffffffffffffffffff16815260200191505060206040518083038186803b15801561359c57600080fd5b505afa1580156135b0573d6000803e3d6000fd5b505050506040513d60208110156135c657600080fd5b81019080805190602001909291905050509050868110151515613634576040517f08c379a00000000000000000000000000000000000000000000000000000000081526004018080602001828103825260318152602001806168e26031913960400191505060405180910390fd5b603660009054906101000a900473ffffffffffffffffffffffffffffffffffffffff1673ffffffffffffffffffffffffffffffffffffffff1663afcdbea38a8a8a60008b146040518563ffffffff167c0100000000000000000000000000000000000000000000000000000000028152600401808573ffffffffffffffffffffffffffffffffffffffff1673ffffffffffffffffffffffffffffffffffffffff1681526020018473ffffffffffffffffffffffffffffffffffffffff1673ffffffffffffffffffffffffffffffffffffffff16815260200183815260200182151515158152602001945050505050600060405180830381600087803b15801561373c57600080fd5b505af1158015613750573d6000803e3d6000fd5b50505050603660009054906101000a900473ffffffffffffffffffffffffffffffffffffffff1673ffffffffffffffffffffffffffffffffffffffff1663fa93b2a58a8a8a6040518463ffffffff167c0100000000000000000000000000000000000000000000000000000000028152600401808473ffffffffffffffffffffffffffffffffffffffff1673ffffffffffffffffffffffffffffffffffffffff1681526020018373ffffffffffffffffffffffffffffffffffffffff1673ffffffffffffffffffffffffffffffffffffffff1681526020018281526020019350505050600060405180830381600087803b15801561384d57600080fd5b505af1158015613861573d6000803e3d6000fd5b505050508773ffffffffffffffffffffffffffffffffffffffff168973ffffffffffffffffffffffffffffffffffffffff167f9c4ed599cd8555b9c1e8cd7643240d7d71eb76b792948c49fcb4d411f7b6b3c68942604051808381526020018281526020019250505060405180910390a3505050506000548114151561394f576040517f08c379a000000000000000000000000000000000000000000000000000000000815260040180806020018281038252601f8152602001807f5265656e7472616e637947756172643a207265656e7472616e742063616c6c0081525060200191505060405180910390fd5b5050505050565b603760009054906101000a900473ffffffffffffffffffffffffffffffffffffffff1681565b600080600080600080600080603760009054906101000a900473ffffffffffffffffffffffffffffffffffffffff1673ffffffffffffffffffffffffffffffffffffffff1663bf92857c8a6040518263ffffffff167c0100000000000000000000000000000000000000000000000000000000028152600401808273ffffffffffffffffffffffffffffffffffffffff1673ffffffffffffffffffffffffffffffffffffffff1681526020019150506101006040518083038186803b158015613a4457600080fd5b505afa158015613a58573d6000803e3d6000fd5b505050506040513d610100811015613a6f57600080fd5b81019080805190602001909291908051906020019092919080519060200190929190805190602001909291908051906020019092919080519060200190929190805190602001909291908051906020019092919050505097509750975097509750975097509750919395975091939597565b6000613aeb616416565b9050600260009054906101000a900460ff1680613b0c5750613b0b61641f565b5b80613b18575060015481115b1515613b6f576040517f08c379a000000000000000000000000000000000000000000000000000000000815260040180806020018281038252602e815260200180616acc602e913960400191505060405180910390fd5b6000600260009054906101000a900460ff161590508015613bad576001600260006101000a81548160ff021916908315150217905550816001819055505b82603560006101000a81548173ffffffffffffffffffffffffffffffffffffffff021916908373ffffffffffffffffffffffffffffffffffffffff160217905550603560009054906101000a900473ffffffffffffffffffffffffffffffffffffffff1673ffffffffffffffffffffffffffffffffffffffff1663ed6ff7606040518163ffffffff167c010000000000000000000000000000000000000000000000000000000002815260040160206040518083038186803b158015613c7257600080fd5b505afa158015613c86573d6000803e3d6000fd5b505050506040513d6020811015613c9c57600080fd5b8101908080519060200190929190505050603660006101000a81548173ffffffffffffffffffffffffffffffffffffffff021916908373ffffffffffffffffffffffffffffffffffffffff160217905550603560009054906101000a900473ffffffffffffffffffffffffffffffffffffffff1673ffffffffffffffffffffffffffffffffffffffff16632f58b80d6040518163ffffffff167c010000000000000000000000000000000000000000000000000000000002815260040160206040518083038186803b158015613d7157600080fd5b505afa158015613d85573d6000803e3d6000fd5b505050506040513d6020811015613d9b57600080fd5b8101908080519060200190929190505050603760006101000a81548173ffffffffffffffffffffffffffffffffffffffff021916908373ffffffffffffffffffffffffffffffffffffffff160217905550603560009054906101000a900473ffffffffffffffffffffffffffffffffffffffff1673ffffffffffffffffffffffffffffffffffffffff166304061d8e6040518163ffffffff167c010000000000000000000000000000000000000000000000000000000002815260040160206040518083038186803b158015613e7057600080fd5b505afa158015613e84573d6000803e3d6000fd5b505050506040513d6020811015613e9a57600080fd5b8101908080519060200190929190505050603860006101000a81548173ffffffffffffffffffffffffffffffffffffffff021916908373ffffffffffffffffffffffffffffffffffffffff160217905550603560009054906101000a900473ffffffffffffffffffffffffffffffffffffffff1673ffffffffffffffffffffffffffffffffffffffff1663fbeefc3c6040518163ffffffff167c010000000000000000000000000000000000000000000000000000000002815260040160206040518083038186803b158015613f6f57600080fd5b505afa158015613f83573d6000803e3d6000fd5b505050506040513d6020811015613f9957600080fd5b8101908080519060200190929190505050603960006101000a81548173ffffffffffffffffffffffffffffffffffffffff021916908373ffffffffffffffffffffffffffffffffffffffff160217905550801561400c576000600260006101000a81548160ff0219169083151502179055505b505050565b603560009054906101000a900473ffffffffffffffffffffffffffffffffffffffff1681565b60016000808282540192505081905550600080549050846140578161600a565b856140618161615a565b8561406b816162ab565b614073616751565b603660009054906101000a900473ffffffffffffffffffffffffffffffffffffffff1673ffffffffffffffffffffffffffffffffffffffff16635cf2e6568a6040518263ffffffff167c0100000000000000000000000000000000000000000000000000000000028152600401808273ffffffffffffffffffffffffffffffffffffffff1673ffffffffffffffffffffffffffffffffffffffff16815260200191505060206040518083038186803b15801561412e57600080fd5b505afa158015614142573d6000803e3d6000fd5b505050506040513d602081101561415857600080fd5b810190808051906020019092919050505015156141c0576040517f08c379a00000000000000000000000000000000000000000000000000000000081526004018080602001828103825260248152602001806168be6024913960400191505060405180910390fd5b866002808111156141cd57fe5b14806141e4575086600160028111156141e257fe5b145b151561423b576040517f08c379a000000000000000000000000000000000000000000000000000000000815260040180806020018281038252602381526020018061681c6023913960400191505060405180910390fd5b86600281111561424757fe5b816101c00190600281111561425857fe5b9081600281111561426557fe5b81525050603660009054906101000a900473ffffffffffffffffffffffffffffffffffffffff1673ffffffffffffffffffffffffffffffffffffffff1663e24030198a6040518263ffffffff167c0100000000000000000000000000000000000000000000000000000000028152600401808273ffffffffffffffffffffffffffffffffffffffff1673ffffffffffffffffffffffffffffffffffffffff16815260200191505060206040518083038186803b15801561432457600080fd5b505afa158015614338573d6000803e3d6000fd5b505050506040513d602081101561434e57600080fd5b81019080805190602001909291905050508161016001818152505087816101600151101515156143c9576040517f08c379a0000000000000000000000000000000000000000000000000000000008152600401808060200182810382526036815260200180616a966036913960400191505060405180910390fd5b603760009054906101000a900473ffffffffffffffffffffffffffffffffffffffff1673ffffffffffffffffffffffffffffffffffffffff16632c6d0e9b336040518263ffffffff167c0100000000000000000000000000000000000000000000000000000000028152600401808273ffffffffffffffffffffffffffffffffffffffff1673ffffffffffffffffffffffffffffffffffffffff1681526020019150506101006040518083038186803b15801561448557600080fd5b505afa158015614499573d6000803e3d6000fd5b505050506040513d6101008110156144b057600080fd5b810190808051906020019092919080519060200190929190805190602001909291908051906020019092919080519060200190929190805190602001909291908051906020019092919080519060200190929190505050909192939495965090508660c0018760e0018861010001896020018a6040018b6101e0018615151515815250868152508681525086815250868152508681525050505050505060008160c001511115156145c9576040517f08c379a000000000000000000000000000000000000000000000000000000000815260040180806020018281038252601b8152602001807f54686520636f6c6c61746572616c2062616c616e63652069732030000000000081525060200191505060405180910390fd5b806101e00151151515614627576040517f08c379a000000000000000000000000000000000000000000000000000000000815260040180806020018281038252603f8152602001806167dd603f913960400191505060405180910390fd5b603960009054906101000a900473ffffffffffffffffffffffffffffffffffffffff1673ffffffffffffffffffffffffffffffffffffffff1663e563a7d0338a6040518363ffffffff167c0100000000000000000000000000000000000000000000000000000000028152600401808373ffffffffffffffffffffffffffffffffffffffff1673ffffffffffffffffffffffffffffffffffffffff1681526020018281526020019250505060206040518083038186803b1580156146ea57600080fd5b505afa1580156146fe573d6000803e3d6000fd5b505050506040513d602081101561471457600080fd5b81019080805190602001909291905050508160600181815250506000816060015111151561478d576040517f08c379a000000000000000000000000000000000000000000000000000000000815260040180806020018281038252602181526020018061683f6021913960400191505060405180910390fd5b603760009054906101000a900473ffffffffffffffffffffffffffffffffffffffff1673ffffffffffffffffffffffffffffffffffffffff1663ac776f418a8a84606001518560e0015186610100015187602001516040518763ffffffff167c0100000000000000000000000000000000000000000000000000000000028152600401808773ffffffffffffffffffffffffffffffffffffffff1673ffffffffffffffffffffffffffffffffffffffff168152602001868152602001858152602001848152602001838152602001828152602001965050505050505060206040518083038186803b15801561488157600080fd5b505afa158015614895573d6000803e3d6000fd5b505050506040513d60208110156148ab57600080fd5b81019080805190602001909291905050508160a00181815250508060c001518160a0015111151515614928576040517f08c379a00000000000000000000000000000000000000000000000000000000081526004018080602001828103825260348152602001806169f66034913960400191505060405180910390fd5b6001600281111561493557fe5b816101c00151600281111561494657fe5b1415614c2557603660009054906101000a900473ffffffffffffffffffffffffffffffffffffffff1673ffffffffffffffffffffffffffffffffffffffff1663e2174d868a338b6040518463ffffffff167c0100000000000000000000000000000000000000000000000000000000028152600401808473ffffffffffffffffffffffffffffffffffffffff1673ffffffffffffffffffffffffffffffffffffffff1681526020018373ffffffffffffffffffffffffffffffffffffffff1673ffffffffffffffffffffffffffffffffffffffff168152602001828152602001935050505060206040518083038186803b158015614a4357600080fd5b505afa158015614a57573d6000803e3d6000fd5b505050506040513d6020811015614a6d57600080fd5b81019080805190602001909291905050501515614ad5576040517f08c379a0000000000000000000000000000000000000000000000000000000008152600401808060200182810382526039815260200180616afa6039913960400191505060405180910390fd5b6000603860009054906101000a900473ffffffffffffffffffffffffffffffffffffffff1673ffffffffffffffffffffffffffffffffffffffff1663d6b725ac6040518163ffffffff167c010000000000000000000000000000000000000000000000000000000002815260040160206040518083038186803b158015614b5b57600080fd5b505afa158015614b6f573d6000803e3d6000fd5b505050506040513d6020811015614b8557600080fd5b810190808051906020019092919050505090506000614bc56064614bb78486610160015161643090919063ffffffff16565b6164ba90919063ffffffff16565b9050808a11151515614c22576040517f08c379a000000000000000000000000000000000000000000000000000000000815260040180806020018281038252603c815260200180616b5d603c913960400191505060405180910390fd5b50505b603660009054906101000a900473ffffffffffffffffffffffffffffffffffffffff1673ffffffffffffffffffffffffffffffffffffffff166337ac6fe48a338b8560600151866101c001516040518663ffffffff167c0100000000000000000000000000000000000000000000000000000000028152600401808673ffffffffffffffffffffffffffffffffffffffff1673ffffffffffffffffffffffffffffffffffffffff1681526020018573ffffffffffffffffffffffffffffffffffffffff1673ffffffffffffffffffffffffffffffffffffffff168152602001848152602001838152602001826002811115614d1c57fe5b60ff168152602001955050505050506040805180830381600087803b158015614d4457600080fd5b505af1158015614d58573d6000803e3d6000fd5b505050506040513d6040811015614d6e57600080fd5b810190808051906020019092919080519060200190929190505050826101a001836101200182815250828152505050603660009054906101000a900473ffffffffffffffffffffffffffffffffffffffff1673ffffffffffffffffffffffffffffffffffffffff1663fa93b2a58a338b6040518463ffffffff167c0100000000000000000000000000000000000000000000000000000000028152600401808473ffffffffffffffffffffffffffffffffffffffff1673ffffffffffffffffffffffffffffffffffffffff1681526020018373ffffffffffffffffffffffffffffffffffffffff1673ffffffffffffffffffffffffffffffffffffffff1681526020018281526020019350505050600060405180830381600087803b158015614e9657600080fd5b505af1158015614eaa573d6000803e3d6000fd5b505050508561ffff163373ffffffffffffffffffffffffffffffffffffffff168a73ffffffffffffffffffffffffffffffffffffffff167f1e77446728e5558aa1b7e81e0cdab9cc1b075ba893b740600c76a315c2caa5538b8b866101a0015187606001518861012001514260405180878152602001868152602001858152602001848152602001838152602001828152602001965050505050505060405180910390a45050505060005481141515614fcb576040517f08c379a000000000000000000000000000000000000000000000000000000000815260040180806020018281038252601f8152602001807f5265656e7472616e637947756172643a207265656e7472616e742063616c6c0081525060200191505060405180910390fd5b5050505050565b6001600080828254019250508190555060008054905082614ff28161600a565b600080603660009054906101000a900473ffffffffffffffffffffffffffffffffffffffff1673ffffffffffffffffffffffffffffffffffffffff16639fb8afcd87876040518363ffffffff167c0100000000000000000000000000000000000000000000000000000000028152600401808373ffffffffffffffffffffffffffffffffffffffff1673ffffffffffffffffffffffffffffffffffffffff1681526020018273ffffffffffffffffffffffffffffffffffffffff1673ffffffffffffffffffffffffffffffffffffffff1681526020019250505060606040518083038186803b1580156150e457600080fd5b505afa1580156150f8573d6000803e3d6000fd5b505050506040513d606081101561510e57600080fd5b810190808051906020019092919080519060200190929190805190602001909291905050509250925050600082111515615193576040517f08c379a000000000000000000000000000000000000000000000000000000000815260040180806020018281038252602e815260200180616860602e913960400191505060405180910390fd5b600160028111156151a057fe5b603660009054906101000a900473ffffffffffffffffffffffffffffffffffffffff1673ffffffffffffffffffffffffffffffffffffffff16631ca19f1988886040518363ffffffff167c0100000000000000000000000000000000000000000000000000000000028152600401808373ffffffffffffffffffffffffffffffffffffffff1673ffffffffffffffffffffffffffffffffffffffff1681526020018273ffffffffffffffffffffffffffffffffffffffff1673ffffffffffffffffffffffffffffffffffffffff1681526020019250505060206040518083038186803b15801561528f57600080fd5b505afa1580156152a3573d6000803e3d6000fd5b505050506040513d60208110156152b957600080fd5b810190808051906020019092919050505060028111156152d557fe5b14151561532d576040517f08c379a00000000000000000000000000000000000000000000000000000000081526004018080602001828103825260348152602001806169136034913960400191505060405180910390fd5b6000603660009054906101000a900473ffffffffffffffffffffffffffffffffffffffff1673ffffffffffffffffffffffffffffffffffffffff16636fffab0c88886040518363ffffffff167c0100000000000000000000000000000000000000000000000000000000028152600401808373ffffffffffffffffffffffffffffffffffffffff1673ffffffffffffffffffffffffffffffffffffffff1681526020018273ffffffffffffffffffffffffffffffffffffffff1673ffffffffffffffffffffffffffffffffffffffff1681526020019250505060206040518083038186803b15801561541e57600080fd5b505afa158015615432573d6000803e3d6000fd5b505050506040513d602081101561544857600080fd5b810190808051906020019092919050505090506000603660009054906101000a900473ffffffffffffffffffffffffffffffffffffffff1673ffffffffffffffffffffffffffffffffffffffff1663c540148e896040518263ffffffff167c0100000000000000000000000000000000000000000000000000000000028152600401808273ffffffffffffffffffffffffffffffffffffffff1673ffffffffffffffffffffffffffffffffffffffff16815260200191505060206040518083038186803b15801561551857600080fd5b505afa15801561552c573d6000803e3d6000fd5b505050506040513d602081101561554257600080fd5b810190808051906020019092919050505090506000603660009054906101000a900473ffffffffffffffffffffffffffffffffffffffff1673ffffffffffffffffffffffffffffffffffffffff166388079d888a6040518263ffffffff167c0100000000000000000000000000000000000000000000000000000000028152600401808273ffffffffffffffffffffffffffffffffffffffff1673ffffffffffffffffffffffffffffffffffffffff16815260200191505060206040518083038186803b15801561561257600080fd5b505afa158015615626573d6000803e3d6000fd5b505050506040513d602081101561563c57600080fd5b81019080805190602001909291905050509050600061573b61572c603860009054906101000a900473ffffffffffffffffffffffffffffffffffffffff1673ffffffffffffffffffffffffffffffffffffffff166346f4f8d16040518163ffffffff167c010000000000000000000000000000000000000000000000000000000002815260040160206040518083038186803b1580156156db57600080fd5b505afa1580156156ef573d6000803e3d6000fd5b505050506040513d602081101561570557600080fd5b810190808051906020019092919050505061571e616504565b61634290919063ffffffff16565b8361651890919063ffffffff16565b90508284108061574a57508084115b15615908576000603660009054906101000a900473ffffffffffffffffffffffffffffffffffffffff1673ffffffffffffffffffffffffffffffffffffffff1663af825b078c8c896040518463ffffffff167c0100000000000000000000000000000000000000000000000000000000028152600401808473ffffffffffffffffffffffffffffffffffffffff1673ffffffffffffffffffffffffffffffffffffffff1681526020018373ffffffffffffffffffffffffffffffffffffffff1673ffffffffffffffffffffffffffffffffffffffff1681526020018281526020019350505050602060405180830381600087803b15801561584a57600080fd5b505af115801561585e573d6000803e3d6000fd5b505050506040513d602081101561587457600080fd5b810190808051906020019092919050505090508973ffffffffffffffffffffffffffffffffffffffff168b73ffffffffffffffffffffffffffffffffffffffff167f5050ad184862424ee0852d1838d355ad65bed1e5e6da67ac9a2dac1922677f6083894260405180848152602001838152602001828152602001935050505060405180910390a350505050505050615959565b6040517f08c379a000000000000000000000000000000000000000000000000000000000815260040180806020018281038252602f815260200180616990602f913960400191505060405180910390fd5b50600054811415156159d3576040517f08c379a000000000000000000000000000000000000000000000000000000000815260040180806020018281038252601f8152602001807f5265656e7472616e637947756172643a207265656e7472616e742063616c6c0081525060200191505060405180910390fd5b505050565b7fffffffffffffffffffffffffffffffffffffffffffffffffffffffffffffffff81565b6001600080828254019250508190555060008054905083615a1c8161600a565b84615a268161615a565b84615a30816162ab565b6000603660009054906101000a900473ffffffffffffffffffffffffffffffffffffffff1673ffffffffffffffffffffffffffffffffffffffff166334b3beee896040518263ffffffff167c0100000000000000000000000000000000000000000000000000000000028152600401808273ffffffffffffffffffffffffffffffffffffffff1673ffffffffffffffffffffffffffffffffffffffff16815260200191505060206040518083038186803b158015615aed57600080fd5b505afa158015615b01573d6000803e3d6000fd5b505050506040513d6020811015615b1757600080fd5b810190808051906020019092919050505090506000808273ffffffffffffffffffffffffffffffffffffffff166370a08231336040518263ffffffff167c0100000000000000000000000000000000000000000000000000000000028152600401808273ffffffffffffffffffffffffffffffffffffffff1673ffffffffffffffffffffffffffffffffffffffff16815260200191505060206040518083038186803b158015615bc657600080fd5b505afa158015615bda573d6000803e3d6000fd5b505050506040513d6020811015615bf057600080fd5b8101908080519060200190929190505050149050603660009054906101000a900473ffffffffffffffffffffffffffffffffffffffff1673ffffffffffffffffffffffffffffffffffffffff1663bcd6ffa48a338b856040518563ffffffff167c0100000000000000000000000000000000000000000000000000000000028152600401808573ffffffffffffffffffffffffffffffffffffffff1673ffffffffffffffffffffffffffffffffffffffff1681526020018473ffffffffffffffffffffffffffffffffffffffff1673ffffffffffffffffffffffffffffffffffffffff16815260200183815260200182151515158152602001945050505050600060405180830381600087803b158015615d0957600080fd5b505af1158015615d1d573d6000803e3d6000fd5b505050508173ffffffffffffffffffffffffffffffffffffffff166394362e8b338a6040518363ffffffff167c0100000000000000000000000000000000000000000000000000000000028152600401808373ffffffffffffffffffffffffffffffffffffffff1673ffffffffffffffffffffffffffffffffffffffff16815260200182815260200192505050600060405180830381600087803b158015615dc457600080fd5b505af1158015615dd8573d6000803e3d6000fd5b50505050603660009054906101000a900473ffffffffffffffffffffffffffffffffffffffff1673ffffffffffffffffffffffffffffffffffffffff166328fcf4d3348b338c6040518563ffffffff167c0100000000000000000000000000000000000000000000000000000000028152600401808473ffffffffffffffffffffffffffffffffffffffff1673ffffffffffffffffffffffffffffffffffffffff1681526020018373ffffffffffffffffffffffffffffffffffffffff1673ffffffffffffffffffffffffffffffffffffffff16815260200182815260200193505050506000604051808303818588803b158015615ed557600080fd5b505af1158015615ee9573d6000803e3d6000fd5b50505050508661ffff163373ffffffffffffffffffffffffffffffffffffffff168a73ffffffffffffffffffffffffffffffffffffffff167fc12c57b1c73a2c3a2ea4613e9476abb3d8d146857aab7329e24243fb59710c828b42604051808381526020018281526020019250505060405180910390a4505050505060005481141515615fde576040517f08c379a000000000000000000000000000000000000000000000000000000000815260040180806020018281038252601f8152602001807f5265656e7472616e637947756172643a207265656e7472616e742063616c6c0081525060200191505060405180910390fd5b50505050565b603660009054906101000a900473ffffffffffffffffffffffffffffffffffffffff1681565b603660009054906101000a900473ffffffffffffffffffffffffffffffffffffffff1673ffffffffffffffffffffffffffffffffffffffff166305075d6e826040518263ffffffff167c0100000000000000000000000000000000000000000000000000000000028152600401808273ffffffffffffffffffffffffffffffffffffffff1673ffffffffffffffffffffffffffffffffffffffff16815260200191505060206040518083038186803b1580156160c557600080fd5b505afa1580156160d9573d6000803e3d6000fd5b505050506040513d60208110156160ef57600080fd5b81019080805190602001909291905050501515616157576040517f08c379a000000000000000000000000000000000000000000000000000000000815260040180806020018281038252602181526020018061696f6021913960400191505060405180910390fd5b50565b603660009054906101000a900473ffffffffffffffffffffffffffffffffffffffff1673ffffffffffffffffffffffffffffffffffffffff16634a08accb826040518263ffffffff167c0100000000000000000000000000000000000000000000000000000000028152600401808273ffffffffffffffffffffffffffffffffffffffff1673ffffffffffffffffffffffffffffffffffffffff16815260200191505060206040518083038186803b15801561621557600080fd5b505afa158015616229573d6000803e3d6000fd5b505050506040513d602081101561623f57600080fd5b81019080805190602001909291905050501515156162a8576040517f08c379a0000000000000000000000000000000000000000000000000000000008152600401808060200182810382526024815260200180616c366024913960400191505060405180910390fd5b50565b600081111515616323576040517f08c379a000000000000000000000000000000000000000000000000000000000815260040180806020018281038252601d8152602001807f416d6f756e74206d7573742062652067726561746572207468616e203000000081525060200191505060405180910390fd5b50565b600073eeeeeeeeeeeeeeeeeeeeeeeeeeeeeeeeeeeeeeee905090565b60008082840190508381101515156163c2576040517f08c379a000000000000000000000000000000000000000000000000000000000815260040180806020018281038252601b8152602001807f536166654d6174683a206164646974696f6e206f766572666c6f77000000000081525060200191505060405180910390fd5b8091505092915050565b600061640e83836040805190810160405280601e81526020017f536166654d6174683a207375627472616374696f6e206f766572666c6f77000081525061657d565b905092915050565b60006002905090565b600080303b90506000811491505090565b60008083141561644357600090506164b4565b6000828402905082848281151561645657fe5b041415156164af576040517f08c379a0000000000000000000000000000000000000000000000000000000008152600401808060200182810382526021815260200180616a756021913960400191505060405180910390fd5b809150505b92915050565b60006164fc83836040805190810160405280601a81526020017f536166654d6174683a206469766973696f6e206279207a65726f00000000000081525061663f565b905092915050565b60006b033b2e3c9fd0803ce8000000905090565b60006165756b033b2e3c9fd0803ce8000000616567616540858761643090919063ffffffff16565b60026b033b2e3c9fd0803ce800000081151561655857fe5b0461634290919063ffffffff16565b6164ba90919063ffffffff16565b905092915050565b6000838311158290151561662c576040517f08c379a00000000000000000000000000000000000000000000000000000000081526004018080602001828103825283818151815260200191508051906020019080838360005b838110156165f15780820151818401526020810190506165d6565b50505050905090810190601f16801561661e5780820380516001836020036101000a031916815260200191505b509250505060405180910390fd5b5060008385039050809150509392505050565b6000808311829015156166ed576040517f08c379a00000000000000000000000000000000000000000000000000000000081526004018080602001828103825283818151815260200191508051906020019080838360005b838110156166b2578082015181840152602081019050616697565b50505050905090810190601f1680156166df5780820380516001836020036101000a031916815260200191505b509250505060405180910390fd5b50600083858115156166fb57fe5b049050809150509392505050565b61010060405190810160405280600081526020016000815260200160008152602001600015158152602001600081526020016000815260200160008152602001600081525090565b610200604051908101604052806000815260200160008152602001600081526020016000815260200160008152602001600081526020016000815260200160008152602001600081526020016000815260200160008152602001600081526020016000815260200160008152602001600060028111156167cd57fe5b8152602001600015158152509056fe54686520626f72726f7765722063616e20616c7265616479206265206c69717569646174656420736f2068652063616e6e6f7420626f72726f77206d6f7265496e76616c696420696e7465726573742072617465206d6f64652073656c656374656454686520616d6f756e7420746f20626f72726f7720697320746f6f20736d616c6c5573657220646f6573206e6f74206861766520616e7920626f72726f7720666f722074686973207265736572766555736572206465706f73697420697320616c7265616479206265696e67207573656420617320636f6c6c61746572616c52657365727665206973206e6f7420656e61626c656420666f7220626f72726f77696e675468657265206973206e6f7420656e6f756768206c697175696469747920617661696c61626c6520746f2072656465656d546865207573657220626f72726f77206973207661726961626c6520616e642063616e6e6f7420626520726562616c616e636564496e76616c6964206d73672e76616c75652073656e7420666f72207468652072657061796d656e74416374696f6e20726571756972657320616e206163746976652072657365727665496e746572657374207261746520726562616c616e636520636f6e646974696f6e732077657265206e6f74206d65745573657220646f6573206e6f742068617665206120626f72726f7720696e2070726f6772657373206f6e207468697320726573657276655468657265206973206e6f7420656e6f75676820636f6c6c61746572616c20746f20636f7665722061206e657720626f72726f775468652063616c6c6572206f6620746869732066756e6374696f6e2063616e206f6e6c79206265207468652061546f6b656e20636f6e7472616374206f6620746869732072657365727665536166654d6174683a206d756c7469706c69636174696f6e206f766572666c6f775468657265206973206e6f7420656e6f756768206c697175696469747920617661696c61626c6520696e207468652072657365727665436f6e747261637420696e7374616e63652068617320616c7265616479206265656e20696e697469616c697a6564557365722063616e6e6f7420626f72726f77207468652073656c656374656420616d6f756e742077697468206120737461626c6520726174655573657220646f6573206e6f74206861766520616e79206c6971756964697479206465706f73697465645573657220697320747279696e6720746f20626f72726f7720746f6f206d756368206c6971756964697479206174206120737461626c652072617465546865207573657220646f6573206e6f74206861766520616e7920626f72726f772070656e64696e67557365722063616e6e6f7420626f72726f77207468652073656c656374656420616d6f756e7420617420737461626c65546f207265706179206f6e20626568616c66206f6620616e207573657220616e206578706c6963697420616d6f756e7420746f207265706179206973206e65656465642e416374696f6e20726571756972657320616e20756e667265657a65642072657365727665a165627a7a723058201603c410816db9b3a3a9e40a1eeb8488f68dac6e9d0676d0e41f5b48cb7a95050029",
  "source": "pragma solidity ^0.5.0;\n\nimport \"../libraries/openzeppelin-solidity/contracts/math/SafeMath.sol\";\nimport \"../libraries/openzeppelin-solidity/contracts/utils/ReentrancyGuard.sol\";\nimport \"../libraries/openzeppelin-solidity/contracts/utils/Address.sol\";\nimport \"../libraries/openzeppelin-solidity/contracts/token/ERC20/IERC20.sol\";\nimport \"../libraries/openzeppelin-upgradeability/VersionedInitializable.sol\";\n\nimport \"../configuration/LendingPoolAddressesProvider.sol\";\nimport \"../configuration/LendingPoolParametersProvider.sol\";\nimport \"../tokenization/AToken.sol\";\nimport \"../libraries/CoreLibrary.sol\";\nimport \"../libraries/WadRayMath.sol\";\nimport \"../interfaces/IFeeProvider.sol\";\nimport \"./LendingPoolCore.sol\";\nimport \"./LendingPoolDataProvider.sol\";\nimport \"./LendingPoolLiquidationManager.sol\";\nimport \"../libraries/TrxAddressLib.sol\";\n\n/**\n* @title LendingPool contract\n* @notice Implements the actions of the LendingPool, and exposes accessory methods to fetch the users and reserve data\n* @author Aave\n **/\n\ncontract LendingPool is ReentrancyGuard, VersionedInitializable {\n    using SafeMath for uint256;\n    using WadRayMath for uint256;\n    using Address for address;\n\n    LendingPoolAddressesProvider public addressesProvider;\n    LendingPoolCore public core;\n    LendingPoolDataProvider public dataProvider;\n    LendingPoolParametersProvider public parametersProvider;\n    IFeeProvider feeProvider;\n\n    /**\n    * @dev emitted on deposit\n    * @param _reserve the address of the reserve\n    * @param _user the address of the user\n    * @param _amount the amount to be deposited\n    * @param _referral the referral number of the action\n    * @param _timestamp the timestamp of the action\n    **/\n    event Deposit(\n        address indexed _reserve,\n        address indexed _user,\n        uint256 _amount,\n        uint16 indexed _referral,\n        uint256 _timestamp\n    );\n\n    /**\n    * @dev emitted during a redeem action.\n    * @param _reserve the address of the reserve\n    * @param _user the address of the user\n    * @param _amount the amount to be deposited\n    * @param _timestamp the timestamp of the action\n    **/\n    event RedeemUnderlying(\n        address indexed _reserve,\n        address indexed _user,\n        uint256 _amount,\n        uint256 _timestamp\n    );\n\n    /**\n    * @dev emitted on borrow\n    * @param _reserve the address of the reserve\n    * @param _user the address of the user\n    * @param _amount the amount to be deposited\n    * @param _borrowRateMode the rate mode, can be either 1-stable or 2-variable\n    * @param _borrowRate the rate at which the user has borrowed\n    * @param _originationFee the origination fee to be paid by the user\n    * @param _borrowBalanceIncrease the balance increase since the last borrow, 0 if it's the first time borrowing\n    * @param _referral the referral number of the action\n    * @param _timestamp the timestamp of the action\n    **/\n    event Borrow(\n        address indexed _reserve,\n        address indexed _user,\n        uint256 _amount,\n        uint256 _borrowRateMode,\n        uint256 _borrowRate,\n        uint256 _originationFee,\n        uint256 _borrowBalanceIncrease,\n        uint16 indexed _referral,\n        uint256 _timestamp\n    );\n\n    /**\n    * @dev emitted on repay\n    * @param _reserve the address of the reserve\n    * @param _user the address of the user for which the repay has been executed\n    * @param _repayer the address of the user that has performed the repay action\n    * @param _amountMinusFees the amount repaid minus fees\n    * @param _fees the fees repaid\n    * @param _borrowBalanceIncrease the balance increase since the last action\n    * @param _timestamp the timestamp of the action\n    **/\n    event Repay(\n        address indexed _reserve,\n        address indexed _user,\n        address indexed _repayer,\n        uint256 _amountMinusFees,\n        uint256 _fees,\n        uint256 _borrowBalanceIncrease,\n        uint256 _timestamp\n    );\n\n    /**\n    * @dev emitted when a user performs a rate swap\n    * @param _reserve the address of the reserve\n    * @param _user the address of the user executing the swap\n    * @param _newRateMode the new interest rate mode\n    * @param _newRate the new borrow rate\n    * @param _borrowBalanceIncrease the balance increase since the last action\n    * @param _timestamp the timestamp of the action\n    **/\n    event Swap(\n        address indexed _reserve,\n        address indexed _user,\n        uint256 _newRateMode,\n        uint256 _newRate,\n        uint256 _borrowBalanceIncrease,\n        uint256 _timestamp\n    );\n\n    /**\n    * @dev emitted when a user enables a reserve as collateral\n    * @param _reserve the address of the reserve\n    * @param _user the address of the user\n    **/\n    event ReserveUsedAsCollateralEnabled(address indexed _reserve, address indexed _user);\n\n    /**\n    * @dev emitted when a user disables a reserve as collateral\n    * @param _reserve the address of the reserve\n    * @param _user the address of the user\n    **/\n    event ReserveUsedAsCollateralDisabled(address indexed _reserve, address indexed _user);\n\n    /**\n    * @dev emitted when the stable rate of a user gets rebalanced\n    * @param _reserve the address of the reserve\n    * @param _user the address of the user for which the rebalance has been executed\n    * @param _newStableRate the new stable borrow rate after the rebalance\n    * @param _borrowBalanceIncrease the balance increase since the last action\n    * @param _timestamp the timestamp of the action\n    **/\n    event RebalanceStableBorrowRate(\n        address indexed _reserve,\n        address indexed _user,\n        uint256 _newStableRate,\n        uint256 _borrowBalanceIncrease,\n        uint256 _timestamp\n    );\n\n\n    /**\n    * @dev these events are not emitted directly by the LendingPool\n    * but they are declared here as the LendingPoolLiquidationManager\n    * is executed using a delegateCall().\n    * This allows to have the events in the generated ABI for LendingPool.\n    **/\n\n    /**\n    * @dev emitted when a borrow fee is liquidated\n    * @param _collateral the address of the collateral being liquidated\n    * @param _reserve the address of the reserve\n    * @param _user the address of the user being liquidated\n    * @param _feeLiquidated the total fee liquidated\n    * @param _liquidatedCollateralForFee the amount of collateral received by the protocol in exchange for the fee\n    * @param _timestamp the timestamp of the action\n    **/\n    event OriginationFeeLiquidated(\n        address indexed _collateral,\n        address indexed _reserve,\n        address indexed _user,\n        uint256 _feeLiquidated,\n        uint256 _liquidatedCollateralForFee,\n        uint256 _timestamp\n    );\n\n    /**\n    * @dev emitted when a borrower is liquidated\n    * @param _collateral the address of the collateral being liquidated\n    * @param _reserve the address of the reserve\n    * @param _user the address of the user being liquidated\n    * @param _purchaseAmount the total amount liquidated\n    * @param _liquidatedCollateralAmount the amount of collateral being liquidated\n    * @param _accruedBorrowInterest the amount of interest accrued by the borrower since the last action\n    * @param _liquidator the address of the liquidator\n    * @param _receiveAToken true if the liquidator wants to receive aTokens, false otherwise\n    * @param _timestamp the timestamp of the action\n    **/\n    event LiquidationCall(\n        address indexed _collateral,\n        address indexed _reserve,\n        address indexed _user,\n        uint256 _purchaseAmount,\n        uint256 _liquidatedCollateralAmount,\n        uint256 _accruedBorrowInterest,\n        address _liquidator,\n        bool _receiveAToken,\n        uint256 _timestamp\n    );\n\n    /**\n    * @dev functions affected by this modifier can only be invoked by the\n    * aToken.sol contract\n    * @param _reserve the address of the reserve\n    **/\n    modifier onlyOverlyingAToken(address _reserve) {\n        require(\n            msg.sender == core.getReserveATokenAddress(_reserve),\n            \"The caller of this function can only be the aToken contract of this reserve\"\n        );\n        _;\n    }\n\n    /**\n    * @dev functions affected by this modifier can only be invoked if the reserve is active\n    * @param _reserve the address of the reserve\n    **/\n    modifier onlyActiveReserve(address _reserve) {\n        requireReserveActiveInternal(_reserve);\n        _;\n    }\n\n    /**\n    * @dev functions affected by this modifier can only be invoked if the reserve is not freezed.\n    * A freezed reserve only allows redeems, repays, rebalances and liquidations.\n    * @param _reserve the address of the reserve\n    **/\n    modifier onlyUnfreezedReserve(address _reserve) {\n        requireReserveNotFreezedInternal(_reserve);\n        _;\n    }\n\n    /**\n    * @dev functions affected by this modifier can only be invoked if the provided _amount input parameter\n    * is not zero.\n    * @param _amount the amount provided\n    **/\n    modifier onlyAmountGreaterThanZero(uint256 _amount) {\n        requireAmountGreaterThanZeroInternal(_amount);\n        _;\n    }\n\n    uint256 public constant UINT_MAX_VALUE = uint256(-1);\n\n    uint256 public constant LENDINGPOOL_REVISION = 0x2;\n\n    function getRevision() internal pure returns (uint256) {\n        return LENDINGPOOL_REVISION;\n    }\n\n    /**\n    * @dev this function is invoked by the proxy contract when the LendingPool contract is added to the\n    * AddressesProvider.\n    * @param _addressesProvider the address of the LendingPoolAddressesProvider registry\n    **/\n    function initialize(LendingPoolAddressesProvider _addressesProvider) public initializer {\n        addressesProvider = _addressesProvider;\n        core = LendingPoolCore(addressesProvider.getLendingPoolCore());\n        dataProvider = LendingPoolDataProvider(addressesProvider.getLendingPoolDataProvider());\n        parametersProvider = LendingPoolParametersProvider(\n            addressesProvider.getLendingPoolParametersProvider()\n        );\n        feeProvider = IFeeProvider(addressesProvider.getFeeProvider());\n    }\n\n    /**\n    * @dev deposits The underlying asset into the reserve. A corresponding amount of the overlying asset (aTokens)\n    * is minted.\n    * @param _reserve the address of the reserve\n    * @param _amount the amount to be deposited\n    * @param _referralCode integrators are assigned a referral code and can potentially receive rewards.\n    **/\n    function deposit(address _reserve, uint256 _amount, uint16 _referralCode)\n        external\n        payable\n        nonReentrant\n        onlyActiveReserve(_reserve)\n        onlyUnfreezedReserve(_reserve)\n        onlyAmountGreaterThanZero(_amount)\n    {\n        AToken aToken = AToken(core.getReserveATokenAddress(_reserve));\n\n        bool isFirstDeposit = aToken.balanceOf(msg.sender) == 0;\n\n        core.updateStateOnDeposit(_reserve, msg.sender, _amount, isFirstDeposit);\n\n        //minting AToken to user 1:1 with the specific exchange rate\n        aToken.mintOnDeposit(msg.sender, _amount);\n\n        //transfer to the core contract\n        core.transferToReserve.value(msg.value)(_reserve, msg.sender, _amount);\n\n        //solium-disable-next-line\n        emit Deposit(_reserve, msg.sender, _amount, _referralCode, block.timestamp);\n\n    }\n\n    /**\n    * @dev Redeems the underlying amount of assets requested by _user.\n    * This function is executed by the overlying aToken contract in response to a redeem action.\n    * @param _reserve the address of the reserve\n    * @param _user the address of the user performing the action\n    * @param _amount the underlying amount to be redeemed\n    **/\n    function redeemUnderlying(\n        address _reserve,\n        address payable _user,\n        uint256 _amount,\n        uint256 _aTokenBalanceAfterRedeem\n    )\n        external\n        nonReentrant\n        onlyOverlyingAToken(_reserve)\n        onlyActiveReserve(_reserve)\n        onlyAmountGreaterThanZero(_amount)\n    {\n        uint256 currentAvailableLiquidity = core.getReserveAvailableLiquidity(_reserve);\n        require(\n            currentAvailableLiquidity >= _amount,\n            \"There is not enough liquidity available to redeem\"\n        );\n\n        core.updateStateOnRedeem(_reserve, _user, _amount, _aTokenBalanceAfterRedeem == 0);\n\n        core.transferToUser(_reserve, _user, _amount);\n\n        //solium-disable-next-line\n        emit RedeemUnderlying(_reserve, _user, _amount, block.timestamp);\n\n    }\n\n    /**\n    * @dev data structures for local computations in the borrow() method.\n    */\n\n    struct BorrowLocalVars {\n        uint256 principalBorrowBalance;\n        uint256 currentLtv;\n        uint256 currentLiquidationThreshold;\n        uint256 borrowFee;\n        uint256 requestedBorrowAmountTRX;\n        uint256 amountOfCollateralNeededTRX;\n        uint256 userCollateralBalanceTRX;\n        uint256 userBorrowBalanceTRX;\n        uint256 userTotalFeesTRX;\n        uint256 borrowBalanceIncrease;\n        uint256 currentReserveStableRate;\n        uint256 availableLiquidity;\n        uint256 reserveDecimals;\n        uint256 finalUserBorrowRate;\n        CoreLibrary.InterestRateMode rateMode;\n        bool healthFactorBelowThreshold;\n    }\n\n    /**\n    * @dev Allows users to borrow a specific amount of the reserve currency, provided that the borrower\n    * already deposited enough collateral.\n    * @param _reserve the address of the reserve\n    * @param _amount the amount to be borrowed\n    * @param _interestRateMode the interest rate mode at which the user wants to borrow. Can be 0 (STABLE) or 1 (VARIABLE)\n    **/\n    function borrow(\n        address _reserve,\n        uint256 _amount,\n        uint256 _interestRateMode,\n        uint16 _referralCode\n    )\n        external\n        nonReentrant\n        onlyActiveReserve(_reserve)\n        onlyUnfreezedReserve(_reserve)\n        onlyAmountGreaterThanZero(_amount)\n    {\n        // Usage of a memory struct of vars to avoid \"Stack too deep\" errors due to local variables\n        BorrowLocalVars memory vars;\n\n        //check that the reserve is enabled for borrowing\n        require(core.isReserveBorrowingEnabled(_reserve), \"Reserve is not enabled for borrowing\");\n        //validate interest rate mode\n        require(\n            uint256(CoreLibrary.InterestRateMode.VARIABLE) == _interestRateMode ||\n                uint256(CoreLibrary.InterestRateMode.STABLE) == _interestRateMode,\n            \"Invalid interest rate mode selected\"\n        );\n\n        //cast the rateMode to coreLibrary.interestRateMode\n        vars.rateMode = CoreLibrary.InterestRateMode(_interestRateMode);\n\n        //check that the amount is available in the reserve\n        vars.availableLiquidity = core.getReserveAvailableLiquidity(_reserve);\n\n        require(\n            vars.availableLiquidity >= _amount,\n            \"There is not enough liquidity available in the reserve\"\n        );\n\n        (\n            ,\n            vars.userCollateralBalanceTRX,\n            vars.userBorrowBalanceTRX,\n            vars.userTotalFeesTRX,\n            vars.currentLtv,\n            vars.currentLiquidationThreshold,\n            ,\n            vars.healthFactorBelowThreshold\n        ) = dataProvider.calculateUserGlobalData(msg.sender);\n\n        require(vars.userCollateralBalanceTRX > 0, \"The collateral balance is 0\");\n\n        require(\n            !vars.healthFactorBelowThreshold,\n            \"The borrower can already be liquidated so he cannot borrow more\"\n        );\n\n        //calculating fees\n        vars.borrowFee = feeProvider.calculateLoanOriginationFee(msg.sender, _amount);\n\n        require(vars.borrowFee > 0, \"The amount to borrow is too small\");\n\n        vars.amountOfCollateralNeededTRX = dataProvider.calculateCollateralNeededInTRX(\n            _reserve,\n            _amount,\n            vars.borrowFee,\n            vars.userBorrowBalanceTRX,\n            vars.userTotalFeesTRX,\n            vars.currentLtv\n        );\n\n        require(\n            vars.amountOfCollateralNeededTRX <= vars.userCollateralBalanceTRX,\n            \"There is not enough collateral to cover a new borrow\"\n        );\n\n        /**\n        * Following conditions need to be met if the user is borrowing at a stable rate:\n        * 1. Reserve must be enabled for stable rate borrowing\n        * 2. Users cannot borrow from the reserve if their collateral is (mostly) the same currency\n        *    they are borrowing, to prevent abuses.\n        * 3. Users will be able to borrow only a relatively small, configurable amount of the total\n        *    liquidity\n        **/\n\n        if (vars.rateMode == CoreLibrary.InterestRateMode.STABLE) {\n            //check if the borrow mode is stable and if stable rate borrowing is enabled on this reserve\n            require(\n                core.isUserAllowedToBorrowAtStable(_reserve, msg.sender, _amount),\n                \"User cannot borrow the selected amount with a stable rate\"\n            );\n\n            //calculate the max available loan size in stable rate mode as a percentage of the\n            //available liquidity\n            uint256 maxLoanPercent = parametersProvider.getMaxStableRateBorrowSizePercent();\n            uint256 maxLoanSizeStable = vars.availableLiquidity.mul(maxLoanPercent).div(100);\n\n            require(\n                _amount <= maxLoanSizeStable,\n                \"User is trying to borrow too much liquidity at a stable rate\"\n            );\n        }\n\n        //all conditions passed - borrow is accepted\n        (vars.finalUserBorrowRate, vars.borrowBalanceIncrease) = core.updateStateOnBorrow(\n            _reserve,\n            msg.sender,\n            _amount,\n            vars.borrowFee,\n            vars.rateMode\n        );\n\n        //if we reached this point, we can transfer\n        core.transferToUser(_reserve, msg.sender, _amount);\n\n        emit Borrow(\n            _reserve,\n            msg.sender,\n            _amount,\n            _interestRateMode,\n            vars.finalUserBorrowRate,\n            vars.borrowFee,\n            vars.borrowBalanceIncrease,\n            _referralCode,\n            //solium-disable-next-line\n            block.timestamp\n        );\n    }\n\n    /**\n    * @notice repays a borrow on the specific reserve, for the specified amount (or for the whole amount, if uint256(-1) is specified).\n    * @dev the target user is defined by _onBehalfOf. If there is no repayment on behalf of another account,\n    * _onBehalfOf must be equal to msg.sender.\n    * @param _reserve the address of the reserve on which the user borrowed\n    * @param _amount the amount to repay, or uint256(-1) if the user wants to repay everything\n    * @param _onBehalfOf the address for which msg.sender is repaying.\n    **/\n\n    struct RepayLocalVars {\n        uint256 principalBorrowBalance;\n        uint256 compoundedBorrowBalance;\n        uint256 borrowBalanceIncrease;\n        bool isTRX;\n        uint256 paybackAmount;\n        uint256 paybackAmountMinusFees;\n        uint256 currentStableRate;\n        uint256 originationFee;\n    }\n\n    function repay(address _reserve, uint256 _amount, address payable _onBehalfOf)\n        external\n        payable\n        nonReentrant\n        onlyActiveReserve(_reserve)\n        onlyAmountGreaterThanZero(_amount)\n    {\n        // Usage of a memory struct of vars to avoid \"Stack too deep\" errors due to local variables\n        RepayLocalVars memory vars;\n\n        (\n            vars.principalBorrowBalance,\n            vars.compoundedBorrowBalance,\n            vars.borrowBalanceIncrease\n        ) = core.getUserBorrowBalances(_reserve, _onBehalfOf);\n\n        vars.originationFee = core.getUserOriginationFee(_reserve, _onBehalfOf);\n        vars.isTRX = TrxAddressLib.trxAddress() == _reserve;\n\n        require(vars.compoundedBorrowBalance > 0, \"The user does not have any borrow pending\");\n\n        require(\n            _amount != UINT_MAX_VALUE || msg.sender == _onBehalfOf,\n            \"To repay on behalf of an user an explicit amount to repay is needed.\"\n        );\n\n        //default to max amount\n        vars.paybackAmount = vars.compoundedBorrowBalance.add(vars.originationFee);\n\n        if (_amount != UINT_MAX_VALUE && _amount < vars.paybackAmount) {\n            vars.paybackAmount = _amount;\n        }\n\n        require(\n            !vars.isTRX || msg.value >= vars.paybackAmount,\n            \"Invalid msg.value sent for the repayment\"\n        );\n\n        //if the amount is smaller than the origination fee, just transfer the amount to the fee destination address\n        if (vars.paybackAmount <= vars.originationFee) {\n            core.updateStateOnRepay(\n                _reserve,\n                _onBehalfOf,\n                0,\n                vars.paybackAmount,\n                vars.borrowBalanceIncrease,\n                false\n            );\n\n            core.transferToFeeCollectionAddress.value(vars.isTRX ? vars.paybackAmount : 0)(\n                _reserve,\n                _onBehalfOf,\n                vars.paybackAmount,\n                addressesProvider.getTokenDistributor()\n            );\n\n            emit Repay(\n                _reserve,\n                _onBehalfOf,\n                msg.sender,\n                0,\n                vars.paybackAmount,\n                vars.borrowBalanceIncrease,\n                //solium-disable-next-line\n                block.timestamp\n            );\n            return;\n        }\n\n        vars.paybackAmountMinusFees = vars.paybackAmount.sub(vars.originationFee);\n\n        core.updateStateOnRepay(\n            _reserve,\n            _onBehalfOf,\n            vars.paybackAmountMinusFees,\n            vars.originationFee,\n            vars.borrowBalanceIncrease,\n            vars.compoundedBorrowBalance == vars.paybackAmountMinusFees\n        );\n\n        //if the user didn't repay the origination fee, transfer the fee to the fee collection address\n        if(vars.originationFee > 0) {\n            core.transferToFeeCollectionAddress.value(vars.isTRX ? vars.originationFee : 0)(\n                _reserve,\n                _onBehalfOf,\n                vars.originationFee,\n                addressesProvider.getTokenDistributor()\n            );\n        }\n\n        //sending the total msg.value if the transfer is TRX.\n        //the transferToReserve() function will take care of sending the\n        //excess TRX back to the caller\n        core.transferToReserve.value(vars.isTRX ? msg.value.sub(vars.originationFee) : 0)(\n            _reserve,\n            msg.sender,\n            vars.paybackAmountMinusFees\n        );\n\n        emit Repay(\n            _reserve,\n            _onBehalfOf,\n            msg.sender,\n            vars.paybackAmountMinusFees,\n            vars.originationFee,\n            vars.borrowBalanceIncrease,\n            //solium-disable-next-line\n            block.timestamp\n        );\n    }\n\n    /**\n    * @dev borrowers can user this function to swap between stable and variable borrow rate modes.\n    * @param _reserve the address of the reserve on which the user borrowed\n    **/\n    function swapBorrowRateMode(address _reserve)\n        external\n        nonReentrant\n        onlyActiveReserve(_reserve)\n        onlyUnfreezedReserve(_reserve)\n    {\n        (uint256 principalBorrowBalance, uint256 compoundedBorrowBalance, uint256 borrowBalanceIncrease) = core\n            .getUserBorrowBalances(_reserve, msg.sender);\n\n        require(\n            compoundedBorrowBalance > 0,\n            \"User does not have a borrow in progress on this reserve\"\n        );\n\n        CoreLibrary.InterestRateMode currentRateMode = core.getUserCurrentBorrowRateMode(\n            _reserve,\n            msg.sender\n        );\n\n        if (currentRateMode == CoreLibrary.InterestRateMode.VARIABLE) {\n            /**\n            * user wants to swap to stable, before swapping we need to ensure that\n            * 1. stable borrow rate is enabled on the reserve\n            * 2. user is not trying to abuse the reserve by depositing\n            * more collateral than he is borrowing, artificially lowering\n            * the interest rate, borrowing at variable, and switching to stable\n            **/\n            require(\n                core.isUserAllowedToBorrowAtStable(_reserve, msg.sender, compoundedBorrowBalance),\n                \"User cannot borrow the selected amount at stable\"\n            );\n        }\n\n        (CoreLibrary.InterestRateMode newRateMode, uint256 newBorrowRate) = core\n            .updateStateOnSwapRate(\n            _reserve,\n            msg.sender,\n            principalBorrowBalance,\n            compoundedBorrowBalance,\n            borrowBalanceIncrease,\n            currentRateMode\n        );\n\n        emit Swap(\n            _reserve,\n            msg.sender,\n            uint256(newRateMode),\n            newBorrowRate,\n            borrowBalanceIncrease,\n            //solium-disable-next-line\n            block.timestamp\n        );\n    }\n\n    /**\n    * @dev rebalances the stable interest rate of a user if current liquidity rate > user stable rate.\n    * this is regulated by Aave to ensure that the protocol is not abused, and the user is paying a fair\n    * rate. Anyone can call this function though.\n    * @param _reserve the address of the reserve\n    * @param _user the address of the user to be rebalanced\n    **/\n    function rebalanceStableBorrowRate(address _reserve, address _user)\n        external\n        nonReentrant\n        onlyActiveReserve(_reserve)\n    {\n        (, uint256 compoundedBalance, uint256 borrowBalanceIncrease) = core.getUserBorrowBalances(\n            _reserve,\n            _user\n        );\n\n        //step 1: user must be borrowing on _reserve at a stable rate\n        require(compoundedBalance > 0, \"User does not have any borrow for this reserve\");\n\n        require(\n            core.getUserCurrentBorrowRateMode(_reserve, _user) ==\n                CoreLibrary.InterestRateMode.STABLE,\n            \"The user borrow is variable and cannot be rebalanced\"\n        );\n\n        uint256 userCurrentStableRate = core.getUserCurrentStableBorrowRate(_reserve, _user);\n        uint256 liquidityRate = core.getReserveCurrentLiquidityRate(_reserve);\n        uint256 reserveCurrentStableRate = core.getReserveCurrentStableBorrowRate(_reserve);\n        uint256 rebalanceDownRateThreshold = reserveCurrentStableRate.rayMul(\n            WadRayMath.ray().add(parametersProvider.getRebalanceDownRateDelta())\n        );\n\n        //step 2: we have two possible situations to rebalance:\n\n        //1. user stable borrow rate is below the current liquidity rate. The loan needs to be rebalanced,\n        //as this situation can be abused (user putting back the borrowed liquidity in the same reserve to earn on it)\n        //2. user stable rate is above the market avg borrow rate of a certain delta, and utilization rate is low.\n        //In this case, the user is paying an interest that is too high, and needs to be rescaled down.\n        if (\n            userCurrentStableRate < liquidityRate ||\n            userCurrentStableRate > rebalanceDownRateThreshold\n        ) {\n            uint256 newStableRate = core.updateStateOnRebalance(\n                _reserve,\n                _user,\n                borrowBalanceIncrease\n            );\n\n            emit RebalanceStableBorrowRate(\n                _reserve,\n                _user,\n                newStableRate,\n                borrowBalanceIncrease,\n                //solium-disable-next-line\n                block.timestamp\n            );\n\n            return;\n\n        }\n\n        revert(\"Interest rate rebalance conditions were not met\");\n    }\n\n    /**\n    * @dev allows depositors to enable or disable a specific deposit as collateral.\n    * @param _reserve the address of the reserve\n    * @param _useAsCollateral true if the user wants to use the deposit as collateral, false otherwise.\n    **/\n    function setUserUseReserveAsCollateral(address _reserve, bool _useAsCollateral)\n        external\n        nonReentrant\n        onlyActiveReserve(_reserve)\n        onlyUnfreezedReserve(_reserve)\n    {\n        uint256 underlyingBalance = core.getUserUnderlyingAssetBalance(_reserve, msg.sender);\n\n        require(underlyingBalance > 0, \"User does not have any liquidity deposited\");\n\n        require(\n            dataProvider.balanceDecreaseAllowed(_reserve, msg.sender, underlyingBalance),\n            \"User deposit is already being used as collateral\"\n        );\n\n        core.setUserUseReserveAsCollateral(_reserve, msg.sender, _useAsCollateral);\n\n        if (_useAsCollateral) {\n            emit ReserveUsedAsCollateralEnabled(_reserve, msg.sender);\n        } else {\n            emit ReserveUsedAsCollateralDisabled(_reserve, msg.sender);\n        }\n    }\n\n    /**\n    * @dev users can invoke this function to liquidate an undercollateralized position.\n    * @param _collateral the address of the collateral to liquidated\n    * @param _reserve the address of the principal reserve\n    * @param _user the address of the borrower\n    * @param _purchaseAmount the amount of principal that the liquidator wants to repay\n    * @param _receiveAToken true if the liquidators wants to receive the aTokens, false if\n    * he wants to receive the underlying asset directly\n    **/\n    function liquidationCall(\n        address _collateral,\n        address _reserve,\n        address _user,\n        uint256 _purchaseAmount,\n        bool _receiveAToken\n    ) external payable nonReentrant onlyActiveReserve(_reserve) onlyActiveReserve(_collateral) {\n        address liquidationManager = addressesProvider.getLendingPoolLiquidationManager();\n\n        //solium-disable-next-line\n        (bool success, bytes memory result) = liquidationManager.delegatecall(\n            abi.encodeWithSignature(\n                \"liquidationCall(address,address,address,uint256,bool)\",\n                _collateral,\n                _reserve,\n                _user,\n                _purchaseAmount,\n                _receiveAToken\n            )\n        );\n        require(success, \"Liquidation call failed\");\n\n        (uint256 returnCode, string memory returnMessage) = abi.decode(result, (uint256, string));\n\n        if (returnCode != 0) {\n            //error found\n            revert(string(abi.encodePacked(\"Liquidation failed: \", returnMessage)));\n        }\n    }\n\n\n    /**\n    * @dev accessory functions to fetch data from the core contract\n    **/\n\n    function getReserveConfigurationData(address _reserve)\n        external\n        view\n        returns (\n            uint256 ltv,\n            uint256 liquidationThreshold,\n            uint256 liquidationBonus,\n            address interestRateStrategyAddress,\n            bool usageAsCollateralEnabled,\n            bool borrowingEnabled,\n            bool stableBorrowRateEnabled,\n            bool isActive\n        )\n    {\n        return dataProvider.getReserveConfigurationData(_reserve);\n    }\n\n    function getReserveData(address _reserve)\n        external\n        view\n        returns (\n            uint256 totalLiquidity,\n            uint256 availableLiquidity,\n            uint256 totalBorrowsStable,\n            uint256 totalBorrowsVariable,\n            uint256 liquidityRate,\n            uint256 variableBorrowRate,\n            uint256 stableBorrowRate,\n            uint256 averageStableBorrowRate,\n            uint256 utilizationRate,\n            uint256 liquidityIndex,\n            uint256 variableBorrowIndex,\n            address aTokenAddress,\n            uint40 lastUpdateTimestamp\n        )\n    {\n        return dataProvider.getReserveData(_reserve);\n    }\n\n    function getUserAccountData(address _user)\n        external\n        view\n        returns (\n            uint256 totalLiquidityTRX,\n            uint256 totalCollateralTRX,\n            uint256 totalBorrowsTRX,\n            uint256 totalFeesTRX,\n            uint256 availableBorrowsTRX,\n            uint256 currentLiquidationThreshold,\n            uint256 ltv,\n            uint256 healthFactor\n        )\n    {\n        return dataProvider.getUserAccountData(_user);\n    }\n\n    function getUserReserveData(address _reserve, address _user)\n        external\n        view\n        returns (\n            uint256 currentATokenBalance,\n            uint256 currentBorrowBalance,\n            uint256 principalBorrowBalance,\n            uint256 borrowRateMode,\n            uint256 borrowRate,\n            uint256 liquidityRate,\n            uint256 originationFee,\n            uint256 variableBorrowIndex,\n            uint256 lastUpdateTimestamp,\n            bool usageAsCollateralEnabled\n        )\n    {\n        return dataProvider.getUserReserveData(_reserve, _user);\n    }\n\n    function getReserves() external view returns (address[] memory) {\n        return core.getReserves();\n    }\n\n    /**\n    * @dev internal function to save on code size for the onlyActiveReserve modifier\n    **/\n    function requireReserveActiveInternal(address _reserve) internal view {\n        require(core.getReserveIsActive(_reserve), \"Action requires an active reserve\");\n    }\n\n    /**\n    * @notice internal function to save on code size for the onlyUnfreezedReserve modifier\n    **/\n    function requireReserveNotFreezedInternal(address _reserve) internal view {\n        require(!core.getReserveIsFreezed(_reserve), \"Action requires an unfreezed reserve\");\n    }\n\n    /**\n    * @notice internal function to save on code size for the onlyAmountGreaterThanZero modifier\n    **/\n    function requireAmountGreaterThanZeroInternal(uint256 _amount) internal pure {\n        require(_amount > 0, \"Amount must be greater than 0\");\n    }\n}\n",
  "sourcePath": "/Users/bibodeng/Programming/water_loan_core/contracts/lendingpool/LendingPool.sol",
  "compiler": {
    "name": "solc",
    "version": "0.5.4+commit.d15a3125.mod.Emscripten.clang"
  },
  "schemaVersion": "2.0.1",
  "updatedAt": "2020-12-06T14:57:27.705Z"
}