{
  "contractName": "LendingPoolConfigurator",
  "abi": [
    {
      "constant": true,
      "inputs": [],
      "name": "CONFIGURATOR_REVISION",
      "outputs": [
        {
          "name": "",
          "type": "uint256"
        }
      ],
      "payable": false,
      "stateMutability": "view",
      "type": "function"
    },
    {
      "constant": true,
      "inputs": [],
      "name": "poolAddressesProvider",
      "outputs": [
        {
          "name": "",
          "type": "address"
        }
      ],
      "payable": false,
      "stateMutability": "view",
      "type": "function"
    },
    {
      "anonymous": false,
      "inputs": [
        {
          "indexed": true,
          "name": "_reserve",
          "type": "address"
        },
        {
          "indexed": true,
          "name": "_aToken",
          "type": "address"
        },
        {
          "indexed": false,
          "name": "_interestRateStrategyAddress",
          "type": "address"
        }
      ],
      "name": "ReserveInitialized",
      "type": "event"
    },
    {
      "anonymous": false,
      "inputs": [
        {
          "indexed": true,
          "name": "_reserve",
          "type": "address"
        }
      ],
      "name": "ReserveRemoved",
      "type": "event"
    },
    {
      "anonymous": false,
      "inputs": [
        {
          "indexed": false,
          "name": "_reserve",
          "type": "address"
        },
        {
          "indexed": false,
          "name": "_stableRateEnabled",
          "type": "bool"
        }
      ],
      "name": "BorrowingEnabledOnReserve",
      "type": "event"
    },
    {
      "anonymous": false,
      "inputs": [
        {
          "indexed": true,
          "name": "_reserve",
          "type": "address"
        }
      ],
      "name": "BorrowingDisabledOnReserve",
      "type": "event"
    },
    {
      "anonymous": false,
      "inputs": [
        {
          "indexed": true,
          "name": "_reserve",
          "type": "address"
        },
        {
          "indexed": false,
          "name": "_ltv",
          "type": "uint256"
        },
        {
          "indexed": false,
          "name": "_liquidationThreshold",
          "type": "uint256"
        },
        {
          "indexed": false,
          "name": "_liquidationBonus",
          "type": "uint256"
        }
      ],
      "name": "ReserveEnabledAsCollateral",
      "type": "event"
    },
    {
      "anonymous": false,
      "inputs": [
        {
          "indexed": true,
          "name": "_reserve",
          "type": "address"
        }
      ],
      "name": "ReserveDisabledAsCollateral",
      "type": "event"
    },
    {
      "anonymous": false,
      "inputs": [
        {
          "indexed": true,
          "name": "_reserve",
          "type": "address"
        }
      ],
      "name": "StableRateEnabledOnReserve",
      "type": "event"
    },
    {
      "anonymous": false,
      "inputs": [
        {
          "indexed": true,
          "name": "_reserve",
          "type": "address"
        }
      ],
      "name": "StableRateDisabledOnReserve",
      "type": "event"
    },
    {
      "anonymous": false,
      "inputs": [
        {
          "indexed": true,
          "name": "_reserve",
          "type": "address"
        }
      ],
      "name": "ReserveActivated",
      "type": "event"
    },
    {
      "anonymous": false,
      "inputs": [
        {
          "indexed": true,
          "name": "_reserve",
          "type": "address"
        }
      ],
      "name": "ReserveDeactivated",
      "type": "event"
    },
    {
      "anonymous": false,
      "inputs": [
        {
          "indexed": true,
          "name": "_reserve",
          "type": "address"
        }
      ],
      "name": "ReserveFreezed",
      "type": "event"
    },
    {
      "anonymous": false,
      "inputs": [
        {
          "indexed": true,
          "name": "_reserve",
          "type": "address"
        }
      ],
      "name": "ReserveUnfreezed",
      "type": "event"
    },
    {
      "anonymous": false,
      "inputs": [
        {
          "indexed": false,
          "name": "_reserve",
          "type": "address"
        },
        {
          "indexed": false,
          "name": "_ltv",
          "type": "uint256"
        }
      ],
      "name": "ReserveBaseLtvChanged",
      "type": "event"
    },
    {
      "anonymous": false,
      "inputs": [
        {
          "indexed": false,
          "name": "_reserve",
          "type": "address"
        },
        {
          "indexed": false,
          "name": "_threshold",
          "type": "uint256"
        }
      ],
      "name": "ReserveLiquidationThresholdChanged",
      "type": "event"
    },
    {
      "anonymous": false,
      "inputs": [
        {
          "indexed": false,
          "name": "_reserve",
          "type": "address"
        },
        {
          "indexed": false,
          "name": "_bonus",
          "type": "uint256"
        }
      ],
      "name": "ReserveLiquidationBonusChanged",
      "type": "event"
    },
    {
      "anonymous": false,
      "inputs": [
        {
          "indexed": false,
          "name": "_reserve",
          "type": "address"
        },
        {
          "indexed": false,
          "name": "_decimals",
          "type": "uint256"
        }
      ],
      "name": "ReserveDecimalsChanged",
      "type": "event"
    },
    {
      "anonymous": false,
      "inputs": [
        {
          "indexed": false,
          "name": "_reserve",
          "type": "address"
        },
        {
          "indexed": false,
          "name": "_strategy",
          "type": "address"
        }
      ],
      "name": "ReserveInterestRateStrategyChanged",
      "type": "event"
    },
    {
      "constant": false,
      "inputs": [
        {
          "name": "_poolAddressesProvider",
          "type": "address"
        }
      ],
      "name": "initialize",
      "outputs": [],
      "payable": false,
      "stateMutability": "nonpayable",
      "type": "function"
    },
    {
      "constant": false,
      "inputs": [
        {
          "name": "_reserve",
          "type": "address"
        },
        {
          "name": "_underlyingAssetDecimals",
          "type": "uint8"
        },
        {
          "name": "_interestRateStrategyAddress",
          "type": "address"
        }
      ],
      "name": "initReserve",
      "outputs": [],
      "payable": false,
      "stateMutability": "nonpayable",
      "type": "function"
    },
    {
      "constant": false,
      "inputs": [
        {
          "name": "_reserve",
          "type": "address"
        },
        {
          "name": "_aTokenName",
          "type": "string"
        },
        {
          "name": "_aTokenSymbol",
          "type": "string"
        },
        {
          "name": "_underlyingAssetDecimals",
          "type": "uint8"
        },
        {
          "name": "_interestRateStrategyAddress",
          "type": "address"
        }
      ],
      "name": "initReserveWithData",
      "outputs": [],
      "payable": false,
      "stateMutability": "nonpayable",
      "type": "function"
    },
    {
      "constant": false,
      "inputs": [
        {
          "name": "_reserveToRemove",
          "type": "address"
        }
      ],
      "name": "removeLastAddedReserve",
      "outputs": [],
      "payable": false,
      "stateMutability": "nonpayable",
      "type": "function"
    },
    {
      "constant": false,
      "inputs": [
        {
          "name": "_reserve",
          "type": "address"
        },
        {
          "name": "_stableBorrowRateEnabled",
          "type": "bool"
        }
      ],
      "name": "enableBorrowingOnReserve",
      "outputs": [],
      "payable": false,
      "stateMutability": "nonpayable",
      "type": "function"
    },
    {
      "constant": false,
      "inputs": [
        {
          "name": "_reserve",
          "type": "address"
        }
      ],
      "name": "disableBorrowingOnReserve",
      "outputs": [],
      "payable": false,
      "stateMutability": "nonpayable",
      "type": "function"
    },
    {
      "constant": false,
      "inputs": [
        {
          "name": "_reserve",
          "type": "address"
        },
        {
          "name": "_baseLTVasCollateral",
          "type": "uint256"
        },
        {
          "name": "_liquidationThreshold",
          "type": "uint256"
        },
        {
          "name": "_liquidationBonus",
          "type": "uint256"
        }
      ],
      "name": "enableReserveAsCollateral",
      "outputs": [],
      "payable": false,
      "stateMutability": "nonpayable",
      "type": "function"
    },
    {
      "constant": false,
      "inputs": [
        {
          "name": "_reserve",
          "type": "address"
        }
      ],
      "name": "disableReserveAsCollateral",
      "outputs": [],
      "payable": false,
      "stateMutability": "nonpayable",
      "type": "function"
    },
    {
      "constant": false,
      "inputs": [
        {
          "name": "_reserve",
          "type": "address"
        }
      ],
      "name": "enableReserveStableBorrowRate",
      "outputs": [],
      "payable": false,
      "stateMutability": "nonpayable",
      "type": "function"
    },
    {
      "constant": false,
      "inputs": [
        {
          "name": "_reserve",
          "type": "address"
        }
      ],
      "name": "disableReserveStableBorrowRate",
      "outputs": [],
      "payable": false,
      "stateMutability": "nonpayable",
      "type": "function"
    },
    {
      "constant": false,
      "inputs": [
        {
          "name": "_reserve",
          "type": "address"
        }
      ],
      "name": "activateReserve",
      "outputs": [],
      "payable": false,
      "stateMutability": "nonpayable",
      "type": "function"
    },
    {
      "constant": false,
      "inputs": [
        {
          "name": "_reserve",
          "type": "address"
        }
      ],
      "name": "deactivateReserve",
      "outputs": [],
      "payable": false,
      "stateMutability": "nonpayable",
      "type": "function"
    },
    {
      "constant": false,
      "inputs": [
        {
          "name": "_reserve",
          "type": "address"
        }
      ],
      "name": "freezeReserve",
      "outputs": [],
      "payable": false,
      "stateMutability": "nonpayable",
      "type": "function"
    },
    {
      "constant": false,
      "inputs": [
        {
          "name": "_reserve",
          "type": "address"
        }
      ],
      "name": "unfreezeReserve",
      "outputs": [],
      "payable": false,
      "stateMutability": "nonpayable",
      "type": "function"
    },
    {
      "constant": false,
      "inputs": [
        {
          "name": "_reserve",
          "type": "address"
        },
        {
          "name": "_ltv",
          "type": "uint256"
        }
      ],
      "name": "setReserveBaseLTVasCollateral",
      "outputs": [],
      "payable": false,
      "stateMutability": "nonpayable",
      "type": "function"
    },
    {
      "constant": false,
      "inputs": [
        {
          "name": "_reserve",
          "type": "address"
        },
        {
          "name": "_threshold",
          "type": "uint256"
        }
      ],
      "name": "setReserveLiquidationThreshold",
      "outputs": [],
      "payable": false,
      "stateMutability": "nonpayable",
      "type": "function"
    },
    {
      "constant": false,
      "inputs": [
        {
          "name": "_reserve",
          "type": "address"
        },
        {
          "name": "_bonus",
          "type": "uint256"
        }
      ],
      "name": "setReserveLiquidationBonus",
      "outputs": [],
      "payable": false,
      "stateMutability": "nonpayable",
      "type": "function"
    },
    {
      "constant": false,
      "inputs": [
        {
          "name": "_reserve",
          "type": "address"
        },
        {
          "name": "_decimals",
          "type": "uint256"
        }
      ],
      "name": "setReserveDecimals",
      "outputs": [],
      "payable": false,
      "stateMutability": "nonpayable",
      "type": "function"
    },
    {
      "constant": false,
      "inputs": [
        {
          "name": "_reserve",
          "type": "address"
        },
        {
          "name": "_rateStrategyAddress",
          "type": "address"
        }
      ],
      "name": "setReserveInterestRateStrategyAddress",
      "outputs": [],
      "payable": false,
      "stateMutability": "nonpayable",
      "type": "function"
    },
    {
      "constant": false,
      "inputs": [],
      "name": "refreshLendingPoolCoreConfiguration",
      "outputs": [],
      "payable": false,
      "stateMutability": "nonpayable",
      "type": "function"
    }
  ],
  "bytecode": "0x60806040526000805534801561001457600080fd5b50d3801561002157600080fd5b50d2801561002e57600080fd5b5061585f806200003f6000396000f3fe60806040523480156200001157600080fd5b50d380156200001f57600080fd5b50d280156200002d57600080fd5b5060043610620001805760003560e060020a90048063a8dc0f4511620000e9578063d466016f11620000a7578063d466016f1462000574578063dae4c4e714620005a3578063e12dcc6c14620005cc578063e8ae2f5b14620005d6578063eede87c114620005ff578063ef1f937314620006305762000180565b8063a8dc0f4514620004a7578063b75d6f3414620004d0578063b8c0f74514620004f9578063c4d66de81462000522578063d06e2ec1146200054b5762000180565b806366bbd928116200014357806366bbd92814620003a357806370fb84f414620003d25780637aca76eb14620004015780637af635a6146200042a57806380e17d871462000446578063a5bc826c146200046c5762000180565b8063071033e414620001855780631d2118f914620001c35780633443a14b14620001f457806336805a6214620002235780633e72a454146200037a575b600080fd5b620001c1600480360360608110156200019d57600080fd5b50600160a060020a03813581169160ff602082013516916040909101351662000659565b005b620001c160048036036040811015620001db57600080fd5b50600160a060020a0381358116916020013516620009f5565b620001c1600480360360408110156200020c57600080fd5b50600160a060020a03813516906020013562000bff565b620001c1600480360360a08110156200023b57600080fd5b600160a060020a0382351691908101906040810160208201356401000000008111156200026757600080fd5b8201836020820111156200027a57600080fd5b803590602001918460018302840111640100000000831117156200029d57600080fd5b91908080601f0160208091040260200160405190810160405280939291908181526020018383808284376000920191909152509295949360208101935035915050640100000000811115620002f157600080fd5b8201836020820111156200030457600080fd5b803590602001918460018302840111640100000000831117156200032757600080fd5b91908080601f0160208091040260200160405190810160405280939291908181526020018383808284376000920191909152509295505050813560ff1692505060200135600160a060020a031662000e07565b620001c1600480360360208110156200039257600080fd5b5035600160a060020a03166200116f565b620001c160048036036040811015620003bb57600080fd5b50600160a060020a03813516906020013562001429565b620001c160048036036040811015620003ea57600080fd5b50600160a060020a03813516906020013562001631565b620001c1600480360360208110156200041957600080fd5b5035600160a060020a031662001839565b6200043462001a29565b60408051918252519081900360200190f35b6200045062001a2e565b60408051600160a060020a039092168252519081900360200190f35b620001c1600480360360808110156200048457600080fd5b50600160a060020a03813516906020810135906040810135906060013562001a3d565b620001c160048036036020811015620004bf57600080fd5b5035600160a060020a031662001c5d565b620001c160048036036020811015620004e857600080fd5b5035600160a060020a031662001e4d565b620001c1600480360360208110156200051157600080fd5b5035600160a060020a03166200203d565b620001c1600480360360208110156200053a57600080fd5b5035600160a060020a03166200222d565b620001c1600480360360208110156200056357600080fd5b5035600160a060020a031662002301565b620001c1600480360360408110156200058c57600080fd5b50600160a060020a038135169060200135620024f1565b620001c160048036036020811015620005bb57600080fd5b5035600160a060020a0316620026f9565b620001c1620028e9565b620001c160048036036020811015620005ee57600080fd5b5035600160a060020a031662002a9b565b620001c1600480360360408110156200061757600080fd5b50600160a060020a038135169060200135151562002c8b565b620001c1600480360360208110156200064857600080fd5b5035600160a060020a031662002e95565b6034546040805160e060020a6333128d5902815290513392600160a060020a0316916333128d59916004808301926020929190829003018186803b158015620006a157600080fd5b505afa158015620006b6573d6000803e3d6000fd5b505050506040513d6020811015620006cd57600080fd5b5051600160a060020a031614620007195760405160e560020a62461bcd028152600401808060200182810382526029815260200180620057b36029913960400191505060405180910390fd5b6000839050606081600160a060020a03166306fdde036040518163ffffffff1660e060020a02815260040160006040518083038186803b1580156200075d57600080fd5b505afa15801562000772573d6000803e3d6000fd5b505050506040513d6000823e601f3d908101601f1916820160405260208110156200079c57600080fd5b810190808051640100000000811115620007b557600080fd5b82016020810184811115620007c957600080fd5b8151640100000000811182820187101715620007e457600080fd5b505092919050505060405160200180807f576174657220496e7465726573742062656172696e672000000000000000000081525060170182805190602001908083835b60208310620008485780518252601f19909201916020918201910162000827565b6001836020036101000a0380198251168184511680821785525050505050509050019150506040516020818303038152906040529050606082600160a060020a03166395d89b416040518163ffffffff1660e060020a02815260040160006040518083038186803b158015620008bd57600080fd5b505afa158015620008d2573d6000803e3d6000fd5b505050506040513d6000823e601f3d908101601f191682016040526020811015620008fc57600080fd5b8101908080516401000000008111156200091557600080fd5b820160208101848111156200092957600080fd5b81516401000000008111828201871017156200094457600080fd5b505092919050505060405160200180807f770000000000000000000000000000000000000000000000000000000000000081525060010182805190602001908083835b60208310620009a85780518252601f19909201916020918201910162000987565b6001836020036101000a0380198251168184511680821785525050505050509050019150506040516020818303038152906040529050620009ed868383888862000e07565b505050505050565b6034546040805160e060020a6333128d5902815290513392600160a060020a0316916333128d59916004808301926020929190829003018186803b15801562000a3d57600080fd5b505afa15801562000a52573d6000803e3d6000fd5b505050506040513d602081101562000a6957600080fd5b5051600160a060020a03161462000ab55760405160e560020a62461bcd028152600401808060200182810382526029815260200180620057b36029913960400191505060405180910390fd5b6034546040805160e560020a63076b7fbb0281529051600092600160a060020a03169163ed6ff760916004808301926020929190829003018186803b15801562000afe57600080fd5b505afa15801562000b13573d6000803e3d6000fd5b505050506040513d602081101562000b2a57600080fd5b5051604080517f1d2118f9000000000000000000000000000000000000000000000000000000008152600160a060020a0386811660048301528581166024830152915192935090831691631d2118f99160448082019260009290919082900301818387803b15801562000b9c57600080fd5b505af115801562000bb1573d6000803e3d6000fd5b505060408051600160a060020a0380881682528616602082015281517f5644b64ebb0ce18c4032248ca52f58355469092ff072866c3dcd8640e817d6a59450908190039091019150a1505050565b6034546040805160e060020a6333128d5902815290513392600160a060020a0316916333128d59916004808301926020929190829003018186803b15801562000c4757600080fd5b505afa15801562000c5c573d6000803e3d6000fd5b505050506040513d602081101562000c7357600080fd5b5051600160a060020a03161462000cbf5760405160e560020a62461bcd028152600401808060200182810382526029815260200180620057b36029913960400191505060405180910390fd5b6034546040805160e560020a63076b7fbb0281529051600092600160a060020a03169163ed6ff760916004808301926020929190829003018186803b15801562000d0857600080fd5b505afa15801562000d1d573d6000803e3d6000fd5b505050506040513d602081101562000d3457600080fd5b5051604080517f3443a14b000000000000000000000000000000000000000000000000000000008152600160a060020a03868116600483015260248201869052915192935090831691633443a14b9160448082019260009290919082900301818387803b15801562000da557600080fd5b505af115801562000dba573d6000803e3d6000fd5b505060408051600160a060020a03871681526020810186905281517f437dd3b61b7c7eee7fc70515c8846482dfca92e2e1e02af5d638c5d4878d67149450908190039091019150a1505050565b6034546040805160e060020a6333128d5902815290513392600160a060020a0316916333128d59916004808301926020929190829003018186803b15801562000e4f57600080fd5b505afa15801562000e64573d6000803e3d6000fd5b505050506040513d602081101562000e7b57600080fd5b5051600160a060020a03161462000ec75760405160e560020a62461bcd028152600401808060200182810382526029815260200180620057b36029913960400191505060405180910390fd5b6034546040805160e560020a63076b7fbb0281529051600092600160a060020a03169163ed6ff760916004808301926020929190829003018186803b15801562000f1057600080fd5b505afa15801562000f25573d6000803e3d6000fd5b505050506040513d602081101562000f3c57600080fd5b5051603454604051919250600091600160a060020a0390911690889086908990899062000f699062003090565b600160a060020a038087168252851660208083019190915260ff8516604083015260a06060830181815285519184019190915284519091608084019160c085019187019080838360005b8381101562000fcd57818101518382015260200162000fb3565b50505050905090810190601f16801562000ffb5780820380516001836020036101000a031916815260200191505b50838103825284518152845160209182019186019080838360005b838110156200103057818101518382015260200162001016565b50505050905090810190601f1680156200105e5780820380516001836020036101000a031916815260200191505b50975050505050505050604051809103906000f08015801562001085573d6000803e3d6000fd5b50604080517f45330a40000000000000000000000000000000000000000000000000000000008152600160a060020a038a81166004830152808416602483015260ff8816604483015286811660648301529151929350908416916345330a409160848082019260009290919082900301818387803b1580156200110757600080fd5b505af11580156200111c573d6000803e3d6000fd5b505060408051600160a060020a03878116825291518286169450918b1692507f1d9fcd0dc935b4778d5af97f55c4d7b2553257382f1ef25c412114c8eeebd88e919081900360200190a350505050505050565b6034546040805160e060020a6333128d5902815290513392600160a060020a0316916333128d59916004808301926020929190829003018186803b158015620011b757600080fd5b505afa158015620011cc573d6000803e3d6000fd5b505050506040513d6020811015620011e357600080fd5b5051600160a060020a0316146200122f5760405160e560020a62461bcd028152600401808060200182810382526029815260200180620057b36029913960400191505060405180910390fd5b6034546040805160e560020a63076b7fbb0281529051600092600160a060020a03169163ed6ff760916004808301926020929190829003018186803b1580156200127857600080fd5b505afa1580156200128d573d6000803e3d6000fd5b505050506040513d6020811015620012a457600080fd5b5051604080517fc33cfd90000000000000000000000000000000000000000000000000000000008152600160a060020a03858116600483015291519293509083169163c33cfd9091602480820192602092909190829003018186803b1580156200130d57600080fd5b505afa15801562001322573d6000803e3d6000fd5b505050506040513d60208110156200133957600080fd5b5051156200137c5760405160e560020a62461bcd02815260040180806020018281038252602a8152602001806200580a602a913960400191505060405180910390fd5b80600160a060020a0316633e72a454836040518263ffffffff1660e060020a0281526004018082600160a060020a0316600160a060020a03168152602001915050600060405180830381600087803b158015620013d857600080fd5b505af1158015620013ed573d6000803e3d6000fd5b5050604051600160a060020a03851692507f6f60cf8bd0f218cabe1ea3150bd07b0b758c35c4cfdf7138017a283e65564d5e9150600090a25050565b6034546040805160e060020a6333128d5902815290513392600160a060020a0316916333128d59916004808301926020929190829003018186803b1580156200147157600080fd5b505afa15801562001486573d6000803e3d6000fd5b505050506040513d60208110156200149d57600080fd5b5051600160a060020a031614620014e95760405160e560020a62461bcd028152600401808060200182810382526029815260200180620057b36029913960400191505060405180910390fd5b6034546040805160e560020a63076b7fbb0281529051600092600160a060020a03169163ed6ff760916004808301926020929190829003018186803b1580156200153257600080fd5b505afa15801562001547573d6000803e3d6000fd5b505050506040513d60208110156200155e57600080fd5b5051604080517f66bbd928000000000000000000000000000000000000000000000000000000008152600160a060020a038681166004830152602482018690529151929350908316916366bbd9289160448082019260009290919082900301818387803b158015620015cf57600080fd5b505af1158015620015e4573d6000803e3d6000fd5b505060408051600160a060020a03871681526020810186905281517f2e73b7f1df792712003e6859f940c1e8711c3f1329474771fee71d2ec11631299450908190039091019150a1505050565b6034546040805160e060020a6333128d5902815290513392600160a060020a0316916333128d59916004808301926020929190829003018186803b1580156200167957600080fd5b505afa1580156200168e573d6000803e3d6000fd5b505050506040513d6020811015620016a557600080fd5b5051600160a060020a031614620016f15760405160e560020a62461bcd028152600401808060200182810382526029815260200180620057b36029913960400191505060405180910390fd5b6034546040805160e560020a63076b7fbb0281529051600092600160a060020a03169163ed6ff760916004808301926020929190829003018186803b1580156200173a57600080fd5b505afa1580156200174f573d6000803e3d6000fd5b505050506040513d60208110156200176657600080fd5b5051604080517f70fb84f4000000000000000000000000000000000000000000000000000000008152600160a060020a038681166004830152602482018690529151929350908316916370fb84f49160448082019260009290919082900301818387803b158015620017d757600080fd5b505af1158015620017ec573d6000803e3d6000fd5b505060408051600160a060020a03871681526020810186905281517fe3ba662f7011e701056a43e8cf832242322eeff01453e7a72d01ec2af36d9aec9450908190039091019150a1505050565b6034546040805160e060020a6333128d5902815290513392600160a060020a0316916333128d59916004808301926020929190829003018186803b1580156200188157600080fd5b505afa15801562001896573d6000803e3d6000fd5b505050506040513d6020811015620018ad57600080fd5b5051600160a060020a031614620018f95760405160e560020a62461bcd028152600401808060200182810382526029815260200180620057b36029913960400191505060405180910390fd5b6034546040805160e560020a63076b7fbb0281529051600092600160a060020a03169163ed6ff760916004808301926020929190829003018186803b1580156200194257600080fd5b505afa15801562001957573d6000803e3d6000fd5b505050506040513d60208110156200196e57600080fd5b5051604080517f7aca76eb000000000000000000000000000000000000000000000000000000008152600160a060020a038581166004830152915192935090831691637aca76eb9160248082019260009290919082900301818387803b158015620019d857600080fd5b505af1158015620019ed573d6000803e3d6000fd5b5050604051600160a060020a03851692507fda5cdb66c77023db6abe5226a4d4a40c3b8e768012f4ff4e446f62f60127fc569150600090a25050565b600381565b603454600160a060020a031681565b6034546040805160e060020a6333128d5902815290513392600160a060020a0316916333128d59916004808301926020929190829003018186803b15801562001a8557600080fd5b505afa15801562001a9a573d6000803e3d6000fd5b505050506040513d602081101562001ab157600080fd5b5051600160a060020a03161462001afd5760405160e560020a62461bcd028152600401808060200182810382526029815260200180620057b36029913960400191505060405180910390fd5b6034546040805160e560020a63076b7fbb0281529051600092600160a060020a03169163ed6ff760916004808301926020929190829003018186803b15801562001b4657600080fd5b505afa15801562001b5b573d6000803e3d6000fd5b505050506040513d602081101562001b7257600080fd5b5051604080517fa5bc826c000000000000000000000000000000000000000000000000000000008152600160a060020a03888116600483015260248201889052604482018790526064820186905291519293509083169163a5bc826c9160848082019260009290919082900301818387803b15801562001bf157600080fd5b505af115801562001c06573d6000803e3d6000fd5b505060408051878152602081018790528082018690529051600160a060020a03891693507fdfe62f53e7707d64f99bca15d2bdf3facc4074bc047e7dec2ea130300e99274492509081900360600190a25050505050565b6034546040805160e060020a6333128d5902815290513392600160a060020a0316916333128d59916004808301926020929190829003018186803b15801562001ca557600080fd5b505afa15801562001cba573d6000803e3d6000fd5b505050506040513d602081101562001cd157600080fd5b5051600160a060020a03161462001d1d5760405160e560020a62461bcd028152600401808060200182810382526029815260200180620057b36029913960400191505060405180910390fd5b6034546040805160e560020a63076b7fbb0281529051600092600160a060020a03169163ed6ff760916004808301926020929190829003018186803b15801562001d6657600080fd5b505afa15801562001d7b573d6000803e3d6000fd5b505050506040513d602081101562001d9257600080fd5b5051604080517fa8dc0f45000000000000000000000000000000000000000000000000000000008152600160a060020a03858116600483015291519293509083169163a8dc0f459160248082019260009290919082900301818387803b15801562001dfc57600080fd5b505af115801562001e11573d6000803e3d6000fd5b5050604051600160a060020a03851692507fe9a7e5fd4fc8ea18e602350324bf48e8f05d12434af0ce0be05743e6a5fdcb9e9150600090a25050565b6034546040805160e060020a6333128d5902815290513392600160a060020a0316916333128d59916004808301926020929190829003018186803b15801562001e9557600080fd5b505afa15801562001eaa573d6000803e3d6000fd5b505050506040513d602081101562001ec157600080fd5b5051600160a060020a03161462001f0d5760405160e560020a62461bcd028152600401808060200182810382526029815260200180620057b36029913960400191505060405180910390fd5b6034546040805160e560020a63076b7fbb0281529051600092600160a060020a03169163ed6ff760916004808301926020929190829003018186803b15801562001f5657600080fd5b505afa15801562001f6b573d6000803e3d6000fd5b505050506040513d602081101562001f8257600080fd5b5051604080517fb75d6f34000000000000000000000000000000000000000000000000000000008152600160a060020a03858116600483015291519293509083169163b75d6f349160248082019260009290919082900301818387803b15801562001fec57600080fd5b505af115801562002001573d6000803e3d6000fd5b5050604051600160a060020a03851692507f35b80cd8ea3440e9a8454f116fa658b858da1b64c86c48451f4559cefcdfb56c9150600090a25050565b6034546040805160e060020a6333128d5902815290513392600160a060020a0316916333128d59916004808301926020929190829003018186803b1580156200208557600080fd5b505afa1580156200209a573d6000803e3d6000fd5b505050506040513d6020811015620020b157600080fd5b5051600160a060020a031614620020fd5760405160e560020a62461bcd028152600401808060200182810382526029815260200180620057b36029913960400191505060405180910390fd5b6034546040805160e560020a63076b7fbb0281529051600092600160a060020a03169163ed6ff760916004808301926020929190829003018186803b1580156200214657600080fd5b505afa1580156200215b573d6000803e3d6000fd5b505050506040513d60208110156200217257600080fd5b5051604080517fb8c0f745000000000000000000000000000000000000000000000000000000008152600160a060020a03858116600483015291519293509083169163b8c0f7459160248082019260009290919082900301818387803b158015620021dc57600080fd5b505af1158015620021f1573d6000803e3d6000fd5b5050604051600160a060020a03851692507f8bbf35441ac2c607ddecadd3d8ee58636d32f217fad201fb2655581502dd84e39150600090a25050565b60006200223962003085565b60015490915060ff1680620022535750620022536200308a565b8062002260575060005481115b1515620022a25760405160e560020a62461bcd02815260040180806020018281038252602e815260200180620057dc602e913960400191505060405180910390fd5b60015460ff16158015620022c2576001805460ff19168117905560008290555b6034805473ffffffffffffffffffffffffffffffffffffffff1916600160a060020a0385161790558015620022fc576001805460ff191690555b505050565b6034546040805160e060020a6333128d5902815290513392600160a060020a0316916333128d59916004808301926020929190829003018186803b1580156200234957600080fd5b505afa1580156200235e573d6000803e3d6000fd5b505050506040513d60208110156200237557600080fd5b5051600160a060020a031614620023c15760405160e560020a62461bcd028152600401808060200182810382526029815260200180620057b36029913960400191505060405180910390fd5b6034546040805160e560020a63076b7fbb0281529051600092600160a060020a03169163ed6ff760916004808301926020929190829003018186803b1580156200240a57600080fd5b505afa1580156200241f573d6000803e3d6000fd5b505050506040513d60208110156200243657600080fd5b5051604080517fd06e2ec1000000000000000000000000000000000000000000000000000000008152600160a060020a03858116600483015291519293509083169163d06e2ec19160248082019260009290919082900301818387803b158015620024a057600080fd5b505af1158015620024b5573d6000803e3d6000fd5b5050604051600160a060020a03851692507f19dbf059e4d3a0cb998d4328b7b991bbe312827eeb053d8ff63edf33158e01db9150600090a25050565b6034546040805160e060020a6333128d5902815290513392600160a060020a0316916333128d59916004808301926020929190829003018186803b1580156200253957600080fd5b505afa1580156200254e573d6000803e3d6000fd5b505050506040513d60208110156200256557600080fd5b5051600160a060020a031614620025b15760405160e560020a62461bcd028152600401808060200182810382526029815260200180620057b36029913960400191505060405180910390fd5b6034546040805160e560020a63076b7fbb0281529051600092600160a060020a03169163ed6ff760916004808301926020929190829003018186803b158015620025fa57600080fd5b505afa1580156200260f573d6000803e3d6000fd5b505050506040513d60208110156200262657600080fd5b5051604080517fd466016f000000000000000000000000000000000000000000000000000000008152600160a060020a0386811660048301526024820186905291519293509083169163d466016f9160448082019260009290919082900301818387803b1580156200269757600080fd5b505af1158015620026ac573d6000803e3d6000fd5b505060408051600160a060020a03871681526020810186905281517fda47540c7f7fd5a68c3285f3bb708f322424f948f41df6f51622fa24b39686649450908190039091019150a1505050565b6034546040805160e060020a6333128d5902815290513392600160a060020a0316916333128d59916004808301926020929190829003018186803b1580156200274157600080fd5b505afa15801562002756573d6000803e3d6000fd5b505050506040513d60208110156200276d57600080fd5b5051600160a060020a031614620027b95760405160e560020a62461bcd028152600401808060200182810382526029815260200180620057b36029913960400191505060405180910390fd5b6034546040805160e560020a63076b7fbb0281529051600092600160a060020a03169163ed6ff760916004808301926020929190829003018186803b1580156200280257600080fd5b505afa15801562002817573d6000803e3d6000fd5b505050506040513d60208110156200282e57600080fd5b5051604080517fdae4c4e7000000000000000000000000000000000000000000000000000000008152600160a060020a03858116600483015291519293509083169163dae4c4e79160248082019260009290919082900301818387803b1580156200289857600080fd5b505af1158015620028ad573d6000803e3d6000fd5b5050604051600160a060020a03851692507f8dee2b2f3e98319ae6347eda521788f73f4086c9be9a594942b370b137fb8cb19150600090a25050565b6034546040805160e060020a6333128d5902815290513392600160a060020a0316916333128d59916004808301926020929190829003018186803b1580156200293157600080fd5b505afa15801562002946573d6000803e3d6000fd5b505050506040513d60208110156200295d57600080fd5b5051600160a060020a031614620029a95760405160e560020a62461bcd028152600401808060200182810382526029815260200180620057b36029913960400191505060405180910390fd5b6034546040805160e560020a63076b7fbb0281529051600092600160a060020a03169163ed6ff760916004808301926020929190829003018186803b158015620029f257600080fd5b505afa15801562002a07573d6000803e3d6000fd5b505050506040513d602081101562002a1e57600080fd5b5051604080517f646810830000000000000000000000000000000000000000000000000000000081529051919250600160a060020a0383169163646810839160048082019260009290919082900301818387803b15801562002a7f57600080fd5b505af115801562002a94573d6000803e3d6000fd5b5050505050565b6034546040805160e060020a6333128d5902815290513392600160a060020a0316916333128d59916004808301926020929190829003018186803b15801562002ae357600080fd5b505afa15801562002af8573d6000803e3d6000fd5b505050506040513d602081101562002b0f57600080fd5b5051600160a060020a03161462002b5b5760405160e560020a62461bcd028152600401808060200182810382526029815260200180620057b36029913960400191505060405180910390fd5b6034546040805160e560020a63076b7fbb0281529051600092600160a060020a03169163ed6ff760916004808301926020929190829003018186803b15801562002ba457600080fd5b505afa15801562002bb9573d6000803e3d6000fd5b505050506040513d602081101562002bd057600080fd5b5051604080517fe8ae2f5b000000000000000000000000000000000000000000000000000000008152600160a060020a03858116600483015291519293509083169163e8ae2f5b9160248082019260009290919082900301818387803b15801562002c3a57600080fd5b505af115801562002c4f573d6000803e3d6000fd5b5050604051600160a060020a03851692507f9cc75e4cafc9a556a369bc53468649075680eb554d225d5918f199453824796d9150600090a25050565b6034546040805160e060020a6333128d5902815290513392600160a060020a0316916333128d59916004808301926020929190829003018186803b15801562002cd357600080fd5b505afa15801562002ce8573d6000803e3d6000fd5b505050506040513d602081101562002cff57600080fd5b5051600160a060020a03161462002d4b5760405160e560020a62461bcd028152600401808060200182810382526029815260200180620057b36029913960400191505060405180910390fd5b6034546040805160e560020a63076b7fbb0281529051600092600160a060020a03169163ed6ff760916004808301926020929190829003018186803b15801562002d9457600080fd5b505afa15801562002da9573d6000803e3d6000fd5b505050506040513d602081101562002dc057600080fd5b5051604080517feede87c1000000000000000000000000000000000000000000000000000000008152600160a060020a038681166004830152851515602483015291519293509083169163eede87c19160448082019260009290919082900301818387803b15801562002e3257600080fd5b505af115801562002e47573d6000803e3d6000fd5b505060408051600160a060020a0387168152851515602082015281517fab2f7f9e5ca2772fafa94f355c1842a80ae6b9e41f83083098d81f67d7a0b5089450908190039091019150a1505050565b6034546040805160e060020a6333128d5902815290513392600160a060020a0316916333128d59916004808301926020929190829003018186803b15801562002edd57600080fd5b505afa15801562002ef2573d6000803e3d6000fd5b505050506040513d602081101562002f0957600080fd5b5051600160a060020a03161462002f555760405160e560020a62461bcd028152600401808060200182810382526029815260200180620057b36029913960400191505060405180910390fd5b6034546040805160e560020a63076b7fbb0281529051600092600160a060020a03169163ed6ff760916004808301926020929190829003018186803b15801562002f9e57600080fd5b505afa15801562002fb3573d6000803e3d6000fd5b505050506040513d602081101562002fca57600080fd5b5051604080517fef1f9373000000000000000000000000000000000000000000000000000000008152600160a060020a03858116600483015291519293509083169163ef1f93739160248082019260009290919082900301818387803b1580156200303457600080fd5b505af115801562003049573d6000803e3d6000fd5b5050604051600160a060020a03851692507f995959c2ceab6ce20e8cd89c904e449fd3e21918a0f420c9ec9340595585526b9150600090a25050565b600390565b303b1590565b612714806200309f8339019056fe60806040523480156200001157600080fd5b50d380156200001f57600080fd5b50d280156200002d57600080fd5b506040516200271438038062002714833981018060405260a08110156200005357600080fd5b81516020830151604084015160608501805193959294919391830192916401000000008111156200008357600080fd5b820160208101848111156200009757600080fd5b8151640100000000811182820187101715620000b257600080fd5b50509291906020018051640100000000811115620000cf57600080fd5b82016020810184811115620000e357600080fd5b8151640100000000811182820187101715620000fe57600080fd5b5050845190935084925083915085906200012090600390602086019062000378565b5081516200013690600490602085019062000378565b506005805460ff191660ff929092169190911790555050600a8054600160a060020a031916600160a060020a038781169190911791829055604080517fed6ff7600000000000000000000000000000000000000000000000000000000081529051929091169163ed6ff76091600480820192602092909190829003018186803b158015620001c357600080fd5b505afa158015620001d8573d6000803e3d6000fd5b505050506040513d6020811015620001ef57600080fd5b5051600b8054600160a060020a031916600160a060020a03928316179055600a54604080517f0261bf8b00000000000000000000000000000000000000000000000000000000815290519190921691630261bf8b916004808301926020929190829003018186803b1580156200026457600080fd5b505afa15801562000279573d6000803e3d6000fd5b505050506040513d60208110156200029057600080fd5b5051600c8054600160a060020a031916600160a060020a03928316179055600a54604080517f2f58b80d00000000000000000000000000000000000000000000000000000000815290519190921691632f58b80d916004808301926020929190829003018186803b1580156200030557600080fd5b505afa1580156200031a573d6000803e3d6000fd5b505050506040513d60208110156200033157600080fd5b5051600d8054600160a060020a031916600160a060020a039283161790556005805461010060a860020a031916610100969092169590950217909355506200041d92505050565b828054600181600116156101000203166002900490600052602060002090601f016020900481019282601f10620003bb57805160ff1916838001178555620003eb565b82800160010185558215620003eb579182015b82811115620003eb578251825591602001919060010190620003ce565b50620003f9929150620003fd565b5090565b6200041a91905b80821115620003f9576000815560010162000404565b90565b6122e7806200042d6000396000f3fe608060405234801561001057600080fd5b50d3801561001d57600080fd5b50d2801561002a57600080fd5b50600436106101aa576000357c0100000000000000000000000000000000000000000000000000000000900480635eae177c11610115578063a9059cbb116100ce578063db006a75116100a8578063db006a751461052a578063dd62ed3e14610547578063ee9907a414610575578063f866c3191461059b576101aa565b8063a9059cbb146104d0578063c634dfaa146104fc578063d0fc81d214610522576101aa565b80635eae177c1461041657806370a082311461044257806389d1a0fc1461046857806394362e8b1461047057806395d89b411461049c578063a457c2d7146104a4576101aa565b806323b872dd1161016757806323b872dd146102fa578063313ce56714610330578063325a9b131461034e578063395093511461037c5780633edb7cb8146103a8578063445e8010146103d4576101aa565b806306fdde03146101af578063095ea7b31461022c5780630e49072d1461026c57806312c87c2d1461029457806318160ddd146102ba5780631d51e7cf146102d4575b600080fd5b6101b76105d1565b6040805160208082528351818301528351919283929083019185019080838360005b838110156101f15781810151838201526020016101d9565b50505050905090810190601f16801561021e5780820380516001836020036101000a031916815260200191505b509250505060405180910390f35b6102586004803603604081101561024257600080fd5b50600160a060020a038135169060200135610668565b604080519115158252519081900360200190f35b6102926004803603602081101561028257600080fd5b5035600160a060020a0316610686565b005b610292600480360360208110156102aa57600080fd5b5035600160a060020a0316610693565b6102c2610742565b60408051918252519081900360200190f35b6102c2600480360360208110156102ea57600080fd5b5035600160a060020a031661081f565b6102586004803603606081101561031057600080fd5b50600160a060020a0381358116916020810135909116906040013561083e565b6103386108cc565b6040805160ff9092168252519081900360200190f35b6102926004803603604081101561036457600080fd5b50600160a060020a03813581169160200135166108d5565b6102586004803603604081101561039257600080fd5b50600160a060020a03813516906020013561093e565b610292600480360360408110156103be57600080fd5b50600160a060020a038135169060200135610992565b6103fa600480360360208110156103ea57600080fd5b5035600160a060020a0316610a8c565b60408051600160a060020a039092168252519081900360200190f35b6102586004803603604081101561042c57600080fd5b50600160a060020a038135169060200135610aaa565b6102c26004803603602081101561045857600080fd5b5035600160a060020a0316610b5e565b6103fa610c13565b6102926004803603604081101561048657600080fd5b50600160a060020a038135169060200135610c27565b6101b7610cff565b610258600480360360408110156104ba57600080fd5b50600160a060020a038135169060200135610d60565b610258600480360360408110156104e657600080fd5b50600160a060020a038135169060200135610dcf565b6102c26004803603602081101561051257600080fd5b5035600160a060020a0316610de3565b6102c2610dee565b6102926004803603602081101561054057600080fd5b5035610df4565b6102c26004803603604081101561055d57600080fd5b50600160a060020a0381358116916020013516611057565b6102c26004803603602081101561058b57600080fd5b5035600160a060020a0316611082565b610292600480360360608110156105b157600080fd5b50600160a060020a0381358116916020810135909116906040013561109d565b60038054604080516020601f600260001961010060018816150201909516949094049384018190048102820181019092528281526060939092909183018282801561065d5780601f106106325761010080835404028352916020019161065d565b820191906000526020600020905b81548152906001019060200180831161064057829003601f168201915b505050505090505b90565b600061067c6106756110f9565b84846110fd565b5060015b92915050565b61069033826111f3565b50565b600160a060020a0381163314156106de5760405160e560020a62461bcd0281526004018080602001828103825260258152602001806120b76025913960400191505060405180910390fd5b33600081815260096020526040808220805473ffffffffffffffffffffffffffffffffffffffff1916600160a060020a03861690811790915590519092917fc2d6a42a9d5273283f73009a07aacfb043f2f91173a8d9d33b504afe898db08b91a350565b60008061074d611404565b9050801515610760576000915050610665565b600b54600554604080517fd15e0053000000000000000000000000000000000000000000000000000000008152600160a060020a036101009093048316600482015290516108199361081493169163d15e0053916024808301926020929190829003018186803b1580156107d357600080fd5b505afa1580156107e7573d6000803e3d6000fd5b505050506040513d60208110156107fd57600080fd5b50516108088461140a565b9063ffffffff61142016565b61146b565b91505090565b600160a060020a0381166000908152600860205260409020545b919050565b600061084b848484611484565b6108c2846108576110f9565b6108bd85606060405190810160405280602881526020016120fd60289139600160a060020a038a166000908152600160205260408120906108966110f9565b600160a060020a03168152602081019190915260400160002054919063ffffffff6114f816565b6110fd565b5060019392505050565b60055460ff1690565b600160a060020a038281166000908152600960205260409020541633146109305760405160e560020a62461bcd02815260040180806020018281038252603a815260200180612282603a913960400191505060405180910390fd5b61093a82826111f3565b5050565b600061067c61094b6110f9565b846108bd856001600061095c6110f9565b600160a060020a03908116825260208083019390935260409182016000908120918c16815292529020549063ffffffff61159216565b600c54600160a060020a031633146109de5760405160e560020a62461bcd02815260040180806020018281038252603281526020018061222b6032913960400191505060405180910390fd5b60008060006109ec856115ef565b935093509350506109fe8583866116f9565b610a088585611832565b6000610a1a848663ffffffff61193416565b1515610a2c57610a2986611976565b90505b85600160a060020a03167f90e5d3d68ec162d9c7de393037a3ede04dd44f68e051bf2ace4a73c299dbc4db868584610a645785610a67565b60005b60408051938452602084019290925282820152519081900360600190a2505050505050565b600160a060020a039081166000908152600760205260409020541690565b600d54600554604080517f76e9d615000000000000000000000000000000000000000000000000000000008152610100909204600160a060020a039081166004840152858116602484015260448301859052905160009391909116916376e9d615916064808301926020929190829003018186803b158015610b2b57600080fd5b505afa158015610b3f573d6000803e3d6000fd5b505050506040513d6020811015610b5557600080fd5b50519392505050565b600080610b6a83611a37565b600160a060020a03841660009081526008602052604090205490915081158015610b92575080155b15610ba257600092505050610839565b600160a060020a03848116600090815260076020526040902054161515610bf557610bec81610be086610bdb868463ffffffff61159216565b611a52565b9063ffffffff61193416565b92505050610839565b610bec610c0682610be08785611a52565b839063ffffffff61159216565b6005546101009004600160a060020a031681565b600c54600160a060020a03163314610c735760405160e560020a62461bcd02815260040180806020018281038252603281526020018061222b6032913960400191505060405180910390fd5b600080610c7f846115ef565b935093505050610ca384610c9c858561159290919063ffffffff16565b60006116f9565b610cad8484611b20565b60408051848152602081018490528082018390529051600160a060020a038616917fbe7799898ca2d813ff902b487c1b434ab45b47edd8f38b77ad5e99aae8341b7a919081900360600190a250505050565b60048054604080516020601f600260001961010060018816150201909516949094049384018190048102820181019092528281526060939092909183018282801561065d5780601f106106325761010080835404028352916020019161065d565b600061067c610d6d6110f9565b846108bd856060604051908101604052806025815260200161225d6025913960016000610d986110f9565b600160a060020a03908116825260208083019390935260409182016000908120918d1681529252902054919063ffffffff6114f816565b600061067c610ddc6110f9565b8484611484565b600061068082611a37565b60001981565b60008111610e4c576040805160e560020a62461bcd02815260206004820181905260248201527f416d6f756e7420746f2072656465656d206e6565647320746f206265203e2030604482015290519081900360640190fd5b6000806000610e5a336115ef565b91955093509150849050600019811415610e715750825b83811115610eb35760405160e560020a62461bcd02815260040180806020018281038252603281526020018061203d6032913960400191505060405180910390fd5b610ebd3382610aaa565b1515610f13576040805160e560020a62461bcd02815260206004820152601b60248201527f5472616e736665722063616e6e6f7420626520616c6c6f7765642e0000000000604482015290519081900360640190fd5b610f1e3384836116f9565b610f283382611832565b6000610f3a858363ffffffff61193416565b1515610f4c57610f4933611976565b90505b600c54600554600160a060020a0391821691639895e3d8916101009004163385610f7c8a8263ffffffff61193416565b6040518563ffffffff167c01000000000000000000000000000000000000000000000000000000000281526004018085600160a060020a0316600160a060020a0316815260200184600160a060020a0316600160a060020a03168152602001838152602001828152602001945050505050600060405180830381600087803b15801561100757600080fd5b505af115801561101b573d6000803e3d6000fd5b5050505033600160a060020a03167fbd5034ffbd47e4e72a94baa2cdb74c6fad73cb3bcdc13036b72ec8306f5a7646838684610a645786610a67565b600160a060020a03918216600090815260016020908152604080832093909416825291909152205490565b600160a060020a031660009081526006602052604090205490565b600c54600160a060020a031633146110e95760405160e560020a62461bcd02815260040180806020018281038252603281526020018061222b6032913960400191505060405180910390fd5b6110f4838383611c15565b505050565b3390565b600160a060020a03831615156111475760405160e560020a62461bcd0281526004018080602001828103825260248152602001806122076024913960400191505060405180910390fd5b600160a060020a03821615156111915760405160e560020a62461bcd02815260040180806020018281038252602281526020018061206f6022913960400191505060405180910390fd5b600160a060020a03808416600081815260016020908152604080832094871680845294825291829020859055815185815291517f8c5be1e5ebec7d5bd14f71427d1e84f3dd0314c0f7b2291e5b200ac8c7c3b9259281900390910190a3505050565b600160a060020a0380831660009081526007602052604090205481169082168114156112535760405160e560020a62461bcd02815260040180806020018281038252602a815260200180612125602a913960400191505060405180910390fd5b600080600080611262876115ef565b93509350935093506000831115156112ae5760405160e560020a62461bcd02815260040180806020018281038252604281526020018061214f6042913960600191505060405180910390fd5b600160a060020a038516156112c9576112c9876000866116f9565b86600160a060020a031686600160a060020a0316141561136257600160a060020a0387166000818152600760209081526040808320805473ffffffffffffffffffffffffffffffffffffffff191690558051878152918201869052818101859052519192917f5e3cad45b1fe24159d1cb39788d82d0f69cc15770aa96fba1d3d1a73487355949181900360600190a3505050505061093a565b600160a060020a038781166000908152600760205260408120805473ffffffffffffffffffffffffffffffffffffffff1916928916929092179091556113ab90889085906116f9565b60408051848152602081018490528082018390529051600160a060020a0380891692908a16917f5e3cad45b1fe24159d1cb39788d82d0f69cc15770aa96fba1d3d1a73487355949181900360600190a350505050505050565b60025490565b600061068082633b9aca0063ffffffff611d4916565b60006114646b033b2e3c9fd0803ce8000000611458611445868663ffffffff611d4916565b6b019d971e4fe8401e7400000090611592565b9063ffffffff611da916565b9392505050565b6000631dcd6500611464633b9aca006114588386611592565b82816114908282610aaa565b15156114e6576040805160e560020a62461bcd02815260206004820152601b60248201527f5472616e736665722063616e6e6f7420626520616c6c6f7765642e0000000000604482015290519081900360640190fd5b6114f1858585611c15565b5050505050565b6000818484111561158a5760405160e560020a62461bcd0281526004018080602001828103825283818151815260200191508051906020019080838360005b8381101561154f578181015183820152602001611537565b50505050905090810190601f16801561157c5780820380516001836020036101000a031916815260200191505b509250505060405180910390fd5b505050900390565b600082820183811015611464576040805160e560020a62461bcd02815260206004820152601b60248201527f536166654d6174683a206164646974696f6e206f766572666c6f770000000000604482015290519081900360640190fd5b600080600080600061160086611a37565b9050600061161182610be089610b5e565b905061161d8782611b20565b600b54600554604080517fd15e0053000000000000000000000000000000000000000000000000000000008152610100909204600160a060020a0390811660048401529051600093919091169163d15e0053916024808301926020929190829003018186803b15801561168f57600080fd5b505afa1580156116a3573d6000803e3d6000fd5b505050506040513d60208110156116b957600080fd5b5051600160a060020a03891660009081526006602052604090208190559050826116e9818463ffffffff61159216565b9099909850919650945092505050565b600160a060020a038084166000908152600760205260409020541680151561172157506110f4565b60008061172d836115ef565b600160a060020a03871660009081526008602052604090205491955093506117639250869150610be0908863ffffffff61159216565b600160a060020a038085166000908152600860209081526040808320949094556007905291909120541680156117d657600160a060020a0381166000908152600860205260409020546117bc908463ffffffff61159216565b600160a060020a0382166000908152600860205260409020555b6040805184815260208101849052808201889052606081018790529051600160a060020a038616917f70ff8cf632603e2bfd1afb7e4061acce53d95356b1be9726b99fa22ba733b01f919081900360800190a250505050505050565b600160a060020a038216151561187c5760405160e560020a62461bcd0281526004018080602001828103825260218152602001806121c16021913960400191505060405180910390fd5b6118c0816060604051908101604052806022815260200161201b60229139600160a060020a038516600090815260208190526040902054919063ffffffff6114f816565b600160a060020a0383166000908152602081905260409020556002546118ec908263ffffffff61193416565b600255604080518281529051600091600160a060020a038516917fddf252ad1be2c89b69c2b068fc378daa952ba7f163c4a11628f55a4df523b3ef9181900360200190a35050565b600061146483836040805190810160405280601e81526020017f536166654d6174683a207375627472616374696f6e206f766572666c6f7700008152506114f8565b600160a060020a0381166000818152600760209081526040808320805473ffffffffffffffffffffffffffffffffffffffff191690558051838152918201839052818101839052519192839290917f5e3cad45b1fe24159d1cb39788d82d0f69cc15770aa96fba1d3d1a7348735594919081900360600190a3600160a060020a0382166000908152600860205260409020541515611a2f5750600160a060020a0381166000908152600660205260408120556001610839565b506000610839565b600160a060020a031660009081526020819052604090205490565b600160a060020a03808316600090815260066020908152604080832054600b5460055483517fd15e0053000000000000000000000000000000000000000000000000000000008152610100909104871660048201529251949561146495610814959394611b1494939092169263d15e00539260248082019391829003018186803b158015611adf57600080fd5b505afa158015611af3573d6000803e3d6000fd5b505050506040513d6020811015611b0957600080fd5b50516108088761140a565b9063ffffffff611deb16565b600160a060020a0382161515611b80576040805160e560020a62461bcd02815260206004820152601f60248201527f45524332303a206d696e7420746f20746865207a65726f206164647265737300604482015290519081900360640190fd5b600254611b93908263ffffffff61159216565b600255600160a060020a038216600090815260208190526040902054611bbf908263ffffffff61159216565b600160a060020a0383166000818152602081815260408083209490945583518581529351929391927fddf252ad1be2c89b69c2b068fc378daa952ba7f163c4a11628f55a4df523b3ef9281900390910190a35050565b60008111611c575760405160e560020a62461bcd0281526004018080602001828103825260308152602001806121916030913960400191505060405180910390fd5b6000806000611c65866115ef565b93509350935050600080611c78876115ef565b935093505050611c898885886116f9565b611c9d87610c9c848963ffffffff61159216565b611ca8888888611e23565b6000611cba868863ffffffff61193416565b1515611ccc57611cc989611976565b90505b87600160a060020a031689600160a060020a03167f89a178eaa27e0cd201bd795ca8ff716ac0df9618494510ca79771cfc66ffcde889888786611d0f5789611d12565b60005b60408051948552602085019390935283830191909152606083015260808201879052519081900360a00190a3505050505050505050565b6000821515611d5a57506000610680565b828202828482811515611d6957fe5b04146114645760405160e560020a62461bcd0281526004018080602001828103825260218152602001806120dc6021913960400191505060405180910390fd5b600061146483836040805190810160405280601a81526020017f536166654d6174683a206469766973696f6e206279207a65726f000000000000815250611f8a565b600060028204611e1b83611458611e0e876b033b2e3c9fd0803ce8000000611d49565b849063ffffffff61159216565b949350505050565b600160a060020a0383161515611e6d5760405160e560020a62461bcd0281526004018080602001828103825260258152602001806121e26025913960400191505060405180910390fd5b600160a060020a0382161515611eb75760405160e560020a62461bcd028152600401808060200182810382526023815260200180611ff86023913960400191505060405180910390fd5b611efb816060604051908101604052806026815260200161209160269139600160a060020a038616600090815260208190526040902054919063ffffffff6114f816565b600160a060020a038085166000908152602081905260408082209390935590841681522054611f30908263ffffffff61159216565b600160a060020a038084166000818152602081815260409182902094909455805185815290519193928716927fddf252ad1be2c89b69c2b068fc378daa952ba7f163c4a11628f55a4df523b3ef92918290030190a3505050565b600081818411611fdf5760405160e560020a62461bcd0281526004018080602001828103825283818151815260200191508051906020019080838360008381101561154f578181015183820152602001611537565b5060008385811515611fed57fe5b049594505050505056fe45524332303a207472616e7366657220746f20746865207a65726f206164647265737345524332303a206275726e20616d6f756e7420657863656564732062616c616e6365557365722063616e6e6f742072656465656d206d6f7265207468616e2074686520617661696c61626c652062616c616e636545524332303a20617070726f766520746f20746865207a65726f206164647265737345524332303a207472616e7366657220616d6f756e7420657863656564732062616c616e6365557365722063616e6e6f74206769766520616c6c6f77616e636520746f2068696d73656c66536166654d6174683a206d756c7469706c69636174696f6e206f766572666c6f7745524332303a207472616e7366657220616d6f756e74206578636565647320616c6c6f77616e6365496e74657265737420697320616c7265616479207265646972656374656420746f207468652075736572496e7465726573742073747265616d2063616e206f6e6c79206265207265646972656374656420696620746865726520697320612076616c69642062616c616e63655472616e7366657272656420616d6f756e74206e6565647320746f2062652067726561746572207468616e207a65726f45524332303a206275726e2066726f6d20746865207a65726f206164647265737345524332303a207472616e736665722066726f6d20746865207a65726f206164647265737345524332303a20617070726f76652066726f6d20746865207a65726f20616464726573735468652063616c6c6572206f6620746869732066756e6374696f6e206d7573742062652061206c656e64696e6720706f6f6c45524332303a2064656372656173656420616c6c6f77616e63652062656c6f77207a65726f43616c6c6572206973206e6f7420616c6c6f77656420746f2072656469726563742074686520696e746572657374206f66207468652075736572a165627a7a723058208ea2affda46e19118081742b54132bf41c42827ad769333f18818561ae76e13900295468652063616c6c6572206d7573742062652061206c656e64696e6720706f6f6c206d616e61676572436f6e747261637420696e7374616e63652068617320616c7265616479206265656e20696e697469616c697a6564546865206c6971756964697479206f66207468652072657365727665206e6565647320746f2062652030a165627a7a72305820f8c316760b48c76e8383820da48f20e40771292e8e0bd9c5244cc52fbc6abf180029",
  "source": "pragma solidity ^0.5.0;\n\nimport \"../libraries/openzeppelin-solidity/contracts/math/SafeMath.sol\";\nimport \"../libraries/openzeppelin-solidity/contracts/token/ERC20/ERC20Detailed.sol\";\nimport \"../libraries/openzeppelin-upgradeability/VersionedInitializable.sol\";\nimport \"../configuration/LendingPoolAddressesProvider.sol\";\nimport \"./LendingPoolCore.sol\";\nimport \"../tokenization/AToken.sol\";\n\n/**\n* @title LendingPoolConfigurator contract\n* @author Aave\n* @notice Executes configuration methods on the LendingPoolCore contract. Allows to enable/disable reserves,\n* and set different protocol parameters.\n**/\n\ncontract LendingPoolConfigurator is VersionedInitializable {\n    using SafeMath for uint256;\n\n    /**\n    * @dev emitted when a reserve is initialized.\n    * @param _reserve the address of the reserve\n    * @param _aToken the address of the overlying aToken contract\n    * @param _interestRateStrategyAddress the address of the interest rate strategy for the reserve\n    **/\n    event ReserveInitialized(\n        address indexed _reserve,\n        address indexed _aToken,\n        address _interestRateStrategyAddress\n    );\n\n    /**\n    * @dev emitted when a reserve is removed.\n    * @param _reserve the address of the reserve\n    **/\n    event ReserveRemoved(\n        address indexed _reserve\n    );\n\n    /**\n    * @dev emitted when borrowing is enabled on a reserve\n    * @param _reserve the address of the reserve\n    * @param _stableRateEnabled true if stable rate borrowing is enabled, false otherwise\n    **/\n    event BorrowingEnabledOnReserve(address _reserve, bool _stableRateEnabled);\n\n    /**\n    * @dev emitted when borrowing is disabled on a reserve\n    * @param _reserve the address of the reserve\n    **/\n    event BorrowingDisabledOnReserve(address indexed _reserve);\n\n    /**\n    * @dev emitted when a reserve is enabled as collateral.\n    * @param _reserve the address of the reserve\n    * @param _ltv the loan to value of the asset when used as collateral\n    * @param _liquidationThreshold the threshold at which loans using this asset as collateral will be considered undercollateralized\n    * @param _liquidationBonus the bonus liquidators receive to liquidate this asset\n    **/\n    event ReserveEnabledAsCollateral(\n        address indexed _reserve,\n        uint256 _ltv,\n        uint256 _liquidationThreshold,\n        uint256 _liquidationBonus\n    );\n\n    /**\n    * @dev emitted when a reserve is disabled as collateral\n    * @param _reserve the address of the reserve\n    **/\n    event ReserveDisabledAsCollateral(address indexed _reserve);\n\n    /**\n    * @dev emitted when stable rate borrowing is enabled on a reserve\n    * @param _reserve the address of the reserve\n    **/\n    event StableRateEnabledOnReserve(address indexed _reserve);\n\n    /**\n    * @dev emitted when stable rate borrowing is disabled on a reserve\n    * @param _reserve the address of the reserve\n    **/\n    event StableRateDisabledOnReserve(address indexed _reserve);\n\n    /**\n    * @dev emitted when a reserve is activated\n    * @param _reserve the address of the reserve\n    **/\n    event ReserveActivated(address indexed _reserve);\n\n    /**\n    * @dev emitted when a reserve is deactivated\n    * @param _reserve the address of the reserve\n    **/\n    event ReserveDeactivated(address indexed _reserve);\n\n    /**\n    * @dev emitted when a reserve is freezed\n    * @param _reserve the address of the reserve\n    **/\n    event ReserveFreezed(address indexed _reserve);\n\n    /**\n    * @dev emitted when a reserve is unfreezed\n    * @param _reserve the address of the reserve\n    **/\n    event ReserveUnfreezed(address indexed _reserve);\n\n    /**\n    * @dev emitted when a reserve loan to value is updated\n    * @param _reserve the address of the reserve\n    * @param _ltv the new value for the loan to value\n    **/\n    event ReserveBaseLtvChanged(address _reserve, uint256 _ltv);\n\n    /**\n    * @dev emitted when a reserve liquidation threshold is updated\n    * @param _reserve the address of the reserve\n    * @param _threshold the new value for the liquidation threshold\n    **/\n    event ReserveLiquidationThresholdChanged(address _reserve, uint256 _threshold);\n\n    /**\n    * @dev emitted when a reserve liquidation bonus is updated\n    * @param _reserve the address of the reserve\n    * @param _bonus the new value for the liquidation bonus\n    **/\n    event ReserveLiquidationBonusChanged(address _reserve, uint256 _bonus);\n\n    /**\n    * @dev emitted when the reserve decimals are updated\n    * @param _reserve the address of the reserve\n    * @param _decimals the new decimals\n    **/\n    event ReserveDecimalsChanged(address _reserve, uint256 _decimals);\n\n\n    /**\n    * @dev emitted when a reserve interest strategy contract is updated\n    * @param _reserve the address of the reserve\n    * @param _strategy the new address of the interest strategy contract\n    **/\n    event ReserveInterestRateStrategyChanged(address _reserve, address _strategy);\n\n    LendingPoolAddressesProvider public poolAddressesProvider;\n    /**\n    * @dev only the lending pool manager can call functions affected by this modifier\n    **/\n    modifier onlyLendingPoolManager {\n        require(\n            poolAddressesProvider.getLendingPoolManager() == msg.sender,\n            \"The caller must be a lending pool manager\"\n        );\n        _;\n    }\n\n    uint256 public constant CONFIGURATOR_REVISION = 0x3;\n\n    function getRevision() internal pure returns (uint256) {\n        return CONFIGURATOR_REVISION;\n    }\n\n    function initialize(LendingPoolAddressesProvider _poolAddressesProvider) public initializer {\n        poolAddressesProvider = _poolAddressesProvider;\n    }\n\n    /**\n    * @dev initializes a reserve\n    * @param _reserve the address of the reserve to be initialized\n    * @param _underlyingAssetDecimals the decimals of the reserve underlying asset\n    * @param _interestRateStrategyAddress the address of the interest rate strategy contract for this reserve\n    **/\n    function initReserve(\n        address _reserve,\n        uint8 _underlyingAssetDecimals,\n        address _interestRateStrategyAddress\n    ) external onlyLendingPoolManager {\n        ERC20Detailed asset = ERC20Detailed(_reserve);\n\n        string memory aTokenName = string(abi.encodePacked(\"Water Interest bearing \", asset.name()));\n        string memory aTokenSymbol = string(abi.encodePacked(\"w\", asset.symbol()));\n\n        initReserveWithData(\n            _reserve,\n            aTokenName,\n            aTokenSymbol,\n            _underlyingAssetDecimals,\n            _interestRateStrategyAddress\n        );\n\n    }\n\n    /**\n    * @dev initializes a reserve using aTokenData provided externally (useful if the underlying ERC20 contract doesn't expose name or decimals)\n    * @param _reserve the address of the reserve to be initialized\n    * @param _aTokenName the name of the aToken contract\n    * @param _aTokenSymbol the symbol of the aToken contract\n    * @param _underlyingAssetDecimals the decimals of the reserve underlying asset\n    * @param _interestRateStrategyAddress the address of the interest rate strategy contract for this reserve\n    **/\n    function initReserveWithData(\n        address _reserve,\n        string memory _aTokenName,\n        string memory _aTokenSymbol,\n        uint8 _underlyingAssetDecimals,\n        address _interestRateStrategyAddress\n    ) public onlyLendingPoolManager {\n        LendingPoolCore core = LendingPoolCore(poolAddressesProvider.getLendingPoolCore());\n\n        AToken aTokenInstance = new AToken(\n            poolAddressesProvider,\n            _reserve,\n            _underlyingAssetDecimals,\n            _aTokenName,\n            _aTokenSymbol\n        );\n        core.initReserve(\n            _reserve,\n            address(aTokenInstance),\n            _underlyingAssetDecimals,\n            _interestRateStrategyAddress\n        );\n\n        emit ReserveInitialized(\n            _reserve,\n            address(aTokenInstance),\n            _interestRateStrategyAddress\n        );\n    }\n\n    /**\n    * @dev removes the last added reserve in the list of the reserves\n    * @param _reserveToRemove the address of the reserve\n    **/\n    function removeLastAddedReserve( address _reserveToRemove) external onlyLendingPoolManager {\n        LendingPoolCore core = LendingPoolCore(poolAddressesProvider.getLendingPoolCore());\n        core.removeLastAddedReserve(_reserveToRemove);\n        emit ReserveRemoved(_reserveToRemove);\n    }\n\n    /**\n    * @dev enables borrowing on a reserve\n    * @param _reserve the address of the reserve\n    * @param _stableBorrowRateEnabled true if stable borrow rate needs to be enabled by default on this reserve\n    **/\n    function enableBorrowingOnReserve(address _reserve, bool _stableBorrowRateEnabled)\n        external\n        onlyLendingPoolManager\n    {\n        LendingPoolCore core = LendingPoolCore(poolAddressesProvider.getLendingPoolCore());\n        core.enableBorrowingOnReserve(_reserve, _stableBorrowRateEnabled);\n        emit BorrowingEnabledOnReserve(_reserve, _stableBorrowRateEnabled);\n    }\n\n    /**\n    * @dev disables borrowing on a reserve\n    * @param _reserve the address of the reserve\n    **/\n    function disableBorrowingOnReserve(address _reserve) external onlyLendingPoolManager {\n        LendingPoolCore core = LendingPoolCore(poolAddressesProvider.getLendingPoolCore());\n        core.disableBorrowingOnReserve(_reserve);\n\n        emit BorrowingDisabledOnReserve(_reserve);\n    }\n\n    /**\n    * @dev enables a reserve to be used as collateral\n    * @param _reserve the address of the reserve\n    * @param _baseLTVasCollateral the loan to value of the asset when used as collateral\n    * @param _liquidationThreshold the threshold at which loans using this asset as collateral will be considered undercollateralized\n    * @param _liquidationBonus the bonus liquidators receive to liquidate this asset\n    **/\n    function enableReserveAsCollateral(\n        address _reserve,\n        uint256 _baseLTVasCollateral,\n        uint256 _liquidationThreshold,\n        uint256 _liquidationBonus\n    ) external onlyLendingPoolManager {\n        LendingPoolCore core = LendingPoolCore(poolAddressesProvider.getLendingPoolCore());\n        core.enableReserveAsCollateral(\n            _reserve,\n            _baseLTVasCollateral,\n            _liquidationThreshold,\n            _liquidationBonus\n        );\n        emit ReserveEnabledAsCollateral(\n            _reserve,\n            _baseLTVasCollateral,\n            _liquidationThreshold,\n            _liquidationBonus\n        );\n    }\n\n    /**\n    * @dev disables a reserve as collateral\n    * @param _reserve the address of the reserve\n    **/\n    function disableReserveAsCollateral(address _reserve) external onlyLendingPoolManager {\n        LendingPoolCore core = LendingPoolCore(poolAddressesProvider.getLendingPoolCore());\n        core.disableReserveAsCollateral(_reserve);\n\n        emit ReserveDisabledAsCollateral(_reserve);\n    }\n\n    /**\n    * @dev enable stable rate borrowing on a reserve\n    * @param _reserve the address of the reserve\n    **/\n    function enableReserveStableBorrowRate(address _reserve) external onlyLendingPoolManager {\n        LendingPoolCore core = LendingPoolCore(poolAddressesProvider.getLendingPoolCore());\n        core.enableReserveStableBorrowRate(_reserve);\n\n        emit StableRateEnabledOnReserve(_reserve);\n    }\n\n    /**\n    * @dev disable stable rate borrowing on a reserve\n    * @param _reserve the address of the reserve\n    **/\n    function disableReserveStableBorrowRate(address _reserve) external onlyLendingPoolManager {\n        LendingPoolCore core = LendingPoolCore(poolAddressesProvider.getLendingPoolCore());\n        core.disableReserveStableBorrowRate(_reserve);\n\n        emit StableRateDisabledOnReserve(_reserve);\n    }\n\n    /**\n    * @dev activates a reserve\n    * @param _reserve the address of the reserve\n    **/\n    function activateReserve(address _reserve) external onlyLendingPoolManager {\n        LendingPoolCore core = LendingPoolCore(poolAddressesProvider.getLendingPoolCore());\n        core.activateReserve(_reserve);\n\n        emit ReserveActivated(_reserve);\n    }\n\n    /**\n    * @dev deactivates a reserve\n    * @param _reserve the address of the reserve\n    **/\n    function deactivateReserve(address _reserve) external onlyLendingPoolManager {\n        LendingPoolCore core = LendingPoolCore(poolAddressesProvider.getLendingPoolCore());\n        require(core.getReserveTotalLiquidity(_reserve) == 0, \"The liquidity of the reserve needs to be 0\");\n        core.deactivateReserve(_reserve);\n\n        emit ReserveDeactivated(_reserve);\n    }\n\n    /**\n    * @dev freezes a reserve. A freezed reserve doesn't accept any new deposit, borrow or rate swap, but can accept repayments, liquidations, rate rebalances and redeems\n    * @param _reserve the address of the reserve\n    **/\n    function freezeReserve(address _reserve) external onlyLendingPoolManager {\n        LendingPoolCore core = LendingPoolCore(poolAddressesProvider.getLendingPoolCore());\n        core.freezeReserve(_reserve);\n\n        emit ReserveFreezed(_reserve);\n    }\n\n    /**\n    * @dev unfreezes a reserve\n    * @param _reserve the address of the reserve\n    **/\n    function unfreezeReserve(address _reserve) external onlyLendingPoolManager {\n        LendingPoolCore core = LendingPoolCore(poolAddressesProvider.getLendingPoolCore());\n        core.unfreezeReserve(_reserve);\n\n        emit ReserveUnfreezed(_reserve);\n    }\n\n    /**\n    * @dev emitted when a reserve loan to value is updated\n    * @param _reserve the address of the reserve\n    * @param _ltv the new value for the loan to value\n    **/\n    function setReserveBaseLTVasCollateral(address _reserve, uint256 _ltv)\n        external\n        onlyLendingPoolManager\n    {\n        LendingPoolCore core = LendingPoolCore(poolAddressesProvider.getLendingPoolCore());\n        core.setReserveBaseLTVasCollateral(_reserve, _ltv);\n        emit ReserveBaseLtvChanged(_reserve, _ltv);\n    }\n\n    /**\n    * @dev updates the liquidation threshold of a reserve.\n    * @param _reserve the address of the reserve\n    * @param _threshold the new value for the liquidation threshold\n    **/\n    function setReserveLiquidationThreshold(address _reserve, uint256 _threshold)\n        external\n        onlyLendingPoolManager\n    {\n        LendingPoolCore core = LendingPoolCore(poolAddressesProvider.getLendingPoolCore());\n        core.setReserveLiquidationThreshold(_reserve, _threshold);\n        emit ReserveLiquidationThresholdChanged(_reserve, _threshold);\n    }\n\n    /**\n    * @dev updates the liquidation bonus of a reserve\n    * @param _reserve the address of the reserve\n    * @param _bonus the new value for the liquidation bonus\n    **/\n    function setReserveLiquidationBonus(address _reserve, uint256 _bonus)\n        external\n        onlyLendingPoolManager\n    {\n        LendingPoolCore core = LendingPoolCore(poolAddressesProvider.getLendingPoolCore());\n        core.setReserveLiquidationBonus(_reserve, _bonus);\n        emit ReserveLiquidationBonusChanged(_reserve, _bonus);\n    }\n\n    /**\n    * @dev updates the reserve decimals\n    * @param _reserve the address of the reserve\n    * @param _decimals the new number of decimals\n    **/\n    function setReserveDecimals(address _reserve, uint256 _decimals)\n        external\n        onlyLendingPoolManager\n    {\n        LendingPoolCore core = LendingPoolCore(poolAddressesProvider.getLendingPoolCore());\n        core.setReserveDecimals(_reserve, _decimals);\n        emit ReserveDecimalsChanged(_reserve, _decimals);\n    }\n\n    /**\n    * @dev sets the interest rate strategy of a reserve\n    * @param _reserve the address of the reserve\n    * @param _rateStrategyAddress the new address of the interest strategy contract\n    **/\n    function setReserveInterestRateStrategyAddress(address _reserve, address _rateStrategyAddress)\n        external\n        onlyLendingPoolManager\n    {\n        LendingPoolCore core = LendingPoolCore(poolAddressesProvider.getLendingPoolCore());\n        core.setReserveInterestRateStrategyAddress(_reserve, _rateStrategyAddress);\n        emit ReserveInterestRateStrategyChanged(_reserve, _rateStrategyAddress);\n    }\n\n    /**\n    * @dev refreshes the lending pool core configuration to update the cached address\n    **/\n    function refreshLendingPoolCoreConfiguration() external onlyLendingPoolManager {\n        LendingPoolCore core = LendingPoolCore(poolAddressesProvider.getLendingPoolCore());\n        core.refreshConfiguration();\n    }\n}\n",
  "sourcePath": "/Users/bibodeng/Programming/water_loan_core/contracts/lendingpool/LendingPoolConfigurator.sol",
  "compiler": {
    "name": "solc",
    "version": "0.5.4+commit.d15a3125.mod.Emscripten.clang"
  },
  "schemaVersion": "2.0.1",
  "updatedAt": "2020-12-06T14:57:27.666Z"
}