{
  "contractName": "LendingPoolCore",
  "abi": [
    {
      "constant": true,
      "inputs": [],
      "name": "CORE_REVISION",
      "outputs": [
        {
          "name": "",
          "type": "uint256"
        }
      ],
      "payable": false,
      "stateMutability": "view",
      "type": "function"
    },
    {
      "constant": true,
      "inputs": [
        {
          "name": "",
          "type": "uint256"
        }
      ],
      "name": "reservesList",
      "outputs": [
        {
          "name": "",
          "type": "address"
        }
      ],
      "payable": false,
      "stateMutability": "view",
      "type": "function"
    },
    {
      "constant": true,
      "inputs": [],
      "name": "addressesProvider",
      "outputs": [
        {
          "name": "",
          "type": "address"
        }
      ],
      "payable": false,
      "stateMutability": "view",
      "type": "function"
    },
    {
      "constant": true,
      "inputs": [],
      "name": "lendingPoolAddress",
      "outputs": [
        {
          "name": "",
          "type": "address"
        }
      ],
      "payable": false,
      "stateMutability": "view",
      "type": "function"
    },
    {
      "payable": true,
      "stateMutability": "payable",
      "type": "fallback"
    },
    {
      "anonymous": false,
      "inputs": [
        {
          "indexed": true,
          "name": "reserve",
          "type": "address"
        },
        {
          "indexed": false,
          "name": "liquidityRate",
          "type": "uint256"
        },
        {
          "indexed": false,
          "name": "stableBorrowRate",
          "type": "uint256"
        },
        {
          "indexed": false,
          "name": "variableBorrowRate",
          "type": "uint256"
        },
        {
          "indexed": false,
          "name": "liquidityIndex",
          "type": "uint256"
        },
        {
          "indexed": false,
          "name": "variableBorrowIndex",
          "type": "uint256"
        }
      ],
      "name": "ReserveUpdated",
      "type": "event"
    },
    {
      "constant": false,
      "inputs": [
        {
          "name": "_addressesProvider",
          "type": "address"
        }
      ],
      "name": "initialize",
      "outputs": [],
      "payable": false,
      "stateMutability": "nonpayable",
      "type": "function"
    },
    {
      "constant": false,
      "inputs": [
        {
          "name": "_reserve",
          "type": "address"
        },
        {
          "name": "_user",
          "type": "address"
        },
        {
          "name": "_amount",
          "type": "uint256"
        },
        {
          "name": "_isFirstDeposit",
          "type": "bool"
        }
      ],
      "name": "updateStateOnDeposit",
      "outputs": [],
      "payable": false,
      "stateMutability": "nonpayable",
      "type": "function"
    },
    {
      "constant": false,
      "inputs": [
        {
          "name": "_reserve",
          "type": "address"
        },
        {
          "name": "_user",
          "type": "address"
        },
        {
          "name": "_amountRedeemed",
          "type": "uint256"
        },
        {
          "name": "_userRedeemedEverything",
          "type": "bool"
        }
      ],
      "name": "updateStateOnRedeem",
      "outputs": [],
      "payable": false,
      "stateMutability": "nonpayable",
      "type": "function"
    },
    {
      "constant": false,
      "inputs": [
        {
          "name": "_reserve",
          "type": "address"
        },
        {
          "name": "_user",
          "type": "address"
        },
        {
          "name": "_amountBorrowed",
          "type": "uint256"
        },
        {
          "name": "_borrowFee",
          "type": "uint256"
        },
        {
          "name": "_rateMode",
          "type": "uint8"
        }
      ],
      "name": "updateStateOnBorrow",
      "outputs": [
        {
          "name": "",
          "type": "uint256"
        },
        {
          "name": "",
          "type": "uint256"
        }
      ],
      "payable": false,
      "stateMutability": "nonpayable",
      "type": "function"
    },
    {
      "constant": false,
      "inputs": [
        {
          "name": "_reserve",
          "type": "address"
        },
        {
          "name": "_user",
          "type": "address"
        },
        {
          "name": "_paybackAmountMinusFees",
          "type": "uint256"
        },
        {
          "name": "_originationFeeRepaid",
          "type": "uint256"
        },
        {
          "name": "_balanceIncrease",
          "type": "uint256"
        },
        {
          "name": "_repaidWholeLoan",
          "type": "bool"
        }
      ],
      "name": "updateStateOnRepay",
      "outputs": [],
      "payable": false,
      "stateMutability": "nonpayable",
      "type": "function"
    },
    {
      "constant": false,
      "inputs": [
        {
          "name": "_reserve",
          "type": "address"
        },
        {
          "name": "_user",
          "type": "address"
        },
        {
          "name": "_principalBorrowBalance",
          "type": "uint256"
        },
        {
          "name": "_compoundedBorrowBalance",
          "type": "uint256"
        },
        {
          "name": "_balanceIncrease",
          "type": "uint256"
        },
        {
          "name": "_currentRateMode",
          "type": "uint8"
        }
      ],
      "name": "updateStateOnSwapRate",
      "outputs": [
        {
          "name": "",
          "type": "uint8"
        },
        {
          "name": "",
          "type": "uint256"
        }
      ],
      "payable": false,
      "stateMutability": "nonpayable",
      "type": "function"
    },
    {
      "constant": false,
      "inputs": [
        {
          "name": "_principalReserve",
          "type": "address"
        },
        {
          "name": "_collateralReserve",
          "type": "address"
        },
        {
          "name": "_user",
          "type": "address"
        },
        {
          "name": "_amountToLiquidate",
          "type": "uint256"
        },
        {
          "name": "_collateralToLiquidate",
          "type": "uint256"
        },
        {
          "name": "_feeLiquidated",
          "type": "uint256"
        },
        {
          "name": "_liquidatedCollateralForFee",
          "type": "uint256"
        },
        {
          "name": "_balanceIncrease",
          "type": "uint256"
        },
        {
          "name": "_liquidatorReceivesAToken",
          "type": "bool"
        }
      ],
      "name": "updateStateOnLiquidation",
      "outputs": [],
      "payable": false,
      "stateMutability": "nonpayable",
      "type": "function"
    },
    {
      "constant": false,
      "inputs": [
        {
          "name": "_reserve",
          "type": "address"
        },
        {
          "name": "_user",
          "type": "address"
        },
        {
          "name": "_balanceIncrease",
          "type": "uint256"
        }
      ],
      "name": "updateStateOnRebalance",
      "outputs": [
        {
          "name": "",
          "type": "uint256"
        }
      ],
      "payable": false,
      "stateMutability": "nonpayable",
      "type": "function"
    },
    {
      "constant": false,
      "inputs": [
        {
          "name": "_reserve",
          "type": "address"
        },
        {
          "name": "_user",
          "type": "address"
        },
        {
          "name": "_useAsCollateral",
          "type": "bool"
        }
      ],
      "name": "setUserUseReserveAsCollateral",
      "outputs": [],
      "payable": false,
      "stateMutability": "nonpayable",
      "type": "function"
    },
    {
      "constant": false,
      "inputs": [
        {
          "name": "_reserve",
          "type": "address"
        },
        {
          "name": "_user",
          "type": "address"
        },
        {
          "name": "_amount",
          "type": "uint256"
        }
      ],
      "name": "transferToUser",
      "outputs": [],
      "payable": false,
      "stateMutability": "nonpayable",
      "type": "function"
    },
    {
      "constant": false,
      "inputs": [
        {
          "name": "_token",
          "type": "address"
        },
        {
          "name": "_user",
          "type": "address"
        },
        {
          "name": "_amount",
          "type": "uint256"
        },
        {
          "name": "_destination",
          "type": "address"
        }
      ],
      "name": "transferToFeeCollectionAddress",
      "outputs": [],
      "payable": true,
      "stateMutability": "payable",
      "type": "function"
    },
    {
      "constant": false,
      "inputs": [
        {
          "name": "_token",
          "type": "address"
        },
        {
          "name": "_amount",
          "type": "uint256"
        },
        {
          "name": "_destination",
          "type": "address"
        }
      ],
      "name": "liquidateFee",
      "outputs": [],
      "payable": true,
      "stateMutability": "payable",
      "type": "function"
    },
    {
      "constant": false,
      "inputs": [
        {
          "name": "_reserve",
          "type": "address"
        },
        {
          "name": "_user",
          "type": "address"
        },
        {
          "name": "_amount",
          "type": "uint256"
        }
      ],
      "name": "transferToReserve",
      "outputs": [],
      "payable": true,
      "stateMutability": "payable",
      "type": "function"
    },
    {
      "constant": true,
      "inputs": [
        {
          "name": "_reserve",
          "type": "address"
        },
        {
          "name": "_user",
          "type": "address"
        }
      ],
      "name": "getUserBasicReserveData",
      "outputs": [
        {
          "name": "",
          "type": "uint256"
        },
        {
          "name": "",
          "type": "uint256"
        },
        {
          "name": "",
          "type": "uint256"
        },
        {
          "name": "",
          "type": "bool"
        }
      ],
      "payable": false,
      "stateMutability": "view",
      "type": "function"
    },
    {
      "constant": true,
      "inputs": [
        {
          "name": "_reserve",
          "type": "address"
        },
        {
          "name": "_user",
          "type": "address"
        },
        {
          "name": "_amount",
          "type": "uint256"
        }
      ],
      "name": "isUserAllowedToBorrowAtStable",
      "outputs": [
        {
          "name": "",
          "type": "bool"
        }
      ],
      "payable": false,
      "stateMutability": "view",
      "type": "function"
    },
    {
      "constant": true,
      "inputs": [
        {
          "name": "_reserve",
          "type": "address"
        },
        {
          "name": "_user",
          "type": "address"
        }
      ],
      "name": "getUserUnderlyingAssetBalance",
      "outputs": [
        {
          "name": "",
          "type": "uint256"
        }
      ],
      "payable": false,
      "stateMutability": "view",
      "type": "function"
    },
    {
      "constant": true,
      "inputs": [
        {
          "name": "_reserve",
          "type": "address"
        }
      ],
      "name": "getReserveInterestRateStrategyAddress",
      "outputs": [
        {
          "name": "",
          "type": "address"
        }
      ],
      "payable": false,
      "stateMutability": "view",
      "type": "function"
    },
    {
      "constant": true,
      "inputs": [
        {
          "name": "_reserve",
          "type": "address"
        }
      ],
      "name": "getReserveATokenAddress",
      "outputs": [
        {
          "name": "",
          "type": "address"
        }
      ],
      "payable": false,
      "stateMutability": "view",
      "type": "function"
    },
    {
      "constant": true,
      "inputs": [
        {
          "name": "_reserve",
          "type": "address"
        }
      ],
      "name": "getReserveAvailableLiquidity",
      "outputs": [
        {
          "name": "",
          "type": "uint256"
        }
      ],
      "payable": false,
      "stateMutability": "view",
      "type": "function"
    },
    {
      "constant": true,
      "inputs": [
        {
          "name": "_reserve",
          "type": "address"
        }
      ],
      "name": "getReserveTotalLiquidity",
      "outputs": [
        {
          "name": "",
          "type": "uint256"
        }
      ],
      "payable": false,
      "stateMutability": "view",
      "type": "function"
    },
    {
      "constant": true,
      "inputs": [
        {
          "name": "_reserve",
          "type": "address"
        }
      ],
      "name": "getReserveNormalizedIncome",
      "outputs": [
        {
          "name": "",
          "type": "uint256"
        }
      ],
      "payable": false,
      "stateMutability": "view",
      "type": "function"
    },
    {
      "constant": true,
      "inputs": [
        {
          "name": "_reserve",
          "type": "address"
        }
      ],
      "name": "getReserveTotalBorrows",
      "outputs": [
        {
          "name": "",
          "type": "uint256"
        }
      ],
      "payable": false,
      "stateMutability": "view",
      "type": "function"
    },
    {
      "constant": true,
      "inputs": [
        {
          "name": "_reserve",
          "type": "address"
        }
      ],
      "name": "getReserveTotalBorrowsStable",
      "outputs": [
        {
          "name": "",
          "type": "uint256"
        }
      ],
      "payable": false,
      "stateMutability": "view",
      "type": "function"
    },
    {
      "constant": true,
      "inputs": [
        {
          "name": "_reserve",
          "type": "address"
        }
      ],
      "name": "getReserveTotalBorrowsVariable",
      "outputs": [
        {
          "name": "",
          "type": "uint256"
        }
      ],
      "payable": false,
      "stateMutability": "view",
      "type": "function"
    },
    {
      "constant": true,
      "inputs": [
        {
          "name": "_reserve",
          "type": "address"
        }
      ],
      "name": "getReserveLiquidationThreshold",
      "outputs": [
        {
          "name": "",
          "type": "uint256"
        }
      ],
      "payable": false,
      "stateMutability": "view",
      "type": "function"
    },
    {
      "constant": true,
      "inputs": [
        {
          "name": "_reserve",
          "type": "address"
        }
      ],
      "name": "getReserveLiquidationBonus",
      "outputs": [
        {
          "name": "",
          "type": "uint256"
        }
      ],
      "payable": false,
      "stateMutability": "view",
      "type": "function"
    },
    {
      "constant": true,
      "inputs": [
        {
          "name": "_reserve",
          "type": "address"
        }
      ],
      "name": "getReserveCurrentVariableBorrowRate",
      "outputs": [
        {
          "name": "",
          "type": "uint256"
        }
      ],
      "payable": false,
      "stateMutability": "view",
      "type": "function"
    },
    {
      "constant": true,
      "inputs": [
        {
          "name": "_reserve",
          "type": "address"
        }
      ],
      "name": "getReserveCurrentStableBorrowRate",
      "outputs": [
        {
          "name": "",
          "type": "uint256"
        }
      ],
      "payable": false,
      "stateMutability": "view",
      "type": "function"
    },
    {
      "constant": true,
      "inputs": [
        {
          "name": "_reserve",
          "type": "address"
        }
      ],
      "name": "getReserveCurrentAverageStableBorrowRate",
      "outputs": [
        {
          "name": "",
          "type": "uint256"
        }
      ],
      "payable": false,
      "stateMutability": "view",
      "type": "function"
    },
    {
      "constant": true,
      "inputs": [
        {
          "name": "_reserve",
          "type": "address"
        }
      ],
      "name": "getReserveCurrentLiquidityRate",
      "outputs": [
        {
          "name": "",
          "type": "uint256"
        }
      ],
      "payable": false,
      "stateMutability": "view",
      "type": "function"
    },
    {
      "constant": true,
      "inputs": [
        {
          "name": "_reserve",
          "type": "address"
        }
      ],
      "name": "getReserveLiquidityCumulativeIndex",
      "outputs": [
        {
          "name": "",
          "type": "uint256"
        }
      ],
      "payable": false,
      "stateMutability": "view",
      "type": "function"
    },
    {
      "constant": true,
      "inputs": [
        {
          "name": "_reserve",
          "type": "address"
        }
      ],
      "name": "getReserveVariableBorrowsCumulativeIndex",
      "outputs": [
        {
          "name": "",
          "type": "uint256"
        }
      ],
      "payable": false,
      "stateMutability": "view",
      "type": "function"
    },
    {
      "constant": true,
      "inputs": [
        {
          "name": "_reserve",
          "type": "address"
        }
      ],
      "name": "getReserveConfiguration",
      "outputs": [
        {
          "name": "",
          "type": "uint256"
        },
        {
          "name": "",
          "type": "uint256"
        },
        {
          "name": "",
          "type": "uint256"
        },
        {
          "name": "",
          "type": "bool"
        }
      ],
      "payable": false,
      "stateMutability": "view",
      "type": "function"
    },
    {
      "constant": true,
      "inputs": [
        {
          "name": "_reserve",
          "type": "address"
        }
      ],
      "name": "getReserveDecimals",
      "outputs": [
        {
          "name": "",
          "type": "uint256"
        }
      ],
      "payable": false,
      "stateMutability": "view",
      "type": "function"
    },
    {
      "constant": true,
      "inputs": [
        {
          "name": "_reserve",
          "type": "address"
        }
      ],
      "name": "isReserveBorrowingEnabled",
      "outputs": [
        {
          "name": "",
          "type": "bool"
        }
      ],
      "payable": false,
      "stateMutability": "view",
      "type": "function"
    },
    {
      "constant": true,
      "inputs": [
        {
          "name": "_reserve",
          "type": "address"
        }
      ],
      "name": "isReserveUsageAsCollateralEnabled",
      "outputs": [
        {
          "name": "",
          "type": "bool"
        }
      ],
      "payable": false,
      "stateMutability": "view",
      "type": "function"
    },
    {
      "constant": true,
      "inputs": [
        {
          "name": "_reserve",
          "type": "address"
        }
      ],
      "name": "getReserveIsStableBorrowRateEnabled",
      "outputs": [
        {
          "name": "",
          "type": "bool"
        }
      ],
      "payable": false,
      "stateMutability": "view",
      "type": "function"
    },
    {
      "constant": true,
      "inputs": [
        {
          "name": "_reserve",
          "type": "address"
        }
      ],
      "name": "getReserveIsActive",
      "outputs": [
        {
          "name": "",
          "type": "bool"
        }
      ],
      "payable": false,
      "stateMutability": "view",
      "type": "function"
    },
    {
      "constant": true,
      "inputs": [
        {
          "name": "_reserve",
          "type": "address"
        }
      ],
      "name": "getReserveIsFreezed",
      "outputs": [
        {
          "name": "",
          "type": "bool"
        }
      ],
      "payable": false,
      "stateMutability": "view",
      "type": "function"
    },
    {
      "constant": true,
      "inputs": [
        {
          "name": "_reserve",
          "type": "address"
        }
      ],
      "name": "getReserveLastUpdate",
      "outputs": [
        {
          "name": "timestamp",
          "type": "uint40"
        }
      ],
      "payable": false,
      "stateMutability": "view",
      "type": "function"
    },
    {
      "constant": true,
      "inputs": [
        {
          "name": "_reserve",
          "type": "address"
        }
      ],
      "name": "getReserveUtilizationRate",
      "outputs": [
        {
          "name": "",
          "type": "uint256"
        }
      ],
      "payable": false,
      "stateMutability": "view",
      "type": "function"
    },
    {
      "constant": true,
      "inputs": [],
      "name": "getReserves",
      "outputs": [
        {
          "name": "",
          "type": "address[]"
        }
      ],
      "payable": false,
      "stateMutability": "view",
      "type": "function"
    },
    {
      "constant": true,
      "inputs": [
        {
          "name": "_reserve",
          "type": "address"
        },
        {
          "name": "_user",
          "type": "address"
        }
      ],
      "name": "isUserUseReserveAsCollateralEnabled",
      "outputs": [
        {
          "name": "",
          "type": "bool"
        }
      ],
      "payable": false,
      "stateMutability": "view",
      "type": "function"
    },
    {
      "constant": true,
      "inputs": [
        {
          "name": "_reserve",
          "type": "address"
        },
        {
          "name": "_user",
          "type": "address"
        }
      ],
      "name": "getUserOriginationFee",
      "outputs": [
        {
          "name": "",
          "type": "uint256"
        }
      ],
      "payable": false,
      "stateMutability": "view",
      "type": "function"
    },
    {
      "constant": true,
      "inputs": [
        {
          "name": "_reserve",
          "type": "address"
        },
        {
          "name": "_user",
          "type": "address"
        }
      ],
      "name": "getUserCurrentBorrowRateMode",
      "outputs": [
        {
          "name": "",
          "type": "uint8"
        }
      ],
      "payable": false,
      "stateMutability": "view",
      "type": "function"
    },
    {
      "constant": true,
      "inputs": [
        {
          "name": "_reserve",
          "type": "address"
        },
        {
          "name": "_user",
          "type": "address"
        }
      ],
      "name": "getUserCurrentStableBorrowRate",
      "outputs": [
        {
          "name": "",
          "type": "uint256"
        }
      ],
      "payable": false,
      "stateMutability": "view",
      "type": "function"
    },
    {
      "constant": true,
      "inputs": [
        {
          "name": "_reserve",
          "type": "address"
        },
        {
          "name": "_user",
          "type": "address"
        }
      ],
      "name": "getUserBorrowBalances",
      "outputs": [
        {
          "name": "",
          "type": "uint256"
        },
        {
          "name": "",
          "type": "uint256"
        },
        {
          "name": "",
          "type": "uint256"
        }
      ],
      "payable": false,
      "stateMutability": "view",
      "type": "function"
    },
    {
      "constant": true,
      "inputs": [
        {
          "name": "_reserve",
          "type": "address"
        },
        {
          "name": "_user",
          "type": "address"
        }
      ],
      "name": "getUserVariableBorrowCumulativeIndex",
      "outputs": [
        {
          "name": "",
          "type": "uint256"
        }
      ],
      "payable": false,
      "stateMutability": "view",
      "type": "function"
    },
    {
      "constant": true,
      "inputs": [
        {
          "name": "_reserve",
          "type": "address"
        },
        {
          "name": "_user",
          "type": "address"
        }
      ],
      "name": "getUserLastUpdate",
      "outputs": [
        {
          "name": "timestamp",
          "type": "uint256"
        }
      ],
      "payable": false,
      "stateMutability": "view",
      "type": "function"
    },
    {
      "constant": false,
      "inputs": [],
      "name": "refreshConfiguration",
      "outputs": [],
      "payable": false,
      "stateMutability": "nonpayable",
      "type": "function"
    },
    {
      "constant": false,
      "inputs": [
        {
          "name": "_reserve",
          "type": "address"
        },
        {
          "name": "_aTokenAddress",
          "type": "address"
        },
        {
          "name": "_decimals",
          "type": "uint256"
        },
        {
          "name": "_interestRateStrategyAddress",
          "type": "address"
        }
      ],
      "name": "initReserve",
      "outputs": [],
      "payable": false,
      "stateMutability": "nonpayable",
      "type": "function"
    },
    {
      "constant": false,
      "inputs": [
        {
          "name": "_reserveToRemove",
          "type": "address"
        }
      ],
      "name": "removeLastAddedReserve",
      "outputs": [],
      "payable": false,
      "stateMutability": "nonpayable",
      "type": "function"
    },
    {
      "constant": false,
      "inputs": [
        {
          "name": "_reserve",
          "type": "address"
        },
        {
          "name": "_rateStrategyAddress",
          "type": "address"
        }
      ],
      "name": "setReserveInterestRateStrategyAddress",
      "outputs": [],
      "payable": false,
      "stateMutability": "nonpayable",
      "type": "function"
    },
    {
      "constant": false,
      "inputs": [
        {
          "name": "_reserve",
          "type": "address"
        },
        {
          "name": "_stableBorrowRateEnabled",
          "type": "bool"
        }
      ],
      "name": "enableBorrowingOnReserve",
      "outputs": [],
      "payable": false,
      "stateMutability": "nonpayable",
      "type": "function"
    },
    {
      "constant": false,
      "inputs": [
        {
          "name": "_reserve",
          "type": "address"
        }
      ],
      "name": "disableBorrowingOnReserve",
      "outputs": [],
      "payable": false,
      "stateMutability": "nonpayable",
      "type": "function"
    },
    {
      "constant": false,
      "inputs": [
        {
          "name": "_reserve",
          "type": "address"
        },
        {
          "name": "_baseLTVasCollateral",
          "type": "uint256"
        },
        {
          "name": "_liquidationThreshold",
          "type": "uint256"
        },
        {
          "name": "_liquidationBonus",
          "type": "uint256"
        }
      ],
      "name": "enableReserveAsCollateral",
      "outputs": [],
      "payable": false,
      "stateMutability": "nonpayable",
      "type": "function"
    },
    {
      "constant": false,
      "inputs": [
        {
          "name": "_reserve",
          "type": "address"
        }
      ],
      "name": "disableReserveAsCollateral",
      "outputs": [],
      "payable": false,
      "stateMutability": "nonpayable",
      "type": "function"
    },
    {
      "constant": false,
      "inputs": [
        {
          "name": "_reserve",
          "type": "address"
        }
      ],
      "name": "enableReserveStableBorrowRate",
      "outputs": [],
      "payable": false,
      "stateMutability": "nonpayable",
      "type": "function"
    },
    {
      "constant": false,
      "inputs": [
        {
          "name": "_reserve",
          "type": "address"
        }
      ],
      "name": "disableReserveStableBorrowRate",
      "outputs": [],
      "payable": false,
      "stateMutability": "nonpayable",
      "type": "function"
    },
    {
      "constant": false,
      "inputs": [
        {
          "name": "_reserve",
          "type": "address"
        }
      ],
      "name": "activateReserve",
      "outputs": [],
      "payable": false,
      "stateMutability": "nonpayable",
      "type": "function"
    },
    {
      "constant": false,
      "inputs": [
        {
          "name": "_reserve",
          "type": "address"
        }
      ],
      "name": "deactivateReserve",
      "outputs": [],
      "payable": false,
      "stateMutability": "nonpayable",
      "type": "function"
    },
    {
      "constant": false,
      "inputs": [
        {
          "name": "_reserve",
          "type": "address"
        }
      ],
      "name": "freezeReserve",
      "outputs": [],
      "payable": false,
      "stateMutability": "nonpayable",
      "type": "function"
    },
    {
      "constant": false,
      "inputs": [
        {
          "name": "_reserve",
          "type": "address"
        }
      ],
      "name": "unfreezeReserve",
      "outputs": [],
      "payable": false,
      "stateMutability": "nonpayable",
      "type": "function"
    },
    {
      "constant": false,
      "inputs": [
        {
          "name": "_reserve",
          "type": "address"
        },
        {
          "name": "_ltv",
          "type": "uint256"
        }
      ],
      "name": "setReserveBaseLTVasCollateral",
      "outputs": [],
      "payable": false,
      "stateMutability": "nonpayable",
      "type": "function"
    },
    {
      "constant": false,
      "inputs": [
        {
          "name": "_reserve",
          "type": "address"
        },
        {
          "name": "_threshold",
          "type": "uint256"
        }
      ],
      "name": "setReserveLiquidationThreshold",
      "outputs": [],
      "payable": false,
      "stateMutability": "nonpayable",
      "type": "function"
    },
    {
      "constant": false,
      "inputs": [
        {
          "name": "_reserve",
          "type": "address"
        },
        {
          "name": "_bonus",
          "type": "uint256"
        }
      ],
      "name": "setReserveLiquidationBonus",
      "outputs": [],
      "payable": false,
      "stateMutability": "nonpayable",
      "type": "function"
    },
    {
      "constant": false,
      "inputs": [
        {
          "name": "_reserve",
          "type": "address"
        },
        {
          "name": "_decimals",
          "type": "uint256"
        }
      ],
      "name": "setReserveDecimals",
      "outputs": [],
      "payable": false,
      "stateMutability": "nonpayable",
      "type": "function"
    }
  ],
  "bytecode": "0x6080604052600080553480156200001557600080fd5b50d380156200002357600080fd5b50d280156200003157600080fd5b5061a37b80620000426000396000f3fe60806040526004361061042d576000357c010000000000000000000000000000000000000000000000000000000090048063a2353fdc1161023b578063d15e005311610140578063e8ae2f5b116100c8578063f614831111610097578063f61483111461274e578063f6ea8d761461282d578063fa51854c146128cc578063fa93b2a514612963578063feab31ac146129f85761042d565b8063e8ae2f5b14612582578063eede87c1146125ed578063ef1f937314612664578063f054ab46146126cf5761042d565b8063dae4c4e71161010f578063dae4c4e7146122b4578063e10076ad1461231f578063e2174d86146123d7578063e240301914612484578063e6d18190146125035761042d565b8063d15e00531461209a578063d3ae26b314612119578063d466016f1461218a578063da12d96f146121ff5761042d565b8063bd7fd79a116101c3578063c540148e11610192578063c540148e14611e32578063c72c4d1014611eb1578063c76a6c9c14611f22578063c7d1423714611fa1578063d06e2ec11461202f5761042d565b8063bd7fd79a14611c4a578063bfacad8414611cc9578063c33cfd9014611d48578063c4d66de814611dc75761042d565b8063afcdbea31161020a578063afcdbea3146119b3578063b701d09314611a54578063b75d6f3414611ad3578063b8c0f74514611b3e578063bcd6ffa414611ba95761042d565b8063a2353fdc14611797578063a5bc826c14611816578063a8dc0f451461189f578063af825b071461190a5761042d565b80635cf2e656116103415780637aca76eb116102c9578063906c0a4111610298578063906c0a41146114c657806398bd4737146115455780639e3c4f3b146115c45780639e674848146116675780639fb8afcd146116ea5761042d565b80637aca76eb146112ef5780637f90fec51461135a57806388079d88146113d95780638f385c22146114585761042d565b806366d103f31161031057806366d103f314610fa757806368beb4d6146110465780636ae14416146111305780636fffab0c146111db57806370fb84f41461127a5761042d565b80635cf2e65614610de65780635fc526ff14610e695780636468108314610f0157806366bbd92814610f325761042d565b80633443a14b116103c457806345330a401161039357806345330a4014610b0d57806346bc0f2814610bc25780634a08accb14610c415780634f14460914610cc45780634fe7a6e514610d515761042d565b80633443a14b146108bb57806334b3beee1461093057806337ac6fe4146109db5780633e72a45414610aa25761042d565b806318f9bbae1161040057806318f9bbae146106925780631ca19f19146107155780631d2118f9146107c257806328fcf4d31461084d5761042d565b806305075d6e146104a55780630902f1ac146105285780630c7de4e9146105ae57806318a4dbca146105f3575b61044c3373ffffffffffffffffffffffffffffffffffffffff16612a97565b15156104a3576040517f08c379a000000000000000000000000000000000000000000000000000000000815260040180806020018281038252603681526020018061a0d86036913960400191505060405180910390fd5b005b3480156104b157600080fd5b50d380156104be57600080fd5b50d280156104cb57600080fd5b5061050e600480360360208110156104e257600080fd5b81019080803573ffffffffffffffffffffffffffffffffffffffff169060200190929190505050612aaa565b604051808215151515815260200191505060405180910390f35b34801561053457600080fd5b50d3801561054157600080fd5b50d2801561054e57600080fd5b50610557612b08565b6040518080602001828103825283818151815260200191508051906020019060200280838360005b8381101561059a57808201518184015260208101905061057f565b505050509050019250505060405180910390f35b3480156105ba57600080fd5b50d380156105c757600080fd5b50d280156105d457600080fd5b506105dd612b96565b6040518082815260200191505060405180910390f35b3480156105ff57600080fd5b50d3801561060c57600080fd5b50d2801561061957600080fd5b5061067c6004803603604081101561063057600080fd5b81019080803573ffffffffffffffffffffffffffffffffffffffff169060200190929190803573ffffffffffffffffffffffffffffffffffffffff169060200190929190505050612b9b565b6040518082815260200191505060405180910390f35b34801561069e57600080fd5b50d380156106ab57600080fd5b50d280156106b857600080fd5b506106fb600480360360208110156106cf57600080fd5b81019080803573ffffffffffffffffffffffffffffffffffffffff169060200190929190505050612ce0565b604051808215151515815260200191505060405180910390f35b34801561072157600080fd5b50d3801561072e57600080fd5b50d2801561073b57600080fd5b5061079e6004803603604081101561075257600080fd5b81019080803573ffffffffffffffffffffffffffffffffffffffff169060200190929190803573ffffffffffffffffffffffffffffffffffffffff169060200190929190505050612d3e565b604051808260028111156107ae57fe5b60ff16815260200191505060405180910390f35b3480156107ce57600080fd5b50d380156107db57600080fd5b50d280156107e857600080fd5b5061084b600480360360408110156107ff57600080fd5b81019080803573ffffffffffffffffffffffffffffffffffffffff169060200190929190803573ffffffffffffffffffffffffffffffffffffffff169060200190929190505050612df6565b005b6108b96004803603606081101561086357600080fd5b81019080803573ffffffffffffffffffffffffffffffffffffffff169060200190929190803573ffffffffffffffffffffffffffffffffffffffff16906020019092919080359060200190929190505050612fbf565b005b3480156108c757600080fd5b50d380156108d457600080fd5b50d280156108e157600080fd5b5061092e600480360360408110156108f857600080fd5b81019080803573ffffffffffffffffffffffffffffffffffffffff16906020019092919080359060200190929190505050613296565b005b34801561093c57600080fd5b50d3801561094957600080fd5b50d2801561095657600080fd5b506109996004803603602081101561096d57600080fd5b81019080803573ffffffffffffffffffffffffffffffffffffffff16906020019092919050505061342b565b604051808273ffffffffffffffffffffffffffffffffffffffff1673ffffffffffffffffffffffffffffffffffffffff16815260200191505060405180910390f35b3480156109e757600080fd5b50d380156109f457600080fd5b50d28015610a0157600080fd5b50610a85600480360360a0811015610a1857600080fd5b81019080803573ffffffffffffffffffffffffffffffffffffffff169060200190929190803573ffffffffffffffffffffffffffffffffffffffff1690602001909291908035906020019092919080359060200190929190803560ff16906020019092919050505061349c565b604051808381526020018281526020019250505060405180910390f35b348015610aae57600080fd5b50d38015610abb57600080fd5b50d28015610ac857600080fd5b50610b0b60048036036020811015610adf57600080fd5b81019080803573ffffffffffffffffffffffffffffffffffffffff16906020019092919050505061359c565b005b348015610b1957600080fd5b50d38015610b2657600080fd5b50d28015610b3357600080fd5b50610bc060048036036080811015610b4a57600080fd5b81019080803573ffffffffffffffffffffffffffffffffffffffff169060200190929190803573ffffffffffffffffffffffffffffffffffffffff16906020019092919080359060200190929190803573ffffffffffffffffffffffffffffffffffffffff169060200190929190505050613744565b005b348015610bce57600080fd5b50d38015610bdb57600080fd5b50d28015610be857600080fd5b50610c2b60048036036020811015610bff57600080fd5b81019080803573ffffffffffffffffffffffffffffffffffffffff1690602001909291905050506139ca565b6040518082815260200191505060405180910390f35b348015610c4d57600080fd5b50d38015610c5a57600080fd5b50d28015610c6757600080fd5b50610caa60048036036020811015610c7e57600080fd5b81019080803573ffffffffffffffffffffffffffffffffffffffff169060200190929190505050613a1b565b604051808215151515815260200191505060405180910390f35b348015610cd057600080fd5b50d38015610cdd57600080fd5b50d28015610cea57600080fd5b50610d2d60048036036020811015610d0157600080fd5b81019080803573ffffffffffffffffffffffffffffffffffffffff169060200190929190505050613a79565b604051808264ffffffffff1664ffffffffff16815260200191505060405180910390f35b348015610d5d57600080fd5b50d38015610d6a57600080fd5b50d28015610d7757600080fd5b50610da460048036036020811015610d8e57600080fd5b8101908080359060200190929190505050613adb565b604051808273ffffffffffffffffffffffffffffffffffffffff1673ffffffffffffffffffffffffffffffffffffffff16815260200191505060405180910390f35b348015610df257600080fd5b50d38015610dff57600080fd5b50d28015610e0c57600080fd5b50610e4f60048036036020811015610e2357600080fd5b81019080803573ffffffffffffffffffffffffffffffffffffffff169060200190929190505050613b19565b604051808215151515815260200191505060405180910390f35b348015610e7557600080fd5b50d38015610e8257600080fd5b50d28015610e8f57600080fd5b50610ed260048036036020811015610ea657600080fd5b81019080803573ffffffffffffffffffffffffffffffffffffffff169060200190929190505050613b77565b604051808581526020018481526020018381526020018215151515815260200194505050505060405180910390f35b348015610f0d57600080fd5b50d38015610f1a57600080fd5b50d28015610f2757600080fd5b50610f30613c07565b005b348015610f3e57600080fd5b50d38015610f4b57600080fd5b50d28015610f5857600080fd5b50610fa560048036036040811015610f6f57600080fd5b81019080803573ffffffffffffffffffffffffffffffffffffffff16906020019092919080359060200190929190505050613d55565b005b348015610fb357600080fd5b50d38015610fc057600080fd5b50d28015610fcd57600080fd5b5061103060048036036040811015610fe457600080fd5b81019080803573ffffffffffffffffffffffffffffffffffffffff169060200190929190803573ffffffffffffffffffffffffffffffffffffffff169060200190929190505050613eea565b6040518082815260200191505060405180910390f35b34801561105257600080fd5b50d3801561105f57600080fd5b50d2801561106c57600080fd5b5061112e600480360361012081101561108457600080fd5b81019080803573ffffffffffffffffffffffffffffffffffffffff169060200190929190803573ffffffffffffffffffffffffffffffffffffffff169060200190929190803573ffffffffffffffffffffffffffffffffffffffff1690602001909291908035906020019092919080359060200190929190803590602001909291908035906020019092919080359060200190929190803515159060200190929190505050613f91565b005b34801561113c57600080fd5b50d3801561114957600080fd5b50d2801561115657600080fd5b506111996004803603602081101561116d57600080fd5b81019080803573ffffffffffffffffffffffffffffffffffffffff169060200190929190505050614098565b604051808273ffffffffffffffffffffffffffffffffffffffff1673ffffffffffffffffffffffffffffffffffffffff16815260200191505060405180910390f35b3480156111e757600080fd5b50d380156111f457600080fd5b50d2801561120157600080fd5b506112646004803603604081101561121857600080fd5b81019080803573ffffffffffffffffffffffffffffffffffffffff169060200190929190803573ffffffffffffffffffffffffffffffffffffffff169060200190929190505050614109565b6040518082815260200191505060405180910390f35b34801561128657600080fd5b50d3801561129357600080fd5b50d280156112a057600080fd5b506112ed600480360360408110156112b757600080fd5b81019080803573ffffffffffffffffffffffffffffffffffffffff16906020019092919080359060200190929190505050614198565b005b3480156112fb57600080fd5b50d3801561130857600080fd5b50d2801561131557600080fd5b506113586004803603602081101561132c57600080fd5b81019080803573ffffffffffffffffffffffffffffffffffffffff16906020019092919050505061432d565b005b34801561136657600080fd5b50d3801561137357600080fd5b50d2801561138057600080fd5b506113c36004803603602081101561139757600080fd5b81019080803573ffffffffffffffffffffffffffffffffffffffff1690602001909291905050506144d5565b6040518082815260200191505060405180910390f35b3480156113e557600080fd5b50d380156113f257600080fd5b50d280156113ff57600080fd5b506114426004803603602081101561141657600080fd5b81019080803573ffffffffffffffffffffffffffffffffffffffff169060200190929190505050614526565b6040518082815260200191505060405180910390f35b6114c46004803603606081101561146e57600080fd5b81019080803573ffffffffffffffffffffffffffffffffffffffff16906020019092919080359060200190929190803573ffffffffffffffffffffffffffffffffffffffff169060200190929190505050614726565b005b3480156114d257600080fd5b50d380156114df57600080fd5b50d280156114ec57600080fd5b5061152f6004803603602081101561150357600080fd5b81019080803573ffffffffffffffffffffffffffffffffffffffff169060200190929190505050614985565b6040518082815260200191505060405180910390f35b34801561155157600080fd5b50d3801561155e57600080fd5b50d2801561156b57600080fd5b506115ae6004803603602081101561158257600080fd5b81019080803573ffffffffffffffffffffffffffffffffffffffff169060200190929190505050614aad565b6040518082815260200191505060405180910390f35b3480156115d057600080fd5b50d380156115dd57600080fd5b50d280156115ea57600080fd5b5061164d6004803603604081101561160157600080fd5b81019080803573ffffffffffffffffffffffffffffffffffffffff169060200190929190803573ffffffffffffffffffffffffffffffffffffffff169060200190929190505050614afe565b604051808215151515815260200191505060405180910390f35b34801561167357600080fd5b50d3801561168057600080fd5b50d2801561168d57600080fd5b506116d0600480360360208110156116a457600080fd5b81019080803573ffffffffffffffffffffffffffffffffffffffff169060200190929190505050614b9a565b604051808215151515815260200191505060405180910390f35b3480156116f657600080fd5b50d3801561170357600080fd5b50d2801561171057600080fd5b506117736004803603604081101561172757600080fd5b81019080803573ffffffffffffffffffffffffffffffffffffffff169060200190929190803573ffffffffffffffffffffffffffffffffffffffff169060200190929190505050614bf8565b60405180848152602001838152602001828152602001935050505060405180910390f35b3480156117a357600080fd5b50d380156117b057600080fd5b50d280156117bd57600080fd5b50611800600480360360208110156117d457600080fd5b81019080803573ffffffffffffffffffffffffffffffffffffffff169060200190929190505050614d1e565b6040518082815260200191505060405180910390f35b34801561182257600080fd5b50d3801561182f57600080fd5b50d2801561183c57600080fd5b5061189d6004803603608081101561185357600080fd5b81019080803573ffffffffffffffffffffffffffffffffffffffff169060200190929190803590602001909291908035906020019092919080359060200190929190505050614d6a565b005b3480156118ab57600080fd5b50d380156118b857600080fd5b50d280156118c557600080fd5b50611908600480360360208110156118dc57600080fd5b81019080803573ffffffffffffffffffffffffffffffffffffffff169060200190929190505050614f8f565b005b34801561191657600080fd5b50d3801561192357600080fd5b50d2801561193057600080fd5b5061199d6004803603606081101561194757600080fd5b81019080803573ffffffffffffffffffffffffffffffffffffffff169060200190929190803573ffffffffffffffffffffffffffffffffffffffff16906020019092919080359060200190929190505050615199565b6040518082815260200191505060405180910390f35b3480156119bf57600080fd5b50d380156119cc57600080fd5b50d280156119d957600080fd5b50611a52600480360360808110156119f057600080fd5b81019080803573ffffffffffffffffffffffffffffffffffffffff169060200190929190803573ffffffffffffffffffffffffffffffffffffffff169060200190929190803590602001909291908035151590602001909291905050506152ee565b005b348015611a6057600080fd5b50d38015611a6d57600080fd5b50d28015611a7a57600080fd5b50611abd60048036036020811015611a9157600080fd5b81019080803573ffffffffffffffffffffffffffffffffffffffff169060200190929190505050615402565b6040518082815260200191505060405180910390f35b348015611adf57600080fd5b50d38015611aec57600080fd5b50d28015611af957600080fd5b50611b3c60048036036020811015611b1057600080fd5b81019080803573ffffffffffffffffffffffffffffffffffffffff169060200190929190505050615453565b005b348015611b4a57600080fd5b50d38015611b5757600080fd5b50d28015611b6457600080fd5b50611ba760048036036020811015611b7b57600080fd5b81019080803573ffffffffffffffffffffffffffffffffffffffff16906020019092919050505061566a565b005b348015611bb557600080fd5b50d38015611bc257600080fd5b50d28015611bcf57600080fd5b50611c4860048036036080811015611be657600080fd5b81019080803573ffffffffffffffffffffffffffffffffffffffff169060200190929190803573ffffffffffffffffffffffffffffffffffffffff16906020019092919080359060200190929190803515159060200190929190505050615812565b005b348015611c5657600080fd5b50d38015611c6357600080fd5b50d28015611c7057600080fd5b50611cb360048036036020811015611c8757600080fd5b81019080803573ffffffffffffffffffffffffffffffffffffffff169060200190929190505050615926565b6040518082815260200191505060405180910390f35b348015611cd557600080fd5b50d38015611ce257600080fd5b50d28015611cef57600080fd5b50611d3260048036036020811015611d0657600080fd5b81019080803573ffffffffffffffffffffffffffffffffffffffff169060200190929190505050615977565b6040518082815260200191505060405180910390f35b348015611d5457600080fd5b50d38015611d6157600080fd5b50d28015611d6e57600080fd5b50611db160048036036020811015611d8557600080fd5b81019080803573ffffffffffffffffffffffffffffffffffffffff169060200190929190505050615a19565b6040518082815260200191505060405180910390f35b348015611dd357600080fd5b50d38015611de057600080fd5b50d28015611ded57600080fd5b50611e3060048036036020811015611e0457600080fd5b81019080803573ffffffffffffffffffffffffffffffffffffffff169060200190929190505050615a88565b005b348015611e3e57600080fd5b50d38015611e4b57600080fd5b50d28015611e5857600080fd5b50611e9b60048036036020811015611e6f57600080fd5b81019080803573ffffffffffffffffffffffffffffffffffffffff169060200190929190505050615bc3565b6040518082815260200191505060405180910390f35b348015611ebd57600080fd5b50d38015611eca57600080fd5b50d28015611ed757600080fd5b50611ee0615c14565b604051808273ffffffffffffffffffffffffffffffffffffffff1673ffffffffffffffffffffffffffffffffffffffff16815260200191505060405180910390f35b348015611f2e57600080fd5b50d38015611f3b57600080fd5b50d28015611f4857600080fd5b50611f8b60048036036020811015611f5f57600080fd5b81019080803573ffffffffffffffffffffffffffffffffffffffff169060200190929190505050615c3a565b6040518082815260200191505060405180910390f35b61202d60048036036080811015611fb757600080fd5b81019080803573ffffffffffffffffffffffffffffffffffffffff169060200190929190803573ffffffffffffffffffffffffffffffffffffffff16906020019092919080359060200190929190803573ffffffffffffffffffffffffffffffffffffffff169060200190929190505050615c8b565b005b34801561203b57600080fd5b50d3801561204857600080fd5b50d2801561205557600080fd5b506120986004803603602081101561206c57600080fd5b81019080803573ffffffffffffffffffffffffffffffffffffffff169060200190929190505050615f48565b005b3480156120a657600080fd5b50d380156120b357600080fd5b50d280156120c057600080fd5b50612103600480360360208110156120d757600080fd5b81019080803573ffffffffffffffffffffffffffffffffffffffff1690602001909291905050506165c6565b6040518082815260200191505060405180910390f35b34801561212557600080fd5b50d3801561213257600080fd5b50d2801561213f57600080fd5b5061214861661b565b604051808273ffffffffffffffffffffffffffffffffffffffff1673ffffffffffffffffffffffffffffffffffffffff16815260200191505060405180910390f35b34801561219657600080fd5b50d380156121a357600080fd5b50d280156121b057600080fd5b506121fd600480360360408110156121c757600080fd5b81019080803573ffffffffffffffffffffffffffffffffffffffff16906020019092919080359060200190929190505050616641565b005b34801561220b57600080fd5b50d3801561221857600080fd5b50d2801561222557600080fd5b506122b2600480360360c081101561223c57600080fd5b81019080803573ffffffffffffffffffffffffffffffffffffffff169060200190929190803573ffffffffffffffffffffffffffffffffffffffff1690602001909291908035906020019092919080359060200190929190803590602001909291908035151590602001909291905050506167d6565b005b3480156122c057600080fd5b50d380156122cd57600080fd5b50d280156122da57600080fd5b5061231d600480360360208110156122f157600080fd5b81019080803573ffffffffffffffffffffffffffffffffffffffff1690602001909291905050506168ac565b005b34801561232b57600080fd5b50d3801561233857600080fd5b50d2801561234557600080fd5b506123a86004803603604081101561235c57600080fd5b81019080803573ffffffffffffffffffffffffffffffffffffffff169060200190929190803573ffffffffffffffffffffffffffffffffffffffff169060200190929190505050616a54565b604051808581526020018481526020018381526020018215151515815260200194505050505060405180910390f35b3480156123e357600080fd5b50d380156123f057600080fd5b50d280156123fd57600080fd5b5061246a6004803603606081101561241457600080fd5b81019080803573ffffffffffffffffffffffffffffffffffffffff169060200190929190803573ffffffffffffffffffffffffffffffffffffffff16906020019092919080359060200190929190505050616ba4565b604051808215151515815260200191505060405180910390f35b34801561249057600080fd5b50d3801561249d57600080fd5b50d280156124aa57600080fd5b506124ed600480360360208110156124c157600080fd5b81019080803573ffffffffffffffffffffffffffffffffffffffff169060200190929190505050616cd7565b6040518082815260200191505060405180910390f35b34801561250f57600080fd5b50d3801561251c57600080fd5b50d2801561252957600080fd5b5061256c6004803603602081101561254057600080fd5b81019080803573ffffffffffffffffffffffffffffffffffffffff169060200190929190505050616e18565b6040518082815260200191505060405180910390f35b34801561258e57600080fd5b50d3801561259b57600080fd5b50d280156125a857600080fd5b506125eb600480360360208110156125bf57600080fd5b81019080803573ffffffffffffffffffffffffffffffffffffffff169060200190929190505050616e68565b005b3480156125f957600080fd5b50d3801561260657600080fd5b50d2801561261357600080fd5b506126626004803603604081101561262a57600080fd5b81019080803573ffffffffffffffffffffffffffffffffffffffff169060200190929190803515159060200190929190505050617072565b005b34801561267057600080fd5b50d3801561267d57600080fd5b50d2801561268a57600080fd5b506126cd600480360360208110156126a157600080fd5b81019080803573ffffffffffffffffffffffffffffffffffffffff169060200190929190505050617289565b005b3480156126db57600080fd5b50d380156126e857600080fd5b50d280156126f557600080fd5b506127386004803603602081101561270c57600080fd5b81019080803573ffffffffffffffffffffffffffffffffffffffff169060200190929190505050617431565b6040518082815260200191505060405180910390f35b34801561275a57600080fd5b50d3801561276757600080fd5b50d2801561277457600080fd5b50612802600480360360c081101561278b57600080fd5b81019080803573ffffffffffffffffffffffffffffffffffffffff169060200190929190803573ffffffffffffffffffffffffffffffffffffffff169060200190929190803590602001909291908035906020019092919080359060200190929190803560ff169060200190929190505050617482565b6040518083600281111561281257fe5b60ff1681526020018281526020019250505060405180910390f35b34801561283957600080fd5b50d3801561284657600080fd5b50d2801561285357600080fd5b506128b66004803603604081101561286a57600080fd5b81019080803573ffffffffffffffffffffffffffffffffffffffff169060200190929190803573ffffffffffffffffffffffffffffffffffffffff169060200190929190505050617571565b6040518082815260200191505060405180910390f35b3480156128d857600080fd5b50d380156128e557600080fd5b50d280156128f257600080fd5b506129616004803603606081101561290957600080fd5b81019080803573ffffffffffffffffffffffffffffffffffffffff169060200190929190803573ffffffffffffffffffffffffffffffffffffffff169060200190929190803515159060200190929190505050617600565b005b34801561296f57600080fd5b50d3801561297c57600080fd5b50d2801561298957600080fd5b506129f6600480360360608110156129a057600080fd5b81019080803573ffffffffffffffffffffffffffffffffffffffff169060200190929190803573ffffffffffffffffffffffffffffffffffffffff1690602001909291908035906020019092919050505061774a565b005b348015612a0457600080fd5b50d38015612a1157600080fd5b50d28015612a1e57600080fd5b50612a8160048036036040811015612a3557600080fd5b81019080803573ffffffffffffffffffffffffffffffffffffffff169060200190929190803573ffffffffffffffffffffffffffffffffffffffff169060200190929190505050617948565b6040518082815260200191505060405180910390f35b600080823b905060008111915050919050565b600080603660008473ffffffffffffffffffffffffffffffffffffffff1673ffffffffffffffffffffffffffffffffffffffff168152602001908152602001600020905080600d01601c9054906101000a900460ff16915050919050565b60606038805480602002602001604051908101604052809291908181526020018280548015612b8c57602002820191906000526020600020905b8160009054906101000a900473ffffffffffffffffffffffffffffffffffffffff1673ffffffffffffffffffffffffffffffffffffffff1681526020019060010190808311612b42575b5050505050905090565b600481565b600080603660008573ffffffffffffffffffffffffffffffffffffffff1673ffffffffffffffffffffffffffffffffffffffff168152602001908152602001600020600c0160009054906101000a900473ffffffffffffffffffffffffffffffffffffffff1690508073ffffffffffffffffffffffffffffffffffffffff166370a08231846040518263ffffffff167c0100000000000000000000000000000000000000000000000000000000028152600401808273ffffffffffffffffffffffffffffffffffffffff1673ffffffffffffffffffffffffffffffffffffffff16815260200191505060206040518083038186803b158015612c9c57600080fd5b505afa158015612cb0573d6000803e3d6000fd5b505050506040513d6020811015612cc657600080fd5b810190808051906020019092919050505091505092915050565b600080603660008473ffffffffffffffffffffffffffffffffffffffff1673ffffffffffffffffffffffffffffffffffffffff168152602001908152602001600020905080600d01601a9054906101000a900460ff16915050919050565b600080603760008473ffffffffffffffffffffffffffffffffffffffff1673ffffffffffffffffffffffffffffffffffffffff16815260200190815260200160002060008573ffffffffffffffffffffffffffffffffffffffff1673ffffffffffffffffffffffffffffffffffffffff1681526020019081526020016000209050600081600001541415612dd6576000915050612df0565b6000816003015411612de9576002612dec565b60015b9150505b92915050565b3373ffffffffffffffffffffffffffffffffffffffff16603560009054906101000a900473ffffffffffffffffffffffffffffffffffffffff1673ffffffffffffffffffffffffffffffffffffffff166385c858b16040518163ffffffff167c010000000000000000000000000000000000000000000000000000000002815260040160206040518083038186803b158015612e9157600080fd5b505afa158015612ea5573d6000803e3d6000fd5b505050506040513d6020811015612ebb57600080fd5b810190808051906020019092919050505073ffffffffffffffffffffffffffffffffffffffff16141515612f3a576040517f08c379a000000000000000000000000000000000000000000000000000000000815260040180806020018281038252603781526020018061a19e6037913960400191505060405180910390fd5b80603660008473ffffffffffffffffffffffffffffffffffffffff1673ffffffffffffffffffffffffffffffffffffffff168152602001908152602001600020600d0160006101000a81548173ffffffffffffffffffffffffffffffffffffffff021916908373ffffffffffffffffffffffffffffffffffffffff1602179055505050565b3373ffffffffffffffffffffffffffffffffffffffff16603460009054906101000a900473ffffffffffffffffffffffffffffffffffffffff1673ffffffffffffffffffffffffffffffffffffffff16141515613067576040517f08c379a000000000000000000000000000000000000000000000000000000000815260040180806020018281038252602a81526020018061a27a602a913960400191505060405180910390fd5b61306f6179d7565b73ffffffffffffffffffffffffffffffffffffffff168373ffffffffffffffffffffffffffffffffffffffff16141515613130576000341415156130fe576040517f08c379a000000000000000000000000000000000000000000000000000000000815260040180806020018281038252603281526020018061a2486032913960400191505060405180910390fd5b61312b8230838673ffffffffffffffffffffffffffffffffffffffff166179f3909392919063ffffffff16565b613291565b80341015151561318b576040517f08c379a000000000000000000000000000000000000000000000000000000000815260040180806020018281038252603581526020018061a0a36035913960400191505060405180910390fd5b803411156132905760006131a88234617b1590919063ffffffff16565b905060008373ffffffffffffffffffffffffffffffffffffffff168261c35090604051806000019050600060405180830381858888f193505050503d806000811461320f576040519150601f19603f3d011682016040523d82523d6000602084013e613214565b606091505b5050905080151561328d576040517f08c379a00000000000000000000000000000000000000000000000000000000081526004018080602001828103825260168152602001807f5472616e73666572206f6620545258206661696c65640000000000000000000081525060200191505060405180910390fd5b50505b5b505050565b3373ffffffffffffffffffffffffffffffffffffffff16603560009054906101000a900473ffffffffffffffffffffffffffffffffffffffff1673ffffffffffffffffffffffffffffffffffffffff166385c858b16040518163ffffffff167c010000000000000000000000000000000000000000000000000000000002815260040160206040518083038186803b15801561333157600080fd5b505afa158015613345573d6000803e3d6000fd5b505050506040513d602081101561335b57600080fd5b810190808051906020019092919050505073ffffffffffffffffffffffffffffffffffffffff161415156133da576040517f08c379a000000000000000000000000000000000000000000000000000000000815260040180806020018281038252603781526020018061a19e6037913960400191505060405180910390fd5b6000603660008473ffffffffffffffffffffffffffffffffffffffff1673ffffffffffffffffffffffffffffffffffffffff1681526020019081526020016000209050818160090181905550505050565b600080603660008473ffffffffffffffffffffffffffffffffffffffff1673ffffffffffffffffffffffffffffffffffffffff168152602001908152602001600020905080600c0160009054906101000a900473ffffffffffffffffffffffffffffffffffffffff16915050919050565b6000803373ffffffffffffffffffffffffffffffffffffffff16603460009054906101000a900473ffffffffffffffffffffffffffffffffffffffff1673ffffffffffffffffffffffffffffffffffffffff16141515613547576040517f08c379a000000000000000000000000000000000000000000000000000000000815260040180806020018281038252602a81526020018061a27a602a913960400191505060405180910390fd5b6000806135548989614bf8565b9250509150613567898984848b8a617b5f565b613575898989848a8a617bbc565b61358189600089617de2565b61358b8989618053565b819350935050509550959350505050565b3373ffffffffffffffffffffffffffffffffffffffff16603560009054906101000a900473ffffffffffffffffffffffffffffffffffffffff1673ffffffffffffffffffffffffffffffffffffffff166385c858b16040518163ffffffff167c010000000000000000000000000000000000000000000000000000000002815260040160206040518083038186803b15801561363757600080fd5b505afa15801561364b573d6000803e3d6000fd5b505050506040513d602081101561366157600080fd5b810190808051906020019092919050505073ffffffffffffffffffffffffffffffffffffffff161415156136e0576040517f08c379a000000000000000000000000000000000000000000000000000000000815260040180806020018281038252603781526020018061a19e6037913960400191505060405180910390fd5b6000603660008373ffffffffffffffffffffffffffffffffffffffff1673ffffffffffffffffffffffffffffffffffffffff1681526020019081526020016000209050600081600d01601c6101000a81548160ff0219169083151502179055505050565b3373ffffffffffffffffffffffffffffffffffffffff16603560009054906101000a900473ffffffffffffffffffffffffffffffffffffffff1673ffffffffffffffffffffffffffffffffffffffff166385c858b16040518163ffffffff167c010000000000000000000000000000000000000000000000000000000002815260040160206040518083038186803b1580156137df57600080fd5b505afa1580156137f3573d6000803e3d6000fd5b505050506040513d602081101561380957600080fd5b810190808051906020019092919050505073ffffffffffffffffffffffffffffffffffffffff16141515613888576040517f08c379a000000000000000000000000000000000000000000000000000000000815260040180806020018281038252603781526020018061a19e6037913960400191505060405180910390fd5b603660008573ffffffffffffffffffffffffffffffffffffffff1673ffffffffffffffffffffffffffffffffffffffff16815260200190815260200160002073__CoreLibrary___________________________6313769cd490918585856040518563ffffffff167c0100000000000000000000000000000000000000000000000000000000028152600401808581526020018473ffffffffffffffffffffffffffffffffffffffff1673ffffffffffffffffffffffffffffffffffffffff1681526020018381526020018273ffffffffffffffffffffffffffffffffffffffff1673ffffffffffffffffffffffffffffffffffffffff16815260200194505050505060006040518083038186803b1580156139a357600080fd5b505af41580156139b7573d6000803e3d6000fd5b505050506139c48461817c565b50505050565b600080603660008473ffffffffffffffffffffffffffffffffffffffff1673ffffffffffffffffffffffffffffffffffffffff16815260200190815260200160002090508060060154915050919050565b600080603660008473ffffffffffffffffffffffffffffffffffffffff1673ffffffffffffffffffffffffffffffffffffffff168152602001908152602001600020905080600d01601d9054906101000a900460ff16915050919050565b600080603660008473ffffffffffffffffffffffffffffffffffffffff1673ffffffffffffffffffffffffffffffffffffffff168152602001908152602001600020905080600d0160149054906101000a900464ffffffffff16915050919050565b603881815481101515613aea57fe5b906000526020600020016000915054906101000a900473ffffffffffffffffffffffffffffffffffffffff1681565b600080603660008473ffffffffffffffffffffffffffffffffffffffff1673ffffffffffffffffffffffffffffffffffffffff168152602001908152602001600020905080600d0160199054906101000a900460ff16915050919050565b6000806000806000806000806000603660008b73ffffffffffffffffffffffffffffffffffffffff1673ffffffffffffffffffffffffffffffffffffffff168152602001908152602001600020905080600b01549450806008015493508060090154925080600d01601a9054906101000a900460ff16915084848484985098509850985050505050509193509193565b3373ffffffffffffffffffffffffffffffffffffffff16603560009054906101000a900473ffffffffffffffffffffffffffffffffffffffff1673ffffffffffffffffffffffffffffffffffffffff166385c858b16040518163ffffffff167c010000000000000000000000000000000000000000000000000000000002815260040160206040518083038186803b158015613ca257600080fd5b505afa158015613cb6573d6000803e3d6000fd5b505050506040513d6020811015613ccc57600080fd5b810190808051906020019092919050505073ffffffffffffffffffffffffffffffffffffffff16141515613d4b576040517f08c379a000000000000000000000000000000000000000000000000000000000815260040180806020018281038252603781526020018061a19e6037913960400191505060405180910390fd5b613d53618286565b565b3373ffffffffffffffffffffffffffffffffffffffff16603560009054906101000a900473ffffffffffffffffffffffffffffffffffffffff1673ffffffffffffffffffffffffffffffffffffffff166385c858b16040518163ffffffff167c010000000000000000000000000000000000000000000000000000000002815260040160206040518083038186803b158015613df057600080fd5b505afa158015613e04573d6000803e3d6000fd5b505050506040513d6020811015613e1a57600080fd5b810190808051906020019092919050505073ffffffffffffffffffffffffffffffffffffffff16141515613e99576040517f08c379a000000000000000000000000000000000000000000000000000000000815260040180806020018281038252603781526020018061a19e6037913960400191505060405180910390fd5b6000603660008473ffffffffffffffffffffffffffffffffffffffff1673ffffffffffffffffffffffffffffffffffffffff16815260200190815260200160002090508181600b0181905550505050565b600080603760008473ffffffffffffffffffffffffffffffffffffffff1673ffffffffffffffffffffffffffffffffffffffff16815260200190815260200160002060008573ffffffffffffffffffffffffffffffffffffffff1673ffffffffffffffffffffffffffffffffffffffff16815260200190815260200160002090508060040160009054906101000a900464ffffffffff1664ffffffffff1691505092915050565b3373ffffffffffffffffffffffffffffffffffffffff16603460009054906101000a900473ffffffffffffffffffffffffffffffffffffffff1673ffffffffffffffffffffffffffffffffffffffff16141515614039576040517f08c379a000000000000000000000000000000000000000000000000000000000815260040180806020018281038252602a81526020018061a27a602a913960400191505060405180910390fd5b61404589888885618387565b61404e886184e7565b61405b8988888786618531565b61406789876000617de2565b80151561408d5761408c88600061408786896186b190919063ffffffff16565b617de2565b5b505050505050505050565b600080603660008473ffffffffffffffffffffffffffffffffffffffff1673ffffffffffffffffffffffffffffffffffffffff168152602001908152602001600020905080600d0160009054906101000a900473ffffffffffffffffffffffffffffffffffffffff16915050919050565b600080603760008473ffffffffffffffffffffffffffffffffffffffff1673ffffffffffffffffffffffffffffffffffffffff16815260200190815260200160002060008573ffffffffffffffffffffffffffffffffffffffff1673ffffffffffffffffffffffffffffffffffffffff1681526020019081526020016000209050806003015491505092915050565b3373ffffffffffffffffffffffffffffffffffffffff16603560009054906101000a900473ffffffffffffffffffffffffffffffffffffffff1673ffffffffffffffffffffffffffffffffffffffff166385c858b16040518163ffffffff167c010000000000000000000000000000000000000000000000000000000002815260040160206040518083038186803b15801561423357600080fd5b505afa158015614247573d6000803e3d6000fd5b505050506040513d602081101561425d57600080fd5b810190808051906020019092919050505073ffffffffffffffffffffffffffffffffffffffff161415156142dc576040517f08c379a000000000000000000000000000000000000000000000000000000000815260040180806020018281038252603781526020018061a19e6037913960400191505060405180910390fd5b6000603660008473ffffffffffffffffffffffffffffffffffffffff1673ffffffffffffffffffffffffffffffffffffffff16815260200190815260200160002090508181600a0181905550505050565b3373ffffffffffffffffffffffffffffffffffffffff16603560009054906101000a900473ffffffffffffffffffffffffffffffffffffffff1673ffffffffffffffffffffffffffffffffffffffff166385c858b16040518163ffffffff167c010000000000000000000000000000000000000000000000000000000002815260040160206040518083038186803b1580156143c857600080fd5b505afa1580156143dc573d6000803e3d6000fd5b505050506040513d60208110156143f257600080fd5b810190808051906020019092919050505073ffffffffffffffffffffffffffffffffffffffff16141515614471576040517f08c379a000000000000000000000000000000000000000000000000000000000815260040180806020018281038252603781526020018061a19e6037913960400191505060405180910390fd5b6000603660008373ffffffffffffffffffffffffffffffffffffffff1673ffffffffffffffffffffffffffffffffffffffff1681526020019081526020016000209050600181600d01601d6101000a81548160ff0219169083151502179055505050565b600080603660008473ffffffffffffffffffffffffffffffffffffffff1673ffffffffffffffffffffffffffffffffffffffff16815260200190815260200160002090508060020154915050919050565b600080603660008473ffffffffffffffffffffffffffffffffffffffff1673ffffffffffffffffffffffffffffffffffffffff16815260200190815260200160002090506000603560009054906101000a900473ffffffffffffffffffffffffffffffffffffffff1673ffffffffffffffffffffffffffffffffffffffff16633618abba6040518163ffffffff167c010000000000000000000000000000000000000000000000000000000002815260040160206040518083038186803b1580156145f057600080fd5b505afa158015614604573d6000803e3d6000fd5b505050506040513d602081101561461a57600080fd5b81019080805190602001909291905050509050600082600501541415614717578073ffffffffffffffffffffffffffffffffffffffff1663bb85c0bb856040518263ffffffff167c0100000000000000000000000000000000000000000000000000000000028152600401808273ffffffffffffffffffffffffffffffffffffffff1673ffffffffffffffffffffffffffffffffffffffff16815260200191505060206040518083038186803b1580156146d357600080fd5b505afa1580156146e7573d6000803e3d6000fd5b505050506040513d60208110156146fd57600080fd5b810190808051906020019092919050505092505050614721565b8160050154925050505b919050565b3373ffffffffffffffffffffffffffffffffffffffff16603460009054906101000a900473ffffffffffffffffffffffffffffffffffffffff1673ffffffffffffffffffffffffffffffffffffffff161415156147ce576040517f08c379a000000000000000000000000000000000000000000000000000000000815260040180806020018281038252602a81526020018061a27a602a913960400191505060405180910390fd5b600081905060003414151561482e576040517f08c379a000000000000000000000000000000000000000000000000000000000815260040180806020018281038252603681526020018061a01d6036913960400191505060405180910390fd5b6148366179d7565b73ffffffffffffffffffffffffffffffffffffffff168473ffffffffffffffffffffffffffffffffffffffff1614151561489a5761489581848673ffffffffffffffffffffffffffffffffffffffff1661873b9092919063ffffffff16565b61497f565b60008173ffffffffffffffffffffffffffffffffffffffff168461c35090604051806000019050600060405180830381858888f193505050503d80600081146148ff576040519150601f19603f3d011682016040523d82523d6000602084013e614904565b606091505b5050905080151561497d576040517f08c379a00000000000000000000000000000000000000000000000000000000081526004018080602001828103825260168152602001807f5472616e73666572206f6620545258206661696c65640000000000000000000081525060200191505060405180910390fd5b505b50505050565b600080603660008473ffffffffffffffffffffffffffffffffffffffff1673ffffffffffffffffffffffffffffffffffffffff1681526020019081526020016000209050600081600401541415614a9f5780600d0160009054906101000a900473ffffffffffffffffffffffffffffffffffffffff1673ffffffffffffffffffffffffffffffffffffffff166334762ca56040518163ffffffff167c010000000000000000000000000000000000000000000000000000000002815260040160206040518083038186803b158015614a5c57600080fd5b505afa158015614a70573d6000803e3d6000fd5b505050506040513d6020811015614a8657600080fd5b8101908080519060200190929190505050915050614aa8565b80600401549150505b919050565b600080603660008473ffffffffffffffffffffffffffffffffffffffff1673ffffffffffffffffffffffffffffffffffffffff16815260200190815260200160002090508060030154915050919050565b600080603760008473ffffffffffffffffffffffffffffffffffffffff1673ffffffffffffffffffffffffffffffffffffffff16815260200190815260200160002060008573ffffffffffffffffffffffffffffffffffffffff1673ffffffffffffffffffffffffffffffffffffffff16815260200190815260200160002090508060040160059054906101000a900460ff1691505092915050565b600080603660008473ffffffffffffffffffffffffffffffffffffffff1673ffffffffffffffffffffffffffffffffffffffff168152602001908152602001600020905080600d01601b9054906101000a900460ff16915050919050565b600080600080603760008673ffffffffffffffffffffffffffffffffffffffff1673ffffffffffffffffffffffffffffffffffffffff16815260200190815260200160002060008773ffffffffffffffffffffffffffffffffffffffff1673ffffffffffffffffffffffffffffffffffffffff1681526020019081526020016000209050600081600001541415614ca357600080600082925081915080905093509350935050614d17565b6000816000015490506000614cf683603660008b73ffffffffffffffffffffffffffffffffffffffff1673ffffffffffffffffffffffffffffffffffffffff168152602001908152602001600020618828565b90508181614d0d8484617b1590919063ffffffff16565b9550955095505050505b9250925092565b6000603660008373ffffffffffffffffffffffffffffffffffffffff1673ffffffffffffffffffffffffffffffffffffffff168152602001908152602001600020600b01549050919050565b3373ffffffffffffffffffffffffffffffffffffffff16603560009054906101000a900473ffffffffffffffffffffffffffffffffffffffff1673ffffffffffffffffffffffffffffffffffffffff166385c858b16040518163ffffffff167c010000000000000000000000000000000000000000000000000000000002815260040160206040518083038186803b158015614e0557600080fd5b505afa158015614e19573d6000803e3d6000fd5b505050506040513d6020811015614e2f57600080fd5b810190808051906020019092919050505073ffffffffffffffffffffffffffffffffffffffff16141515614eae576040517f08c379a000000000000000000000000000000000000000000000000000000000815260040180806020018281038252603781526020018061a19e6037913960400191505060405180910390fd5b603660008573ffffffffffffffffffffffffffffffffffffffff1673ffffffffffffffffffffffffffffffffffffffff16815260200190815260200160002073__CoreLibrary___________________________6324ddc4e690918585856040518563ffffffff167c01000000000000000000000000000000000000000000000000000000000281526004018085815260200184815260200183815260200182815260200194505050505060006040518083038186803b158015614f7157600080fd5b505af4158015614f85573d6000803e3d6000fd5b5050505050505050565b3373ffffffffffffffffffffffffffffffffffffffff16603560009054906101000a900473ffffffffffffffffffffffffffffffffffffffff1673ffffffffffffffffffffffffffffffffffffffff166385c858b16040518163ffffffff167c010000000000000000000000000000000000000000000000000000000002815260040160206040518083038186803b15801561502a57600080fd5b505afa15801561503e573d6000803e3d6000fd5b505050506040513d602081101561505457600080fd5b810190808051906020019092919050505073ffffffffffffffffffffffffffffffffffffffff161415156150d3576040517f08c379a000000000000000000000000000000000000000000000000000000000815260040180806020018281038252603781526020018061a19e6037913960400191505060405180910390fd5b603660008273ffffffffffffffffffffffffffffffffffffffff1673ffffffffffffffffffffffffffffffffffffffff16815260200190815260200160002073__CoreLibrary___________________________63e5df56a690916040518263ffffffff167c01000000000000000000000000000000000000000000000000000000000281526004018082815260200191505060006040518083038186803b15801561517e57600080fd5b505af4158015615192573d6000803e3d6000fd5b5050505050565b60003373ffffffffffffffffffffffffffffffffffffffff16603460009054906101000a900473ffffffffffffffffffffffffffffffffffffffff1673ffffffffffffffffffffffffffffffffffffffff16141515615243576040517f08c379a000000000000000000000000000000000000000000000000000000000815260040180806020018281038252602a81526020018061a27a602a913960400191505060405180910390fd5b61524e84848461894e565b615259848484618a3a565b61526584600080617de2565b603760008473ffffffffffffffffffffffffffffffffffffffff1673ffffffffffffffffffffffffffffffffffffffff16815260200190815260200160002060008573ffffffffffffffffffffffffffffffffffffffff1673ffffffffffffffffffffffffffffffffffffffff1681526020019081526020016000206003015490509392505050565b3373ffffffffffffffffffffffffffffffffffffffff16603460009054906101000a900473ffffffffffffffffffffffffffffffffffffffff1673ffffffffffffffffffffffffffffffffffffffff16141515615396576040517f08c379a000000000000000000000000000000000000000000000000000000000815260040180806020018281038252602a81526020018061a27a602a913960400191505060405180910390fd5b6153dd603660008673ffffffffffffffffffffffffffffffffffffffff1673ffffffffffffffffffffffffffffffffffffffff168152602001908152602001600020618b55565b6153e984600084617de2565b80156153fc576153fb84846000617600565b5b50505050565b600080603660008473ffffffffffffffffffffffffffffffffffffffff1673ffffffffffffffffffffffffffffffffffffffff16815260200190815260200160002090508060070154915050919050565b3373ffffffffffffffffffffffffffffffffffffffff16603560009054906101000a900473ffffffffffffffffffffffffffffffffffffffff1673ffffffffffffffffffffffffffffffffffffffff166385c858b16040518163ffffffff167c010000000000000000000000000000000000000000000000000000000002815260040160206040518083038186803b1580156154ee57600080fd5b505afa158015615502573d6000803e3d6000fd5b505050506040513d602081101561551857600080fd5b810190808051906020019092919050505073ffffffffffffffffffffffffffffffffffffffff16141515615597576040517f08c379a000000000000000000000000000000000000000000000000000000000815260040180806020018281038252603781526020018061a19e6037913960400191505060405180910390fd5b6000603660008373ffffffffffffffffffffffffffffffffffffffff1673ffffffffffffffffffffffffffffffffffffffff1681526020019081526020016000209050600081600001541180156155f2575060008160070154115b1515615649576040517f08c379a000000000000000000000000000000000000000000000000000000000815260040180806020018281038252602481526020018061a1d56024913960400191505060405180910390fd5b600181600d01601c6101000a81548160ff0219169083151502179055505050565b3373ffffffffffffffffffffffffffffffffffffffff16603560009054906101000a900473ffffffffffffffffffffffffffffffffffffffff1673ffffffffffffffffffffffffffffffffffffffff166385c858b16040518163ffffffff167c010000000000000000000000000000000000000000000000000000000002815260040160206040518083038186803b15801561570557600080fd5b505afa158015615719573d6000803e3d6000fd5b505050506040513d602081101561572f57600080fd5b810190808051906020019092919050505073ffffffffffffffffffffffffffffffffffffffff161415156157ae576040517f08c379a000000000000000000000000000000000000000000000000000000000815260040180806020018281038252603781526020018061a19e6037913960400191505060405180910390fd5b6000603660008373ffffffffffffffffffffffffffffffffffffffff1673ffffffffffffffffffffffffffffffffffffffff1681526020019081526020016000209050600081600d01601b6101000a81548160ff0219169083151502179055505050565b3373ffffffffffffffffffffffffffffffffffffffff16603460009054906101000a900473ffffffffffffffffffffffffffffffffffffffff1673ffffffffffffffffffffffffffffffffffffffff161415156158ba576040517f08c379a000000000000000000000000000000000000000000000000000000000815260040180806020018281038252602a81526020018061a27a602a913960400191505060405180910390fd5b615901603660008673ffffffffffffffffffffffffffffffffffffffff1673ffffffffffffffffffffffffffffffffffffffff168152602001908152602001600020618b55565b61590d84836000617de2565b80156159205761591f84846001617600565b5b50505050565b600080603660008473ffffffffffffffffffffffffffffffffffffffff1673ffffffffffffffffffffffffffffffffffffffff16815260200190815260200160002090508060000154915050919050565b600080603660008473ffffffffffffffffffffffffffffffffffffffff1673ffffffffffffffffffffffffffffffffffffffff168152602001908152602001600020905060006159c682618bfe565b905060008114156159dc57600092505050615a14565b60006159e785616cd7565b9050615a0e6159ff83836186b190919063ffffffff16565b83618c2290919063ffffffff16565b93505050505b919050565b600080603660008473ffffffffffffffffffffffffffffffffffffffff1673ffffffffffffffffffffffffffffffffffffffff1681526020019081526020016000209050615a80615a6982618bfe565b615a7285616cd7565b6186b190919063ffffffff16565b915050919050565b6000615a92618c80565b9050600160009054906101000a900460ff1680615ab35750615ab2618c89565b5b80615abf575060005481115b1515615b16576040517f08c379a000000000000000000000000000000000000000000000000000000000815260040180806020018281038252602e81526020018061a21a602e913960400191505060405180910390fd5b6000600160009054906101000a900460ff161590508015615b535760018060006101000a81548160ff021916908315150217905550816000819055505b82603560006101000a81548173ffffffffffffffffffffffffffffffffffffffff021916908373ffffffffffffffffffffffffffffffffffffffff160217905550615b9c618286565b8015615bbe576000600160006101000a81548160ff0219169083151502179055505b505050565b600080603660008473ffffffffffffffffffffffffffffffffffffffff1673ffffffffffffffffffffffffffffffffffffffff16815260200190815260200160002090508060010154915050919050565b603560009054906101000a900473ffffffffffffffffffffffffffffffffffffffff1681565b600080603660008473ffffffffffffffffffffffffffffffffffffffff1673ffffffffffffffffffffffffffffffffffffffff168152602001908152602001600020905080600a0154915050919050565b3373ffffffffffffffffffffffffffffffffffffffff16603460009054906101000a900473ffffffffffffffffffffffffffffffffffffffff1673ffffffffffffffffffffffffffffffffffffffff16141515615d33576040517f08c379a000000000000000000000000000000000000000000000000000000000815260040180806020018281038252602a81526020018061a27a602a913960400191505060405180910390fd5b6000819050615d406179d7565b73ffffffffffffffffffffffffffffffffffffffff168573ffffffffffffffffffffffffffffffffffffffff16141515615e0157600034141515615dcf576040517f08c379a000000000000000000000000000000000000000000000000000000000815260040180806020018281038252605f81526020018061a2a4605f913960600191505060405180910390fd5b615dfc8482858873ffffffffffffffffffffffffffffffffffffffff166179f3909392919063ffffffff16565b615f41565b823410151515615e5c576040517f08c379a000000000000000000000000000000000000000000000000000000000815260040180806020018281038252603581526020018061a0a36035913960400191505060405180910390fd5b60008173ffffffffffffffffffffffffffffffffffffffff168461c35090604051806000019050600060405180830381858888f193505050503d8060008114615ec1576040519150601f19603f3d011682016040523d82523d6000602084013e615ec6565b606091505b50509050801515615f3f576040517f08c379a00000000000000000000000000000000000000000000000000000000081526004018080602001828103825260168152602001807f5472616e73666572206f6620545258206661696c65640000000000000000000081525060200191505060405180910390fd5b505b5050505050565b3373ffffffffffffffffffffffffffffffffffffffff16603560009054906101000a900473ffffffffffffffffffffffffffffffffffffffff1673ffffffffffffffffffffffffffffffffffffffff166385c858b16040518163ffffffff167c010000000000000000000000000000000000000000000000000000000002815260040160206040518083038186803b158015615fe357600080fd5b505afa158015615ff7573d6000803e3d6000fd5b505050506040513d602081101561600d57600080fd5b810190808051906020019092919050505073ffffffffffffffffffffffffffffffffffffffff1614151561608c576040517f08c379a000000000000000000000000000000000000000000000000000000000815260040180806020018281038252603781526020018061a19e6037913960400191505060405180910390fd5b600060386001603880549050038154811015156160a557fe5b9060005260206000200160009054906101000a900473ffffffffffffffffffffffffffffffffffffffff1690508173ffffffffffffffffffffffffffffffffffffffff168173ffffffffffffffffffffffffffffffffffffffff16141515616158576040517f08c379a000000000000000000000000000000000000000000000000000000000815260040180806020018281038252603d81526020018061a131603d913960400191505060405180910390fd5b600061616382616e18565b1415156161bb576040517f08c379a000000000000000000000000000000000000000000000000000000000815260040180806020018281038252603081526020018061a16e6030913960400191505060405180910390fd5b6000603660008373ffffffffffffffffffffffffffffffffffffffff1673ffffffffffffffffffffffffffffffffffffffff168152602001908152602001600020600d01601c6101000a81548160ff0219169083151502179055506000603660008373ffffffffffffffffffffffffffffffffffffffff1673ffffffffffffffffffffffffffffffffffffffff168152602001908152602001600020600c0160006101000a81548173ffffffffffffffffffffffffffffffffffffffff021916908373ffffffffffffffffffffffffffffffffffffffff1602179055506000603660008373ffffffffffffffffffffffffffffffffffffffff1673ffffffffffffffffffffffffffffffffffffffff168152602001908152602001600020600b01819055506000603660008373ffffffffffffffffffffffffffffffffffffffff1673ffffffffffffffffffffffffffffffffffffffff168152602001908152602001600020600001819055506000603660008373ffffffffffffffffffffffffffffffffffffffff1673ffffffffffffffffffffffffffffffffffffffff168152602001908152602001600020600701819055506000603660008373ffffffffffffffffffffffffffffffffffffffff1673ffffffffffffffffffffffffffffffffffffffff168152602001908152602001600020600d0160196101000a81548160ff0219169083151502179055506000603660008373ffffffffffffffffffffffffffffffffffffffff1673ffffffffffffffffffffffffffffffffffffffff168152602001908152602001600020600d01601a6101000a81548160ff0219169083151502179055506000603660008373ffffffffffffffffffffffffffffffffffffffff1673ffffffffffffffffffffffffffffffffffffffff168152602001908152602001600020600801819055506000603660008373ffffffffffffffffffffffffffffffffffffffff1673ffffffffffffffffffffffffffffffffffffffff168152602001908152602001600020600901819055506000603660008373ffffffffffffffffffffffffffffffffffffffff1673ffffffffffffffffffffffffffffffffffffffff168152602001908152602001600020600a01819055506000603660008373ffffffffffffffffffffffffffffffffffffffff1673ffffffffffffffffffffffffffffffffffffffff168152602001908152602001600020600d0160006101000a81548173ffffffffffffffffffffffffffffffffffffffff021916908373ffffffffffffffffffffffffffffffffffffffff1602179055506038805480151561658d57fe5b6001900381819060005260206000200160006101000a81549073ffffffffffffffffffffffffffffffffffffffff021916905590555050565b600080603660008473ffffffffffffffffffffffffffffffffffffffff1673ffffffffffffffffffffffffffffffffffffffff168152602001908152602001600020905061661381618c9a565b915050919050565b603460009054906101000a900473ffffffffffffffffffffffffffffffffffffffff1681565b3373ffffffffffffffffffffffffffffffffffffffff16603560009054906101000a900473ffffffffffffffffffffffffffffffffffffffff1673ffffffffffffffffffffffffffffffffffffffff166385c858b16040518163ffffffff167c010000000000000000000000000000000000000000000000000000000002815260040160206040518083038186803b1580156166dc57600080fd5b505afa1580156166f0573d6000803e3d6000fd5b505050506040513d602081101561670657600080fd5b810190808051906020019092919050505073ffffffffffffffffffffffffffffffffffffffff16141515616785576040517f08c379a000000000000000000000000000000000000000000000000000000000815260040180806020018281038252603781526020018061a19e6037913960400191505060405180910390fd5b6000603660008473ffffffffffffffffffffffffffffffffffffffff1673ffffffffffffffffffffffffffffffffffffffff1681526020019081526020016000209050818160080181905550505050565b3373ffffffffffffffffffffffffffffffffffffffff16603460009054906101000a900473ffffffffffffffffffffffffffffffffffffffff1673ffffffffffffffffffffffffffffffffffffffff1614151561687e576040517f08c379a000000000000000000000000000000000000000000000000000000000815260040180806020018281038252602a81526020018061a27a602a913960400191505060405180910390fd5b61688a86868685618ce1565b616898868686868686618e7f565b6168a486856000617de2565b505050505050565b3373ffffffffffffffffffffffffffffffffffffffff16603560009054906101000a900473ffffffffffffffffffffffffffffffffffffffff1673ffffffffffffffffffffffffffffffffffffffff166385c858b16040518163ffffffff167c010000000000000000000000000000000000000000000000000000000002815260040160206040518083038186803b15801561694757600080fd5b505afa15801561695b573d6000803e3d6000fd5b505050506040513d602081101561697157600080fd5b810190808051906020019092919050505073ffffffffffffffffffffffffffffffffffffffff161415156169f0576040517f08c379a000000000000000000000000000000000000000000000000000000000815260040180806020018281038252603781526020018061a19e6037913960400191505060405180910390fd5b6000603660008373ffffffffffffffffffffffffffffffffffffffff1673ffffffffffffffffffffffffffffffffffffffff1681526020019081526020016000209050600181600d01601b6101000a81548160ff0219169083151502179055505050565b6000806000806000603660008873ffffffffffffffffffffffffffffffffffffffff1673ffffffffffffffffffffffffffffffffffffffff16815260200190815260200160002090506000603760008873ffffffffffffffffffffffffffffffffffffffff1673ffffffffffffffffffffffffffffffffffffffff16815260200190815260200160002060008973ffffffffffffffffffffffffffffffffffffffff1673ffffffffffffffffffffffffffffffffffffffff16815260200190815260200160002090506000616b298989612b9b565b9050600082600001541415616b6457806000808460040160059054906101000a900460ff168292508191509650965096509650505050616b9b565b80616b78848461882890919063ffffffff16565b83600201548460040160059054906101000a900460ff1696509650965096505050505b92959194509250565b600080603660008673ffffffffffffffffffffffffffffffffffffffff1673ffffffffffffffffffffffffffffffffffffffff16815260200190815260200160002090506000603760008673ffffffffffffffffffffffffffffffffffffffff1673ffffffffffffffffffffffffffffffffffffffff16815260200190815260200160002060008773ffffffffffffffffffffffffffffffffffffffff1673ffffffffffffffffffffffffffffffffffffffff168152602001908152602001600020905081600d01601b9054906101000a900460ff161515616c8b57600092505050616cd0565b8060040160059054906101000a900460ff161580616cb8575081600d01601a9054906101000a900460ff16155b80616ccb5750616cc88686612b9b565b84115b925050505b9392505050565b60008060009050616ce66179d7565b73ffffffffffffffffffffffffffffffffffffffff168373ffffffffffffffffffffffffffffffffffffffff161415616d38573073ffffffffffffffffffffffffffffffffffffffff16319050616e0f565b8273ffffffffffffffffffffffffffffffffffffffff166370a08231306040518263ffffffff167c0100000000000000000000000000000000000000000000000000000000028152600401808273ffffffffffffffffffffffffffffffffffffffff1673ffffffffffffffffffffffffffffffffffffffff16815260200191505060206040518083038186803b158015616dd157600080fd5b505afa158015616de5573d6000803e3d6000fd5b505050506040513d6020811015616dfb57600080fd5b810190808051906020019092919050505090505b80915050919050565b6000616e61603660008473ffffffffffffffffffffffffffffffffffffffff1673ffffffffffffffffffffffffffffffffffffffff168152602001908152602001600020618bfe565b9050919050565b3373ffffffffffffffffffffffffffffffffffffffff16603560009054906101000a900473ffffffffffffffffffffffffffffffffffffffff1673ffffffffffffffffffffffffffffffffffffffff166385c858b16040518163ffffffff167c010000000000000000000000000000000000000000000000000000000002815260040160206040518083038186803b158015616f0357600080fd5b505afa158015616f17573d6000803e3d6000fd5b505050506040513d6020811015616f2d57600080fd5b810190808051906020019092919050505073ffffffffffffffffffffffffffffffffffffffff16141515616fac576040517f08c379a000000000000000000000000000000000000000000000000000000000815260040180806020018281038252603781526020018061a19e6037913960400191505060405180910390fd5b603660008273ffffffffffffffffffffffffffffffffffffffff1673ffffffffffffffffffffffffffffffffffffffff16815260200190815260200160002073__CoreLibrary___________________________6383c165a090916040518263ffffffff167c01000000000000000000000000000000000000000000000000000000000281526004018082815260200191505060006040518083038186803b15801561705757600080fd5b505af415801561706b573d6000803e3d6000fd5b5050505050565b3373ffffffffffffffffffffffffffffffffffffffff16603560009054906101000a900473ffffffffffffffffffffffffffffffffffffffff1673ffffffffffffffffffffffffffffffffffffffff166385c858b16040518163ffffffff167c010000000000000000000000000000000000000000000000000000000002815260040160206040518083038186803b15801561710d57600080fd5b505afa158015617121573d6000803e3d6000fd5b505050506040513d602081101561713757600080fd5b810190808051906020019092919050505073ffffffffffffffffffffffffffffffffffffffff161415156171b6576040517f08c379a000000000000000000000000000000000000000000000000000000000815260040180806020018281038252603781526020018061a19e6037913960400191505060405180910390fd5b603660008373ffffffffffffffffffffffffffffffffffffffff1673ffffffffffffffffffffffffffffffffffffffff16815260200190815260200160002073__CoreLibrary___________________________63f63babbe9091836040518363ffffffff167c010000000000000000000000000000000000000000000000000000000002815260040180838152602001821515151581526020019250505060006040518083038186803b15801561726d57600080fd5b505af4158015617281573d6000803e3d6000fd5b505050505050565b3373ffffffffffffffffffffffffffffffffffffffff16603560009054906101000a900473ffffffffffffffffffffffffffffffffffffffff1673ffffffffffffffffffffffffffffffffffffffff166385c858b16040518163ffffffff167c010000000000000000000000000000000000000000000000000000000002815260040160206040518083038186803b15801561732457600080fd5b505afa158015617338573d6000803e3d6000fd5b505050506040513d602081101561734e57600080fd5b810190808051906020019092919050505073ffffffffffffffffffffffffffffffffffffffff161415156173cd576040517f08c379a000000000000000000000000000000000000000000000000000000000815260040180806020018281038252603781526020018061a19e6037913960400191505060405180910390fd5b6000603660008373ffffffffffffffffffffffffffffffffffffffff1673ffffffffffffffffffffffffffffffffffffffff1681526020019081526020016000209050600081600d01601d6101000a81548160ff0219169083151502179055505050565b600080603660008473ffffffffffffffffffffffffffffffffffffffff1673ffffffffffffffffffffffffffffffffffffffff16815260200190815260200160002090508060090154915050919050565b6000803373ffffffffffffffffffffffffffffffffffffffff16603460009054906101000a900473ffffffffffffffffffffffffffffffffffffffff1673ffffffffffffffffffffffffffffffffffffffff1614151561752d576040517f08c379a000000000000000000000000000000000000000000000000000000000815260040180806020018281038252602a81526020018061a27a602a913960400191505060405180910390fd5b61753a8888888887618fe9565b6000617548898987876191d8565b905061755689600080617de2565b806175618a8a618053565b9250925050965096945050505050565b600080603760008473ffffffffffffffffffffffffffffffffffffffff1673ffffffffffffffffffffffffffffffffffffffff16815260200190815260200160002060008573ffffffffffffffffffffffffffffffffffffffff1673ffffffffffffffffffffffffffffffffffffffff1681526020019081526020016000209050806001015491505092915050565b3373ffffffffffffffffffffffffffffffffffffffff16603460009054906101000a900473ffffffffffffffffffffffffffffffffffffffff1673ffffffffffffffffffffffffffffffffffffffff161415156176a8576040517f08c379a000000000000000000000000000000000000000000000000000000000815260040180806020018281038252602a81526020018061a27a602a913960400191505060405180910390fd5b6000603760008473ffffffffffffffffffffffffffffffffffffffff1673ffffffffffffffffffffffffffffffffffffffff16815260200190815260200160002060008573ffffffffffffffffffffffffffffffffffffffff1673ffffffffffffffffffffffffffffffffffffffff1681526020019081526020016000209050818160040160056101000a81548160ff02191690831515021790555050505050565b3373ffffffffffffffffffffffffffffffffffffffff16603460009054906101000a900473ffffffffffffffffffffffffffffffffffffffff1673ffffffffffffffffffffffffffffffffffffffff161415156177f2576040517f08c379a000000000000000000000000000000000000000000000000000000000815260040180806020018281038252602a81526020018061a27a602a913960400191505060405180910390fd5b6177fa6179d7565b73ffffffffffffffffffffffffffffffffffffffff168373ffffffffffffffffffffffffffffffffffffffff1614151561785e5761785982828573ffffffffffffffffffffffffffffffffffffffff1661873b9092919063ffffffff16565b617943565b60008273ffffffffffffffffffffffffffffffffffffffff168261c35090604051806000019050600060405180830381858888f193505050503d80600081146178c3576040519150601f19603f3d011682016040523d82523d6000602084013e6178c8565b606091505b50509050801515617941576040517f08c379a00000000000000000000000000000000000000000000000000000000081526004018080602001828103825260168152602001807f5472616e73666572206f6620545258206661696c65640000000000000000000081525060200191505060405180910390fd5b505b505050565b600080603760008473ffffffffffffffffffffffffffffffffffffffff1673ffffffffffffffffffffffffffffffffffffffff16815260200190815260200160002060008573ffffffffffffffffffffffffffffffffffffffff1673ffffffffffffffffffffffffffffffffffffffff1681526020019081526020016000209050806002015491505092915050565b600073eeeeeeeeeeeeeeeeeeeeeeeeeeeeeeeeeeeeeeee905090565b617b0f848573ffffffffffffffffffffffffffffffffffffffff166323b872dd90507c010000000000000000000000000000000000000000000000000000000002858585604051602401808473ffffffffffffffffffffffffffffffffffffffff1673ffffffffffffffffffffffffffffffffffffffff1681526020018373ffffffffffffffffffffffffffffffffffffffff1673ffffffffffffffffffffffffffffffffffffffff1681526020018281526020019350505050604051602081830303815290604052907bffffffffffffffffffffffffffffffffffffffffffffffffffffffff19166020820180517bffffffffffffffffffffffffffffffffffffffffffffffffffffffff83818316178352505050506193c2565b50505050565b6000617b5783836040805190810160405280601e81526020017f536166654d6174683a207375627472616374696f6e206f766572666c6f770000815250619615565b905092915050565b617ba6603660008873ffffffffffffffffffffffffffffffffffffffff1673ffffffffffffffffffffffffffffffffffffffff168152602001908152602001600020618b55565b617bb48686868686866196d7565b505050505050565b6000603660008873ffffffffffffffffffffffffffffffffffffffff1673ffffffffffffffffffffffffffffffffffffffff16815260200190815260200160002090506000603760008873ffffffffffffffffffffffffffffffffffffffff1673ffffffffffffffffffffffffffffffffffffffff16815260200190815260200160002060008973ffffffffffffffffffffffffffffffffffffffff1673ffffffffffffffffffffffffffffffffffffffff168152602001908152602001600020905060016002811115617c8c57fe5b836002811115617c9857fe5b1415617cba578160050154816003018190555060008160010181905550617d63565b600280811115617cc657fe5b836002811115617cd257fe5b1415617cf4576000816003018190555081600701548160010181905550617d62565b6040517f08c379a00000000000000000000000000000000000000000000000000000000081526004018080602001828103825260188152602001807f496e76616c696420626f72726f772072617465206d6f6465000000000000000081525060200191505060405180910390fd5b5b617d8c85617d7e8884600001546186b190919063ffffffff16565b6186b190919063ffffffff16565b8160000181905550617dab8482600201546186b190919063ffffffff16565b8160020181905550428160040160006101000a81548164ffffffffff021916908364ffffffffff1602179055505050505050505050565b6000603660008573ffffffffffffffffffffffffffffffffffffffff1673ffffffffffffffffffffffffffffffffffffffff1681526020019081526020016000209050600080600083600d0160009054906101000a900473ffffffffffffffffffffffffffffffffffffffff1673ffffffffffffffffffffffffffffffffffffffff166357e37af088617e9888617e8a8b617e7c8e616cd7565b6186b190919063ffffffff16565b617b1590919063ffffffff16565b8760020154886003015489600601546040518663ffffffff167c0100000000000000000000000000000000000000000000000000000000028152600401808673ffffffffffffffffffffffffffffffffffffffff1673ffffffffffffffffffffffffffffffffffffffff1681526020018581526020018481526020018381526020018281526020019550505050505060606040518083038186803b158015617f3f57600080fd5b505afa158015617f53573d6000803e3d6000fd5b505050506040513d6060811015617f6957600080fd5b810190808051906020019092919080519060200190929190805190602001909291905050509250925092508284600101819055508184600501819055508084600401819055504284600d0160146101000a81548164ffffffffff021916908364ffffffffff1602179055508673ffffffffffffffffffffffffffffffffffffffff167f04e4f521f16fcfd987978b05504262c2a2db223844977aab000e5accedb2d72584848488600001548960070154604051808681526020018581526020018481526020018381526020018281526020019550505050505060405180910390a250505050505050565b6000806180608484612d3e565b90506000600281111561806f57fe5b81600281111561807b57fe5b141561808b576000915050618176565b6001600281111561809857fe5b8160028111156180a457fe5b146180f157603660008573ffffffffffffffffffffffffffffffffffffffff1673ffffffffffffffffffffffffffffffffffffffff16815260200190815260200160002060040154618172565b603760008473ffffffffffffffffffffffffffffffffffffffff1673ffffffffffffffffffffffffffffffffffffffff16815260200190815260200160002060008573ffffffffffffffffffffffffffffffffffffffff1673ffffffffffffffffffffffffffffffffffffffff168152602001908152602001600020600301545b9150505b92915050565b600080905060008090505b603880549050811015618213578273ffffffffffffffffffffffffffffffffffffffff166038828154811015156181ba57fe5b9060005260206000200160009054906101000a900473ffffffffffffffffffffffffffffffffffffffff1673ffffffffffffffffffffffffffffffffffffffff16141561820657600191505b8080600101915050618187565b508015156182825760388290806001815401808255809150509060018203906000526020600020016000909192909190916101000a81548173ffffffffffffffffffffffffffffffffffffffff021916908373ffffffffffffffffffffffffffffffffffffffff160217905550505b5050565b603560009054906101000a900473ffffffffffffffffffffffffffffffffffffffff1673ffffffffffffffffffffffffffffffffffffffff16630261bf8b6040518163ffffffff167c010000000000000000000000000000000000000000000000000000000002815260040160206040518083038186803b15801561830a57600080fd5b505afa15801561831e573d6000803e3d6000fd5b505050506040513d602081101561833457600080fd5b8101908080519060200190929190505050603460006101000a81548173ffffffffffffffffffffffffffffffffffffffff021916908373ffffffffffffffffffffffffffffffffffffffff160217905550565b6000603660008673ffffffffffffffffffffffffffffffffffffffff1673ffffffffffffffffffffffffffffffffffffffff16815260200190815260200160002090506000603760008673ffffffffffffffffffffffffffffffffffffffff1673ffffffffffffffffffffffffffffffffffffffff16815260200190815260200160002060008773ffffffffffffffffffffffffffffffffffffffff1673ffffffffffffffffffffffffffffffffffffffff168152602001908152602001600020905061845382618b55565b600061845f8787612d3e565b90506001600281111561846e57fe5b81600281111561847a57fe5b14156184b7576184998483600301548561992f9092919063ffffffff16565b6184b2858360030154856199da9092919063ffffffff16565b6184de565b6184ca8484619b7a90919063ffffffff16565b6184dd8584619b9d90919063ffffffff16565b5b50505050505050565b61852e603660008373ffffffffffffffffffffffffffffffffffffffff1673ffffffffffffffffffffffffffffffffffffffff168152602001908152602001600020618b55565b50565b6000603760008673ffffffffffffffffffffffffffffffffffffffff1673ffffffffffffffffffffffffffffffffffffffff16815260200190815260200160002060008773ffffffffffffffffffffffffffffffffffffffff1673ffffffffffffffffffffffffffffffffffffffff16815260200190815260200160002090506000603660008873ffffffffffffffffffffffffffffffffffffffff1673ffffffffffffffffffffffffffffffffffffffff168152602001908152602001600020905061861d8561860f8585600001546186b190919063ffffffff16565b617b1590919063ffffffff16565b826000018190555060028081111561863157fe5b61863b8888612d3e565b600281111561864657fe5b141561865a57806007015482600101819055505b60008411156186835761867a848360020154617b1590919063ffffffff16565b82600201819055505b428260040160006101000a81548164ffffffffff021916908364ffffffffff16021790555050505050505050565b6000808284019050838110151515618731576040517f08c379a000000000000000000000000000000000000000000000000000000000815260040180806020018281038252601b8152602001807f536166654d6174683a206164646974696f6e206f766572666c6f77000000000081525060200191505060405180910390fd5b8091505092915050565b618823838473ffffffffffffffffffffffffffffffffffffffff1663a9059cbb90507c0100000000000000000000000000000000000000000000000000000000028484604051602401808373ffffffffffffffffffffffffffffffffffffffff1673ffffffffffffffffffffffffffffffffffffffff16815260200182815260200192505050604051602081830303815290604052907bffffffffffffffffffffffffffffffffffffffffffffffffffffffff19166020820180517bffffffffffffffffffffffffffffffffffffffffffffffffffffffff83818316178352505050506193c2565b505050565b6000808360000154141561883f5760009050618948565b600061884e8460000154619c1f565b9050600080905060008090506000866003015411156188915761888a86600301548760040160009054906101000a900464ffffffffff16619c3f565b90506188e3565b6188e086600101546188d287600701546188c489600401548a600d0160149054906101000a900464ffffffffff16619c3f565b619caf90919063ffffffff16565b618c2290919063ffffffff16565b90505b6188fe6188f98285619caf90919063ffffffff16565b619d14565b9150856000015482141561894157428660040160009054906101000a900464ffffffffff1664ffffffffff161415156189405785600001549350505050618948565b5b8193505050505b92915050565b6000603660008573ffffffffffffffffffffffffffffffffffffffff1673ffffffffffffffffffffffffffffffffffffffff16815260200190815260200160002090506000603760008573ffffffffffffffffffffffffffffffffffffffff1673ffffffffffffffffffffffffffffffffffffffff16815260200190815260200160002060008673ffffffffffffffffffffffffffffffffffffffff1673ffffffffffffffffffffffffffffffffffffffff1681526020019081526020016000209050618a1a82618b55565b618a338382600301548461992f9092919063ffffffff16565b5050505050565b6000603760008473ffffffffffffffffffffffffffffffffffffffff1673ffffffffffffffffffffffffffffffffffffffff16815260200190815260200160002060008573ffffffffffffffffffffffffffffffffffffffff1673ffffffffffffffffffffffffffffffffffffffff16815260200190815260200160002090506000603660008673ffffffffffffffffffffffffffffffffffffffff1673ffffffffffffffffffffffffffffffffffffffff1681526020019081526020016000209050618b148383600001546186b190919063ffffffff16565b826000018190555080600501548260030181905550428260040160006101000a81548164ffffffffff021916908364ffffffffff1602179055505050505050565b6000618b6082618bfe565b90506000811115618bfa576000618b90836001015484600d0160149054906101000a900464ffffffffff16619d5b565b9050618ba9836000015482619caf90919063ffffffff16565b83600001819055506000618bd6846004015485600d0160149054906101000a900464ffffffffff16619c3f565b9050618bef846007015482619caf90919063ffffffff16565b846007018190555050505b5050565b6000618c1b826003015483600201546186b190919063ffffffff16565b9050919050565b600080600283811515618c3157fe5b049050618c7783618c69618c5a6b033b2e3c9fd0803ce800000088619ddb90919063ffffffff16565b846186b190919063ffffffff16565b619e6590919063ffffffff16565b91505092915050565b60006004905090565b600080303b90506000811491505090565b600080618cd68360000154618cc8856001015486600d0160149054906101000a900464ffffffffff16619d5b565b619caf90919063ffffffff16565b905080915050919050565b6000603660008673ffffffffffffffffffffffffffffffffffffffff1673ffffffffffffffffffffffffffffffffffffffff16815260200190815260200160002090506000603760008773ffffffffffffffffffffffffffffffffffffffff1673ffffffffffffffffffffffffffffffffffffffff16815260200190815260200160002060008673ffffffffffffffffffffffffffffffffffffffff1673ffffffffffffffffffffffffffffffffffffffff16815260200190815260200160002090506000618db08787612d3e565b9050618df9603660008973ffffffffffffffffffffffffffffffffffffffff1673ffffffffffffffffffffffffffffffffffffffff168152602001908152602001600020618b55565b60016002811115618e0657fe5b816002811115618e1257fe5b1415618e4f57618e318483600301548561992f9092919063ffffffff16565b618e4a858360030154856199da9092919063ffffffff16565b618e76565b618e628484619b7a90919063ffffffff16565b618e758584619b9d90919063ffffffff16565b5b50505050505050565b6000603660008873ffffffffffffffffffffffffffffffffffffffff1673ffffffffffffffffffffffffffffffffffffffff16815260200190815260200160002090506000603760008873ffffffffffffffffffffffffffffffffffffffff1673ffffffffffffffffffffffffffffffffffffffff16815260200190815260200160002060008973ffffffffffffffffffffffffffffffffffffffff1673ffffffffffffffffffffffffffffffffffffffff1681526020019081526020016000209050618f6b86618f5d8684600001546186b190919063ffffffff16565b617b1590919063ffffffff16565b8160000181905550816007015481600101819055508215618f9b5760008160030181905550600081600101819055505b618fb2858260020154617b1590919063ffffffff16565b8160020181905550428160040160006101000a81548164ffffffffff021916908364ffffffffff1602179055505050505050505050565b6000603660008773ffffffffffffffffffffffffffffffffffffffff1673ffffffffffffffffffffffffffffffffffffffff16815260200190815260200160002090506000603760008773ffffffffffffffffffffffffffffffffffffffff1673ffffffffffffffffffffffffffffffffffffffff16815260200190815260200160002060008873ffffffffffffffffffffffffffffffffffffffff1673ffffffffffffffffffffffffffffffffffffffff16815260200190815260200160002090506190b582618b55565b600160028111156190c257fe5b8360028111156190ce57fe5b141561910b576000816003015490506190f28682856199da9092919063ffffffff16565b6191058584619b7a90919063ffffffff16565b506191cf565b60028081111561911757fe5b83600281111561912357fe5b1415619160576000826005015490506191458684619b9d90919063ffffffff16565b61915a85828561992f9092919063ffffffff16565b506191ce565b6040517f08c379a000000000000000000000000000000000000000000000000000000000815260040180806020018281038252601a8152602001807f496e76616c69642072617465206d6f646520726563656976656400000000000081525060200191505060405180910390fd5b5b50505050505050565b600080603760008673ffffffffffffffffffffffffffffffffffffffff1673ffffffffffffffffffffffffffffffffffffffff16815260200190815260200160002060008773ffffffffffffffffffffffffffffffffffffffff1673ffffffffffffffffffffffffffffffffffffffff16815260200190815260200160002090506000603660008873ffffffffffffffffffffffffffffffffffffffff1673ffffffffffffffffffffffffffffffffffffffff168152602001908152602001600020905060008090506002808111156192ad57fe5b8560028111156192b957fe5b14156192df57600190508160050154836003018190555060008360010181905550619370565b600160028111156192ec57fe5b8560028111156192f857fe5b141561931e5760029050600083600301819055508160070154836001018190555061936f565b6040517f08c379a000000000000000000000000000000000000000000000000000000000815260040180806020018281038252602381526020018061a3036023913960400191505060405180910390fd5b5b6193878684600001546186b190919063ffffffff16565b8360000181905550428360040160006101000a81548164ffffffffff021916908364ffffffffff160217905550809350505050949350505050565b6193e18273ffffffffffffffffffffffffffffffffffffffff16612a97565b1515619455576040517f08c379a000000000000000000000000000000000000000000000000000000000815260040180806020018281038252601f8152602001807f5361666545524332303a2063616c6c20746f206e6f6e2d636f6e74726163740081525060200191505060405180910390fd5b600060608373ffffffffffffffffffffffffffffffffffffffff16836040518082805190602001908083835b6020831015156194a65780518252602082019150602081019050602083039250619481565b6001836020036101000a0380198251168184511680821785525050505050509050019150506000604051808303816000865af19150503d8060008114619508576040519150601f19603f3d011682016040523d82523d6000602084013e61950d565b606091505b5091509150811515619587576040517f08c379a00000000000000000000000000000000000000000000000000000000081526004018080602001828103825260208152602001807f5361666545524332303a206c6f772d6c6576656c2063616c6c206661696c656481525060200191505060405180910390fd5b60008151111561960f578080602001905160208110156195a657600080fd5b8101908080519060200190929190505050151561960e576040517f08c379a000000000000000000000000000000000000000000000000000000000815260040180806020018281038252602a81526020018061a326602a913960400191505060405180910390fd5b5b50505050565b600083831115829015156196c4576040517f08c379a00000000000000000000000000000000000000000000000000000000081526004018080602001828103825283818151815260200191508051906020019080838360005b8381101561968957808201518184015260208101905061966e565b50505050905090810190601f1680156196b65780820380516001836020036101000a031916815260200191505b509250505060405180910390fd5b5060008385039050809150509392505050565b60006196e38787612d3e565b90506000603660008973ffffffffffffffffffffffffffffffffffffffff1673ffffffffffffffffffffffffffffffffffffffff16815260200190815260200160002090506001600281111561973557fe5b82600281111561974157fe5b14156197e6576000603760008973ffffffffffffffffffffffffffffffffffffffff1673ffffffffffffffffffffffffffffffffffffffff16815260200190815260200160002060008a73ffffffffffffffffffffffffffffffffffffffff1673ffffffffffffffffffffffffffffffffffffffff16815260200190815260200160002090506197e0878260030154846199da9092919063ffffffff16565b50619819565b6002808111156197f257fe5b8260028111156197fe57fe5b1415619818576198178682619b9d90919063ffffffff16565b5b5b600061984085619832888a6186b190919063ffffffff16565b6186b190919063ffffffff16565b90506001600281111561984f57fe5b84600281111561985b57fe5b141561987f5761987a8183600501548461992f9092919063ffffffff16565b619924565b60028081111561988b57fe5b84600281111561989757fe5b14156198b5576198b08183619b7a90919063ffffffff16565b619923565b6040517f08c379a000000000000000000000000000000000000000000000000000000000815260040180806020018281038252601c8152602001807f496e76616c6964206e657720626f72726f772072617465206d6f64650000000081525060200191505060405180910390fd5b5b505050505050505050565b60008360020154905061994f8385600201546186b190919063ffffffff16565b846002018190555060006199748361996686619c1f565b619caf90919063ffffffff16565b90506000619997866006015461998985619c1f565b619caf90919063ffffffff16565b90506199ca6199a98760020154619c1f565b6199bc83856186b190919063ffffffff16565b618c2290919063ffffffff16565b8660060181905550505050505050565b81836002015410151515619a56576040517f08c379a000000000000000000000000000000000000000000000000000000000815260040180806020018281038252601a8152602001807f496e76616c696420616d6f756e7420746f20646563726561736500000000000081525060200191505060405180910390fd5b600083600201549050619a76838560020154617b1590919063ffffffff16565b8460020181905550600084600201541415619a9b576000846006018190555050619b75565b6000619ab883619aaa86619c1f565b619caf90919063ffffffff16565b90506000619adb8660060154619acd85619c1f565b619caf90919063ffffffff16565b9050818110151515619b38576040517f08c379a000000000000000000000000000000000000000000000000000000000815260040180806020018281038252602381526020018061a10e6023913960400191505060405180910390fd5b619b69619b488760020154619c1f565b619b5b8484617b1590919063ffffffff16565b618c2290919063ffffffff16565b86600601819055505050505b505050565b619b918183600301546186b190919063ffffffff16565b82600301819055505050565b80826003015410151515619bfc576040517f08c379a000000000000000000000000000000000000000000000000000000000815260040180806020018281038252605081526020018061a0536050913960600191505060405180910390fd5b619c13818360030154617b1590919063ffffffff16565b82600301819055505050565b6000619c38633b9aca0083619ddb90919063ffffffff16565b9050919050565b600080619c5c8364ffffffffff1642617b1590919063ffffffff16565b90506000619c776301e1338086619e6590919063ffffffff16565b9050619ca582619c97619c88619eaf565b846186b190919063ffffffff16565b619ec390919063ffffffff16565b9250505092915050565b6000619d0c6b033b2e3c9fd0803ce8000000619cfe619cd78587619ddb90919063ffffffff16565b60026b033b2e3c9fd0803ce8000000811515619cef57fe5b046186b190919063ffffffff16565b619e6590919063ffffffff16565b905092915050565b6000806002633b9aca00811515619d2757fe5b049050619d53633b9aca00619d4585846186b190919063ffffffff16565b619e6590919063ffffffff16565b915050919050565b600080619d788364ffffffffff1642617b1590919063ffffffff16565b90506000619da3619d8c6301e13380619c1f565b619d9584619c1f565b618c2290919063ffffffff16565b9050619dd1619db0619eaf565b619dc38388619caf90919063ffffffff16565b6186b190919063ffffffff16565b9250505092915050565b600080831415619dee5760009050619e5f565b60008284029050828482811515619e0157fe5b04141515619e5a576040517f08c379a000000000000000000000000000000000000000000000000000000000815260040180806020018281038252602181526020018061a1f96021913960400191505060405180910390fd5b809150505b92915050565b6000619ea783836040805190810160405280601a81526020017f536166654d6174683a206469766973696f6e206279207a65726f000000000000815250619f52565b905092915050565b60006b033b2e3c9fd0803ce8000000905090565b600080600283811515619ed257fe5b061415619eeb576b033b2e3c9fd0803ce8000000619eed565b825b9050600282811515619efb57fe5b0491505b600082141515619f4c57619f138384619caf565b92506000600283811515619f2357fe5b06141515619f3857619f358184619caf565b90505b600282811515619f4457fe5b049150619eff565b92915050565b60008083118290151561a000576040517f08c379a00000000000000000000000000000000000000000000000000000000081526004018080602001828103825283818151815260200191508051906020019080838360005b83811015619fc5578082015181840152602081019050619faa565b50505050905090810190601f168015619ff25780820380516001836020036101000a031916815260200191505b509250505060405180910390fd5b506000838581151561a00e57fe5b04905080915050939250505056fe466565206c69717569646174696f6e20646f6573206e6f74207265717569726520616e79207472616e73666572206f662076616c756554686520616d6f756e742074686174206973206265696e6720737562747261637465642066726f6d20746865207661726961626c6520746f74616c20626f72726f777320697320696e636f727265637454686520616d6f756e7420616e64207468652076616c75652073656e7420746f206465706f73697420646f206e6f74206d617463684f6e6c7920636f6e7472616374732063616e2073656e6420657468657220746f20746865204c656e64696e6720706f6f6c20636f726554686520616d6f756e747320746f20737562747261637420646f6e2774206d6174636852657365727665206265696e672072656d6f76656420697320646966666572656e74207468616e2074686520726573657276652072657175657374656443616e6e6f742072656d6f7665206120726573657276652077697468206c6971756964697479206465706f73697465645468652063616c6c6572206d7573742062652061206c656e64696e6720706f6f6c20636f6e666967757261746f7220636f6e74726163745265736572766520686173206e6f74206265656e20696e697469616c697a656420796574536166654d6174683a206d756c7469706c69636174696f6e206f766572666c6f77436f6e747261637420696e7374616e63652068617320616c7265616479206265656e20696e697469616c697a6564557365722069732073656e64696e672054525820616c6f6e67207769746820746865204552433230207472616e736665722e5468652063616c6c6572206d7573742062652061206c656e64696e6720706f6f6c20636f6e7472616374557365722069732073656e64696e672054525820616c6f6e67207769746820746865204552433230207472616e736665722e20436865636b207468652076616c756520617474726962757465206f6620746865207472616e73616374696f6e496e76616c696420696e7465726573742072617465206d6f64652072656365697665645361666545524332303a204552433230206f7065726174696f6e20646964206e6f742073756363656564a165627a7a72305820e868fa17a84ec3faceb496eebaa920c63e29bcbd9aa69f64245fc5536b5e053a0029",
  "source": "pragma solidity ^0.5.0;\n\nimport \"../libraries/openzeppelin-solidity/contracts/math/SafeMath.sol\";\nimport \"../libraries/openzeppelin-solidity/contracts/token/ERC20/SafeERC20.sol\";\nimport \"../libraries/openzeppelin-solidity/contracts/token/ERC20/ERC20.sol\";\nimport \"../libraries/openzeppelin-solidity/contracts/utils/Address.sol\";\nimport \"../libraries/openzeppelin-upgradeability/VersionedInitializable.sol\";\n\nimport \"../libraries/CoreLibrary.sol\";\nimport \"../configuration/LendingPoolAddressesProvider.sol\";\nimport \"../interfaces/ILendingRateOracle.sol\";\nimport \"../interfaces/IReserveInterestRateStrategy.sol\";\nimport \"../libraries/WadRayMath.sol\";\nimport \"../tokenization/AToken.sol\";\nimport \"../libraries/TrxAddressLib.sol\";\n\n/**\n* @title LendingPoolCore contract\n* @author Aave\n* @notice Holds the state of the lending pool and all the funds deposited\n* @dev NOTE: The core does not enforce security checks on the update of the state\n* (eg, updateStateOnBorrow() does not enforce that borrowed is enabled on the reserve).\n* The check that an action can be performed is a duty of the overlying LendingPool contract.\n**/\n\ncontract LendingPoolCore is VersionedInitializable {\n    using SafeMath for uint256;\n    using WadRayMath for uint256;\n    using CoreLibrary for CoreLibrary.ReserveData;\n    using CoreLibrary for CoreLibrary.UserReserveData;\n    using SafeERC20 for ERC20;\n    using Address for address payable;\n\n    /**\n    * @dev Emitted when the state of a reserve is updated\n    * @param reserve the address of the reserve\n    * @param liquidityRate the new liquidity rate\n    * @param stableBorrowRate the new stable borrow rate\n    * @param variableBorrowRate the new variable borrow rate\n    * @param liquidityIndex the new liquidity index\n    * @param variableBorrowIndex the new variable borrow index\n    **/\n    event ReserveUpdated(\n        address indexed reserve,\n        uint256 liquidityRate,\n        uint256 stableBorrowRate,\n        uint256 variableBorrowRate,\n        uint256 liquidityIndex,\n        uint256 variableBorrowIndex\n    );\n\n    address public lendingPoolAddress;\n\n    LendingPoolAddressesProvider public addressesProvider;\n\n    /**\n    * @dev only lending pools can use functions affected by this modifier\n    **/\n    modifier onlyLendingPool {\n        require(lendingPoolAddress == msg.sender, \"The caller must be a lending pool contract\");\n        _;\n    }\n\n    /**\n    * @dev only lending pools configurator can use functions affected by this modifier\n    **/\n    modifier onlyLendingPoolConfigurator {\n        require(\n            addressesProvider.getLendingPoolConfigurator() == msg.sender,\n            \"The caller must be a lending pool configurator contract\"\n        );\n        _;\n    }\n\n    mapping(address => CoreLibrary.ReserveData) internal reserves;\n    mapping(address => mapping(address => CoreLibrary.UserReserveData)) internal usersReserveData;\n\n    address[] public reservesList;\n\n    uint256 public constant CORE_REVISION = 0x4;\n\n    /**\n    * @dev returns the revision number of the contract\n    **/\n    function getRevision() internal pure returns (uint256) {\n        return CORE_REVISION;\n    }\n\n    /**\n    * @dev initializes the Core contract, invoked upon registration on the AddressesProvider\n    * @param _addressesProvider the addressesProvider contract\n    **/\n\n    function initialize(LendingPoolAddressesProvider _addressesProvider) public initializer {\n        addressesProvider = _addressesProvider;\n        refreshConfigInternal();\n    }\n\n    /**\n    * @dev updates the state of the core as a result of a deposit action\n    * @param _reserve the address of the reserve in which the deposit is happening\n    * @param _user the address of the the user depositing\n    * @param _amount the amount being deposited\n    * @param _isFirstDeposit true if the user is depositing for the first time\n    **/\n\n    function updateStateOnDeposit(\n        address _reserve,\n        address _user,\n        uint256 _amount,\n        bool _isFirstDeposit\n    ) external onlyLendingPool {\n        reserves[_reserve].updateCumulativeIndexes();\n        updateReserveInterestRatesAndTimestampInternal(_reserve, _amount, 0);\n\n        if (_isFirstDeposit) {\n            //if this is the first deposit of the user, we configure the deposit as enabled to be used as collateral\n            setUserUseReserveAsCollateral(_reserve, _user, true);\n        }\n    }\n\n    /**\n    * @dev updates the state of the core as a result of a redeem action\n    * @param _reserve the address of the reserve in which the redeem is happening\n    * @param _user the address of the the user redeeming\n    * @param _amountRedeemed the amount being redeemed\n    * @param _userRedeemedEverything true if the user is redeeming everything\n    **/\n    function updateStateOnRedeem(\n        address _reserve,\n        address _user,\n        uint256 _amountRedeemed,\n        bool _userRedeemedEverything\n    ) external onlyLendingPool {\n        //compound liquidity and variable borrow interests\n        reserves[_reserve].updateCumulativeIndexes();\n        updateReserveInterestRatesAndTimestampInternal(_reserve, 0, _amountRedeemed);\n\n        //if user redeemed everything the useReserveAsCollateral flag is reset\n        if (_userRedeemedEverything) {\n            setUserUseReserveAsCollateral(_reserve, _user, false);\n        }\n    }\n\n\n    /**\n    * @dev updates the state of the core as a consequence of a borrow action.\n    * @param _reserve the address of the reserve on which the user is borrowing\n    * @param _user the address of the borrower\n    * @param _amountBorrowed the new amount borrowed\n    * @param _borrowFee the fee on the amount borrowed\n    * @param _rateMode the borrow rate mode (stable, variable)\n    * @return the new borrow rate for the user\n    **/\n    function updateStateOnBorrow(\n        address _reserve,\n        address _user,\n        uint256 _amountBorrowed,\n        uint256 _borrowFee,\n        CoreLibrary.InterestRateMode _rateMode\n    ) external onlyLendingPool returns (uint256, uint256) {\n        // getting the previous borrow data of the user\n        (uint256 principalBorrowBalance, , uint256 balanceIncrease) = getUserBorrowBalances(\n            _reserve,\n            _user\n        );\n\n        updateReserveStateOnBorrowInternal(\n            _reserve,\n            _user,\n            principalBorrowBalance,\n            balanceIncrease,\n            _amountBorrowed,\n            _rateMode\n        );\n\n        updateUserStateOnBorrowInternal(\n            _reserve,\n            _user,\n            _amountBorrowed,\n            balanceIncrease,\n            _borrowFee,\n            _rateMode\n        );\n\n        updateReserveInterestRatesAndTimestampInternal(_reserve, 0, _amountBorrowed);\n\n        return (getUserCurrentBorrowRate(_reserve, _user), balanceIncrease);\n    }\n\n    /**\n    * @dev updates the state of the core as a consequence of a repay action.\n    * @param _reserve the address of the reserve on which the user is repaying\n    * @param _user the address of the borrower\n    * @param _paybackAmountMinusFees the amount being paid back minus fees\n    * @param _originationFeeRepaid the fee on the amount that is being repaid\n    * @param _balanceIncrease the accrued interest on the borrowed amount\n    * @param _repaidWholeLoan true if the user is repaying the whole loan\n    **/\n\n    function updateStateOnRepay(\n        address _reserve,\n        address _user,\n        uint256 _paybackAmountMinusFees,\n        uint256 _originationFeeRepaid,\n        uint256 _balanceIncrease,\n        bool _repaidWholeLoan\n    ) external onlyLendingPool {\n        updateReserveStateOnRepayInternal(\n            _reserve,\n            _user,\n            _paybackAmountMinusFees,\n            _balanceIncrease\n        );\n        updateUserStateOnRepayInternal(\n            _reserve,\n            _user,\n            _paybackAmountMinusFees,\n            _originationFeeRepaid,\n            _balanceIncrease,\n            _repaidWholeLoan\n        );\n\n        updateReserveInterestRatesAndTimestampInternal(_reserve, _paybackAmountMinusFees, 0);\n    }\n\n    /**\n    * @dev updates the state of the core as a consequence of a swap rate action.\n    * @param _reserve the address of the reserve on which the user is repaying\n    * @param _user the address of the borrower\n    * @param _principalBorrowBalance the amount borrowed by the user\n    * @param _compoundedBorrowBalance the amount borrowed plus accrued interest\n    * @param _balanceIncrease the accrued interest on the borrowed amount\n    * @param _currentRateMode the current interest rate mode for the user\n    **/\n    function updateStateOnSwapRate(\n        address _reserve,\n        address _user,\n        uint256 _principalBorrowBalance,\n        uint256 _compoundedBorrowBalance,\n        uint256 _balanceIncrease,\n        CoreLibrary.InterestRateMode _currentRateMode\n    ) external onlyLendingPool returns (CoreLibrary.InterestRateMode, uint256) {\n        updateReserveStateOnSwapRateInternal(\n            _reserve,\n            _user,\n            _principalBorrowBalance,\n            _compoundedBorrowBalance,\n            _currentRateMode\n        );\n\n        CoreLibrary.InterestRateMode newRateMode = updateUserStateOnSwapRateInternal(\n            _reserve,\n            _user,\n            _balanceIncrease,\n            _currentRateMode\n        );\n\n        updateReserveInterestRatesAndTimestampInternal(_reserve, 0, 0);\n\n        return (newRateMode, getUserCurrentBorrowRate(_reserve, _user));\n    }\n\n    /**\n    * @dev updates the state of the core as a consequence of a liquidation action.\n    * @param _principalReserve the address of the principal reserve that is being repaid\n    * @param _collateralReserve the address of the collateral reserve that is being liquidated\n    * @param _user the address of the borrower\n    * @param _amountToLiquidate the amount being repaid by the liquidator\n    * @param _collateralToLiquidate the amount of collateral being liquidated\n    * @param _feeLiquidated the amount of origination fee being liquidated\n    * @param _liquidatedCollateralForFee the amount of collateral equivalent to the origination fee + bonus\n    * @param _balanceIncrease the accrued interest on the borrowed amount\n    * @param _liquidatorReceivesAToken true if the liquidator will receive aTokens, false otherwise\n    **/\n    function updateStateOnLiquidation(\n        address _principalReserve,\n        address _collateralReserve,\n        address _user,\n        uint256 _amountToLiquidate,\n        uint256 _collateralToLiquidate,\n        uint256 _feeLiquidated,\n        uint256 _liquidatedCollateralForFee,\n        uint256 _balanceIncrease,\n        bool _liquidatorReceivesAToken\n    ) external onlyLendingPool {\n        updatePrincipalReserveStateOnLiquidationInternal(\n            _principalReserve,\n            _user,\n            _amountToLiquidate,\n            _balanceIncrease\n        );\n\n        updateCollateralReserveStateOnLiquidationInternal(\n            _collateralReserve\n        );\n\n        updateUserStateOnLiquidationInternal(\n            _principalReserve,\n            _user,\n            _amountToLiquidate,\n            _feeLiquidated,\n            _balanceIncrease\n        );\n\n        updateReserveInterestRatesAndTimestampInternal(_principalReserve, _amountToLiquidate, 0);\n\n        if (!_liquidatorReceivesAToken) {\n            updateReserveInterestRatesAndTimestampInternal(\n                _collateralReserve,\n                0,\n                _collateralToLiquidate.add(_liquidatedCollateralForFee)\n            );\n        }\n\n    }\n\n    /**\n    * @dev updates the state of the core as a consequence of a stable rate rebalance\n    * @param _reserve the address of the principal reserve where the user borrowed\n    * @param _user the address of the borrower\n    * @param _balanceIncrease the accrued interest on the borrowed amount\n    * @return the new stable rate for the user\n    **/\n    function updateStateOnRebalance(address _reserve, address _user, uint256 _balanceIncrease)\n        external\n        onlyLendingPool\n        returns (uint256)\n    {\n        updateReserveStateOnRebalanceInternal(_reserve, _user, _balanceIncrease);\n\n        //update user data and rebalance the rate\n        updateUserStateOnRebalanceInternal(_reserve, _user, _balanceIncrease);\n        updateReserveInterestRatesAndTimestampInternal(_reserve, 0, 0);\n        return usersReserveData[_user][_reserve].stableBorrowRate;\n    }\n\n    /**\n    * @dev enables or disables a reserve as collateral\n    * @param _reserve the address of the principal reserve where the user deposited\n    * @param _user the address of the depositor\n    * @param _useAsCollateral true if the depositor wants to use the reserve as collateral\n    **/\n    function setUserUseReserveAsCollateral(address _reserve, address _user, bool _useAsCollateral)\n        public\n        onlyLendingPool\n    {\n        CoreLibrary.UserReserveData storage user = usersReserveData[_user][_reserve];\n        user.useAsCollateral = _useAsCollateral;\n    }\n\n    /**\n    * @notice TRX/token transfer functions\n    **/\n\n    /**\n    * @dev fallback function enforces that the caller is a contract, to support flashloan transfers\n    **/\n    function() external payable {\n        //only contracts can send TRX to the core\n        require(msg.sender.isContract(), \"Only contracts can send ether to the Lending pool core\");\n\n    }\n\n    /**\n    * @dev transfers to the user a specific amount from the reserve.\n    * @param _reserve the address of the reserve where the transfer is happening\n    * @param _user the address of the user receiving the transfer\n    * @param _amount the amount being transferred\n    **/\n    function transferToUser(address _reserve, address payable _user, uint256 _amount)\n        external\n        onlyLendingPool\n    {\n        if (_reserve != TrxAddressLib.trxAddress()) {\n            ERC20(_reserve).safeTransfer(_user, _amount);\n        } else {\n            //solium-disable-next-line\n            (bool result, ) = _user.call.value(_amount).gas(50000)(\"\");\n            require(result, \"Transfer of TRX failed\");\n        }\n    }\n\n    /**\n    * @dev transfers the protocol fees to the fees collection address\n    * @param _token the address of the token being transferred\n    * @param _user the address of the user from where the transfer is happening\n    * @param _amount the amount being transferred\n    * @param _destination the fee receiver address\n    **/\n\n    function transferToFeeCollectionAddress(\n        address _token,\n        address _user,\n        uint256 _amount,\n        address _destination\n    ) external payable onlyLendingPool {\n        address payable feeAddress = address(uint160(_destination)); //cast the address to payable\n\n        if (_token != TrxAddressLib.trxAddress()) {\n            require(\n                msg.value == 0,\n                \"User is sending TRX along with the ERC20 transfer. Check the value attribute of the transaction\"\n            );\n            ERC20(_token).safeTransferFrom(_user, feeAddress, _amount);\n        } else {\n            require(msg.value >= _amount, \"The amount and the value sent to deposit do not match\");\n            //solium-disable-next-line\n            (bool result, ) = feeAddress.call.value(_amount).gas(50000)(\"\");\n            require(result, \"Transfer of TRX failed\");\n        }\n    }\n\n    /**\n    * @dev transfers the fees to the fees collection address in the case of liquidation\n    * @param _token the address of the token being transferred\n    * @param _amount the amount being transferred\n    * @param _destination the fee receiver address\n    **/\n    function liquidateFee(\n        address _token,\n        uint256 _amount,\n        address _destination\n    ) external payable onlyLendingPool {\n        address payable feeAddress = address(uint160(_destination)); //cast the address to payable\n        require(\n            msg.value == 0,\n            \"Fee liquidation does not require any transfer of value\"\n        );\n\n        if (_token != TrxAddressLib.trxAddress()) {\n            ERC20(_token).safeTransfer(feeAddress, _amount);\n        } else {\n            //solium-disable-next-line\n            (bool result, ) = feeAddress.call.value(_amount).gas(50000)(\"\");\n            require(result, \"Transfer of TRX failed\");\n        }\n    }\n\n    /**\n    * @dev transfers an amount from a user to the destination reserve\n    * @param _reserve the address of the reserve where the amount is being transferred\n    * @param _user the address of the user from where the transfer is happening\n    * @param _amount the amount being transferred\n    **/\n    function transferToReserve(address _reserve, address payable _user, uint256 _amount)\n        external\n        payable\n        onlyLendingPool\n    {\n        if (_reserve != TrxAddressLib.trxAddress()) {\n            require(msg.value == 0, \"User is sending TRX along with the ERC20 transfer.\");\n            ERC20(_reserve).safeTransferFrom(_user, address(this), _amount);\n\n        } else {\n            require(msg.value >= _amount, \"The amount and the value sent to deposit do not match\");\n\n            if (msg.value > _amount) {\n                //send back excess TRX\n                uint256 excessAmount = msg.value.sub(_amount);\n                //solium-disable-next-line\n                (bool result, ) = _user.call.value(excessAmount).gas(50000)(\"\");\n                require(result, \"Transfer of TRX failed\");\n            }\n        }\n    }\n\n    /**\n    * @notice data access functions\n    **/\n\n    /**\n    * @dev returns the basic data (balances, fee accrued, reserve enabled/disabled as collateral)\n    * needed to calculate the global account data in the LendingPoolDataProvider\n    * @param _reserve the address of the reserve\n    * @param _user the address of the user\n    * @return the user deposited balance, the principal borrow balance, the fee, and if the reserve is enabled as collateral or not\n    **/\n    function getUserBasicReserveData(address _reserve, address _user)\n        external\n        view\n        returns (uint256, uint256, uint256, bool)\n    {\n        CoreLibrary.ReserveData storage reserve = reserves[_reserve];\n        CoreLibrary.UserReserveData storage user = usersReserveData[_user][_reserve];\n\n        uint256 underlyingBalance = getUserUnderlyingAssetBalance(_reserve, _user);\n\n        if (user.principalBorrowBalance == 0) {\n            return (underlyingBalance, 0, 0, user.useAsCollateral);\n        }\n\n        return (\n            underlyingBalance,\n            user.getCompoundedBorrowBalance(reserve),\n            user.originationFee,\n            user.useAsCollateral\n        );\n    }\n\n    /**\n    * @dev checks if a user is allowed to borrow at a stable rate\n    * @param _reserve the reserve address\n    * @param _user the user\n    * @param _amount the amount the the user wants to borrow\n    * @return true if the user is allowed to borrow at a stable rate, false otherwise\n    **/\n\n    function isUserAllowedToBorrowAtStable(address _reserve, address _user, uint256 _amount)\n        external\n        view\n        returns (bool)\n    {\n        CoreLibrary.ReserveData storage reserve = reserves[_reserve];\n        CoreLibrary.UserReserveData storage user = usersReserveData[_user][_reserve];\n\n        if (!reserve.isStableBorrowRateEnabled) return false;\n\n        return\n            !user.useAsCollateral ||\n            !reserve.usageAsCollateralEnabled ||\n            _amount > getUserUnderlyingAssetBalance(_reserve, _user);\n    }\n\n    /**\n    * @dev gets the underlying asset balance of a user based on the corresponding aToken balance.\n    * @param _reserve the reserve address\n    * @param _user the user address\n    * @return the underlying deposit balance of the user\n    **/\n\n    function getUserUnderlyingAssetBalance(address _reserve, address _user)\n        public\n        view\n        returns (uint256)\n    {\n        AToken aToken = AToken(reserves[_reserve].aTokenAddress);\n        return aToken.balanceOf(_user);\n\n    }\n\n    /**\n    * @dev gets the interest rate strategy contract address for the reserve\n    * @param _reserve the reserve address\n    * @return the address of the interest rate strategy contract\n    **/\n    function getReserveInterestRateStrategyAddress(address _reserve) public view returns (address) {\n        CoreLibrary.ReserveData storage reserve = reserves[_reserve];\n        return reserve.interestRateStrategyAddress;\n    }\n\n    /**\n    * @dev gets the aToken contract address for the reserve\n    * @param _reserve the reserve address\n    * @return the address of the aToken contract\n    **/\n\n    function getReserveATokenAddress(address _reserve) public view returns (address) {\n        CoreLibrary.ReserveData storage reserve = reserves[_reserve];\n        return reserve.aTokenAddress;\n    }\n\n    /**\n    * @dev gets the available liquidity in the reserve. The available liquidity is the balance of the core contract\n    * @param _reserve the reserve address\n    * @return the available liquidity\n    **/\n    function getReserveAvailableLiquidity(address _reserve) public view returns (uint256) {\n        uint256 balance = 0;\n\n        if (_reserve == TrxAddressLib.trxAddress()) {\n            balance = address(this).balance;\n        } else {\n            balance = IERC20(_reserve).balanceOf(address(this));\n        }\n        return balance;\n    }\n\n    /**\n    * @dev gets the total liquidity in the reserve. The total liquidity is the balance of the core contract + total borrows\n    * @param _reserve the reserve address\n    * @return the total liquidity\n    **/\n    function getReserveTotalLiquidity(address _reserve) public view returns (uint256) {\n        CoreLibrary.ReserveData storage reserve = reserves[_reserve];\n        return getReserveAvailableLiquidity(_reserve).add(reserve.getTotalBorrows());\n    }\n\n    /**\n    * @dev gets the normalized income of the reserve. a value of 1e27 means there is no income. A value of 2e27 means there\n    * there has been 100% income.\n    * @param _reserve the reserve address\n    * @return the reserve normalized income\n    **/\n    function getReserveNormalizedIncome(address _reserve) external view returns (uint256) {\n        CoreLibrary.ReserveData storage reserve = reserves[_reserve];\n        return reserve.getNormalizedIncome();\n    }\n\n    /**\n    * @dev gets the reserve total borrows\n    * @param _reserve the reserve address\n    * @return the total borrows (stable + variable)\n    **/\n    function getReserveTotalBorrows(address _reserve) public view returns (uint256) {\n        return reserves[_reserve].getTotalBorrows();\n    }\n\n    /**\n    * @dev gets the reserve total borrows stable\n    * @param _reserve the reserve address\n    * @return the total borrows stable\n    **/\n    function getReserveTotalBorrowsStable(address _reserve) external view returns (uint256) {\n        CoreLibrary.ReserveData storage reserve = reserves[_reserve];\n        return reserve.totalBorrowsStable;\n    }\n\n    /**\n    * @dev gets the reserve total borrows variable\n    * @param _reserve the reserve address\n    * @return the total borrows variable\n    **/\n\n    function getReserveTotalBorrowsVariable(address _reserve) external view returns (uint256) {\n        CoreLibrary.ReserveData storage reserve = reserves[_reserve];\n        return reserve.totalBorrowsVariable;\n    }\n\n    /**\n    * @dev gets the reserve liquidation threshold\n    * @param _reserve the reserve address\n    * @return the reserve liquidation threshold\n    **/\n\n    function getReserveLiquidationThreshold(address _reserve) external view returns (uint256) {\n        CoreLibrary.ReserveData storage reserve = reserves[_reserve];\n        return reserve.liquidationThreshold;\n    }\n\n    /**\n    * @dev gets the reserve liquidation bonus\n    * @param _reserve the reserve address\n    * @return the reserve liquidation bonus\n    **/\n\n    function getReserveLiquidationBonus(address _reserve) external view returns (uint256) {\n        CoreLibrary.ReserveData storage reserve = reserves[_reserve];\n        return reserve.liquidationBonus;\n    }\n\n    /**\n    * @dev gets the reserve current variable borrow rate. Is the base variable borrow rate if the reserve is empty\n    * @param _reserve the reserve address\n    * @return the reserve current variable borrow rate\n    **/\n\n    function getReserveCurrentVariableBorrowRate(address _reserve) external view returns (uint256) {\n        CoreLibrary.ReserveData storage reserve = reserves[_reserve];\n\n        if (reserve.currentVariableBorrowRate == 0) {\n            return\n                IReserveInterestRateStrategy(reserve.interestRateStrategyAddress)\n                .getBaseVariableBorrowRate();\n        }\n        return reserve.currentVariableBorrowRate;\n    }\n\n    /**\n    * @dev gets the reserve current stable borrow rate. Is the market rate if the reserve is empty\n    * @param _reserve the reserve address\n    * @return the reserve current stable borrow rate\n    **/\n\n    function getReserveCurrentStableBorrowRate(address _reserve) public view returns (uint256) {\n        CoreLibrary.ReserveData storage reserve = reserves[_reserve];\n        ILendingRateOracle oracle = ILendingRateOracle(addressesProvider.getLendingRateOracle());\n\n        if (reserve.currentStableBorrowRate == 0) {\n            //no stable rate borrows yet\n            return oracle.getMarketBorrowRate(_reserve);\n        }\n\n        return reserve.currentStableBorrowRate;\n    }\n\n    /**\n    * @dev gets the reserve average stable borrow rate. The average stable rate is the weighted average\n    * of all the loans taken at stable rate.\n    * @param _reserve the reserve address\n    * @return the reserve current average borrow rate\n    **/\n    function getReserveCurrentAverageStableBorrowRate(address _reserve)\n        external\n        view\n        returns (uint256)\n    {\n        CoreLibrary.ReserveData storage reserve = reserves[_reserve];\n        return reserve.currentAverageStableBorrowRate;\n    }\n\n    /**\n    * @dev gets the reserve liquidity rate\n    * @param _reserve the reserve address\n    * @return the reserve liquidity rate\n    **/\n    function getReserveCurrentLiquidityRate(address _reserve) external view returns (uint256) {\n        CoreLibrary.ReserveData storage reserve = reserves[_reserve];\n        return reserve.currentLiquidityRate;\n    }\n\n    /**\n    * @dev gets the reserve liquidity cumulative index\n    * @param _reserve the reserve address\n    * @return the reserve liquidity cumulative index\n    **/\n    function getReserveLiquidityCumulativeIndex(address _reserve) external view returns (uint256) {\n        CoreLibrary.ReserveData storage reserve = reserves[_reserve];\n        return reserve.lastLiquidityCumulativeIndex;\n    }\n\n    /**\n    * @dev gets the reserve variable borrow index\n    * @param _reserve the reserve address\n    * @return the reserve variable borrow index\n    **/\n    function getReserveVariableBorrowsCumulativeIndex(address _reserve)\n        external\n        view\n        returns (uint256)\n    {\n        CoreLibrary.ReserveData storage reserve = reserves[_reserve];\n        return reserve.lastVariableBorrowCumulativeIndex;\n    }\n\n    /**\n    * @dev this function aggregates the configuration parameters of the reserve.\n    * It's used in the LendingPoolDataProvider specifically to save gas, and avoid\n    * multiple external contract calls to fetch the same data.\n    * @param _reserve the reserve address\n    * @return the reserve decimals\n    * @return the base ltv as collateral\n    * @return the liquidation threshold\n    * @return if the reserve is used as collateral or not\n    **/\n    function getReserveConfiguration(address _reserve)\n        external\n        view\n        returns (uint256, uint256, uint256, bool)\n    {\n        uint256 decimals;\n        uint256 baseLTVasCollateral;\n        uint256 liquidationThreshold;\n        bool usageAsCollateralEnabled;\n\n        CoreLibrary.ReserveData storage reserve = reserves[_reserve];\n        decimals = reserve.decimals;\n        baseLTVasCollateral = reserve.baseLTVasCollateral;\n        liquidationThreshold = reserve.liquidationThreshold;\n        usageAsCollateralEnabled = reserve.usageAsCollateralEnabled;\n\n        return (decimals, baseLTVasCollateral, liquidationThreshold, usageAsCollateralEnabled);\n    }\n\n    /**\n    * @dev returns the decimals of the reserve\n    * @param _reserve the reserve address\n    * @return the reserve decimals\n    **/\n    function getReserveDecimals(address _reserve) external view returns (uint256) {\n        return reserves[_reserve].decimals;\n    }\n\n    /**\n    * @dev returns true if the reserve is enabled for borrowing\n    * @param _reserve the reserve address\n    * @return true if the reserve is enabled for borrowing, false otherwise\n    **/\n\n    function isReserveBorrowingEnabled(address _reserve) external view returns (bool) {\n        CoreLibrary.ReserveData storage reserve = reserves[_reserve];\n        return reserve.borrowingEnabled;\n    }\n\n    /**\n    * @dev returns true if the reserve is enabled as collateral\n    * @param _reserve the reserve address\n    * @return true if the reserve is enabled as collateral, false otherwise\n    **/\n\n    function isReserveUsageAsCollateralEnabled(address _reserve) external view returns (bool) {\n        CoreLibrary.ReserveData storage reserve = reserves[_reserve];\n        return reserve.usageAsCollateralEnabled;\n    }\n\n    /**\n    * @dev returns true if the stable rate is enabled on reserve\n    * @param _reserve the reserve address\n    * @return true if the stable rate is enabled on reserve, false otherwise\n    **/\n    function getReserveIsStableBorrowRateEnabled(address _reserve) external view returns (bool) {\n        CoreLibrary.ReserveData storage reserve = reserves[_reserve];\n        return reserve.isStableBorrowRateEnabled;\n    }\n\n    /**\n    * @dev returns true if the reserve is active\n    * @param _reserve the reserve address\n    * @return true if the reserve is active, false otherwise\n    **/\n    function getReserveIsActive(address _reserve) external view returns (bool) {\n        CoreLibrary.ReserveData storage reserve = reserves[_reserve];\n        return reserve.isActive;\n    }\n\n    /**\n    * @notice returns if a reserve is freezed\n    * @param _reserve the reserve for which the information is needed\n    * @return true if the reserve is freezed, false otherwise\n    **/\n\n    function getReserveIsFreezed(address _reserve) external view returns (bool) {\n        CoreLibrary.ReserveData storage reserve = reserves[_reserve];\n        return reserve.isFreezed;\n    }\n\n    /**\n    * @notice returns the timestamp of the last action on the reserve\n    * @param _reserve the reserve for which the information is needed\n    * @return the last updated timestamp of the reserve\n    **/\n\n    function getReserveLastUpdate(address _reserve) external view returns (uint40 timestamp) {\n        CoreLibrary.ReserveData storage reserve = reserves[_reserve];\n        timestamp = reserve.lastUpdateTimestamp;\n    }\n\n    /**\n    * @dev returns the utilization rate U of a specific reserve\n    * @param _reserve the reserve for which the information is needed\n    * @return the utilization rate in ray\n    **/\n\n    function getReserveUtilizationRate(address _reserve) public view returns (uint256) {\n        CoreLibrary.ReserveData storage reserve = reserves[_reserve];\n\n        uint256 totalBorrows = reserve.getTotalBorrows();\n\n        if (totalBorrows == 0) {\n            return 0;\n        }\n\n        uint256 availableLiquidity = getReserveAvailableLiquidity(_reserve);\n\n        return totalBorrows.rayDiv(availableLiquidity.add(totalBorrows));\n    }\n\n    /**\n    * @return the array of reserves configured on the core\n    **/\n    function getReserves() external view returns (address[] memory) {\n        return reservesList;\n    }\n\n    /**\n    * @param _reserve the address of the reserve for which the information is needed\n    * @param _user the address of the user for which the information is needed\n    * @return true if the user has chosen to use the reserve as collateral, false otherwise\n    **/\n    function isUserUseReserveAsCollateralEnabled(address _reserve, address _user)\n        external\n        view\n        returns (bool)\n    {\n        CoreLibrary.UserReserveData storage user = usersReserveData[_user][_reserve];\n        return user.useAsCollateral;\n    }\n\n    /**\n    * @param _reserve the address of the reserve for which the information is needed\n    * @param _user the address of the user for which the information is needed\n    * @return the origination fee for the user\n    **/\n    function getUserOriginationFee(address _reserve, address _user)\n        external\n        view\n        returns (uint256)\n    {\n        CoreLibrary.UserReserveData storage user = usersReserveData[_user][_reserve];\n        return user.originationFee;\n    }\n\n    /**\n    * @dev users with no loans in progress have NONE as borrow rate mode\n    * @param _reserve the address of the reserve for which the information is needed\n    * @param _user the address of the user for which the information is needed\n    * @return the borrow rate mode for the user,\n    **/\n\n    function getUserCurrentBorrowRateMode(address _reserve, address _user)\n        public\n        view\n        returns (CoreLibrary.InterestRateMode)\n    {\n        CoreLibrary.UserReserveData storage user = usersReserveData[_user][_reserve];\n\n        if (user.principalBorrowBalance == 0) {\n            return CoreLibrary.InterestRateMode.NONE;\n        }\n\n        return\n            user.stableBorrowRate > 0\n            ? CoreLibrary.InterestRateMode.STABLE\n            : CoreLibrary.InterestRateMode.VARIABLE;\n    }\n\n    /**\n    * @dev gets the current borrow rate of the user\n    * @param _reserve the address of the reserve for which the information is needed\n    * @param _user the address of the user for which the information is needed\n    * @return the borrow rate for the user,\n    **/\n    function getUserCurrentBorrowRate(address _reserve, address _user)\n        internal\n        view\n        returns (uint256)\n    {\n        CoreLibrary.InterestRateMode rateMode = getUserCurrentBorrowRateMode(_reserve, _user);\n\n        if (rateMode == CoreLibrary.InterestRateMode.NONE) {\n            return 0;\n        }\n\n        return\n            rateMode == CoreLibrary.InterestRateMode.STABLE\n            ? usersReserveData[_user][_reserve].stableBorrowRate\n            : reserves[_reserve].currentVariableBorrowRate;\n    }\n\n    /**\n    * @dev the stable rate returned is 0 if the user is borrowing at variable or not borrowing at all\n    * @param _reserve the address of the reserve for which the information is needed\n    * @param _user the address of the user for which the information is needed\n    * @return the user stable rate\n    **/\n    function getUserCurrentStableBorrowRate(address _reserve, address _user)\n        external\n        view\n        returns (uint256)\n    {\n        CoreLibrary.UserReserveData storage user = usersReserveData[_user][_reserve];\n        return user.stableBorrowRate;\n    }\n\n    /**\n    * @dev calculates and returns the borrow balances of the user\n    * @param _reserve the address of the reserve\n    * @param _user the address of the user\n    * @return the principal borrow balance, the compounded balance and the balance increase since the last borrow/repay/swap/rebalance\n    **/\n\n    function getUserBorrowBalances(address _reserve, address _user)\n        public\n        view\n        returns (uint256, uint256, uint256)\n    {\n        CoreLibrary.UserReserveData storage user = usersReserveData[_user][_reserve];\n        if (user.principalBorrowBalance == 0) {\n            return (0, 0, 0);\n        }\n\n        uint256 principal = user.principalBorrowBalance;\n        uint256 compoundedBalance = CoreLibrary.getCompoundedBorrowBalance(\n            user,\n            reserves[_reserve]\n        );\n        return (principal, compoundedBalance, compoundedBalance.sub(principal));\n    }\n\n    /**\n    * @dev the variable borrow index of the user is 0 if the user is not borrowing or borrowing at stable\n    * @param _reserve the address of the reserve for which the information is needed\n    * @param _user the address of the user for which the information is needed\n    * @return the variable borrow index for the user\n    **/\n\n    function getUserVariableBorrowCumulativeIndex(address _reserve, address _user)\n        external\n        view\n        returns (uint256)\n    {\n        CoreLibrary.UserReserveData storage user = usersReserveData[_user][_reserve];\n        return user.lastVariableBorrowCumulativeIndex;\n    }\n\n    /**\n    * @dev the variable borrow index of the user is 0 if the user is not borrowing or borrowing at stable\n    * @param _reserve the address of the reserve for which the information is needed\n    * @param _user the address of the user for which the information is needed\n    * @return the variable borrow index for the user\n    **/\n\n    function getUserLastUpdate(address _reserve, address _user)\n        external\n        view\n        returns (uint256 timestamp)\n    {\n        CoreLibrary.UserReserveData storage user = usersReserveData[_user][_reserve];\n        timestamp = user.lastUpdateTimestamp;\n    }\n\n    /**\n    * @dev updates the lending pool core configuration\n    **/\n    function refreshConfiguration() external onlyLendingPoolConfigurator {\n        refreshConfigInternal();\n    }\n\n    /**\n    * @dev initializes a reserve\n    * @param _reserve the address of the reserve\n    * @param _aTokenAddress the address of the overlying aToken contract\n    * @param _decimals the decimals of the reserve currency\n    * @param _interestRateStrategyAddress the address of the interest rate strategy contract\n    **/\n    function initReserve(\n        address _reserve,\n        address _aTokenAddress,\n        uint256 _decimals,\n        address _interestRateStrategyAddress\n    ) external onlyLendingPoolConfigurator {\n        reserves[_reserve].init(_aTokenAddress, _decimals, _interestRateStrategyAddress);\n        addReserveToListInternal(_reserve);\n\n    }\n\n\n\n    /**\n    * @dev removes the last added reserve in the reservesList array\n    * @param _reserveToRemove the address of the reserve\n    **/\n    function removeLastAddedReserve(address _reserveToRemove)\n     external onlyLendingPoolConfigurator {\n\n        address lastReserve = reservesList[reservesList.length-1];\n\n        require(lastReserve == _reserveToRemove, \"Reserve being removed is different than the reserve requested\");\n\n        //as we can't check if totalLiquidity is 0 (since the reserve added might not be an ERC20) we at least check that there is nothing borrowed\n        require(getReserveTotalBorrows(lastReserve) == 0, \"Cannot remove a reserve with liquidity deposited\");\n\n        reserves[lastReserve].isActive = false;\n        reserves[lastReserve].aTokenAddress = address(0);\n        reserves[lastReserve].decimals = 0;\n        reserves[lastReserve].lastLiquidityCumulativeIndex = 0;\n        reserves[lastReserve].lastVariableBorrowCumulativeIndex = 0;\n        reserves[lastReserve].borrowingEnabled = false;\n        reserves[lastReserve].usageAsCollateralEnabled = false;\n        reserves[lastReserve].baseLTVasCollateral = 0;\n        reserves[lastReserve].liquidationThreshold = 0;\n        reserves[lastReserve].liquidationBonus = 0;\n        reserves[lastReserve].interestRateStrategyAddress = address(0);\n\n        reservesList.pop();\n    }\n\n    /**\n    * @dev updates the address of the interest rate strategy contract\n    * @param _reserve the address of the reserve\n    * @param _rateStrategyAddress the address of the interest rate strategy contract\n    **/\n\n    function setReserveInterestRateStrategyAddress(address _reserve, address _rateStrategyAddress)\n        external\n        onlyLendingPoolConfigurator\n    {\n        reserves[_reserve].interestRateStrategyAddress = _rateStrategyAddress;\n    }\n\n    /**\n    * @dev enables borrowing on a reserve. Also sets the stable rate borrowing\n    * @param _reserve the address of the reserve\n    * @param _stableBorrowRateEnabled true if the stable rate needs to be enabled, false otherwise\n    **/\n\n    function enableBorrowingOnReserve(address _reserve, bool _stableBorrowRateEnabled)\n        external\n        onlyLendingPoolConfigurator\n    {\n        reserves[_reserve].enableBorrowing(_stableBorrowRateEnabled);\n    }\n\n    /**\n    * @dev disables borrowing on a reserve\n    * @param _reserve the address of the reserve\n    **/\n\n    function disableBorrowingOnReserve(address _reserve) external onlyLendingPoolConfigurator {\n        reserves[_reserve].disableBorrowing();\n    }\n\n    /**\n    * @dev enables a reserve to be used as collateral\n    * @param _reserve the address of the reserve\n    **/\n    function enableReserveAsCollateral(\n        address _reserve,\n        uint256 _baseLTVasCollateral,\n        uint256 _liquidationThreshold,\n        uint256 _liquidationBonus\n    ) external onlyLendingPoolConfigurator {\n        reserves[_reserve].enableAsCollateral(\n            _baseLTVasCollateral,\n            _liquidationThreshold,\n            _liquidationBonus\n        );\n    }\n\n    /**\n    * @dev disables a reserve to be used as collateral\n    * @param _reserve the address of the reserve\n    **/\n    function disableReserveAsCollateral(address _reserve) external onlyLendingPoolConfigurator {\n        reserves[_reserve].disableAsCollateral();\n    }\n\n    /**\n    * @dev enable the stable borrow rate mode on a reserve\n    * @param _reserve the address of the reserve\n    **/\n    function enableReserveStableBorrowRate(address _reserve) external onlyLendingPoolConfigurator {\n        CoreLibrary.ReserveData storage reserve = reserves[_reserve];\n        reserve.isStableBorrowRateEnabled = true;\n    }\n\n    /**\n    * @dev disable the stable borrow rate mode on a reserve\n    * @param _reserve the address of the reserve\n    **/\n    function disableReserveStableBorrowRate(address _reserve) external onlyLendingPoolConfigurator {\n        CoreLibrary.ReserveData storage reserve = reserves[_reserve];\n        reserve.isStableBorrowRateEnabled = false;\n    }\n\n    /**\n    * @dev activates a reserve\n    * @param _reserve the address of the reserve\n    **/\n    function activateReserve(address _reserve) external onlyLendingPoolConfigurator {\n        CoreLibrary.ReserveData storage reserve = reserves[_reserve];\n\n        require(\n            reserve.lastLiquidityCumulativeIndex > 0 &&\n                reserve.lastVariableBorrowCumulativeIndex > 0,\n            \"Reserve has not been initialized yet\"\n        );\n        reserve.isActive = true;\n    }\n\n    /**\n    * @dev deactivates a reserve\n    * @param _reserve the address of the reserve\n    **/\n    function deactivateReserve(address _reserve) external onlyLendingPoolConfigurator {\n        CoreLibrary.ReserveData storage reserve = reserves[_reserve];\n        reserve.isActive = false;\n    }\n\n    /**\n    * @notice allows the configurator to freeze the reserve.\n    * A freezed reserve does not allow any action apart from repay, redeem, liquidationCall, rebalance.\n    * @param _reserve the address of the reserve\n    **/\n    function freezeReserve(address _reserve) external onlyLendingPoolConfigurator {\n        CoreLibrary.ReserveData storage reserve = reserves[_reserve];\n        reserve.isFreezed = true;\n    }\n\n    /**\n    * @notice allows the configurator to unfreeze the reserve. A unfreezed reserve allows any action to be executed.\n    * @param _reserve the address of the reserve\n    **/\n    function unfreezeReserve(address _reserve) external onlyLendingPoolConfigurator {\n        CoreLibrary.ReserveData storage reserve = reserves[_reserve];\n        reserve.isFreezed = false;\n    }\n\n    /**\n    * @notice allows the configurator to update the loan to value of a reserve\n    * @param _reserve the address of the reserve\n    * @param _ltv the new loan to value\n    **/\n    function setReserveBaseLTVasCollateral(address _reserve, uint256 _ltv)\n        external\n        onlyLendingPoolConfigurator\n    {\n        CoreLibrary.ReserveData storage reserve = reserves[_reserve];\n        reserve.baseLTVasCollateral = _ltv;\n    }\n\n    /**\n    * @notice allows the configurator to update the liquidation threshold of a reserve\n    * @param _reserve the address of the reserve\n    * @param _threshold the new liquidation threshold\n    **/\n    function setReserveLiquidationThreshold(address _reserve, uint256 _threshold)\n        external\n        onlyLendingPoolConfigurator\n    {\n        CoreLibrary.ReserveData storage reserve = reserves[_reserve];\n        reserve.liquidationThreshold = _threshold;\n    }\n\n    /**\n    * @notice allows the configurator to update the liquidation bonus of a reserve\n    * @param _reserve the address of the reserve\n    * @param _bonus the new liquidation bonus\n    **/\n    function setReserveLiquidationBonus(address _reserve, uint256 _bonus)\n        external\n        onlyLendingPoolConfigurator\n    {\n        CoreLibrary.ReserveData storage reserve = reserves[_reserve];\n        reserve.liquidationBonus = _bonus;\n    }\n\n    /**\n    * @notice allows the configurator to update the reserve decimals\n    * @param _reserve the address of the reserve\n    * @param _decimals the decimals of the reserve\n    **/\n    function setReserveDecimals(address _reserve, uint256 _decimals)\n        external\n        onlyLendingPoolConfigurator\n    {\n        CoreLibrary.ReserveData storage reserve = reserves[_reserve];\n        reserve.decimals = _decimals;\n    }\n\n    /**\n    * @notice internal functions\n    **/\n\n    /**\n    * @dev updates the state of a reserve as a consequence of a borrow action.\n    * @param _reserve the address of the reserve on which the user is borrowing\n    * @param _user the address of the borrower\n    * @param _principalBorrowBalance the previous borrow balance of the borrower before the action\n    * @param _balanceIncrease the accrued interest of the user on the previous borrowed amount\n    * @param _amountBorrowed the new amount borrowed\n    * @param _rateMode the borrow rate mode (stable, variable)\n    **/\n\n    function updateReserveStateOnBorrowInternal(\n        address _reserve,\n        address _user,\n        uint256 _principalBorrowBalance,\n        uint256 _balanceIncrease,\n        uint256 _amountBorrowed,\n        CoreLibrary.InterestRateMode _rateMode\n    ) internal {\n        reserves[_reserve].updateCumulativeIndexes();\n\n        //increasing reserve total borrows to account for the new borrow balance of the user\n        //NOTE: Depending on the previous borrow mode, the borrows might need to be switched from variable to stable or vice versa\n\n        updateReserveTotalBorrowsByRateModeInternal(\n            _reserve,\n            _user,\n            _principalBorrowBalance,\n            _balanceIncrease,\n            _amountBorrowed,\n            _rateMode\n        );\n    }\n\n    /**\n    * @dev updates the state of a user as a consequence of a borrow action.\n    * @param _reserve the address of the reserve on which the user is borrowing\n    * @param _user the address of the borrower\n    * @param _amountBorrowed the amount borrowed\n    * @param _balanceIncrease the accrued interest of the user on the previous borrowed amount\n    * @param _rateMode the borrow rate mode (stable, variable)\n    * @return the final borrow rate for the user. Emitted by the borrow() event\n    **/\n\n    function updateUserStateOnBorrowInternal(\n        address _reserve,\n        address _user,\n        uint256 _amountBorrowed,\n        uint256 _balanceIncrease,\n        uint256 _fee,\n        CoreLibrary.InterestRateMode _rateMode\n    ) internal {\n        CoreLibrary.ReserveData storage reserve = reserves[_reserve];\n        CoreLibrary.UserReserveData storage user = usersReserveData[_user][_reserve];\n\n        if (_rateMode == CoreLibrary.InterestRateMode.STABLE) {\n            //stable\n            //reset the user variable index, and update the stable rate\n            user.stableBorrowRate = reserve.currentStableBorrowRate;\n            user.lastVariableBorrowCumulativeIndex = 0;\n        } else if (_rateMode == CoreLibrary.InterestRateMode.VARIABLE) {\n            //variable\n            //reset the user stable rate, and store the new borrow index\n            user.stableBorrowRate = 0;\n            user.lastVariableBorrowCumulativeIndex = reserve.lastVariableBorrowCumulativeIndex;\n        } else {\n            revert(\"Invalid borrow rate mode\");\n        }\n        //increase the principal borrows and the origination fee\n        user.principalBorrowBalance = user.principalBorrowBalance.add(_amountBorrowed).add(\n            _balanceIncrease\n        );\n        user.originationFee = user.originationFee.add(_fee);\n\n        //solium-disable-next-line\n        user.lastUpdateTimestamp = uint40(block.timestamp);\n\n    }\n\n    /**\n    * @dev updates the state of the reserve as a consequence of a repay action.\n    * @param _reserve the address of the reserve on which the user is repaying\n    * @param _user the address of the borrower\n    * @param _paybackAmountMinusFees the amount being paid back minus fees\n    * @param _balanceIncrease the accrued interest on the borrowed amount\n    **/\n\n    function updateReserveStateOnRepayInternal(\n        address _reserve,\n        address _user,\n        uint256 _paybackAmountMinusFees,\n        uint256 _balanceIncrease\n    ) internal {\n        CoreLibrary.ReserveData storage reserve = reserves[_reserve];\n        CoreLibrary.UserReserveData storage user = usersReserveData[_reserve][_user];\n\n        CoreLibrary.InterestRateMode borrowRateMode = getUserCurrentBorrowRateMode(_reserve, _user);\n\n        //update the indexes\n        reserves[_reserve].updateCumulativeIndexes();\n\n        //compound the cumulated interest to the borrow balance and then subtracting the payback amount\n        if (borrowRateMode == CoreLibrary.InterestRateMode.STABLE) {\n            reserve.increaseTotalBorrowsStableAndUpdateAverageRate(\n                _balanceIncrease,\n                user.stableBorrowRate\n            );\n            reserve.decreaseTotalBorrowsStableAndUpdateAverageRate(\n                _paybackAmountMinusFees,\n                user.stableBorrowRate\n            );\n        } else {\n            reserve.increaseTotalBorrowsVariable(_balanceIncrease);\n            reserve.decreaseTotalBorrowsVariable(_paybackAmountMinusFees);\n        }\n    }\n\n    /**\n    * @dev updates the state of the user as a consequence of a repay action.\n    * @param _reserve the address of the reserve on which the user is repaying\n    * @param _user the address of the borrower\n    * @param _paybackAmountMinusFees the amount being paid back minus fees\n    * @param _originationFeeRepaid the fee on the amount that is being repaid\n    * @param _balanceIncrease the accrued interest on the borrowed amount\n    * @param _repaidWholeLoan true if the user is repaying the whole loan\n    **/\n    function updateUserStateOnRepayInternal(\n        address _reserve,\n        address _user,\n        uint256 _paybackAmountMinusFees,\n        uint256 _originationFeeRepaid,\n        uint256 _balanceIncrease,\n        bool _repaidWholeLoan\n    ) internal {\n        CoreLibrary.ReserveData storage reserve = reserves[_reserve];\n        CoreLibrary.UserReserveData storage user = usersReserveData[_user][_reserve];\n\n        //update the user principal borrow balance, adding the cumulated interest and then subtracting the payback amount\n        user.principalBorrowBalance = user.principalBorrowBalance.add(_balanceIncrease).sub(\n            _paybackAmountMinusFees\n        );\n        user.lastVariableBorrowCumulativeIndex = reserve.lastVariableBorrowCumulativeIndex;\n\n        //if the balance decrease is equal to the previous principal (user is repaying the whole loan)\n        //and the rate mode is stable, we reset the interest rate mode of the user\n        if (_repaidWholeLoan) {\n            user.stableBorrowRate = 0;\n            user.lastVariableBorrowCumulativeIndex = 0;\n        }\n        user.originationFee = user.originationFee.sub(_originationFeeRepaid);\n\n        //solium-disable-next-line\n        user.lastUpdateTimestamp = uint40(block.timestamp);\n\n    }\n\n    /**\n    * @dev updates the state of the user as a consequence of a swap rate action.\n    * @param _reserve the address of the reserve on which the user is performing the rate swap\n    * @param _user the address of the borrower\n    * @param _principalBorrowBalance the the principal amount borrowed by the user\n    * @param _compoundedBorrowBalance the principal amount plus the accrued interest\n    * @param _currentRateMode the rate mode at which the user borrowed\n    **/\n    function updateReserveStateOnSwapRateInternal(\n        address _reserve,\n        address _user,\n        uint256 _principalBorrowBalance,\n        uint256 _compoundedBorrowBalance,\n        CoreLibrary.InterestRateMode _currentRateMode\n    ) internal {\n        CoreLibrary.ReserveData storage reserve = reserves[_reserve];\n        CoreLibrary.UserReserveData storage user = usersReserveData[_user][_reserve];\n\n        //compounding reserve indexes\n        reserve.updateCumulativeIndexes();\n\n        if (_currentRateMode == CoreLibrary.InterestRateMode.STABLE) {\n            uint256 userCurrentStableRate = user.stableBorrowRate;\n\n            //swap to variable\n            reserve.decreaseTotalBorrowsStableAndUpdateAverageRate(\n                _principalBorrowBalance,\n                userCurrentStableRate\n            ); //decreasing stable from old principal balance\n            reserve.increaseTotalBorrowsVariable(_compoundedBorrowBalance); //increase variable borrows\n        } else if (_currentRateMode == CoreLibrary.InterestRateMode.VARIABLE) {\n            //swap to stable\n            uint256 currentStableRate = reserve.currentStableBorrowRate;\n            reserve.decreaseTotalBorrowsVariable(_principalBorrowBalance);\n            reserve.increaseTotalBorrowsStableAndUpdateAverageRate(\n                _compoundedBorrowBalance,\n                currentStableRate\n            );\n\n        } else {\n            revert(\"Invalid rate mode received\");\n        }\n    }\n\n    /**\n    * @dev updates the state of the user as a consequence of a swap rate action.\n    * @param _reserve the address of the reserve on which the user is performing the swap\n    * @param _user the address of the borrower\n    * @param _balanceIncrease the accrued interest on the borrowed amount\n    * @param _currentRateMode the current rate mode of the user\n    **/\n\n    function updateUserStateOnSwapRateInternal(\n        address _reserve,\n        address _user,\n        uint256 _balanceIncrease,\n        CoreLibrary.InterestRateMode _currentRateMode\n    ) internal returns (CoreLibrary.InterestRateMode) {\n        CoreLibrary.UserReserveData storage user = usersReserveData[_user][_reserve];\n        CoreLibrary.ReserveData storage reserve = reserves[_reserve];\n\n        CoreLibrary.InterestRateMode newMode = CoreLibrary.InterestRateMode.NONE;\n\n        if (_currentRateMode == CoreLibrary.InterestRateMode.VARIABLE) {\n            //switch to stable\n            newMode = CoreLibrary.InterestRateMode.STABLE;\n            user.stableBorrowRate = reserve.currentStableBorrowRate;\n            user.lastVariableBorrowCumulativeIndex = 0;\n        } else if (_currentRateMode == CoreLibrary.InterestRateMode.STABLE) {\n            newMode = CoreLibrary.InterestRateMode.VARIABLE;\n            user.stableBorrowRate = 0;\n            user.lastVariableBorrowCumulativeIndex = reserve.lastVariableBorrowCumulativeIndex;\n        } else {\n            revert(\"Invalid interest rate mode received\");\n        }\n        //compounding cumulated interest\n        user.principalBorrowBalance = user.principalBorrowBalance.add(_balanceIncrease);\n        //solium-disable-next-line\n        user.lastUpdateTimestamp = uint40(block.timestamp);\n\n        return newMode;\n    }\n\n    /**\n    * @dev updates the state of the principal reserve as a consequence of a liquidation action.\n    * @param _principalReserve the address of the principal reserve that is being repaid\n    * @param _user the address of the borrower\n    * @param _amountToLiquidate the amount being repaid by the liquidator\n    * @param _balanceIncrease the accrued interest on the borrowed amount\n    **/\n\n    function updatePrincipalReserveStateOnLiquidationInternal(\n        address _principalReserve,\n        address _user,\n        uint256 _amountToLiquidate,\n        uint256 _balanceIncrease\n    ) internal {\n        CoreLibrary.ReserveData storage reserve = reserves[_principalReserve];\n        CoreLibrary.UserReserveData storage user = usersReserveData[_user][_principalReserve];\n\n        //update principal reserve data\n        reserve.updateCumulativeIndexes();\n\n        CoreLibrary.InterestRateMode borrowRateMode = getUserCurrentBorrowRateMode(\n            _principalReserve,\n            _user\n        );\n\n        if (borrowRateMode == CoreLibrary.InterestRateMode.STABLE) {\n            //increase the total borrows by the compounded interest\n            reserve.increaseTotalBorrowsStableAndUpdateAverageRate(\n                _balanceIncrease,\n                user.stableBorrowRate\n            );\n\n            //decrease by the actual amount to liquidate\n            reserve.decreaseTotalBorrowsStableAndUpdateAverageRate(\n                _amountToLiquidate,\n                user.stableBorrowRate\n            );\n\n        } else {\n            //increase the total borrows by the compounded interest\n            reserve.increaseTotalBorrowsVariable(_balanceIncrease);\n\n            //decrease by the actual amount to liquidate\n            reserve.decreaseTotalBorrowsVariable(_amountToLiquidate);\n        }\n\n    }\n\n    /**\n    * @dev updates the state of the collateral reserve as a consequence of a liquidation action.\n    * @param _collateralReserve the address of the collateral reserve that is being liquidated\n    **/\n    function updateCollateralReserveStateOnLiquidationInternal(\n        address _collateralReserve\n    ) internal {\n        //update collateral reserve\n        reserves[_collateralReserve].updateCumulativeIndexes();\n\n    }\n\n    /**\n    * @dev updates the state of the user being liquidated as a consequence of a liquidation action.\n    * @param _reserve the address of the principal reserve that is being repaid\n    * @param _user the address of the borrower\n    * @param _amountToLiquidate the amount being repaid by the liquidator\n    * @param _feeLiquidated the amount of origination fee being liquidated\n    * @param _balanceIncrease the accrued interest on the borrowed amount\n    **/\n    function updateUserStateOnLiquidationInternal(\n        address _reserve,\n        address _user,\n        uint256 _amountToLiquidate,\n        uint256 _feeLiquidated,\n        uint256 _balanceIncrease\n    ) internal {\n        CoreLibrary.UserReserveData storage user = usersReserveData[_user][_reserve];\n        CoreLibrary.ReserveData storage reserve = reserves[_reserve];\n        //first increase by the compounded interest, then decrease by the liquidated amount\n        user.principalBorrowBalance = user.principalBorrowBalance.add(_balanceIncrease).sub(\n            _amountToLiquidate\n        );\n\n        if (\n            getUserCurrentBorrowRateMode(_reserve, _user) == CoreLibrary.InterestRateMode.VARIABLE\n        ) {\n            user.lastVariableBorrowCumulativeIndex = reserve.lastVariableBorrowCumulativeIndex;\n        }\n\n        if(_feeLiquidated > 0){\n            user.originationFee = user.originationFee.sub(_feeLiquidated);\n        }\n\n        //solium-disable-next-line\n        user.lastUpdateTimestamp = uint40(block.timestamp);\n    }\n\n    /**\n    * @dev updates the state of the reserve as a consequence of a stable rate rebalance\n    * @param _reserve the address of the principal reserve where the user borrowed\n    * @param _user the address of the borrower\n    * @param _balanceIncrease the accrued interest on the borrowed amount\n    **/\n\n    function updateReserveStateOnRebalanceInternal(\n        address _reserve,\n        address _user,\n        uint256 _balanceIncrease\n    ) internal {\n        CoreLibrary.ReserveData storage reserve = reserves[_reserve];\n        CoreLibrary.UserReserveData storage user = usersReserveData[_user][_reserve];\n\n        reserve.updateCumulativeIndexes();\n\n        reserve.increaseTotalBorrowsStableAndUpdateAverageRate(\n            _balanceIncrease,\n            user.stableBorrowRate\n        );\n\n    }\n\n    /**\n    * @dev updates the state of the user as a consequence of a stable rate rebalance\n    * @param _reserve the address of the principal reserve where the user borrowed\n    * @param _user the address of the borrower\n    * @param _balanceIncrease the accrued interest on the borrowed amount\n    **/\n\n    function updateUserStateOnRebalanceInternal(\n        address _reserve,\n        address _user,\n        uint256 _balanceIncrease\n    ) internal {\n        CoreLibrary.UserReserveData storage user = usersReserveData[_user][_reserve];\n        CoreLibrary.ReserveData storage reserve = reserves[_reserve];\n\n        user.principalBorrowBalance = user.principalBorrowBalance.add(_balanceIncrease);\n        user.stableBorrowRate = reserve.currentStableBorrowRate;\n\n        //solium-disable-next-line\n        user.lastUpdateTimestamp = uint40(block.timestamp);\n    }\n\n    /**\n    * @dev updates the state of the user as a consequence of a stable rate rebalance\n    * @param _reserve the address of the principal reserve where the user borrowed\n    * @param _user the address of the borrower\n    * @param _balanceIncrease the accrued interest on the borrowed amount\n    * @param _amountBorrowed the accrued interest on the borrowed amount\n    **/\n    function updateReserveTotalBorrowsByRateModeInternal(\n        address _reserve,\n        address _user,\n        uint256 _principalBalance,\n        uint256 _balanceIncrease,\n        uint256 _amountBorrowed,\n        CoreLibrary.InterestRateMode _newBorrowRateMode\n    ) internal {\n        CoreLibrary.InterestRateMode previousRateMode = getUserCurrentBorrowRateMode(\n            _reserve,\n            _user\n        );\n        CoreLibrary.ReserveData storage reserve = reserves[_reserve];\n\n        if (previousRateMode == CoreLibrary.InterestRateMode.STABLE) {\n            CoreLibrary.UserReserveData storage user = usersReserveData[_user][_reserve];\n            reserve.decreaseTotalBorrowsStableAndUpdateAverageRate(\n                _principalBalance,\n                user.stableBorrowRate\n            );\n        } else if (previousRateMode == CoreLibrary.InterestRateMode.VARIABLE) {\n            reserve.decreaseTotalBorrowsVariable(_principalBalance);\n        }\n\n        uint256 newPrincipalAmount = _principalBalance.add(_balanceIncrease).add(_amountBorrowed);\n        if (_newBorrowRateMode == CoreLibrary.InterestRateMode.STABLE) {\n            reserve.increaseTotalBorrowsStableAndUpdateAverageRate(\n                newPrincipalAmount,\n                reserve.currentStableBorrowRate\n            );\n        } else if (_newBorrowRateMode == CoreLibrary.InterestRateMode.VARIABLE) {\n            reserve.increaseTotalBorrowsVariable(newPrincipalAmount);\n        } else {\n            revert(\"Invalid new borrow rate mode\");\n        }\n    }\n\n    /**\n    * @dev Updates the reserve current stable borrow rate Rf, the current variable borrow rate Rv and the current liquidity rate Rl.\n    * Also updates the lastUpdateTimestamp value. Please refer to the whitepaper for further information.\n    * @param _reserve the address of the reserve to be updated\n    * @param _liquidityAdded the amount of liquidity added to the protocol (deposit or repay) in the previous action\n    * @param _liquidityTaken the amount of liquidity taken from the protocol (redeem or borrow)\n    **/\n\n    function updateReserveInterestRatesAndTimestampInternal(\n        address _reserve,\n        uint256 _liquidityAdded,\n        uint256 _liquidityTaken\n    ) internal {\n        CoreLibrary.ReserveData storage reserve = reserves[_reserve];\n        (uint256 newLiquidityRate, uint256 newStableRate, uint256 newVariableRate) = IReserveInterestRateStrategy(\n            reserve\n                .interestRateStrategyAddress\n        )\n            .calculateInterestRates(\n            _reserve,\n            getReserveAvailableLiquidity(_reserve).add(_liquidityAdded).sub(_liquidityTaken),\n            reserve.totalBorrowsStable,\n            reserve.totalBorrowsVariable,\n            reserve.currentAverageStableBorrowRate\n        );\n\n        reserve.currentLiquidityRate = newLiquidityRate;\n        reserve.currentStableBorrowRate = newStableRate;\n        reserve.currentVariableBorrowRate = newVariableRate;\n\n        //solium-disable-next-line\n        reserve.lastUpdateTimestamp = uint40(block.timestamp);\n\n        emit ReserveUpdated(\n            _reserve,\n            newLiquidityRate,\n            newStableRate,\n            newVariableRate,\n            reserve.lastLiquidityCumulativeIndex,\n            reserve.lastVariableBorrowCumulativeIndex\n        );\n    }\n\n    /**\n    * @dev updates the internal configuration of the core\n    **/\n    function refreshConfigInternal() internal {\n        lendingPoolAddress = addressesProvider.getLendingPool();\n    }\n\n    /**\n    * @dev adds a reserve to the array of the reserves address\n    **/\n    function addReserveToListInternal(address _reserve) internal {\n        bool reserveAlreadyAdded = false;\n        for (uint256 i = 0; i < reservesList.length; i++)\n            if (reservesList[i] == _reserve) {\n                reserveAlreadyAdded = true;\n            }\n        if (!reserveAlreadyAdded) reservesList.push(_reserve);\n    }\n\n}\n",
  "sourcePath": "/Users/bibodeng/Programming/water_loan_core/contracts/lendingpool/LendingPoolCore.sol",
  "compiler": {
    "name": "solc",
    "version": "0.5.4+commit.d15a3125.mod.Emscripten.clang"
  },
  "schemaVersion": "2.0.1",
  "updatedAt": "2020-12-06T14:57:27.744Z"
}