{
  "contractName": "LendingPoolParametersProvider",
  "abi": [
    {
      "constant": false,
      "inputs": [
        {
          "name": "_addressesProvider",
          "type": "address"
        }
      ],
      "name": "initialize",
      "outputs": [],
      "payable": false,
      "stateMutability": "nonpayable",
      "type": "function"
    },
    {
      "constant": true,
      "inputs": [],
      "name": "getMaxStableRateBorrowSizePercent",
      "outputs": [
        {
          "name": "",
          "type": "uint256"
        }
      ],
      "payable": false,
      "stateMutability": "pure",
      "type": "function"
    },
    {
      "constant": true,
      "inputs": [],
      "name": "getRebalanceDownRateDelta",
      "outputs": [
        {
          "name": "",
          "type": "uint256"
        }
      ],
      "payable": false,
      "stateMutability": "pure",
      "type": "function"
    },
    {
      "constant": true,
      "inputs": [],
      "name": "getFlashLoanFeesInBips",
      "outputs": [
        {
          "name": "",
          "type": "uint256"
        },
        {
          "name": "",
          "type": "uint256"
        }
      ],
      "payable": false,
      "stateMutability": "pure",
      "type": "function"
    }
  ],
  "bytecode": "0x60806040526000805534801561001457600080fd5b50d3801561002157600080fd5b50d2801561002e57600080fd5b506102bf8061003e6000396000f3fe608060405234801561001057600080fd5b50d3801561001d57600080fd5b50d2801561002a57600080fd5b5060043610610083576000357c01000000000000000000000000000000000000000000000000000000009004806346f4f8d114610088578063586feb40146100a6578063c4d66de8146100cb578063d6b725ac1461010f575b600080fd5b61009061012d565b6040518082815260200191505060405180910390f35b6100ae610140565b604051808381526020018281526020019250505060405180910390f35b61010d600480360360208110156100e157600080fd5b81019080803573ffffffffffffffffffffffffffffffffffffffff169060200190929190505050610150565b005b610117610242565b6040518082815260200191505060405180910390f35b60006aa56fa5b99019a5c8000000905090565b6000806023610bb8915091509091565b600061015a61024b565b9050600160009054906101000a900460ff168061017b575061017a610254565b5b80610187575060005481115b15156101de576040517f08c379a000000000000000000000000000000000000000000000000000000000815260040180806020018281038252602e815260200180610266602e913960400191505060405180910390fd5b6000600160009054906101000a900460ff16159050801561021b5760018060006101000a81548160ff021916908315150217905550816000819055505b801561023d576000600160006101000a81548160ff0219169083151502179055505b505050565b60006019905090565b60006001905090565b600080303b9050600081149150509056fe436f6e747261637420696e7374616e63652068617320616c7265616479206265656e20696e697469616c697a6564a165627a7a72305820712a86350b4df58fe10e53d600a8fc68f7f2c53ca4584e073aeb03bb5f568d4c0029",
  "source": "pragma solidity ^0.5.0;\n\n\nimport \"../libraries/openzeppelin-upgradeability/VersionedInitializable.sol\";\nimport \"./UintStorage.sol\";\n\n/**\n* @title LendingPoolParametersProvider\n* @author Aave\n* @notice stores the configuration parameters of the Lending Pool contract\n**/\n\ncontract LendingPoolParametersProvider is VersionedInitializable {\n\n    uint256 private constant MAX_STABLE_RATE_BORROW_SIZE_PERCENT = 25;\n    uint256 private constant REBALANCE_DOWN_RATE_DELTA = (1e27)/5;\n    uint256 private constant FLASHLOAN_FEE_TOTAL = 35;\n    uint256 private constant FLASHLOAN_FEE_PROTOCOL = 3000;\n\n    uint256 constant private DATA_PROVIDER_REVISION = 0x1;\n\n    function getRevision() internal pure returns(uint256) {\n        return DATA_PROVIDER_REVISION;\n    }\n\n    /**\n    * @dev initializes the LendingPoolParametersProvider after it's added to the proxy\n    * @param _addressesProvider the address of the LendingPoolAddressesProvider\n    */\n    function initialize(address _addressesProvider) public initializer {\n    }\n    /**\n    * @dev returns the maximum stable rate borrow size, in percentage of the available liquidity.\n    **/\n    function getMaxStableRateBorrowSizePercent() external pure returns (uint256)  {\n        return MAX_STABLE_RATE_BORROW_SIZE_PERCENT;\n    }\n\n    /**\n    * @dev returns the delta between the current stable rate and the user stable rate at\n    *      which the borrow position of the user will be rebalanced (scaled down)\n    **/\n    function getRebalanceDownRateDelta() external pure returns (uint256) {\n        return REBALANCE_DOWN_RATE_DELTA;\n    }\n\n    /**\n    * @dev returns the fee applied to a flashloan and the portion to redirect to the protocol, in basis points.\n    **/\n    function getFlashLoanFeesInBips() external pure returns (uint256, uint256) {\n        return (FLASHLOAN_FEE_TOTAL, FLASHLOAN_FEE_PROTOCOL);\n    }\n}\n",
  "sourcePath": "/Users/bibodeng/Programming/water_loan_core/contracts/configuration/LendingPoolParametersProvider.sol",
  "compiler": {
    "name": "solc",
    "version": "0.5.4+commit.d15a3125.mod.Emscripten.clang"
  },
  "schemaVersion": "2.0.1",
  "updatedAt": "2020-12-06T14:57:27.649Z"
}