{
  "contractName": "LendingPoolAddressesProvider",
  "abi": [
    {
      "constant": true,
      "inputs": [
        {
          "name": "_key",
          "type": "bytes32"
        }
      ],
      "name": "getAddress",
      "outputs": [
        {
          "name": "",
          "type": "address"
        }
      ],
      "payable": false,
      "stateMutability": "view",
      "type": "function"
    },
    {
      "constant": false,
      "inputs": [],
      "name": "renounceOwnership",
      "outputs": [],
      "payable": false,
      "stateMutability": "nonpayable",
      "type": "function"
    },
    {
      "constant": true,
      "inputs": [],
      "name": "owner",
      "outputs": [
        {
          "name": "",
          "type": "address"
        }
      ],
      "payable": false,
      "stateMutability": "view",
      "type": "function"
    },
    {
      "constant": true,
      "inputs": [],
      "name": "isOwner",
      "outputs": [
        {
          "name": "",
          "type": "bool"
        }
      ],
      "payable": false,
      "stateMutability": "view",
      "type": "function"
    },
    {
      "constant": false,
      "inputs": [
        {
          "name": "newOwner",
          "type": "address"
        }
      ],
      "name": "transferOwnership",
      "outputs": [],
      "payable": false,
      "stateMutability": "nonpayable",
      "type": "function"
    },
    {
      "anonymous": false,
      "inputs": [
        {
          "indexed": true,
          "name": "newAddress",
          "type": "address"
        }
      ],
      "name": "LendingPoolUpdated",
      "type": "event"
    },
    {
      "anonymous": false,
      "inputs": [
        {
          "indexed": true,
          "name": "newAddress",
          "type": "address"
        }
      ],
      "name": "LendingPoolCoreUpdated",
      "type": "event"
    },
    {
      "anonymous": false,
      "inputs": [
        {
          "indexed": true,
          "name": "newAddress",
          "type": "address"
        }
      ],
      "name": "LendingPoolParametersProviderUpdated",
      "type": "event"
    },
    {
      "anonymous": false,
      "inputs": [
        {
          "indexed": true,
          "name": "newAddress",
          "type": "address"
        }
      ],
      "name": "LendingPoolManagerUpdated",
      "type": "event"
    },
    {
      "anonymous": false,
      "inputs": [
        {
          "indexed": true,
          "name": "newAddress",
          "type": "address"
        }
      ],
      "name": "LendingPoolConfiguratorUpdated",
      "type": "event"
    },
    {
      "anonymous": false,
      "inputs": [
        {
          "indexed": true,
          "name": "newAddress",
          "type": "address"
        }
      ],
      "name": "LendingPoolLiquidationManagerUpdated",
      "type": "event"
    },
    {
      "anonymous": false,
      "inputs": [
        {
          "indexed": true,
          "name": "newAddress",
          "type": "address"
        }
      ],
      "name": "LendingPoolDataProviderUpdated",
      "type": "event"
    },
    {
      "anonymous": false,
      "inputs": [
        {
          "indexed": true,
          "name": "newAddress",
          "type": "address"
        }
      ],
      "name": "EthereumAddressUpdated",
      "type": "event"
    },
    {
      "anonymous": false,
      "inputs": [
        {
          "indexed": true,
          "name": "newAddress",
          "type": "address"
        }
      ],
      "name": "PriceOracleUpdated",
      "type": "event"
    },
    {
      "anonymous": false,
      "inputs": [
        {
          "indexed": true,
          "name": "newAddress",
          "type": "address"
        }
      ],
      "name": "LendingRateOracleUpdated",
      "type": "event"
    },
    {
      "anonymous": false,
      "inputs": [
        {
          "indexed": true,
          "name": "newAddress",
          "type": "address"
        }
      ],
      "name": "FeeProviderUpdated",
      "type": "event"
    },
    {
      "anonymous": false,
      "inputs": [
        {
          "indexed": true,
          "name": "newAddress",
          "type": "address"
        }
      ],
      "name": "TokenDistributorUpdated",
      "type": "event"
    },
    {
      "anonymous": false,
      "inputs": [
        {
          "indexed": false,
          "name": "id",
          "type": "bytes32"
        },
        {
          "indexed": true,
          "name": "newAddress",
          "type": "address"
        }
      ],
      "name": "ProxyCreated",
      "type": "event"
    },
    {
      "anonymous": false,
      "inputs": [
        {
          "indexed": true,
          "name": "previousOwner",
          "type": "address"
        },
        {
          "indexed": true,
          "name": "newOwner",
          "type": "address"
        }
      ],
      "name": "OwnershipTransferred",
      "type": "event"
    },
    {
      "constant": true,
      "inputs": [],
      "name": "getLendingPool",
      "outputs": [
        {
          "name": "",
          "type": "address"
        }
      ],
      "payable": false,
      "stateMutability": "view",
      "type": "function"
    },
    {
      "constant": false,
      "inputs": [
        {
          "name": "_pool",
          "type": "address"
        }
      ],
      "name": "setLendingPoolImpl",
      "outputs": [],
      "payable": false,
      "stateMutability": "nonpayable",
      "type": "function"
    },
    {
      "constant": true,
      "inputs": [],
      "name": "getLendingPoolCore",
      "outputs": [
        {
          "name": "",
          "type": "address"
        }
      ],
      "payable": false,
      "stateMutability": "view",
      "type": "function"
    },
    {
      "constant": false,
      "inputs": [
        {
          "name": "_lendingPoolCore",
          "type": "address"
        }
      ],
      "name": "setLendingPoolCoreImpl",
      "outputs": [],
      "payable": false,
      "stateMutability": "nonpayable",
      "type": "function"
    },
    {
      "constant": true,
      "inputs": [],
      "name": "getLendingPoolConfigurator",
      "outputs": [
        {
          "name": "",
          "type": "address"
        }
      ],
      "payable": false,
      "stateMutability": "view",
      "type": "function"
    },
    {
      "constant": false,
      "inputs": [
        {
          "name": "_configurator",
          "type": "address"
        }
      ],
      "name": "setLendingPoolConfiguratorImpl",
      "outputs": [],
      "payable": false,
      "stateMutability": "nonpayable",
      "type": "function"
    },
    {
      "constant": true,
      "inputs": [],
      "name": "getLendingPoolDataProvider",
      "outputs": [
        {
          "name": "",
          "type": "address"
        }
      ],
      "payable": false,
      "stateMutability": "view",
      "type": "function"
    },
    {
      "constant": false,
      "inputs": [
        {
          "name": "_provider",
          "type": "address"
        }
      ],
      "name": "setLendingPoolDataProviderImpl",
      "outputs": [],
      "payable": false,
      "stateMutability": "nonpayable",
      "type": "function"
    },
    {
      "constant": true,
      "inputs": [],
      "name": "getLendingPoolParametersProvider",
      "outputs": [
        {
          "name": "",
          "type": "address"
        }
      ],
      "payable": false,
      "stateMutability": "view",
      "type": "function"
    },
    {
      "constant": false,
      "inputs": [
        {
          "name": "_parametersProvider",
          "type": "address"
        }
      ],
      "name": "setLendingPoolParametersProviderImpl",
      "outputs": [],
      "payable": false,
      "stateMutability": "nonpayable",
      "type": "function"
    },
    {
      "constant": true,
      "inputs": [],
      "name": "getFeeProvider",
      "outputs": [
        {
          "name": "",
          "type": "address"
        }
      ],
      "payable": false,
      "stateMutability": "view",
      "type": "function"
    },
    {
      "constant": false,
      "inputs": [
        {
          "name": "_feeProvider",
          "type": "address"
        }
      ],
      "name": "setFeeProviderImpl",
      "outputs": [],
      "payable": false,
      "stateMutability": "nonpayable",
      "type": "function"
    },
    {
      "constant": true,
      "inputs": [],
      "name": "getLendingPoolLiquidationManager",
      "outputs": [
        {
          "name": "",
          "type": "address"
        }
      ],
      "payable": false,
      "stateMutability": "view",
      "type": "function"
    },
    {
      "constant": false,
      "inputs": [
        {
          "name": "_manager",
          "type": "address"
        }
      ],
      "name": "setLendingPoolLiquidationManager",
      "outputs": [],
      "payable": false,
      "stateMutability": "nonpayable",
      "type": "function"
    },
    {
      "constant": true,
      "inputs": [],
      "name": "getLendingPoolManager",
      "outputs": [
        {
          "name": "",
          "type": "address"
        }
      ],
      "payable": false,
      "stateMutability": "view",
      "type": "function"
    },
    {
      "constant": false,
      "inputs": [
        {
          "name": "_lendingPoolManager",
          "type": "address"
        }
      ],
      "name": "setLendingPoolManager",
      "outputs": [],
      "payable": false,
      "stateMutability": "nonpayable",
      "type": "function"
    },
    {
      "constant": true,
      "inputs": [],
      "name": "getPriceOracle",
      "outputs": [
        {
          "name": "",
          "type": "address"
        }
      ],
      "payable": false,
      "stateMutability": "view",
      "type": "function"
    },
    {
      "constant": false,
      "inputs": [
        {
          "name": "_priceOracle",
          "type": "address"
        }
      ],
      "name": "setPriceOracle",
      "outputs": [],
      "payable": false,
      "stateMutability": "nonpayable",
      "type": "function"
    },
    {
      "constant": true,
      "inputs": [],
      "name": "getLendingRateOracle",
      "outputs": [
        {
          "name": "",
          "type": "address"
        }
      ],
      "payable": false,
      "stateMutability": "view",
      "type": "function"
    },
    {
      "constant": false,
      "inputs": [
        {
          "name": "_lendingRateOracle",
          "type": "address"
        }
      ],
      "name": "setLendingRateOracle",
      "outputs": [],
      "payable": false,
      "stateMutability": "nonpayable",
      "type": "function"
    },
    {
      "constant": true,
      "inputs": [],
      "name": "getTokenDistributor",
      "outputs": [
        {
          "name": "",
          "type": "address"
        }
      ],
      "payable": false,
      "stateMutability": "view",
      "type": "function"
    },
    {
      "constant": false,
      "inputs": [
        {
          "name": "_tokenDistributor",
          "type": "address"
        }
      ],
      "name": "setTokenDistributor",
      "outputs": [],
      "payable": false,
      "stateMutability": "nonpayable",
      "type": "function"
    }
  ],
  "bytecode": "0x608060405261001b6100db640100000000026401000000009004565b6000806101000a81548173ffffffffffffffffffffffffffffffffffffffff021916908373ffffffffffffffffffffffffffffffffffffffff1602179055506000809054906101000a900473ffffffffffffffffffffffffffffffffffffffff1673ffffffffffffffffffffffffffffffffffffffff16600073ffffffffffffffffffffffffffffffffffffffff167f8be0079c531659141344cd1fd0a4f28419497f9722a3daafe3b4186f6b6457e060405160405180910390a36100e3565b600033905090565b6119dd806100f26000396000f3fe608060405234801561001057600080fd5b50d3801561001d57600080fd5b50d2801561002a57600080fd5b50600436106101e0576000357c0100000000000000000000000000000000000000000000000000000000900480635aef021f11610130578063bfedc103116100ce578063ee891296116100a8578063ee89129614610805578063f2fde38b1461084f578063fbeefc3c14610893578063fca513a8146108dd576101e0565b8063bfedc10314610733578063c12542df14610777578063ed6ff760146107bb576101e0565b806385c858b11161010a57806385c858b1146106395780638da5cb5b146106835780638f32d59b146106cd578063a5eface2146106ef576101e0565b80635aef021f146105a7578063715018a6146105eb578063820d1274146105f5576101e0565b806333128d591161019d57806340fdcadc1161017757806340fdcadc1461049157806344ce375b146104d5578063530e784f146105195780635834eb9a1461055d576101e0565b806333128d59146103b95780633618abba1461040357806338280e6b1461044d576101e0565b80630261bf8b146101e557806304061d8e1461022f5780631c8272041461027957806321f8a721146102bd5780632a62c6361461032b5780632f58b80d1461036f575b600080fd5b6101ed610927565b604051808273ffffffffffffffffffffffffffffffffffffffff1673ffffffffffffffffffffffffffffffffffffffff16815260200191505060405180910390f35b610237610957565b604051808273ffffffffffffffffffffffffffffffffffffffff1673ffffffffffffffffffffffffffffffffffffffff16815260200191505060405180910390f35b6102bb6004803603602081101561028f57600080fd5b81019080803573ffffffffffffffffffffffffffffffffffffffff169060200190929190505050610987565b005b6102e9600480360360208110156102d357600080fd5b8101908080359060200190929190505050610a73565b604051808273ffffffffffffffffffffffffffffffffffffffff1673ffffffffffffffffffffffffffffffffffffffff16815260200191505060405180910390f35b61036d6004803603602081101561034157600080fd5b81019080803573ffffffffffffffffffffffffffffffffffffffff169060200190929190505050610ab0565b005b610377610b9c565b604051808273ffffffffffffffffffffffffffffffffffffffff1673ffffffffffffffffffffffffffffffffffffffff16815260200191505060405180910390f35b6103c1610bcc565b604051808273ffffffffffffffffffffffffffffffffffffffff1673ffffffffffffffffffffffffffffffffffffffff16815260200191505060405180910390f35b61040b610bfc565b604051808273ffffffffffffffffffffffffffffffffffffffff1673ffffffffffffffffffffffffffffffffffffffff16815260200191505060405180910390f35b61048f6004803603602081101561046357600080fd5b81019080803573ffffffffffffffffffffffffffffffffffffffff169060200190929190505050610c2c565b005b6104d3600480360360208110156104a757600080fd5b81019080803573ffffffffffffffffffffffffffffffffffffffff169060200190929190505050610d18565b005b610517600480360360208110156104eb57600080fd5b81019080803573ffffffffffffffffffffffffffffffffffffffff169060200190929190505050610e04565b005b61055b6004803603602081101561052f57600080fd5b81019080803573ffffffffffffffffffffffffffffffffffffffff169060200190929190505050610ef0565b005b610565610fdc565b604051808273ffffffffffffffffffffffffffffffffffffffff1673ffffffffffffffffffffffffffffffffffffffff16815260200191505060405180910390f35b6105e9600480360360208110156105bd57600080fd5b81019080803573ffffffffffffffffffffffffffffffffffffffff16906020019092919050505061100c565b005b6105f36110f8565b005b6106376004803603602081101561060b57600080fd5b81019080803573ffffffffffffffffffffffffffffffffffffffff169060200190929190505050611233565b005b61064161131f565b604051808273ffffffffffffffffffffffffffffffffffffffff1673ffffffffffffffffffffffffffffffffffffffff16815260200191505060405180910390f35b61068b61134f565b604051808273ffffffffffffffffffffffffffffffffffffffff1673ffffffffffffffffffffffffffffffffffffffff16815260200191505060405180910390f35b6106d5611378565b604051808215151515815260200191505060405180910390f35b6107316004803603602081101561070557600080fd5b81019080803573ffffffffffffffffffffffffffffffffffffffff1690602001909291905050506113d6565b005b6107756004803603602081101561074957600080fd5b81019080803573ffffffffffffffffffffffffffffffffffffffff1690602001909291905050506114c2565b005b6107b96004803603602081101561078d57600080fd5b81019080803573ffffffffffffffffffffffffffffffffffffffff1690602001909291905050506115ae565b005b6107c361169a565b604051808273ffffffffffffffffffffffffffffffffffffffff1673ffffffffffffffffffffffffffffffffffffffff16815260200191505060405180910390f35b61080d6116cf565b604051808273ffffffffffffffffffffffffffffffffffffffff1673ffffffffffffffffffffffffffffffffffffffff16815260200191505060405180910390f35b6108916004803603602081101561086557600080fd5b81019080803573ffffffffffffffffffffffffffffffffffffffff1690602001909291905050506116ff565b005b61089b611787565b604051808273ffffffffffffffffffffffffffffffffffffffff1673ffffffffffffffffffffffffffffffffffffffff16815260200191505060405180910390f35b6108e56117b7565b604051808273ffffffffffffffffffffffffffffffffffffffff1673ffffffffffffffffffffffffffffffffffffffff16815260200191505060405180910390f35b60006109527f4c454e44494e475f504f4f4c0000000000000000000000000000000000000000610a73565b905090565b60006109827f504152414d45544552535f50524f564944455200000000000000000000000000610a73565b905090565b61098f611378565b1515610a03576040517f08c379a00000000000000000000000000000000000000000000000000000000081526004018080602001828103825260208152602001807f4f776e61626c653a2063616c6c6572206973206e6f7420746865206f776e657281525060200191505060405180910390fd5b610a2d7f4c454e44494e475f504f4f4c5f434f5245000000000000000000000000000000826117e7565b8073ffffffffffffffffffffffffffffffffffffffff167f71c226bb2879778ca1298196bf7cc1256baee9d05b496c31ee627d35a471b5b760405160405180910390a250565b60006001600083815260200190815260200160002060009054906101000a900473ffffffffffffffffffffffffffffffffffffffff169050919050565b610ab8611378565b1515610b2c576040517f08c379a00000000000000000000000000000000000000000000000000000000081526004018080602001828103825260208152602001807f4f776e61626c653a2063616c6c6572206973206e6f7420746865206f776e657281525060200191505060405180910390fd5b610b567f4645455f50524f56494445520000000000000000000000000000000000000000826117e7565b8073ffffffffffffffffffffffffffffffffffffffff167f18e1a55b8eff9c93921eecfa1462d6a8cbb80b3988db3eb14c039e43fdb2266160405160405180910390a250565b6000610bc77f444154415f50524f564944455200000000000000000000000000000000000000610a73565b905090565b6000610bf77f4c454e44494e475f504f4f4c5f4d414e41474552000000000000000000000000610a73565b905090565b6000610c277f4c454e44494e475f524154455f4f5241434c4500000000000000000000000000610a73565b905090565b610c34611378565b1515610ca8576040517f08c379a00000000000000000000000000000000000000000000000000000000081526004018080602001828103825260208152602001807f4f776e61626c653a2063616c6c6572206973206e6f7420746865206f776e657281525060200191505060405180910390fd5b610cd27f544f4b454e5f4449535452494255544f52000000000000000000000000000000826117e7565b8073ffffffffffffffffffffffffffffffffffffffff167fa8b48a56ec01f81c3615a21ec43e16b925c26293e0801cf6330427f2a687f05360405160405180910390a250565b610d20611378565b1515610d94576040517f08c379a00000000000000000000000000000000000000000000000000000000081526004018080602001828103825260208152602001807f4f776e61626c653a2063616c6c6572206973206e6f7420746865206f776e657281525060200191505060405180910390fd5b610dbe7f4c454e44494e475f504f4f4c5f4d414e41474552000000000000000000000000826117e7565b8073ffffffffffffffffffffffffffffffffffffffff167fd5280c51185a38d36f7a0f5e56cac6248312bb70d0974782fa5a595127e0e08e60405160405180910390a250565b610e0c611378565b1515610e80576040517f08c379a00000000000000000000000000000000000000000000000000000000081526004018080602001828103825260208152602001807f4f776e61626c653a2063616c6c6572206973206e6f7420746865206f776e657281525060200191505060405180910390fd5b610eaa7f4c49515549444154494f4e5f4d414e4147455200000000000000000000000000826117e7565b8073ffffffffffffffffffffffffffffffffffffffff167f1a76cb769b814bc038223da86932b099b20aae03473683e6d98f5c3554e2606460405160405180910390a250565b610ef8611378565b1515610f6c576040517f08c379a00000000000000000000000000000000000000000000000000000000081526004018080602001828103825260208152602001807f4f776e61626c653a2063616c6c6572206973206e6f7420746865206f776e657281525060200191505060405180910390fd5b610f967f50524943455f4f5241434c450000000000000000000000000000000000000000826117e7565b8073ffffffffffffffffffffffffffffffffffffffff167fefe8ab924ca486283a79dc604baa67add51afb82af1db8ac386ebbba643cdffd60405160405180910390a250565b60006110077f4c49515549444154494f4e5f4d414e4147455200000000000000000000000000610a73565b905090565b611014611378565b1515611088576040517f08c379a00000000000000000000000000000000000000000000000000000000081526004018080602001828103825260208152602001807f4f776e61626c653a2063616c6c6572206973206e6f7420746865206f776e657281525060200191505060405180910390fd5b6110b27f4c454e44494e475f504f4f4c0000000000000000000000000000000000000000826117e7565b8073ffffffffffffffffffffffffffffffffffffffff167fc4e6c6cdf28d0edbd8bcf071d724d33cc2e7a30be7d06443925656e9cb492aa460405160405180910390a250565b611100611378565b1515611174576040517f08c379a00000000000000000000000000000000000000000000000000000000081526004018080602001828103825260208152602001807f4f776e61626c653a2063616c6c6572206973206e6f7420746865206f776e657281525060200191505060405180910390fd5b600073ffffffffffffffffffffffffffffffffffffffff166000809054906101000a900473ffffffffffffffffffffffffffffffffffffffff1673ffffffffffffffffffffffffffffffffffffffff167f8be0079c531659141344cd1fd0a4f28419497f9722a3daafe3b4186f6b6457e060405160405180910390a360008060006101000a81548173ffffffffffffffffffffffffffffffffffffffff021916908373ffffffffffffffffffffffffffffffffffffffff160217905550565b61123b611378565b15156112af576040517f08c379a00000000000000000000000000000000000000000000000000000000081526004018080602001828103825260208152602001807f4f776e61626c653a2063616c6c6572206973206e6f7420746865206f776e657281525060200191505060405180910390fd5b6112d97f4c454e44494e475f524154455f4f5241434c4500000000000000000000000000826117e7565b8073ffffffffffffffffffffffffffffffffffffffff167f5c29179aba6942020a8a2d38f65de02fb6b7f784e7f049ed3a3cab97621859b560405160405180910390a250565b600061134a7f4c454e44494e475f504f4f4c5f434f4e464947555241544f5200000000000000610a73565b905090565b60008060009054906101000a900473ffffffffffffffffffffffffffffffffffffffff16905090565b60008060009054906101000a900473ffffffffffffffffffffffffffffffffffffffff1673ffffffffffffffffffffffffffffffffffffffff166113ba61183d565b73ffffffffffffffffffffffffffffffffffffffff1614905090565b6113de611378565b1515611452576040517f08c379a00000000000000000000000000000000000000000000000000000000081526004018080602001828103825260208152602001807f4f776e61626c653a2063616c6c6572206973206e6f7420746865206f776e657281525060200191505060405180910390fd5b61147c7f504152414d45544552535f50524f564944455200000000000000000000000000826117e7565b8073ffffffffffffffffffffffffffffffffffffffff167fce16ea9b2fd7cadddd0f7359971028f50b5ddba33dfae1a9bdea956fabb1e28060405160405180910390a250565b6114ca611378565b151561153e576040517f08c379a00000000000000000000000000000000000000000000000000000000081526004018080602001828103825260208152602001807f4f776e61626c653a2063616c6c6572206973206e6f7420746865206f776e657281525060200191505060405180910390fd5b6115687f444154415f50524f564944455200000000000000000000000000000000000000826117e7565b8073ffffffffffffffffffffffffffffffffffffffff167f07890d7d10db37434d76ee4f2928fb2dc66227c3b3391206aced4f7bcb59cdb060405160405180910390a250565b6115b6611378565b151561162a576040517f08c379a00000000000000000000000000000000000000000000000000000000081526004018080602001828103825260208152602001807f4f776e61626c653a2063616c6c6572206973206e6f7420746865206f776e657281525060200191505060405180910390fd5b6116547f4c454e44494e475f504f4f4c5f434f4e464947555241544f5200000000000000826117e7565b8073ffffffffffffffffffffffffffffffffffffffff167fdfabe479bad36782fb1e77fbfddd4e382671713527e4786cfc93a022ae76372960405160405180910390a250565b6000806116c67f4c454e44494e475f504f4f4c5f434f5245000000000000000000000000000000610a73565b90508091505090565b60006116fa7f544f4b454e5f4449535452494255544f52000000000000000000000000000000610a73565b905090565b611707611378565b151561177b576040517f08c379a00000000000000000000000000000000000000000000000000000000081526004018080602001828103825260208152602001807f4f776e61626c653a2063616c6c6572206973206e6f7420746865206f776e657281525060200191505060405180910390fd5b61178481611845565b50565b60006117b27f4645455f50524f56494445520000000000000000000000000000000000000000610a73565b905090565b60006117e27f50524943455f4f5241434c450000000000000000000000000000000000000000610a73565b905090565b806001600084815260200190815260200160002060006101000a81548173ffffffffffffffffffffffffffffffffffffffff021916908373ffffffffffffffffffffffffffffffffffffffff1602179055505050565b600033905090565b600073ffffffffffffffffffffffffffffffffffffffff168173ffffffffffffffffffffffffffffffffffffffff16141515156118cd576040517f08c379a000000000000000000000000000000000000000000000000000000000815260040180806020018281038252602681526020018061198c6026913960400191505060405180910390fd5b8073ffffffffffffffffffffffffffffffffffffffff166000809054906101000a900473ffffffffffffffffffffffffffffffffffffffff1673ffffffffffffffffffffffffffffffffffffffff167f8be0079c531659141344cd1fd0a4f28419497f9722a3daafe3b4186f6b6457e060405160405180910390a3806000806101000a81548173ffffffffffffffffffffffffffffffffffffffff021916908373ffffffffffffffffffffffffffffffffffffffff1602179055505056fe4f776e61626c653a206e6577206f776e657220697320746865207a65726f2061646472657373a165627a7a72305820a6ad0a6f02ebb857cfd4abaf3e8e4becb8c80b5baebcf1c8e4250e05d8bbfcdd0029",
  "source": "pragma solidity ^0.5.0;\n\nimport \"../libraries/openzeppelin-solidity/contracts/ownership/Ownable.sol\";\nimport \"../libraries/openzeppelin-upgradeability/InitializableAdminUpgradeabilityProxy.sol\";\n\nimport \"./AddressStorage.sol\";\nimport \"../interfaces/ILendingPoolAddressesProvider.sol\";\n\n/**\n* @title LendingPoolAddressesProvider contract\n* @notice Is the main registry of the protocol. All the different components of the protocol are accessible\n* through the addresses provider.\n* @author Aave\n**/\n\ncontract LendingPoolAddressesProvider is Ownable, ILendingPoolAddressesProvider, AddressStorage {\n    //events\n    event LendingPoolUpdated(address indexed newAddress);\n    event LendingPoolCoreUpdated(address indexed newAddress);\n    event LendingPoolParametersProviderUpdated(address indexed newAddress);\n    event LendingPoolManagerUpdated(address indexed newAddress);\n    event LendingPoolConfiguratorUpdated(address indexed newAddress);\n    event LendingPoolLiquidationManagerUpdated(address indexed newAddress);\n    event LendingPoolDataProviderUpdated(address indexed newAddress);\n    event EthereumAddressUpdated(address indexed newAddress);\n    event PriceOracleUpdated(address indexed newAddress);\n    event LendingRateOracleUpdated(address indexed newAddress);\n    event FeeProviderUpdated(address indexed newAddress);\n    event TokenDistributorUpdated(address indexed newAddress);\n\n    event ProxyCreated(bytes32 id, address indexed newAddress);\n\n    bytes32 private constant LENDING_POOL = \"LENDING_POOL\";\n    bytes32 private constant LENDING_POOL_CORE = \"LENDING_POOL_CORE\";\n    bytes32 private constant LENDING_POOL_CONFIGURATOR = \"LENDING_POOL_CONFIGURATOR\";\n    bytes32 private constant LENDING_POOL_PARAMETERS_PROVIDER = \"PARAMETERS_PROVIDER\";\n    bytes32 private constant LENDING_POOL_MANAGER = \"LENDING_POOL_MANAGER\";\n    bytes32 private constant LENDING_POOL_LIQUIDATION_MANAGER = \"LIQUIDATION_MANAGER\";\n    bytes32 private constant LENDING_POOL_FLASHLOAN_PROVIDER = \"FLASHLOAN_PROVIDER\";\n    bytes32 private constant DATA_PROVIDER = \"DATA_PROVIDER\";\n    bytes32 private constant ETHEREUM_ADDRESS = \"ETHEREUM_ADDRESS\";\n    bytes32 private constant PRICE_ORACLE = \"PRICE_ORACLE\";\n    bytes32 private constant LENDING_RATE_ORACLE = \"LENDING_RATE_ORACLE\";\n    bytes32 private constant FEE_PROVIDER = \"FEE_PROVIDER\";\n    bytes32 private constant WALLET_BALANCE_PROVIDER = \"WALLET_BALANCE_PROVIDER\";\n    bytes32 private constant TOKEN_DISTRIBUTOR = \"TOKEN_DISTRIBUTOR\";\n\n\n    /**\n    * @dev returns the address of the LendingPool proxy\n    * @return the lending pool proxy address\n    **/\n    function getLendingPool() public view returns (address) {\n        return getAddress(LENDING_POOL);\n    }\n\n\n    /**\n    * @dev updates the implementation of the lending pool\n    * @param _pool the new lending pool implementation\n    **/\n    function setLendingPoolImpl(address _pool) public onlyOwner {\n        _setAddress(LENDING_POOL, _pool);\n        emit LendingPoolUpdated(_pool);\n    }\n\n    /**\n    * @dev returns the address of the LendingPoolCore proxy\n    * @return the lending pool core proxy address\n     */\n    function getLendingPoolCore() public view returns (address payable) {\n        address payable core = address(uint160(getAddress(LENDING_POOL_CORE)));\n        return core;\n    }\n\n    /**\n    * @dev updates the implementation of the lending pool core\n    * @param _lendingPoolCore the new lending pool core implementation\n    **/\n    function setLendingPoolCoreImpl(address _lendingPoolCore) public onlyOwner {\n        _setAddress(LENDING_POOL_CORE, _lendingPoolCore);\n        emit LendingPoolCoreUpdated(_lendingPoolCore);\n    }\n\n    /**\n    * @dev returns the address of the LendingPoolConfigurator proxy\n    * @return the lending pool configurator proxy address\n    **/\n    function getLendingPoolConfigurator() public view returns (address) {\n        return getAddress(LENDING_POOL_CONFIGURATOR);\n    }\n\n    /**\n    * @dev updates the implementation of the lending pool configurator\n    * @param _configurator the new lending pool configurator implementation\n    **/\n    function setLendingPoolConfiguratorImpl(address _configurator) public onlyOwner {\n        _setAddress(LENDING_POOL_CONFIGURATOR, _configurator);\n        emit LendingPoolConfiguratorUpdated(_configurator);\n    }\n\n    /**\n    * @dev returns the address of the LendingPoolDataProvider proxy\n    * @return the lending pool data provider proxy address\n     */\n    function getLendingPoolDataProvider() public view returns (address) {\n        return getAddress(DATA_PROVIDER);\n    }\n\n    /**\n    * @dev updates the implementation of the lending pool data provider\n    * @param _provider the new lending pool data provider implementation\n    **/\n    function setLendingPoolDataProviderImpl(address _provider) public onlyOwner {\n        _setAddress(DATA_PROVIDER, _provider);\n        emit LendingPoolDataProviderUpdated(_provider);\n    }\n\n    /**\n    * @dev returns the address of the LendingPoolParametersProvider proxy\n    * @return the address of the Lending pool parameters provider proxy\n    **/\n    function getLendingPoolParametersProvider() public view returns (address) {\n        return getAddress(LENDING_POOL_PARAMETERS_PROVIDER);\n    }\n\n    /**\n    * @dev updates the implementation of the lending pool parameters provider\n    * @param _parametersProvider the new lending pool parameters provider implementation\n    **/\n    function setLendingPoolParametersProviderImpl(address _parametersProvider) public onlyOwner {\n        _setAddress(LENDING_POOL_PARAMETERS_PROVIDER, _parametersProvider);\n        emit LendingPoolParametersProviderUpdated(_parametersProvider);\n    }\n\n    /**\n    * @dev returns the address of the FeeProvider proxy\n    * @return the address of the Fee provider proxy\n    **/\n    function getFeeProvider() public view returns (address) {\n        return getAddress(FEE_PROVIDER);\n    }\n\n    /**\n    * @dev updates the implementation of the FeeProvider proxy\n    * @param _feeProvider the new lending pool fee provider implementation\n    **/\n    function setFeeProviderImpl(address _feeProvider) public onlyOwner {\n        _setAddress(FEE_PROVIDER, _feeProvider);\n        emit FeeProviderUpdated(_feeProvider);\n    }\n\n    /**\n    * @dev returns the address of the LendingPoolLiquidationManager. Since the manager is used\n    * through delegateCall within the LendingPool contract, the proxy contract pattern does not work properly hence\n    * the addresses are changed directly.\n    * @return the address of the Lending pool liquidation manager\n    **/\n\n    function getLendingPoolLiquidationManager() public view returns (address) {\n        return getAddress(LENDING_POOL_LIQUIDATION_MANAGER);\n    }\n\n    /**\n    * @dev updates the address of the Lending pool liquidation manager\n    * @param _manager the new lending pool liquidation manager address\n    **/\n    function setLendingPoolLiquidationManager(address _manager) public onlyOwner {\n        _setAddress(LENDING_POOL_LIQUIDATION_MANAGER, _manager);\n        emit LendingPoolLiquidationManagerUpdated(_manager);\n    }\n\n    /**\n    * @dev the functions below are storing specific addresses that are outside the context of the protocol\n    * hence the upgradable proxy pattern is not used\n    **/\n\n\n    function getLendingPoolManager() public view returns (address) {\n        return getAddress(LENDING_POOL_MANAGER);\n    }\n\n    function setLendingPoolManager(address _lendingPoolManager) public onlyOwner {\n        _setAddress(LENDING_POOL_MANAGER, _lendingPoolManager);\n        emit LendingPoolManagerUpdated(_lendingPoolManager);\n    }\n\n    function getPriceOracle() public view returns (address) {\n        return getAddress(PRICE_ORACLE);\n    }\n\n    function setPriceOracle(address _priceOracle) public onlyOwner {\n        _setAddress(PRICE_ORACLE, _priceOracle);\n        emit PriceOracleUpdated(_priceOracle);\n    }\n\n    function getLendingRateOracle() public view returns (address) {\n        return getAddress(LENDING_RATE_ORACLE);\n    }\n\n    function setLendingRateOracle(address _lendingRateOracle) public onlyOwner {\n        _setAddress(LENDING_RATE_ORACLE, _lendingRateOracle);\n        emit LendingRateOracleUpdated(_lendingRateOracle);\n    }\n\n\n    function getTokenDistributor() public view returns (address) {\n        return getAddress(TOKEN_DISTRIBUTOR);\n    }\n\n    function setTokenDistributor(address _tokenDistributor) public onlyOwner {\n        _setAddress(TOKEN_DISTRIBUTOR, _tokenDistributor);\n        emit TokenDistributorUpdated(_tokenDistributor);\n    }\n\n\n    /**\n    * @dev internal function to update the implementation of a specific component of the protocol\n    * @param _id the id of the contract to be updated\n    * @param _newAddress the address of the new implementation\n    **/\n    function updateImplInternal(bytes32 _id, address _newAddress) internal {\n        address payable proxyAddress = address(uint160(getAddress(_id)));\n\n        InitializableAdminUpgradeabilityProxy proxy = InitializableAdminUpgradeabilityProxy(proxyAddress);\n        bytes memory params = abi.encodeWithSignature(\"initialize(address)\", address(this));\n\n        if (proxyAddress == address(0)) {\n            proxy = new InitializableAdminUpgradeabilityProxy();\n            proxy.initialize(_newAddress, address(this), params);\n            _setAddress(_id, address(proxy));\n            emit ProxyCreated(_id, address(proxy));\n        } else {\n            proxy.upgradeToAndCall(_newAddress, params);\n        }\n\n    }\n}\n",
  "sourcePath": "/Users/bibodeng/Programming/water_loan_core/contracts/configuration/LendingPoolAddressesProvider.sol",
  "compiler": {
    "name": "solc",
    "version": "0.5.4+commit.d15a3125.mod.Emscripten.clang"
  },
  "schemaVersion": "2.0.1",
  "updatedAt": "2020-12-06T14:57:48.059Z"
}