{
  "contractName": "LendingPoolDataProvider",
  "abi": [
    {
      "constant": true,
      "inputs": [],
      "name": "DATA_PROVIDER_REVISION",
      "outputs": [
        {
          "name": "",
          "type": "uint256"
        }
      ],
      "payable": false,
      "stateMutability": "view",
      "type": "function"
    },
    {
      "constant": true,
      "inputs": [],
      "name": "HEALTH_FACTOR_LIQUIDATION_THRESHOLD",
      "outputs": [
        {
          "name": "",
          "type": "uint256"
        }
      ],
      "payable": false,
      "stateMutability": "view",
      "type": "function"
    },
    {
      "constant": true,
      "inputs": [],
      "name": "addressesProvider",
      "outputs": [
        {
          "name": "",
          "type": "address"
        }
      ],
      "payable": false,
      "stateMutability": "view",
      "type": "function"
    },
    {
      "constant": true,
      "inputs": [],
      "name": "core",
      "outputs": [
        {
          "name": "",
          "type": "address"
        }
      ],
      "payable": false,
      "stateMutability": "view",
      "type": "function"
    },
    {
      "constant": false,
      "inputs": [
        {
          "name": "_addressesProvider",
          "type": "address"
        }
      ],
      "name": "initialize",
      "outputs": [],
      "payable": false,
      "stateMutability": "nonpayable",
      "type": "function"
    },
    {
      "constant": true,
      "inputs": [
        {
          "name": "_user",
          "type": "address"
        }
      ],
      "name": "calculateUserGlobalData",
      "outputs": [
        {
          "name": "totalLiquidityBalanceTRX",
          "type": "uint256"
        },
        {
          "name": "totalCollateralBalanceTRX",
          "type": "uint256"
        },
        {
          "name": "totalBorrowBalanceTRX",
          "type": "uint256"
        },
        {
          "name": "totalFeesTRX",
          "type": "uint256"
        },
        {
          "name": "currentLtv",
          "type": "uint256"
        },
        {
          "name": "currentLiquidationThreshold",
          "type": "uint256"
        },
        {
          "name": "healthFactor",
          "type": "uint256"
        },
        {
          "name": "healthFactorBelowThreshold",
          "type": "bool"
        }
      ],
      "payable": false,
      "stateMutability": "view",
      "type": "function"
    },
    {
      "constant": true,
      "inputs": [
        {
          "name": "_reserve",
          "type": "address"
        },
        {
          "name": "_user",
          "type": "address"
        },
        {
          "name": "_amount",
          "type": "uint256"
        }
      ],
      "name": "balanceDecreaseAllowed",
      "outputs": [
        {
          "name": "",
          "type": "bool"
        }
      ],
      "payable": false,
      "stateMutability": "view",
      "type": "function"
    },
    {
      "constant": true,
      "inputs": [
        {
          "name": "_reserve",
          "type": "address"
        },
        {
          "name": "_amount",
          "type": "uint256"
        },
        {
          "name": "_fee",
          "type": "uint256"
        },
        {
          "name": "_userCurrentBorrowBalanceTH",
          "type": "uint256"
        },
        {
          "name": "_userCurrentFeesTRX",
          "type": "uint256"
        },
        {
          "name": "_userCurrentLtv",
          "type": "uint256"
        }
      ],
      "name": "calculateCollateralNeededInTRX",
      "outputs": [
        {
          "name": "",
          "type": "uint256"
        }
      ],
      "payable": false,
      "stateMutability": "view",
      "type": "function"
    },
    {
      "constant": true,
      "inputs": [],
      "name": "getHealthFactorLiquidationThreshold",
      "outputs": [
        {
          "name": "",
          "type": "uint256"
        }
      ],
      "payable": false,
      "stateMutability": "pure",
      "type": "function"
    },
    {
      "constant": true,
      "inputs": [
        {
          "name": "_reserve",
          "type": "address"
        }
      ],
      "name": "getReserveConfigurationData",
      "outputs": [
        {
          "name": "ltv",
          "type": "uint256"
        },
        {
          "name": "liquidationThreshold",
          "type": "uint256"
        },
        {
          "name": "liquidationBonus",
          "type": "uint256"
        },
        {
          "name": "rateStrategyAddress",
          "type": "address"
        },
        {
          "name": "usageAsCollateralEnabled",
          "type": "bool"
        },
        {
          "name": "borrowingEnabled",
          "type": "bool"
        },
        {
          "name": "stableBorrowRateEnabled",
          "type": "bool"
        },
        {
          "name": "isActive",
          "type": "bool"
        }
      ],
      "payable": false,
      "stateMutability": "view",
      "type": "function"
    },
    {
      "constant": true,
      "inputs": [
        {
          "name": "_reserve",
          "type": "address"
        }
      ],
      "name": "getReserveData",
      "outputs": [
        {
          "name": "totalLiquidity",
          "type": "uint256"
        },
        {
          "name": "availableLiquidity",
          "type": "uint256"
        },
        {
          "name": "totalBorrowsStable",
          "type": "uint256"
        },
        {
          "name": "totalBorrowsVariable",
          "type": "uint256"
        },
        {
          "name": "liquidityRate",
          "type": "uint256"
        },
        {
          "name": "variableBorrowRate",
          "type": "uint256"
        },
        {
          "name": "stableBorrowRate",
          "type": "uint256"
        },
        {
          "name": "averageStableBorrowRate",
          "type": "uint256"
        },
        {
          "name": "utilizationRate",
          "type": "uint256"
        },
        {
          "name": "liquidityIndex",
          "type": "uint256"
        },
        {
          "name": "variableBorrowIndex",
          "type": "uint256"
        },
        {
          "name": "aTokenAddress",
          "type": "address"
        },
        {
          "name": "lastUpdateTimestamp",
          "type": "uint40"
        }
      ],
      "payable": false,
      "stateMutability": "view",
      "type": "function"
    },
    {
      "constant": true,
      "inputs": [
        {
          "name": "_user",
          "type": "address"
        }
      ],
      "name": "getUserAccountData",
      "outputs": [
        {
          "name": "totalLiquidityTRX",
          "type": "uint256"
        },
        {
          "name": "totalCollateralTRX",
          "type": "uint256"
        },
        {
          "name": "totalBorrowsTRX",
          "type": "uint256"
        },
        {
          "name": "totalFeesTRX",
          "type": "uint256"
        },
        {
          "name": "availableBorrowsTRX",
          "type": "uint256"
        },
        {
          "name": "currentLiquidationThreshold",
          "type": "uint256"
        },
        {
          "name": "ltv",
          "type": "uint256"
        },
        {
          "name": "healthFactor",
          "type": "uint256"
        }
      ],
      "payable": false,
      "stateMutability": "view",
      "type": "function"
    },
    {
      "constant": true,
      "inputs": [
        {
          "name": "_reserve",
          "type": "address"
        },
        {
          "name": "_user",
          "type": "address"
        }
      ],
      "name": "getUserReserveData",
      "outputs": [
        {
          "name": "currentATokenBalance",
          "type": "uint256"
        },
        {
          "name": "currentBorrowBalance",
          "type": "uint256"
        },
        {
          "name": "principalBorrowBalance",
          "type": "uint256"
        },
        {
          "name": "borrowRateMode",
          "type": "uint256"
        },
        {
          "name": "borrowRate",
          "type": "uint256"
        },
        {
          "name": "liquidityRate",
          "type": "uint256"
        },
        {
          "name": "originationFee",
          "type": "uint256"
        },
        {
          "name": "variableBorrowIndex",
          "type": "uint256"
        },
        {
          "name": "lastUpdateTimestamp",
          "type": "uint256"
        },
        {
          "name": "usageAsCollateralEnabled",
          "type": "bool"
        }
      ],
      "payable": false,
      "stateMutability": "view",
      "type": "function"
    }
  ],
  "bytecode": "0x6080604052600080553480156200001557600080fd5b50d380156200002357600080fd5b50d280156200003157600080fd5b5061414180620000426000396000f3fe608060405234801561001057600080fd5b50d3801561001d57600080fd5b50d2801561002a57600080fd5b5060043610610106576000357c0100000000000000000000000000000000000000000000000000000000900480638daf609f116100c3578063c3525c281161009d578063c3525c28146105d3578063c4d66de8146105f1578063c72c4d1014610635578063f2f4eb261461067f57610106565b80638daf609f146104a2578063ac776f41146104c0578063bf92857c1461054a57610106565b806328dd2d011461010b5780632c6d0e9b146101c657806335ea6a75146102535780633e150141146103395780633e44bee8146103fe57806376e9d6151461041c575b600080fd5b61016d6004803603604081101561012157600080fd5b81019080803573ffffffffffffffffffffffffffffffffffffffff169060200190929190803573ffffffffffffffffffffffffffffffffffffffff1690602001909291905050506106c9565b604051808b81526020018a8152602001898152602001888152602001878152602001868152602001858152602001848152602001838152602001821515151581526020019a505050505050505050505060405180910390f35b610208600480360360208110156101dc57600080fd5b81019080803573ffffffffffffffffffffffffffffffffffffffff169060200190929190505050611346565b60405180898152602001888152602001878152602001868152602001858152602001848152602001838152602001821515151581526020019850505050505050505060405180910390f35b6102956004803603602081101561026957600080fd5b81019080803573ffffffffffffffffffffffffffffffffffffffff169060200190929190505050611b5a565b604051808e81526020018d81526020018c81526020018b81526020018a81526020018981526020018881526020018781526020018681526020018581526020018481526020018373ffffffffffffffffffffffffffffffffffffffff1673ffffffffffffffffffffffffffffffffffffffff1681526020018264ffffffffff1664ffffffffff1681526020019d505050505050505050505050505060405180910390f35b61037b6004803603602081101561034f57600080fd5b81019080803573ffffffffffffffffffffffffffffffffffffffff169060200190929190505050612817565b604051808981526020018881526020018781526020018673ffffffffffffffffffffffffffffffffffffffff1673ffffffffffffffffffffffffffffffffffffffff168152602001851515151581526020018415151515815260200183151515158152602001821515151581526020019850505050505050505060405180910390f35b610406612e2a565b6040518082815260200191505060405180910390f35b6104886004803603606081101561043257600080fd5b81019080803573ffffffffffffffffffffffffffffffffffffffff169060200190929190803573ffffffffffffffffffffffffffffffffffffffff16906020019092919080359060200190929190505050612e3a565b604051808215151515815260200191505060405180910390f35b6104aa6133bd565b6040518082815260200191505060405180910390f35b610534600480360360c08110156104d657600080fd5b81019080803573ffffffffffffffffffffffffffffffffffffffff16906020019092919080359060200190929190803590602001909291908035906020019092919080359060200190929190803590602001909291905050506133c2565b6040518082815260200191505060405180910390f35b61058c6004803603602081101561056057600080fd5b81019080803573ffffffffffffffffffffffffffffffffffffffff1690602001909291905050506136f0565b604051808981526020018881526020018781526020018681526020018581526020018481526020018381526020018281526020019850505050505050505060405180910390f35b6105db61373b565b6040518082815260200191505060405180910390f35b6106336004803603602081101561060757600080fd5b81019080803573ffffffffffffffffffffffffffffffffffffffff169060200190929190505050613747565b005b61063d613957565b604051808273ffffffffffffffffffffffffffffffffffffffff1673ffffffffffffffffffffffffffffffffffffffff16815260200191505060405180910390f35b61068761397d565b604051808273ffffffffffffffffffffffffffffffffffffffff1673ffffffffffffffffffffffffffffffffffffffff16815260200191505060405180910390f35b600080600080600080600080600080603460009054906101000a900473ffffffffffffffffffffffffffffffffffffffff1673ffffffffffffffffffffffffffffffffffffffff166334b3beee8d6040518263ffffffff167c0100000000000000000000000000000000000000000000000000000000028152600401808273ffffffffffffffffffffffffffffffffffffffff1673ffffffffffffffffffffffffffffffffffffffff16815260200191505060206040518083038186803b15801561079357600080fd5b505afa1580156107a7573d6000803e3d6000fd5b505050506040513d60208110156107bd57600080fd5b810190808051906020019092919050505073ffffffffffffffffffffffffffffffffffffffff166370a082318c6040518263ffffffff167c0100000000000000000000000000000000000000000000000000000000028152600401808273ffffffffffffffffffffffffffffffffffffffff1673ffffffffffffffffffffffffffffffffffffffff16815260200191505060206040518083038186803b15801561086657600080fd5b505afa15801561087a573d6000803e3d6000fd5b505050506040513d602081101561089057600080fd5b810190808051906020019092919050505099506000603460009054906101000a900473ffffffffffffffffffffffffffffffffffffffff1673ffffffffffffffffffffffffffffffffffffffff16631ca19f198e8e6040518363ffffffff167c0100000000000000000000000000000000000000000000000000000000028152600401808373ffffffffffffffffffffffffffffffffffffffff1673ffffffffffffffffffffffffffffffffffffffff1681526020018273ffffffffffffffffffffffffffffffffffffffff1673ffffffffffffffffffffffffffffffffffffffff1681526020019250505060206040518083038186803b15801561099457600080fd5b505afa1580156109a8573d6000803e3d6000fd5b505050506040513d60208110156109be57600080fd5b81019080805190602001909291905050509050603460009054906101000a900473ffffffffffffffffffffffffffffffffffffffff1673ffffffffffffffffffffffffffffffffffffffff16639fb8afcd8e8e6040518363ffffffff167c0100000000000000000000000000000000000000000000000000000000028152600401808373ffffffffffffffffffffffffffffffffffffffff1673ffffffffffffffffffffffffffffffffffffffff1681526020018273ffffffffffffffffffffffffffffffffffffffff1673ffffffffffffffffffffffffffffffffffffffff1681526020019250505060606040518083038186803b158015610ac057600080fd5b505afa158015610ad4573d6000803e3d6000fd5b505050506040513d6060811015610aea57600080fd5b8101908080519060200190929190805190602001909291908051906020019092919050505050809b50819a50505060016002811115610b2557fe5b816002811115610b3157fe5b1415610c6857603460009054906101000a900473ffffffffffffffffffffffffffffffffffffffff1673ffffffffffffffffffffffffffffffffffffffff16636fffab0c8e8e6040518363ffffffff167c0100000000000000000000000000000000000000000000000000000000028152600401808373ffffffffffffffffffffffffffffffffffffffff1673ffffffffffffffffffffffffffffffffffffffff1681526020018273ffffffffffffffffffffffffffffffffffffffff1673ffffffffffffffffffffffffffffffffffffffff1681526020019250505060206040518083038186803b158015610c2657600080fd5b505afa158015610c3a573d6000803e3d6000fd5b505050506040513d6020811015610c5057600080fd5b81019080805190602001909291905050509650610d80565b600280811115610c7457fe5b816002811115610c8057fe5b1415610d7f57603460009054906101000a900473ffffffffffffffffffffffffffffffffffffffff1673ffffffffffffffffffffffffffffffffffffffff1663906c0a418e6040518263ffffffff167c0100000000000000000000000000000000000000000000000000000000028152600401808273ffffffffffffffffffffffffffffffffffffffff1673ffffffffffffffffffffffffffffffffffffffff16815260200191505060206040518083038186803b158015610d4157600080fd5b505afa158015610d55573d6000803e3d6000fd5b505050506040513d6020811015610d6b57600080fd5b810190808051906020019092919050505096505b5b806002811115610d8c57fe5b9750603460009054906101000a900473ffffffffffffffffffffffffffffffffffffffff1673ffffffffffffffffffffffffffffffffffffffff1663c540148e8e6040518263ffffffff167c0100000000000000000000000000000000000000000000000000000000028152600401808273ffffffffffffffffffffffffffffffffffffffff1673ffffffffffffffffffffffffffffffffffffffff16815260200191505060206040518083038186803b158015610e4957600080fd5b505afa158015610e5d573d6000803e3d6000fd5b505050506040513d6020811015610e7357600080fd5b81019080805190602001909291905050509550603460009054906101000a900473ffffffffffffffffffffffffffffffffffffffff1673ffffffffffffffffffffffffffffffffffffffff1663feab31ac8e8e6040518363ffffffff167c0100000000000000000000000000000000000000000000000000000000028152600401808373ffffffffffffffffffffffffffffffffffffffff1673ffffffffffffffffffffffffffffffffffffffff1681526020018273ffffffffffffffffffffffffffffffffffffffff1673ffffffffffffffffffffffffffffffffffffffff1681526020019250505060206040518083038186803b158015610f7557600080fd5b505afa158015610f89573d6000803e3d6000fd5b505050506040513d6020811015610f9f57600080fd5b81019080805190602001909291905050509450603460009054906101000a900473ffffffffffffffffffffffffffffffffffffffff1673ffffffffffffffffffffffffffffffffffffffff1663f6ea8d768e8e6040518363ffffffff167c0100000000000000000000000000000000000000000000000000000000028152600401808373ffffffffffffffffffffffffffffffffffffffff1673ffffffffffffffffffffffffffffffffffffffff1681526020018273ffffffffffffffffffffffffffffffffffffffff1673ffffffffffffffffffffffffffffffffffffffff1681526020019250505060206040518083038186803b1580156110a157600080fd5b505afa1580156110b5573d6000803e3d6000fd5b505050506040513d60208110156110cb57600080fd5b81019080805190602001909291905050509350603460009054906101000a900473ffffffffffffffffffffffffffffffffffffffff1673ffffffffffffffffffffffffffffffffffffffff166366d103f38e8e6040518363ffffffff167c0100000000000000000000000000000000000000000000000000000000028152600401808373ffffffffffffffffffffffffffffffffffffffff1673ffffffffffffffffffffffffffffffffffffffff1681526020018273ffffffffffffffffffffffffffffffffffffffff1673ffffffffffffffffffffffffffffffffffffffff1681526020019250505060206040518083038186803b1580156111cd57600080fd5b505afa1580156111e1573d6000803e3d6000fd5b505050506040513d60208110156111f757600080fd5b81019080805190602001909291905050509250603460009054906101000a900473ffffffffffffffffffffffffffffffffffffffff1673ffffffffffffffffffffffffffffffffffffffff16639e3c4f3b8e8e6040518363ffffffff167c0100000000000000000000000000000000000000000000000000000000028152600401808373ffffffffffffffffffffffffffffffffffffffff1673ffffffffffffffffffffffffffffffffffffffff1681526020018273ffffffffffffffffffffffffffffffffffffffff1673ffffffffffffffffffffffffffffffffffffffff1681526020019250505060206040518083038186803b1580156112f957600080fd5b505afa15801561130d573d6000803e3d6000fd5b505050506040513d602081101561132357600080fd5b81019080805190602001909291905050509150509295989b9194979a5092959850565b6000806000806000806000806000603560009054906101000a900473ffffffffffffffffffffffffffffffffffffffff1673ffffffffffffffffffffffffffffffffffffffff1663fca513a86040518163ffffffff167c010000000000000000000000000000000000000000000000000000000002815260040160206040518083038186803b1580156113d857600080fd5b505afa1580156113ec573d6000803e3d6000fd5b505050506040513d602081101561140257600080fd5b8101908080519060200190929190505050905061141d613ff4565b6060603460009054906101000a900473ffffffffffffffffffffffffffffffffffffffff1673ffffffffffffffffffffffffffffffffffffffff16630902f1ac6040518163ffffffff167c010000000000000000000000000000000000000000000000000000000002815260040160006040518083038186803b1580156114a357600080fd5b505afa1580156114b7573d6000803e3d6000fd5b505050506040513d6000823e3d601f19601f8201168201806040525060208110156114e157600080fd5b8101908080516401000000008111156114f957600080fd5b8281019050602081018481111561150f57600080fd5b815185602082028301116401000000008211171561152c57600080fd5b5050929190505050905060008090505b8151811015611ae657818181518110151561155357fe5b9060200190602002015183610140019073ffffffffffffffffffffffffffffffffffffffff16908173ffffffffffffffffffffffffffffffffffffffff1681525050603460009054906101000a900473ffffffffffffffffffffffffffffffffffffffff1673ffffffffffffffffffffffffffffffffffffffff1663e10076ad8461014001518f6040518363ffffffff167c0100000000000000000000000000000000000000000000000000000000028152600401808373ffffffffffffffffffffffffffffffffffffffff1673ffffffffffffffffffffffffffffffffffffffff1681526020018273ffffffffffffffffffffffffffffffffffffffff1673ffffffffffffffffffffffffffffffffffffffff1681526020019250505060806040518083038186803b15801561168957600080fd5b505afa15801561169d573d6000803e3d6000fd5b505050506040513d60808110156116b357600080fd5b810190808051906020019092919080519060200190929190805190602001909291908051906020019092919050505086604001876060018860e001896101200184151515158152508481525084815250848152505050505060008360400151148015611723575060008360600151145b1561172d57611ad9565b603460009054906101000a900473ffffffffffffffffffffffffffffffffffffffff1673ffffffffffffffffffffffffffffffffffffffff16635fc526ff8461014001516040518263ffffffff167c0100000000000000000000000000000000000000000000000000000000028152600401808273ffffffffffffffffffffffffffffffffffffffff1673ffffffffffffffffffffffffffffffffffffffff16815260200191505060806040518083038186803b1580156117ed57600080fd5b505afa158015611801573d6000803e3d6000fd5b505050506040513d608081101561181757600080fd5b8101908080519060200190929190805190602001909291908051906020019092919080519060200190929190505050866080018760a0018860c00189610100018415151515815250848152508481525084815250505050508260800151600a0a8360200181815250508373ffffffffffffffffffffffffffffffffffffffff1663b3596f078461014001516040518263ffffffff167c0100000000000000000000000000000000000000000000000000000000028152600401808273ffffffffffffffffffffffffffffffffffffffff1673ffffffffffffffffffffffffffffffffffffffff16815260200191505060206040518083038186803b15801561191e57600080fd5b505afa158015611932573d6000803e3d6000fd5b505050506040513d602081101561194857600080fd5b8101908080519060200190929190505050836000018181525050600083604001511115611a405760006119a28460200151611994866040015187600001516139a390919063ffffffff16565b613a2d90919063ffffffff16565b90506119b7818e613a7790919063ffffffff16565b9c5083610100015180156119cd57508361012001515b15611a3e576119e5818d613a7790919063ffffffff16565b9b50611a10611a018560a00151836139a390919063ffffffff16565b8a613a7790919063ffffffff16565b9850611a3b611a2c8560c00151836139a390919063ffffffff16565b89613a7790919063ffffffff16565b97505b505b600083606001511115611ad857611a90611a818460200151611a73866060015187600001516139a390919063ffffffff16565b613a2d90919063ffffffff16565b8b613a7790919063ffffffff16565b9950611ad5611ac68460200151611ab886600001518760e001516139a390919063ffffffff16565b613a2d90919063ffffffff16565b8a613a7790919063ffffffff16565b98505b5b808060010191505061153c565b5060008a11611af6576000611b0a565b611b098a88613a2d90919063ffffffff16565b5b965060008a11611b1b576000611b2f565b611b2e8a87613a2d90919063ffffffff16565b5b9550611b3d8a8a8a89613b01565b9450670de0b6b3a764000085109350505050919395975091939597565b6000806000806000806000806000806000806000603460009054906101000a900473ffffffffffffffffffffffffffffffffffffffff1673ffffffffffffffffffffffffffffffffffffffff1663c33cfd908f6040518263ffffffff167c0100000000000000000000000000000000000000000000000000000000028152600401808273ffffffffffffffffffffffffffffffffffffffff1673ffffffffffffffffffffffffffffffffffffffff16815260200191505060206040518083038186803b158015611c2957600080fd5b505afa158015611c3d573d6000803e3d6000fd5b505050506040513d6020811015611c5357600080fd5b81019080805190602001909291905050509c50603460009054906101000a900473ffffffffffffffffffffffffffffffffffffffff1673ffffffffffffffffffffffffffffffffffffffff1663e24030198f6040518263ffffffff167c0100000000000000000000000000000000000000000000000000000000028152600401808273ffffffffffffffffffffffffffffffffffffffff1673ffffffffffffffffffffffffffffffffffffffff16815260200191505060206040518083038186803b158015611d2157600080fd5b505afa158015611d35573d6000803e3d6000fd5b505050506040513d6020811015611d4b57600080fd5b81019080805190602001909291905050509b50603460009054906101000a900473ffffffffffffffffffffffffffffffffffffffff1673ffffffffffffffffffffffffffffffffffffffff16637f90fec58f6040518263ffffffff167c0100000000000000000000000000000000000000000000000000000000028152600401808273ffffffffffffffffffffffffffffffffffffffff1673ffffffffffffffffffffffffffffffffffffffff16815260200191505060206040518083038186803b158015611e1957600080fd5b505afa158015611e2d573d6000803e3d6000fd5b505050506040513d6020811015611e4357600080fd5b81019080805190602001909291905050509a50603460009054906101000a900473ffffffffffffffffffffffffffffffffffffffff1673ffffffffffffffffffffffffffffffffffffffff166398bd47378f6040518263ffffffff167c0100000000000000000000000000000000000000000000000000000000028152600401808273ffffffffffffffffffffffffffffffffffffffff1673ffffffffffffffffffffffffffffffffffffffff16815260200191505060206040518083038186803b158015611f1157600080fd5b505afa158015611f25573d6000803e3d6000fd5b505050506040513d6020811015611f3b57600080fd5b81019080805190602001909291905050509950603460009054906101000a900473ffffffffffffffffffffffffffffffffffffffff1673ffffffffffffffffffffffffffffffffffffffff1663c540148e8f6040518263ffffffff167c0100000000000000000000000000000000000000000000000000000000028152600401808273ffffffffffffffffffffffffffffffffffffffff1673ffffffffffffffffffffffffffffffffffffffff16815260200191505060206040518083038186803b15801561200957600080fd5b505afa15801561201d573d6000803e3d6000fd5b505050506040513d602081101561203357600080fd5b81019080805190602001909291905050509850603460009054906101000a900473ffffffffffffffffffffffffffffffffffffffff1673ffffffffffffffffffffffffffffffffffffffff1663906c0a418f6040518263ffffffff167c0100000000000000000000000000000000000000000000000000000000028152600401808273ffffffffffffffffffffffffffffffffffffffff1673ffffffffffffffffffffffffffffffffffffffff16815260200191505060206040518083038186803b15801561210157600080fd5b505afa158015612115573d6000803e3d6000fd5b505050506040513d602081101561212b57600080fd5b81019080805190602001909291905050509750603460009054906101000a900473ffffffffffffffffffffffffffffffffffffffff1673ffffffffffffffffffffffffffffffffffffffff166388079d888f6040518263ffffffff167c0100000000000000000000000000000000000000000000000000000000028152600401808273ffffffffffffffffffffffffffffffffffffffff1673ffffffffffffffffffffffffffffffffffffffff16815260200191505060206040518083038186803b1580156121f957600080fd5b505afa15801561220d573d6000803e3d6000fd5b505050506040513d602081101561222357600080fd5b81019080805190602001909291905050509650603460009054906101000a900473ffffffffffffffffffffffffffffffffffffffff1673ffffffffffffffffffffffffffffffffffffffff166346bc0f288f6040518263ffffffff167c0100000000000000000000000000000000000000000000000000000000028152600401808273ffffffffffffffffffffffffffffffffffffffff1673ffffffffffffffffffffffffffffffffffffffff16815260200191505060206040518083038186803b1580156122f157600080fd5b505afa158015612305573d6000803e3d6000fd5b505050506040513d602081101561231b57600080fd5b81019080805190602001909291905050509550603460009054906101000a900473ffffffffffffffffffffffffffffffffffffffff1673ffffffffffffffffffffffffffffffffffffffff1663bfacad848f6040518263ffffffff167c0100000000000000000000000000000000000000000000000000000000028152600401808273ffffffffffffffffffffffffffffffffffffffff1673ffffffffffffffffffffffffffffffffffffffff16815260200191505060206040518083038186803b1580156123e957600080fd5b505afa1580156123fd573d6000803e3d6000fd5b505050506040513d602081101561241357600080fd5b81019080805190602001909291905050509450603460009054906101000a900473ffffffffffffffffffffffffffffffffffffffff1673ffffffffffffffffffffffffffffffffffffffff1663bd7fd79a8f6040518263ffffffff167c0100000000000000000000000000000000000000000000000000000000028152600401808273ffffffffffffffffffffffffffffffffffffffff1673ffffffffffffffffffffffffffffffffffffffff16815260200191505060206040518083038186803b1580156124e157600080fd5b505afa1580156124f5573d6000803e3d6000fd5b505050506040513d602081101561250b57600080fd5b81019080805190602001909291905050509350603460009054906101000a900473ffffffffffffffffffffffffffffffffffffffff1673ffffffffffffffffffffffffffffffffffffffff1663b701d0938f6040518263ffffffff167c0100000000000000000000000000000000000000000000000000000000028152600401808273ffffffffffffffffffffffffffffffffffffffff1673ffffffffffffffffffffffffffffffffffffffff16815260200191505060206040518083038186803b1580156125d957600080fd5b505afa1580156125ed573d6000803e3d6000fd5b505050506040513d602081101561260357600080fd5b81019080805190602001909291905050509250603460009054906101000a900473ffffffffffffffffffffffffffffffffffffffff1673ffffffffffffffffffffffffffffffffffffffff166334b3beee8f6040518263ffffffff167c0100000000000000000000000000000000000000000000000000000000028152600401808273ffffffffffffffffffffffffffffffffffffffff1673ffffffffffffffffffffffffffffffffffffffff16815260200191505060206040518083038186803b1580156126d157600080fd5b505afa1580156126e5573d6000803e3d6000fd5b505050506040513d60208110156126fb57600080fd5b81019080805190602001909291905050509150603460009054906101000a900473ffffffffffffffffffffffffffffffffffffffff1673ffffffffffffffffffffffffffffffffffffffff16634f1446098f6040518263ffffffff167c0100000000000000000000000000000000000000000000000000000000028152600401808273ffffffffffffffffffffffffffffffffffffffff1673ffffffffffffffffffffffffffffffffffffffff16815260200191505060206040518083038186803b1580156127c957600080fd5b505afa1580156127dd573d6000803e3d6000fd5b505050506040513d60208110156127f357600080fd5b8101908080519060200190929190505050905091939597999b9d90929496989a9c50565b600080600080600080600080603460009054906101000a900473ffffffffffffffffffffffffffffffffffffffff1673ffffffffffffffffffffffffffffffffffffffff16635fc526ff8a6040518263ffffffff167c0100000000000000000000000000000000000000000000000000000000028152600401808273ffffffffffffffffffffffffffffffffffffffff1673ffffffffffffffffffffffffffffffffffffffff16815260200191505060806040518083038186803b1580156128de57600080fd5b505afa1580156128f2573d6000803e3d6000fd5b505050506040513d608081101561290857600080fd5b810190808051906020019092919080519060200190929190805190602001909291908051906020019092919050505090919250809650819950829a50505050603460009054906101000a900473ffffffffffffffffffffffffffffffffffffffff1673ffffffffffffffffffffffffffffffffffffffff16639e6748488a6040518263ffffffff167c0100000000000000000000000000000000000000000000000000000000028152600401808273ffffffffffffffffffffffffffffffffffffffff1673ffffffffffffffffffffffffffffffffffffffff16815260200191505060206040518083038186803b158015612a0257600080fd5b505afa158015612a16573d6000803e3d6000fd5b505050506040513d6020811015612a2c57600080fd5b81019080805190602001909291905050509150603460009054906101000a900473ffffffffffffffffffffffffffffffffffffffff1673ffffffffffffffffffffffffffffffffffffffff16635cf2e6568a6040518263ffffffff167c0100000000000000000000000000000000000000000000000000000000028152600401808273ffffffffffffffffffffffffffffffffffffffff1673ffffffffffffffffffffffffffffffffffffffff16815260200191505060206040518083038186803b158015612afa57600080fd5b505afa158015612b0e573d6000803e3d6000fd5b505050506040513d6020811015612b2457600080fd5b81019080805190602001909291905050509250603460009054906101000a900473ffffffffffffffffffffffffffffffffffffffff1673ffffffffffffffffffffffffffffffffffffffff166305075d6e8a6040518263ffffffff167c0100000000000000000000000000000000000000000000000000000000028152600401808273ffffffffffffffffffffffffffffffffffffffff1673ffffffffffffffffffffffffffffffffffffffff16815260200191505060206040518083038186803b158015612bf257600080fd5b505afa158015612c06573d6000803e3d6000fd5b505050506040513d6020811015612c1c57600080fd5b81019080805190602001909291905050509050603460009054906101000a900473ffffffffffffffffffffffffffffffffffffffff1673ffffffffffffffffffffffffffffffffffffffff1663c76a6c9c8a6040518263ffffffff167c0100000000000000000000000000000000000000000000000000000000028152600401808273ffffffffffffffffffffffffffffffffffffffff1673ffffffffffffffffffffffffffffffffffffffff16815260200191505060206040518083038186803b158015612cea57600080fd5b505afa158015612cfe573d6000803e3d6000fd5b505050506040513d6020811015612d1457600080fd5b81019080805190602001909291905050509550603460009054906101000a900473ffffffffffffffffffffffffffffffffffffffff1673ffffffffffffffffffffffffffffffffffffffff16636ae144168a6040518263ffffffff167c0100000000000000000000000000000000000000000000000000000000028152600401808273ffffffffffffffffffffffffffffffffffffffff1673ffffffffffffffffffffffffffffffffffffffff16815260200191505060206040518083038186803b158015612de257600080fd5b505afa158015612df6573d6000803e3d6000fd5b505050506040513d6020811015612e0c57600080fd5b81019080805190602001909291905050509450919395975091939597565b6000670de0b6b3a7640000905090565b6000612e44614069565b603460009054906101000a900473ffffffffffffffffffffffffffffffffffffffff1673ffffffffffffffffffffffffffffffffffffffff16635fc526ff866040518263ffffffff167c0100000000000000000000000000000000000000000000000000000000028152600401808273ffffffffffffffffffffffffffffffffffffffff1673ffffffffffffffffffffffffffffffffffffffff16815260200191505060806040518083038186803b158015612eff57600080fd5b505afa158015612f13573d6000803e3d6000fd5b505050506040513d6080811015612f2957600080fd5b8101908080519060200190929190805190602001909291908051906020019092919080519060200190929190505050909150836000018460a00185610140018315151515815250838152508381525050505080610140015115806130b45750603460009054906101000a900473ffffffffffffffffffffffffffffffffffffffff1673ffffffffffffffffffffffffffffffffffffffff16639e3c4f3b86866040518363ffffffff167c0100000000000000000000000000000000000000000000000000000000028152600401808373ffffffffffffffffffffffffffffffffffffffff1673ffffffffffffffffffffffffffffffffffffffff1681526020018273ffffffffffffffffffffffffffffffffffffffff1673ffffffffffffffffffffffffffffffffffffffff1681526020019250505060206040518083038186803b15801561307757600080fd5b505afa15801561308b573d6000803e3d6000fd5b505050506040513d60208110156130a157600080fd5b8101908080519060200190929190505050155b156130c35760019150506133b6565b6130cc84611346565b9091929394959650909192509050508460200185604001866060018760800184815250848152508481525084815250505050506000816040015114156131165760019150506133b6565b6000603560009054906101000a900473ffffffffffffffffffffffffffffffffffffffff1673ffffffffffffffffffffffffffffffffffffffff1663fca513a86040518163ffffffff167c010000000000000000000000000000000000000000000000000000000002815260040160206040518083038186803b15801561319c57600080fd5b505afa1580156131b0573d6000803e3d6000fd5b505050506040513d60208110156131c657600080fd5b810190808051906020019092919050505090506132d88260000151600a0a6132ca868473ffffffffffffffffffffffffffffffffffffffff1663b3596f078b6040518263ffffffff167c0100000000000000000000000000000000000000000000000000000000028152600401808273ffffffffffffffffffffffffffffffffffffffff1673ffffffffffffffffffffffffffffffffffffffff16815260200191505060206040518083038186803b15801561328157600080fd5b505afa158015613295573d6000803e3d6000fd5b505050506040513d60208110156132ab57600080fd5b81019080805190602001909291905050506139a390919063ffffffff16565b613a2d90919063ffffffff16565b8260c00181815250506132fc8260c001518360200151613b8890919063ffffffff16565b8260e001818152505060008260e00151141561331d576000925050506133b6565b61337a8260e0015161336c6133438560a001518660c001516139a390919063ffffffff16565b61335e866080015187602001516139a390919063ffffffff16565b613b8890919063ffffffff16565b613a2d90919063ffffffff16565b8261010001818152505060006133a38360e0015184604001518560600151866101000151613b01565b9050670de0b6b3a7640000811193505050505b9392505050565b600181565b600080603460009054906101000a900473ffffffffffffffffffffffffffffffffffffffff1673ffffffffffffffffffffffffffffffffffffffff1663a2353fdc896040518263ffffffff167c0100000000000000000000000000000000000000000000000000000000028152600401808273ffffffffffffffffffffffffffffffffffffffff1673ffffffffffffffffffffffffffffffffffffffff16815260200191505060206040518083038186803b15801561348057600080fd5b505afa158015613494573d6000803e3d6000fd5b505050506040513d60208110156134aa57600080fd5b810190808051906020019092919050505090506000603560009054906101000a900473ffffffffffffffffffffffffffffffffffffffff1673ffffffffffffffffffffffffffffffffffffffff1663fca513a86040518163ffffffff167c010000000000000000000000000000000000000000000000000000000002815260040160206040518083038186803b15801561354357600080fd5b505afa158015613557573d6000803e3d6000fd5b505050506040513d602081101561356d57600080fd5b81019080805190602001909291905050509050600061368f83600a0a61368161359f8b8d613a7790919063ffffffff16565b8573ffffffffffffffffffffffffffffffffffffffff1663b3596f078f6040518263ffffffff167c0100000000000000000000000000000000000000000000000000000000028152600401808273ffffffffffffffffffffffffffffffffffffffff1673ffffffffffffffffffffffffffffffffffffffff16815260200191505060206040518083038186803b15801561363857600080fd5b505afa15801561364c573d6000803e3d6000fd5b505050506040513d602081101561366257600080fd5b81019080805190602001909291905050506139a390919063ffffffff16565b613a2d90919063ffffffff16565b905060006136dd866136cf60646136c1866136b38d8f613a7790919063ffffffff16565b613a7790919063ffffffff16565b6139a390919063ffffffff16565b613a2d90919063ffffffff16565b9050809450505050509695505050505050565b60008060008060008060008061370589611346565b50809750819950829850839b50849c50859d50869e505050505050505061372e87878785613bd2565b9350919395975091939597565b670de0b6b3a764000081565b6000613751613df4565b9050600160009054906101000a900460ff16806137725750613771613dfd565b5b8061377e575060005481115b15156137d5576040517f08c379a000000000000000000000000000000000000000000000000000000000815260040180806020018281038252602e8152602001806140e8602e913960400191505060405180910390fd5b6000600160009054906101000a900460ff1615905080156138125760018060006101000a81548160ff021916908315150217905550816000819055505b82603560006101000a81548173ffffffffffffffffffffffffffffffffffffffff021916908373ffffffffffffffffffffffffffffffffffffffff1602179055508273ffffffffffffffffffffffffffffffffffffffff1663ed6ff7606040518163ffffffff167c010000000000000000000000000000000000000000000000000000000002815260040160206040518083038186803b1580156138b557600080fd5b505afa1580156138c9573d6000803e3d6000fd5b505050506040513d60208110156138df57600080fd5b8101908080519060200190929190505050603460006101000a81548173ffffffffffffffffffffffffffffffffffffffff021916908373ffffffffffffffffffffffffffffffffffffffff1602179055508015613952576000600160006101000a81548160ff0219169083151502179055505b505050565b603560009054906101000a900473ffffffffffffffffffffffffffffffffffffffff1681565b603460009054906101000a900473ffffffffffffffffffffffffffffffffffffffff1681565b6000808314156139b65760009050613a27565b600082840290508284828115156139c957fe5b04141515613a22576040517f08c379a00000000000000000000000000000000000000000000000000000000081526004018080602001828103825260218152602001806140c76021913960400191505060405180910390fd5b809150505b92915050565b6000613a6f83836040805190810160405280601a81526020017f536166654d6174683a206469766973696f6e206279207a65726f000000000000815250613e0e565b905092915050565b6000808284019050838110151515613af7576040517f08c379a000000000000000000000000000000000000000000000000000000000815260040180806020018281038252601b8152602001807f536166654d6174683a206164646974696f6e206f766572666c6f77000000000081525060200191505060405180910390fd5b8091505092915050565b600080841415613b33577fffffffffffffffffffffffffffffffffffffffffffffffffffffffffffffffff9050613b80565b613b7d613b498486613a7790919063ffffffff16565b613b6f6064613b61868a6139a390919063ffffffff16565b613a2d90919063ffffffff16565b613ed890919063ffffffff16565b90505b949350505050565b6000613bca83836040805190810160405280601e81526020017f536166654d6174683a207375627472616374696f6e206f766572666c6f770000815250613f32565b905092915050565b600080613bfb6064613bed85896139a390919063ffffffff16565b613a2d90919063ffffffff16565b905084811015613c0f576000915050613dec565b613c34613c258587613a7790919063ffffffff16565b82613b8890919063ffffffff16565b90506000603560009054906101000a900473ffffffffffffffffffffffffffffffffffffffff1673ffffffffffffffffffffffffffffffffffffffff1663fbeefc3c6040518163ffffffff167c010000000000000000000000000000000000000000000000000000000002815260040160206040518083038186803b158015613cbc57600080fd5b505afa158015613cd0573d6000803e3d6000fd5b505050506040513d6020811015613ce657600080fd5b810190808051906020019092919050505073ffffffffffffffffffffffffffffffffffffffff1663e563a7d033846040518363ffffffff167c0100000000000000000000000000000000000000000000000000000000028152600401808373ffffffffffffffffffffffffffffffffffffffff1673ffffffffffffffffffffffffffffffffffffffff1681526020018281526020019250505060206040518083038186803b158015613d9757600080fd5b505afa158015613dab573d6000803e3d6000fd5b505050506040513d6020811015613dc157600080fd5b81019080805190602001909291905050509050613de78183613b8890919063ffffffff16565b925050505b949350505050565b60006001905090565b600080303b90506000811491505090565b600080831182901515613ebc576040517f08c379a00000000000000000000000000000000000000000000000000000000081526004018080602001828103825283818151815260200191508051906020019080838360005b83811015613e81578082015181840152602081019050613e66565b50505050905090810190601f168015613eae5780820380516001836020036101000a031916815260200191505b509250505060405180910390fd5b5060008385811515613eca57fe5b049050809150509392505050565b600080600283811515613ee757fe5b049050613f2983613f1b613f0c670de0b6b3a7640000886139a390919063ffffffff16565b84613a7790919063ffffffff16565b613a2d90919063ffffffff16565b91505092915050565b60008383111582901515613fe1576040517f08c379a00000000000000000000000000000000000000000000000000000000081526004018080602001828103825283818151815260200191508051906020019080838360005b83811015613fa6578082015181840152602081019050613f8b565b50505050905090810190601f168015613fd35780820380516001836020036101000a031916815260200191505b509250505060405180910390fd5b5060008385039050809150509392505050565b610160604051908101604052806000815260200160008152602001600081526020016000815260200160008152602001600081526020016000815260200160008152602001600015158152602001600015158152602001600073ffffffffffffffffffffffffffffffffffffffff1681525090565b6101606040519081016040528060008152602001600081526020016000815260200160008152602001600081526020016000815260200160008152602001600081526020016000815260200160008152602001600015158152509056fe536166654d6174683a206d756c7469706c69636174696f6e206f766572666c6f77436f6e747261637420696e7374616e63652068617320616c7265616479206265656e20696e697469616c697a6564a165627a7a7230582014c3a1f4ba6ca193744dd8edc2c0b794664e19253453699f10eda2945e1959400029",
  "source": "pragma solidity ^0.5.0;\n\nimport \"../libraries/openzeppelin-solidity/contracts/math/SafeMath.sol\";\nimport \"../libraries/openzeppelin-upgradeability/VersionedInitializable.sol\";\n\nimport \"../libraries/CoreLibrary.sol\";\nimport \"../configuration/LendingPoolAddressesProvider.sol\";\nimport \"../libraries/WadRayMath.sol\";\nimport \"../interfaces/IPriceOracleGetter.sol\";\nimport \"../interfaces/IFeeProvider.sol\";\nimport \"../tokenization/AToken.sol\";\n\nimport \"./LendingPoolCore.sol\";\n\n/**\n* @title LendingPoolDataProvider contract\n* @author Aave\n* @notice Implements functions to fetch data from the core, and aggregate them in order to allow computation\n* on the compounded balances and the account balances in TRX\n**/\ncontract LendingPoolDataProvider is VersionedInitializable {\n    using SafeMath for uint256;\n    using WadRayMath for uint256;\n\n    LendingPoolCore public core;\n    LendingPoolAddressesProvider public addressesProvider;\n\n    /**\n    * @dev specifies the health factor threshold at which the user position is liquidated.\n    * 1e18 by default, if the health factor drops below 1e18, the loan can be liquidated.\n    **/\n    uint256 public constant HEALTH_FACTOR_LIQUIDATION_THRESHOLD = 1e18;\n\n    uint256 public constant DATA_PROVIDER_REVISION = 0x1;\n\n    function getRevision() internal pure returns (uint256) {\n        return DATA_PROVIDER_REVISION;\n    }\n\n    function initialize(LendingPoolAddressesProvider _addressesProvider) public initializer {\n        addressesProvider = _addressesProvider;\n        core = LendingPoolCore(_addressesProvider.getLendingPoolCore());\n    }\n\n    /**\n    * @dev struct to hold calculateUserGlobalData() local computations\n    **/\n    struct UserGlobalDataLocalVars {\n        uint256 reserveUnitPrice;\n        uint256 tokenUnit;\n        uint256 compoundedLiquidityBalance;\n        uint256 compoundedBorrowBalance;\n        uint256 reserveDecimals;\n        uint256 baseLtv;\n        uint256 liquidationThreshold;\n        uint256 originationFee;\n        bool usageAsCollateralEnabled;\n        bool userUsesReserveAsCollateral;\n        address currentReserve;\n    }\n\n    /**\n    * @dev calculates the user data across the reserves.\n    * this includes the total liquidity/collateral/borrow balances in TRX,\n    * the average Loan To Value, the average Liquidation Ratio, and the Health factor.\n    * @param _user the address of the user\n    * @return the total liquidity, total collateral, total borrow balances of the user in TRX.\n    * also the average Ltv, liquidation threshold, and the health factor\n    **/\n    function calculateUserGlobalData(address _user)\n        public\n        view\n        returns (\n            uint256 totalLiquidityBalanceTRX,\n            uint256 totalCollateralBalanceTRX,\n            uint256 totalBorrowBalanceTRX,\n            uint256 totalFeesTRX,\n            uint256 currentLtv,\n            uint256 currentLiquidationThreshold,\n            uint256 healthFactor,\n            bool healthFactorBelowThreshold\n        )\n    {\n        IPriceOracleGetter oracle = IPriceOracleGetter(addressesProvider.getPriceOracle());\n\n        // Usage of a memory struct of vars to avoid \"Stack too deep\" errors due to local variables\n        UserGlobalDataLocalVars memory vars;\n\n        address[] memory reserves = core.getReserves();\n\n        for (uint256 i = 0; i < reserves.length; i++) {\n            vars.currentReserve = reserves[i];\n\n            (\n                vars.compoundedLiquidityBalance,\n                vars.compoundedBorrowBalance,\n                vars.originationFee,\n                vars.userUsesReserveAsCollateral\n            ) = core.getUserBasicReserveData(vars.currentReserve, _user);\n\n            if (vars.compoundedLiquidityBalance == 0 && vars.compoundedBorrowBalance == 0) {\n                continue;\n            }\n\n            //fetch reserve data\n            (\n                vars.reserveDecimals,\n                vars.baseLtv,\n                vars.liquidationThreshold,\n                vars.usageAsCollateralEnabled\n            ) = core.getReserveConfiguration(vars.currentReserve);\n\n            vars.tokenUnit = 10 ** vars.reserveDecimals;\n            vars.reserveUnitPrice = oracle.getAssetPrice(vars.currentReserve);\n\n            //liquidity and collateral balance\n            if (vars.compoundedLiquidityBalance > 0) {\n                uint256 liquidityBalanceTRX = vars\n                    .reserveUnitPrice\n                    .mul(vars.compoundedLiquidityBalance)\n                    .div(vars.tokenUnit);\n                totalLiquidityBalanceTRX = totalLiquidityBalanceTRX.add(liquidityBalanceTRX);\n\n                if (vars.usageAsCollateralEnabled && vars.userUsesReserveAsCollateral) {\n                    totalCollateralBalanceTRX = totalCollateralBalanceTRX.add(liquidityBalanceTRX);\n                    currentLtv = currentLtv.add(liquidityBalanceTRX.mul(vars.baseLtv));\n                    currentLiquidationThreshold = currentLiquidationThreshold.add(\n                        liquidityBalanceTRX.mul(vars.liquidationThreshold)\n                    );\n                }\n            }\n\n            if (vars.compoundedBorrowBalance > 0) {\n                totalBorrowBalanceTRX = totalBorrowBalanceTRX.add(\n                    vars.reserveUnitPrice.mul(vars.compoundedBorrowBalance).div(vars.tokenUnit)\n                );\n                totalFeesTRX = totalFeesTRX.add(\n                    vars.originationFee.mul(vars.reserveUnitPrice).div(vars.tokenUnit)\n                );\n            }\n        }\n\n        currentLtv = totalCollateralBalanceTRX > 0 ? currentLtv.div(totalCollateralBalanceTRX) : 0;\n        currentLiquidationThreshold = totalCollateralBalanceTRX > 0\n            ? currentLiquidationThreshold.div(totalCollateralBalanceTRX)\n            : 0;\n\n        healthFactor = calculateHealthFactorFromBalancesInternal(\n            totalCollateralBalanceTRX,\n            totalBorrowBalanceTRX,\n            totalFeesTRX,\n            currentLiquidationThreshold\n        );\n        healthFactorBelowThreshold = healthFactor < HEALTH_FACTOR_LIQUIDATION_THRESHOLD;\n\n    }\n\n    struct balanceDecreaseAllowedLocalVars {\n        uint256 decimals;\n        uint256 collateralBalanceTRX;\n        uint256 borrowBalanceTRX;\n        uint256 totalFeesTRX;\n        uint256 currentLiquidationThreshold;\n        uint256 reserveLiquidationThreshold;\n        uint256 amountToDecreaseTRX;\n        uint256 collateralBalancefterDecrease;\n        uint256 liquidationThresholdAfterDecrease;\n        uint256 healthFactorAfterDecrease;\n        bool reserveUsageAsCollateralEnabled;\n    }\n\n    /**\n    * @dev check if a specific balance decrease is allowed (i.e. doesn't bring the user borrow position health factor under 1e18)\n    * @param _reserve the address of the reserve\n    * @param _user the address of the user\n    * @param _amount the amount to decrease\n    * @return true if the decrease of the balance is allowed\n    **/\n\n    function balanceDecreaseAllowed(address _reserve, address _user, uint256 _amount)\n        external\n        view\n        returns (bool)\n    {\n        // Usage of a memory struct of vars to avoid \"Stack too deep\" errors due to local variables\n        balanceDecreaseAllowedLocalVars memory vars;\n\n        (\n            vars.decimals,\n            ,\n            vars.reserveLiquidationThreshold,\n            vars.reserveUsageAsCollateralEnabled\n        ) = core.getReserveConfiguration(_reserve);\n\n        if (\n            !vars.reserveUsageAsCollateralEnabled ||\n            !core.isUserUseReserveAsCollateralEnabled(_reserve, _user)\n        ) {\n            return true; //if reserve is not used as collateral, no reasons to block the transfer\n        }\n\n        (\n            ,\n            vars.collateralBalanceTRX,\n            vars.borrowBalanceTRX,\n            vars.totalFeesTRX,\n            ,\n            vars.currentLiquidationThreshold,\n            ,\n\n        ) = calculateUserGlobalData(_user);\n\n        if (vars.borrowBalanceTRX == 0) {\n            return true; //no borrows - no reasons to block the transfer\n        }\n\n        IPriceOracleGetter oracle = IPriceOracleGetter(addressesProvider.getPriceOracle());\n\n        vars.amountToDecreaseTRX = oracle.getAssetPrice(_reserve).mul(_amount).div(\n            10 ** vars.decimals\n        );\n\n        vars.collateralBalancefterDecrease = vars.collateralBalanceTRX.sub(\n            vars.amountToDecreaseTRX\n        );\n\n        //if there is a borrow, there can't be 0 collateral\n        if (vars.collateralBalancefterDecrease == 0) {\n            return false;\n        }\n\n        vars.liquidationThresholdAfterDecrease = vars\n            .collateralBalanceTRX\n            .mul(vars.currentLiquidationThreshold)\n            .sub(vars.amountToDecreaseTRX.mul(vars.reserveLiquidationThreshold))\n            .div(vars.collateralBalancefterDecrease);\n\n        uint256 healthFactorAfterDecrease = calculateHealthFactorFromBalancesInternal(\n            vars.collateralBalancefterDecrease,\n            vars.borrowBalanceTRX,\n            vars.totalFeesTRX,\n            vars.liquidationThresholdAfterDecrease\n        );\n\n        return healthFactorAfterDecrease > HEALTH_FACTOR_LIQUIDATION_THRESHOLD;\n\n    }\n\n    /**\n   * @notice calculates the amount of collateral needed in TRX to cover a new borrow.\n   * @param _reserve the reserve from which the user wants to borrow\n   * @param _amount the amount the user wants to borrow\n   * @param _fee the fee for the amount that the user needs to cover\n   * @param _userCurrentBorrowBalanceTH the current borrow balance of the user (before the borrow)\n   * @param _userCurrentLtv the average ltv of the user given his current collateral\n   * @return the total amount of collateral in TRX to cover the current borrow balance + the new amount + fee\n   **/\n    function calculateCollateralNeededInTRX(\n        address _reserve,\n        uint256 _amount,\n        uint256 _fee,\n        uint256 _userCurrentBorrowBalanceTH,\n        uint256 _userCurrentFeesTRX,\n        uint256 _userCurrentLtv\n    ) external view returns (uint256) {\n        uint256 reserveDecimals = core.getReserveDecimals(_reserve);\n\n        IPriceOracleGetter oracle = IPriceOracleGetter(addressesProvider.getPriceOracle());\n\n        uint256 requestedBorrowAmountTRX = oracle\n            .getAssetPrice(_reserve)\n            .mul(_amount.add(_fee))\n            .div(10 ** reserveDecimals); //price is in trx\n\n        //add the current already borrowed amount to the amount requested to calculate the total collateral needed.\n        uint256 collateralNeededInTRX = _userCurrentBorrowBalanceTH\n            .add(_userCurrentFeesTRX)\n            .add(requestedBorrowAmountTRX)\n            .mul(100)\n            .div(_userCurrentLtv); //LTV is calculated in percentage\n\n        return collateralNeededInTRX;\n\n    }\n\n    /**\n    * @dev calculates the equivalent amount in TRX that an user can borrow, depending on the available collateral and the\n    * average Loan To Value.\n    * @param collateralBalanceTRX the total collateral balance\n    * @param borrowBalanceTRX the total borrow balance\n    * @param totalFeesTRX the total fees\n    * @param ltv the average loan to value\n    * @return the amount available to borrow in TRX for the user\n    **/\n\n    function calculateAvailableBorrowsTRXInternal(\n        uint256 collateralBalanceTRX,\n        uint256 borrowBalanceTRX,\n        uint256 totalFeesTRX,\n        uint256 ltv\n    ) internal view returns (uint256) {\n        uint256 availableBorrowsTRX = collateralBalanceTRX.mul(ltv).div(100); //ltv is in percentage\n\n        if (availableBorrowsTRX < borrowBalanceTRX) {\n            return 0;\n        }\n\n        availableBorrowsTRX = availableBorrowsTRX.sub(borrowBalanceTRX.add(totalFeesTRX));\n        //calculate fee\n        uint256 borrowFee = IFeeProvider(addressesProvider.getFeeProvider())\n            .calculateLoanOriginationFee(msg.sender, availableBorrowsTRX);\n        return availableBorrowsTRX.sub(borrowFee);\n    }\n\n    /**\n    * @dev calculates the health factor from the corresponding balances\n    * @param collateralBalanceTRX the total collateral balance in TRX\n    * @param borrowBalanceTRX the total borrow balance in TRX\n    * @param totalFeesTRX the total fees in TRX\n    * @param liquidationThreshold the avg liquidation threshold\n    **/\n    function calculateHealthFactorFromBalancesInternal(\n        uint256 collateralBalanceTRX,\n        uint256 borrowBalanceTRX,\n        uint256 totalFeesTRX,\n        uint256 liquidationThreshold\n    ) internal pure returns (uint256) {\n        if (borrowBalanceTRX == 0) return uint256(-1);\n\n        return\n            (collateralBalanceTRX.mul(liquidationThreshold).div(100)).wadDiv(\n                borrowBalanceTRX.add(totalFeesTRX)\n            );\n    }\n\n    /**\n    * @dev returns the health factor liquidation threshold\n    **/\n    function getHealthFactorLiquidationThreshold() public pure returns (uint256) {\n        return HEALTH_FACTOR_LIQUIDATION_THRESHOLD;\n    }\n\n    /**\n    * @dev accessory functions to fetch data from the lendingPoolCore\n    **/\n    function getReserveConfigurationData(address _reserve)\n        external\n        view\n        returns (\n            uint256 ltv,\n            uint256 liquidationThreshold,\n            uint256 liquidationBonus,\n            address rateStrategyAddress,\n            bool usageAsCollateralEnabled,\n            bool borrowingEnabled,\n            bool stableBorrowRateEnabled,\n            bool isActive\n        )\n    {\n        (, ltv, liquidationThreshold, usageAsCollateralEnabled) = core.getReserveConfiguration(\n            _reserve\n        );\n        stableBorrowRateEnabled = core.getReserveIsStableBorrowRateEnabled(_reserve);\n        borrowingEnabled = core.isReserveBorrowingEnabled(_reserve);\n        isActive = core.getReserveIsActive(_reserve);\n        liquidationBonus = core.getReserveLiquidationBonus(_reserve);\n\n        rateStrategyAddress = core.getReserveInterestRateStrategyAddress(_reserve);\n    }\n\n    function getReserveData(address _reserve)\n        external\n        view\n        returns (\n            uint256 totalLiquidity,\n            uint256 availableLiquidity,\n            uint256 totalBorrowsStable,\n            uint256 totalBorrowsVariable,\n            uint256 liquidityRate,\n            uint256 variableBorrowRate,\n            uint256 stableBorrowRate,\n            uint256 averageStableBorrowRate,\n            uint256 utilizationRate,\n            uint256 liquidityIndex,\n            uint256 variableBorrowIndex,\n            address aTokenAddress,\n            uint40 lastUpdateTimestamp\n        )\n    {\n        totalLiquidity = core.getReserveTotalLiquidity(_reserve);\n        availableLiquidity = core.getReserveAvailableLiquidity(_reserve);\n        totalBorrowsStable = core.getReserveTotalBorrowsStable(_reserve);\n        totalBorrowsVariable = core.getReserveTotalBorrowsVariable(_reserve);\n        liquidityRate = core.getReserveCurrentLiquidityRate(_reserve);\n        variableBorrowRate = core.getReserveCurrentVariableBorrowRate(_reserve);\n        stableBorrowRate = core.getReserveCurrentStableBorrowRate(_reserve);\n        averageStableBorrowRate = core.getReserveCurrentAverageStableBorrowRate(_reserve);\n        utilizationRate = core.getReserveUtilizationRate(_reserve);\n        liquidityIndex = core.getReserveLiquidityCumulativeIndex(_reserve);\n        variableBorrowIndex = core.getReserveVariableBorrowsCumulativeIndex(_reserve);\n        aTokenAddress = core.getReserveATokenAddress(_reserve);\n        lastUpdateTimestamp = core.getReserveLastUpdate(_reserve);\n    }\n\n    function getUserAccountData(address _user)\n        external\n        view\n        returns (\n            uint256 totalLiquidityTRX,\n            uint256 totalCollateralTRX,\n            uint256 totalBorrowsTRX,\n            uint256 totalFeesTRX,\n            uint256 availableBorrowsTRX,\n            uint256 currentLiquidationThreshold,\n            uint256 ltv,\n            uint256 healthFactor\n        )\n    {\n        (\n            totalLiquidityTRX,\n            totalCollateralTRX,\n            totalBorrowsTRX,\n            totalFeesTRX,\n            ltv,\n            currentLiquidationThreshold,\n            healthFactor,\n\n        ) = calculateUserGlobalData(_user);\n\n        availableBorrowsTRX = calculateAvailableBorrowsTRXInternal(\n            totalCollateralTRX,\n            totalBorrowsTRX,\n            totalFeesTRX,\n            ltv\n        );\n    }\n\n    function getUserReserveData(address _reserve, address _user)\n        external\n        view\n        returns (\n            uint256 currentATokenBalance,\n            uint256 currentBorrowBalance,\n            uint256 principalBorrowBalance,\n            uint256 borrowRateMode,\n            uint256 borrowRate,\n            uint256 liquidityRate,\n            uint256 originationFee,\n            uint256 variableBorrowIndex,\n            uint256 lastUpdateTimestamp,\n            bool usageAsCollateralEnabled\n        )\n    {\n        currentATokenBalance = AToken(core.getReserveATokenAddress(_reserve)).balanceOf(_user);\n        CoreLibrary.InterestRateMode mode = core.getUserCurrentBorrowRateMode(_reserve, _user);\n        (principalBorrowBalance, currentBorrowBalance, ) = core.getUserBorrowBalances(\n            _reserve,\n            _user\n        );\n\n        //default is 0, if mode == CoreLibrary.InterestRateMode.NONE\n        if (mode == CoreLibrary.InterestRateMode.STABLE) {\n            borrowRate = core.getUserCurrentStableBorrowRate(_reserve, _user);\n        } else if (mode == CoreLibrary.InterestRateMode.VARIABLE) {\n            borrowRate = core.getReserveCurrentVariableBorrowRate(_reserve);\n        }\n\n        borrowRateMode = uint256(mode);\n        liquidityRate = core.getReserveCurrentLiquidityRate(_reserve);\n        originationFee = core.getUserOriginationFee(_reserve, _user);\n        variableBorrowIndex = core.getUserVariableBorrowCumulativeIndex(_reserve, _user);\n        lastUpdateTimestamp = core.getUserLastUpdate(_reserve, _user);\n        usageAsCollateralEnabled = core.isUserUseReserveAsCollateralEnabled(_reserve, _user);\n    }\n}\n",
  "sourcePath": "/Users/bibodeng/Programming/water_loan_core/contracts/lendingpool/LendingPoolDataProvider.sol",
  "compiler": {
    "name": "solc",
    "version": "0.5.4+commit.d15a3125.mod.Emscripten.clang"
  },
  "schemaVersion": "2.0.1",
  "updatedAt": "2020-12-06T14:57:27.684Z"
}