{
  "contractName": "MintableERC20",
  "abi": [
    {
      "constant": false,
      "inputs": [
        {
          "name": "spender",
          "type": "address"
        },
        {
          "name": "amount",
          "type": "uint256"
        }
      ],
      "name": "approve",
      "outputs": [
        {
          "name": "",
          "type": "bool"
        }
      ],
      "payable": false,
      "stateMutability": "nonpayable",
      "type": "function"
    },
    {
      "constant": true,
      "inputs": [],
      "name": "totalSupply",
      "outputs": [
        {
          "name": "",
          "type": "uint256"
        }
      ],
      "payable": false,
      "stateMutability": "view",
      "type": "function"
    },
    {
      "constant": false,
      "inputs": [
        {
          "name": "sender",
          "type": "address"
        },
        {
          "name": "recipient",
          "type": "address"
        },
        {
          "name": "amount",
          "type": "uint256"
        }
      ],
      "name": "transferFrom",
      "outputs": [
        {
          "name": "",
          "type": "bool"
        }
      ],
      "payable": false,
      "stateMutability": "nonpayable",
      "type": "function"
    },
    {
      "constant": false,
      "inputs": [
        {
          "name": "spender",
          "type": "address"
        },
        {
          "name": "addedValue",
          "type": "uint256"
        }
      ],
      "name": "increaseAllowance",
      "outputs": [
        {
          "name": "",
          "type": "bool"
        }
      ],
      "payable": false,
      "stateMutability": "nonpayable",
      "type": "function"
    },
    {
      "constant": true,
      "inputs": [
        {
          "name": "account",
          "type": "address"
        }
      ],
      "name": "balanceOf",
      "outputs": [
        {
          "name": "",
          "type": "uint256"
        }
      ],
      "payable": false,
      "stateMutability": "view",
      "type": "function"
    },
    {
      "constant": false,
      "inputs": [
        {
          "name": "spender",
          "type": "address"
        },
        {
          "name": "subtractedValue",
          "type": "uint256"
        }
      ],
      "name": "decreaseAllowance",
      "outputs": [
        {
          "name": "",
          "type": "bool"
        }
      ],
      "payable": false,
      "stateMutability": "nonpayable",
      "type": "function"
    },
    {
      "constant": false,
      "inputs": [
        {
          "name": "recipient",
          "type": "address"
        },
        {
          "name": "amount",
          "type": "uint256"
        }
      ],
      "name": "transfer",
      "outputs": [
        {
          "name": "",
          "type": "bool"
        }
      ],
      "payable": false,
      "stateMutability": "nonpayable",
      "type": "function"
    },
    {
      "constant": true,
      "inputs": [
        {
          "name": "owner",
          "type": "address"
        },
        {
          "name": "spender",
          "type": "address"
        }
      ],
      "name": "allowance",
      "outputs": [
        {
          "name": "",
          "type": "uint256"
        }
      ],
      "payable": false,
      "stateMutability": "view",
      "type": "function"
    },
    {
      "anonymous": false,
      "inputs": [
        {
          "indexed": true,
          "name": "from",
          "type": "address"
        },
        {
          "indexed": true,
          "name": "to",
          "type": "address"
        },
        {
          "indexed": false,
          "name": "value",
          "type": "uint256"
        }
      ],
      "name": "Transfer",
      "type": "event"
    },
    {
      "anonymous": false,
      "inputs": [
        {
          "indexed": true,
          "name": "owner",
          "type": "address"
        },
        {
          "indexed": true,
          "name": "spender",
          "type": "address"
        },
        {
          "indexed": false,
          "name": "value",
          "type": "uint256"
        }
      ],
      "name": "Approval",
      "type": "event"
    },
    {
      "constant": false,
      "inputs": [
        {
          "name": "value",
          "type": "uint256"
        }
      ],
      "name": "mint",
      "outputs": [
        {
          "name": "",
          "type": "bool"
        }
      ],
      "payable": false,
      "stateMutability": "nonpayable",
      "type": "function"
    }
  ],
  "bytecode": "0x60806040526109b7806100136000396000f3fe608060405234801561001057600080fd5b50d3801561001d57600080fd5b50d2801561002a57600080fd5b50600436106100ca576000357c01000000000000000000000000000000000000000000000000000000009004806370a082311161009d57806370a082311461018b578063a0712d68146101b1578063a457c2d7146101ce578063a9059cbb146101fa578063dd62ed3e14610226576100ca565b8063095ea7b3146100cf57806318160ddd1461010f57806323b872dd14610129578063395093511461015f575b600080fd5b6100fb600480360360408110156100e557600080fd5b50600160a060020a038135169060200135610254565b604080519115158252519081900360200190f35b610117610271565b60408051918252519081900360200190f35b6100fb6004803603606081101561013f57600080fd5b50600160a060020a03813581169160208101359091169060400135610277565b6100fb6004803603604081101561017557600080fd5b50600160a060020a038135169060200135610305565b610117600480360360208110156101a157600080fd5b5035600160a060020a0316610359565b6100fb600480360360208110156101c757600080fd5b5035610374565b6100fb600480360360408110156101e457600080fd5b50600160a060020a038135169060200135610388565b6100fb6004803603604081101561021057600080fd5b50600160a060020a0381351690602001356103f7565b6101176004803603604081101561023c57600080fd5b50600160a060020a038135811691602001351661040b565b6000610268610261610436565b848461043a565b50600192915050565b60025490565b6000610284848484610530565b6102fb84610290610436565b6102f685606060405190810160405280602881526020016108f660289139600160a060020a038a166000908152600160205260408120906102cf610436565b600160a060020a03168152602081019190915260400160002054919063ffffffff61069716565b61043a565b5060019392505050565b6000610268610312610436565b846102f68560016000610323610436565b600160a060020a03908116825260208083019390935260409182016000908120918c16815292529020549063ffffffff61073116565b600160a060020a031660009081526020819052604090205490565b60006103803383610795565b506001919050565b6000610268610395610436565b846102f6856060604051908101604052806025815260200161096760259139600160006103c0610436565b600160a060020a03908116825260208083019390935260409182016000908120918d1681529252902054919063ffffffff61069716565b6000610268610404610436565b8484610530565b600160a060020a03918216600090815260016020908152604080832093909416825291909152205490565b3390565b600160a060020a03831615156104845760405160e560020a62461bcd0281526004018080602001828103825260248152602001806109436024913960400191505060405180910390fd5b600160a060020a03821615156104ce5760405160e560020a62461bcd0281526004018080602001828103825260228152602001806108ae6022913960400191505060405180910390fd5b600160a060020a03808416600081815260016020908152604080832094871680845294825291829020859055815185815291517f8c5be1e5ebec7d5bd14f71427d1e84f3dd0314c0f7b2291e5b200ac8c7c3b9259281900390910190a3505050565b600160a060020a038316151561057a5760405160e560020a62461bcd02815260040180806020018281038252602581526020018061091e6025913960400191505060405180910390fd5b600160a060020a03821615156105c45760405160e560020a62461bcd02815260040180806020018281038252602381526020018061088b6023913960400191505060405180910390fd5b61060881606060405190810160405280602681526020016108d060269139600160a060020a038616600090815260208190526040902054919063ffffffff61069716565b600160a060020a03808516600090815260208190526040808220939093559084168152205461063d908263ffffffff61073116565b600160a060020a038084166000818152602081815260409182902094909455805185815290519193928716927fddf252ad1be2c89b69c2b068fc378daa952ba7f163c4a11628f55a4df523b3ef92918290030190a3505050565b600081848411156107295760405160e560020a62461bcd0281526004018080602001828103825283818151815260200191508051906020019080838360005b838110156106ee5781810151838201526020016106d6565b50505050905090810190601f16801561071b5780820380516001836020036101000a031916815260200191505b509250505060405180910390fd5b505050900390565b60008282018381101561078e576040805160e560020a62461bcd02815260206004820152601b60248201527f536166654d6174683a206164646974696f6e206f766572666c6f770000000000604482015290519081900360640190fd5b9392505050565b600160a060020a03821615156107f5576040805160e560020a62461bcd02815260206004820152601f60248201527f45524332303a206d696e7420746f20746865207a65726f206164647265737300604482015290519081900360640190fd5b600254610808908263ffffffff61073116565b600255600160a060020a038216600090815260208190526040902054610834908263ffffffff61073116565b600160a060020a0383166000818152602081815260408083209490945583518581529351929391927fddf252ad1be2c89b69c2b068fc378daa952ba7f163c4a11628f55a4df523b3ef9281900390910190a3505056fe45524332303a207472616e7366657220746f20746865207a65726f206164647265737345524332303a20617070726f766520746f20746865207a65726f206164647265737345524332303a207472616e7366657220616d6f756e7420657863656564732062616c616e636545524332303a207472616e7366657220616d6f756e74206578636565647320616c6c6f77616e636545524332303a207472616e736665722066726f6d20746865207a65726f206164647265737345524332303a20617070726f76652066726f6d20746865207a65726f206164647265737345524332303a2064656372656173656420616c6c6f77616e63652062656c6f77207a65726fa165627a7a72305820745bcccb757475a8694e7f3309c05891f756d82619696b8e8fa17fa1162f50540029",
  "source": "pragma solidity ^0.5.0;\n\nimport \"../../libraries/openzeppelin-solidity/contracts/token/ERC20/ERC20.sol\";\n\n/**\n * @title ERC20Mintable\n * @dev ERC20 minting logic\n */\ncontract MintableERC20 is ERC20 {\n    /**\n     * @dev Function to mint tokens\n     * @param value The amount of tokens to mint.\n     * @return A boolean that indicates if the operation was successful.\n     */\n    function mint(uint256 value) public returns (bool) {\n        _mint(msg.sender, value);\n        return true;\n    }\n}\n",
  "sourcePath": "/Users/bibodeng/Programming/water_loan_core/contracts/mocks/tokens/MintableERC20.sol",
  "compiler": {
    "name": "solc",
    "version": "0.5.4+commit.d15a3125.mod.Emscripten.clang"
  },
  "schemaVersion": "2.0.1",
  "updatedAt": "2020-11-19T10:56:46.910Z"
}