{
  "contractName": "MockAggregatorLEND",
  "abi": [
    {
      "constant": true,
      "inputs": [],
      "name": "latestAnswer",
      "outputs": [
        {
          "name": "",
          "type": "int256"
        }
      ],
      "payable": false,
      "stateMutability": "view",
      "type": "function"
    },
    {
      "inputs": [
        {
          "name": "_initialAnswer",
          "type": "int256"
        }
      ],
      "payable": false,
      "stateMutability": "nonpayable",
      "type": "constructor"
    },
    {
      "anonymous": false,
      "inputs": [
        {
          "indexed": true,
          "name": "current",
          "type": "int256"
        },
        {
          "indexed": true,
          "name": "roundId",
          "type": "uint256"
        },
        {
          "indexed": false,
          "name": "timestamp",
          "type": "uint256"
        }
      ],
      "name": "AnswerUpdated",
      "type": "event"
    }
  ],
  "bytecode": "0x608060405234801561001057600080fd5b50d3801561001d57600080fd5b50d2801561002a57600080fd5b506040516020806101448339810180604052602081101561004a57600080fd5b5051600081815560408051428152905183929183917f0559884fd3a460db3073b7fc896cc77986f16e378210ded43186175bf646fc5f9181900360200190a3505060ab806100996000396000f3fe6080604052348015600f57600080fd5b50d38015601b57600080fd5b50d28015602757600080fd5b5060043610605c577c0100000000000000000000000000000000000000000000000000000000600035046350d25bcd81146061575b600080fd5b60676079565b60408051918252519081900360200190f35b6000549056fea165627a7a7230582090d255620d02c14e1e92fb5a3b4e85afd0337b5f6b7abb082ff922f9ea0c22450029",
  "source": "pragma solidity ^0.5.0;\n\nimport \"./MockAggregatorBase.sol\";\n\ncontract MockAggregatorLEND is MockAggregatorBase {\n    constructor (int256 _initialAnswer) public MockAggregatorBase(_initialAnswer) {}\n}",
  "sourcePath": "/Users/bibodeng/Programming/water_loan_core/contracts/mocks/oracle/CLAggregators/MockAggregatorLEND.sol",
  "compiler": {
    "name": "solc",
    "version": "0.5.4+commit.d15a3125.mod.Emscripten.clang"
  },
  "schemaVersion": "2.0.1",
  "updatedAt": "2020-11-19T10:56:46.906Z"
}