{
  "contractName": "MockAggregatorBase",
  "abi": [
    {
      "inputs": [
        {
          "name": "_initialAnswer",
          "type": "int256"
        }
      ],
      "payable": false,
      "stateMutability": "nonpayable",
      "type": "constructor"
    },
    {
      "anonymous": false,
      "inputs": [
        {
          "indexed": true,
          "name": "current",
          "type": "int256"
        },
        {
          "indexed": true,
          "name": "roundId",
          "type": "uint256"
        },
        {
          "indexed": false,
          "name": "timestamp",
          "type": "uint256"
        }
      ],
      "name": "AnswerUpdated",
      "type": "event"
    },
    {
      "constant": true,
      "inputs": [],
      "name": "latestAnswer",
      "outputs": [
        {
          "name": "",
          "type": "int256"
        }
      ],
      "payable": false,
      "stateMutability": "view",
      "type": "function"
    }
  ],
  "bytecode": "0x608060405234801561001057600080fd5b50d3801561001d57600080fd5b50d2801561002a57600080fd5b506040516020806101418339810180604052602081101561004a57600080fd5b5051600081815560408051428152905183917f0559884fd3a460db3073b7fc896cc77986f16e378210ded43186175bf646fc5f919081900360200190a35060ab806100966000396000f3fe6080604052348015600f57600080fd5b50d38015601b57600080fd5b50d28015602757600080fd5b5060043610605c577c0100000000000000000000000000000000000000000000000000000000600035046350d25bcd81146061575b600080fd5b60676079565b60408051918252519081900360200190f35b6000549056fea165627a7a723058204a1976c4b6c496fbbf49a53b0824e15a482c5edbc4f7f66bf7a978dae2ad9fb90029",
  "source": "pragma solidity ^0.5.0;\n\ncontract MockAggregatorBase  {\n    int256 private _latestAnswer;\n\n    event AnswerUpdated(int256 indexed current, uint256 indexed roundId, uint256 timestamp);\n\n    constructor (int256 _initialAnswer) public {\n        _latestAnswer = _initialAnswer;\n        emit AnswerUpdated(_initialAnswer, 0, now);\n    }\n\n    function latestAnswer() external view returns (int256) {\n        return _latestAnswer;\n    }\n}",
  "sourcePath": "/Users/bibodeng/Programming/water_loan_core/contracts/mocks/oracle/CLAggregators/MockAggregatorBase.sol",
  "compiler": {
    "name": "solc",
    "version": "0.5.4+commit.d15a3125.mod.Emscripten.clang"
  },
  "schemaVersion": "2.0.1",
  "updatedAt": "2020-11-19T10:56:46.919Z"
}