{
  "contractName": "MockLendingPoolCore",
  "abi": [
    {
      "constant": true,
      "inputs": [
        {
          "name": "_reserve",
          "type": "address"
        }
      ],
      "name": "getReserveIsActive",
      "outputs": [
        {
          "name": "",
          "type": "bool"
        }
      ],
      "payable": false,
      "stateMutability": "view",
      "type": "function"
    },
    {
      "constant": true,
      "inputs": [],
      "name": "getReserves",
      "outputs": [
        {
          "name": "",
          "type": "address[]"
        }
      ],
      "payable": false,
      "stateMutability": "view",
      "type": "function"
    },
    {
      "constant": true,
      "inputs": [],
      "name": "CORE_REVISION",
      "outputs": [
        {
          "name": "",
          "type": "uint256"
        }
      ],
      "payable": false,
      "stateMutability": "view",
      "type": "function"
    },
    {
      "constant": true,
      "inputs": [
        {
          "name": "_reserve",
          "type": "address"
        },
        {
          "name": "_user",
          "type": "address"
        }
      ],
      "name": "getUserUnderlyingAssetBalance",
      "outputs": [
        {
          "name": "",
          "type": "uint256"
        }
      ],
      "payable": false,
      "stateMutability": "view",
      "type": "function"
    },
    {
      "constant": true,
      "inputs": [
        {
          "name": "_reserve",
          "type": "address"
        }
      ],
      "name": "isReserveUsageAsCollateralEnabled",
      "outputs": [
        {
          "name": "",
          "type": "bool"
        }
      ],
      "payable": false,
      "stateMutability": "view",
      "type": "function"
    },
    {
      "constant": true,
      "inputs": [
        {
          "name": "_reserve",
          "type": "address"
        },
        {
          "name": "_user",
          "type": "address"
        }
      ],
      "name": "getUserCurrentBorrowRateMode",
      "outputs": [
        {
          "name": "",
          "type": "uint8"
        }
      ],
      "payable": false,
      "stateMutability": "view",
      "type": "function"
    },
    {
      "constant": false,
      "inputs": [
        {
          "name": "_reserve",
          "type": "address"
        },
        {
          "name": "_rateStrategyAddress",
          "type": "address"
        }
      ],
      "name": "setReserveInterestRateStrategyAddress",
      "outputs": [],
      "payable": false,
      "stateMutability": "nonpayable",
      "type": "function"
    },
    {
      "constant": false,
      "inputs": [
        {
          "name": "_reserve",
          "type": "address"
        },
        {
          "name": "_user",
          "type": "address"
        },
        {
          "name": "_amount",
          "type": "uint256"
        }
      ],
      "name": "transferToReserve",
      "outputs": [],
      "payable": true,
      "stateMutability": "payable",
      "type": "function"
    },
    {
      "constant": false,
      "inputs": [
        {
          "name": "_reserve",
          "type": "address"
        },
        {
          "name": "_threshold",
          "type": "uint256"
        }
      ],
      "name": "setReserveLiquidationThreshold",
      "outputs": [],
      "payable": false,
      "stateMutability": "nonpayable",
      "type": "function"
    },
    {
      "constant": true,
      "inputs": [
        {
          "name": "_reserve",
          "type": "address"
        }
      ],
      "name": "getReserveATokenAddress",
      "outputs": [
        {
          "name": "",
          "type": "address"
        }
      ],
      "payable": false,
      "stateMutability": "view",
      "type": "function"
    },
    {
      "constant": false,
      "inputs": [
        {
          "name": "_reserve",
          "type": "address"
        },
        {
          "name": "_user",
          "type": "address"
        },
        {
          "name": "_amountBorrowed",
          "type": "uint256"
        },
        {
          "name": "_borrowFee",
          "type": "uint256"
        },
        {
          "name": "_rateMode",
          "type": "uint8"
        }
      ],
      "name": "updateStateOnBorrow",
      "outputs": [
        {
          "name": "",
          "type": "uint256"
        },
        {
          "name": "",
          "type": "uint256"
        }
      ],
      "payable": false,
      "stateMutability": "nonpayable",
      "type": "function"
    },
    {
      "constant": false,
      "inputs": [
        {
          "name": "_reserve",
          "type": "address"
        }
      ],
      "name": "deactivateReserve",
      "outputs": [],
      "payable": false,
      "stateMutability": "nonpayable",
      "type": "function"
    },
    {
      "constant": false,
      "inputs": [
        {
          "name": "_reserve",
          "type": "address"
        },
        {
          "name": "_aTokenAddress",
          "type": "address"
        },
        {
          "name": "_decimals",
          "type": "uint256"
        },
        {
          "name": "_interestRateStrategyAddress",
          "type": "address"
        }
      ],
      "name": "initReserve",
      "outputs": [],
      "payable": false,
      "stateMutability": "nonpayable",
      "type": "function"
    },
    {
      "constant": true,
      "inputs": [
        {
          "name": "_reserve",
          "type": "address"
        }
      ],
      "name": "getReserveCurrentAverageStableBorrowRate",
      "outputs": [
        {
          "name": "",
          "type": "uint256"
        }
      ],
      "payable": false,
      "stateMutability": "view",
      "type": "function"
    },
    {
      "constant": true,
      "inputs": [
        {
          "name": "_reserve",
          "type": "address"
        }
      ],
      "name": "getReserveIsFreezed",
      "outputs": [
        {
          "name": "",
          "type": "bool"
        }
      ],
      "payable": false,
      "stateMutability": "view",
      "type": "function"
    },
    {
      "constant": true,
      "inputs": [
        {
          "name": "_reserve",
          "type": "address"
        }
      ],
      "name": "getReserveLastUpdate",
      "outputs": [
        {
          "name": "timestamp",
          "type": "uint40"
        }
      ],
      "payable": false,
      "stateMutability": "view",
      "type": "function"
    },
    {
      "constant": true,
      "inputs": [
        {
          "name": "",
          "type": "uint256"
        }
      ],
      "name": "reservesList",
      "outputs": [
        {
          "name": "",
          "type": "address"
        }
      ],
      "payable": false,
      "stateMutability": "view",
      "type": "function"
    },
    {
      "constant": true,
      "inputs": [
        {
          "name": "_reserve",
          "type": "address"
        }
      ],
      "name": "isReserveBorrowingEnabled",
      "outputs": [
        {
          "name": "",
          "type": "bool"
        }
      ],
      "payable": false,
      "stateMutability": "view",
      "type": "function"
    },
    {
      "constant": true,
      "inputs": [
        {
          "name": "_reserve",
          "type": "address"
        }
      ],
      "name": "getReserveConfiguration",
      "outputs": [
        {
          "name": "",
          "type": "uint256"
        },
        {
          "name": "",
          "type": "uint256"
        },
        {
          "name": "",
          "type": "uint256"
        },
        {
          "name": "",
          "type": "bool"
        }
      ],
      "payable": false,
      "stateMutability": "view",
      "type": "function"
    },
    {
      "constant": false,
      "inputs": [],
      "name": "refreshConfiguration",
      "outputs": [],
      "payable": false,
      "stateMutability": "nonpayable",
      "type": "function"
    },
    {
      "constant": false,
      "inputs": [
        {
          "name": "_reserve",
          "type": "address"
        },
        {
          "name": "_decimals",
          "type": "uint256"
        }
      ],
      "name": "setReserveDecimals",
      "outputs": [],
      "payable": false,
      "stateMutability": "nonpayable",
      "type": "function"
    },
    {
      "constant": true,
      "inputs": [
        {
          "name": "_reserve",
          "type": "address"
        },
        {
          "name": "_user",
          "type": "address"
        }
      ],
      "name": "getUserLastUpdate",
      "outputs": [
        {
          "name": "timestamp",
          "type": "uint256"
        }
      ],
      "payable": false,
      "stateMutability": "view",
      "type": "function"
    },
    {
      "constant": false,
      "inputs": [
        {
          "name": "_principalReserve",
          "type": "address"
        },
        {
          "name": "_collateralReserve",
          "type": "address"
        },
        {
          "name": "_user",
          "type": "address"
        },
        {
          "name": "_amountToLiquidate",
          "type": "uint256"
        },
        {
          "name": "_collateralToLiquidate",
          "type": "uint256"
        },
        {
          "name": "_feeLiquidated",
          "type": "uint256"
        },
        {
          "name": "_liquidatedCollateralForFee",
          "type": "uint256"
        },
        {
          "name": "_balanceIncrease",
          "type": "uint256"
        },
        {
          "name": "_liquidatorReceivesAToken",
          "type": "bool"
        }
      ],
      "name": "updateStateOnLiquidation",
      "outputs": [],
      "payable": false,
      "stateMutability": "nonpayable",
      "type": "function"
    },
    {
      "constant": true,
      "inputs": [
        {
          "name": "_reserve",
          "type": "address"
        }
      ],
      "name": "getReserveInterestRateStrategyAddress",
      "outputs": [
        {
          "name": "",
          "type": "address"
        }
      ],
      "payable": false,
      "stateMutability": "view",
      "type": "function"
    },
    {
      "constant": true,
      "inputs": [
        {
          "name": "_reserve",
          "type": "address"
        },
        {
          "name": "_user",
          "type": "address"
        }
      ],
      "name": "getUserCurrentStableBorrowRate",
      "outputs": [
        {
          "name": "",
          "type": "uint256"
        }
      ],
      "payable": false,
      "stateMutability": "view",
      "type": "function"
    },
    {
      "constant": false,
      "inputs": [
        {
          "name": "_reserve",
          "type": "address"
        },
        {
          "name": "_bonus",
          "type": "uint256"
        }
      ],
      "name": "setReserveLiquidationBonus",
      "outputs": [],
      "payable": false,
      "stateMutability": "nonpayable",
      "type": "function"
    },
    {
      "constant": false,
      "inputs": [
        {
          "name": "_reserve",
          "type": "address"
        }
      ],
      "name": "freezeReserve",
      "outputs": [],
      "payable": false,
      "stateMutability": "nonpayable",
      "type": "function"
    },
    {
      "constant": true,
      "inputs": [
        {
          "name": "_reserve",
          "type": "address"
        }
      ],
      "name": "getReserveTotalBorrowsStable",
      "outputs": [
        {
          "name": "",
          "type": "uint256"
        }
      ],
      "payable": false,
      "stateMutability": "view",
      "type": "function"
    },
    {
      "constant": true,
      "inputs": [
        {
          "name": "_reserve",
          "type": "address"
        }
      ],
      "name": "getReserveCurrentStableBorrowRate",
      "outputs": [
        {
          "name": "",
          "type": "uint256"
        }
      ],
      "payable": false,
      "stateMutability": "view",
      "type": "function"
    },
    {
      "constant": false,
      "inputs": [
        {
          "name": "_token",
          "type": "address"
        },
        {
          "name": "_amount",
          "type": "uint256"
        },
        {
          "name": "_destination",
          "type": "address"
        }
      ],
      "name": "liquidateFee",
      "outputs": [],
      "payable": true,
      "stateMutability": "payable",
      "type": "function"
    },
    {
      "constant": true,
      "inputs": [
        {
          "name": "_reserve",
          "type": "address"
        }
      ],
      "name": "getReserveCurrentVariableBorrowRate",
      "outputs": [
        {
          "name": "",
          "type": "uint256"
        }
      ],
      "payable": false,
      "stateMutability": "view",
      "type": "function"
    },
    {
      "constant": true,
      "inputs": [
        {
          "name": "_reserve",
          "type": "address"
        }
      ],
      "name": "getReserveTotalBorrowsVariable",
      "outputs": [
        {
          "name": "",
          "type": "uint256"
        }
      ],
      "payable": false,
      "stateMutability": "view",
      "type": "function"
    },
    {
      "constant": true,
      "inputs": [
        {
          "name": "_reserve",
          "type": "address"
        },
        {
          "name": "_user",
          "type": "address"
        }
      ],
      "name": "isUserUseReserveAsCollateralEnabled",
      "outputs": [
        {
          "name": "",
          "type": "bool"
        }
      ],
      "payable": false,
      "stateMutability": "view",
      "type": "function"
    },
    {
      "constant": true,
      "inputs": [
        {
          "name": "_reserve",
          "type": "address"
        }
      ],
      "name": "getReserveIsStableBorrowRateEnabled",
      "outputs": [
        {
          "name": "",
          "type": "bool"
        }
      ],
      "payable": false,
      "stateMutability": "view",
      "type": "function"
    },
    {
      "constant": true,
      "inputs": [
        {
          "name": "_reserve",
          "type": "address"
        },
        {
          "name": "_user",
          "type": "address"
        }
      ],
      "name": "getUserBorrowBalances",
      "outputs": [
        {
          "name": "",
          "type": "uint256"
        },
        {
          "name": "",
          "type": "uint256"
        },
        {
          "name": "",
          "type": "uint256"
        }
      ],
      "payable": false,
      "stateMutability": "view",
      "type": "function"
    },
    {
      "constant": true,
      "inputs": [
        {
          "name": "_reserve",
          "type": "address"
        }
      ],
      "name": "getReserveDecimals",
      "outputs": [
        {
          "name": "",
          "type": "uint256"
        }
      ],
      "payable": false,
      "stateMutability": "view",
      "type": "function"
    },
    {
      "constant": false,
      "inputs": [
        {
          "name": "_reserve",
          "type": "address"
        },
        {
          "name": "_baseLTVasCollateral",
          "type": "uint256"
        },
        {
          "name": "_liquidationThreshold",
          "type": "uint256"
        },
        {
          "name": "_liquidationBonus",
          "type": "uint256"
        }
      ],
      "name": "enableReserveAsCollateral",
      "outputs": [],
      "payable": false,
      "stateMutability": "nonpayable",
      "type": "function"
    },
    {
      "constant": false,
      "inputs": [
        {
          "name": "_reserve",
          "type": "address"
        }
      ],
      "name": "disableBorrowingOnReserve",
      "outputs": [],
      "payable": false,
      "stateMutability": "nonpayable",
      "type": "function"
    },
    {
      "constant": false,
      "inputs": [
        {
          "name": "_reserve",
          "type": "address"
        },
        {
          "name": "_user",
          "type": "address"
        },
        {
          "name": "_balanceIncrease",
          "type": "uint256"
        }
      ],
      "name": "updateStateOnRebalance",
      "outputs": [
        {
          "name": "",
          "type": "uint256"
        }
      ],
      "payable": false,
      "stateMutability": "nonpayable",
      "type": "function"
    },
    {
      "constant": false,
      "inputs": [
        {
          "name": "_reserve",
          "type": "address"
        },
        {
          "name": "_user",
          "type": "address"
        },
        {
          "name": "_amountRedeemed",
          "type": "uint256"
        },
        {
          "name": "_userRedeemedEverything",
          "type": "bool"
        }
      ],
      "name": "updateStateOnRedeem",
      "outputs": [],
      "payable": false,
      "stateMutability": "nonpayable",
      "type": "function"
    },
    {
      "constant": true,
      "inputs": [
        {
          "name": "_reserve",
          "type": "address"
        }
      ],
      "name": "getReserveVariableBorrowsCumulativeIndex",
      "outputs": [
        {
          "name": "",
          "type": "uint256"
        }
      ],
      "payable": false,
      "stateMutability": "view",
      "type": "function"
    },
    {
      "constant": false,
      "inputs": [
        {
          "name": "_reserve",
          "type": "address"
        }
      ],
      "name": "activateReserve",
      "outputs": [],
      "payable": false,
      "stateMutability": "nonpayable",
      "type": "function"
    },
    {
      "constant": false,
      "inputs": [
        {
          "name": "_reserve",
          "type": "address"
        }
      ],
      "name": "disableReserveStableBorrowRate",
      "outputs": [],
      "payable": false,
      "stateMutability": "nonpayable",
      "type": "function"
    },
    {
      "constant": false,
      "inputs": [
        {
          "name": "_reserve",
          "type": "address"
        },
        {
          "name": "_user",
          "type": "address"
        },
        {
          "name": "_amount",
          "type": "uint256"
        },
        {
          "name": "_isFirstDeposit",
          "type": "bool"
        }
      ],
      "name": "updateStateOnDeposit",
      "outputs": [],
      "payable": false,
      "stateMutability": "nonpayable",
      "type": "function"
    },
    {
      "constant": true,
      "inputs": [
        {
          "name": "_reserve",
          "type": "address"
        }
      ],
      "name": "getReserveLiquidityCumulativeIndex",
      "outputs": [
        {
          "name": "",
          "type": "uint256"
        }
      ],
      "payable": false,
      "stateMutability": "view",
      "type": "function"
    },
    {
      "constant": true,
      "inputs": [
        {
          "name": "_reserve",
          "type": "address"
        }
      ],
      "name": "getReserveUtilizationRate",
      "outputs": [
        {
          "name": "",
          "type": "uint256"
        }
      ],
      "payable": false,
      "stateMutability": "view",
      "type": "function"
    },
    {
      "constant": true,
      "inputs": [
        {
          "name": "_reserve",
          "type": "address"
        }
      ],
      "name": "getReserveTotalLiquidity",
      "outputs": [
        {
          "name": "",
          "type": "uint256"
        }
      ],
      "payable": false,
      "stateMutability": "view",
      "type": "function"
    },
    {
      "constant": true,
      "inputs": [
        {
          "name": "_reserve",
          "type": "address"
        }
      ],
      "name": "getReserveCurrentLiquidityRate",
      "outputs": [
        {
          "name": "",
          "type": "uint256"
        }
      ],
      "payable": false,
      "stateMutability": "view",
      "type": "function"
    },
    {
      "constant": true,
      "inputs": [],
      "name": "addressesProvider",
      "outputs": [
        {
          "name": "",
          "type": "address"
        }
      ],
      "payable": false,
      "stateMutability": "view",
      "type": "function"
    },
    {
      "constant": true,
      "inputs": [
        {
          "name": "_reserve",
          "type": "address"
        }
      ],
      "name": "getReserveLiquidationBonus",
      "outputs": [
        {
          "name": "",
          "type": "uint256"
        }
      ],
      "payable": false,
      "stateMutability": "view",
      "type": "function"
    },
    {
      "constant": false,
      "inputs": [
        {
          "name": "_token",
          "type": "address"
        },
        {
          "name": "_user",
          "type": "address"
        },
        {
          "name": "_amount",
          "type": "uint256"
        },
        {
          "name": "_destination",
          "type": "address"
        }
      ],
      "name": "transferToFeeCollectionAddress",
      "outputs": [],
      "payable": true,
      "stateMutability": "payable",
      "type": "function"
    },
    {
      "constant": false,
      "inputs": [
        {
          "name": "_reserveToRemove",
          "type": "address"
        }
      ],
      "name": "removeLastAddedReserve",
      "outputs": [],
      "payable": false,
      "stateMutability": "nonpayable",
      "type": "function"
    },
    {
      "constant": true,
      "inputs": [
        {
          "name": "_reserve",
          "type": "address"
        }
      ],
      "name": "getReserveNormalizedIncome",
      "outputs": [
        {
          "name": "",
          "type": "uint256"
        }
      ],
      "payable": false,
      "stateMutability": "view",
      "type": "function"
    },
    {
      "constant": true,
      "inputs": [],
      "name": "lendingPoolAddress",
      "outputs": [
        {
          "name": "",
          "type": "address"
        }
      ],
      "payable": false,
      "stateMutability": "view",
      "type": "function"
    },
    {
      "constant": false,
      "inputs": [
        {
          "name": "_reserve",
          "type": "address"
        },
        {
          "name": "_ltv",
          "type": "uint256"
        }
      ],
      "name": "setReserveBaseLTVasCollateral",
      "outputs": [],
      "payable": false,
      "stateMutability": "nonpayable",
      "type": "function"
    },
    {
      "constant": false,
      "inputs": [
        {
          "name": "_reserve",
          "type": "address"
        },
        {
          "name": "_user",
          "type": "address"
        },
        {
          "name": "_paybackAmountMinusFees",
          "type": "uint256"
        },
        {
          "name": "_originationFeeRepaid",
          "type": "uint256"
        },
        {
          "name": "_balanceIncrease",
          "type": "uint256"
        },
        {
          "name": "_repaidWholeLoan",
          "type": "bool"
        }
      ],
      "name": "updateStateOnRepay",
      "outputs": [],
      "payable": false,
      "stateMutability": "nonpayable",
      "type": "function"
    },
    {
      "constant": false,
      "inputs": [
        {
          "name": "_reserve",
          "type": "address"
        }
      ],
      "name": "enableReserveStableBorrowRate",
      "outputs": [],
      "payable": false,
      "stateMutability": "nonpayable",
      "type": "function"
    },
    {
      "constant": true,
      "inputs": [
        {
          "name": "_reserve",
          "type": "address"
        },
        {
          "name": "_user",
          "type": "address"
        }
      ],
      "name": "getUserBasicReserveData",
      "outputs": [
        {
          "name": "",
          "type": "uint256"
        },
        {
          "name": "",
          "type": "uint256"
        },
        {
          "name": "",
          "type": "uint256"
        },
        {
          "name": "",
          "type": "bool"
        }
      ],
      "payable": false,
      "stateMutability": "view",
      "type": "function"
    },
    {
      "constant": true,
      "inputs": [
        {
          "name": "_reserve",
          "type": "address"
        },
        {
          "name": "_user",
          "type": "address"
        },
        {
          "name": "_amount",
          "type": "uint256"
        }
      ],
      "name": "isUserAllowedToBorrowAtStable",
      "outputs": [
        {
          "name": "",
          "type": "bool"
        }
      ],
      "payable": false,
      "stateMutability": "view",
      "type": "function"
    },
    {
      "constant": true,
      "inputs": [
        {
          "name": "_reserve",
          "type": "address"
        }
      ],
      "name": "getReserveAvailableLiquidity",
      "outputs": [
        {
          "name": "",
          "type": "uint256"
        }
      ],
      "payable": false,
      "stateMutability": "view",
      "type": "function"
    },
    {
      "constant": true,
      "inputs": [
        {
          "name": "_reserve",
          "type": "address"
        }
      ],
      "name": "getReserveTotalBorrows",
      "outputs": [
        {
          "name": "",
          "type": "uint256"
        }
      ],
      "payable": false,
      "stateMutability": "view",
      "type": "function"
    },
    {
      "constant": false,
      "inputs": [
        {
          "name": "_reserve",
          "type": "address"
        }
      ],
      "name": "disableReserveAsCollateral",
      "outputs": [],
      "payable": false,
      "stateMutability": "nonpayable",
      "type": "function"
    },
    {
      "constant": false,
      "inputs": [
        {
          "name": "_reserve",
          "type": "address"
        },
        {
          "name": "_stableBorrowRateEnabled",
          "type": "bool"
        }
      ],
      "name": "enableBorrowingOnReserve",
      "outputs": [],
      "payable": false,
      "stateMutability": "nonpayable",
      "type": "function"
    },
    {
      "constant": false,
      "inputs": [
        {
          "name": "_reserve",
          "type": "address"
        }
      ],
      "name": "unfreezeReserve",
      "outputs": [],
      "payable": false,
      "stateMutability": "nonpayable",
      "type": "function"
    },
    {
      "constant": true,
      "inputs": [
        {
          "name": "_reserve",
          "type": "address"
        }
      ],
      "name": "getReserveLiquidationThreshold",
      "outputs": [
        {
          "name": "",
          "type": "uint256"
        }
      ],
      "payable": false,
      "stateMutability": "view",
      "type": "function"
    },
    {
      "constant": false,
      "inputs": [
        {
          "name": "_reserve",
          "type": "address"
        },
        {
          "name": "_user",
          "type": "address"
        },
        {
          "name": "_principalBorrowBalance",
          "type": "uint256"
        },
        {
          "name": "_compoundedBorrowBalance",
          "type": "uint256"
        },
        {
          "name": "_balanceIncrease",
          "type": "uint256"
        },
        {
          "name": "_currentRateMode",
          "type": "uint8"
        }
      ],
      "name": "updateStateOnSwapRate",
      "outputs": [
        {
          "name": "",
          "type": "uint8"
        },
        {
          "name": "",
          "type": "uint256"
        }
      ],
      "payable": false,
      "stateMutability": "nonpayable",
      "type": "function"
    },
    {
      "constant": true,
      "inputs": [
        {
          "name": "_reserve",
          "type": "address"
        },
        {
          "name": "_user",
          "type": "address"
        }
      ],
      "name": "getUserVariableBorrowCumulativeIndex",
      "outputs": [
        {
          "name": "",
          "type": "uint256"
        }
      ],
      "payable": false,
      "stateMutability": "view",
      "type": "function"
    },
    {
      "constant": false,
      "inputs": [
        {
          "name": "_reserve",
          "type": "address"
        },
        {
          "name": "_user",
          "type": "address"
        },
        {
          "name": "_useAsCollateral",
          "type": "bool"
        }
      ],
      "name": "setUserUseReserveAsCollateral",
      "outputs": [],
      "payable": false,
      "stateMutability": "nonpayable",
      "type": "function"
    },
    {
      "constant": false,
      "inputs": [
        {
          "name": "_reserve",
          "type": "address"
        },
        {
          "name": "_user",
          "type": "address"
        },
        {
          "name": "_amount",
          "type": "uint256"
        }
      ],
      "name": "transferToUser",
      "outputs": [],
      "payable": false,
      "stateMutability": "nonpayable",
      "type": "function"
    },
    {
      "constant": true,
      "inputs": [
        {
          "name": "_reserve",
          "type": "address"
        },
        {
          "name": "_user",
          "type": "address"
        }
      ],
      "name": "getUserOriginationFee",
      "outputs": [
        {
          "name": "",
          "type": "uint256"
        }
      ],
      "payable": false,
      "stateMutability": "view",
      "type": "function"
    },
    {
      "payable": true,
      "stateMutability": "payable",
      "type": "fallback"
    },
    {
      "anonymous": false,
      "inputs": [
        {
          "indexed": true,
          "name": "revision",
          "type": "uint256"
        }
      ],
      "name": "ReserveUpdatedFromMock",
      "type": "event"
    },
    {
      "anonymous": false,
      "inputs": [
        {
          "indexed": true,
          "name": "reserve",
          "type": "address"
        },
        {
          "indexed": false,
          "name": "liquidityRate",
          "type": "uint256"
        },
        {
          "indexed": false,
          "name": "stableBorrowRate",
          "type": "uint256"
        },
        {
          "indexed": false,
          "name": "variableBorrowRate",
          "type": "uint256"
        },
        {
          "indexed": false,
          "name": "liquidityIndex",
          "type": "uint256"
        },
        {
          "indexed": false,
          "name": "variableBorrowIndex",
          "type": "uint256"
        }
      ],
      "name": "ReserveUpdated",
      "type": "event"
    },
    {
      "constant": false,
      "inputs": [
        {
          "name": "_addressesProvider",
          "type": "address"
        }
      ],
      "name": "initialize",
      "outputs": [],
      "payable": false,
      "stateMutability": "nonpayable",
      "type": "function"
    }
  ],
  "bytecode": "0x6080604052600080553480156200001557600080fd5b50d380156200002357600080fd5b50d280156200003157600080fd5b5061616180620000426000396000f3fe6080604052600436106104145760003560e060020a90048063a2353fdc11610222578063d15e005311610127578063e8ae2f5b116100af578063f61483111161007e578063f6148311146119de578063f6ea8d7614611a7c578063fa51854c14611ad1578063fa93b2a514611b30578063feab31ac14611b8d57610414565b8063e8ae2f5b146118a2578063eede87c1146118ef578063ef1f937314611944578063f054ab461461199157610414565b8063dae4c4e7116100f6578063dae4c4e714611709578063e10076ad14611756578063e2174d86146117ab578063e240301914611808578063e6d181901461185557610414565b8063d15e0053146115c9578063d3ae26b314611616578063d466016f14611645578063da12d96f1461169857610414565b8063bd7fd79a116101aa578063c540148e11610179578063c540148e14611477578063c72c4d10146114c4578063c76a6c9c146114f3578063c7d1423714611540578063d06e2ec11461157c57610414565b8063bd7fd79a14611343578063bfacad8414611390578063c33cfd90146113dd578063c4d66de81461142a57610414565b8063afcdbea3116101f1578063afcdbea314611192578063b701d093146111f7578063b75d6f3414611244578063b8c0f74514611291578063bcd6ffa4146112de57610414565b8063a2353fdc1461103c578063a5bc826c14611089578063a8dc0f45146110e8578063af825b071461113557610414565b80635cf2e656116103285780637aca76eb116102b0578063906c0a411161027f578063906c0a4114610e8d57806398bd473714610eda5780639e3c4f3b14610f275780639e67484814610f7c5780639fb8afcd14610fc957610414565b80637aca76eb14610d705780637f90fec514610dbd57806388079d8814610e0a5780638f385c2214610e5757610414565b806366d103f3116102f757806366d103f314610ba157806368beb4d614610bf65780636ae1441614610c7b5780636fffab0c14610cc857806370fb84f414610d1d57610414565b80635cf2e65614610a5d5780635fc526ff14610aaa5780636468108314610b1f57806366bbd92814610b4e57610414565b80633443a14b116103ab57806345330a401161037a57806345330a40146108b557806346bc0f28146109185780634a08accb146109655780634f144609146109b25780634fe7a6e514610a1957610414565b80633443a14b1461072657806334b3beee1461077957806337ac6fe4146107e25780633e72a4541461086857610414565b806318f9bbae116103e757806318f9bbae146105d55780631ca19f19146106225780631d2118f91461069b57806328fcf4d3146106f057610414565b806305075d6e1461045f5780630902f1ac146104c05780630c7de4e91461053f57806318a4dbca14610580575b61041d33611be2565b151561045d5760405160e560020a62461bcd028152600401808060200182810382526036815260200180615ebe6036913960400191505060405180910390fd5b005b34801561046b57600080fd5b50d3801561047857600080fd5b50d2801561048557600080fd5b506104ac6004803603602081101561049c57600080fd5b5035600160a060020a0316611bed565b604080519115158252519081900360200190f35b3480156104cc57600080fd5b50d380156104d957600080fd5b50d280156104e657600080fd5b506104ef611c15565b60408051602080825283518183015283519192839290830191858101910280838360005b8381101561052b578181015183820152602001610513565b505050509050019250505060405180910390f35b34801561054b57600080fd5b50d3801561055857600080fd5b50d2801561056557600080fd5b5061056e611c77565b60408051918252519081900360200190f35b34801561058c57600080fd5b50d3801561059957600080fd5b50d280156105a657600080fd5b5061056e600480360360408110156105bd57600080fd5b50600160a060020a0381358116916020013516611c7c565b3480156105e157600080fd5b50d380156105ee57600080fd5b50d280156105fb57600080fd5b506104ac6004803603602081101561061257600080fd5b5035600160a060020a0316611d28565b34801561062e57600080fd5b50d3801561063b57600080fd5b50d2801561064857600080fd5b506106776004803603604081101561065f57600080fd5b50600160a060020a0381358116916020013516611d67565b6040518082600281111561068757fe5b60ff16815260200191505060405180910390f35b3480156106a757600080fd5b50d380156106b457600080fd5b50d280156106c157600080fd5b5061045d600480360360408110156106d857600080fd5b50600160a060020a0381358116916020013516611dbe565b61045d6004803603606081101561070657600080fd5b50600160a060020a03813581169160208101359091169060400135611eb7565b34801561073257600080fd5b50d3801561073f57600080fd5b50d2801561074c57600080fd5b5061045d6004803603604081101561076357600080fd5b50600160a060020a038135169060200135612094565b34801561078557600080fd5b50d3801561079257600080fd5b50d2801561079f57600080fd5b506107c6600480360360208110156107b657600080fd5b5035600160a060020a031661216e565b60408051600160a060020a039092168252519081900360200190f35b3480156107ee57600080fd5b50d380156107fb57600080fd5b50d2801561080857600080fd5b5061084f600480360360a081101561081f57600080fd5b508035600160a060020a03908116916020810135909116906040810135906060810135906080013560ff1661218f565b6040805192835260208301919091528051918290030190f35b34801561087457600080fd5b50d3801561088157600080fd5b50d2801561088e57600080fd5b5061045d600480360360208110156108a557600080fd5b5035600160a060020a0316612232565b3480156108c157600080fd5b50d380156108ce57600080fd5b50d280156108db57600080fd5b5061045d600480360360808110156108f257600080fd5b50600160a060020a0381358116916020810135821691604082013591606001351661232d565b34801561092457600080fd5b50d3801561093157600080fd5b50d2801561093e57600080fd5b5061056e6004803603602081101561095557600080fd5b5035600160a060020a03166124a6565b34801561097157600080fd5b50d3801561097e57600080fd5b50d2801561098b57600080fd5b506104ac600480360360208110156109a257600080fd5b5035600160a060020a03166124c4565b3480156109be57600080fd5b50d380156109cb57600080fd5b50d280156109d857600080fd5b506109ff600480360360208110156109ef57600080fd5b5035600160a060020a0316612506565b6040805164ffffffffff9092168252519081900360200190f35b348015610a2557600080fd5b50d38015610a3257600080fd5b50d28015610a3f57600080fd5b506107c660048036036020811015610a5657600080fd5b5035612543565b348015610a6957600080fd5b50d38015610a7657600080fd5b50d28015610a8357600080fd5b506104ac60048036036020811015610a9a57600080fd5b5035600160a060020a031661256b565b348015610ab657600080fd5b50d38015610ac357600080fd5b50d28015610ad057600080fd5b50610af760048036036020811015610ae757600080fd5b5035600160a060020a03166125a9565b6040805194855260208501939093528383019190915215156060830152519081900360800190f35b348015610b2b57600080fd5b50d38015610b3857600080fd5b50d28015610b4557600080fd5b5061045d6125fe565b348015610b5a57600080fd5b50d38015610b6757600080fd5b50d28015610b7457600080fd5b5061045d60048036036040811015610b8b57600080fd5b50600160a060020a0381351690602001356126c3565b348015610bad57600080fd5b50d38015610bba57600080fd5b50d28015610bc757600080fd5b5061056e60048036036040811015610bde57600080fd5b50600160a060020a038135811691602001351661279d565b348015610c0257600080fd5b50d38015610c0f57600080fd5b50d28015610c1c57600080fd5b5061045d6004803603610120811015610c3457600080fd5b50600160a060020a03813581169160208101358216916040820135169060608101359060808101359060a08101359060c08101359060e081013590610100013515156127d3565b348015610c8757600080fd5b50d38015610c9457600080fd5b50d28015610ca157600080fd5b506107c660048036036020811015610cb857600080fd5b5035600160a060020a031661287a565b348015610cd457600080fd5b50d38015610ce157600080fd5b50d28015610cee57600080fd5b5061056e60048036036040811015610d0557600080fd5b50600160a060020a038135811691602001351661289b565b348015610d2957600080fd5b50d38015610d3657600080fd5b50d28015610d4357600080fd5b5061045d60048036036040811015610d5a57600080fd5b50600160a060020a0381351690602001356128ca565b348015610d7c57600080fd5b50d38015610d8957600080fd5b50d28015610d9657600080fd5b5061045d60048036036020811015610dad57600080fd5b5035600160a060020a03166129a4565b348015610dc957600080fd5b50d38015610dd657600080fd5b50d28015610de357600080fd5b5061056e60048036036020811015610dfa57600080fd5b5035600160a060020a0316612ac1565b348015610e1657600080fd5b50d38015610e2357600080fd5b50d28015610e3057600080fd5b5061056e60048036036020811015610e4757600080fd5b5035600160a060020a0316612adf565b61045d60048036036060811015610e6d57600080fd5b50600160a060020a03813581169160208101359160409091013516612c25565b348015610e9957600080fd5b50d38015610ea657600080fd5b50d28015610eb357600080fd5b5061056e60048036036020811015610eca57600080fd5b5035600160a060020a0316612d3b565b348015610ee657600080fd5b50d38015610ef357600080fd5b50d28015610f0057600080fd5b5061056e60048036036020811015610f1757600080fd5b5035600160a060020a0316612df0565b348015610f3357600080fd5b50d38015610f4057600080fd5b50d28015610f4d57600080fd5b506104ac60048036036040811015610f6457600080fd5b50600160a060020a0381358116916020013516612e0e565b348015610f8857600080fd5b50d38015610f9557600080fd5b50d28015610fa257600080fd5b506104ac60048036036020811015610fb957600080fd5b5035600160a060020a0316612e49565b348015610fd557600080fd5b50d38015610fe257600080fd5b50d28015610fef57600080fd5b5061101e6004803603604081101561100657600080fd5b50600160a060020a0381358116916020013516612e89565b60408051938452602084019290925282820152519081900360600190f35b34801561104857600080fd5b50d3801561105557600080fd5b50d2801561106257600080fd5b5061056e6004803603602081101561107957600080fd5b5035600160a060020a0316612f16565b34801561109557600080fd5b50d380156110a257600080fd5b50d280156110af57600080fd5b5061045d600480360360808110156110c657600080fd5b50600160a060020a038135169060208101359060408101359060600135612f34565b3480156110f457600080fd5b50d3801561110157600080fd5b50d2801561110e57600080fd5b5061045d6004803603602081101561112557600080fd5b5035600160a060020a03166130a1565b34801561114157600080fd5b50d3801561114e57600080fd5b50d2801561115b57600080fd5b5061056e6004803603606081101561117257600080fd5b50600160a060020a038135811691602081013590911690604001356131ef565b34801561119e57600080fd5b50d380156111ab57600080fd5b50d280156111b857600080fd5b5061045d600480360360808110156111cf57600080fd5b50600160a060020a038135811691602081013590911690604081013590606001351515613292565b34801561120357600080fd5b50d3801561121057600080fd5b50d2801561121d57600080fd5b5061056e6004803603602081101561123457600080fd5b5035600160a060020a031661331d565b34801561125057600080fd5b50d3801561125d57600080fd5b50d2801561126a57600080fd5b5061045d6004803603602081101561128157600080fd5b5035600160a060020a031661333b565b34801561129d57600080fd5b50d380156112aa57600080fd5b50d280156112b757600080fd5b5061045d600480360360208110156112ce57600080fd5b5035600160a060020a0316613493565b3480156112ea57600080fd5b50d380156112f757600080fd5b50d2801561130457600080fd5b5061045d6004803603608081101561131b57600080fd5b50600160a060020a03813581169160208101359091169060408101359060600135151561358d565b34801561134f57600080fd5b50d3801561135c57600080fd5b50d2801561136957600080fd5b5061056e6004803603602081101561138057600080fd5b5035600160a060020a0316613618565b34801561139c57600080fd5b50d380156113a957600080fd5b50d280156113b657600080fd5b5061056e600480360360208110156113cd57600080fd5b5035600160a060020a0316613633565b3480156113e957600080fd5b50d380156113f657600080fd5b50d2801561140357600080fd5b5061056e6004803603602081101561141a57600080fd5b5035600160a060020a031661369f565b34801561143657600080fd5b50d3801561144357600080fd5b50d2801561145057600080fd5b5061045d6004803603602081101561146757600080fd5b5035600160a060020a03166136d8565b34801561148357600080fd5b50d3801561149057600080fd5b50d2801561149d57600080fd5b5061056e600480360360208110156114b457600080fd5b5035600160a060020a03166137a9565b3480156114d057600080fd5b50d380156114dd57600080fd5b50d280156114ea57600080fd5b506107c66137c7565b3480156114ff57600080fd5b50d3801561150c57600080fd5b50d2801561151957600080fd5b5061056e6004803603602081101561153057600080fd5b5035600160a060020a03166137d6565b61045d6004803603608081101561155657600080fd5b50600160a060020a038135811691602081013582169160408201359160600135166137f4565b34801561158857600080fd5b50d3801561159557600080fd5b50d280156115a257600080fd5b5061045d600480360360208110156115b957600080fd5b5035600160a060020a03166139b5565b3480156115d557600080fd5b50d380156115e257600080fd5b50d280156115ef57600080fd5b5061056e6004803603602081101561160657600080fd5b5035600160a060020a0316613bf2565b34801561162257600080fd5b50d3801561162f57600080fd5b50d2801561163c57600080fd5b506107c6613c13565b34801561165157600080fd5b50d3801561165e57600080fd5b50d2801561166b57600080fd5b5061045d6004803603604081101561168257600080fd5b50600160a060020a038135169060200135613c22565b3480156116a457600080fd5b50d380156116b157600080fd5b50d280156116be57600080fd5b5061045d600480360360c08110156116d557600080fd5b50600160a060020a03813581169160208101359091169060408101359060608101359060808101359060a001351515613cfc565b34801561171557600080fd5b50d3801561172257600080fd5b50d2801561172f57600080fd5b5061045d6004803603602081101561174657600080fd5b5035600160a060020a0316613d6e565b34801561176257600080fd5b50d3801561176f57600080fd5b50d2801561177c57600080fd5b50610af76004803603604081101561179357600080fd5b50600160a060020a0381358116916020013516613e86565b3480156117b757600080fd5b50d380156117c457600080fd5b50d280156117d157600080fd5b506104ac600480360360608110156117e857600080fd5b50600160a060020a03813581169160208101359091169060400135613f39565b34801561181457600080fd5b50d3801561182157600080fd5b50d2801561182e57600080fd5b5061056e6004803603602081101561184557600080fd5b5035600160a060020a0316614002565b34801561186157600080fd5b50d3801561186e57600080fd5b50d2801561187b57600080fd5b5061056e6004803603602081101561189257600080fd5b5035600160a060020a03166140c0565b3480156118ae57600080fd5b50d380156118bb57600080fd5b50d280156118c857600080fd5b5061045d600480360360208110156118df57600080fd5b5035600160a060020a03166140e1565b3480156118fb57600080fd5b50d3801561190857600080fd5b50d2801561191557600080fd5b5061045d6004803603604081101561192c57600080fd5b50600160a060020a038135169060200135151561421b565b34801561195057600080fd5b50d3801561195d57600080fd5b50d2801561196a57600080fd5b5061045d6004803603602081101561198157600080fd5b5035600160a060020a0316614371565b34801561199d57600080fd5b50d380156119aa57600080fd5b50d280156119b757600080fd5b5061056e600480360360208110156119ce57600080fd5b5035600160a060020a031661446e565b3480156119ea57600080fd5b50d380156119f757600080fd5b50d28015611a0457600080fd5b50611a51600480360360c0811015611a1b57600080fd5b508035600160a060020a039081169160208101359091169060408101359060608101359060808101359060a0013560ff1661448c565b60405180836002811115611a6157fe5b60ff1681526020018281526020019250505060405180910390f35b348015611a8857600080fd5b50d38015611a9557600080fd5b50d28015611aa257600080fd5b5061056e60048036036040811015611ab957600080fd5b50600160a060020a0381358116916020013516614521565b348015611add57600080fd5b50d38015611aea57600080fd5b50d28015611af757600080fd5b5061045d60048036036060811015611b0e57600080fd5b50600160a060020a038135811691602081013590911690604001351515614550565b348015611b3c57600080fd5b50d38015611b4957600080fd5b50d28015611b5657600080fd5b5061045d60048036036060811015611b6d57600080fd5b50600160a060020a038135811691602081013590911690604001356145e7565b348015611b9957600080fd5b50d38015611ba657600080fd5b50d28015611bb357600080fd5b5061056e60048036036040811015611bca57600080fd5b50600160a060020a0381358116916020013516614717565b6000813b115b919050565b600160a060020a03166000908152603660205260409020600d015460e060020a900460ff1690565b60606038805480602002602001604051908101604052809291908181526020018280548015611c6d57602002820191906000526020600020905b8154600160a060020a03168152600190910190602001808311611c4f575b5050505050905090565b600481565b600160a060020a038083166000908152603660209081526040808320600c015481517f70a08231000000000000000000000000000000000000000000000000000000008152868616600482015291519394169283926370a082319260248082019391829003018186803b158015611cf257600080fd5b505afa158015611d06573d6000803e3d6000fd5b505050506040513d6020811015611d1c57600080fd5b50519150505b92915050565b600160a060020a03166000908152603660205260409020600d01547a010000000000000000000000000000000000000000000000000000900460ff1690565b600160a060020a038082166000908152603760209081526040808320938616835292905290812080541515611da0576000915050611d22565b6000816003015411611db3576002611db6565b60015b949350505050565b6035546040805160e060020a6385c858b102815290513392600160a060020a0316916385c858b1916004808301926020929190829003018186803b158015611e0557600080fd5b505afa158015611e19573d6000803e3d6000fd5b505050506040513d6020811015611e2f57600080fd5b5051600160a060020a031614611e795760405160e560020a62461bcd028152600401808060200182810382526037815260200180615f846037913960400191505060405180910390fd5b600160a060020a039182166000908152603660205260409020600d01805473ffffffffffffffffffffffffffffffffffffffff191691909216179055565b603454600160a060020a03163314611f035760405160e560020a62461bcd02815260040180806020018281038252602a815260200180616060602a913960400191505060405180910390fd5b611f0b614746565b600160a060020a03848116911614611f7d573415611f5d5760405160e560020a62461bcd02815260040180806020018281038252603281526020018061602e6032913960400191505060405180910390fd5b611f78600160a060020a03841683308463ffffffff61475e16565b61208f565b34811115611fbf5760405160e560020a62461bcd028152600401808060200182810382526035815260200180615e896035913960400191505060405180910390fd5b8034111561208f576000611fd9348363ffffffff6147e616565b604051909150600090600160a060020a0385169061c35090849084818181858888f193505050503d806000811461202c576040519150601f19603f3d011682016040523d82523d6000602084013e612031565b606091505b5050905080151561208c576040805160e560020a62461bcd02815260206004820152601660248201527f5472616e73666572206f6620545258206661696c656400000000000000000000604482015290519081900360640190fd5b50505b505050565b6035546040805160e060020a6385c858b102815290513392600160a060020a0316916385c858b1916004808301926020929190829003018186803b1580156120db57600080fd5b505afa1580156120ef573d6000803e3d6000fd5b505050506040513d602081101561210557600080fd5b5051600160a060020a03161461214f5760405160e560020a62461bcd028152600401808060200182810382526037815260200180615f846037913960400191505060405180910390fd5b600160a060020a03909116600090815260366020526040902060090155565b600160a060020a039081166000908152603660205260409020600c01541690565b6034546000908190600160a060020a031633146121e05760405160e560020a62461bcd02815260040180806020018281038252602a815260200180616060602a913960400191505060405180910390fd5b6000806121ed8989612e89565b9250509150612200898984848b8a614828565b61220e898989848a8a614857565b61221a8960008961497f565b61222489896149c0565b999098509650505050505050565b6035546040805160e060020a6385c858b102815290513392600160a060020a0316916385c858b1916004808301926020929190829003018186803b15801561227957600080fd5b505afa15801561228d573d6000803e3d6000fd5b505050506040513d60208110156122a357600080fd5b5051600160a060020a0316146122ed5760405160e560020a62461bcd028152600401808060200182810382526037815260200180615f846037913960400191505060405180910390fd5b600160a060020a03166000908152603660205260409020600d0180547cff0000000000000000000000000000000000000000000000000000000019169055565b6035546040805160e060020a6385c858b102815290513392600160a060020a0316916385c858b1916004808301926020929190829003018186803b15801561237457600080fd5b505afa158015612388573d6000803e3d6000fd5b505050506040513d602081101561239e57600080fd5b5051600160a060020a0316146123e85760405160e560020a62461bcd028152600401808060200182810382526037815260200180615f846037913960400191505060405180910390fd5b600160a060020a0380851660009081526036602052604080822081517f13769cd4000000000000000000000000000000000000000000000000000000008152600481019190915286841660248201526044810186905292841660648401525173__CoreLibrary___________________________926313769cd4926084808301939192829003018186803b15801561247f57600080fd5b505af4158015612493573d6000803e3d6000fd5b505050506124a084614a52565b50505050565b600160a060020a031660009081526036602052604090206006015490565b600160a060020a03166000908152603660205260409020600d01547d010000000000000000000000000000000000000000000000000000000000900460ff1690565b600160a060020a03166000908152603660205260409020600d015474010000000000000000000000000000000000000000900464ffffffffff1690565b603880548290811061255157fe5b600091825260209091200154600160a060020a0316905081565b600160a060020a03166000908152603660205260409020600d0154790100000000000000000000000000000000000000000000000000900460ff1690565b600160a060020a03166000908152603660205260409020600b81015460088201546009830154600d9093015491939092917a010000000000000000000000000000000000000000000000000000900460ff1690565b6035546040805160e060020a6385c858b102815290513392600160a060020a0316916385c858b1916004808301926020929190829003018186803b15801561264557600080fd5b505afa158015612659573d6000803e3d6000fd5b505050506040513d602081101561266f57600080fd5b5051600160a060020a0316146126b95760405160e560020a62461bcd028152600401808060200182810382526037815260200180615f846037913960400191505060405180910390fd5b6126c1614b06565b565b6035546040805160e060020a6385c858b102815290513392600160a060020a0316916385c858b1916004808301926020929190829003018186803b15801561270a57600080fd5b505afa15801561271e573d6000803e3d6000fd5b505050506040513d602081101561273457600080fd5b5051600160a060020a03161461277e5760405160e560020a62461bcd028152600401808060200182810382526037815260200180615f846037913960400191505060405180910390fd5b600160a060020a039091166000908152603660205260409020600b0155565b600160a060020a0390811660009081526037602090815260408083209490931682529290925290206004015464ffffffffff1690565b603454600160a060020a0316331461281f5760405160e560020a62461bcd02815260040180806020018281038252602a815260200180616060602a913960400191505060405180910390fd5b61282b89888885614bb1565b61283488614c6a565b6128418988888786614c8e565b61284d8987600061497f565b80151561286f5761286f88600061286a888763ffffffff614d4f16565b61497f565b505050505050505050565b600160a060020a039081166000908152603660205260409020600d01541690565b600160a060020a0380821660009081526037602090815260408083209386168352929052206003015492915050565b6035546040805160e060020a6385c858b102815290513392600160a060020a0316916385c858b1916004808301926020929190829003018186803b15801561291157600080fd5b505afa158015612925573d6000803e3d6000fd5b505050506040513d602081101561293b57600080fd5b5051600160a060020a0316146129855760405160e560020a62461bcd028152600401808060200182810382526037815260200180615f846037913960400191505060405180910390fd5b600160a060020a039091166000908152603660205260409020600a0155565b6035546040805160e060020a6385c858b102815290513392600160a060020a0316916385c858b1916004808301926020929190829003018186803b1580156129eb57600080fd5b505afa1580156129ff573d6000803e3d6000fd5b505050506040513d6020811015612a1557600080fd5b5051600160a060020a031614612a5f5760405160e560020a62461bcd028152600401808060200182810382526037815260200180615f846037913960400191505060405180910390fd5b600160a060020a03166000908152603660205260409020600d0180547fffff00ffffffffffffffffffffffffffffffffffffffffffffffffffffffffff167d010000000000000000000000000000000000000000000000000000000000179055565b600160a060020a031660009081526036602052604090206002015490565b600160a060020a03808216600090815260366020908152604080832060355482517f3618abba00000000000000000000000000000000000000000000000000000000815292519495919486949190921692633618abba9260048083019392829003018186803b158015612b5157600080fd5b505afa158015612b65573d6000803e3d6000fd5b505050506040513d6020811015612b7b57600080fd5b505160058301549091501515612c1a5780600160a060020a031663bb85c0bb856040518263ffffffff1660e060020a0281526004018082600160a060020a0316600160a060020a0316815260200191505060206040518083038186803b158015612be457600080fd5b505afa158015612bf8573d6000803e3d6000fd5b505050506040513d6020811015612c0e57600080fd5b50519250611be8915050565b506005015492915050565b603454600160a060020a03163314612c715760405160e560020a62461bcd02815260040180806020018281038252602a815260200180616060602a913960400191505060405180910390fd5b803415612cb25760405160e560020a62461bcd028152600401808060200182810382526036815260200180615e036036913960400191505060405180910390fd5b612cba614746565b600160a060020a03858116911614612ceb57612ce6600160a060020a038516828563ffffffff614dac16565b6124a0565b604051600090600160a060020a0383169061c35090869084818181858888f193505050503d806000811461202c576040519150601f19603f3d011682016040523d82523d6000602084013e612031565b600160a060020a038116600090815260366020526040812060048101541515612de65780600d0160009054906101000a9004600160a060020a0316600160a060020a03166334762ca56040518163ffffffff1660e060020a02815260040160206040518083038186803b158015612db157600080fd5b505afa158015612dc5573d6000803e3d6000fd5b505050506040513d6020811015612ddb57600080fd5b50519150611be89050565b6004015492915050565b600160a060020a031660009081526036602052604090206003015490565b600160a060020a0390811660009081526037602090815260408083209490931682529290925290206004015465010000000000900460ff1690565b600160a060020a03166000908152603660205260409020600d01547b01000000000000000000000000000000000000000000000000000000900460ff1690565b600160a060020a03808216600090815260376020908152604080832093861683529290529081208054829182911515612ecc575060009250829150819050612f0f565b8054600160a060020a0387166000908152603660205260408120612ef1908490614e2c565b90508181612f05818363ffffffff6147e616565b9550955095505050505b9250925092565b600160a060020a03166000908152603660205260409020600b015490565b6035546040805160e060020a6385c858b102815290513392600160a060020a0316916385c858b1916004808301926020929190829003018186803b158015612f7b57600080fd5b505afa158015612f8f573d6000803e3d6000fd5b505050506040513d6020811015612fa557600080fd5b5051600160a060020a031614612fef5760405160e560020a62461bcd028152600401808060200182810382526037815260200180615f846037913960400191505060405180910390fd5b600160a060020a03841660009081526036602052604080822081517f24ddc4e60000000000000000000000000000000000000000000000000000000081526004810191909152602481018690526044810185905260648101849052905173__CoreLibrary___________________________926324ddc4e69260848082019391829003018186803b15801561308357600080fd5b505af4158015613097573d6000803e3d6000fd5b5050505050505050565b6035546040805160e060020a6385c858b102815290513392600160a060020a0316916385c858b1916004808301926020929190829003018186803b1580156130e857600080fd5b505afa1580156130fc573d6000803e3d6000fd5b505050506040513d602081101561311257600080fd5b5051600160a060020a03161461315c5760405160e560020a62461bcd028152600401808060200182810382526037815260200180615f846037913960400191505060405180910390fd5b600160a060020a03811660009081526036602052604080822081517fe5df56a60000000000000000000000000000000000000000000000000000000081526004810191909152905173__CoreLibrary___________________________9263e5df56a69260248082019391829003018186803b1580156131db57600080fd5b505af415801561208c573d6000803e3d6000fd5b603454600090600160a060020a0316331461323e5760405160e560020a62461bcd02815260040180806020018281038252602a815260200180616060602a913960400191505060405180910390fd5b613249848484614f1e565b613254848484614f6e565b6132608460008061497f565b50600160a060020a038083166000908152603760209081526040808320938716835292905220600301545b9392505050565b603454600160a060020a031633146132de5760405160e560020a62461bcd02815260040180806020018281038252602a815260200180616060602a913960400191505060405180910390fd5b600160a060020a03841660009081526036602052604090206132ff90614fd7565b61330b8460008461497f565b80156124a0576124a084846000614550565b600160a060020a031660009081526036602052604090206007015490565b6035546040805160e060020a6385c858b102815290513392600160a060020a0316916385c858b1916004808301926020929190829003018186803b15801561338257600080fd5b505afa158015613396573d6000803e3d6000fd5b505050506040513d60208110156133ac57600080fd5b5051600160a060020a0316146133f65760405160e560020a62461bcd028152600401808060200182810382526037815260200180615f846037913960400191505060405180910390fd5b600160a060020a038116600090815260366020526040812080549091108015613423575060008160070154115b15156134635760405160e560020a62461bcd028152600401808060200182810382526024815260200180615fbb6024913960400191505060405180910390fd5b600d0180547cff00000000000000000000000000000000000000000000000000000000191660e060020a17905550565b6035546040805160e060020a6385c858b102815290513392600160a060020a0316916385c858b1916004808301926020929190829003018186803b1580156134da57600080fd5b505afa1580156134ee573d6000803e3d6000fd5b505050506040513d602081101561350457600080fd5b5051600160a060020a03161461354e5760405160e560020a62461bcd028152600401808060200182810382526037815260200180615f846037913960400191505060405180910390fd5b600160a060020a03166000908152603660205260409020600d0180547bff00000000000000000000000000000000000000000000000000000019169055565b603454600160a060020a031633146135d95760405160e560020a62461bcd02815260040180806020018281038252602a815260200180616060602a913960400191505060405180910390fd5b600160a060020a03841660009081526036602052604090206135fa90614fd7565b6136068483600061497f565b80156124a0576124a084846001614550565b600160a060020a031660009081526036602052604090205490565b600160a060020a03811660009081526036602052604081208161365582615093565b905080151561366957600092505050611be8565b600061367485614002565b9050613696613689828463ffffffff614d4f16565b839063ffffffff6150b016565b95945050505050565b600160a060020a038116600090815260366020526040812061328b6136c382615093565b6136cc85614002565b9063ffffffff614d4f16565b60006136e26150ec565b60015490915060ff16806136f957506136f96150f1565b80613705575060005481115b15156137455760405160e560020a62461bcd02815260040180806020018281038252602e815260200180616000602e913960400191505060405180910390fd5b60015460ff16158015613764576001805460ff19168117905560008290555b6035805473ffffffffffffffffffffffffffffffffffffffff1916600160a060020a038516179055613794614b06565b801561208f576001805460ff19169055505050565b600160a060020a031660009081526036602052604090206001015490565b603554600160a060020a031681565b600160a060020a03166000908152603660205260409020600a015490565b603454600160a060020a031633146138405760405160e560020a62461bcd02815260040180806020018281038252602a815260200180616060602a913960400191505060405180910390fd5b80613849614746565b600160a060020a038681169116146138bb57341561389b5760405160e560020a62461bcd02815260040180806020018281038252605f81526020018061608a605f913960600191505060405180910390fd5b6138b6600160a060020a03861685838663ffffffff61475e16565b61208c565b348311156138fd5760405160e560020a62461bcd028152600401808060200182810382526035815260200180615e896035913960400191505060405180910390fd5b604051600090600160a060020a0383169061c35090869084818181858888f193505050503d806000811461394d576040519150601f19603f3d011682016040523d82523d6000602084013e613952565b606091505b505090508015156139ad576040805160e560020a62461bcd02815260206004820152601660248201527f5472616e73666572206f6620545258206661696c656400000000000000000000604482015290519081900360640190fd5b505050505050565b6035546040805160e060020a6385c858b102815290513392600160a060020a0316916385c858b1916004808301926020929190829003018186803b1580156139fc57600080fd5b505afa158015613a10573d6000803e3d6000fd5b505050506040513d6020811015613a2657600080fd5b5051600160a060020a031614613a705760405160e560020a62461bcd028152600401808060200182810382526037815260200180615f846037913960400191505060405180910390fd5b60388054600091906000198101908110613a8657fe5b600091825260209091200154600160a060020a03908116915082168114613ae15760405160e560020a62461bcd02815260040180806020018281038252603d815260200180615f17603d913960400191505060405180910390fd5b613aea816140c0565b15613b295760405160e560020a62461bcd028152600401808060200182810382526030815260200180615f546030913960400191505060405180910390fd5b600160a060020a0381166000908152603660205260408120600d81018054600c8301805473ffffffffffffffffffffffffffffffffffffffff19169055600b8301849055838355600783018490556008830184905560098301849055600a909201929092557fffffff00ff0000ffffffffff000000000000000000000000000000000000000016905560388054801515613bbf57fe5b6000828152602090208101600019908101805473ffffffffffffffffffffffffffffffffffffffff191690550190555050565b600160a060020a038116600090815260366020526040812061328b816150f7565b603454600160a060020a031681565b6035546040805160e060020a6385c858b102815290513392600160a060020a0316916385c858b1916004808301926020929190829003018186803b158015613c6957600080fd5b505afa158015613c7d573d6000803e3d6000fd5b505050506040513d6020811015613c9357600080fd5b5051600160a060020a031614613cdd5760405160e560020a62461bcd028152600401808060200182810382526037815260200180615f846037913960400191505060405180910390fd5b600160a060020a03909116600090815260366020526040902060080155565b603454600160a060020a03163314613d485760405160e560020a62461bcd02815260040180806020018281038252602a815260200180616060602a913960400191505060405180910390fd5b613d5486868685615125565b613d62868686868686615189565b6139ad8685600061497f565b6035546040805160e060020a6385c858b102815290513392600160a060020a0316916385c858b1916004808301926020929190829003018186803b158015613db557600080fd5b505afa158015613dc9573d6000803e3d6000fd5b505050506040513d6020811015613ddf57600080fd5b5051600160a060020a031614613e295760405160e560020a62461bcd028152600401808060200182810382526037815260200180615f846037913960400191505060405180910390fd5b600160a060020a03166000908152603660205260409020600d0180547bff00000000000000000000000000000000000000000000000000000019167b01000000000000000000000000000000000000000000000000000000179055565b600160a060020a038083166000818152603660209081526040808320948616835260378252808320938352929052908120909182918291829182613eca8989611c7c565b82549091501515613efb576004909101549095506000945084935060ff65010000000000909104169150613f309050565b80613f0c838563ffffffff614e2c16565b600284015460049094015491985096509194505065010000000000900460ff169150505b92959194509250565b600160a060020a038381166000818152603660209081526040808320948716835260378252808320938352929052908120600d8301549192917b01000000000000000000000000000000000000000000000000000000900460ff161515613fa55760009250505061328b565b600481015465010000000000900460ff161580613fe55750600d8201547a010000000000000000000000000000000000000000000000000000900460ff16155b80613ff85750613ff58686611c7c565b84115b9695505050505050565b60008061400d614746565b600160a060020a031683600160a060020a0316141561402e57503031611d22565b604080517f70a082310000000000000000000000000000000000000000000000000000000081523060048201529051600160a060020a038516916370a08231916024808301926020929190829003018186803b15801561408d57600080fd5b505afa1580156140a1573d6000803e3d6000fd5b505050506040513d60208110156140b757600080fd5b50519392505050565b600160a060020a0381166000908152603660205260408120611d2290615093565b6035546040805160e060020a6385c858b102815290513392600160a060020a0316916385c858b1916004808301926020929190829003018186803b15801561412857600080fd5b505afa15801561413c573d6000803e3d6000fd5b505050506040513d602081101561415257600080fd5b5051600160a060020a03161461419c5760405160e560020a62461bcd028152600401808060200182810382526037815260200180615f846037913960400191505060405180910390fd5b600160a060020a03811660009081526036602052604080822081517f83c165a00000000000000000000000000000000000000000000000000000000081526004810191909152905173__CoreLibrary___________________________926383c165a09260248082019391829003018186803b1580156131db57600080fd5b6035546040805160e060020a6385c858b102815290513392600160a060020a0316916385c858b1916004808301926020929190829003018186803b15801561426257600080fd5b505afa158015614276573d6000803e3d6000fd5b505050506040513d602081101561428c57600080fd5b5051600160a060020a0316146142d65760405160e560020a62461bcd028152600401808060200182810382526037815260200180615f846037913960400191505060405180910390fd5b600160a060020a03821660009081526036602052604080822081517ff63babbe00000000000000000000000000000000000000000000000000000000815260048101919091528315156024820152905173__CoreLibrary___________________________9263f63babbe9260448082019391829003018186803b15801561435d57600080fd5b505af41580156139ad573d6000803e3d6000fd5b6035546040805160e060020a6385c858b102815290513392600160a060020a0316916385c858b1916004808301926020929190829003018186803b1580156143b857600080fd5b505afa1580156143cc573d6000803e3d6000fd5b505050506040513d60208110156143e257600080fd5b5051600160a060020a03161461442c5760405160e560020a62461bcd028152600401808060200182810382526037815260200180615f846037913960400191505060405180910390fd5b600160a060020a03166000908152603660205260409020600d0180547fffff00ffffffffffffffffffffffffffffffffffffffffffffffffffffffffff169055565b600160a060020a031660009081526036602052604090206009015490565b6034546000908190600160a060020a031633146144dd5760405160e560020a62461bcd02815260040180806020018281038252602a815260200180616060602a913960400191505060405180910390fd5b6144ea8888888887615206565b60006144f889898787615308565b90506145068960008061497f565b806145118a8a6149c0565b9250925050965096945050505050565b600160a060020a0380821660009081526037602090815260408083209386168352929052206001015492915050565b603454600160a060020a0316331461459c5760405160e560020a62461bcd02815260040180806020018281038252602a815260200180616060602a913960400191505060405180910390fd5b600160a060020a0391821660009081526037602090815260408083209590941682529390935291206004018054911515650100000000000265ff000000000019909216919091179055565b603454600160a060020a031633146146335760405160e560020a62461bcd02815260040180806020018281038252602a815260200180616060602a913960400191505060405180910390fd5b61463b614746565b600160a060020a0384811691161461466757611f78600160a060020a038416838363ffffffff614dac16565b604051600090600160a060020a0384169061c35090849084818181858888f193505050503d80600081146146b7576040519150601f19603f3d011682016040523d82523d6000602084013e6146bc565b606091505b505090508015156124a0576040805160e560020a62461bcd02815260206004820152601660248201527f5472616e73666572206f6620545258206661696c656400000000000000000000604482015290519081900360640190fd5b600160a060020a0380821660009081526037602090815260408083209386168352929052206002015492915050565b73eeeeeeeeeeeeeeeeeeeeeeeeeeeeeeeeeeeeeeee90565b60408051600160a060020a0385811660248301528416604482015260648082018490528251808303909101815260849091019091526020810180517bffffffffffffffffffffffffffffffffffffffffffffffffffffffff167f23b872dd000000000000000000000000000000000000000000000000000000001790526124a0908590615409565b600061328b83836040805190810160405280601e81526020017f536166654d6174683a207375627472616374696f6e206f766572666c6f7700008152506155d3565b600160a060020a038616600090815260366020526040902061484990614fd7565b6139ad86868686868661566d565b600160a060020a038087166000818152603660209081526040808320948a1683526037825280832093835292905220600183600281111561489457fe5b14156148b057600582015460038201556000600182015561492a565b60028360028111156148be57fe5b14156148da57600060038201556007820154600182015561492a565b6040805160e560020a62461bcd02815260206004820152601860248201527f496e76616c696420626f72726f772072617465206d6f64650000000000000000604482015290519081900360640190fd5b80546149429086906136cc908963ffffffff614d4f16565b81556002810154614959908563ffffffff614d4f16565b6002820155600401805464ffffffffff19164264ffffffffff1617905550505050505050565b61498a8383836157cc565b6149926150ec565b6040517fb362f715591e6551ba78917a287fa286eed1ded21d619b267911b67f595af1c990600090a2505050565b6000806149cd8484611d67565b905060008160028111156149dd57fe5b14156149ed576000915050611d22565b60018160028111156149fb57fe5b14614a2157600160a060020a038416600090815260366020526040902060040154611db6565b5050600160a060020a0390811660009081526037602090815260408083209490931682529290925290206003015490565b6000805b603854811015614aa15782600160a060020a0316603882815481101515614a7957fe5b600091825260209091200154600160a060020a03161415614a9957600191505b600101614a56565b50801515614b0257603880546001810182556000919091527f38395c5dceade9603479b177b68959049485df8aa97b39f3533039af5f45619901805473ffffffffffffffffffffffffffffffffffffffff1916600160a060020a0384161790555b5050565b603560009054906101000a9004600160a060020a0316600160a060020a0316630261bf8b6040518163ffffffff1660e060020a02815260040160206040518083038186803b158015614b5757600080fd5b505afa158015614b6b573d6000803e3d6000fd5b505050506040513d6020811015614b8157600080fd5b50516034805473ffffffffffffffffffffffffffffffffffffffff1916600160a060020a03909216919091179055565b600160a060020a03808516600081815260366020908152604080832094881683526037825280832093835292905220614be982614fd7565b6000614bf58787611d67565b905060015b816002811115614c0657fe5b1415614c41576003820154614c24908490869063ffffffff61597e16565b6003820154614c3c908490879063ffffffff6159ee16565b614c61565b614c51838563ffffffff615b0116565b614c61838663ffffffff615b2216565b50505050505050565b600160a060020a0381166000908152603660205260409020614c8b90614fd7565b50565b600160a060020a038085166000908152603760209081526040808320938916835292815282822060369091529190208154614ce1908690614cd5908663ffffffff614d4f16565b9063ffffffff6147e616565b82556002614cef8888611d67565b6002811115614cfa57fe5b1415614d0b57600781015460018301555b6000841115614d2f576002820154614d29908563ffffffff6147e616565b60028301555b50600401805464ffffffffff19164264ffffffffff161790555050505050565b60008282018381101561328b576040805160e560020a62461bcd02815260206004820152601b60248201527f536166654d6174683a206164646974696f6e206f766572666c6f770000000000604482015290519081900360640190fd5b60408051600160a060020a038416602482015260448082018490528251808303909101815260649091019091526020810180517bffffffffffffffffffffffffffffffffffffffffffffffffffffffff167fa9059cbb0000000000000000000000000000000000000000000000000000000017905261208f908490615409565b81546000901515614e3f57506000611d22565b6000614e4e8460000154615b7d565b60038501549091506000908190811015614e845760038601546004870154614e7d919064ffffffffff16615b93565b9050614ed2565b614ecf8660010154614ec38760070154614eb789600401548a600d0160149054906101000a900464ffffffffff16615b93565b9063ffffffff615be216565b9063ffffffff6150b016565b90505b614eea614ee5848363ffffffff615be216565b615c1a565b8654909250821415614f1557600486015464ffffffffff164214614f1557505083549150611d229050565b50949350505050565b600160a060020a03808416600081815260366020908152604080832094871683526037825280832093835292905220614f5682614fd7565b600381015461208c908390859063ffffffff61597e16565b600160a060020a038083166000908152603760209081526040808320938716835292815282822060369091529190208154614faf908463ffffffff614d4f16565b8255600501546003820155600401805464ffffffffff19164264ffffffffff16179055505050565b6000614fe282615093565b90506000811115614b02576001820154600d8301546000916150229174010000000000000000000000000000000000000000900464ffffffffff16615c33565b835490915061503890829063ffffffff615be216565b83556004830154600d84015460009161506f9174010000000000000000000000000000000000000000900464ffffffffff16615b93565b9050615088846007015482615be290919063ffffffff16565b600785015550505050565b6000611d2282600301548360020154614d4f90919063ffffffff16565b600060028204611db6836150e06150d3876b033b2e3c9fd0803ce8000000615c87565b849063ffffffff614d4f16565b9063ffffffff615ce716565b600590565b303b1590565b60008061328b8360000154614eb7856001015486600d0160149054906101000a900464ffffffffff16615c33565b600160a060020a0380851660009081526036602090815260408083206037835281842094881684529390915281209061515e8787611d67565b600160a060020a038816600090815260366020526040902090915061518290614fd7565b6001614bfa565b600160a060020a038087166000818152603660209081526040808320948a168352603782528083209383529290522080546151d0908790614cd5908763ffffffff614d4f16565b81556007820154600182015582156151f15760006003820181905560018201555b6002810154614959908663ffffffff6147e616565b600160a060020a0380861660008181526036602090815260408083209489168352603782528083209383529290522061523e82614fd7565b600183600281111561524c57fe5b141561527e57600381015461526883878363ffffffff6159ee16565b615278838663ffffffff615b0116565b50614c61565b600283600281111561528c57fe5b14156152b85760058201546152a7838763ffffffff615b2216565b61527883868363ffffffff61597e16565b6040805160e560020a62461bcd02815260206004820152601a60248201527f496e76616c69642072617465206d6f6465207265636569766564000000000000604482015290519081900360640190fd5b600160a060020a0380841660009081526037602090815260408083209388168352928152828220603690915291812090919082600285600281111561534957fe5b141561536a57506005810154600383015560006001838101919091556153d1565b600185600281111561537857fe5b14156153975750600060038301556007810154600183015560026153d1565b60405160e560020a62461bcd0281526004018080602001828103825260238152602001806160e96023913960400191505060405180910390fd5b82546153e3908763ffffffff614d4f16565b83556004909201805464ffffffffff19164264ffffffffff161790555095945050505050565b61541b82600160a060020a0316611be2565b1515615471576040805160e560020a62461bcd02815260206004820152601f60248201527f5361666545524332303a2063616c6c20746f206e6f6e2d636f6e747261637400604482015290519081900360640190fd5b6000606083600160a060020a0316836040518082805190602001908083835b602083106154af5780518252601f199092019160209182019101615490565b6001836020036101000a0380198251168184511680821785525050505050509050019150506000604051808303816000865af19150503d8060008114615511576040519150601f19603f3d011682016040523d82523d6000602084013e615516565b606091505b5091509150811515615572576040805160e560020a62461bcd02815260206004820181905260248201527f5361666545524332303a206c6f772d6c6576656c2063616c6c206661696c6564604482015290519081900360640190fd5b6000815111156124a05780806020019051602081101561559157600080fd5b505115156124a05760405160e560020a62461bcd02815260040180806020018281038252602a81526020018061610c602a913960400191505060405180910390fd5b600081848411156156655760405160e560020a62461bcd0281526004018080602001828103825283818151815260200191508051906020019080838360005b8381101561562a578181015183820152602001615612565b50505050905090810190601f1680156156575780820380516001836020036101000a031916815260200191505b509250505060405180910390fd5b505050900390565b60006156798787611d67565b600160a060020a038816600090815260366020526040902090915060018260028111156156a257fe5b14156156eb57600160a060020a038088166000908152603760209081526040808320938c1683529290522060038101546156e5908390899063ffffffff6159ee16565b5061570f565b60028260028111156156f957fe5b141561570f5761570f818763ffffffff615b2216565b6000615725856136cc898963ffffffff614d4f16565b9050600184600281111561573557fe5b1415615758576005820154615753908390839063ffffffff61597e16565b61286f565b600284600281111561576657fe5b141561577c57615753828263ffffffff615b0116565b6040805160e560020a62461bcd02815260206004820152601c60248201527f496e76616c6964206e657720626f72726f772072617465206d6f646500000000604482015290519081900360640190fd5b600160a060020a038084166000908152603660205260408120600d810154909282918291166357e37af08861580888614cd58b6136cc85614002565b8760020154886003015489600601546040518663ffffffff1660e060020a0281526004018086600160a060020a0316600160a060020a031681526020018581526020018481526020018381526020018281526020019550505050505060606040518083038186803b15801561587c57600080fd5b505afa158015615890573d6000803e3d6000fd5b505050506040513d60608110156158a657600080fd5b508051602080830151604093840151600189018490556005890182905560048901819055600d8901805464ffffffffff4216740100000000000000000000000000000000000000000278ffffffffff000000000000000000000000000000000000000019909116179055885460078a015486518681529485018490528487018390526060850191909152608084015293519296509450919250600160a060020a038916917f04e4f521f16fcfd987978b05504262c2a2db223844977aab000e5accedb2d725919081900360a00190a250505050505050565b6002830154615993818463ffffffff614d4f16565b600285015560006159a783614eb786615b7d565b905060006159bc8660060154614eb785615b7d565b90506159de6159ce8760020154615b7d565b614ec3848463ffffffff614d4f16565b8660060181905550505050505050565b6002830154821115615a4a576040805160e560020a62461bcd02815260206004820152601a60248201527f496e76616c696420616d6f756e7420746f206465637265617365000000000000604482015290519081900360640190fd5b6002830154615a5f818463ffffffff6147e616565b600285018190551515615a7957506000600684015561208f565b6000615a8883614eb786615b7d565b90506000615a9d8660060154614eb785615b7d565b905081811015615ae15760405160e560020a62461bcd028152600401808060200182810382526023815260200180615ef46023913960400191505060405180910390fd5b6159de615af18760020154615b7d565b614ec3838563ffffffff6147e616565b6003820154615b16908263ffffffff614d4f16565b82600301819055505050565b6003820154811115615b685760405160e560020a62461bcd028152600401808060200182810382526050815260200180615e396050913960600191505060405180910390fd5b6003820154615b16908263ffffffff6147e616565b6000611d2282633b9aca0063ffffffff615c8716565b600080615bad4264ffffffffff851663ffffffff6147e616565b90506000615bc5856301e1338063ffffffff615ce716565b905061369682615bd66150d3615d29565b9063ffffffff615d3916565b600061328b6b033b2e3c9fd0803ce80000006150e0615c07868663ffffffff615c8716565b6b019d971e4fe8401e7400000090614d4f565b6000631dcd650061328b633b9aca006150e08386614d4f565b600080615c4d4264ffffffffff851663ffffffff6147e616565b90506000615c6a615c616301e13380615b7d565b614ec384615b7d565b9050613696615c77615d29565b6136cc878463ffffffff615be216565b6000821515615c9857506000611d22565b828202828482811515615ca757fe5b041461328b5760405160e560020a62461bcd028152600401808060200182810382526021815260200180615fdf6021913960400191505060405180910390fd5b600061328b83836040805190810160405280601a81526020017f536166654d6174683a206469766973696f6e206279207a65726f000000000000815250615d95565b6b033b2e3c9fd0803ce800000090565b6000600282061515615d57576b033b2e3c9fd0803ce8000000615d59565b825b90506002820491505b8115611d2257615d728384615be2565b92506002820615615d8a57615d878184615be2565b90505b600282049150615d62565b600081818411615dea5760405160e560020a62461bcd0281526004018080602001828103825283818151815260200191508051906020019080838360008381101561562a578181015183820152602001615612565b5060008385811515615df857fe5b049594505050505056fe466565206c69717569646174696f6e20646f6573206e6f74207265717569726520616e79207472616e73666572206f662076616c756554686520616d6f756e742074686174206973206265696e6720737562747261637465642066726f6d20746865207661726961626c6520746f74616c20626f72726f777320697320696e636f727265637454686520616d6f756e7420616e64207468652076616c75652073656e7420746f206465706f73697420646f206e6f74206d617463684f6e6c7920636f6e7472616374732063616e2073656e6420657468657220746f20746865204c656e64696e6720706f6f6c20636f726554686520616d6f756e747320746f20737562747261637420646f6e2774206d6174636852657365727665206265696e672072656d6f76656420697320646966666572656e74207468616e2074686520726573657276652072657175657374656443616e6e6f742072656d6f7665206120726573657276652077697468206c6971756964697479206465706f73697465645468652063616c6c6572206d7573742062652061206c656e64696e6720706f6f6c20636f6e666967757261746f7220636f6e74726163745265736572766520686173206e6f74206265656e20696e697469616c697a656420796574536166654d6174683a206d756c7469706c69636174696f6e206f766572666c6f77436f6e747261637420696e7374616e63652068617320616c7265616479206265656e20696e697469616c697a6564557365722069732073656e64696e672054525820616c6f6e67207769746820746865204552433230207472616e736665722e5468652063616c6c6572206d7573742062652061206c656e64696e6720706f6f6c20636f6e7472616374557365722069732073656e64696e672054525820616c6f6e67207769746820746865204552433230207472616e736665722e20436865636b207468652076616c756520617474726962757465206f6620746865207472616e73616374696f6e496e76616c696420696e7465726573742072617465206d6f64652072656365697665645361666545524332303a204552433230206f7065726174696f6e20646964206e6f742073756363656564a165627a7a72305820148cab7fa13e817628c2e00d2ab7b72424b66398d31b82288246524733d91ef60029",
  "source": "pragma solidity ^0.5.0;\n\nimport \"../../libraries/openzeppelin-solidity/contracts/math/SafeMath.sol\";\nimport \"../../libraries/openzeppelin-solidity/contracts/token/ERC20/SafeERC20.sol\";\nimport \"../../libraries/openzeppelin-solidity/contracts/token/ERC20/ERC20.sol\";\nimport \"../../libraries/openzeppelin-solidity/contracts/utils/Address.sol\";\nimport \"../../libraries/openzeppelin-upgradeability/VersionedInitializable.sol\";\n\nimport \"../../libraries/CoreLibrary.sol\";\nimport \"../../configuration/LendingPoolAddressesProvider.sol\";\nimport \"../../interfaces/ILendingRateOracle.sol\";\nimport \"../../interfaces/IReserveInterestRateStrategy.sol\";\nimport \"../../libraries/WadRayMath.sol\";\n\nimport \"../../lendingpool/LendingPoolCore.sol\";\n\n/*************************************************************************************\n* @title MockLendingPoolCore contract\n* @author Aave\n* @notice This is a mock contract to test upgradeability of the AddressProvider\n *************************************************************************************/\n\ncontract MockLendingPoolCore is LendingPoolCore {\n\n    event ReserveUpdatedFromMock(uint256 indexed revision);\n\n    uint256 constant private CORE_REVISION = 0x5;\n\n    function getRevision() internal pure returns(uint256) {\n        return CORE_REVISION;\n    }\n\n    function initialize(LendingPoolAddressesProvider _addressesProvider) public initializer {\n        addressesProvider = _addressesProvider;\n        refreshConfigInternal();\n    }\n\n    function updateReserveInterestRatesAndTimestampInternal(address _reserve, uint256 _liquidityAdded, uint256 _liquidityTaken)\n        internal\n    {\n        super.updateReserveInterestRatesAndTimestampInternal(_reserve, _liquidityAdded, _liquidityTaken);\n\n        emit ReserveUpdatedFromMock(getRevision());\n\n    }\n}\n",
  "sourcePath": "/Users/bibodeng/Programming/water_loan_core/contracts/mocks/upgradeability/MockLendingPoolCore.sol",
  "compiler": {
    "name": "solc",
    "version": "0.5.4+commit.d15a3125.mod.Emscripten.clang"
  },
  "schemaVersion": "2.0.1",
  "updatedAt": "2020-11-19T10:56:46.924Z"
}