{
  "contractName": "RefundEscrow",
  "abi": [
    {
      "constant": false,
      "inputs": [
        {
          "name": "recipient",
          "type": "address"
        }
      ],
      "name": "transferPrimary",
      "outputs": [],
      "payable": false,
      "stateMutability": "nonpayable",
      "type": "function"
    },
    {
      "constant": false,
      "inputs": [
        {
          "name": "payee",
          "type": "address"
        }
      ],
      "name": "withdraw",
      "outputs": [],
      "payable": false,
      "stateMutability": "nonpayable",
      "type": "function"
    },
    {
      "constant": false,
      "inputs": [
        {
          "name": "payee",
          "type": "address"
        }
      ],
      "name": "withdrawWithGas",
      "outputs": [],
      "payable": false,
      "stateMutability": "nonpayable",
      "type": "function"
    },
    {
      "constant": true,
      "inputs": [],
      "name": "primary",
      "outputs": [
        {
          "name": "",
          "type": "address"
        }
      ],
      "payable": false,
      "stateMutability": "view",
      "type": "function"
    },
    {
      "constant": true,
      "inputs": [
        {
          "name": "payee",
          "type": "address"
        }
      ],
      "name": "depositsOf",
      "outputs": [
        {
          "name": "",
          "type": "uint256"
        }
      ],
      "payable": false,
      "stateMutability": "view",
      "type": "function"
    },
    {
      "inputs": [
        {
          "name": "beneficiary",
          "type": "address"
        }
      ],
      "payable": false,
      "stateMutability": "nonpayable",
      "type": "constructor"
    },
    {
      "anonymous": false,
      "inputs": [],
      "name": "RefundsClosed",
      "type": "event"
    },
    {
      "anonymous": false,
      "inputs": [],
      "name": "RefundsEnabled",
      "type": "event"
    },
    {
      "anonymous": false,
      "inputs": [
        {
          "indexed": true,
          "name": "payee",
          "type": "address"
        },
        {
          "indexed": false,
          "name": "weiAmount",
          "type": "uint256"
        }
      ],
      "name": "Deposited",
      "type": "event"
    },
    {
      "anonymous": false,
      "inputs": [
        {
          "indexed": true,
          "name": "payee",
          "type": "address"
        },
        {
          "indexed": false,
          "name": "weiAmount",
          "type": "uint256"
        }
      ],
      "name": "Withdrawn",
      "type": "event"
    },
    {
      "anonymous": false,
      "inputs": [
        {
          "indexed": false,
          "name": "recipient",
          "type": "address"
        }
      ],
      "name": "PrimaryTransferred",
      "type": "event"
    },
    {
      "constant": true,
      "inputs": [],
      "name": "state",
      "outputs": [
        {
          "name": "",
          "type": "uint8"
        }
      ],
      "payable": false,
      "stateMutability": "view",
      "type": "function"
    },
    {
      "constant": true,
      "inputs": [],
      "name": "beneficiary",
      "outputs": [
        {
          "name": "",
          "type": "address"
        }
      ],
      "payable": false,
      "stateMutability": "view",
      "type": "function"
    },
    {
      "constant": false,
      "inputs": [
        {
          "name": "refundee",
          "type": "address"
        }
      ],
      "name": "deposit",
      "outputs": [],
      "payable": true,
      "stateMutability": "payable",
      "type": "function"
    },
    {
      "constant": false,
      "inputs": [],
      "name": "close",
      "outputs": [],
      "payable": false,
      "stateMutability": "nonpayable",
      "type": "function"
    },
    {
      "constant": false,
      "inputs": [],
      "name": "enableRefunds",
      "outputs": [],
      "payable": false,
      "stateMutability": "nonpayable",
      "type": "function"
    },
    {
      "constant": false,
      "inputs": [],
      "name": "beneficiaryWithdraw",
      "outputs": [],
      "payable": false,
      "stateMutability": "nonpayable",
      "type": "function"
    },
    {
      "constant": true,
      "inputs": [
        {
          "name": "",
          "type": "address"
        }
      ],
      "name": "withdrawalAllowed",
      "outputs": [
        {
          "name": "",
          "type": "bool"
        }
      ],
      "payable": false,
      "stateMutability": "view",
      "type": "function"
    }
  ],
  "bytecode": "0x608060405234801561001057600080fd5b50d3801561001d57600080fd5b50d2801561002a57600080fd5b50604051602080610f8d8339810180604052602081101561004a57600080fd5b505161005d640100000000610143810204565b60008054600160a060020a031916600160a060020a0392831617908190556040805191909216815290517f4101e71e974f68df5e9730cc223280b41654676bbb052cdcc735c3337e64d2d9916020908290030190a1600160a060020a0381161515610113576040517f08c379a000000000000000000000000000000000000000000000000000000000815260040180806020018281038252602d815260200180610f60602d913960400191505060405180910390fd5b6002805460ff19600160a060020a03939093166101000261010060a860020a031990911617919091169055610147565b3390565b610e0a806101566000396000f3fe6080604052600436106100c4576000357c0100000000000000000000000000000000000000000000000000000000900480638c52dc41116100815780638c52dc411461028d5780639af6549a146102bc578063c19d93fb146102eb578063c6dbdf611461033e578063e3a9db1a1461036d578063f340fa01146103cc576100c4565b80632348238c146100c957806338af3eed1461011857806343d726d61461016357806351cff8d9146101925780636809691a146101df578063685ca1941461022c575b600080fd5b3480156100d557600080fd5b50d380156100e257600080fd5b50d280156100ef57600080fd5b506101166004803603602081101561010657600080fd5b5035600160a060020a03166103f2565b005b34801561012457600080fd5b50d3801561013157600080fd5b50d2801561013e57600080fd5b506101476104ff565b60408051600160a060020a039092168252519081900360200190f35b34801561016f57600080fd5b50d3801561017c57600080fd5b50d2801561018957600080fd5b50610116610513565b34801561019e57600080fd5b50d380156101ab57600080fd5b50d280156101b857600080fd5b50610116600480360360208110156101cf57600080fd5b5035600160a060020a03166105f8565b3480156101eb57600080fd5b50d380156101f857600080fd5b50d2801561020557600080fd5b506101166004803603602081101561021c57600080fd5b5035600160a060020a031661064d565b34801561023857600080fd5b50d3801561024557600080fd5b50d2801561025257600080fd5b506102796004803603602081101561026957600080fd5b5035600160a060020a031661071a565b604080519115158252519081900360200190f35b34801561029957600080fd5b50d380156102a657600080fd5b50d280156102b357600080fd5b50610116610736565b3480156102c857600080fd5b50d380156102d557600080fd5b50d280156102e257600080fd5b5061011661081c565b3480156102f757600080fd5b50d3801561030457600080fd5b50d2801561031157600080fd5b5061031a6108ad565b6040518082600281111561032a57fe5b60ff16815260200191505060405180910390f35b34801561034a57600080fd5b50d3801561035757600080fd5b50d2801561036457600080fd5b506101476108b6565b34801561037957600080fd5b50d3801561038657600080fd5b50d2801561039357600080fd5b506103ba600480360360208110156103aa57600080fd5b5035600160a060020a03166108c5565b60408051918252519081900360200190f35b610116600480360360208110156103e257600080fd5b5035600160a060020a03166108e0565b600054600160a060020a031661040661093b565b600160a060020a03161461044e5760405160e560020a62461bcd02815260040180806020018281038252602c815260200180610d81602c913960400191505060405180910390fd5b600160a060020a03811615156104985760405160e560020a62461bcd02815260040180806020018281038252602a815260200180610d57602a913960400191505060405180910390fd5b6000805473ffffffffffffffffffffffffffffffffffffffff1916600160a060020a03838116919091179182905560408051929091168252517f4101e71e974f68df5e9730cc223280b41654676bbb052cdcc735c3337e64d2d9916020908290030190a150565b6002546101009004600160a060020a031690565b600054600160a060020a031661052761093b565b600160a060020a03161461056f5760405160e560020a62461bcd02815260040180806020018281038252602c815260200180610d81602c913960400191505060405180910390fd5b60006002805460ff169081111561058257fe5b146105c15760405160e560020a62461bcd028152600401808060200182810382526029815260200180610d2e6029913960400191505060405180910390fd5b6002805460ff1916811790556040517f088672c3a6e342f7cd94a65ba63b79df24a8973927b4d05d803c44bbf787d12f90600090a1565b6106018161071a565b15156106415760405160e560020a62461bcd028152600401808060200182810382526033815260200180610cfb6033913960400191505060405180910390fd5b61064a8161093f565b50565b600054600160a060020a031661066161093b565b600160a060020a0316146106a95760405160e560020a62461bcd02815260040180806020018281038252602c815260200180610d81602c913960400191505060405180910390fd5b600160a060020a03811660008181526001602052604081208054919055906106d7908263ffffffff610a2916565b604080518281529051600160a060020a038416917f7084f5476618d8e60b11ef0d7d3f06914655adb8793e28ff7f018d4c76d505d5919081900360200190a25050565b600060016002805460ff169081111561072f57fe5b1492915050565b600054600160a060020a031661074a61093b565b600160a060020a0316146107925760405160e560020a62461bcd02815260040180806020018281038252602c815260200180610d81602c913960400191505060405180910390fd5b60006002805460ff16908111156107a557fe5b146107e45760405160e560020a62461bcd028152600401808060200182810382526032815260200180610dad6032913960400191505060405180910390fd5b6002805460ff191660011790556040517f599d8e5a83cffb867d051598c4d70e805d59802d8081c1c7d6dffc5b6aca2b8990600090a1565b6002805460ff168181111561082d57fe5b1461086c5760405160e560020a62461bcd028152600401808060200182810382526038815260200180610c5e6038913960400191505060405180910390fd5b600254604051600160a060020a036101009092049190911690303180156108fc02916000818181858888f1935050505015801561064a573d6000803e3d6000fd5b60025460ff1690565b600054600160a060020a031690565b600160a060020a031660009081526001602052604090205490565b60006002805460ff16908111156108f357fe5b146109325760405160e560020a62461bcd02815260040180806020018281038252602b815260200180610cd0602b913960400191505060405180910390fd5b61064a81610b1c565b3390565b600054600160a060020a031661095361093b565b600160a060020a03161461099b5760405160e560020a62461bcd02815260040180806020018281038252602c815260200180610d81602c913960400191505060405180910390fd5b600160a060020a038116600081815260016020526040808220805490839055905190929183156108fc02918491818181858888f193505050501580156109e5573d6000803e3d6000fd5b50604080518281529051600160a060020a038416917f7084f5476618d8e60b11ef0d7d3f06914655adb8793e28ff7f018d4c76d505d5919081900360200190a25050565b3031811115610a82576040805160e560020a62461bcd02815260206004820152601d60248201527f416464726573733a20696e73756666696369656e742062616c616e6365000000604482015290519081900360640190fd5b604051600090600160a060020a0384169083908381818185875af1925050503d8060008114610acd576040519150601f19603f3d011682016040523d82523d6000602084013e610ad2565b606091505b50509050801515610b175760405160e560020a62461bcd02815260040180806020018281038252603a815260200180610c96603a913960400191505060405180910390fd5b505050565b600054600160a060020a0316610b3061093b565b600160a060020a031614610b785760405160e560020a62461bcd02815260040180806020018281038252602c815260200180610d81602c913960400191505060405180910390fd5b600160a060020a0381166000908152600160205260409020543490610ba3908263ffffffff610bf916565b600160a060020a038316600081815260016020908152604091829020939093558051848152905191927f2da466a7b24304f47e87fa2e1e5a81b9831ce54fec19055ce277ca2f39ba42c492918290030190a25050565b600082820183811015610c56576040805160e560020a62461bcd02815260206004820152601b60248201527f536166654d6174683a206164646974696f6e206f766572666c6f770000000000604482015290519081900360640190fd5b939250505056fe526566756e64457363726f773a2062656e65666963696172792063616e206f6e6c79207769746864726177207768696c6520636c6f736564416464726573733a20756e61626c6520746f2073656e642076616c75652c20726563697069656e74206d61792068617665207265766572746564526566756e64457363726f773a2063616e206f6e6c79206465706f736974207768696c6520616374697665436f6e646974696f6e616c457363726f773a207061796565206973206e6f7420616c6c6f77656420746f207769746864726177526566756e64457363726f773a2063616e206f6e6c7920636c6f7365207768696c65206163746976655365636f6e646172793a206e6577207072696d61727920697320746865207a65726f20616464726573735365636f6e646172793a2063616c6c6572206973206e6f7420746865207072696d617279206163636f756e74526566756e64457363726f773a2063616e206f6e6c7920656e61626c6520726566756e6473207768696c6520616374697665a165627a7a723058203a6d758228ae0050fb6e7ef6456b912e2fece96604032ac8a23b9db57f4f0efb0029526566756e64457363726f773a2062656e656669636961727920697320746865207a65726f2061646472657373",
  "source": "pragma solidity ^0.5.0;\n\nimport \"./ConditionalEscrow.sol\";\n\n/**\n * @title RefundEscrow\n * @dev Escrow that holds funds for a beneficiary, deposited from multiple\n * parties.\n * @dev Intended usage: See {Escrow}. Same usage guidelines apply here.\n * @dev The primary account (that is, the contract that instantiates this\n * contract) may deposit, close the deposit period, and allow for either\n * withdrawal by the beneficiary, or refunds to the depositors. All interactions\n * with `RefundEscrow` will be made through the primary contract. See the\n * `RefundableCrowdsale` contract for an example of `RefundEscrow`’s use.\n */\ncontract RefundEscrow is ConditionalEscrow {\n    enum State { Active, Refunding, Closed }\n\n    event RefundsClosed();\n    event RefundsEnabled();\n\n    State private _state;\n    address payable private _beneficiary;\n\n    /**\n     * @dev Constructor.\n     * @param beneficiary The beneficiary of the deposits.\n     */\n    constructor (address payable beneficiary) public {\n        require(beneficiary != address(0), \"RefundEscrow: beneficiary is the zero address\");\n        _beneficiary = beneficiary;\n        _state = State.Active;\n    }\n\n    /**\n     * @return The current state of the escrow.\n     */\n    function state() public view returns (State) {\n        return _state;\n    }\n\n    /**\n     * @return The beneficiary of the escrow.\n     */\n    function beneficiary() public view returns (address) {\n        return _beneficiary;\n    }\n\n    /**\n     * @dev Stores funds that may later be refunded.\n     * @param refundee The address funds will be sent to if a refund occurs.\n     */\n    function deposit(address refundee) public payable {\n        require(_state == State.Active, \"RefundEscrow: can only deposit while active\");\n        super.deposit(refundee);\n    }\n\n    /**\n     * @dev Allows for the beneficiary to withdraw their funds, rejecting\n     * further deposits.\n     */\n    function close() public onlyPrimary {\n        require(_state == State.Active, \"RefundEscrow: can only close while active\");\n        _state = State.Closed;\n        emit RefundsClosed();\n    }\n\n    /**\n     * @dev Allows for refunds to take place, rejecting further deposits.\n     */\n    function enableRefunds() public onlyPrimary {\n        require(_state == State.Active, \"RefundEscrow: can only enable refunds while active\");\n        _state = State.Refunding;\n        emit RefundsEnabled();\n    }\n\n    /**\n     * @dev Withdraws the beneficiary's funds.\n     */\n    function beneficiaryWithdraw() public {\n        require(_state == State.Closed, \"RefundEscrow: beneficiary can only withdraw while closed\");\n        _beneficiary.transfer(address(this).balance);\n    }\n\n    /**\n     * @dev Returns whether refundees can withdraw their deposits (be refunded). The overridden function receives a\n     * 'payee' argument, but we ignore it here since the condition is global, not per-payee.\n     */\n    function withdrawalAllowed(address) public view returns (bool) {\n        return _state == State.Refunding;\n    }\n}\n",
  "sourcePath": "/Users/bibodeng/Programming/water_loan_core/contracts/libraries/openzeppelin-solidity/contracts/payment/escrow/RefundEscrow.sol",
  "compiler": {
    "name": "solc",
    "version": "0.5.4+commit.d15a3125.mod.Emscripten.clang"
  },
  "schemaVersion": "2.0.1",
  "updatedAt": "2020-11-19T10:56:46.803Z"
}