{
  "contractName": "TokenDistributor",
  "abi": [
    {
      "constant": true,
      "inputs": [],
      "name": "MAX_UINT_MINUS_ONE",
      "outputs": [
        {
          "name": "",
          "type": "uint256"
        }
      ],
      "payable": false,
      "stateMutability": "view",
      "type": "function"
    },
    {
      "constant": true,
      "inputs": [],
      "name": "DISTRIBUTION_BASE",
      "outputs": [
        {
          "name": "",
          "type": "uint256"
        }
      ],
      "payable": false,
      "stateMutability": "view",
      "type": "function"
    },
    {
      "constant": true,
      "inputs": [],
      "name": "recipientBurn",
      "outputs": [
        {
          "name": "",
          "type": "address"
        }
      ],
      "payable": false,
      "stateMutability": "view",
      "type": "function"
    },
    {
      "constant": true,
      "inputs": [],
      "name": "IMPLEMENTATION_REVISION",
      "outputs": [
        {
          "name": "",
          "type": "uint256"
        }
      ],
      "payable": false,
      "stateMutability": "view",
      "type": "function"
    },
    {
      "constant": true,
      "inputs": [],
      "name": "MIN_CONVERSION_RATE",
      "outputs": [
        {
          "name": "",
          "type": "uint256"
        }
      ],
      "payable": false,
      "stateMutability": "view",
      "type": "function"
    },
    {
      "constant": true,
      "inputs": [],
      "name": "tokenToBurn",
      "outputs": [
        {
          "name": "",
          "type": "address"
        }
      ],
      "payable": false,
      "stateMutability": "view",
      "type": "function"
    },
    {
      "constant": true,
      "inputs": [],
      "name": "swapProxy",
      "outputs": [
        {
          "name": "",
          "type": "address"
        }
      ],
      "payable": false,
      "stateMutability": "view",
      "type": "function"
    },
    {
      "constant": true,
      "inputs": [],
      "name": "SWAP_TRX_MOCK_ADDRESS",
      "outputs": [
        {
          "name": "",
          "type": "address"
        }
      ],
      "payable": false,
      "stateMutability": "view",
      "type": "function"
    },
    {
      "constant": true,
      "inputs": [],
      "name": "MAX_UINT",
      "outputs": [
        {
          "name": "",
          "type": "uint256"
        }
      ],
      "payable": false,
      "stateMutability": "view",
      "type": "function"
    },
    {
      "payable": true,
      "stateMutability": "payable",
      "type": "fallback"
    },
    {
      "anonymous": false,
      "inputs": [
        {
          "indexed": false,
          "name": "receivers",
          "type": "address[]"
        },
        {
          "indexed": false,
          "name": "percentages",
          "type": "uint256[]"
        }
      ],
      "name": "DistributionUpdated",
      "type": "event"
    },
    {
      "anonymous": false,
      "inputs": [
        {
          "indexed": false,
          "name": "receiver",
          "type": "address"
        },
        {
          "indexed": false,
          "name": "percentage",
          "type": "uint256"
        },
        {
          "indexed": false,
          "name": "amount",
          "type": "uint256"
        }
      ],
      "name": "Distributed",
      "type": "event"
    },
    {
      "anonymous": false,
      "inputs": [
        {
          "indexed": false,
          "name": "tokenToBurn",
          "type": "address"
        },
        {
          "indexed": false,
          "name": "swapProxy",
          "type": "address"
        },
        {
          "indexed": false,
          "name": "_recipientBurn",
          "type": "address"
        }
      ],
      "name": "Setup",
      "type": "event"
    },
    {
      "anonymous": false,
      "inputs": [
        {
          "indexed": true,
          "name": "from",
          "type": "address"
        },
        {
          "indexed": false,
          "name": "fromAmount",
          "type": "uint256"
        },
        {
          "indexed": false,
          "name": "toAmount",
          "type": "uint256"
        }
      ],
      "name": "Trade",
      "type": "event"
    },
    {
      "anonymous": false,
      "inputs": [
        {
          "indexed": false,
          "name": "amount",
          "type": "uint256"
        }
      ],
      "name": "Burn",
      "type": "event"
    },
    {
      "constant": false,
      "inputs": [
        {
          "name": "_recipientBurn",
          "type": "address"
        },
        {
          "name": "_tokenToBurn",
          "type": "address"
        },
        {
          "name": "_swapProxy",
          "type": "address"
        },
        {
          "name": "_receivers",
          "type": "address[]"
        },
        {
          "name": "_percentages",
          "type": "uint256[]"
        },
        {
          "name": "_tokens",
          "type": "address[]"
        }
      ],
      "name": "initialize",
      "outputs": [],
      "payable": false,
      "stateMutability": "nonpayable",
      "type": "function"
    },
    {
      "constant": false,
      "inputs": [
        {
          "name": "_tokens",
          "type": "address[]"
        }
      ],
      "name": "distribute",
      "outputs": [],
      "payable": false,
      "stateMutability": "nonpayable",
      "type": "function"
    },
    {
      "constant": false,
      "inputs": [
        {
          "name": "_tokens",
          "type": "address[]"
        }
      ],
      "name": "approveSwap",
      "outputs": [],
      "payable": false,
      "stateMutability": "nonpayable",
      "type": "function"
    },
    {
      "constant": true,
      "inputs": [],
      "name": "getDistribution",
      "outputs": [
        {
          "name": "receivers",
          "type": "address[]"
        },
        {
          "name": "percentages",
          "type": "uint256[]"
        }
      ],
      "payable": false,
      "stateMutability": "view",
      "type": "function"
    }
  ],
  "bytecode": "0x60806040526000805534801561001457600080fd5b50d3801561002157600080fd5b50d2801561002e57600080fd5b506119598061003e6000396000f3fe6080604052600436106100df576000357c0100000000000000000000000000000000000000000000000000000000900480634f1b86eb1161009c5780637623bac5116100765780637623bac5146103bb57806384f1d068146105ae578063da57225014610678578063e5b5019a146106a7576100df565b80634f1b86eb146102935780636138889b146102c25780636ec4be901461038c576100df565b8063043c41d4146100e157806313520658146101225780631cced51b14610151578063217ab8061461021957806323879bb11461026457806340d58a4a14610264575b005b3480156100ed57600080fd5b50d380156100fa57600080fd5b50d2801561010757600080fd5b506101106106d6565b60408051918252519081900360200190f35b34801561012e57600080fd5b50d3801561013b57600080fd5b50d2801561014857600080fd5b506101106106dc565b34801561015d57600080fd5b50d3801561016a57600080fd5b50d2801561017757600080fd5b506101806106e2565b604051808060200180602001838103835285818151815260200191508051906020019060200280838360005b838110156101c45781810151838201526020016101ac565b50505050905001838103825284818151815260200191508051906020019060200280838360005b838110156102035781810151838201526020016101eb565b5050505090500194505050505060405180910390f35b34801561022557600080fd5b50d3801561023257600080fd5b50d2801561023f57600080fd5b5061024861079f565b60408051600160a060020a039092168252519081900360200190f35b34801561027057600080fd5b50d3801561027d57600080fd5b50d2801561028a57600080fd5b506101106107ae565b34801561029f57600080fd5b50d380156102ac57600080fd5b50d280156102b957600080fd5b506102486107b3565b3480156102ce57600080fd5b50d380156102db57600080fd5b50d280156102e857600080fd5b506100df600480360360208110156102ff57600080fd5b81019060208101813564010000000081111561031a57600080fd5b82018360208201111561032c57600080fd5b8035906020019184602083028401116401000000008311171561034e57600080fd5b9190808060200260200160405190810160405280939291908181526020018383602002808284376000920191909152509295506107c2945050505050565b34801561039857600080fd5b50d380156103a557600080fd5b50d280156103b257600080fd5b50610248610c08565b3480156103c757600080fd5b50d380156103d457600080fd5b50d280156103e157600080fd5b506100df600480360360c08110156103f857600080fd5b600160a060020a038235811692602081013582169260408201359092169181019060808101606082013564010000000081111561043457600080fd5b82018360208201111561044657600080fd5b8035906020019184602083028401116401000000008311171561046857600080fd5b91908080602002602001604051908101604052809392919081815260200183836020028082843760009201919091525092959493602081019350359150506401000000008111156104b857600080fd5b8201836020820111156104ca57600080fd5b803590602001918460208302840111640100000000831117156104ec57600080fd5b919080806020026020016040519081016040528093929190818152602001838360200280828437600092019190915250929594936020810193503591505064010000000081111561053c57600080fd5b82018360208201111561054e57600080fd5b8035906020019184602083028401116401000000008311171561057057600080fd5b919080806020026020016040519081016040528093929190818152602001838360200280828437600092019190915250929550610c17945050505050565b3480156105ba57600080fd5b50d380156105c757600080fd5b50d280156105d457600080fd5b506100df600480360360208110156105eb57600080fd5b81019060208101813564010000000081111561060657600080fd5b82018360208201111561061857600080fd5b8035906020019184602083028401116401000000008311171561063a57600080fd5b919080806020026020016040519081016040528093929190818152602001838360200280828437600092019190915250929550610d66945050505050565b34801561068457600080fd5b50d3801561069157600080fd5b50d2801561069e57600080fd5b50610248610df4565b3480156106b357600080fd5b50d380156106c057600080fd5b50d280156106cd57600080fd5b50610110610e0c565b60011981565b61271081565b606080603460000180548060200260200160405190810160405280929190818152602001828054801561073e57602002820191906000526020600020905b8154600160a060020a03168152600190910190602001808311610720575b50505050509150603460010180548060200260200160405190810160405280929190818152602001828054801561079457602002820191906000526020600020905b815481526020019060010190808311610780575b505050505090509091565b603854600160a060020a031681565b600181565b603754600160a060020a031681565b60005b8151811015610c0457600082828151811015156107de57fe5b90602001906020020151905060006107f4610e12565b600160a060020a031682600160a060020a031614156108145730316108b5565b838381518110151561082257fe5b6020908102909101810151604080517f70a082310000000000000000000000000000000000000000000000000000000081523060048201529051600160a060020a03909216926370a0823192602480840193829003018186803b15801561088857600080fd5b505afa15801561089c573d6000803e3d6000fd5b505050506040513d60208110156108b257600080fd5b50515b9050600081116108c6575050610bfc565b6108ce61172a565b60408051603480546060602082028401810185529383018181529293919284929091849184018282801561092b57602002820191906000526020600020905b8154600160a060020a0316815260019091019060200180831161090d575b505050505081526020016001820180548060200260200160405190810160405280929190818152602001828054801561098357602002820191906000526020600020905b81548152602001906001019080831161096f575b505050505081525050905060008090505b815151811015610bf75760006109de6127106109d28560200151858151811015156109bb57fe5b60209081029091010151879063ffffffff610e2b16565b9063ffffffff610e9416565b83518051919250600091849081106109f257fe5b60209081029091010151600160a060020a031614610bbf57610a12610e12565b600160a060020a03868116911614610a755782518051610a70919084908110610a3757fe5b90602001906020020151828989815181101515610a5057fe5b60209081029091010151600160a060020a0316919063ffffffff610ed616565b610b3d565b825180516000919084908110610a8757fe5b60209081029091010151604051600160a060020a03909116908390600081818185875af1925050503d8060008114610adb576040519150601f19603f3d011682016040523d82523d6000602084013e610ae0565b606091505b50509050801515610b3b576040805160e560020a62461bcd02815260206004820152601560248201527f526576657274656420545258207472616e736665720000000000000000000000604482015290519081900360640190fd5b505b825180517f60ce3cc2d133631eac66a476f14997a9fa682bd05a60dd993cf02285822d78d8919084908110610b6e57fe5b90602001906020020151846020015184815181101515610b8a57fe5b602090810290910181015160408051600160a060020a03909416845291830152818101849052519081900360600190a1610bee565b6037548190600160a060020a03878116911614610be357610be08683610f5b565b90505b610bec816110ce565b505b50600101610994565b505050505b6001016107c5565b5050565b603654600160a060020a031681565b6000610c216111e2565b60015490915060ff1680610c385750610c386111e7565b80610c44575060005481115b1515610c845760405160e560020a62461bcd02815260040180806020018281038252602e815260200180611867602e913960400191505060405180910390fd5b60015460ff16158015610ca3576001805460ff19168117905560008290555b60388054600160a060020a03808b1673ffffffffffffffffffffffffffffffffffffffff1992831617909255603780548a84169083161790556036805492891692909116919091179055610cf785856111ed565b610d0083610d66565b60408051600160a060020a03808a16825280891660208301528a168183015290517f99566d155bc7902033d8db6b0f091f12209d9651abdae3aad004632bd3e657b59181900360600190a18015610d5c576001805460ff191690555b5050505050505050565b60005b8151811015610c0457610d7a610e12565b600160a060020a03168282815181101515610d9157fe5b60209081029091010151600160a060020a031614610dec576036548251610dec91600160a060020a03169060011990859085908110610dcc57fe5b60209081029091010151600160a060020a0316919063ffffffff61134a16565b600101610d69565b73eeeeeeeeeeeeeeeeeeeeeeeeeeeeeeeeeeeeeeee81565b60001981565b73eeeeeeeeeeeeeeeeeeeeeeeeeeeeeeeeeeeeeeee5b90565b6000821515610e3c57506000610e8e565b828202828482811515610e4b57fe5b0414610e8b5760405160e560020a62461bcd0281526004018080602001828103825260218152602001806118466021913960400191505060405180910390fd5b90505b92915050565b6000610e8b83836040805190810160405280601a81526020017f536166654d6174683a206469766973696f6e206279207a65726f0000000000008152506114a9565b60408051600160a060020a038416602482015260448082018490528251808303909101815260649091019091526020810180517bffffffffffffffffffffffffffffffffffffffffffffffffffffffff167fa9059cbb00000000000000000000000000000000000000000000000000000000179052610f56908490611552565b505050565b600080610f66610e12565b600160a060020a031684600160a060020a031614610f845783610f9a565b73eeeeeeeeeeeeeeeeeeeeeeeeeeeeeeeeeeeeeeee5b90506000610fa6610e12565b600160a060020a031685600160a060020a031614610fc5576000610fc7565b835b603654603754604080517ff34f31af000000000000000000000000000000000000000000000000000000008152600160a060020a038781166004830152602482018a905292831660448201523060648201529051939450600093919092169163f34f31af91859160848082019260209290919082900301818588803b15801561104f57600080fd5b505af1158015611063573d6000803e3d6000fd5b50505050506040513d602081101561107a57600080fd5b505160408051878152602081018390528151929350600160a060020a038616927fc6c64663abd604372f6cce5d7fa31596ffb4de182467cd1fc81bd8adb88c2c2e929181900390910190a295945050505050565b603754603854604080517fa9059cbb000000000000000000000000000000000000000000000000000000008152600160a060020a039283166004820152602481018590529051919092169163a9059cbb9160448083019260209291908290030181600087803b15801561114057600080fd5b505af1158015611154573d6000803e3d6000fd5b505050506040513d602081101561116a57600080fd5b505115156111ac5760405160e560020a62461bcd0281526004018080602001828103825260398152602001806118956039913960400191505060405180910390fd5b6040805182815290517fb90306ad06b2a6ff86ddc9327db583062895ef6540e62dc50add009db5b356eb9181900360200190a150565b600190565b303b1590565b8051825114611246576040805160e560020a62461bcd02815260206004820152601d60248201527f4172726179206c656e677468732073686f756c6420626520657175616c000000604482015290519081900360640190fd5b604080518082019091528281526020808201839052835160349161126e918391870190611741565b50602082810151805161128792600185019201906117b3565b509050507fdc9f439f707945ade720b0154668dd64af0689fb88b40abdb0f0289156d23e9d8282604051808060200180602001838103835285818151815260200191508051906020019060200280838360005b838110156112f25781810151838201526020016112da565b50505050905001838103825284818151815260200191508051906020019060200280838360005b83811015611331578181015183820152602001611319565b5050505090500194505050505060405180910390a15050565b8015806113e95750604080517fdd62ed3e000000000000000000000000000000000000000000000000000000008152306004820152600160a060020a03848116602483015291519185169163dd62ed3e91604480820192602092909190829003018186803b1580156113bb57600080fd5b505afa1580156113cf573d6000803e3d6000fd5b505050506040513d60208110156113e557600080fd5b5051155b15156114295760405160e560020a62461bcd0281526004018080602001828103825260368152602001806118f86036913960400191505060405180910390fd5b60408051600160a060020a038416602482015260448082018490528251808303909101815260649091019091526020810180517bffffffffffffffffffffffffffffffffffffffffffffffffffffffff167f095ea7b300000000000000000000000000000000000000000000000000000000179052610f56908490611552565b60008181841161153a5760405160e560020a62461bcd0281526004018080602001828103825283818151815260200191508051906020019080838360005b838110156114ff5781810151838201526020016114e7565b50505050905090810190601f16801561152c5780820380516001836020036101000a031916815260200191505b509250505060405180910390fd5b506000838581151561154857fe5b0495945050505050565b61156482600160a060020a0316611722565b15156115ba576040805160e560020a62461bcd02815260206004820152601f60248201527f5361666545524332303a2063616c6c20746f206e6f6e2d636f6e747261637400604482015290519081900360640190fd5b6000606083600160a060020a0316836040518082805190602001908083835b602083106115f85780518252601f1990920191602091820191016115d9565b6001836020036101000a0380198251168184511680821785525050505050509050019150506000604051808303816000865af19150503d806000811461165a576040519150601f19603f3d011682016040523d82523d6000602084013e61165f565b606091505b50915091508115156116bb576040805160e560020a62461bcd02815260206004820181905260248201527f5361666545524332303a206c6f772d6c6576656c2063616c6c206661696c6564604482015290519081900360640190fd5b60008151111561171c578080602001905160208110156116da57600080fd5b5051151561171c5760405160e560020a62461bcd02815260040180806020018281038252602a8152602001806118ce602a913960400191505060405180910390fd5b50505050565b6000903b1190565b604080518082019091526060808252602082015290565b8280548282559060005260206000209081019282156117a3579160200282015b828111156117a3578251825473ffffffffffffffffffffffffffffffffffffffff1916600160a060020a03909116178255602090920191600190910190611761565b506117af9291506117fa565b5090565b8280548282559060005260206000209081019282156117ee579160200282015b828111156117ee5782518255916020019190600101906117d3565b506117af92915061182b565b610e2891905b808211156117af57805473ffffffffffffffffffffffffffffffffffffffff19168155600101611800565b610e2891905b808211156117af576000815560010161183156fe536166654d6174683a206d756c7469706c69636174696f6e206f766572666c6f77436f6e747261637420696e7374616e63652068617320616c7265616479206265656e20696e697469616c697a6564494e5445524e414c5f4255524e2e205265766572746564207472616e7366657220746f20726563697069656e744275726e20616464726573735361666545524332303a204552433230206f7065726174696f6e20646964206e6f7420737563636565645361666545524332303a20617070726f76652066726f6d206e6f6e2d7a65726f20746f206e6f6e2d7a65726f20616c6c6f77616e6365a165627a7a7230582051e8773ec3d943d22d5c6a36e959c9b54855e5be11f1928641b515f7238e1ed20029",
  "source": "pragma solidity ^0.5.0;\n\nimport \"../libraries/openzeppelin-solidity/contracts/math/SafeMath.sol\";\nimport \"../libraries/openzeppelin-solidity/contracts/token/ERC20/IERC20.sol\";\nimport \"../libraries/openzeppelin-solidity/contracts/token/ERC20/SafeERC20.sol\";\nimport \"../libraries/openzeppelin-solidity/contracts/token/ERC20/ERC20Burnable.sol\";\n\nimport \"../libraries/openzeppelin-upgradeability/VersionedInitializable.sol\";\nimport \"../interfaces/IJustSwapInterface.sol\";\nimport \"../libraries/TrxAddressLib.sol\";\n\n\n/// @title TokenDistributor\n/// @author Aave\n/// @notice Receives tokens and manages the distribution amongst receivers\n///  The usage is as follows:\n///  - The distribution addresses and percentages are set up on construction\n///  - The Swap Proxy is approved for a list of tokens in construction, which will be later burnt\n///  - At any moment, anyone can call distribute() with a list of token addresses in order to distribute\n///    the accumulated token amounts and/or TRX in this contract to all the receivers with percentages\n///  - If the address(0) is used as receiver, this contract will trade in JustSwap to tokenToBurn\n///    and burn it (sending to address(0) the tokenToBurn)\ncontract TokenDistributor is VersionedInitializable {\n    using SafeMath for uint256;\n    using SafeERC20 for IERC20;\n\n    struct Distribution {\n        address[] receivers;\n        uint256[] percentages;\n    }\n\n    event DistributionUpdated(address[] receivers, uint256[] percentages);\n    event Distributed(address receiver, uint256 percentage, uint256 amount);\n    event Setup(address tokenToBurn, address swapProxy, address _recipientBurn);\n    event Trade(address indexed from, uint256 fromAmount, uint256 toAmount);\n    event Burn(uint256 amount);\n\n    uint256 public constant IMPLEMENTATION_REVISION = 0x1;\n\n    uint256 public constant MAX_UINT = 2**256 - 1;\n\n    uint256 public constant MAX_UINT_MINUS_ONE = (2**256 - 1) - 1;\n\n    /// @notice A value of 1 will execute the trade according to market price in the time of the transaction confirmation\n    uint256 public constant MIN_CONVERSION_RATE = 1;\n\n    address public constant SWAP_TRX_MOCK_ADDRESS = address(0x00eeeeeeeeeeeeeeeeeeeeeeeeeeeeeeeeeeeeeeee);\n\n    /// @notice Defines how tokens and TRX are distributed on each call to .distribute()\n    Distribution private distribution;\n\n    /// @notice Instead of using 100 for percentages, higher base to have more precision in the distribution\n    uint256 public constant DISTRIBUTION_BASE = 10000;\n\n    /// @notice Swap Proxy contract to trade tokens/TRX to tokenToBurn\n    IJustSwapInterface public swapProxy;\n\n    /// @notice The address of the token to burn (LEND token)\n    address public tokenToBurn;\n\n    /// @notice Address to send tokens to \"burn\".\n    /// Because of limitations on OZ ERC20, on dev it's needed to use the 0x00000...1 address instead of address(0)\n    /// So this param needs to be received on construction\n    address public recipientBurn;\n\n    /// @notice Called by the proxy when setting this contract as implementation\n    function initialize(\n        address _recipientBurn,\n        address _tokenToBurn,\n        address _swapProxy,\n        address[] memory _receivers,\n        uint256[] memory _percentages,\n        IERC20[] memory _tokens\n    ) public initializer {\n        recipientBurn = _recipientBurn;\n        tokenToBurn = _tokenToBurn;\n        swapProxy = IJustSwapInterface(_swapProxy);\n        internalSetTokenDistribution(_receivers, _percentages);\n        approveSwap(_tokens);\n        emit Setup(_tokenToBurn, _swapProxy, _recipientBurn);\n    }\n\n    /// @notice In order to receive TRX transfers\n    function() external payable {}\n\n    /// @notice Distributes a list of _tokens balances in this contract, depending on the distribution\n    /// @param _tokens list of ERC20 tokens to distribute\n    function distribute(IERC20[] memory _tokens) public {\n        for (uint256 i = 0; i < _tokens.length; i++) {\n            address _tokenAddress = address(_tokens[i]);\n            uint256 _balanceToDistribute = (_tokenAddress != TrxAddressLib.trxAddress())\n                ? _tokens[i].balanceOf(address(this))\n                : address(this).balance;\n            if (_balanceToDistribute <= 0) {\n                continue;\n            }\n\n            Distribution memory _distribution = distribution;\n            for (uint256 j = 0; j < _distribution.receivers.length; j++) {\n                uint256 _amount = _balanceToDistribute.mul(_distribution.percentages[j]).div(DISTRIBUTION_BASE);\n                if (_distribution.receivers[j] != address(0)) {\n                    if (_tokenAddress != TrxAddressLib.trxAddress()) {\n                        _tokens[i].safeTransfer(_distribution.receivers[j], _amount);\n                    } else {\n                        (bool _success,) = _distribution.receivers[j].call.value(_amount)(\"\");\n                        require(_success, \"Reverted TRX transfer\");\n                    }\n                    emit Distributed(_distribution.receivers[j], _distribution.percentages[j], _amount);\n                } else {\n                    uint256 _amountToBurn = _amount;\n                    // If the token to burn is already tokenToBurn, we don't trade, burning directly\n                    if (_tokenAddress != tokenToBurn) {\n                        _amountToBurn = internalTrade(_tokenAddress, _amount);\n                    }\n                    internalBurn(_amountToBurn);\n                }\n            }\n        }\n    }\n\n    /// @notice \"Infinite\" approval for all the tokens initialized\n    /// @param _tokens List of IERC20 to approve\n    function approveSwap(IERC20[] memory _tokens) public {\n        for (uint256 i = 0; i < _tokens.length; i++) {\n            if (address(_tokens[i]) != TrxAddressLib.trxAddress()) {\n                _tokens[i].safeApprove(address(swapProxy), MAX_UINT_MINUS_ONE);\n            }\n        }\n    }\n\n    /// @notice Returns the receivers and percentages of the contract Distribution\n    /// @return receivers array of addresses and percentages array on uints\n    function getDistribution() public view returns(address[] memory receivers, uint256[] memory percentages) {\n        receivers = distribution.receivers;\n        percentages = distribution.percentages;\n    }\n\n    /// @notice Gets the revision number of the contract\n    /// @return The revision numeric reference\n    function getRevision() internal pure returns (uint256) {\n        return IMPLEMENTATION_REVISION;\n    }\n\n    /// @notice Sets _receivers addresses with _percentages for each one\n    /// @param _receivers Array of addresses receiving a percentage of the distribution, both user addresses\n    ///   or contracts\n    /// @param _percentages Array of percentages each _receivers member will get\n    function internalSetTokenDistribution(address[] memory _receivers, uint256[] memory _percentages) internal {\n        require(_receivers.length == _percentages.length, \"Array lengths should be equal\");\n\n        distribution = Distribution({receivers: _receivers, percentages: _percentages});\n        emit DistributionUpdated(_receivers, _percentages);\n    }\n\n    /// @notice Internal trade function\n    /// @param _from The token to trade from\n    /// @param _amount The amount to trade\n    function internalTrade(address _from, uint256 _amount) internal returns(uint256) {\n        address _swapFromRef = (_from == TrxAddressLib.trxAddress())\n            ? SWAP_TRX_MOCK_ADDRESS\n            : _from;\n        uint256 _value = (_from == TrxAddressLib.trxAddress())\n            ? _amount\n            : 0;\n\n        uint256 _amountReceived = swapProxy.tradeWithHint.value(_value)(\n            // _from token (or TRX mock address)\n            _swapFromRef,\n            // amount of the _from token to trade\n            _amount,\n            // _to token (or TRX mock address)\n            tokenToBurn,\n            // address which will receive the _to token amount traded\n            address(this)\n        );\n        emit Trade(_swapFromRef, _amount, _amountReceived);\n        return _amountReceived;\n    }\n\n    /// @notice Internal function to send _amount of tokenToBurn to the 0x0 address\n    /// @param _amount The amount to burn\n    function internalBurn(uint256 _amount) internal {\n        require(IERC20(tokenToBurn).transfer(recipientBurn, _amount), \"INTERNAL_BURN. Reverted transfer to recipientBurn address\");\n        emit Burn(_amount);\n    }\n\n}\n",
  "sourcePath": "/Users/bibodeng/Programming/water_loan_core/contracts/fees/TokenDistributor.sol",
  "compiler": {
    "name": "solc",
    "version": "0.5.4+commit.d15a3125.mod.Emscripten.clang"
  },
  "schemaVersion": "2.0.1",
  "updatedAt": "2020-12-06T14:57:27.660Z"
}