{
  "contractName": "WalletBalanceProvider",
  "abi": [
    {
      "inputs": [
        {
          "name": "_provider",
          "type": "address"
        }
      ],
      "payable": false,
      "stateMutability": "nonpayable",
      "type": "constructor"
    },
    {
      "payable": true,
      "stateMutability": "payable",
      "type": "fallback"
    },
    {
      "constant": true,
      "inputs": [
        {
          "name": "_user",
          "type": "address"
        },
        {
          "name": "_token",
          "type": "address"
        }
      ],
      "name": "balanceOf",
      "outputs": [
        {
          "name": "",
          "type": "uint256"
        }
      ],
      "payable": false,
      "stateMutability": "view",
      "type": "function"
    },
    {
      "constant": true,
      "inputs": [
        {
          "name": "_user",
          "type": "address"
        }
      ],
      "name": "getUserWalletBalances",
      "outputs": [
        {
          "name": "",
          "type": "address[]"
        },
        {
          "name": "",
          "type": "uint256[]"
        }
      ],
      "payable": false,
      "stateMutability": "view",
      "type": "function"
    }
  ],
  "bytecode": "0x608060405234801561001057600080fd5b50d3801561001d57600080fd5b50d2801561002a57600080fd5b506040516020806106798339810180604052602081101561004a57600080fd5b505160008054600160a060020a03909216600160a060020a03199092169190911790556105fd8061007c6000396000f3fe60806040526004361061002c5760e060020a60003504639e3c9309811461007d578063f7888aec14610163575b6040517f08c379a000000000000000000000000000000000000000000000000000000000815260040180806020018281038252602e8152602001806105a4602e913960400191505060405180910390fd5b34801561008957600080fd5b50d3801561009657600080fd5b50d280156100a357600080fd5b506100ca600480360360208110156100ba57600080fd5b5035600160a060020a03166101ca565b604051808060200180602001838103835285818151815260200191508051906020019060200280838360005b8381101561010e5781810151838201526020016100f6565b50505050905001838103825284818151815260200191508051906020019060200280838360005b8381101561014d578181015183820152602001610135565b5050505090500194505050505060405180910390f35b34801561016f57600080fd5b50d3801561017c57600080fd5b50d2801561018957600080fd5b506101b8600480360360408110156101a057600080fd5b50600160a060020a03813581169160200135166104d4565b60408051918252519081900360200190f35b60608060008060009054906101000a9004600160a060020a0316600160a060020a031663ed6ff7606040518163ffffffff1660e060020a02815260040160206040518083038186803b15801561021f57600080fd5b505afa158015610233573d6000803e3d6000fd5b505050506040513d602081101561024957600080fd5b5051604080517f0902f1ac0000000000000000000000000000000000000000000000000000000081529051919250606091600160a060020a03841691630902f1ac916004808301926000929190829003018186803b1580156102aa57600080fd5b505afa1580156102be573d6000803e3d6000fd5b505050506040513d6000823e601f3d908101601f1916820160405260208110156102e757600080fd5b8101908080516401000000008111156102ff57600080fd5b8201602081018481111561031257600080fd5b815185602082028301116401000000008211171561032f57600080fd5b5050929190505050905060608151604051908082528060200260200182016040528015610366578160200160208202803883390190505b50905060005b82518110156104c85783600160a060020a03166305075d6e848381518110151561039257fe5b906020019060200201516040518263ffffffff1660e060020a0281526004018082600160a060020a0316600160a060020a0316815260200191505060206040518083038186803b1580156103e557600080fd5b505afa1580156103f9573d6000803e3d6000fd5b505050506040513d602081101561040f57600080fd5b50511515610436576000828281518110151561042757fe5b602090810290910101526104c0565b61043e610583565b600160a060020a0316838281518110151561045557fe5b60209081029091010151600160a060020a03161461049c5761048e87848381518110151561047f57fe5b906020019060200201516104d4565b828281518110151561042757fe5b86600160a060020a03163182828151811015156104b557fe5b602090810290910101525b60010161036c565b50909350915050915091565b60006104e882600160a060020a031661059b565b156105795781600160a060020a03166370a08231846040518263ffffffff1660e060020a0281526004018082600160a060020a0316600160a060020a0316815260200191505060206040518083038186803b15801561054657600080fd5b505afa15801561055a573d6000803e3d6000fd5b505050506040513d602081101561057057600080fd5b5051905061057d565b5060005b92915050565b73eeeeeeeeeeeeeeeeeeeeeeeeeeeeeeeeeeeeeeee90565b6000903b119056fe57616c6c657442616c616e636550726f766964657220646f6573206e6f7420616363657074207061796d656e7473a165627a7a72305820b451f273f927e0668dd386a0ef50fcbfd3574408503ae778ab4b13509c599e000029",
  "source": "pragma solidity ^0.5.0;\n\nimport \"../libraries/openzeppelin-solidity/contracts/utils/Address.sol\";\nimport \"../libraries/openzeppelin-solidity/contracts/token/ERC20/IERC20.sol\";\n\nimport \"../configuration/LendingPoolAddressesProvider.sol\";\nimport \"../lendingpool/LendingPoolCore.sol\";\nimport \"../libraries/TrxAddressLib.sol\";\n\n\n/**\n* @title WalletBalanceProvider contract\n* @author Aave, influenced by https://github.com/wbobeirne/eth-balance-checker/blob/master/contracts/BalanceChecker.sol\n* @notice Implements a logic of getting multiple tokens balance for one user address\n* @dev NOTE: THIS CONTRACT IS NOT USED WITHIN THE AAVE PROTOCOL. It's an accessory contract used to reduce the number of calls\n* towards the blockchain from the Aave backend.\n**/\ncontract WalletBalanceProvider {\n\n    using Address for address;\n\n    LendingPoolAddressesProvider provider;\n\n    constructor(LendingPoolAddressesProvider _provider) public {\n\n        provider = _provider;\n\n    }\n    /**\n    @dev Fallback function, don't accept any TRX \n    **/\n    function() external payable {\n        revert(\"WalletBalanceProvider does not accept payments\");\n    }\n\n    /**\n    @dev Check the token balance of a wallet in a token contract\n\n    Returns the balance of the token for user. Avoids possible errors:\n      - return 0 on non-contract address\n    **/\n    function balanceOf(address _user, address _token) public view returns (uint256) {\n        // check if token is actually a contract\n        if (_token.isContract()) {\n            return IERC20(_token).balanceOf(_user);\n        } else {\n            return 0;\n        }\n    }\n\n\n    /**\n    @dev provides balances of user wallet for all reserves available on the pool\n    */\n    function getUserWalletBalances(address _user) public view returns (address[] memory, uint256[] memory) {\n\n        LendingPoolCore core = LendingPoolCore(provider.getLendingPoolCore());\n\n        address[] memory reserves = core.getReserves();\n\n        uint256[] memory balances = new uint256[](reserves.length);\n\n        for (uint256 j = 0; j < reserves.length; j++) {\n            if(!core.getReserveIsActive(reserves[j])){\n                balances[j] = 0;\n                continue;\n            }\n            if (reserves[j] != TrxAddressLib.trxAddress()) {\n                balances[j] = balanceOf(_user, reserves[j]);\n            } else {\n                balances[j] = _user.balance; // TRX balance\n            }\n        }\n\n        return (reserves, balances);\n    }\n}\n",
  "sourcePath": "/Users/bibodeng/Programming/water_loan_core/contracts/misc/WalletBalanceProvider.sol",
  "compiler": {
    "name": "solc",
    "version": "0.5.4+commit.d15a3125.mod.Emscripten.clang"
  },
  "schemaVersion": "2.0.1",
  "updatedAt": "2020-11-19T10:56:46.904Z"
}